{
  "_format": "hh-sol-artifact-1",
  "contractName": "CheddaNFT",
  "sourceName": "contracts/market/CheddaNFT.sol",
  "abi": [
    {
      "inputs": [
        {
          "internalType": "uint256",
          "name": "_mintFee",
          "type": "uint256"
        },
        {
          "internalType": "address payable",
          "name": "_feeReceipient",
          "type": "address"
        }
      ],
      "stateMutability": "nonpayable",
      "type": "constructor"
    },
    {
      "anonymous": false,
      "inputs": [
        {
          "indexed": true,
          "internalType": "address",
          "name": "owner",
          "type": "address"
        },
        {
          "indexed": true,
          "internalType": "address",
          "name": "approved",
          "type": "address"
        },
        {
          "indexed": true,
          "internalType": "uint256",
          "name": "tokenId",
          "type": "uint256"
        }
      ],
      "name": "Approval",
      "type": "event"
    },
    {
      "anonymous": false,
      "inputs": [
        {
          "indexed": true,
          "internalType": "address",
          "name": "owner",
          "type": "address"
        },
        {
          "indexed": true,
          "internalType": "address",
          "name": "operator",
          "type": "address"
        },
        {
          "indexed": false,
          "internalType": "bool",
          "name": "approved",
          "type": "bool"
        }
      ],
      "name": "ApprovalForAll",
      "type": "event"
    },
    {
      "anonymous": false,
      "inputs": [
        {
          "indexed": false,
          "internalType": "uint256",
          "name": "tokenId",
          "type": "uint256"
        },
        {
          "indexed": false,
          "internalType": "address",
          "name": "beneficiary",
          "type": "address"
        },
        {
          "indexed": false,
          "internalType": "string",
          "name": "tokenUri",
          "type": "string"
        },
        {
          "indexed": false,
          "internalType": "address",
          "name": "minter",
          "type": "address"
        }
      ],
      "name": "Minted",
      "type": "event"
    },
    {
      "anonymous": false,
      "inputs": [
        {
          "indexed": true,
          "internalType": "address",
          "name": "previousOwner",
          "type": "address"
        },
        {
          "indexed": true,
          "internalType": "address",
          "name": "newOwner",
          "type": "address"
        }
      ],
      "name": "OwnershipTransferred",
      "type": "event"
    },
    {
      "anonymous": false,
      "inputs": [
        {
          "indexed": true,
          "internalType": "address",
          "name": "from",
          "type": "address"
        },
        {
          "indexed": true,
          "internalType": "address",
          "name": "to",
          "type": "address"
        },
        {
          "indexed": true,
          "internalType": "uint256",
          "name": "tokenId",
          "type": "uint256"
        }
      ],
      "name": "Transfer",
      "type": "event"
    },
    {
      "inputs": [
        {
          "internalType": "address",
          "name": "to",
          "type": "address"
        },
        {
          "internalType": "uint256",
          "name": "tokenId",
          "type": "uint256"
        }
      ],
      "name": "approve",
      "outputs": [],
      "stateMutability": "nonpayable",
      "type": "function"
    },
    {
      "inputs": [
        {
          "internalType": "address",
          "name": "owner",
          "type": "address"
        }
      ],
      "name": "balanceOf",
      "outputs": [
        {
          "internalType": "uint256",
          "name": "",
          "type": "uint256"
        }
      ],
      "stateMutability": "view",
      "type": "function"
    },
    {
      "inputs": [],
      "name": "feeReceipient",
      "outputs": [
        {
          "internalType": "address payable",
          "name": "",
          "type": "address"
        }
      ],
      "stateMutability": "view",
      "type": "function"
    },
    {
      "inputs": [
        {
          "internalType": "uint256",
          "name": "tokenId",
          "type": "uint256"
        }
      ],
      "name": "getApproved",
      "outputs": [
        {
          "internalType": "address",
          "name": "",
          "type": "address"
        }
      ],
      "stateMutability": "view",
      "type": "function"
    },
    {
      "inputs": [
        {
          "internalType": "address",
          "name": "owner",
          "type": "address"
        },
        {
          "internalType": "address",
          "name": "operator",
          "type": "address"
        }
      ],
      "name": "isApprovedForAll",
      "outputs": [
        {
          "internalType": "bool",
          "name": "",
          "type": "bool"
        }
      ],
      "stateMutability": "view",
      "type": "function"
    },
    {
      "inputs": [
        {
          "internalType": "address",
          "name": "mintAddress",
          "type": "address"
        },
        {
          "internalType": "string",
          "name": "tokenUri",
          "type": "string"
        }
      ],
      "name": "mint",
      "outputs": [
        {
          "internalType": "uint256",
          "name": "",
          "type": "uint256"
        }
      ],
      "stateMutability": "payable",
      "type": "function"
    },
    {
      "inputs": [],
      "name": "mintFee",
      "outputs": [
        {
          "internalType": "uint256",
          "name": "",
          "type": "uint256"
        }
      ],
      "stateMutability": "view",
      "type": "function"
    },
    {
      "inputs": [
        {
          "internalType": "uint256",
          "name": "",
          "type": "uint256"
        }
      ],
      "name": "minters",
      "outputs": [
        {
          "internalType": "address",
          "name": "",
          "type": "address"
        }
      ],
      "stateMutability": "view",
      "type": "function"
    },
    {
      "inputs": [],
      "name": "name",
      "outputs": [
        {
          "internalType": "string",
          "name": "",
          "type": "string"
        }
      ],
      "stateMutability": "view",
      "type": "function"
    },
    {
      "inputs": [],
      "name": "owner",
      "outputs": [
        {
          "internalType": "address",
          "name": "",
          "type": "address"
        }
      ],
      "stateMutability": "view",
      "type": "function"
    },
    {
      "inputs": [
        {
          "internalType": "uint256",
          "name": "tokenId",
          "type": "uint256"
        }
      ],
      "name": "ownerOf",
      "outputs": [
        {
          "internalType": "address",
          "name": "",
          "type": "address"
        }
      ],
      "stateMutability": "view",
      "type": "function"
    },
    {
      "inputs": [],
      "name": "renounceOwnership",
      "outputs": [],
      "stateMutability": "nonpayable",
      "type": "function"
    },
    {
      "inputs": [
        {
          "internalType": "address",
          "name": "from",
          "type": "address"
        },
        {
          "internalType": "address",
          "name": "to",
          "type": "address"
        },
        {
          "internalType": "uint256",
          "name": "tokenId",
          "type": "uint256"
        }
      ],
      "name": "safeTransferFrom",
      "outputs": [],
      "stateMutability": "nonpayable",
      "type": "function"
    },
    {
      "inputs": [
        {
          "internalType": "address",
          "name": "from",
          "type": "address"
        },
        {
          "internalType": "address",
          "name": "to",
          "type": "address"
        },
        {
          "internalType": "uint256",
          "name": "tokenId",
          "type": "uint256"
        },
        {
          "internalType": "bytes",
          "name": "_data",
          "type": "bytes"
        }
      ],
      "name": "safeTransferFrom",
      "outputs": [],
      "stateMutability": "nonpayable",
      "type": "function"
    },
    {
      "inputs": [
        {
          "internalType": "address",
          "name": "operator",
          "type": "address"
        },
        {
          "internalType": "bool",
          "name": "approved",
          "type": "bool"
        }
      ],
      "name": "setApprovalForAll",
      "outputs": [],
      "stateMutability": "nonpayable",
      "type": "function"
    },
    {
      "inputs": [
        {
          "internalType": "uint256",
          "name": "newMintFee",
          "type": "uint256"
        }
      ],
      "name": "setMintFee",
      "outputs": [],
      "stateMutability": "nonpayable",
      "type": "function"
    },
    {
      "inputs": [
        {
          "internalType": "bytes4",
          "name": "interfaceId",
          "type": "bytes4"
        }
      ],
      "name": "supportsInterface",
      "outputs": [
        {
          "internalType": "bool",
          "name": "",
          "type": "bool"
        }
      ],
      "stateMutability": "view",
      "type": "function"
    },
    {
      "inputs": [],
      "name": "symbol",
      "outputs": [
        {
          "internalType": "string",
          "name": "",
          "type": "string"
        }
      ],
      "stateMutability": "view",
      "type": "function"
    },
    {
      "inputs": [
        {
          "internalType": "uint256",
          "name": "index",
          "type": "uint256"
        }
      ],
      "name": "tokenByIndex",
      "outputs": [
        {
          "internalType": "uint256",
          "name": "",
          "type": "uint256"
        }
      ],
      "stateMutability": "view",
      "type": "function"
    },
    {
      "inputs": [
        {
          "internalType": "address",
          "name": "owner",
          "type": "address"
        },
        {
          "internalType": "uint256",
          "name": "index",
          "type": "uint256"
        }
      ],
      "name": "tokenOfOwnerByIndex",
      "outputs": [
        {
          "internalType": "uint256",
          "name": "",
          "type": "uint256"
        }
      ],
      "stateMutability": "view",
      "type": "function"
    },
    {
      "inputs": [
        {
          "internalType": "uint256",
          "name": "tokenId",
          "type": "uint256"
        }
      ],
      "name": "tokenURI",
      "outputs": [
        {
          "internalType": "string",
          "name": "",
          "type": "string"
        }
      ],
      "stateMutability": "view",
      "type": "function"
    },
    {
      "inputs": [],
      "name": "totalSupply",
      "outputs": [
        {
          "internalType": "uint256",
          "name": "",
          "type": "uint256"
        }
      ],
      "stateMutability": "view",
      "type": "function"
    },
    {
      "inputs": [
        {
          "internalType": "address",
          "name": "from",
          "type": "address"
        },
        {
          "internalType": "address",
          "name": "to",
          "type": "address"
        },
        {
          "internalType": "uint256",
          "name": "tokenId",
          "type": "uint256"
        }
      ],
      "name": "transferFrom",
      "outputs": [],
      "stateMutability": "nonpayable",
      "type": "function"
    },
    {
      "inputs": [
        {
          "internalType": "address",
          "name": "newOwner",
          "type": "address"
        }
      ],
      "name": "transferOwnership",
      "outputs": [],
      "stateMutability": "nonpayable",
      "type": "function"
    }
  ],
  "bytecode": "0x60806040523480156200001157600080fd5b50604051620041d9380380620041d98339818101604052810190620000379190620002f3565b6040518060400160405280600a81526020017f436865646461204e4654000000000000000000000000000000000000000000008152506040518060400160405280600481526020017f434e4654000000000000000000000000000000000000000000000000000000008152508160009080519060200190620000bb92919062000215565b508060019080519060200190620000d492919062000215565b505050620000f7620000eb6200014760201b60201c565b6200014f60201b60201c565b81600d8190555080600f60006101000a81548173ffffffffffffffffffffffffffffffffffffffff021916908373ffffffffffffffffffffffffffffffffffffffff16021790555050506200040b565b600033905090565b6000600a60009054906101000a900473ffffffffffffffffffffffffffffffffffffffff16905081600a60006101000a81548173ffffffffffffffffffffffffffffffffffffffff021916908373ffffffffffffffffffffffffffffffffffffffff1602179055508173ffffffffffffffffffffffffffffffffffffffff168173ffffffffffffffffffffffffffffffffffffffff167f8be0079c531659141344cd1fd0a4f28419497f9722a3daafe3b4186f6b6457e060405160405180910390a35050565b828054620002239062000372565b90600052602060002090601f01602090048101928262000247576000855562000293565b82601f106200026257805160ff191683800117855562000293565b8280016001018555821562000293579182015b828111156200029257825182559160200191906001019062000275565b5b509050620002a29190620002a6565b5090565b5b80821115620002c1576000816000905550600101620002a7565b5090565b600081519050620002d681620003d7565b92915050565b600081519050620002ed81620003f1565b92915050565b600080604083850312156200030757600080fd5b60006200031785828601620002dc565b92505060206200032a85828601620002c5565b9150509250929050565b6000620003418262000348565b9050919050565b600073ffffffffffffffffffffffffffffffffffffffff82169050919050565b6000819050919050565b600060028204905060018216806200038b57607f821691505b60208210811415620003a257620003a1620003a8565b5b50919050565b7f4e487b7100000000000000000000000000000000000000000000000000000000600052602260045260246000fd5b620003e28162000334565b8114620003ee57600080fd5b50565b620003fc8162000368565b81146200040857600080fd5b50565b613dbe806200041b6000396000f3fe60806040526004361061014b5760003560e01c806370a08231116100b6578063b88d4fde1161006f578063b88d4fde146104b8578063c87b56dd146104e1578063d0def5211461051e578063e985e9c51461054e578063eddd0d9c1461058b578063f2fde38b146105b45761014b565b806370a08231146103a8578063715018a6146103e55780638623ec7b146103fc5780638da5cb5b1461043957806395d89b4114610464578063a22cb4651461048f5761014b565b806323b872dd1161010857806323b872dd146102745780632f745c591461029d5780633740ebb3146102da57806342842e0e146103055780634f6ccce71461032e5780636352211e1461036b5761014b565b806301ffc9a71461015057806306fdde031461018d578063081812fc146101b8578063095ea7b3146101f557806313966db51461021e57806318160ddd14610249575b600080fd5b34801561015c57600080fd5b5061017760048036038101906101729190612b37565b6105dd565b6040516101849190613066565b60405180910390f35b34801561019957600080fd5b506101a2610657565b6040516101af9190613081565b60405180910390f35b3480156101c457600080fd5b506101df60048036038101906101da9190612b89565b6106e9565b6040516101ec9190612fe4565b60405180910390f35b34801561020157600080fd5b5061021c60048036038101906102179190612afb565b61076e565b005b34801561022a57600080fd5b50610233610886565b6040516102409190613363565b60405180910390f35b34801561025557600080fd5b5061025e61088c565b60405161026b9190613363565b60405180910390f35b34801561028057600080fd5b5061029b6004803603810190610296919061299d565b610899565b005b3480156102a957600080fd5b506102c460048036038101906102bf9190612afb565b6108f9565b6040516102d19190613363565b60405180910390f35b3480156102e657600080fd5b506102ef61099e565b6040516102fc9190612fff565b60405180910390f35b34801561031157600080fd5b5061032c6004803603810190610327919061299d565b6109c4565b005b34801561033a57600080fd5b5061035560048036038101906103509190612b89565b6109e4565b6040516103629190613363565b60405180910390f35b34801561037757600080fd5b50610392600480360381019061038d9190612b89565b610a7b565b60405161039f9190612fe4565b60405180910390f35b3480156103b457600080fd5b506103cf60048036038101906103ca9190612938565b610b2d565b6040516103dc9190613363565b60405180910390f35b3480156103f157600080fd5b506103fa610be5565b005b34801561040857600080fd5b50610423600480360381019061041e9190612b89565b610c6d565b6040516104309190612fe4565b60405180910390f35b34801561044557600080fd5b5061044e610ca0565b60405161045b9190612fe4565b60405180910390f35b34801561047057600080fd5b50610479610cca565b6040516104869190613081565b60405180910390f35b34801561049b57600080fd5b506104b660048036038101906104b19190612a67565b610d5c565b005b3480156104c457600080fd5b506104df60048036038101906104da91906129ec565b610edd565b005b3480156104ed57600080fd5b5061050860048036038101906105039190612b89565b610f3f565b6040516105159190613081565b60405180910390f35b61053860048036038101906105339190612aa3565b611093565b6040516105459190613363565b60405180910390f35b34801561055a57600080fd5b5061057560048036038101906105709190612961565b61130c565b6040516105829190613066565b60405180910390f35b34801561059757600080fd5b506105b260048036038101906105ad9190612b89565b6113a0565b005b3480156105c057600080fd5b506105db60048036038101906105d69190612938565b611426565b005b60007f780e9d63000000000000000000000000000000000000000000000000000000007bffffffffffffffffffffffffffffffffffffffffffffffffffffffff1916827bffffffffffffffffffffffffffffffffffffffffffffffffffffffff19161480610650575061064f8261151e565b5b9050919050565b606060008054610666906135e8565b80601f0160208091040260200160405190810160405280929190818152602001828054610692906135e8565b80156106df5780601f106106b4576101008083540402835291602001916106df565b820191906000526020600020905b8154815290600101906020018083116106c257829003601f168201915b5050505050905090565b60006106f482611600565b610733576040517f08c379a000000000000000000000000000000000000000000000000000000000815260040161072a90613243565b60405180910390fd5b6004600083815260200190815260200160002060009054906101000a900473ffffffffffffffffffffffffffffffffffffffff169050919050565b600061077982610a7b565b90508073ffffffffffffffffffffffffffffffffffffffff168373ffffffffffffffffffffffffffffffffffffffff1614156107ea576040517f08c379a00000000000000000000000000000000000000000000000000000000081526004016107e1906132c3565b60405180910390fd5b8073ffffffffffffffffffffffffffffffffffffffff1661080961166c565b73ffffffffffffffffffffffffffffffffffffffff16148061083857506108378161083261166c565b61130c565b5b610877576040517f08c379a000000000000000000000000000000000000000000000000000000000815260040161086e906131a3565b60405180910390fd5b6108818383611674565b505050565b600d5481565b6000600880549050905090565b6108aa6108a461166c565b8261172d565b6108e9576040517f08c379a00000000000000000000000000000000000000000000000000000000081526004016108e090613303565b60405180910390fd5b6108f483838361180b565b505050565b600061090483610b2d565b8210610945576040517f08c379a000000000000000000000000000000000000000000000000000000000815260040161093c906130a3565b60405180910390fd5b600660008473ffffffffffffffffffffffffffffffffffffffff1673ffffffffffffffffffffffffffffffffffffffff168152602001908152602001600020600083815260200190815260200160002054905092915050565b600f60009054906101000a900473ffffffffffffffffffffffffffffffffffffffff1681565b6109df83838360405180602001604052806000815250610edd565b505050565b60006109ee61088c565b8210610a2f576040517f08c379a0000000000000000000000000000000000000000000000000000000008152600401610a2690613323565b60405180910390fd5b60088281548110610a69577f4e487b7100000000000000000000000000000000000000000000000000000000600052603260045260246000fd5b90600052602060002001549050919050565b6000806002600084815260200190815260200160002060009054906101000a900473ffffffffffffffffffffffffffffffffffffffff169050600073ffffffffffffffffffffffffffffffffffffffff168173ffffffffffffffffffffffffffffffffffffffff161415610b24576040517f08c379a0000000000000000000000000000000000000000000000000000000008152600401610b1b906131e3565b60405180910390fd5b80915050919050565b60008073ffffffffffffffffffffffffffffffffffffffff168273ffffffffffffffffffffffffffffffffffffffff161415610b9e576040517f08c379a0000000000000000000000000000000000000000000000000000000008152600401610b95906131c3565b60405180910390fd5b600360008373ffffffffffffffffffffffffffffffffffffffff1673ffffffffffffffffffffffffffffffffffffffff168152602001908152602001600020549050919050565b610bed61166c565b73ffffffffffffffffffffffffffffffffffffffff16610c0b610ca0565b73ffffffffffffffffffffffffffffffffffffffff1614610c61576040517f08c379a0000000000000000000000000000000000000000000000000000000008152600401610c5890613263565b60405180910390fd5b610c6b6000611a67565b565b600e6020528060005260406000206000915054906101000a900473ffffffffffffffffffffffffffffffffffffffff1681565b6000600a60009054906101000a900473ffffffffffffffffffffffffffffffffffffffff16905090565b606060018054610cd9906135e8565b80601f0160208091040260200160405190810160405280929190818152602001828054610d05906135e8565b8015610d525780601f10610d2757610100808354040283529160200191610d52565b820191906000526020600020905b815481529060010190602001808311610d3557829003601f168201915b5050505050905090565b610d6461166c565b73ffffffffffffffffffffffffffffffffffffffff168273ffffffffffffffffffffffffffffffffffffffff161415610dd2576040517f08c379a0000000000000000000000000000000000000000000000000000000008152600401610dc990613143565b60405180910390fd5b8060056000610ddf61166c565b73ffffffffffffffffffffffffffffffffffffffff1673ffffffffffffffffffffffffffffffffffffffff16815260200190815260200160002060008473ffffffffffffffffffffffffffffffffffffffff1673ffffffffffffffffffffffffffffffffffffffff16815260200190815260200160002060006101000a81548160ff0219169083151502179055508173ffffffffffffffffffffffffffffffffffffffff16610e8c61166c565b73ffffffffffffffffffffffffffffffffffffffff167f17307eab39ab6107e8899845ad3d59bd9653f200f220920489ca2b5937696c3183604051610ed19190613066565b60405180910390a35050565b610eee610ee861166c565b8361172d565b610f2d576040517f08c379a0000000000000000000000000000000000000000000000000000000008152600401610f2490613303565b60405180910390fd5b610f3984848484611b2d565b50505050565b606081610f4b81611600565b610f8a576040517f08c379a0000000000000000000000000000000000000000000000000000000008152600401610f8190613163565b60405180910390fd5b6000600c60008581526020019081526020016000208054610faa906135e8565b80601f0160208091040260200160405190810160405280929190818152602001828054610fd6906135e8565b80156110235780601f10610ff857610100808354040283529160200191611023565b820191906000526020600020905b81548152906001019060200180831161100657829003601f168201915b505050505090506000611034611b89565b905060008151141561104a57819350505061108d565b60008251111561107f578082604051602001611067929190612fc0565b6040516020818303038152906040529350505061108d565b61108885611ba0565b935050505b50919050565b6000600d543410156110da576040517f08c379a00000000000000000000000000000000000000000000000000000000081526004016110d190613343565b60405180910390fd5b60008383905011611120576040517f08c379a000000000000000000000000000000000000000000000000000000000815260040161111790613223565b60405180910390fd5b600073ffffffffffffffffffffffffffffffffffffffff168473ffffffffffffffffffffffffffffffffffffffff161415611190576040517f08c379a0000000000000000000000000000000000000000000000000000000008152600401611187906132e3565b60405180910390fd5b61119a600b611c47565b60006111a6600b611c5d565b90506111b28582611c6b565b6112008185858080601f016020809104026020016040519081016040528093929190818152602001838380828437600081840152601f19601f82011690508083019250505050505050611c89565b600f60009054906101000a900473ffffffffffffffffffffffffffffffffffffffff1673ffffffffffffffffffffffffffffffffffffffff166108fc349081150290604051600060405180830381858888f19350505050158015611268573d6000803e3d6000fd5b5033600e600083815260200190815260200160002060006101000a81548173ffffffffffffffffffffffffffffffffffffffff021916908373ffffffffffffffffffffffffffffffffffffffff1602179055507f997115af5924f5e38964c6d65c804d4cb85129b65e62eb20a8ca6329dbe57e18818686866112e861166c565b6040516112f995949392919061337e565b60405180910390a1809150509392505050565b6000600560008473ffffffffffffffffffffffffffffffffffffffff1673ffffffffffffffffffffffffffffffffffffffff16815260200190815260200160002060008373ffffffffffffffffffffffffffffffffffffffff1673ffffffffffffffffffffffffffffffffffffffff16815260200190815260200160002060009054906101000a900460ff16905092915050565b6113a861166c565b73ffffffffffffffffffffffffffffffffffffffff166113c6610ca0565b73ffffffffffffffffffffffffffffffffffffffff161461141c576040517f08c379a000000000000000000000000000000000000000000000000000000000815260040161141390613263565b60405180910390fd5b80600d8190555050565b61142e61166c565b73ffffffffffffffffffffffffffffffffffffffff1661144c610ca0565b73ffffffffffffffffffffffffffffffffffffffff16146114a2576040517f08c379a000000000000000000000000000000000000000000000000000000000815260040161149990613263565b60405180910390fd5b600073ffffffffffffffffffffffffffffffffffffffff168173ffffffffffffffffffffffffffffffffffffffff161415611512576040517f08c379a0000000000000000000000000000000000000000000000000000000008152600401611509906130e3565b60405180910390fd5b61151b81611a67565b50565b60007f80ac58cd000000000000000000000000000000000000000000000000000000007bffffffffffffffffffffffffffffffffffffffffffffffffffffffff1916827bffffffffffffffffffffffffffffffffffffffffffffffffffffffff191614806115e957507f5b5e139f000000000000000000000000000000000000000000000000000000007bffffffffffffffffffffffffffffffffffffffffffffffffffffffff1916827bffffffffffffffffffffffffffffffffffffffffffffffffffffffff1916145b806115f957506115f882611cff565b5b9050919050565b60008073ffffffffffffffffffffffffffffffffffffffff166002600084815260200190815260200160002060009054906101000a900473ffffffffffffffffffffffffffffffffffffffff1673ffffffffffffffffffffffffffffffffffffffff1614159050919050565b600033905090565b816004600083815260200190815260200160002060006101000a81548173ffffffffffffffffffffffffffffffffffffffff021916908373ffffffffffffffffffffffffffffffffffffffff160217905550808273ffffffffffffffffffffffffffffffffffffffff166116e783610a7b565b73ffffffffffffffffffffffffffffffffffffffff167f8c5be1e5ebec7d5bd14f71427d1e84f3dd0314c0f7b2291e5b200ac8c7c3b92560405160405180910390a45050565b600061173882611600565b611777576040517f08c379a000000000000000000000000000000000000000000000000000000000815260040161176e90613183565b60405180910390fd5b600061178283610a7b565b90508073ffffffffffffffffffffffffffffffffffffffff168473ffffffffffffffffffffffffffffffffffffffff1614806117f157508373ffffffffffffffffffffffffffffffffffffffff166117d9846106e9565b73ffffffffffffffffffffffffffffffffffffffff16145b806118025750611801818561130c565b5b91505092915050565b8273ffffffffffffffffffffffffffffffffffffffff1661182b82610a7b565b73ffffffffffffffffffffffffffffffffffffffff1614611881576040517f08c379a000000000000000000000000000000000000000000000000000000000815260040161187890613283565b60405180910390fd5b600073ffffffffffffffffffffffffffffffffffffffff168273ffffffffffffffffffffffffffffffffffffffff1614156118f1576040517f08c379a00000000000000000000000000000000000000000000000000000000081526004016118e890613123565b60405180910390fd5b6118fc838383611d69565b611907600082611674565b6001600360008573ffffffffffffffffffffffffffffffffffffffff1673ffffffffffffffffffffffffffffffffffffffff168152602001908152602001600020600082825461195791906134ec565b925050819055506001600360008473ffffffffffffffffffffffffffffffffffffffff1673ffffffffffffffffffffffffffffffffffffffff16815260200190815260200160002060008282546119ae9190613465565b92505081905550816002600083815260200190815260200160002060006101000a81548173ffffffffffffffffffffffffffffffffffffffff021916908373ffffffffffffffffffffffffffffffffffffffff160217905550808273ffffffffffffffffffffffffffffffffffffffff168473ffffffffffffffffffffffffffffffffffffffff167fddf252ad1be2c89b69c2b068fc378daa952ba7f163c4a11628f55a4df523b3ef60405160405180910390a4505050565b6000600a60009054906101000a900473ffffffffffffffffffffffffffffffffffffffff16905081600a60006101000a81548173ffffffffffffffffffffffffffffffffffffffff021916908373ffffffffffffffffffffffffffffffffffffffff1602179055508173ffffffffffffffffffffffffffffffffffffffff168173ffffffffffffffffffffffffffffffffffffffff167f8be0079c531659141344cd1fd0a4f28419497f9722a3daafe3b4186f6b6457e060405160405180910390a35050565b611b3884848461180b565b611b4484848484611e7d565b611b83576040517f08c379a0000000000000000000000000000000000000000000000000000000008152600401611b7a906130c3565b60405180910390fd5b50505050565b606060405180602001604052806000815250905090565b6060611bab82611600565b611bea576040517f08c379a0000000000000000000000000000000000000000000000000000000008152600401611be1906132a3565b60405180910390fd5b6000611bf4611b89565b90506000815111611c145760405180602001604052806000815250611c3f565b80611c1e84612014565b604051602001611c2f929190612fc0565b6040516020818303038152906040525b915050919050565b6001816000016000828254019250508190555050565b600081600001549050919050565b611c858282604051806020016040528060008152506121c1565b5050565b81611c9381611600565b611cd2576040517f08c379a0000000000000000000000000000000000000000000000000000000008152600401611cc990613163565b60405180910390fd5b81600c60008581526020019081526020016000209080519060200190611cf992919061277a565b50505050565b60007f01ffc9a7000000000000000000000000000000000000000000000000000000007bffffffffffffffffffffffffffffffffffffffffffffffffffffffff1916827bffffffffffffffffffffffffffffffffffffffffffffffffffffffff1916149050919050565b611d7483838361221c565b600073ffffffffffffffffffffffffffffffffffffffff168373ffffffffffffffffffffffffffffffffffffffff161415611db757611db281612221565b611df6565b8173ffffffffffffffffffffffffffffffffffffffff168373ffffffffffffffffffffffffffffffffffffffff1614611df557611df4838261226a565b5b5b600073ffffffffffffffffffffffffffffffffffffffff168273ffffffffffffffffffffffffffffffffffffffff161415611e3957611e34816123d7565b611e78565b8273ffffffffffffffffffffffffffffffffffffffff168273ffffffffffffffffffffffffffffffffffffffff1614611e7757611e76828261251a565b5b5b505050565b6000611e9e8473ffffffffffffffffffffffffffffffffffffffff16612599565b15612007578373ffffffffffffffffffffffffffffffffffffffff1663150b7a02611ec761166c565b8786866040518563ffffffff1660e01b8152600401611ee9949392919061301a565b602060405180830381600087803b158015611f0357600080fd5b505af1925050508015611f3457506040513d601f19601f82011682018060405250810190611f319190612b60565b60015b611fb7573d8060008114611f64576040519150601f19603f3d011682016040523d82523d6000602084013e611f69565b606091505b50600081511415611faf576040517f08c379a0000000000000000000000000000000000000000000000000000000008152600401611fa6906130c3565b60405180910390fd5b805181602001fd5b63150b7a0260e01b7bffffffffffffffffffffffffffffffffffffffffffffffffffffffff1916817bffffffffffffffffffffffffffffffffffffffffffffffffffffffff19161491505061200c565b600190505b949350505050565b6060600082141561205c576040518060400160405280600181526020017f300000000000000000000000000000000000000000000000000000000000000081525090506121bc565b600082905060005b6000821461208e5780806120779061364b565b915050600a8261208791906134bb565b9150612064565b60008167ffffffffffffffff8111156120d0577f4e487b7100000000000000000000000000000000000000000000000000000000600052604160045260246000fd5b6040519080825280601f01601f1916602001820160405280156121025781602001600182028036833780820191505090505b5090505b600085146121b55760018261211b91906134ec565b9150600a8561212a9190613694565b60306121369190613465565b60f81b818381518110612172577f4e487b7100000000000000000000000000000000000000000000000000000000600052603260045260246000fd5b60200101907effffffffffffffffffffffffffffffffffffffffffffffffffffffffffffff1916908160001a905350600a856121ae91906134bb565b9450612106565b8093505050505b919050565b6121cb83836125ac565b6121d86000848484611e7d565b612217576040517f08c379a000000000000000000000000000000000000000000000000000000000815260040161220e906130c3565b60405180910390fd5b505050565b505050565b6008805490506009600083815260200190815260200160002081905550600881908060018154018082558091505060019003906000526020600020016000909190919091505550565b6000600161227784610b2d565b61228191906134ec565b9050600060076000848152602001908152602001600020549050818114612366576000600660008673ffffffffffffffffffffffffffffffffffffffff1673ffffffffffffffffffffffffffffffffffffffff168152602001908152602001600020600084815260200190815260200160002054905080600660008773ffffffffffffffffffffffffffffffffffffffff1673ffffffffffffffffffffffffffffffffffffffff168152602001908152602001600020600084815260200190815260200160002081905550816007600083815260200190815260200160002081905550505b6007600084815260200190815260200160002060009055600660008573ffffffffffffffffffffffffffffffffffffffff1673ffffffffffffffffffffffffffffffffffffffff16815260200190815260200160002060008381526020019081526020016000206000905550505050565b600060016008805490506123eb91906134ec565b9050600060096000848152602001908152602001600020549050600060088381548110612441577f4e487b7100000000000000000000000000000000000000000000000000000000600052603260045260246000fd5b906000526020600020015490508060088381548110612489577f4e487b7100000000000000000000000000000000000000000000000000000000600052603260045260246000fd5b9060005260206000200181905550816009600083815260200190815260200160002081905550600960008581526020019081526020016000206000905560088054806124fe577f4e487b7100000000000000000000000000000000000000000000000000000000600052603160045260246000fd5b6001900381819060005260206000200160009055905550505050565b600061252583610b2d565b905081600660008573ffffffffffffffffffffffffffffffffffffffff1673ffffffffffffffffffffffffffffffffffffffff168152602001908152602001600020600083815260200190815260200160002081905550806007600084815260200190815260200160002081905550505050565b600080823b905060008111915050919050565b600073ffffffffffffffffffffffffffffffffffffffff168273ffffffffffffffffffffffffffffffffffffffff16141561261c576040517f08c379a000000000000000000000000000000000000000000000000000000000815260040161261390613203565b60405180910390fd5b61262581611600565b15612665576040517f08c379a000000000000000000000000000000000000000000000000000000000815260040161265c90613103565b60405180910390fd5b61267160008383611d69565b6001600360008473ffffffffffffffffffffffffffffffffffffffff1673ffffffffffffffffffffffffffffffffffffffff16815260200190815260200160002060008282546126c19190613465565b92505081905550816002600083815260200190815260200160002060006101000a81548173ffffffffffffffffffffffffffffffffffffffff021916908373ffffffffffffffffffffffffffffffffffffffff160217905550808273ffffffffffffffffffffffffffffffffffffffff16600073ffffffffffffffffffffffffffffffffffffffff167fddf252ad1be2c89b69c2b068fc378daa952ba7f163c4a11628f55a4df523b3ef60405160405180910390a45050565b828054612786906135e8565b90600052602060002090601f0160209004810192826127a857600085556127ef565b82601f106127c157805160ff19168380011785556127ef565b828001600101855582156127ef579182015b828111156127ee5782518255916020019190600101906127d3565b5b5090506127fc9190612800565b5090565b5b80821115612819576000816000905550600101612801565b5090565b600061283061282b846133f1565b6133cc565b90508281526020810184848401111561284857600080fd5b6128538482856135a6565b509392505050565b60008135905061286a81613d2c565b92915050565b60008135905061287f81613d43565b92915050565b60008135905061289481613d5a565b92915050565b6000815190506128a981613d5a565b92915050565b600082601f8301126128c057600080fd5b81356128d084826020860161281d565b91505092915050565b60008083601f8401126128eb57600080fd5b8235905067ffffffffffffffff81111561290457600080fd5b60208301915083600182028301111561291c57600080fd5b9250929050565b60008135905061293281613d71565b92915050565b60006020828403121561294a57600080fd5b60006129588482850161285b565b91505092915050565b6000806040838503121561297457600080fd5b60006129828582860161285b565b92505060206129938582860161285b565b9150509250929050565b6000806000606084860312156129b257600080fd5b60006129c08682870161285b565b93505060206129d18682870161285b565b92505060406129e286828701612923565b9150509250925092565b60008060008060808587031215612a0257600080fd5b6000612a108782880161285b565b9450506020612a218782880161285b565b9350506040612a3287828801612923565b925050606085013567ffffffffffffffff811115612a4f57600080fd5b612a5b878288016128af565b91505092959194509250565b60008060408385031215612a7a57600080fd5b6000612a888582860161285b565b9250506020612a9985828601612870565b9150509250929050565b600080600060408486031215612ab857600080fd5b6000612ac68682870161285b565b935050602084013567ffffffffffffffff811115612ae357600080fd5b612aef868287016128d9565b92509250509250925092565b60008060408385031215612b0e57600080fd5b6000612b1c8582860161285b565b9250506020612b2d85828601612923565b9150509250929050565b600060208284031215612b4957600080fd5b6000612b5784828501612885565b91505092915050565b600060208284031215612b7257600080fd5b6000612b808482850161289a565b91505092915050565b600060208284031215612b9b57600080fd5b6000612ba984828501612923565b91505092915050565b612bbb81613532565b82525050565b612bca81613520565b82525050565b612bd981613544565b82525050565b6000612bea82613422565b612bf48185613438565b9350612c048185602086016135b5565b612c0d81613781565b840191505092915050565b6000612c248385613449565b9350612c318385846135a6565b612c3a83613781565b840190509392505050565b6000612c508261342d565b612c5a8185613449565b9350612c6a8185602086016135b5565b612c7381613781565b840191505092915050565b6000612c898261342d565b612c93818561345a565b9350612ca38185602086016135b5565b80840191505092915050565b6000612cbc602b83613449565b9150612cc782613792565b604082019050919050565b6000612cdf603283613449565b9150612cea826137e1565b604082019050919050565b6000612d02602683613449565b9150612d0d82613830565b604082019050919050565b6000612d25601c83613449565b9150612d308261387f565b602082019050919050565b6000612d48602483613449565b9150612d53826138a8565b604082019050919050565b6000612d6b601983613449565b9150612d76826138f7565b602082019050919050565b6000612d8e601b83613449565b9150612d9982613920565b602082019050919050565b6000612db1602c83613449565b9150612dbc82613949565b604082019050919050565b6000612dd4603883613449565b9150612ddf82613998565b604082019050919050565b6000612df7602a83613449565b9150612e02826139e7565b604082019050919050565b6000612e1a602983613449565b9150612e2582613a36565b604082019050919050565b6000612e3d602083613449565b9150612e4882613a85565b602082019050919050565b6000612e60601683613449565b9150612e6b82613aae565b602082019050919050565b6000612e83602c83613449565b9150612e8e82613ad7565b604082019050919050565b6000612ea6602083613449565b9150612eb182613b26565b602082019050919050565b6000612ec9602983613449565b9150612ed482613b4f565b604082019050919050565b6000612eec602f83613449565b9150612ef782613b9e565b604082019050919050565b6000612f0f602183613449565b9150612f1a82613bed565b604082019050919050565b6000612f32600983613449565b9150612f3d82613c3c565b602082019050919050565b6000612f55603183613449565b9150612f6082613c65565b604082019050919050565b6000612f78602c83613449565b9150612f8382613cb4565b604082019050919050565b6000612f9b601a83613449565b9150612fa682613d03565b602082019050919050565b612fba8161359c565b82525050565b6000612fcc8285612c7e565b9150612fd88284612c7e565b91508190509392505050565b6000602082019050612ff96000830184612bc1565b92915050565b60006020820190506130146000830184612bb2565b92915050565b600060808201905061302f6000830187612bc1565b61303c6020830186612bc1565b6130496040830185612fb1565b818103606083015261305b8184612bdf565b905095945050505050565b600060208201905061307b6000830184612bd0565b92915050565b6000602082019050818103600083015261309b8184612c45565b905092915050565b600060208201905081810360008301526130bc81612caf565b9050919050565b600060208201905081810360008301526130dc81612cd2565b9050919050565b600060208201905081810360008301526130fc81612cf5565b9050919050565b6000602082019050818103600083015261311c81612d18565b9050919050565b6000602082019050818103600083015261313c81612d3b565b9050919050565b6000602082019050818103600083015261315c81612d5e565b9050919050565b6000602082019050818103600083015261317c81612d81565b9050919050565b6000602082019050818103600083015261319c81612da4565b9050919050565b600060208201905081810360008301526131bc81612dc7565b9050919050565b600060208201905081810360008301526131dc81612dea565b9050919050565b600060208201905081810360008301526131fc81612e0d565b9050919050565b6000602082019050818103600083015261321c81612e30565b9050919050565b6000602082019050818103600083015261323c81612e53565b9050919050565b6000602082019050818103600083015261325c81612e76565b9050919050565b6000602082019050818103600083015261327c81612e99565b9050919050565b6000602082019050818103600083015261329c81612ebc565b9050919050565b600060208201905081810360008301526132bc81612edf565b9050919050565b600060208201905081810360008301526132dc81612f02565b9050919050565b600060208201905081810360008301526132fc81612f25565b9050919050565b6000602082019050818103600083015261331c81612f48565b9050919050565b6000602082019050818103600083015261333c81612f6b565b9050919050565b6000602082019050818103600083015261335c81612f8e565b9050919050565b60006020820190506133786000830184612fb1565b92915050565b60006080820190506133936000830188612fb1565b6133a06020830187612bc1565b81810360408301526133b3818587612c18565b90506133c26060830184612bc1565b9695505050505050565b60006133d66133e7565b90506133e2828261361a565b919050565b6000604051905090565b600067ffffffffffffffff82111561340c5761340b613752565b5b61341582613781565b9050602081019050919050565b600081519050919050565b600081519050919050565b600082825260208201905092915050565b600082825260208201905092915050565b600081905092915050565b60006134708261359c565b915061347b8361359c565b9250827fffffffffffffffffffffffffffffffffffffffffffffffffffffffffffffffff038211156134b0576134af6136c5565b5b828201905092915050565b60006134c68261359c565b91506134d18361359c565b9250826134e1576134e06136f4565b5b828204905092915050565b60006134f78261359c565b91506135028361359c565b925082821015613515576135146136c5565b5b828203905092915050565b600061352b8261357c565b9050919050565b600061353d8261357c565b9050919050565b60008115159050919050565b60007fffffffff0000000000000000000000000000000000000000000000000000000082169050919050565b600073ffffffffffffffffffffffffffffffffffffffff82169050919050565b6000819050919050565b82818337600083830152505050565b60005b838110156135d35780820151818401526020810190506135b8565b838111156135e2576000848401525b50505050565b6000600282049050600182168061360057607f821691505b6020821081141561361457613613613723565b5b50919050565b61362382613781565b810181811067ffffffffffffffff8211171561364257613641613752565b5b80604052505050565b60006136568261359c565b91507fffffffffffffffffffffffffffffffffffffffffffffffffffffffffffffffff821415613689576136886136c5565b5b600182019050919050565b600061369f8261359c565b91506136aa8361359c565b9250826136ba576136b96136f4565b5b828206905092915050565b7f4e487b7100000000000000000000000000000000000000000000000000000000600052601160045260246000fd5b7f4e487b7100000000000000000000000000000000000000000000000000000000600052601260045260246000fd5b7f4e487b7100000000000000000000000000000000000000000000000000000000600052602260045260246000fd5b7f4e487b7100000000000000000000000000000000000000000000000000000000600052604160045260246000fd5b6000601f19601f8301169050919050565b7f455243373231456e756d657261626c653a206f776e657220696e646578206f7560008201527f74206f6620626f756e6473000000000000000000000000000000000000000000602082015250565b7f4552433732313a207472616e7366657220746f206e6f6e20455243373231526560008201527f63656976657220696d706c656d656e7465720000000000000000000000000000602082015250565b7f4f776e61626c653a206e6577206f776e657220697320746865207a65726f206160008201527f6464726573730000000000000000000000000000000000000000000000000000602082015250565b7f4552433732313a20746f6b656e20616c7265616479206d696e74656400000000600082015250565b7f4552433732313a207472616e7366657220746f20746865207a65726f2061646460008201527f7265737300000000000000000000000000000000000000000000000000000000602082015250565b7f4552433732313a20617070726f766520746f2063616c6c657200000000000000600082015250565b7f4e46543a20746f6b656e496420646f6573206e6f742065786973740000000000600082015250565b7f4552433732313a206f70657261746f7220717565727920666f72206e6f6e657860008201527f697374656e7420746f6b656e0000000000000000000000000000000000000000602082015250565b7f4552433732313a20617070726f76652063616c6c6572206973206e6f74206f7760008201527f6e6572206e6f7220617070726f76656420666f7220616c6c0000000000000000602082015250565b7f4552433732313a2062616c616e636520717565727920666f7220746865207a6560008201527f726f206164647265737300000000000000000000000000000000000000000000602082015250565b7f4552433732313a206f776e657220717565727920666f72206e6f6e657869737460008201527f656e7420746f6b656e0000000000000000000000000000000000000000000000602082015250565b7f4552433732313a206d696e7420746f20746865207a65726f2061646472657373600082015250565b7f4e46543a20746f6b656e55726920697320656d70747900000000000000000000600082015250565b7f4552433732313a20617070726f76656420717565727920666f72206e6f6e657860008201527f697374656e7420746f6b656e0000000000000000000000000000000000000000602082015250565b7f4f776e61626c653a2063616c6c6572206973206e6f7420746865206f776e6572600082015250565b7f4552433732313a207472616e73666572206f6620746f6b656e2074686174206960008201527f73206e6f74206f776e0000000000000000000000000000000000000000000000602082015250565b7f4552433732314d657461646174613a2055524920717565727920666f72206e6f60008201527f6e6578697374656e7420746f6b656e0000000000000000000000000000000000602082015250565b7f4552433732313a20617070726f76616c20746f2063757272656e74206f776e6560008201527f7200000000000000000000000000000000000000000000000000000000000000602082015250565b7f4e46543a20416464720000000000000000000000000000000000000000000000600082015250565b7f4552433732313a207472616e736665722063616c6c6572206973206e6f74206f60008201527f776e6572206e6f7220617070726f766564000000000000000000000000000000602082015250565b7f455243373231456e756d657261626c653a20676c6f62616c20696e646578206f60008201527f7574206f6620626f756e64730000000000000000000000000000000000000000602082015250565b7f4e46543a20496e73756666696369656e74206d696e7420666565000000000000600082015250565b613d3581613520565b8114613d4057600080fd5b50565b613d4c81613544565b8114613d5757600080fd5b50565b613d6381613550565b8114613d6e57600080fd5b50565b613d7a8161359c565b8114613d8557600080fd5b5056fea2646970667358221220ad6b219da7d2e16002d960647a32b39b869b41d1ee5e6154d243ded7fe919ec364736f6c63430008040033",
  "linkReferences": {},
  "deployedLinkReferences": {}
}