{
  "_format": "hh-sol-artifact-1",
  "contractName": "Chedda",
  "sourceName": "contracts/tokens/Chedda.sol",
  "abi": [
    {
      "inputs": [
        {
          "internalType": "address",
          "name": "account",
          "type": "address"
        }
      ],
      "stateMutability": "nonpayable",
      "type": "constructor"
    },
    {
      "anonymous": false,
      "inputs": [
        {
          "indexed": true,
          "internalType": "address",
          "name": "owner",
          "type": "address"
        },
        {
          "indexed": true,
          "internalType": "address",
          "name": "spender",
          "type": "address"
        },
        {
          "indexed": false,
          "internalType": "uint256",
          "name": "amount",
          "type": "uint256"
        }
      ],
      "name": "Approval",
      "type": "event"
    },
    {
      "anonymous": false,
      "inputs": [
        {
          "indexed": true,
          "internalType": "address",
          "name": "from",
          "type": "address"
        },
        {
          "indexed": true,
          "internalType": "address",
          "name": "to",
          "type": "address"
        },
        {
          "indexed": false,
          "internalType": "uint256",
          "name": "amount",
          "type": "uint256"
        }
      ],
      "name": "Transfer",
      "type": "event"
    },
    {
      "inputs": [],
      "name": "APR_PRECISION",
      "outputs": [
        {
          "internalType": "uint256",
          "name": "",
          "type": "uint256"
        }
      ],
      "stateMutability": "view",
      "type": "function"
    },
    {
      "inputs": [],
      "name": "DECIMALS",
      "outputs": [
        {
          "internalType": "uint256",
          "name": "",
          "type": "uint256"
        }
      ],
      "stateMutability": "view",
      "type": "function"
    },
    {
      "inputs": [],
      "name": "DOMAIN_SEPARATOR",
      "outputs": [
        {
          "internalType": "bytes32",
          "name": "",
          "type": "bytes32"
        }
      ],
      "stateMutability": "view",
      "type": "function"
    },
    {
      "inputs": [],
      "name": "INITIAL_SUPPLY",
      "outputs": [
        {
          "internalType": "uint256",
          "name": "",
          "type": "uint256"
        }
      ],
      "stateMutability": "view",
      "type": "function"
    },
    {
      "inputs": [
        {
          "internalType": "address",
          "name": "",
          "type": "address"
        },
        {
          "internalType": "address",
          "name": "",
          "type": "address"
        }
      ],
      "name": "allowance",
      "outputs": [
        {
          "internalType": "uint256",
          "name": "",
          "type": "uint256"
        }
      ],
      "stateMutability": "view",
      "type": "function"
    },
    {
      "inputs": [
        {
          "internalType": "address",
          "name": "spender",
          "type": "address"
        },
        {
          "internalType": "uint256",
          "name": "amount",
          "type": "uint256"
        }
      ],
      "name": "approve",
      "outputs": [
        {
          "internalType": "bool",
          "name": "",
          "type": "bool"
        }
      ],
      "stateMutability": "nonpayable",
      "type": "function"
    },
    {
      "inputs": [],
      "name": "apr",
      "outputs": [
        {
          "internalType": "uint256",
          "name": "",
          "type": "uint256"
        }
      ],
      "stateMutability": "view",
      "type": "function"
    },
    {
      "inputs": [
        {
          "internalType": "address",
          "name": "",
          "type": "address"
        }
      ],
      "name": "balanceOf",
      "outputs": [
        {
          "internalType": "uint256",
          "name": "",
          "type": "uint256"
        }
      ],
      "stateMutability": "view",
      "type": "function"
    },
    {
      "inputs": [],
      "name": "decimals",
      "outputs": [
        {
          "internalType": "uint8",
          "name": "",
          "type": "uint8"
        }
      ],
      "stateMutability": "view",
      "type": "function"
    },
    {
      "inputs": [],
      "name": "name",
      "outputs": [
        {
          "internalType": "string",
          "name": "",
          "type": "string"
        }
      ],
      "stateMutability": "view",
      "type": "function"
    },
    {
      "inputs": [
        {
          "internalType": "address",
          "name": "",
          "type": "address"
        }
      ],
      "name": "nonces",
      "outputs": [
        {
          "internalType": "uint256",
          "name": "",
          "type": "uint256"
        }
      ],
      "stateMutability": "view",
      "type": "function"
    },
    {
      "inputs": [
        {
          "internalType": "address",
          "name": "owner",
          "type": "address"
        },
        {
          "internalType": "address",
          "name": "spender",
          "type": "address"
        },
        {
          "internalType": "uint256",
          "name": "value",
          "type": "uint256"
        },
        {
          "internalType": "uint256",
          "name": "deadline",
          "type": "uint256"
        },
        {
          "internalType": "uint8",
          "name": "v",
          "type": "uint8"
        },
        {
          "internalType": "bytes32",
          "name": "r",
          "type": "bytes32"
        },
        {
          "internalType": "bytes32",
          "name": "s",
          "type": "bytes32"
        }
      ],
      "name": "permit",
      "outputs": [],
      "stateMutability": "nonpayable",
      "type": "function"
    },
    {
      "inputs": [],
      "name": "rebase",
      "outputs": [],
      "stateMutability": "nonpayable",
      "type": "function"
    },
    {
      "inputs": [
        {
          "internalType": "address",
          "name": "vault",
          "type": "address"
        }
      ],
      "name": "setVault",
      "outputs": [],
      "stateMutability": "nonpayable",
      "type": "function"
    },
    {
      "inputs": [],
      "name": "symbol",
      "outputs": [
        {
          "internalType": "string",
          "name": "",
          "type": "string"
        }
      ],
      "stateMutability": "view",
      "type": "function"
    },
    {
      "inputs": [],
      "name": "tokenVault",
      "outputs": [
        {
          "internalType": "address",
          "name": "",
          "type": "address"
        }
      ],
      "stateMutability": "view",
      "type": "function"
    },
    {
      "inputs": [],
      "name": "totalSupply",
      "outputs": [
        {
          "internalType": "uint256",
          "name": "",
          "type": "uint256"
        }
      ],
      "stateMutability": "view",
      "type": "function"
    },
    {
      "inputs": [
        {
          "internalType": "address",
          "name": "to",
          "type": "address"
        },
        {
          "internalType": "uint256",
          "name": "amount",
          "type": "uint256"
        }
      ],
      "name": "transfer",
      "outputs": [
        {
          "internalType": "bool",
          "name": "",
          "type": "bool"
        }
      ],
      "stateMutability": "nonpayable",
      "type": "function"
    },
    {
      "inputs": [
        {
          "internalType": "address",
          "name": "from",
          "type": "address"
        },
        {
          "internalType": "address",
          "name": "to",
          "type": "address"
        },
        {
          "internalType": "uint256",
          "name": "amount",
          "type": "uint256"
        }
      ],
      "name": "transferFrom",
      "outputs": [
        {
          "internalType": "bool",
          "name": "",
          "type": "bool"
        }
      ],
      "stateMutability": "nonpayable",
      "type": "function"
    }
  ],
  "bytecode": "0x60c0604052620000126012600a6200040e565b6200001f906010620004cc565b6008553480156200002f57600080fd5b50604051620013fc380380620013fc8339810160408190526200005291620002d7565b6040518060400160405280600681526020016543686564646160d01b8152506040518060400160405280600681526020016543484544444160d01b81525060128260009080519060200190620000aa92919062000231565b508151620000c090600190602085019062000231565b506002805460ff191660ff831617905546608052620000de62000128565b60a0525050600a80546001600160a01b0319163317815562000121915082906200010b906012906200040e565b6200011b90633b9aca00620004cc565b620001c4565b5062000541565b60007f8b73c3c69bb8fe3d512ecc4cf759cc79239f7b179b0ffacaa9a75d522b39400f60006040516200015c919062000307565b6040805191829003822060208301939093528101919091527fc89efdaa54c0f20c7adf612882df0950f5a951637e0307cdcb4c672f298b8bc660608201524660808201523060a082015260c00160405160208183030381529060405280519060200120905090565b8060036000828254620001d89190620003aa565b90915550506001600160a01b0382166000818152600460209081526040808320805486019055518481527fddf252ad1be2c89b69c2b068fc378daa952ba7f163c4a11628f55a4df523b3ef910160405180910390a35050565b8280546200023f90620004ee565b90600052602060002090601f016020900481019282620002635760008555620002ae565b82601f106200027e57805160ff1916838001178555620002ae565b82800160010185558215620002ae579182015b82811115620002ae57825182559160200191906001019062000291565b50620002bc929150620002c0565b5090565b5b80821115620002bc5760008155600101620002c1565b600060208284031215620002e9578081fd5b81516001600160a01b038116811462000300578182fd5b9392505050565b600080835482600182811c9150808316806200032457607f831692505b60208084108214156200034557634e487b7160e01b87526022600452602487fd5b8180156200035c57600181146200036e576200039c565b60ff198616895284890196506200039c565b60008a815260209020885b86811015620003945781548b82015290850190830162000379565b505084890196505b509498975050505050505050565b60008219821115620003c057620003c06200052b565b500190565b600181815b8085111562000406578160001904821115620003ea57620003ea6200052b565b80851615620003f857918102915b93841c9390800290620003ca565b509250929050565b60006200030083836000826200042757506001620004c6565b816200043657506000620004c6565b81600181146200044f57600281146200045a576200047a565b6001915050620004c6565b60ff8411156200046e576200046e6200052b565b50506001821b620004c6565b5060208310610133831016604e8410600b84101617156200049f575081810a620004c6565b620004ab8383620003c5565b8060001904821115620004c257620004c26200052b565b0290505b92915050565b6000816000190483118215151615620004e957620004e96200052b565b500290565b600181811c908216806200050357607f821691505b602082108114156200052557634e487b7160e01b600052602260045260246000fd5b50919050565b634e487b7160e01b600052601160045260246000fd5b60805160a051610e956200056760003960006104fe015260006104c90152610e956000f3fe608060405234801561001057600080fd5b50600436106101215760003560e01c80635bc789d9116100ad578063a9059cbb11610071578063a9059cbb14610258578063af14052c1461026b578063d505accf14610273578063dd62ed3e14610286578063e9fee657146102b157600080fd5b80635bc789d9146101d05780636817031b146101fb57806370a08231146102105780637ecebe001461023057806395d89b411461025057600080fd5b80632e0f2625116100f45780632e0f2625146101915780632ff2e9dc14610199578063313ce567146101a15780633644e515146101c057806357ded9c9146101c857600080fd5b806306fdde0314610126578063095ea7b31461014457806318160ddd1461016757806323b872dd1461017e575b600080fd5b61012e6102bb565b60405161013b9190610c62565b60405180910390f35b610157610152366004610b9e565b610349565b604051901515815260200161013b565b61017060035481565b60405190815260200161013b565b61015761018c366004610af2565b6103b6565b610170601281565b6101706104a8565b6002546101ae9060ff1681565b60405160ff909116815260200161013b565b6101706104c5565b610170610520565b6007546101e3906001600160a01b031681565b6040516001600160a01b03909116815260200161013b565b61020e610209366004610a9f565b61054f565b005b61017061021e366004610a9f565b60046020526000908152604090205481565b61017061023e366004610a9f565b60066020526000908152604090205481565b61012e61061d565b610157610266366004610b9e565b61062a565b61020e6106a2565b61020e610281366004610b2d565b61072d565b610170610294366004610ac0565b600560209081526000928352604080842090915290825290205481565b610170620186a081565b600080546102c890610e0e565b80601f01602080910402602001604051908101604052809291908181526020018280546102f490610e0e565b80156103415780601f1061031657610100808354040283529160200191610341565b820191906000526020600020905b81548152906001019060200180831161032457829003601f168201915b505050505081565b3360008181526005602090815260408083206001600160a01b038716808552925280832085905551919290917f8c5be1e5ebec7d5bd14f71427d1e84f3dd0314c0f7b2291e5b200ac8c7c3b925906103a49086815260200190565b60405180910390a35060015b92915050565b6001600160a01b03831660009081526005602090815260408083203384529091528120546000198114610412576103ed8382610df7565b6001600160a01b03861660009081526005602090815260408083203384529091529020555b6001600160a01b0385166000908152600460205260408120805485929061043a908490610df7565b90915550506001600160a01b03808516600081815260046020526040908190208054870190555190918716907fddf252ad1be2c89b69c2b068fc378daa952ba7f163c4a11628f55a4df523b3ef906104959087815260200190565b60405180910390a3506001949350505050565b6104b46012600a610d30565b6104c290633b9aca00610dd8565b81565b60007f000000000000000000000000000000000000000000000000000000000000000046146104fb576104f661097e565b905090565b507f000000000000000000000000000000000000000000000000000000000000000090565b6000600354620186a06008546301e1338061053b9190610dd8565b6105459190610dd8565b6104f69190610ccd565b600a546001600160a01b031633146105a25760405162461bcd60e51b815260206004820152601160248201527021b432b232309d102737ba1037bbb732b960791b60448201526064015b60405180910390fd5b6007546001600160a01b0316156105fb5760405162461bcd60e51b815260206004820152601d60248201527f4368656464613a203a5661756c7420616c726561647920696e697465640000006044820152606401610599565b600780546001600160a01b0319166001600160a01b0392909216919091179055565b600180546102c890610e0e565b3360009081526004602052604081208054839190839061064b908490610df7565b90915550506001600160a01b038316600081815260046020526040908190208054850190555133907fddf252ad1be2c89b69c2b068fc378daa952ba7f163c4a11628f55a4df523b3ef906103a49086815260200190565b42600954116106ad57565b6000600854600954426106c09190610df7565b6106ca9190610dd8565b9050600081116107105760405162461bcd60e51b81526020600482015260116024820152700496e76616c69642074696d657374616d7607c1b6044820152606401610599565b4260095560075461072a906001600160a01b031682610a18565b50565b4284101561077d5760405162461bcd60e51b815260206004820152601760248201527f5045524d49545f444541444c494e455f455850495245440000000000000000006044820152606401610599565b60006107876104c5565b6001600160a01b0389811660008181526006602090815260409182902080546001810190915582517f6e71edae12b1b97f4d1f60370fef10105fa2faae0126114a169c64845d6126c98184015280840194909452938c166060840152608083018b905260a083019390935260c08083018a90528151808403909101815260e08301909152805192019190912061190160f01b6101008301526101028201929092526101228101919091526101420160408051601f198184030181528282528051602091820120600080855291840180845281905260ff88169284019290925260608301869052608083018590529092509060019060a0016020604051602081039080840390855afa1580156108a0573d6000803e3d6000fd5b5050604051601f1901519150506001600160a01b038116158015906108d65750886001600160a01b0316816001600160a01b0316145b6109135760405162461bcd60e51b815260206004820152600e60248201526d24a72b20a624a22fa9a4a3a722a960911b6044820152606401610599565b6001600160a01b0390811660009081526005602090815260408083208b8516808552908352928190208a905551898152919350918a16917f8c5be1e5ebec7d5bd14f71427d1e84f3dd0314c0f7b2291e5b200ac8c7c3b925910160405180910390a350505050505050565b60007f8b73c3c69bb8fe3d512ecc4cf759cc79239f7b179b0ffacaa9a75d522b39400f60006040516109b09190610bc7565b6040805191829003822060208301939093528101919091527fc89efdaa54c0f20c7adf612882df0950f5a951637e0307cdcb4c672f298b8bc660608201524660808201523060a082015260c00160405160208183030381529060405280519060200120905090565b8060036000828254610a2a9190610cb5565b90915550506001600160a01b0382166000818152600460209081526040808320805486019055518481527fddf252ad1be2c89b69c2b068fc378daa952ba7f163c4a11628f55a4df523b3ef910160405180910390a35050565b80356001600160a01b0381168114610a9a57600080fd5b919050565b600060208284031215610ab0578081fd5b610ab982610a83565b9392505050565b60008060408385031215610ad2578081fd5b610adb83610a83565b9150610ae960208401610a83565b90509250929050565b600080600060608486031215610b06578081fd5b610b0f84610a83565b9250610b1d60208501610a83565b9150604084013590509250925092565b600080600080600080600060e0888a031215610b47578283fd5b610b5088610a83565b9650610b5e60208901610a83565b95506040880135945060608801359350608088013560ff81168114610b81578384fd5b9699959850939692959460a0840135945060c09093013592915050565b60008060408385031215610bb0578182fd5b610bb983610a83565b946020939093013593505050565b600080835482600182811c915080831680610be357607f831692505b6020808410821415610c0357634e487b7160e01b87526022600452602487fd5b818015610c175760018114610c2857610c54565b60ff19861689528489019650610c54565b60008a815260209020885b86811015610c4c5781548b820152908501908301610c33565b505084890196505b509498975050505050505050565b6000602080835283518082850152825b81811015610c8e57858101830151858201604001528201610c72565b81811115610c9f5783604083870101525b50601f01601f1916929092016040019392505050565b60008219821115610cc857610cc8610e49565b500190565b600082610ce857634e487b7160e01b81526012600452602481fd5b500490565b600181815b80851115610d28578160001904821115610d0e57610d0e610e49565b80851615610d1b57918102915b93841c9390800290610cf2565b509250929050565b6000610ab98383600082610d46575060016103b0565b81610d53575060006103b0565b8160018114610d695760028114610d7357610d8f565b60019150506103b0565b60ff841115610d8457610d84610e49565b50506001821b6103b0565b5060208310610133831016604e8410600b8410161715610db2575081810a6103b0565b610dbc8383610ced565b8060001904821115610dd057610dd0610e49565b029392505050565b6000816000190483118215151615610df257610df2610e49565b500290565b600082821015610e0957610e09610e49565b500390565b600181811c90821680610e2257607f821691505b60208210811415610e4357634e487b7160e01b600052602260045260246000fd5b50919050565b634e487b7160e01b600052601160045260246000fdfea2646970667358221220d4fd706c9a48ddac6f57726f5ffbb48e97c50fb6fbd2d758ea87f00d0c56cb7b64736f6c63430008040033",
  "linkReferences": {},
  "deployedLinkReferences": {}
}