{
  "_format": "hh-sol-artifact-1",
  "contractName": "CheddaDappStore",
  "sourceName": "contracts/dappstore/CheddaDappStore.sol",
  "abi": [
    {
      "inputs": [],
      "name": "DappNotFound",
      "type": "error"
    },
    {
      "anonymous": false,
      "inputs": [
        {
          "indexed": true,
          "internalType": "string",
          "name": "name",
          "type": "string"
        },
        {
          "indexed": true,
          "internalType": "address",
          "name": "contractAddress",
          "type": "address"
        }
      ],
      "name": "DappAdded",
      "type": "event"
    },
    {
      "anonymous": false,
      "inputs": [
        {
          "indexed": true,
          "internalType": "string",
          "name": "name",
          "type": "string"
        },
        {
          "indexed": true,
          "internalType": "address",
          "name": "contractAddress",
          "type": "address"
        }
      ],
      "name": "DappRemoved",
      "type": "event"
    },
    {
      "anonymous": false,
      "inputs": [
        {
          "indexed": true,
          "internalType": "address",
          "name": "previousOwner",
          "type": "address"
        },
        {
          "indexed": true,
          "internalType": "address",
          "name": "newOwner",
          "type": "address"
        }
      ],
      "name": "OwnershipTransferred",
      "type": "event"
    },
    {
      "inputs": [
        {
          "internalType": "address",
          "name": "",
          "type": "address"
        }
      ],
      "name": "_dapps",
      "outputs": [
        {
          "internalType": "uint16",
          "name": "index",
          "type": "uint16"
        },
        {
          "internalType": "string",
          "name": "name",
          "type": "string"
        },
        {
          "internalType": "uint8",
          "name": "chainID",
          "type": "uint8"
        },
        {
          "internalType": "address",
          "name": "contractAddress",
          "type": "address"
        },
        {
          "internalType": "string",
          "name": "metadataURI",
          "type": "string"
        },
        {
          "internalType": "bool",
          "name": "isFeatured",
          "type": "bool"
        },
        {
          "internalType": "uint256",
          "name": "listed",
          "type": "uint256"
        },
        {
          "internalType": "uint256",
          "name": "updated",
          "type": "uint256"
        }
      ],
      "stateMutability": "view",
      "type": "function"
    },
    {
      "inputs": [
        {
          "internalType": "string",
          "name": "name",
          "type": "string"
        },
        {
          "internalType": "uint8",
          "name": "chainId",
          "type": "uint8"
        },
        {
          "internalType": "address",
          "name": "contractAddress",
          "type": "address"
        },
        {
          "internalType": "string",
          "name": "category",
          "type": "string"
        },
        {
          "internalType": "string",
          "name": "uri",
          "type": "string"
        }
      ],
      "name": "addDapp",
      "outputs": [],
      "stateMutability": "nonpayable",
      "type": "function"
    },
    {
      "inputs": [
        {
          "internalType": "address",
          "name": "contractAddress",
          "type": "address"
        },
        {
          "internalType": "address",
          "name": "admin",
          "type": "address"
        }
      ],
      "name": "addDappAdmin",
      "outputs": [],
      "stateMutability": "nonpayable",
      "type": "function"
    },
    {
      "inputs": [
        {
          "internalType": "string",
          "name": "",
          "type": "string"
        },
        {
          "internalType": "uint256",
          "name": "",
          "type": "uint256"
        }
      ],
      "name": "categories",
      "outputs": [
        {
          "internalType": "address",
          "name": "",
          "type": "address"
        }
      ],
      "stateMutability": "view",
      "type": "function"
    },
    {
      "inputs": [],
      "name": "dapps",
      "outputs": [
        {
          "components": [
            {
              "internalType": "uint16",
              "name": "index",
              "type": "uint16"
            },
            {
              "internalType": "string",
              "name": "name",
              "type": "string"
            },
            {
              "internalType": "uint8",
              "name": "chainID",
              "type": "uint8"
            },
            {
              "internalType": "address",
              "name": "contractAddress",
              "type": "address"
            },
            {
              "internalType": "string",
              "name": "metadataURI",
              "type": "string"
            },
            {
              "internalType": "bool",
              "name": "isFeatured",
              "type": "bool"
            },
            {
              "internalType": "uint256",
              "name": "listed",
              "type": "uint256"
            },
            {
              "internalType": "uint256",
              "name": "updated",
              "type": "uint256"
            }
          ],
          "internalType": "struct Dapp[]",
          "name": "",
          "type": "tuple[]"
        }
      ],
      "stateMutability": "view",
      "type": "function"
    },
    {
      "inputs": [
        {
          "internalType": "string",
          "name": "category",
          "type": "string"
        }
      ],
      "name": "dappsInCategory",
      "outputs": [
        {
          "components": [
            {
              "components": [
                {
                  "internalType": "uint16",
                  "name": "index",
                  "type": "uint16"
                },
                {
                  "internalType": "string",
                  "name": "name",
                  "type": "string"
                },
                {
                  "internalType": "uint8",
                  "name": "chainID",
                  "type": "uint8"
                },
                {
                  "internalType": "address",
                  "name": "contractAddress",
                  "type": "address"
                },
                {
                  "internalType": "string",
                  "name": "metadataURI",
                  "type": "string"
                },
                {
                  "internalType": "bool",
                  "name": "isFeatured",
                  "type": "bool"
                },
                {
                  "internalType": "uint256",
                  "name": "listed",
                  "type": "uint256"
                },
                {
                  "internalType": "uint256",
                  "name": "updated",
                  "type": "uint256"
                }
              ],
              "internalType": "struct Dapp",
              "name": "dapp",
              "type": "tuple"
            },
            {
              "components": [
                {
                  "internalType": "uint256",
                  "name": "averageRating",
                  "type": "uint256"
                },
                {
                  "internalType": "uint256",
                  "name": "numberOfRatings",
                  "type": "uint256"
                }
              ],
              "internalType": "struct DappRating",
              "name": "rating",
              "type": "tuple"
            }
          ],
          "internalType": "struct DappWithRating[]",
          "name": "",
          "type": "tuple[]"
        }
      ],
      "stateMutability": "view",
      "type": "function"
    },
    {
      "inputs": [],
      "name": "dappsWithRatings",
      "outputs": [
        {
          "components": [
            {
              "components": [
                {
                  "internalType": "uint16",
                  "name": "index",
                  "type": "uint16"
                },
                {
                  "internalType": "string",
                  "name": "name",
                  "type": "string"
                },
                {
                  "internalType": "uint8",
                  "name": "chainID",
                  "type": "uint8"
                },
                {
                  "internalType": "address",
                  "name": "contractAddress",
                  "type": "address"
                },
                {
                  "internalType": "string",
                  "name": "metadataURI",
                  "type": "string"
                },
                {
                  "internalType": "bool",
                  "name": "isFeatured",
                  "type": "bool"
                },
                {
                  "internalType": "uint256",
                  "name": "listed",
                  "type": "uint256"
                },
                {
                  "internalType": "uint256",
                  "name": "updated",
                  "type": "uint256"
                }
              ],
              "internalType": "struct Dapp",
              "name": "dapp",
              "type": "tuple"
            },
            {
              "components": [
                {
                  "internalType": "uint256",
                  "name": "averageRating",
                  "type": "uint256"
                },
                {
                  "internalType": "uint256",
                  "name": "numberOfRatings",
                  "type": "uint256"
                }
              ],
              "internalType": "struct DappRating",
              "name": "rating",
              "type": "tuple"
            }
          ],
          "internalType": "struct DappWithRating[]",
          "name": "",
          "type": "tuple[]"
        }
      ],
      "stateMutability": "view",
      "type": "function"
    },
    {
      "inputs": [],
      "name": "featuredDapps",
      "outputs": [
        {
          "components": [
            {
              "components": [
                {
                  "internalType": "uint16",
                  "name": "index",
                  "type": "uint16"
                },
                {
                  "internalType": "string",
                  "name": "name",
                  "type": "string"
                },
                {
                  "internalType": "uint8",
                  "name": "chainID",
                  "type": "uint8"
                },
                {
                  "internalType": "address",
                  "name": "contractAddress",
                  "type": "address"
                },
                {
                  "internalType": "string",
                  "name": "metadataURI",
                  "type": "string"
                },
                {
                  "internalType": "bool",
                  "name": "isFeatured",
                  "type": "bool"
                },
                {
                  "internalType": "uint256",
                  "name": "listed",
                  "type": "uint256"
                },
                {
                  "internalType": "uint256",
                  "name": "updated",
                  "type": "uint256"
                }
              ],
              "internalType": "struct Dapp",
              "name": "dapp",
              "type": "tuple"
            },
            {
              "components": [
                {
                  "internalType": "uint256",
                  "name": "averageRating",
                  "type": "uint256"
                },
                {
                  "internalType": "uint256",
                  "name": "numberOfRatings",
                  "type": "uint256"
                }
              ],
              "internalType": "struct DappRating",
              "name": "rating",
              "type": "tuple"
            }
          ],
          "internalType": "struct DappWithRating[]",
          "name": "",
          "type": "tuple[]"
        }
      ],
      "stateMutability": "view",
      "type": "function"
    },
    {
      "inputs": [
        {
          "internalType": "address",
          "name": "contractAddress",
          "type": "address"
        }
      ],
      "name": "getDapp",
      "outputs": [
        {
          "components": [
            {
              "internalType": "uint16",
              "name": "index",
              "type": "uint16"
            },
            {
              "internalType": "string",
              "name": "name",
              "type": "string"
            },
            {
              "internalType": "uint8",
              "name": "chainID",
              "type": "uint8"
            },
            {
              "internalType": "address",
              "name": "contractAddress",
              "type": "address"
            },
            {
              "internalType": "string",
              "name": "metadataURI",
              "type": "string"
            },
            {
              "internalType": "bool",
              "name": "isFeatured",
              "type": "bool"
            },
            {
              "internalType": "uint256",
              "name": "listed",
              "type": "uint256"
            },
            {
              "internalType": "uint256",
              "name": "updated",
              "type": "uint256"
            }
          ],
          "internalType": "struct Dapp",
          "name": "",
          "type": "tuple"
        }
      ],
      "stateMutability": "view",
      "type": "function"
    },
    {
      "inputs": [
        {
          "internalType": "uint256",
          "name": "index",
          "type": "uint256"
        }
      ],
      "name": "getDappAtIndex",
      "outputs": [
        {
          "components": [
            {
              "internalType": "uint16",
              "name": "index",
              "type": "uint16"
            },
            {
              "internalType": "string",
              "name": "name",
              "type": "string"
            },
            {
              "internalType": "uint8",
              "name": "chainID",
              "type": "uint8"
            },
            {
              "internalType": "address",
              "name": "contractAddress",
              "type": "address"
            },
            {
              "internalType": "string",
              "name": "metadataURI",
              "type": "string"
            },
            {
              "internalType": "bool",
              "name": "isFeatured",
              "type": "bool"
            },
            {
              "internalType": "uint256",
              "name": "listed",
              "type": "uint256"
            },
            {
              "internalType": "uint256",
              "name": "updated",
              "type": "uint256"
            }
          ],
          "internalType": "struct Dapp",
          "name": "",
          "type": "tuple"
        }
      ],
      "stateMutability": "view",
      "type": "function"
    },
    {
      "inputs": [],
      "name": "isCheddaStore",
      "outputs": [
        {
          "internalType": "bool",
          "name": "",
          "type": "bool"
        }
      ],
      "stateMutability": "pure",
      "type": "function"
    },
    {
      "inputs": [
        {
          "internalType": "uint256",
          "name": "listedSince",
          "type": "uint256"
        }
      ],
      "name": "newDapps",
      "outputs": [
        {
          "components": [
            {
              "components": [
                {
                  "internalType": "uint16",
                  "name": "index",
                  "type": "uint16"
                },
                {
                  "internalType": "string",
                  "name": "name",
                  "type": "string"
                },
                {
                  "internalType": "uint8",
                  "name": "chainID",
                  "type": "uint8"
                },
                {
                  "internalType": "address",
                  "name": "contractAddress",
                  "type": "address"
                },
                {
                  "internalType": "string",
                  "name": "metadataURI",
                  "type": "string"
                },
                {
                  "internalType": "bool",
                  "name": "isFeatured",
                  "type": "bool"
                },
                {
                  "internalType": "uint256",
                  "name": "listed",
                  "type": "uint256"
                },
                {
                  "internalType": "uint256",
                  "name": "updated",
                  "type": "uint256"
                }
              ],
              "internalType": "struct Dapp",
              "name": "dapp",
              "type": "tuple"
            },
            {
              "components": [
                {
                  "internalType": "uint256",
                  "name": "averageRating",
                  "type": "uint256"
                },
                {
                  "internalType": "uint256",
                  "name": "numberOfRatings",
                  "type": "uint256"
                }
              ],
              "internalType": "struct DappRating",
              "name": "rating",
              "type": "tuple"
            }
          ],
          "internalType": "struct DappWithRating[]",
          "name": "",
          "type": "tuple[]"
        }
      ],
      "stateMutability": "view",
      "type": "function"
    },
    {
      "inputs": [],
      "name": "numberOfDapps",
      "outputs": [
        {
          "internalType": "uint256",
          "name": "",
          "type": "uint256"
        }
      ],
      "stateMutability": "view",
      "type": "function"
    },
    {
      "inputs": [
        {
          "internalType": "string",
          "name": "category",
          "type": "string"
        }
      ],
      "name": "numberOfDappsInCategory",
      "outputs": [
        {
          "internalType": "uint256",
          "name": "",
          "type": "uint256"
        }
      ],
      "stateMutability": "view",
      "type": "function"
    },
    {
      "inputs": [],
      "name": "owner",
      "outputs": [
        {
          "internalType": "address",
          "name": "",
          "type": "address"
        }
      ],
      "stateMutability": "view",
      "type": "function"
    },
    {
      "inputs": [],
      "name": "popularDapps",
      "outputs": [
        {
          "components": [
            {
              "components": [
                {
                  "internalType": "uint16",
                  "name": "index",
                  "type": "uint16"
                },
                {
                  "internalType": "string",
                  "name": "name",
                  "type": "string"
                },
                {
                  "internalType": "uint8",
                  "name": "chainID",
                  "type": "uint8"
                },
                {
                  "internalType": "address",
                  "name": "contractAddress",
                  "type": "address"
                },
                {
                  "internalType": "string",
                  "name": "metadataURI",
                  "type": "string"
                },
                {
                  "internalType": "bool",
                  "name": "isFeatured",
                  "type": "bool"
                },
                {
                  "internalType": "uint256",
                  "name": "listed",
                  "type": "uint256"
                },
                {
                  "internalType": "uint256",
                  "name": "updated",
                  "type": "uint256"
                }
              ],
              "internalType": "struct Dapp",
              "name": "dapp",
              "type": "tuple"
            },
            {
              "components": [
                {
                  "internalType": "uint256",
                  "name": "averageRating",
                  "type": "uint256"
                },
                {
                  "internalType": "uint256",
                  "name": "numberOfRatings",
                  "type": "uint256"
                }
              ],
              "internalType": "struct DappRating",
              "name": "rating",
              "type": "tuple"
            }
          ],
          "internalType": "struct DappWithRating[]",
          "name": "",
          "type": "tuple[]"
        }
      ],
      "stateMutability": "view",
      "type": "function"
    },
    {
      "inputs": [],
      "name": "registry",
      "outputs": [
        {
          "internalType": "contract ICheddaAddressRegistry",
          "name": "",
          "type": "address"
        }
      ],
      "stateMutability": "view",
      "type": "function"
    },
    {
      "inputs": [
        {
          "internalType": "address",
          "name": "contractAddress",
          "type": "address"
        }
      ],
      "name": "removeDapp",
      "outputs": [],
      "stateMutability": "nonpayable",
      "type": "function"
    },
    {
      "inputs": [
        {
          "internalType": "address",
          "name": "contractAddress",
          "type": "address"
        },
        {
          "internalType": "address",
          "name": "admin",
          "type": "address"
        }
      ],
      "name": "removeDappAdmin",
      "outputs": [],
      "stateMutability": "nonpayable",
      "type": "function"
    },
    {
      "inputs": [],
      "name": "renounceOwnership",
      "outputs": [],
      "stateMutability": "nonpayable",
      "type": "function"
    },
    {
      "inputs": [
        {
          "internalType": "address",
          "name": "contractAddress",
          "type": "address"
        },
        {
          "internalType": "bool",
          "name": "isFeatured",
          "type": "bool"
        }
      ],
      "name": "setFeaturedDapp",
      "outputs": [],
      "stateMutability": "nonpayable",
      "type": "function"
    },
    {
      "inputs": [
        {
          "internalType": "address",
          "name": "newOwner",
          "type": "address"
        }
      ],
      "name": "transferOwnership",
      "outputs": [],
      "stateMutability": "nonpayable",
      "type": "function"
    },
    {
      "inputs": [
        {
          "internalType": "address",
          "name": "contractAddress",
          "type": "address"
        },
        {
          "internalType": "string",
          "name": "metadataURI",
          "type": "string"
        }
      ],
      "name": "updateDappMetadata",
      "outputs": [],
      "stateMutability": "nonpayable",
      "type": "function"
    },
    {
      "inputs": [
        {
          "internalType": "address",
          "name": "registryAddress",
          "type": "address"
        }
      ],
      "name": "updateRegistry",
      "outputs": [],
      "stateMutability": "nonpayable",
      "type": "function"
    }
  ],
  "bytecode": "0x608060405234801561001057600080fd5b5061001a3361001f565b61006f565b600080546001600160a01b038381166001600160a01b0319831681178455604051919092169283917f8be0079c531659141344cd1fd0a4f28419497f9722a3daafe3b4186f6b6457e09190a35050565b613151806200007f6000396000f3fe608060405234801561001057600080fd5b50600436106101585760003560e01c80636caa97ac116100c357806389dcc51f1161007c57806389dcc51f146102c55780638cb0c1cb146102d85780638da5cb5b146102eb578063cc26f1ae146102fc578063f2fde38b14610323578063f84a16791461033657600080fd5b80636caa97ac14610260578063711575591461028b578063715018a6146102935780637644e1db1461029b5780637b103999146102aa578063809c45a3146102bd57600080fd5b8063471dbe3a11610115578063471dbe3a146101ea578063496bd3df146101f25780635486d6d414610212578063627c55f61461022557806365574d901461023857806365a6e9db1461024b57600080fd5b8063133c7d1d1461015d578063165631b714610186578063181157ef1461019b5780631a5da6c8146101ae5780631c5fd4c6146101c15780634660e822146101c9575b600080fd5b61017061016b366004612c7b565b610349565b60405161017d9190612e39565b60405180910390f35b610199610194366004612aec565b6106da565b005b6101996101a9366004612abb565b61077d565b6101996101bc366004612a44565b610819565b610170610865565b6101dc6101d7366004612b3f565b610be0565b60405190815260200161017d565b610170610c0d565b610205610200366004612a44565b610edd565b60405161017d9190612fa3565b610199610220366004612bc2565b6110ce565b610199610233366004612a44565b6113ec565b610170610246366004612b3f565b61164a565b610253611a55565b60405161017d9190612eba565b61027361026e366004612b7f565b611cdf565b6040516001600160a01b03909116815260200161017d565b610170611d26565b61019961209a565b6040516001815260200161017d565b600554610273906001600160a01b031681565b6001546101dc565b6102056102d3366004612c7b565b6120d0565b6101996102e6366004612a83565b612189565b6000546001600160a01b0316610273565b61030f61030a366004612a44565b612296565b60405161017d989796959493929190612fb6565b610199610331366004612a44565b612402565b610199610344366004612a83565b61249d565b60606000805b6001548110156103d3576000600260006001848154811061038057634e487b7160e01b600052603260045260246000fd5b60009182526020808320909101546001600160a01b031683528201929092526040019020600581015490915085116103c057826103bc816130bf565b9350505b50806103cb816130bf565b91505061034f565b5060008167ffffffffffffffff8111156103fd57634e487b7160e01b600052604160045260246000fd5b60405190808252806020026020018201604052801561043657816020015b6104236127a2565b81526020019060019003908161041b5790505b5090506000915060005b6001548110156106d2576000600260006001848154811061047157634e487b7160e01b600052603260045260246000fd5b60009182526020808320909101546001600160a01b031683528201929092526040018120600180549193506104d891859081106104be57634e487b7160e01b600052603260045260246000fd5b6000918252602090912001546001600160a01b031661253f565b9050868260050154106106bd576040805161014081018252835461ffff16918101918252600184018054919283929091869160608501919061051990613068565b80601f016020809104026020016040519081016040528092919081815260200182805461054590613068565b80156105925780601f1061056757610100808354040283529160200191610592565b820191906000526020600020905b81548152906001019060200180831161057557829003601f168201915b5050509183525050600282015460ff8116602083015261010090046001600160a01b031660408201526003820180546060909201916105d090613068565b80601f01602080910402602001604051908101604052809291908181526020018280546105fc90613068565b80156106495780601f1061061e57610100808354040283529160200191610649565b820191906000526020600020905b81548152906001019060200180831161062c57829003601f168201915b5050509183525050600482015460ff161515602080830191909152600583015460408301526006909201546060909101529082520182905284518590879081106106a357634e487b7160e01b600052603260045260246000fd5b602002602001018190525084806106b9906130bf565b9550505b505080806106ca906130bf565b915050610440565b509392505050565b6000546001600160a01b0316331461070d5760405162461bcd60e51b815260040161070490612f6e565b60405180910390fd5b6001600160a01b03808416600090815260026020819052604090912001548491610100909104166107505760405162461bcd60e51b815260040161070490612f45565b6001600160a01b03841660009081526002602052604090206107769060030184846127dc565b5050505050565b6000546001600160a01b031633146107a75760405162461bcd60e51b815260040161070490612f6e565b6001600160a01b03808316600090815260026020819052604090912001548391610100909104166107ea5760405162461bcd60e51b815260040161070490612f45565b506001600160a01b03919091166000908152600260205260409020600401805460ff1916911515919091179055565b6000546001600160a01b031633146108435760405162461bcd60e51b815260040161070490612f6e565b600580546001600160a01b0319166001600160a01b0392909216919091179055565b60606000805b6001548110156108f1576000600260006001848154811061089c57634e487b7160e01b600052603260045260246000fd5b60009182526020808320909101546001600160a01b031683528201929092526040019020600481015490915060ff16156108de57826108da816130bf565b9350505b50806108e9816130bf565b91505061086b565b5060008167ffffffffffffffff81111561091b57634e487b7160e01b600052604160045260246000fd5b60405190808252806020026020018201604052801561095457816020015b6109416127a2565b8152602001906001900390816109395790505b5090506000915060005b600154811015610bd9576000600260006001848154811061098f57634e487b7160e01b600052603260045260246000fd5b60009182526020808320909101546001600160a01b03168352828101939093526040918201902081516101008101909252805461ffff16825260018101805492939192918401916109df90613068565b80601f0160208091040260200160405190810160405280929190818152602001828054610a0b90613068565b8015610a585780601f10610a2d57610100808354040283529160200191610a58565b820191906000526020600020905b815481529060010190602001808311610a3b57829003601f168201915b5050509183525050600282015460ff8116602083015261010090046001600160a01b03166040820152600382018054606090920191610a9690613068565b80601f0160208091040260200160405190810160405280929190818152602001828054610ac290613068565b8015610b0f5780601f10610ae457610100808354040283529160200191610b0f565b820191906000526020600020905b815481529060010190602001808311610af257829003601f168201915b5050509183525050600482015460ff16151560208201526005820154604082015260069091015460609091015260018054919250600091610b699190859081106104be57634e487b7160e01b600052603260045260246000fd5b90508160a0015115610bc457604051806040016040528083815260200182815250848681518110610baa57634e487b7160e01b600052603260045260246000fd5b60200260200101819052508480610bc0906130bf565b9550505b50508080610bd1906130bf565b91505061095e565b5092915050565b600060048383604051610bf4929190612d72565b9081526040519081900360200190205490505b92915050565b60015460609060009067ffffffffffffffff811115610c3c57634e487b7160e01b600052604160045260246000fd5b604051908082528060200260200182016040528015610c7557816020015b610c626127a2565b815260200190600190039081610c5a5790505b50905060005b600154811015610ed75760405180604001604052806002600060018581548110610cb557634e487b7160e01b600052603260045260246000fd5b60009182526020808320909101546001600160a01b03168352828101939093526040918201902081516101008101909252805461ffff1682526001810180549293919291840191610d0590613068565b80601f0160208091040260200160405190810160405280929190818152602001828054610d3190613068565b8015610d7e5780601f10610d5357610100808354040283529160200191610d7e565b820191906000526020600020905b815481529060010190602001808311610d6157829003601f168201915b5050509183525050600282015460ff8116602083015261010090046001600160a01b03166040820152600382018054606090920191610dbc90613068565b80601f0160208091040260200160405190810160405280929190818152602001828054610de890613068565b8015610e355780601f10610e0a57610100808354040283529160200191610e35565b820191906000526020600020905b815481529060010190602001808311610e1857829003601f168201915b505050505081526020016004820160009054906101000a900460ff16151515158152602001600582015481526020016006820154815250508152602001610e96600184815481106104be57634e487b7160e01b600052603260045260246000fd5b815250828281518110610eb957634e487b7160e01b600052603260045260246000fd5b60200260200101819052508080610ecf906130bf565b915050610c7b565b50919050565b610ee5612860565b6001600160a01b0380831660009081526002602081905260409091200154839161010090910416610f285760405162461bcd60e51b815260040161070490612f45565b6001600160a01b03831660009081526002602090815260409182902082516101008101909352805461ffff1683526001810180549192840191610f6a90613068565b80601f0160208091040260200160405190810160405280929190818152602001828054610f9690613068565b8015610fe35780601f10610fb857610100808354040283529160200191610fe3565b820191906000526020600020905b815481529060010190602001808311610fc657829003601f168201915b5050509183525050600282015460ff8116602083015261010090046001600160a01b0316604082015260038201805460609092019161102190613068565b80601f016020809104026020016040519081016040528092919081815260200182805461104d90613068565b801561109a5780601f1061106f5761010080835404028352916020019161109a565b820191906000526020600020905b81548152906001019060200180831161107d57829003601f168201915b5050509183525050600482015460ff1615156020820152600582015460408201526006909101546060909101529392505050565b6000546001600160a01b031633146110f85760405162461bcd60e51b815260040161070490612f6e565b6001600160a01b03841661113d5760405162461bcd60e51b815260206004820152600c60248201526b5a65726f206164647265737360a01b6044820152606401610704565b6001600160a01b03848116600090815260026020819052604090912001546101009004161561119c5760405162461bcd60e51b815260206004820152600b60248201526a446170702065786973747360a81b6044820152606401610704565b60008054600160a01b900461ffff168160146111b78361309d565b91906101000a81548161ffff021916908361ffff160217905550905060006040518061010001604052808361ffff1681526020018981526020018860ff168152602001876001600160a01b0316815260200185858080601f016020809104026020016040519081016040528093929190818152602001838380828437600092018290525093855250505060208083018290524260408085018290526060909401526001600160a01b038a168252600281529190208251815461ffff191661ffff9091161781558282015180519394508493919261129c926001850192909101906128b7565b50604082015160028201805460608501516001600160a01b0316610100026001600160a81b031990911660ff90931692909217919091179055608082015180516112f09160038401916020909101906128b7565b5060a08201516004828101805460ff19169215159290921790915560c0830151600583015560e09092015160069091015560405161132f908790612d82565b9081526040516020918190038201812080546001808201835560009283529382200180546001600160a01b03199081166001600160a01b038c1690811790925584548086018655949092527fb10e2d527612073b26eecdfd717e6a320cf44b4afac2b0732d9fcbe2b7fa0cf69093018054909116831790556113b2908a90612d82565b604051908190038120907f571a5d41a9cdccbd803fbb5a81c414687a87516b6fc484cd8083baab4bab000490600090a35050505050505050565b6000546001600160a01b031633146114165760405162461bcd60e51b815260040161070490612f6e565b6001600160a01b03808216600090815260026020819052604090912001548291610100909104166114595760405162461bcd60e51b815260040161070490612f45565b6001600160a01b0382166000908152600260205260408120805461ffff1916815590819061148a600183018261292b565b6002820180546001600160a81b03191690556114aa60038301600061292b565b5060048101805460ff19169055600060058201819055600690910155805460018054909161ffff169081106114ef57634e487b7160e01b600052603260045260246000fd5b600091825260209091200180546001600160a01b031916905560018054611517908290613021565b8154811061153557634e487b7160e01b600052603260045260246000fd5b6000918252602090912001548154600180546001600160a01b0390931692909161ffff1690811061157657634e487b7160e01b600052603260045260246000fd5b9060005260206000200160006101000a8154816001600160a01b0302191690836001600160a01b0316021790555060018054806115c357634e487b7160e01b600052603160045260246000fd5b60008281526020808220830160001990810180546001600160a01b03191690559092019092556001600160a01b0385168083526002909152604091829020915190916116159160019190910190612d9e565b604051908190038120907faee8bd690ad86ba913eed88d3fa33088c281a85f6dae478039ef7a265523f41690600090a3505050565b60606004838360405161165e929190612d72565b908152604051908190036020019020546116ab5760408051600080825260208201909252906116a3565b6116906127a2565b8152602001906001900390816116885790505b509050610c07565b6000600484846040516116bf929190612d72565b908152604080519182900360209081018320805480830285018301909352828452919083018282801561171b57602002820191906000526020600020905b81546001600160a01b031681526001909101906020018083116116fd575b505050505090506000815167ffffffffffffffff81111561174c57634e487b7160e01b600052604160045260246000fd5b60405190808252806020026020018201604052801561178557816020015b6117726127a2565b81526020019060019003908161176a5790505b50905060005b8251811015611a4c576117ea6040518060400160405280600d81526020016c6164647265737320697320257360981b8152508483815181106117dd57634e487b7160e01b600052603260045260246000fd5b60200260200101516126e8565b60006002600085848151811061181057634e487b7160e01b600052603260045260246000fd5b60200260200101516001600160a01b03166001600160a01b031681526020019081526020016000209050600061186c85848151811061185f57634e487b7160e01b600052603260045260246000fd5b602002602001015161253f565b6040805161014081018252845461ffff16918101918252600185018054939450909283929186916060850191906118a290613068565b80601f01602080910402602001604051908101604052809291908181526020018280546118ce90613068565b801561191b5780601f106118f05761010080835404028352916020019161191b565b820191906000526020600020905b8154815290600101906020018083116118fe57829003601f168201915b5050509183525050600282015460ff8116602083015261010090046001600160a01b0316604082015260038201805460609092019161195990613068565b80601f016020809104026020016040519081016040528092919081815260200182805461198590613068565b80156119d25780601f106119a7576101008083540402835291602001916119d2565b820191906000526020600020905b8154815290600101906020018083116119b557829003601f168201915b5050509183525050600482015460ff16151560208083019190915260058301546040830152600690920154606090910152908252018290528451859085908110611a2c57634e487b7160e01b600052603260045260246000fd5b602002602001018190525050508080611a44906130bf565b91505061178b565b50949350505050565b60015460609060009067ffffffffffffffff811115611a8457634e487b7160e01b600052604160045260246000fd5b604051908082528060200260200182016040528015611abd57816020015b611aaa612860565b815260200190600190039081611aa25790505b50905060005b600154811015610ed7576002600060018381548110611af257634e487b7160e01b600052603260045260246000fd5b60009182526020808320909101546001600160a01b03168352828101939093526040918201902081516101008101909252805461ffff1682526001810180549293919291840191611b4290613068565b80601f0160208091040260200160405190810160405280929190818152602001828054611b6e90613068565b8015611bbb5780601f10611b9057610100808354040283529160200191611bbb565b820191906000526020600020905b815481529060010190602001808311611b9e57829003601f168201915b5050509183525050600282015460ff8116602083015261010090046001600160a01b03166040820152600382018054606090920191611bf990613068565b80601f0160208091040260200160405190810160405280929190818152602001828054611c2590613068565b8015611c725780601f10611c4757610100808354040283529160200191611c72565b820191906000526020600020905b815481529060010190602001808311611c5557829003601f168201915b5050509183525050600482015460ff1615156020820152600582015460408201526006909101546060909101528251839083908110611cc157634e487b7160e01b600052603260045260246000fd5b60200260200101819052508080611cd7906130bf565b915050611ac3565b81516020818401810180516004825292820191850191909120919052805482908110611d0a57600080fd5b6000918252602090912001546001600160a01b03169150829050565b60606000805b600154811015611d9d576000611d5c600183815481106104be57634e487b7160e01b600052603260045260246000fd5b905061012c8160000151118015611d77575060008160200151115b15611d8a5782611d86816130bf565b9350505b5080611d95816130bf565b915050611d2c565b5060008167ffffffffffffffff811115611dc757634e487b7160e01b600052604160045260246000fd5b604051908082528060200260200182016040528015611e0057816020015b611ded6127a2565b815260200190600190039081611de55790505b5090506000915060005b600154811015610bd9576000611e3a600183815481106104be57634e487b7160e01b600052603260045260246000fd5b905061012c8160000151118015611e55575060008160200151115b156120875760006002600060018581548110611e8157634e487b7160e01b600052603260045260246000fd5b60009182526020808320909101546001600160a01b0316835282019290925260409081018220815161014081018352815461ffff169281019283526001820180549295509092839290918691606085019190611edc90613068565b80601f0160208091040260200160405190810160405280929190818152602001828054611f0890613068565b8015611f555780601f10611f2a57610100808354040283529160200191611f55565b820191906000526020600020905b815481529060010190602001808311611f3857829003601f168201915b5050509183525050600282015460ff8116602083015261010090046001600160a01b03166040820152600382018054606090920191611f9390613068565b80601f0160208091040260200160405190810160405280929190818152602001828054611fbf90613068565b801561200c5780601f10611fe15761010080835404028352916020019161200c565b820191906000526020600020905b815481529060010190602001808311611fef57829003601f168201915b5050509183525050600482015460ff16151560208083019190915260058301546040830152600690920154606090910152908252018490528551909150819086908890811061206b57634e487b7160e01b600052603260045260246000fd5b60200260200101819052508580612081906130bf565b96505050505b5080612092816130bf565b915050611e0a565b6000546001600160a01b031633146120c45760405162461bcd60e51b815260040161070490612f6e565b6120ce6000612731565b565b6120d8612860565b60015482106121195760405162461bcd60e51b815260206004820152600d60248201526c092dcecc2d8d2c840d2dcc8caf609b1b6044820152606401610704565b60006001838154811061213c57634e487b7160e01b600052603260045260246000fd5b60009182526020808320909101546001600160a01b03168083526002825260409283902083516101008101909452805461ffff1684526001810180549295509092840191610f6a90613068565b6000546001600160a01b031633146121b35760405162461bcd60e51b815260040161070490612f6e565b6001600160a01b03808316600090815260026020819052604090912001548391610100909104166121f65760405162461bcd60e51b815260040161070490612f45565b6001600160a01b0380841660009081526003602090815260408083209386168352929052205460ff1615156001146122645760405162461bcd60e51b81526020600482015260116024820152704e6f742061646d696e206164647265737360781b6044820152606401610704565b506001600160a01b0391821660009081526003602090815260408083209390941682529190915220805460ff19169055565b6002602052600090815260409020805460018201805461ffff90921692916122bd90613068565b80601f01602080910402602001604051908101604052809291908181526020018280546122e990613068565b80156123365780601f1061230b57610100808354040283529160200191612336565b820191906000526020600020905b81548152906001019060200180831161231957829003601f168201915b505050506002830154600384018054939460ff8316946101009093046001600160a01b031693509161236790613068565b80601f016020809104026020016040519081016040528092919081815260200182805461239390613068565b80156123e05780601f106123b5576101008083540402835291602001916123e0565b820191906000526020600020905b8154815290600101906020018083116123c357829003601f168201915b5050505060048301546005840154600690940154929360ff9091169290915088565b6000546001600160a01b0316331461242c5760405162461bcd60e51b815260040161070490612f6e565b6001600160a01b0381166124915760405162461bcd60e51b815260206004820152602660248201527f4f776e61626c653a206e6577206f776e657220697320746865207a65726f206160448201526564647265737360d01b6064820152608401610704565b61249a81612731565b50565b6000546001600160a01b031633146124c75760405162461bcd60e51b815260040161070490612f6e565b6001600160a01b038083166000908152600260208190526040909120015483916101009091041661250a5760405162461bcd60e51b815260040161070490612f45565b506001600160a01b0391821660009081526003602090815260408083209390941682529190915220805460ff19166001179055565b604080518082019091526000808252602082015260055460408051634e75ea2760e01b815290516000926001600160a01b031691634e75ea27916004808301926020929190829003018186803b15801561259857600080fd5b505afa1580156125ac573d6000803e3d6000fd5b505050506040513d601f19601f820116820180604052508101906125d09190612a67565b60405163f4f98eab60e01b81526001600160a01b03858116600483015291925060009183169063f4f98eab9060240160206040518083038186803b15801561261757600080fd5b505afa15801561262b573d6000803e3d6000fd5b505050506040513d601f19601f8201168201806040525081019061264f9190612c93565b604051630171ae1560e31b81526001600160a01b038681166004830152919250600091841690630b8d70a89060240160206040518083038186803b15801561269657600080fd5b505afa1580156126aa573d6000803e3d6000fd5b505050506040513d601f19601f820116820180604052508101906126ce9190612c93565b604080518082019091529283526020830152509392505050565b61272d82826040516024016126fe929190612f1b565b60408051601f198184030181529190526020810180516001600160e01b031663319af33360e01b179052612781565b5050565b600080546001600160a01b038381166001600160a01b0319831681178455604051919092169283917f8be0079c531659141344cd1fd0a4f28419497f9722a3daafe3b4186f6b6457e09190a35050565b80516a636f6e736f6c652e6c6f67602083016000808483855afa5050505050565b60405180604001604052806127b5612860565b81526020016127d7604051806040016040528060008152602001600081525090565b905290565b8280546127e890613068565b90600052602060002090601f01602090048101928261280a5760008555612850565b82601f106128235782800160ff19823516178555612850565b82800160010185558215612850579182015b82811115612850578235825591602001919060010190612835565b5061285c929150612961565b5090565b604051806101000160405280600061ffff16815260200160608152602001600060ff16815260200160006001600160a01b031681526020016060815260200160001515815260200160008152602001600081525090565b8280546128c390613068565b90600052602060002090601f0160209004810192826128e55760008555612850565b82601f106128fe57805160ff1916838001178555612850565b82800160010185558215612850579182015b82811115612850578251825591602001919060010190612910565b50805461293790613068565b6000825580601f10612947575050565b601f01602090049060005260206000209081019061249a91905b5b8082111561285c5760008155600101612962565b60008083601f840112612987578182fd5b50813567ffffffffffffffff81111561299e578182fd5b6020830191508360208285010111156129b657600080fd5b9250929050565b600082601f8301126129cd578081fd5b813567ffffffffffffffff808211156129e8576129e86130f0565b604051601f8301601f19908116603f01168101908282118183101715612a1057612a106130f0565b81604052838152866020858801011115612a28578485fd5b8360208701602083013792830160200193909352509392505050565b600060208284031215612a55578081fd5b8135612a6081613106565b9392505050565b600060208284031215612a78578081fd5b8151612a6081613106565b60008060408385031215612a95578081fd5b8235612aa081613106565b91506020830135612ab081613106565b809150509250929050565b60008060408385031215612acd578182fd5b8235612ad881613106565b915060208301358015158114612ab0578182fd5b600080600060408486031215612b00578081fd5b8335612b0b81613106565b9250602084013567ffffffffffffffff811115612b26578182fd5b612b3286828701612976565b9497909650939450505050565b60008060208385031215612b51578182fd5b823567ffffffffffffffff811115612b67578283fd5b612b7385828601612976565b90969095509350505050565b60008060408385031215612b91578182fd5b823567ffffffffffffffff811115612ba7578283fd5b612bb3858286016129bd565b95602094909401359450505050565b60008060008060008060a08789031215612bda578182fd5b863567ffffffffffffffff80821115612bf1578384fd5b612bfd8a838b016129bd565b97506020890135915060ff82168214612c14578384fd5b909550604088013590612c2682613106565b90945060608801359080821115612c3b578384fd5b612c478a838b016129bd565b94506080890135915080821115612c5c578384fd5b50612c6989828a01612976565b979a9699509497509295939492505050565b600060208284031215612c8c578081fd5b5035919050565b600060208284031215612ca4578081fd5b5051919050565b60008151808452612cc3816020860160208601613038565b601f01601f19169290920160200192915050565b600061010061ffff83511684526020830151816020860152612cfb82860182612cab565b91505060ff60408401511660408501526060830151612d2560608601826001600160a01b03169052565b5060808301518482036080860152612d3d8282612cab565b91505060a0830151612d5360a086018215159052565b5060c083015160c085015260e083015160e08501528091505092915050565b8183823760009101908152919050565b60008251612d94818460208701613038565b9190910192915050565b600080835482600182811c915080831680612dba57607f831692505b6020808410821415612dda57634e487b7160e01b87526022600452602487fd5b818015612dee5760018114612dff57612e2b565b60ff19861689528489019650612e2b565b60008a815260209020885b86811015612e235781548b820152908501908301612e0a565b505084890196505b509498975050505050505050565b60006020808301818452808551808352604092508286019150828160051b870101848801865b83811015612eac57603f19898403018552815160608151818652612e8582870182612cd7565b928a01518051878c01528a0151958901959095525094870194925090860190600101612e5f565b509098975050505050505050565b6000602080830181845280855180835260408601915060408160051b8701019250838701855b82811015612f0e57603f19888603018452612efc858351612cd7565b94509285019290850190600101612ee0565b5092979650505050505050565b604081526000612f2e6040830185612cab565b905060018060a01b03831660208301529392505050565b6020808252600f908201526e496e76616c6964206164647265737360881b604082015260600190565b6020808252818101527f4f776e61626c653a2063616c6c6572206973206e6f7420746865206f776e6572604082015260600190565b602081526000612a606020830184612cd7565b600061010061ffff8b168352806020840152612fd48184018b612cab565b60ff8a1660408501526001600160a01b0389166060850152838103608085015290506130008188612cab565b95151560a0840152505060c081019290925260e09091015295945050505050565b600082821015613033576130336130da565b500390565b60005b8381101561305357818101518382015260200161303b565b83811115613062576000848401525b50505050565b600181811c9082168061307c57607f821691505b60208210811415610ed757634e487b7160e01b600052602260045260246000fd5b600061ffff808316818114156130b5576130b56130da565b6001019392505050565b60006000198214156130d3576130d36130da565b5060010190565b634e487b7160e01b600052601160045260246000fd5b634e487b7160e01b600052604160045260246000fd5b6001600160a01b038116811461249a57600080fdfea2646970667358221220c2823898635fc36ffe934f8344f9526212eb1ba332eb5a77ab765c7eaf9cb3d364736f6c63430008040033",
  "linkReferences": {},
  "deployedLinkReferences": {}
}