{
  "_format": "hh-sol-artifact-1",
  "contractName": "CheddaDappStore",
  "sourceName": "contracts/dappstore/CheddaDappStore.sol",
  "abi": [
    {
      "inputs": [],
      "name": "DappNotFound",
      "type": "error"
    },
    {
      "anonymous": false,
      "inputs": [
        {
          "indexed": true,
          "internalType": "string",
          "name": "name",
          "type": "string"
        },
        {
          "indexed": true,
          "internalType": "address",
          "name": "contractAddress",
          "type": "address"
        }
      ],
      "name": "DappAdded",
      "type": "event"
    },
    {
      "anonymous": false,
      "inputs": [
        {
          "indexed": true,
          "internalType": "string",
          "name": "name",
          "type": "string"
        },
        {
          "indexed": true,
          "internalType": "address",
          "name": "contractAddress",
          "type": "address"
        }
      ],
      "name": "DappRemoved",
      "type": "event"
    },
    {
      "inputs": [
        {
          "internalType": "address",
          "name": "",
          "type": "address"
        }
      ],
      "name": "_dapps",
      "outputs": [
        {
          "internalType": "uint16",
          "name": "index",
          "type": "uint16"
        },
        {
          "internalType": "string",
          "name": "name",
          "type": "string"
        },
        {
          "internalType": "string",
          "name": "network",
          "type": "string"
        },
        {
          "internalType": "uint8",
          "name": "chainID",
          "type": "uint8"
        },
        {
          "internalType": "address",
          "name": "contractAddress",
          "type": "address"
        },
        {
          "internalType": "string",
          "name": "metadataURI",
          "type": "string"
        }
      ],
      "stateMutability": "view",
      "type": "function"
    },
    {
      "inputs": [
        {
          "internalType": "string",
          "name": "name",
          "type": "string"
        },
        {
          "internalType": "string",
          "name": "network",
          "type": "string"
        },
        {
          "internalType": "uint8",
          "name": "chainId",
          "type": "uint8"
        },
        {
          "internalType": "address",
          "name": "contractAddress",
          "type": "address"
        },
        {
          "internalType": "string",
          "name": "category",
          "type": "string"
        },
        {
          "internalType": "string",
          "name": "uri",
          "type": "string"
        }
      ],
      "name": "addDapp",
      "outputs": [],
      "stateMutability": "nonpayable",
      "type": "function"
    },
    {
      "inputs": [
        {
          "internalType": "address",
          "name": "contractAddress",
          "type": "address"
        },
        {
          "internalType": "address",
          "name": "admin",
          "type": "address"
        }
      ],
      "name": "addDappAdmin",
      "outputs": [],
      "stateMutability": "nonpayable",
      "type": "function"
    },
    {
      "inputs": [
        {
          "internalType": "string",
          "name": "",
          "type": "string"
        },
        {
          "internalType": "uint256",
          "name": "",
          "type": "uint256"
        }
      ],
      "name": "categories",
      "outputs": [
        {
          "internalType": "address",
          "name": "",
          "type": "address"
        }
      ],
      "stateMutability": "view",
      "type": "function"
    },
    {
      "inputs": [],
      "name": "dapps",
      "outputs": [
        {
          "components": [
            {
              "internalType": "uint16",
              "name": "index",
              "type": "uint16"
            },
            {
              "internalType": "string",
              "name": "name",
              "type": "string"
            },
            {
              "internalType": "string",
              "name": "network",
              "type": "string"
            },
            {
              "internalType": "uint8",
              "name": "chainID",
              "type": "uint8"
            },
            {
              "internalType": "address",
              "name": "contractAddress",
              "type": "address"
            },
            {
              "internalType": "string",
              "name": "metadataURI",
              "type": "string"
            }
          ],
          "internalType": "struct Dapp[]",
          "name": "",
          "type": "tuple[]"
        }
      ],
      "stateMutability": "view",
      "type": "function"
    },
    {
      "inputs": [
        {
          "internalType": "address",
          "name": "",
          "type": "address"
        }
      ],
      "name": "dislikes",
      "outputs": [
        {
          "internalType": "uint256",
          "name": "",
          "type": "uint256"
        }
      ],
      "stateMutability": "view",
      "type": "function"
    },
    {
      "inputs": [
        {
          "internalType": "address",
          "name": "contractAddress",
          "type": "address"
        }
      ],
      "name": "getDapp",
      "outputs": [
        {
          "components": [
            {
              "internalType": "uint16",
              "name": "index",
              "type": "uint16"
            },
            {
              "internalType": "string",
              "name": "name",
              "type": "string"
            },
            {
              "internalType": "string",
              "name": "network",
              "type": "string"
            },
            {
              "internalType": "uint8",
              "name": "chainID",
              "type": "uint8"
            },
            {
              "internalType": "address",
              "name": "contractAddress",
              "type": "address"
            },
            {
              "internalType": "string",
              "name": "metadataURI",
              "type": "string"
            }
          ],
          "internalType": "struct Dapp",
          "name": "",
          "type": "tuple"
        }
      ],
      "stateMutability": "view",
      "type": "function"
    },
    {
      "inputs": [
        {
          "internalType": "uint256",
          "name": "index",
          "type": "uint256"
        }
      ],
      "name": "getDappAtIndex",
      "outputs": [
        {
          "components": [
            {
              "internalType": "uint16",
              "name": "index",
              "type": "uint16"
            },
            {
              "internalType": "string",
              "name": "name",
              "type": "string"
            },
            {
              "internalType": "string",
              "name": "network",
              "type": "string"
            },
            {
              "internalType": "uint8",
              "name": "chainID",
              "type": "uint8"
            },
            {
              "internalType": "address",
              "name": "contractAddress",
              "type": "address"
            },
            {
              "internalType": "string",
              "name": "metadataURI",
              "type": "string"
            }
          ],
          "internalType": "struct Dapp",
          "name": "",
          "type": "tuple"
        }
      ],
      "stateMutability": "view",
      "type": "function"
    },
    {
      "inputs": [
        {
          "internalType": "string",
          "name": "category",
          "type": "string"
        }
      ],
      "name": "getDappsInCategory",
      "outputs": [
        {
          "components": [
            {
              "internalType": "uint16",
              "name": "index",
              "type": "uint16"
            },
            {
              "internalType": "string",
              "name": "name",
              "type": "string"
            },
            {
              "internalType": "string",
              "name": "network",
              "type": "string"
            },
            {
              "internalType": "uint8",
              "name": "chainID",
              "type": "uint8"
            },
            {
              "internalType": "address",
              "name": "contractAddress",
              "type": "address"
            },
            {
              "internalType": "string",
              "name": "metadataURI",
              "type": "string"
            }
          ],
          "internalType": "struct Dapp[]",
          "name": "",
          "type": "tuple[]"
        }
      ],
      "stateMutability": "view",
      "type": "function"
    },
    {
      "inputs": [
        {
          "internalType": "address",
          "name": "contractAddress",
          "type": "address"
        }
      ],
      "name": "getDislikes",
      "outputs": [
        {
          "internalType": "uint256",
          "name": "",
          "type": "uint256"
        }
      ],
      "stateMutability": "view",
      "type": "function"
    },
    {
      "inputs": [
        {
          "internalType": "address",
          "name": "contractAddress",
          "type": "address"
        }
      ],
      "name": "getLikes",
      "outputs": [
        {
          "internalType": "uint256",
          "name": "",
          "type": "uint256"
        }
      ],
      "stateMutability": "view",
      "type": "function"
    },
    {
      "inputs": [
        {
          "internalType": "address",
          "name": "contractAddress",
          "type": "address"
        }
      ],
      "name": "getReviews",
      "outputs": [
        {
          "components": [
            {
              "internalType": "uint256",
              "name": "timestamp",
              "type": "uint256"
            },
            {
              "internalType": "string",
              "name": "metadataURI",
              "type": "string"
            }
          ],
          "internalType": "struct DappReview[]",
          "name": "",
          "type": "tuple[]"
        }
      ],
      "stateMutability": "view",
      "type": "function"
    },
    {
      "inputs": [],
      "name": "isCheddaStore",
      "outputs": [
        {
          "internalType": "bool",
          "name": "",
          "type": "bool"
        }
      ],
      "stateMutability": "pure",
      "type": "function"
    },
    {
      "inputs": [
        {
          "internalType": "address",
          "name": "contractAddress",
          "type": "address"
        }
      ],
      "name": "likeDapp",
      "outputs": [],
      "stateMutability": "nonpayable",
      "type": "function"
    },
    {
      "inputs": [
        {
          "internalType": "address",
          "name": "",
          "type": "address"
        }
      ],
      "name": "likes",
      "outputs": [
        {
          "internalType": "uint256",
          "name": "",
          "type": "uint256"
        }
      ],
      "stateMutability": "view",
      "type": "function"
    },
    {
      "inputs": [],
      "name": "numberOfDapps",
      "outputs": [
        {
          "internalType": "uint256",
          "name": "",
          "type": "uint256"
        }
      ],
      "stateMutability": "view",
      "type": "function"
    },
    {
      "inputs": [
        {
          "internalType": "string",
          "name": "category",
          "type": "string"
        }
      ],
      "name": "numberOfDappsInCategory",
      "outputs": [
        {
          "internalType": "uint256",
          "name": "",
          "type": "uint256"
        }
      ],
      "stateMutability": "view",
      "type": "function"
    },
    {
      "inputs": [
        {
          "internalType": "address",
          "name": "",
          "type": "address"
        }
      ],
      "name": "ratings",
      "outputs": [
        {
          "internalType": "uint16",
          "name": "",
          "type": "uint16"
        }
      ],
      "stateMutability": "view",
      "type": "function"
    },
    {
      "inputs": [
        {
          "internalType": "address",
          "name": "contractAddress",
          "type": "address"
        }
      ],
      "name": "removeDapp",
      "outputs": [],
      "stateMutability": "nonpayable",
      "type": "function"
    },
    {
      "inputs": [
        {
          "internalType": "address",
          "name": "contractAddress",
          "type": "address"
        },
        {
          "internalType": "address",
          "name": "admin",
          "type": "address"
        }
      ],
      "name": "removeDappAdmin",
      "outputs": [],
      "stateMutability": "nonpayable",
      "type": "function"
    },
    {
      "inputs": [
        {
          "internalType": "address",
          "name": "",
          "type": "address"
        },
        {
          "internalType": "uint256",
          "name": "",
          "type": "uint256"
        }
      ],
      "name": "reviews",
      "outputs": [
        {
          "internalType": "uint256",
          "name": "timestamp",
          "type": "uint256"
        },
        {
          "internalType": "string",
          "name": "metadataURI",
          "type": "string"
        }
      ],
      "stateMutability": "view",
      "type": "function"
    },
    {
      "inputs": [
        {
          "internalType": "address",
          "name": "contractAddress",
          "type": "address"
        }
      ],
      "name": "unlikeDapp",
      "outputs": [],
      "stateMutability": "nonpayable",
      "type": "function"
    }
  ],
  "bytecode": "0x60806040526000600260006101000a81548161ffff021916908361ffff16021790555060646002806101000a81548161ffff021916908361ffff16021790555034801561004b57600080fd5b50613a1f8061005b6000396000f3fe608060405234801561001057600080fd5b50600436106101425760003560e01c80637644e1db116100b8578063a020a3291161007c578063a020a329146103c2578063b3e36267146103de578063cc18513f1461040e578063cc26f1ae1461043e578063f84a167914610473578063fa4e0f381461048f57610142565b80637644e1db1461030a578063809c45a31461032857806389dcc51f146103465780638cb0c1cb146103765780639e01dfbb1461039257610142565b8063627c55f61161010a578063627c55f61461022357806365a6e9db1461023f5780636617af351461025d5780636caa97ac146102795780636db3328f146102a9578063737d3685146102da57610142565b806302066d19146101475780630dd2ddc4146101775780634660e82214610193578063496bd3df146101c35780634ef5a017146101f3575b600080fd5b610161600480360381019061015c9190612be9565b6104bf565b60405161016e9190613506565b60405180910390f35b610191600480360381019061018c9190612ccf565b6105d9565b005b6101ad60048036038101906101a89190612c8a565b6109fb565b6040516101ba9190613506565b60405180910390f35b6101dd60048036038101906101d89190612be9565b610a29565b6040516101ea9190613453565b60405180910390f35b61020d60048036038101906102089190612be9565b610ccb565b60405161021a9190613374565b60405180910390f35b61023d60048036038101906102389190612be9565b610e05565b005b6102476114d2565b6040516102549190613396565b60405180910390f35b61027760048036038101906102729190612be9565b61177a565b005b610293600480360381019061028e9190612dbe565b6118a6565b6040516102a09190613359565b60405180910390f35b6102c360048036038101906102be9190612c4e565b61190a565b6040516102d1929190613521565b60405180910390f35b6102f460048036038101906102ef9190612be9565b6119d3565b6040516103019190613506565b60405180910390f35b6103126119eb565b60405161031f91906133b8565b60405180910390f35b6103306119f4565b60405161033d9190613506565b60405180910390f35b610360600480360381019061035b9190612e12565b611a10565b60405161036d9190613453565b60405180910390f35b610390600480360381019061038b9190612c12565b611cbb565b005b6103ac60048036038101906103a79190612be9565b611ef6565b6040516103b99190613475565b60405180910390f35b6103dc60048036038101906103d79190612be9565b611f17565b005b6103f860048036038101906103f39190612be9565b612043565b6040516104059190613506565b60405180910390f35b61042860048036038101906104239190612be9565b61205b565b6040516104359190613506565b60405180910390f35b61045860048036038101906104539190612be9565b612175565b60405161046a96959493929190613490565b60405180910390f35b61048d60048036038101906104889190612c12565b612384565b005b6104a960048036038101906104a49190612c8a565b6124ef565b6040516104b69190613396565b60405180910390f35b60008073ffffffffffffffffffffffffffffffffffffffff16600360008473ffffffffffffffffffffffffffffffffffffffff1673ffffffffffffffffffffffffffffffffffffffff16815260200190815260200160002060030160019054906101000a900473ffffffffffffffffffffffffffffffffffffffff1673ffffffffffffffffffffffffffffffffffffffff161415610592576040517f08c379a0000000000000000000000000000000000000000000000000000000008152600401610589906133f3565b60405180910390fd5b600560008373ffffffffffffffffffffffffffffffffffffffff1673ffffffffffffffffffffffffffffffffffffffff168152602001908152602001600020549050919050565b600080600081819054906101000a900461ffff16809291906105fa906137ee565b91906101000a81548161ffff021916908361ffff160217905550905060006040518060c001604052808361ffff1681526020018a81526020018981526020018860ff1681526020018773ffffffffffffffffffffffffffffffffffffffff16815260200185858080601f016020809104026020016040519081016040528093929190818152602001838380828437600081840152601f19601f8201169050808301925050505050505081525090506002600081819054906101000a900461ffff16809291906106c8906137ee565b91906101000a81548161ffff021916908361ffff1602179055505080600360008873ffffffffffffffffffffffffffffffffffffffff1673ffffffffffffffffffffffffffffffffffffffff16815260200190815260200160002060008201518160000160006101000a81548161ffff021916908361ffff16021790555060208201518160010190805190602001906107629291906129c2565b50604082015181600201908051906020019061077f9291906129c2565b5060608201518160030160006101000a81548160ff021916908360ff16021790555060808201518160030160016101000a81548173ffffffffffffffffffffffffffffffffffffffff021916908373ffffffffffffffffffffffffffffffffffffffff16021790555060a08201518160040190805190602001906108049291906129c2565b50905050600985604051610818919061332b565b9081526020016040518091039020869080600181540180825580915050600190039060005260206000200160009091909190916101000a81548173ffffffffffffffffffffffffffffffffffffffff021916908373ffffffffffffffffffffffffffffffffffffffff160217905550600181908060018154018082558091505060019003906000526020600020906005020160009091909190915060008201518160000160006101000a81548161ffff021916908361ffff16021790555060208201518160010190805190602001906108f29291906129c2565b50604082015181600201908051906020019061090f9291906129c2565b5060608201518160030160006101000a81548160ff021916908360ff16021790555060808201518160030160016101000a81548173ffffffffffffffffffffffffffffffffffffffff021916908373ffffffffffffffffffffffffffffffffffffffff16021790555060a08201518160040190805190602001906109949291906129c2565b5050508573ffffffffffffffffffffffffffffffffffffffff16896040516109bc919061332b565b60405180910390207f571a5d41a9cdccbd803fbb5a81c414687a87516b6fc484cd8083baab4bab000460405160405180910390a3505050505050505050565b600060098383604051610a0f929190613312565b908152602001604051809103902080549050905092915050565b610a31612a48565b600360008373ffffffffffffffffffffffffffffffffffffffff1673ffffffffffffffffffffffffffffffffffffffff1681526020019081526020016000206040518060c00160405290816000820160009054906101000a900461ffff1661ffff1661ffff168152602001600182018054610aab9061378b565b80601f0160208091040260200160405190810160405280929190818152602001828054610ad79061378b565b8015610b245780601f10610af957610100808354040283529160200191610b24565b820191906000526020600020905b815481529060010190602001808311610b0757829003601f168201915b50505050508152602001600282018054610b3d9061378b565b80601f0160208091040260200160405190810160405280929190818152602001828054610b699061378b565b8015610bb65780601f10610b8b57610100808354040283529160200191610bb6565b820191906000526020600020905b815481529060010190602001808311610b9957829003601f168201915b505050505081526020016003820160009054906101000a900460ff1660ff1660ff1681526020016003820160019054906101000a900473ffffffffffffffffffffffffffffffffffffffff1673ffffffffffffffffffffffffffffffffffffffff1673ffffffffffffffffffffffffffffffffffffffff168152602001600482018054610c429061378b565b80601f0160208091040260200160405190810160405280929190818152602001828054610c6e9061378b565b8015610cbb5780601f10610c9057610100808354040283529160200191610cbb565b820191906000526020600020905b815481529060010190602001808311610c9e57829003601f168201915b5050505050815250509050919050565b6060600860008373ffffffffffffffffffffffffffffffffffffffff1673ffffffffffffffffffffffffffffffffffffffff168152602001908152602001600020805480602002602001604051908101604052809291908181526020016000905b82821015610dfa578382906000526020600020906002020160405180604001604052908160008201548152602001600182018054610d699061378b565b80601f0160208091040260200160405190810160405280929190818152602001828054610d959061378b565b8015610de25780601f10610db757610100808354040283529160200191610de2565b820191906000526020600020905b815481529060010190602001808311610dc557829003601f168201915b50505050508152505081526020019060010190610d2c565b505050509050919050565b600073ffffffffffffffffffffffffffffffffffffffff168173ffffffffffffffffffffffffffffffffffffffff161415610e75576040517f08c379a0000000000000000000000000000000000000000000000000000000008152600401610e6c90613433565b60405180910390fd5b600073ffffffffffffffffffffffffffffffffffffffff16600360008373ffffffffffffffffffffffffffffffffffffffff1673ffffffffffffffffffffffffffffffffffffffff16815260200190815260200160002060030160019054906101000a900473ffffffffffffffffffffffffffffffffffffffff1673ffffffffffffffffffffffffffffffffffffffff161415610f47576040517f08c379a0000000000000000000000000000000000000000000000000000000008152600401610f3e906133f3565b60405180910390fd5b6000600360008373ffffffffffffffffffffffffffffffffffffffff1673ffffffffffffffffffffffffffffffffffffffff1681526020019081526020016000206040518060c00160405290816000820160009054906101000a900461ffff1661ffff1661ffff168152602001600182018054610fc39061378b565b80601f0160208091040260200160405190810160405280929190818152602001828054610fef9061378b565b801561103c5780601f106110115761010080835404028352916020019161103c565b820191906000526020600020905b81548152906001019060200180831161101f57829003601f168201915b505050505081526020016002820180546110559061378b565b80601f01602080910402602001604051908101604052809291908181526020018280546110819061378b565b80156110ce5780601f106110a3576101008083540402835291602001916110ce565b820191906000526020600020905b8154815290600101906020018083116110b157829003601f168201915b505050505081526020016003820160009054906101000a900460ff1660ff1660ff1681526020016003820160019054906101000a900473ffffffffffffffffffffffffffffffffffffffff1673ffffffffffffffffffffffffffffffffffffffff1673ffffffffffffffffffffffffffffffffffffffff16815260200160048201805461115a9061378b565b80601f01602080910402602001604051908101604052809291908181526020018280546111869061378b565b80156111d35780601f106111a8576101008083540402835291602001916111d3565b820191906000526020600020905b8154815290600101906020018083116111b657829003601f168201915b5050505050815250509050600360008373ffffffffffffffffffffffffffffffffffffffff1673ffffffffffffffffffffffffffffffffffffffff168152602001908152602001600020600080820160006101000a81549061ffff02191690556001820160006112439190612a9b565b6002820160006112539190612a9b565b6003820160006101000a81549060ff02191690556003820160016101000a81549073ffffffffffffffffffffffffffffffffffffffff021916905560048201600061129e9190612a9b565b50506001816000015161ffff16815481106112e2577f4e487b7100000000000000000000000000000000000000000000000000000000600052603260045260246000fd5b9060005260206000209060050201600080820160006101000a81549061ffff02191690556001820160006113169190612a9b565b6002820160006113269190612a9b565b6003820160006101000a81549060ff02191690556003820160016101000a81549073ffffffffffffffffffffffffffffffffffffffff02191690556004820160006113719190612a9b565b5050600460008373ffffffffffffffffffffffffffffffffffffffff1673ffffffffffffffffffffffffffffffffffffffff16815260200190815260200160002060009055600560008373ffffffffffffffffffffffffffffffffffffffff1673ffffffffffffffffffffffffffffffffffffffff168152602001908152602001600020600090556002600081819054906101000a900461ffff168092919061141990613761565b91906101000a81548161ffff021916908361ffff160217905550508173ffffffffffffffffffffffffffffffffffffffff16600360008473ffffffffffffffffffffffffffffffffffffffff1673ffffffffffffffffffffffffffffffffffffffff16815260200190815260200160002060010160405161149a9190613342565b60405180910390207faee8bd690ad86ba913eed88d3fa33088c281a85f6dae478039ef7a265523f41660405160405180910390a35050565b60606001805480602002602001604051908101604052809291908181526020016000905b8282101561177157838290600052602060002090600502016040518060c00160405290816000820160009054906101000a900461ffff1661ffff1661ffff1681526020016001820180546115499061378b565b80601f01602080910402602001604051908101604052809291908181526020018280546115759061378b565b80156115c25780601f10611597576101008083540402835291602001916115c2565b820191906000526020600020905b8154815290600101906020018083116115a557829003601f168201915b505050505081526020016002820180546115db9061378b565b80601f01602080910402602001604051908101604052809291908181526020018280546116079061378b565b80156116545780601f1061162957610100808354040283529160200191611654565b820191906000526020600020905b81548152906001019060200180831161163757829003601f168201915b505050505081526020016003820160009054906101000a900460ff1660ff1660ff1681526020016003820160019054906101000a900473ffffffffffffffffffffffffffffffffffffffff1673ffffffffffffffffffffffffffffffffffffffff1673ffffffffffffffffffffffffffffffffffffffff1681526020016004820180546116e09061378b565b80601f016020809104026020016040519081016040528092919081815260200182805461170c9061378b565b80156117595780601f1061172e57610100808354040283529160200191611759565b820191906000526020600020905b81548152906001019060200180831161173c57829003601f168201915b505050505081525050815260200190600101906114f6565b50505050905090565b600073ffffffffffffffffffffffffffffffffffffffff16600360008373ffffffffffffffffffffffffffffffffffffffff1673ffffffffffffffffffffffffffffffffffffffff16815260200190815260200160002060030160019054906101000a900473ffffffffffffffffffffffffffffffffffffffff1673ffffffffffffffffffffffffffffffffffffffff16141561184c576040517f08c379a0000000000000000000000000000000000000000000000000000000008152600401611843906133f3565b60405180910390fd5b6001600460008373ffffffffffffffffffffffffffffffffffffffff1673ffffffffffffffffffffffffffffffffffffffff168152602001908152602001600020600082825461189c9190613666565b9250508190555050565b60098280516020810182018051848252602083016020850120818352809550505050505081815481106118d857600080fd5b906000526020600020016000915091509054906101000a900473ffffffffffffffffffffffffffffffffffffffff1681565b6008602052816000526040600020818154811061192657600080fd5b9060005260206000209060020201600091509150508060000154908060010180546119509061378b565b80601f016020809104026020016040519081016040528092919081815260200182805461197c9061378b565b80156119c95780601f1061199e576101008083540402835291602001916119c9565b820191906000526020600020905b8154815290600101906020018083116119ac57829003601f168201915b5050505050905082565b60046020528060005260406000206000915090505481565b60006001905090565b6000600260009054906101000a900461ffff1661ffff16905090565b611a18612a48565b60018281548110611a52577f4e487b7100000000000000000000000000000000000000000000000000000000600052603260045260246000fd5b90600052602060002090600502016040518060c00160405290816000820160009054906101000a900461ffff1661ffff1661ffff168152602001600182018054611a9b9061378b565b80601f0160208091040260200160405190810160405280929190818152602001828054611ac79061378b565b8015611b145780601f10611ae957610100808354040283529160200191611b14565b820191906000526020600020905b815481529060010190602001808311611af757829003601f168201915b50505050508152602001600282018054611b2d9061378b565b80601f0160208091040260200160405190810160405280929190818152602001828054611b599061378b565b8015611ba65780601f10611b7b57610100808354040283529160200191611ba6565b820191906000526020600020905b815481529060010190602001808311611b8957829003601f168201915b505050505081526020016003820160009054906101000a900460ff1660ff1660ff1681526020016003820160019054906101000a900473ffffffffffffffffffffffffffffffffffffffff1673ffffffffffffffffffffffffffffffffffffffff1673ffffffffffffffffffffffffffffffffffffffff168152602001600482018054611c329061378b565b80601f0160208091040260200160405190810160405280929190818152602001828054611c5e9061378b565b8015611cab5780601f10611c8057610100808354040283529160200191611cab565b820191906000526020600020905b815481529060010190602001808311611c8e57829003601f168201915b5050505050815250509050919050565b600073ffffffffffffffffffffffffffffffffffffffff16600360008473ffffffffffffffffffffffffffffffffffffffff1673ffffffffffffffffffffffffffffffffffffffff16815260200190815260200160002060030160019054906101000a900473ffffffffffffffffffffffffffffffffffffffff1673ffffffffffffffffffffffffffffffffffffffff161415611d8d576040517f08c379a0000000000000000000000000000000000000000000000000000000008152600401611d84906133f3565b60405180910390fd5b60011515600760008473ffffffffffffffffffffffffffffffffffffffff1673ffffffffffffffffffffffffffffffffffffffff16815260200190815260200160002060008373ffffffffffffffffffffffffffffffffffffffff1673ffffffffffffffffffffffffffffffffffffffff16815260200190815260200160002060009054906101000a900460ff16151514611e5d576040517f08c379a0000000000000000000000000000000000000000000000000000000008152600401611e54906133d3565b60405180910390fd5b6000600760008473ffffffffffffffffffffffffffffffffffffffff1673ffffffffffffffffffffffffffffffffffffffff16815260200190815260200160002060008373ffffffffffffffffffffffffffffffffffffffff1673ffffffffffffffffffffffffffffffffffffffff16815260200190815260200160002060006101000a81548160ff0219169083151502179055505050565b60066020528060005260406000206000915054906101000a900461ffff1681565b600073ffffffffffffffffffffffffffffffffffffffff16600360008373ffffffffffffffffffffffffffffffffffffffff1673ffffffffffffffffffffffffffffffffffffffff16815260200190815260200160002060030160019054906101000a900473ffffffffffffffffffffffffffffffffffffffff1673ffffffffffffffffffffffffffffffffffffffff161415611fe9576040517f08c379a0000000000000000000000000000000000000000000000000000000008152600401611fe0906133f3565b60405180910390fd5b6001600560008373ffffffffffffffffffffffffffffffffffffffff1673ffffffffffffffffffffffffffffffffffffffff16815260200190815260200160002060008282546120399190613666565b9250508190555050565b60056020528060005260406000206000915090505481565b60008073ffffffffffffffffffffffffffffffffffffffff16600360008473ffffffffffffffffffffffffffffffffffffffff1673ffffffffffffffffffffffffffffffffffffffff16815260200190815260200160002060030160019054906101000a900473ffffffffffffffffffffffffffffffffffffffff1673ffffffffffffffffffffffffffffffffffffffff16141561212e576040517f08c379a0000000000000000000000000000000000000000000000000000000008152600401612125906133f3565b60405180910390fd5b600460008373ffffffffffffffffffffffffffffffffffffffff1673ffffffffffffffffffffffffffffffffffffffff168152602001908152602001600020549050919050565b60036020528060005260406000206000915090508060000160009054906101000a900461ffff16908060010180546121ac9061378b565b80601f01602080910402602001604051908101604052809291908181526020018280546121d89061378b565b80156122255780601f106121fa57610100808354040283529160200191612225565b820191906000526020600020905b81548152906001019060200180831161220857829003601f168201915b50505050509080600201805461223a9061378b565b80601f01602080910402602001604051908101604052809291908181526020018280546122669061378b565b80156122b35780601f10612288576101008083540402835291602001916122b3565b820191906000526020600020905b81548152906001019060200180831161229657829003601f168201915b5050505050908060030160009054906101000a900460ff16908060030160019054906101000a900473ffffffffffffffffffffffffffffffffffffffff16908060040180546123019061378b565b80601f016020809104026020016040519081016040528092919081815260200182805461232d9061378b565b801561237a5780601f1061234f5761010080835404028352916020019161237a565b820191906000526020600020905b81548152906001019060200180831161235d57829003601f168201915b5050505050905086565b600073ffffffffffffffffffffffffffffffffffffffff16600360008473ffffffffffffffffffffffffffffffffffffffff1673ffffffffffffffffffffffffffffffffffffffff16815260200190815260200160002060030160019054906101000a900473ffffffffffffffffffffffffffffffffffffffff1673ffffffffffffffffffffffffffffffffffffffff161415612456576040517f08c379a000000000000000000000000000000000000000000000000000000000815260040161244d906133f3565b60405180910390fd5b6001600760008473ffffffffffffffffffffffffffffffffffffffff1673ffffffffffffffffffffffffffffffffffffffff16815260200190815260200160002060008373ffffffffffffffffffffffffffffffffffffffff1673ffffffffffffffffffffffffffffffffffffffff16815260200190815260200160002060006101000a81548160ff0219169083151502179055505050565b6060600060098484604051612505929190613312565b9081526020016040518091039020805490501415612558576040517f08c379a000000000000000000000000000000000000000000000000000000000815260040161254f90613413565b60405180910390fd5b60006009848460405161256c929190613312565b90815260200160405180910390208054806020026020016040519081016040528092919081815260200182805480156125fa57602002820191906000526020600020905b8160009054906101000a900473ffffffffffffffffffffffffffffffffffffffff1673ffffffffffffffffffffffffffffffffffffffff16815260200190600101908083116125b0575b505050505090506000815167ffffffffffffffff811115612644577f4e487b7100000000000000000000000000000000000000000000000000000000600052604160045260246000fd5b60405190808252806020026020018201604052801561267d57816020015b61266a612a48565b8152602001906001900390816126625790505b50905060005b82518110156129b657600360008483815181106126c9577f4e487b7100000000000000000000000000000000000000000000000000000000600052603260045260246000fd5b602002602001015173ffffffffffffffffffffffffffffffffffffffff1673ffffffffffffffffffffffffffffffffffffffff1681526020019081526020016000206040518060c00160405290816000820160009054906101000a900461ffff1661ffff1661ffff1681526020016001820180546127469061378b565b80601f01602080910402602001604051908101604052809291908181526020018280546127729061378b565b80156127bf5780601f10612794576101008083540402835291602001916127bf565b820191906000526020600020905b8154815290600101906020018083116127a257829003601f168201915b505050505081526020016002820180546127d89061378b565b80601f01602080910402602001604051908101604052809291908181526020018280546128049061378b565b80156128515780601f1061282657610100808354040283529160200191612851565b820191906000526020600020905b81548152906001019060200180831161283457829003601f168201915b505050505081526020016003820160009054906101000a900460ff1660ff1660ff1681526020016003820160019054906101000a900473ffffffffffffffffffffffffffffffffffffffff1673ffffffffffffffffffffffffffffffffffffffff1673ffffffffffffffffffffffffffffffffffffffff1681526020016004820180546128dd9061378b565b80601f01602080910402602001604051908101604052809291908181526020018280546129099061378b565b80156129565780601f1061292b57610100808354040283529160200191612956565b820191906000526020600020905b81548152906001019060200180831161293957829003601f168201915b505050505081525050828281518110612998577f4e487b7100000000000000000000000000000000000000000000000000000000600052603260045260246000fd5b602002602001018190525080806129ae90613819565b915050612683565b50809250505092915050565b8280546129ce9061378b565b90600052602060002090601f0160209004810192826129f05760008555612a37565b82601f10612a0957805160ff1916838001178555612a37565b82800160010185558215612a37579182015b82811115612a36578251825591602001919060010190612a1b565b5b509050612a449190612adb565b5090565b6040518060c00160405280600061ffff1681526020016060815260200160608152602001600060ff168152602001600073ffffffffffffffffffffffffffffffffffffffff168152602001606081525090565b508054612aa79061378b565b6000825580601f10612ab95750612ad8565b601f016020900490600052602060002090810190612ad79190612adb565b5b50565b5b80821115612af4576000816000905550600101612adc565b5090565b6000612b0b612b0684613576565b613551565b905082815260208101848484011115612b2357600080fd5b612b2e84828561371f565b509392505050565b600081359050612b45816139a4565b92915050565b60008083601f840112612b5d57600080fd5b8235905067ffffffffffffffff811115612b7657600080fd5b602083019150836001820283011115612b8e57600080fd5b9250929050565b600082601f830112612ba657600080fd5b8135612bb6848260208601612af8565b91505092915050565b600081359050612bce816139bb565b92915050565b600081359050612be3816139d2565b92915050565b600060208284031215612bfb57600080fd5b6000612c0984828501612b36565b91505092915050565b60008060408385031215612c2557600080fd5b6000612c3385828601612b36565b9250506020612c4485828601612b36565b9150509250929050565b60008060408385031215612c6157600080fd5b6000612c6f85828601612b36565b9250506020612c8085828601612bbf565b9150509250929050565b60008060208385031215612c9d57600080fd5b600083013567ffffffffffffffff811115612cb757600080fd5b612cc385828601612b4b565b92509250509250929050565b600080600080600080600060c0888a031215612cea57600080fd5b600088013567ffffffffffffffff811115612d0457600080fd5b612d108a828b01612b95565b975050602088013567ffffffffffffffff811115612d2d57600080fd5b612d398a828b01612b95565b9650506040612d4a8a828b01612bd4565b9550506060612d5b8a828b01612b36565b945050608088013567ffffffffffffffff811115612d7857600080fd5b612d848a828b01612b95565b93505060a088013567ffffffffffffffff811115612da157600080fd5b612dad8a828b01612b4b565b925092505092959891949750929550565b60008060408385031215612dd157600080fd5b600083013567ffffffffffffffff811115612deb57600080fd5b612df785828601612b95565b9250506020612e0885828601612bbf565b9150509250929050565b600060208284031215612e2457600080fd5b6000612e3284828501612bbf565b91505092915050565b6000612e47838361314d565b905092915050565b6000612e5b838361318a565b905092915050565b612e6c816136bc565b82525050565b612e7b816136bc565b82525050565b6000612e8c826135dc565b612e968185613617565b935083602082028501612ea8856135a7565b8060005b85811015612ee45784840389528151612ec58582612e3b565b9450612ed0836135fd565b925060208a01995050600181019050612eac565b50829750879550505050505092915050565b6000612f01826135e7565b612f0b8185613628565b935083602082028501612f1d856135b7565b8060005b85811015612f595784840389528151612f3a8582612e4f565b9450612f458361360a565b925060208a01995050600181019050612f21565b50829750879550505050505092915050565b612f74816136ce565b82525050565b6000612f86838561365b565b9350612f9383858461371f565b82840190509392505050565b6000612faa826135f2565b612fb48185613639565b9350612fc481856020860161372e565b612fcd816138ef565b840191505092915050565b6000612fe3826135f2565b612fed818561364a565b9350612ffd81856020860161372e565b613006816138ef565b840191505092915050565b600061301c826135f2565b613026818561365b565b935061303681856020860161372e565b80840191505092915050565b6000815461304f8161378b565b613059818661365b565b945060018216600081146130745760018114613085576130b8565b60ff198316865281860193506130b8565b61308e856135c7565b60005b838110156130b057815481890152600182019150602081019050613091565b838801955050505b50505092915050565b60006130ce60178361364a565b91506130d982613900565b602082019050919050565b60006130f160138361364a565b91506130fc82613929565b602082019050919050565b600061311460108361364a565b915061311f82613952565b602082019050919050565b6000613137601a8361364a565b91506131428261397b565b602082019050919050565b600060408301600083015161316560008601826132d6565b506020830151848203602086015261317d8282612f9f565b9150508091505092915050565b600060c0830160008301516131a260008601826132b8565b50602083015184820360208601526131ba8282612f9f565b915050604083015184820360408601526131d48282612f9f565b91505060608301516131e960608601826132f4565b5060808301516131fc6080860182612e63565b5060a083015184820360a08601526132148282612f9f565b9150508091505092915050565b600060c08301600083015161323960008601826132b8565b50602083015184820360208601526132518282612f9f565b9150506040830151848203604086015261326b8282612f9f565b915050606083015161328060608601826132f4565b5060808301516132936080860182612e63565b5060a083015184820360a08601526132ab8282612f9f565b9150508091505092915050565b6132c1816136da565b82525050565b6132d0816136da565b82525050565b6132df81613708565b82525050565b6132ee81613708565b82525050565b6132fd81613712565b82525050565b61330c81613712565b82525050565b600061331f828486612f7a565b91508190509392505050565b60006133378284613011565b915081905092915050565b600061334e8284613042565b915081905092915050565b600060208201905061336e6000830184612e72565b92915050565b6000602082019050818103600083015261338e8184612e81565b905092915050565b600060208201905081810360008301526133b08184612ef6565b905092915050565b60006020820190506133cd6000830184612f6b565b92915050565b600060208201905081810360008301526133ec816130c1565b9050919050565b6000602082019050818103600083015261340c816130e4565b9050919050565b6000602082019050818103600083015261342c81613107565b9050919050565b6000602082019050818103600083015261344c8161312a565b9050919050565b6000602082019050818103600083015261346d8184613221565b905092915050565b600060208201905061348a60008301846132c7565b92915050565b600060c0820190506134a560008301896132c7565b81810360208301526134b78188612fd8565b905081810360408301526134cb8187612fd8565b90506134da6060830186613303565b6134e76080830185612e72565b81810360a08301526134f98184612fd8565b9050979650505050505050565b600060208201905061351b60008301846132e5565b92915050565b600060408201905061353660008301856132e5565b81810360208301526135488184612fd8565b90509392505050565b600061355b61356c565b905061356782826137bd565b919050565b6000604051905090565b600067ffffffffffffffff821115613591576135906138c0565b5b61359a826138ef565b9050602081019050919050565b6000819050602082019050919050565b6000819050602082019050919050565b60008190508160005260206000209050919050565b600081519050919050565b600081519050919050565b600081519050919050565b6000602082019050919050565b6000602082019050919050565b600082825260208201905092915050565b600082825260208201905092915050565b600082825260208201905092915050565b600082825260208201905092915050565b600081905092915050565b600061367182613708565b915061367c83613708565b9250827fffffffffffffffffffffffffffffffffffffffffffffffffffffffffffffffff038211156136b1576136b0613862565b5b828201905092915050565b60006136c7826136e8565b9050919050565b60008115159050919050565b600061ffff82169050919050565b600073ffffffffffffffffffffffffffffffffffffffff82169050919050565b6000819050919050565b600060ff82169050919050565b82818337600083830152505050565b60005b8381101561374c578082015181840152602081019050613731565b8381111561375b576000848401525b50505050565b600061376c826136da565b915060008214156137805761377f613862565b5b600182039050919050565b600060028204905060018216806137a357607f821691505b602082108114156137b7576137b6613891565b5b50919050565b6137c6826138ef565b810181811067ffffffffffffffff821117156137e5576137e46138c0565b5b80604052505050565b60006137f9826136da565b915061ffff82141561380e5761380d613862565b5b600182019050919050565b600061382482613708565b91507fffffffffffffffffffffffffffffffffffffffffffffffffffffffffffffffff82141561385757613856613862565b5b600182019050919050565b7f4e487b7100000000000000000000000000000000000000000000000000000000600052601160045260246000fd5b7f4e487b7100000000000000000000000000000000000000000000000000000000600052602260045260246000fd5b7f4e487b7100000000000000000000000000000000000000000000000000000000600052604160045260246000fd5b6000601f19601f8301169050919050565b7f41646472657373206973206e6f7420616e2061646d696e000000000000000000600082015250565b7f4461707020646f6573206e6f7420657869737400000000000000000000000000600082015250565b7f496e76616c69642063617465676f727900000000000000000000000000000000600082015250565b7f416464726573732073686f756c64206e6f74206265207a65726f000000000000600082015250565b6139ad816136bc565b81146139b857600080fd5b50565b6139c481613708565b81146139cf57600080fd5b50565b6139db81613712565b81146139e657600080fd5b5056fea26469706673582212208387dbdcdfeecf7d93116c1c5891112db1242302e7414bc867aa8e03aba4b15e64736f6c63430008040033",
  "linkReferences": {},
  "deployedLinkReferences": {}
}