{
  "_format": "hh-sol-artifact-1",
  "contractName": "CheddaMarketExplorer",
  "sourceName": "contracts/market/CheddaMarketExplorer.sol",
  "abi": [
    {
      "inputs": [
        {
          "internalType": "uint256",
          "name": "",
          "type": "uint256"
        }
      ],
      "name": "allItems",
      "outputs": [
        {
          "internalType": "address",
          "name": "nftContract",
          "type": "address"
        },
        {
          "internalType": "uint256",
          "name": "tokenID",
          "type": "uint256"
        },
        {
          "internalType": "string",
          "name": "tokenURI",
          "type": "string"
        },
        {
          "internalType": "uint256",
          "name": "price",
          "type": "uint256"
        },
        {
          "internalType": "uint256",
          "name": "listingTime",
          "type": "uint256"
        }
      ],
      "stateMutability": "view",
      "type": "function"
    },
    {
      "inputs": [
        {
          "internalType": "address",
          "name": "",
          "type": "address"
        },
        {
          "internalType": "uint256",
          "name": "",
          "type": "uint256"
        }
      ],
      "name": "collectionItems",
      "outputs": [
        {
          "internalType": "address",
          "name": "nftContract",
          "type": "address"
        },
        {
          "internalType": "uint256",
          "name": "tokenID",
          "type": "uint256"
        },
        {
          "internalType": "string",
          "name": "tokenURI",
          "type": "string"
        },
        {
          "internalType": "uint256",
          "name": "price",
          "type": "uint256"
        },
        {
          "internalType": "uint256",
          "name": "listingTime",
          "type": "uint256"
        }
      ],
      "stateMutability": "view",
      "type": "function"
    },
    {
      "inputs": [
        {
          "internalType": "uint256",
          "name": "",
          "type": "uint256"
        }
      ],
      "name": "collectionList",
      "outputs": [
        {
          "internalType": "address",
          "name": "",
          "type": "address"
        }
      ],
      "stateMutability": "view",
      "type": "function"
    },
    {
      "inputs": [
        {
          "internalType": "address",
          "name": "",
          "type": "address"
        }
      ],
      "name": "collections",
      "outputs": [
        {
          "internalType": "address",
          "name": "nftContract",
          "type": "address"
        },
        {
          "internalType": "string",
          "name": "metadataURI",
          "type": "string"
        },
        {
          "internalType": "bool",
          "name": "exists",
          "type": "bool"
        }
      ],
      "stateMutability": "view",
      "type": "function"
    },
    {
      "inputs": [
        {
          "internalType": "uint256",
          "name": "",
          "type": "uint256"
        }
      ],
      "name": "dailyVolume",
      "outputs": [
        {
          "internalType": "uint256",
          "name": "",
          "type": "uint256"
        }
      ],
      "stateMutability": "view",
      "type": "function"
    },
    {
      "inputs": [
        {
          "internalType": "address",
          "name": "",
          "type": "address"
        }
      ],
      "name": "dislikes",
      "outputs": [
        {
          "internalType": "uint256",
          "name": "",
          "type": "uint256"
        }
      ],
      "stateMutability": "view",
      "type": "function"
    },
    {
      "inputs": [],
      "name": "getAllItems",
      "outputs": [
        {
          "components": [
            {
              "internalType": "address",
              "name": "nftContract",
              "type": "address"
            },
            {
              "internalType": "uint256",
              "name": "tokenID",
              "type": "uint256"
            },
            {
              "internalType": "string",
              "name": "tokenURI",
              "type": "string"
            },
            {
              "internalType": "uint256",
              "name": "price",
              "type": "uint256"
            },
            {
              "internalType": "uint256",
              "name": "listingTime",
              "type": "uint256"
            }
          ],
          "internalType": "struct CheddaMarketExplorer.MarketItem[]",
          "name": "",
          "type": "tuple[]"
        }
      ],
      "stateMutability": "view",
      "type": "function"
    },
    {
      "inputs": [
        {
          "internalType": "address",
          "name": "nftContract",
          "type": "address"
        }
      ],
      "name": "getCollectionDetails",
      "outputs": [
        {
          "components": [
            {
              "internalType": "address",
              "name": "nftContract",
              "type": "address"
            },
            {
              "internalType": "string",
              "name": "metadataURI",
              "type": "string"
            },
            {
              "internalType": "bool",
              "name": "exists",
              "type": "bool"
            }
          ],
          "internalType": "struct CheddaMarketExplorer.Collection",
          "name": "",
          "type": "tuple"
        }
      ],
      "stateMutability": "view",
      "type": "function"
    },
    {
      "inputs": [],
      "name": "getCollections",
      "outputs": [
        {
          "components": [
            {
              "internalType": "address",
              "name": "nftContract",
              "type": "address"
            },
            {
              "internalType": "string",
              "name": "metadataURI",
              "type": "string"
            },
            {
              "internalType": "bool",
              "name": "exists",
              "type": "bool"
            }
          ],
          "internalType": "struct CheddaMarketExplorer.Collection[]",
          "name": "",
          "type": "tuple[]"
        }
      ],
      "stateMutability": "view",
      "type": "function"
    },
    {
      "inputs": [
        {
          "internalType": "address",
          "name": "nftContract",
          "type": "address"
        },
        {
          "internalType": "uint256",
          "name": "tokenID",
          "type": "uint256"
        }
      ],
      "name": "getMarketItem",
      "outputs": [
        {
          "components": [
            {
              "internalType": "address",
              "name": "nftContract",
              "type": "address"
            },
            {
              "internalType": "uint256",
              "name": "tokenID",
              "type": "uint256"
            },
            {
              "internalType": "string",
              "name": "tokenURI",
              "type": "string"
            },
            {
              "internalType": "uint256",
              "name": "price",
              "type": "uint256"
            },
            {
              "internalType": "uint256",
              "name": "listingTime",
              "type": "uint256"
            }
          ],
          "internalType": "struct CheddaMarketExplorer.MarketItem",
          "name": "",
          "type": "tuple"
        }
      ],
      "stateMutability": "view",
      "type": "function"
    },
    {
      "inputs": [
        {
          "internalType": "address",
          "name": "nftContract",
          "type": "address"
        },
        {
          "internalType": "uint256",
          "name": "tokenID",
          "type": "uint256"
        }
      ],
      "name": "getNFTDetails",
      "outputs": [
        {
          "components": [
            {
              "internalType": "address",
              "name": "nftContract",
              "type": "address"
            },
            {
              "internalType": "uint256",
              "name": "tokenID",
              "type": "uint256"
            },
            {
              "internalType": "string",
              "name": "tokenURI",
              "type": "string"
            }
          ],
          "internalType": "struct CheddaMarketExplorer.NFTDetails",
          "name": "",
          "type": "tuple"
        }
      ],
      "stateMutability": "view",
      "type": "function"
    },
    {
      "inputs": [
        {
          "internalType": "address",
          "name": "nftContract",
          "type": "address"
        }
      ],
      "name": "itemsInCollection",
      "outputs": [
        {
          "components": [
            {
              "internalType": "address",
              "name": "nftContract",
              "type": "address"
            },
            {
              "internalType": "uint256",
              "name": "tokenID",
              "type": "uint256"
            },
            {
              "internalType": "string",
              "name": "tokenURI",
              "type": "string"
            },
            {
              "internalType": "uint256",
              "name": "price",
              "type": "uint256"
            },
            {
              "internalType": "uint256",
              "name": "listingTime",
              "type": "uint256"
            }
          ],
          "internalType": "struct CheddaMarketExplorer.MarketItem[]",
          "name": "",
          "type": "tuple[]"
        }
      ],
      "stateMutability": "view",
      "type": "function"
    },
    {
      "inputs": [
        {
          "internalType": "address",
          "name": "",
          "type": "address"
        }
      ],
      "name": "likes",
      "outputs": [
        {
          "internalType": "uint256",
          "name": "",
          "type": "uint256"
        }
      ],
      "stateMutability": "view",
      "type": "function"
    },
    {
      "inputs": [
        {
          "internalType": "uint256",
          "name": "time",
          "type": "uint256"
        }
      ],
      "name": "newlyListed",
      "outputs": [
        {
          "components": [
            {
              "internalType": "address",
              "name": "nftContract",
              "type": "address"
            },
            {
              "internalType": "uint256",
              "name": "tokenID",
              "type": "uint256"
            },
            {
              "internalType": "string",
              "name": "tokenURI",
              "type": "string"
            },
            {
              "internalType": "uint256",
              "name": "price",
              "type": "uint256"
            },
            {
              "internalType": "uint256",
              "name": "listingTime",
              "type": "uint256"
            }
          ],
          "internalType": "struct CheddaMarketExplorer.MarketItem[]",
          "name": "",
          "type": "tuple[]"
        }
      ],
      "stateMutability": "view",
      "type": "function"
    },
    {
      "inputs": [],
      "name": "popularItems",
      "outputs": [],
      "stateMutability": "view",
      "type": "function"
    },
    {
      "inputs": [
        {
          "internalType": "address",
          "name": "nftContract",
          "type": "address"
        },
        {
          "internalType": "uint256",
          "name": "tokenId",
          "type": "uint256"
        },
        {
          "internalType": "uint256",
          "name": "price",
          "type": "uint256"
        }
      ],
      "name": "reportListing",
      "outputs": [],
      "stateMutability": "nonpayable",
      "type": "function"
    },
    {
      "inputs": [
        {
          "internalType": "address",
          "name": "nftContract",
          "type": "address"
        },
        {
          "internalType": "uint256",
          "name": "tokenId",
          "type": "uint256"
        }
      ],
      "name": "reportMarketSale",
      "outputs": [],
      "stateMutability": "nonpayable",
      "type": "function"
    },
    {
      "inputs": [
        {
          "internalType": "uint256",
          "name": "",
          "type": "uint256"
        },
        {
          "internalType": "uint256",
          "name": "",
          "type": "uint256"
        }
      ],
      "name": "trades",
      "outputs": [
        {
          "internalType": "address",
          "name": "nftContract",
          "type": "address"
        },
        {
          "internalType": "uint256",
          "name": "tokenId",
          "type": "uint256"
        },
        {
          "internalType": "uint256",
          "name": "price",
          "type": "uint256"
        }
      ],
      "stateMutability": "view",
      "type": "function"
    }
  ],
  "bytecode": "0x608060405234801561001057600080fd5b50612a5c806100206000396000f3fe608060405234801561001057600080fd5b50600436106101165760003560e01c8063903cb26b116100a2578063b3e3626711610071578063b3e3626714610331578063b952195014610361578063bf95372e14610391578063f802e3f1146103ad578063ff68fa6e146103e157610116565b8063903cb26b14610297578063943ca3b9146102c757806398e9bc9c146102f75780639c74109a1461032757610116565b806346e63586116100e957806346e63586146101df5780634ba1d6aa146101fd5780636e4d50771461021b578063737d368514610237578063752d121c1461026757610116565b806311cda15f1461011b5780632a7beacc1461014b57806334deb86d1461017d57806343add2e6146101ad575b600080fd5b61013560048036038101906101309190611ed9565b610415565b6040516101429190612577565b60405180910390f35b61016560048036038101906101609190612020565b6105b9565b6040516101749392919061251e565b60405180910390f35b61019760048036038101906101929190611ed9565b610620565b6040516101a491906125f4565b60405180910390f35b6101c760048036038101906101c29190611ed9565b61077c565b6040516101d693929190612486565b60405180910390f35b6101e761085b565b6040516101f49190612555565b60405180910390f35b610205610b0c565b6040516102129190612577565b60405180910390f35b61023560048036038101906102309190611f02565b610c71565b005b610251600480360381019061024c9190611ed9565b610f86565b60405161025e919061265a565b60405180910390f35b610281600480360381019061027c9190611ff7565b610f9e565b60405161028e919061246b565b60405180910390f35b6102b160048036038101906102ac9190611f02565b610fdd565b6040516102be9190612616565b60405180910390f35b6102e160048036038101906102dc9190611ff7565b61133a565b6040516102ee919061265a565b60405180910390f35b610311600480360381019061030c9190611f02565b611352565b60405161031e9190612638565b60405180910390f35b61032f61147a565b005b61034b60048036038101906103469190611ed9565b61147c565b604051610358919061265a565b60405180910390f35b61037b60048036038101906103769190611ff7565b611494565b6040516103889190612577565b60405180910390f35b6103ab60048036038101906103a69190611f3e565b61149b565b005b6103c760048036038101906103c29190611f02565b61198b565b6040516103d89594939291906124c4565b60405180910390f35b6103fb60048036038101906103f69190611ff7565b611a86565b60405161040c9594939291906124c4565b60405180910390f35b6060600760008373ffffffffffffffffffffffffffffffffffffffff1673ffffffffffffffffffffffffffffffffffffffff168152602001908152602001600020805480602002602001604051908101604052809291908181526020016000905b828210156105ae57838290600052602060002090600502016040518060a00160405290816000820160009054906101000a900473ffffffffffffffffffffffffffffffffffffffff1673ffffffffffffffffffffffffffffffffffffffff1673ffffffffffffffffffffffffffffffffffffffff1681526020016001820154815260200160028201805461050990612845565b80601f016020809104026020016040519081016040528092919081815260200182805461053590612845565b80156105825780601f1061055757610100808354040283529160200191610582565b820191906000526020600020905b81548152906001019060200180831161056557829003601f168201915b505050505081526020016003820154815260200160048201548152505081526020019060010190610476565b505050509050919050565b600160205281600052604060002081815481106105d557600080fd5b9060005260206000209060030201600091509150508060000160009054906101000a900473ffffffffffffffffffffffffffffffffffffffff16908060010154908060020154905083565b610628611c0d565b600560008373ffffffffffffffffffffffffffffffffffffffff1673ffffffffffffffffffffffffffffffffffffffff1681526020019081526020016000206040518060600160405290816000820160009054906101000a900473ffffffffffffffffffffffffffffffffffffffff1673ffffffffffffffffffffffffffffffffffffffff1673ffffffffffffffffffffffffffffffffffffffff1681526020016001820180546106d890612845565b80601f016020809104026020016040519081016040528092919081815260200182805461070490612845565b80156107515780601f1061072657610100808354040283529160200191610751565b820191906000526020600020905b81548152906001019060200180831161073457829003601f168201915b505050505081526020016002820160009054906101000a900460ff1615151515815250509050919050565b60056020528060005260406000206000915090508060000160009054906101000a900473ffffffffffffffffffffffffffffffffffffffff16908060010180546107c590612845565b80601f01602080910402602001604051908101604052809291908181526020018280546107f190612845565b801561083e5780601f106108135761010080835404028352916020019161083e565b820191906000526020600020905b81548152906001019060200180831161082157829003601f168201915b5050505050908060020160009054906101000a900460ff16905083565b6060600060068054905067ffffffffffffffff8111156108a4577f4e487b7100000000000000000000000000000000000000000000000000000000600052604160045260246000fd5b6040519080825280602002602001820160405280156108dd57816020015b6108ca611c0d565b8152602001906001900390816108c25790505b50905060005b600680549050811015610b045760006006828154811061092c577f4e487b7100000000000000000000000000000000000000000000000000000000600052603260045260246000fd5b9060005260206000200160009054906101000a900473ffffffffffffffffffffffffffffffffffffffff1690506000600560008373ffffffffffffffffffffffffffffffffffffffff1673ffffffffffffffffffffffffffffffffffffffff1681526020019081526020016000206040518060600160405290816000820160009054906101000a900473ffffffffffffffffffffffffffffffffffffffff1673ffffffffffffffffffffffffffffffffffffffff1673ffffffffffffffffffffffffffffffffffffffff168152602001600182018054610a0b90612845565b80601f0160208091040260200160405190810160405280929190818152602001828054610a3790612845565b8015610a845780601f10610a5957610100808354040283529160200191610a84565b820191906000526020600020905b815481529060010190602001808311610a6757829003601f168201915b505050505081526020016002820160009054906101000a900460ff161515151581525050905080848481518110610ae4577f4e487b7100000000000000000000000000000000000000000000000000000000600052603260045260246000fd5b602002602001018190525050508080610afc906128a8565b9150506108e3565b508091505090565b60606004805480602002602001604051908101604052809291908181526020016000905b82821015610c6857838290600052602060002090600502016040518060a00160405290816000820160009054906101000a900473ffffffffffffffffffffffffffffffffffffffff1673ffffffffffffffffffffffffffffffffffffffff1673ffffffffffffffffffffffffffffffffffffffff16815260200160018201548152602001600282018054610bc390612845565b80601f0160208091040260200160405190810160405280929190818152602001828054610bef90612845565b8015610c3c5780601f10610c1157610100808354040283529160200191610c3c565b820191906000526020600020905b815481529060010190602001808311610c1f57829003601f168201915b505050505081526020016003820154815260200160048201548152505081526020019060010190610b30565b50505050905090565b6000805b600480549050811015610d8e578373ffffffffffffffffffffffffffffffffffffffff1660048281548110610cd3577f4e487b7100000000000000000000000000000000000000000000000000000000600052603260045260246000fd5b906000526020600020906005020160000160009054906101000a900473ffffffffffffffffffffffffffffffffffffffff1673ffffffffffffffffffffffffffffffffffffffff16148015610d7257508260048281548110610d5e577f4e487b7100000000000000000000000000000000000000000000000000000000600052603260045260246000fd5b906000526020600020906005020160010154145b15610d7b578091505b8080610d86906128a8565b915050610c75565b5060008114610f815760046001600480549050610dab919061276a565b81548110610de2577f4e487b7100000000000000000000000000000000000000000000000000000000600052603260045260246000fd5b906000526020600020906005020160048281548110610e2a577f4e487b7100000000000000000000000000000000000000000000000000000000600052603260045260246000fd5b90600052602060002090600502016000820160009054906101000a900473ffffffffffffffffffffffffffffffffffffffff168160000160006101000a81548173ffffffffffffffffffffffffffffffffffffffff021916908373ffffffffffffffffffffffffffffffffffffffff160217905550600182015481600101556002820181600201908054610ebd90612845565b610ec8929190611c46565b5060038201548160030155600482015481600401559050506004805480610f18577f4e487b7100000000000000000000000000000000000000000000000000000000600052603160045260246000fd5b6001900381819060005260206000209060050201600080820160006101000a81549073ffffffffffffffffffffffffffffffffffffffff02191690556001820160009055600282016000610f6c9190611cd3565b60038201600090556004820160009055505090555b505050565b60026020528060005260406000206000915090505481565b60068181548110610fae57600080fd5b906000526020600020016000915054906101000a900473ffffffffffffffffffffffffffffffffffffffff1681565b610fe5611d13565b6000600760008573ffffffffffffffffffffffffffffffffffffffff1673ffffffffffffffffffffffffffffffffffffffff168152602001908152602001600020805490501161106a576040517f08c379a0000000000000000000000000000000000000000000000000000000008152600401611061906125b4565b60405180910390fd5b60005b600760008573ffffffffffffffffffffffffffffffffffffffff1673ffffffffffffffffffffffffffffffffffffffff168152602001908152602001600020805490508110156112f85782600760008673ffffffffffffffffffffffffffffffffffffffff1673ffffffffffffffffffffffffffffffffffffffff168152602001908152602001600020828154811061112f577f4e487b7100000000000000000000000000000000000000000000000000000000600052603260045260246000fd5b90600052602060002090600502016001015414156112e557600760008573ffffffffffffffffffffffffffffffffffffffff1673ffffffffffffffffffffffffffffffffffffffff16815260200190815260200160002081815481106111be577f4e487b7100000000000000000000000000000000000000000000000000000000600052603260045260246000fd5b90600052602060002090600502016040518060a00160405290816000820160009054906101000a900473ffffffffffffffffffffffffffffffffffffffff1673ffffffffffffffffffffffffffffffffffffffff1673ffffffffffffffffffffffffffffffffffffffff1681526020016001820154815260200160028201805461124790612845565b80601f016020809104026020016040519081016040528092919081815260200182805461127390612845565b80156112c05780601f10611295576101008083540402835291602001916112c0565b820191906000526020600020905b8154815290600101906020018083116112a357829003601f168201915b5050505050815260200160038201548152602001600482015481525050915050611334565b80806112f0906128a8565b91505061106d565b506040517f08c379a000000000000000000000000000000000000000000000000000000000815260040161132b906125b4565b60405180910390fd5b92915050565b60006020528060005260406000206000915090505481565b61135a611d58565b61136383611b74565b1561143957600083905060008173ffffffffffffffffffffffffffffffffffffffff1663c87b56dd856040518263ffffffff1660e01b81526004016113a8919061265a565b60006040518083038186803b1580156113c057600080fd5b505afa1580156113d4573d6000803e3d6000fd5b505050506040513d6000823e3d601f19601f820116820180604052508101906113fd9190611fb6565b905060405180606001604052808673ffffffffffffffffffffffffffffffffffffffff1681526020018581526020018281525092505050611474565b6040517f08c379a000000000000000000000000000000000000000000000000000000000815260040161146b906125d4565b60405180910390fd5b92915050565b565b60036020528060005260406000206000915090505481565b6060919050565b60006040518060200160405280600081525090506114b884611b74565b156115545760008490508073ffffffffffffffffffffffffffffffffffffffff1663c87b56dd856040518263ffffffff1660e01b81526004016114fb919061265a565b60006040518083038186803b15801561151357600080fd5b505afa158015611527573d6000803e3d6000fd5b505050506040513d6000823e3d601f19601f820116820180604052508101906115509190611fb6565b9150505b60006040518060a001604052808673ffffffffffffffffffffffffffffffffffffffff168152602001858152602001838152602001848152602001428152509050600481908060018154018082558091505060019003906000526020600020906005020160009091909190915060008201518160000160006101000a81548173ffffffffffffffffffffffffffffffffffffffff021916908373ffffffffffffffffffffffffffffffffffffffff16021790555060208201518160010155604082015181600201908051906020019061162e929190611d8f565b5060608201518160030155608082015181600401555050600560008673ffffffffffffffffffffffffffffffffffffffff1673ffffffffffffffffffffffffffffffffffffffff16815260200190815260200160002060020160009054906101000a900460ff1661189757600060405180602001604052806000815250905060008690508073ffffffffffffffffffffffffffffffffffffffff166303ee438c6040518163ffffffff1660e01b815260040160006040518083038186803b1580156116f857600080fd5b505afa15801561170c573d6000803e3d6000fd5b505050506040513d6000823e3d601f19601f820116820180604052508101906117359190611fb6565b915060405180606001604052808873ffffffffffffffffffffffffffffffffffffffff16815260200183815260200160011515815250600560008973ffffffffffffffffffffffffffffffffffffffff1673ffffffffffffffffffffffffffffffffffffffff16815260200190815260200160002060008201518160000160006101000a81548173ffffffffffffffffffffffffffffffffffffffff021916908373ffffffffffffffffffffffffffffffffffffffff160217905550602082015181600101908051906020019061180d929190611d8f565b5060408201518160020160006101000a81548160ff0219169083151502179055509050506006879080600181540180825580915050600190039060005260206000200160009091909190916101000a81548173ffffffffffffffffffffffffffffffffffffffff021916908373ffffffffffffffffffffffffffffffffffffffff16021790555050505b600760008673ffffffffffffffffffffffffffffffffffffffff1673ffffffffffffffffffffffffffffffffffffffff16815260200190815260200160002081908060018154018082558091505060019003906000526020600020906005020160009091909190915060008201518160000160006101000a81548173ffffffffffffffffffffffffffffffffffffffff021916908373ffffffffffffffffffffffffffffffffffffffff16021790555060208201518160010155604082015181600201908051906020019061196d929190611d8f565b50606082015181600301556080820151816004015550505050505050565b600760205281600052604060002081815481106119a757600080fd5b9060005260206000209060050201600091509150508060000160009054906101000a900473ffffffffffffffffffffffffffffffffffffffff16908060010154908060020180546119f790612845565b80601f0160208091040260200160405190810160405280929190818152602001828054611a2390612845565b8015611a705780601f10611a4557610100808354040283529160200191611a70565b820191906000526020600020905b815481529060010190602001808311611a5357829003601f168201915b5050505050908060030154908060040154905085565b60048181548110611a9657600080fd5b90600052602060002090600502016000915090508060000160009054906101000a900473ffffffffffffffffffffffffffffffffffffffff1690806001015490806002018054611ae590612845565b80601f0160208091040260200160405190810160405280929190818152602001828054611b1190612845565b8015611b5e5780601f10611b3357610100808354040283529160200191611b5e565b820191906000526020600020905b815481529060010190602001808311611b4157829003601f168201915b5050505050908060030154908060040154905085565b60008173ffffffffffffffffffffffffffffffffffffffff166301ffc9a7635b5e139f60e01b6040518263ffffffff1660e01b8152600401611bb69190612599565b60206040518083038186803b158015611bce57600080fd5b505afa158015611be2573d6000803e3d6000fd5b505050506040513d601f19601f82011682018060405250810190611c069190611f8d565b9050919050565b6040518060600160405280600073ffffffffffffffffffffffffffffffffffffffff168152602001606081526020016000151581525090565b828054611c5290612845565b90600052602060002090601f016020900481019282611c745760008555611cc2565b82601f10611c855780548555611cc2565b82800160010185558215611cc257600052602060002091601f016020900482015b82811115611cc1578254825591600101919060010190611ca6565b5b509050611ccf9190611e15565b5090565b508054611cdf90612845565b6000825580601f10611cf15750611d10565b601f016020900490600052602060002090810190611d0f9190611e15565b5b50565b6040518060a00160405280600073ffffffffffffffffffffffffffffffffffffffff168152602001600081526020016060815260200160008152602001600081525090565b6040518060600160405280600073ffffffffffffffffffffffffffffffffffffffff16815260200160008152602001606081525090565b828054611d9b90612845565b90600052602060002090601f016020900481019282611dbd5760008555611e04565b82601f10611dd657805160ff1916838001178555611e04565b82800160010185558215611e04579182015b82811115611e03578251825591602001919060010190611de8565b5b509050611e119190611e15565b5090565b5b80821115611e2e576000816000905550600101611e16565b5090565b6000611e45611e408461269a565b612675565b905082815260208101848484011115611e5d57600080fd5b611e68848285612812565b509392505050565b600081359050611e7f816129e1565b92915050565b600081519050611e94816129f8565b92915050565b600082601f830112611eab57600080fd5b8151611ebb848260208601611e32565b91505092915050565b600081359050611ed381612a0f565b92915050565b600060208284031215611eeb57600080fd5b6000611ef984828501611e70565b91505092915050565b60008060408385031215611f1557600080fd5b6000611f2385828601611e70565b9250506020611f3485828601611ec4565b9150509250929050565b600080600060608486031215611f5357600080fd5b6000611f6186828701611e70565b9350506020611f7286828701611ec4565b9250506040611f8386828701611ec4565b9150509250925092565b600060208284031215611f9f57600080fd5b6000611fad84828501611e85565b91505092915050565b600060208284031215611fc857600080fd5b600082015167ffffffffffffffff811115611fe257600080fd5b611fee84828501611e9a565b91505092915050565b60006020828403121561200957600080fd5b600061201784828501611ec4565b91505092915050565b6000806040838503121561203357600080fd5b600061204185828601611ec4565b925050602061205285828601611ec4565b9150509250929050565b60006120688383612271565b905092915050565b600061207c8383612311565b905092915050565b61208d8161279e565b82525050565b61209c8161279e565b82525050565b60006120ad826126eb565b6120b78185612726565b9350836020820285016120c9856126cb565b8060005b8581101561210557848403895281516120e6858261205c565b94506120f18361270c565b925060208a019950506001810190506120cd565b50829750879550505050505092915050565b6000612122826126f6565b61212c8185612737565b93508360208202850161213e856126db565b8060005b8581101561217a578484038952815161215b8582612070565b945061216683612719565b925060208a01995050600181019050612142565b50829750879550505050505092915050565b612195816127b0565b82525050565b6121a4816127b0565b82525050565b6121b3816127bc565b82525050565b60006121c482612701565b6121ce8185612748565b93506121de818560208601612812565b6121e78161297e565b840191505092915050565b60006121fd82612701565b6122078185612759565b9350612217818560208601612812565b6122208161297e565b840191505092915050565b6000612238600e83612759565b91506122438261298f565b602082019050919050565b600061225b601083612759565b9150612266826129b8565b602082019050919050565b60006060830160008301516122896000860182612084565b50602083015184820360208601526122a182826121b9565b91505060408301516122b6604086018261218c565b508091505092915050565b60006060830160008301516122d96000860182612084565b50602083015184820360208601526122f182826121b9565b9150506040830151612306604086018261218c565b508091505092915050565b600060a0830160008301516123296000860182612084565b50602083015161233c602086018261244d565b506040830151848203604086015261235482826121b9565b9150506060830151612369606086018261244d565b50608083015161237c608086018261244d565b508091505092915050565b600060a08301600083015161239f6000860182612084565b5060208301516123b2602086018261244d565b50604083015184820360408601526123ca82826121b9565b91505060608301516123df606086018261244d565b5060808301516123f2608086018261244d565b508091505092915050565b60006060830160008301516124156000860182612084565b506020830151612428602086018261244d565b506040830151848203604086015261244082826121b9565b9150508091505092915050565b61245681612808565b82525050565b61246581612808565b82525050565b60006020820190506124806000830184612093565b92915050565b600060608201905061249b6000830186612093565b81810360208301526124ad81856121f2565b90506124bc604083018461219b565b949350505050565b600060a0820190506124d96000830188612093565b6124e6602083018761245c565b81810360408301526124f881866121f2565b9050612507606083018561245c565b612514608083018461245c565b9695505050505050565b60006060820190506125336000830186612093565b612540602083018561245c565b61254d604083018461245c565b949350505050565b6000602082019050818103600083015261256f81846120a2565b905092915050565b600060208201905081810360008301526125918184612117565b905092915050565b60006020820190506125ae60008301846121aa565b92915050565b600060208201905081810360008301526125cd8161222b565b9050919050565b600060208201905081810360008301526125ed8161224e565b9050919050565b6000602082019050818103600083015261260e81846122c1565b905092915050565b600060208201905081810360008301526126308184612387565b905092915050565b6000602082019050818103600083015261265281846123fd565b905092915050565b600060208201905061266f600083018461245c565b92915050565b600061267f612690565b905061268b8282612877565b919050565b6000604051905090565b600067ffffffffffffffff8211156126b5576126b461294f565b5b6126be8261297e565b9050602081019050919050565b6000819050602082019050919050565b6000819050602082019050919050565b600081519050919050565b600081519050919050565b600081519050919050565b6000602082019050919050565b6000602082019050919050565b600082825260208201905092915050565b600082825260208201905092915050565b600082825260208201905092915050565b600082825260208201905092915050565b600061277582612808565b915061278083612808565b925082821015612793576127926128f1565b5b828203905092915050565b60006127a9826127e8565b9050919050565b60008115159050919050565b60007fffffffff0000000000000000000000000000000000000000000000000000000082169050919050565b600073ffffffffffffffffffffffffffffffffffffffff82169050919050565b6000819050919050565b60005b83811015612830578082015181840152602081019050612815565b8381111561283f576000848401525b50505050565b6000600282049050600182168061285d57607f821691505b6020821081141561287157612870612920565b5b50919050565b6128808261297e565b810181811067ffffffffffffffff8211171561289f5761289e61294f565b5b80604052505050565b60006128b382612808565b91507fffffffffffffffffffffffffffffffffffffffffffffffffffffffffffffffff8214156128e6576128e56128f1565b5b600182019050919050565b7f4e487b7100000000000000000000000000000000000000000000000000000000600052601160045260246000fd5b7f4e487b7100000000000000000000000000000000000000000000000000000000600052602260045260246000fd5b7f4e487b7100000000000000000000000000000000000000000000000000000000600052604160045260246000fd5b6000601f19601f8301169050919050565b7f4974656d206e6f7420666f756e64000000000000000000000000000000000000600082015250565b7f496e76616c696420746f6b656e20494400000000000000000000000000000000600082015250565b6129ea8161279e565b81146129f557600080fd5b50565b612a01816127b0565b8114612a0c57600080fd5b50565b612a1881612808565b8114612a2357600080fd5b5056fea26469706673582212208c77506ec8518f4d590f74af6c20d581c8cb5f2ffdbd53759e8537b483d473ef64736f6c63430008040033",
  "linkReferences": {},
  "deployedLinkReferences": {}
}