{
  "_format": "hh-sol-artifact-1",
  "contractName": "CheddaDappExplorer",
  "sourceName": "contracts/dappstore/CheddaDappExplorer.sol",
  "abi": [
    {
      "anonymous": false,
      "inputs": [
        {
          "indexed": true,
          "internalType": "address",
          "name": "previousOwner",
          "type": "address"
        },
        {
          "indexed": true,
          "internalType": "address",
          "name": "newOwner",
          "type": "address"
        }
      ],
      "name": "OwnershipTransferred",
      "type": "event"
    },
    {
      "anonymous": false,
      "inputs": [
        {
          "indexed": true,
          "internalType": "address",
          "name": "contractAddress",
          "type": "address"
        },
        {
          "indexed": true,
          "internalType": "address",
          "name": "user",
          "type": "address"
        },
        {
          "indexed": false,
          "internalType": "uint256",
          "name": "rating",
          "type": "uint256"
        }
      ],
      "name": "RatingAdded",
      "type": "event"
    },
    {
      "anonymous": false,
      "inputs": [
        {
          "indexed": true,
          "internalType": "address",
          "name": "contractAddress",
          "type": "address"
        },
        {
          "indexed": true,
          "internalType": "address",
          "name": "user",
          "type": "address"
        }
      ],
      "name": "ReviewAdded",
      "type": "event"
    },
    {
      "inputs": [],
      "name": "MAX_RATING",
      "outputs": [
        {
          "internalType": "uint16",
          "name": "",
          "type": "uint16"
        }
      ],
      "stateMutability": "view",
      "type": "function"
    },
    {
      "inputs": [],
      "name": "RATING_SCALE",
      "outputs": [
        {
          "internalType": "uint16",
          "name": "",
          "type": "uint16"
        }
      ],
      "stateMutability": "view",
      "type": "function"
    },
    {
      "inputs": [
        {
          "internalType": "address",
          "name": "contractAddress",
          "type": "address"
        },
        {
          "internalType": "uint256",
          "name": "rating",
          "type": "uint256"
        }
      ],
      "name": "addRating",
      "outputs": [],
      "stateMutability": "nonpayable",
      "type": "function"
    },
    {
      "inputs": [
        {
          "internalType": "address",
          "name": "contractAddress",
          "type": "address"
        },
        {
          "internalType": "string",
          "name": "reviewDataURI",
          "type": "string"
        },
        {
          "internalType": "uint256",
          "name": "rating",
          "type": "uint256"
        }
      ],
      "name": "addReview",
      "outputs": [],
      "stateMutability": "nonpayable",
      "type": "function"
    },
    {
      "inputs": [
        {
          "internalType": "address",
          "name": "contractAddress",
          "type": "address"
        }
      ],
      "name": "averageRating",
      "outputs": [
        {
          "internalType": "uint256",
          "name": "",
          "type": "uint256"
        }
      ],
      "stateMutability": "view",
      "type": "function"
    },
    {
      "inputs": [
        {
          "internalType": "address",
          "name": "contractAddress",
          "type": "address"
        }
      ],
      "name": "getReviews",
      "outputs": [
        {
          "components": [
            {
              "internalType": "address",
              "name": "contractAddress",
              "type": "address"
            },
            {
              "internalType": "string",
              "name": "reviewURI",
              "type": "string"
            },
            {
              "internalType": "uint256",
              "name": "rating",
              "type": "uint256"
            },
            {
              "internalType": "uint256",
              "name": "timestamp",
              "type": "uint256"
            },
            {
              "internalType": "address",
              "name": "author",
              "type": "address"
            }
          ],
          "internalType": "struct Review[]",
          "name": "",
          "type": "tuple[]"
        }
      ],
      "stateMutability": "view",
      "type": "function"
    },
    {
      "inputs": [
        {
          "internalType": "address",
          "name": "contractAddress",
          "type": "address"
        },
        {
          "internalType": "uint256",
          "name": "start",
          "type": "uint256"
        },
        {
          "internalType": "uint256",
          "name": "end",
          "type": "uint256"
        }
      ],
      "name": "getReviewsBetween",
      "outputs": [
        {
          "components": [
            {
              "internalType": "address",
              "name": "contractAddress",
              "type": "address"
            },
            {
              "internalType": "string",
              "name": "reviewURI",
              "type": "string"
            },
            {
              "internalType": "uint256",
              "name": "rating",
              "type": "uint256"
            },
            {
              "internalType": "uint256",
              "name": "timestamp",
              "type": "uint256"
            },
            {
              "internalType": "address",
              "name": "author",
              "type": "address"
            }
          ],
          "internalType": "struct Review[]",
          "name": "",
          "type": "tuple[]"
        }
      ],
      "stateMutability": "view",
      "type": "function"
    },
    {
      "inputs": [
        {
          "internalType": "address",
          "name": "contractAddress",
          "type": "address"
        }
      ],
      "name": "myRating",
      "outputs": [
        {
          "internalType": "uint256",
          "name": "",
          "type": "uint256"
        }
      ],
      "stateMutability": "view",
      "type": "function"
    },
    {
      "inputs": [
        {
          "internalType": "address",
          "name": "",
          "type": "address"
        },
        {
          "internalType": "address",
          "name": "",
          "type": "address"
        }
      ],
      "name": "myReviews",
      "outputs": [
        {
          "internalType": "uint256",
          "name": "",
          "type": "uint256"
        }
      ],
      "stateMutability": "view",
      "type": "function"
    },
    {
      "inputs": [
        {
          "internalType": "address",
          "name": "contractAddress",
          "type": "address"
        }
      ],
      "name": "numberOfRatings",
      "outputs": [
        {
          "internalType": "uint256",
          "name": "",
          "type": "uint256"
        }
      ],
      "stateMutability": "view",
      "type": "function"
    },
    {
      "inputs": [],
      "name": "owner",
      "outputs": [
        {
          "internalType": "address",
          "name": "",
          "type": "address"
        }
      ],
      "stateMutability": "view",
      "type": "function"
    },
    {
      "inputs": [
        {
          "internalType": "address",
          "name": "",
          "type": "address"
        }
      ],
      "name": "ratings",
      "outputs": [
        {
          "internalType": "uint256",
          "name": "",
          "type": "uint256"
        }
      ],
      "stateMutability": "view",
      "type": "function"
    },
    {
      "inputs": [
        {
          "internalType": "address",
          "name": "",
          "type": "address"
        }
      ],
      "name": "ratingsCount",
      "outputs": [
        {
          "internalType": "uint256",
          "name": "",
          "type": "uint256"
        }
      ],
      "stateMutability": "view",
      "type": "function"
    },
    {
      "inputs": [],
      "name": "registry",
      "outputs": [
        {
          "internalType": "contract CheddaAddressRegistry",
          "name": "",
          "type": "address"
        }
      ],
      "stateMutability": "view",
      "type": "function"
    },
    {
      "inputs": [],
      "name": "renounceOwnership",
      "outputs": [],
      "stateMutability": "nonpayable",
      "type": "function"
    },
    {
      "inputs": [
        {
          "internalType": "address",
          "name": "",
          "type": "address"
        },
        {
          "internalType": "uint256",
          "name": "",
          "type": "uint256"
        }
      ],
      "name": "reviews",
      "outputs": [
        {
          "internalType": "address",
          "name": "contractAddress",
          "type": "address"
        },
        {
          "internalType": "string",
          "name": "reviewURI",
          "type": "string"
        },
        {
          "internalType": "uint256",
          "name": "rating",
          "type": "uint256"
        },
        {
          "internalType": "uint256",
          "name": "timestamp",
          "type": "uint256"
        },
        {
          "internalType": "address",
          "name": "author",
          "type": "address"
        }
      ],
      "stateMutability": "view",
      "type": "function"
    },
    {
      "inputs": [
        {
          "internalType": "address",
          "name": "newOwner",
          "type": "address"
        }
      ],
      "name": "transferOwnership",
      "outputs": [],
      "stateMutability": "nonpayable",
      "type": "function"
    },
    {
      "inputs": [
        {
          "internalType": "address",
          "name": "registryAddress",
          "type": "address"
        }
      ],
      "name": "updateRegistry",
      "outputs": [],
      "stateMutability": "nonpayable",
      "type": "function"
    },
    {
      "inputs": [
        {
          "internalType": "address",
          "name": "",
          "type": "address"
        },
        {
          "internalType": "address",
          "name": "",
          "type": "address"
        }
      ],
      "name": "userRatings",
      "outputs": [
        {
          "internalType": "uint256",
          "name": "",
          "type": "uint256"
        }
      ],
      "stateMutability": "view",
      "type": "function"
    }
  ],
  "bytecode": "0x608060405234801561001057600080fd5b5061001a3361001f565b61006f565b600080546001600160a01b038381166001600160a01b0319831681178455604051919092169283917f8be0079c531659141344cd1fd0a4f28419497f9722a3daafe3b4186f6b6457e09190a35050565b611c628061007e6000396000f3fe608060405234801561001057600080fd5b50600436106101215760003560e01c80637b103999116100ad578063cab655e411610071578063cab655e4146102b2578063ea751d87146102d2578063f2fde38b146102fd578063f4f98eab14610310578063f720015f1461032357600080fd5b80637b103999146102275780638da5cb5b1461025257806394e113ea146102635780639e01dfbb1461027f578063ba92fb9d1461029f57600080fd5b80635e007b88116100f45780635e007b88146101c25780636db3328f146101d557806370370a81146101f9578063715018a61461020c57806374b6e5bb1461021457600080fd5b80630b8d70a8146101265780631a5da6c81461016257806349c74ad3146101775780634ef5a017146101a2575b600080fd5b61014f61013436600461164a565b6001600160a01b031660009081526003602052604090205490565b6040519081526020015b60405180910390f35b61017561017036600461164a565b61032b565b005b61014f610185366004611689565b600660209081526000928352604080842090915290825290205481565b6101b56101b036600461164a565b6103ba565b6040516101599190611906565b61014f6101d036600461164a565b61063f565b6101e86101e3366004611752565b6107a5565b6040516101599594939291906118c5565b610175610207366004611752565b610892565b610175610c75565b6101b561022236600461177d565b610cab565b60015461023a906001600160a01b031681565b6040516001600160a01b039091168152602001610159565b6000546001600160a01b031661023a565b61026c6101f481565b60405161ffff9091168152602001610159565b61014f61028d36600461164a565b60026020526000908152604090205481565b6101756102ad3660046116c1565b610fad565b61014f6102c036600461164a565b60036020526000908152604090205481565b61014f6102e0366004611689565b600460209081526000928352604080842090915290825290205481565b61017561030b36600461164a565b611242565b61014f61031e36600461164a565b6112da565b61026c606481565b6000546001600160a01b0316331461035e5760405162461bcd60e51b815260040161035590611a10565b60405180910390fd5b600180546001600160a01b0319166001600160a01b03831617905560408051808201909152601781527f7570646174696e6720726567697374727920746f20257300000000000000000060208201526103b7908261146c565b50565b60608160006001600160a01b0316600160009054906101000a90046001600160a01b03166001600160a01b0316638dbe772a6040518163ffffffff1660e01b815260040160206040518083038186803b15801561041657600080fd5b505afa15801561042a573d6000803e3d6000fd5b505050506040513d601f19601f8201168201806040525081019061044e919061166d565b60405163496bd3df60e01b81526001600160a01b038481166004830152919091169063496bd3df9060240160006040518083038186803b15801561049157600080fd5b505afa1580156104a5573d6000803e3d6000fd5b505050506040513d6000823e601f3d908101601f191682016040526104cd91908101906117b1565b606001516001600160a01b031614156104f85760405162461bcd60e51b815260040161035590611a45565b6001600160a01b038316600090815260056020908152604080832080548251818502810185019093528083529193909284015b828210156106325760008481526020908190206040805160a081019091526005850290910180546001600160a01b03168252600181018054929391929184019161057490611b51565b80601f01602080910402602001604051908101604052809291908181526020018280546105a090611b51565b80156105ed5780601f106105c2576101008083540402835291602001916105ed565b820191906000526020600020905b8154815290600101906020018083116105d057829003601f168201915b50505091835250506002820154602080830191909152600383015460408301526004909201546001600160a01b0316606090910152908252600192909201910161052b565b5050505091505b50919050565b60008160006001600160a01b0316600160009054906101000a90046001600160a01b03166001600160a01b0316638dbe772a6040518163ffffffff1660e01b815260040160206040518083038186803b15801561069b57600080fd5b505afa1580156106af573d6000803e3d6000fd5b505050506040513d601f19601f820116820180604052508101906106d3919061166d565b60405163496bd3df60e01b81526001600160a01b038481166004830152919091169063496bd3df9060240160006040518083038186803b15801561071657600080fd5b505afa15801561072a573d6000803e3d6000fd5b505050506040513d6000823e601f3d908101601f1916820160405261075291908101906117b1565b606001516001600160a01b0316141561077d5760405162461bcd60e51b815260040161035590611a45565b50506001600160a01b0316600090815260046020908152604080832033845290915290205490565b600560205281600052604060002081815481106107c157600080fd5b6000918252602090912060059091020180546001820180546001600160a01b0390921694509192506107f290611b51565b80601f016020809104026020016040519081016040528092919081815260200182805461081e90611b51565b801561086b5780601f106108405761010080835404028352916020019161086b565b820191906000526020600020905b81548152906001019060200180831161084e57829003601f168201915b5050505060028301546003840154600490940154929390929091506001600160a01b031685565b8160006001600160a01b0316600160009054906101000a90046001600160a01b03166001600160a01b0316638dbe772a6040518163ffffffff1660e01b815260040160206040518083038186803b1580156108ec57600080fd5b505afa158015610900573d6000803e3d6000fd5b505050506040513d601f19601f82011682018060405250810190610924919061166d565b60405163496bd3df60e01b81526001600160a01b038481166004830152919091169063496bd3df9060240160006040518083038186803b15801561096757600080fd5b505afa15801561097b573d6000803e3d6000fd5b505050506040513d6000823e601f3d908101601f191682016040526109a391908101906117b1565b606001516001600160a01b031614156109ce5760405162461bcd60e51b815260040161035590611a45565b6001600160a01b038316600090815260046020908152604080832033845290915290205415610a2f5760405162461bcd60e51b815260206004820152600d60248201526c105b1c9958591e481c985d1959609a1b6044820152606401610355565b81610a725760405162461bcd60e51b81526020600482015260136024820152720526174696e672063616e206e6f74206265203606c1b6044820152606401610355565b610a7d606483611bc1565b158015610a8c57506101f48211155b610ac95760405162461bcd60e51b815260206004820152600e60248201526d496e76616c696420726174696e6760901b6044820152606401610355565b6001600160a01b03831660008181526004602090815260408083203384528252808320869055928252600290529081208054849290610b09908490611af5565b90915550506001600160a01b0383166000908152600360205260408120805460019290610b37908490611af5565b9091555050600154604080516327b16a2560e21b815290516000926001600160a01b031691639ec5a894916004808301926020929190829003018186803b158015610b8157600080fd5b505afa158015610b95573d6000803e3d6000fd5b505050506040513d601f19601f82011682018060405250810190610bb9919061166d565b604051635ab1ad4160e11b81529091506001600160a01b0382169063b5635a8290610bea90600490339082016119ac565b600060405180830381600087803b158015610c0457600080fd5b505af1158015610c18573d6000803e3d6000fd5b50505050610c233390565b6001600160a01b0316846001600160a01b03167f2b8a6f035e2a31b4fcdef20e9217eff649ead8db9add54b5531cd04043b069d285604051610c6791815260200190565b60405180910390a350505050565b6000546001600160a01b03163314610c9f5760405162461bcd60e51b815260040161035590611a10565b610ca960006114b5565b565b60608360006001600160a01b0316600160009054906101000a90046001600160a01b03166001600160a01b0316638dbe772a6040518163ffffffff1660e01b815260040160206040518083038186803b158015610d0757600080fd5b505afa158015610d1b573d6000803e3d6000fd5b505050506040513d601f19601f82011682018060405250810190610d3f919061166d565b60405163496bd3df60e01b81526001600160a01b038481166004830152919091169063496bd3df9060240160006040518083038186803b158015610d8257600080fd5b505afa158015610d96573d6000803e3d6000fd5b505050506040513d6000823e601f3d908101601f19168201604052610dbe91908101906117b1565b606001516001600160a01b03161415610de95760405162461bcd60e51b815260040161035590611a45565b6001600160a01b038516600090815260056020908152604080832080548251818502810185019093528083529192909190849084015b82821015610f265760008481526020908190206040805160a081019091526005850290910180546001600160a01b031682526001810180549293919291840191610e6890611b51565b80601f0160208091040260200160405190810160405280929190818152602001828054610e9490611b51565b8015610ee15780601f10610eb657610100808354040283529160200191610ee1565b820191906000526020600020905b815481529060010190602001808311610ec457829003601f168201915b50505091835250506002820154602080830191909152600383015460408301526004909201546001600160a01b03166060909101529082526001929092019101610e1f565b5050505090506000805b8251811015610fa1576000838281518110610f5b57634e487b7160e01b600052603260045260246000fd5b60200260200101519050878160600151118015610f7b5750868160600151105b15610f8e5782610f8a81611ba1565b9350505b5080610f9981611b86565b915050610f30565b50909695505050505050565b8260006001600160a01b0316600160009054906101000a90046001600160a01b03166001600160a01b0316638dbe772a6040518163ffffffff1660e01b815260040160206040518083038186803b15801561100757600080fd5b505afa15801561101b573d6000803e3d6000fd5b505050506040513d601f19601f8201168201806040525081019061103f919061166d565b60405163496bd3df60e01b81526001600160a01b038481166004830152919091169063496bd3df9060240160006040518083038186803b15801561108257600080fd5b505afa158015611096573d6000803e3d6000fd5b505050506040513d6000823e601f3d908101601f191682016040526110be91908101906117b1565b606001516001600160a01b031614156110e95760405162461bcd60e51b815260040161035590611a45565b6040805160a0810182526001600160a01b0386168082526020820186905281830185905242606083015233608083015291516370370a8160e01b81526004810192909252602482018490529030906370370a8190604401600060405180830381600087803b15801561115a57600080fd5b505af115801561116e573d6000803e3d6000fd5b505050506001600160a01b03858116600090815260056020818152604083208054600180820183559185529382902086519490930290920180546001600160a01b031916939094169290921783558382015180518594936111d3938501920190611526565b50604082810151600283015560608301516003830155608090920151600490910180546001600160a01b0319166001600160a01b03928316179055905133918716907fd2738371c58caff9b9effcfa003a7fe6a306673247690d9fb3308b08f70ada1590600090a35050505050565b6000546001600160a01b0316331461126c5760405162461bcd60e51b815260040161035590611a10565b6001600160a01b0381166112d15760405162461bcd60e51b815260206004820152602660248201527f4f776e61626c653a206e6577206f776e657220697320746865207a65726f206160448201526564647265737360d01b6064820152608401610355565b6103b7816114b5565b60008160006001600160a01b0316600160009054906101000a90046001600160a01b03166001600160a01b0316638dbe772a6040518163ffffffff1660e01b815260040160206040518083038186803b15801561133657600080fd5b505afa15801561134a573d6000803e3d6000fd5b505050506040513d601f19601f8201168201806040525081019061136e919061166d565b60405163496bd3df60e01b81526001600160a01b038481166004830152919091169063496bd3df9060240160006040518083038186803b1580156113b157600080fd5b505afa1580156113c5573d6000803e3d6000fd5b505050506040513d6000823e601f3d908101601f191682016040526113ed91908101906117b1565b606001516001600160a01b031614156114185760405162461bcd60e51b815260040161035590611a45565b6001600160a01b03831660009081526003602052604090205480611440576000925050610639565b6001600160a01b038416600090815260026020526040902054611464908290611b0d565b949350505050565b6114b182826040516024016114829291906119e6565b60408051601f198184030181529190526020810180516001600160e01b031663319af33360e01b179052611505565b5050565b600080546001600160a01b038381166001600160a01b0319831681178455604051919092169283917f8be0079c531659141344cd1fd0a4f28419497f9722a3daafe3b4186f6b6457e09190a35050565b80516a636f6e736f6c652e6c6f67602083016000808483855afa5050505050565b82805461153290611b51565b90600052602060002090601f016020900481019282611554576000855561159a565b82601f1061156d57805160ff191683800117855561159a565b8280016001018555821561159a579182015b8281111561159a57825182559160200191906001019061157f565b506115a69291506115aa565b5090565b5b808211156115a657600081556001016115ab565b80516115ca81611c17565b919050565b805180151581146115ca57600080fd5b600082601f8301126115ef578081fd5b81516116026115fd82611acd565b611a9c565b818152846020838601011115611616578283fd5b611464826020830160208701611b21565b805161ffff811681146115ca57600080fd5b805160ff811681146115ca57600080fd5b60006020828403121561165b578081fd5b813561166681611c17565b9392505050565b60006020828403121561167e578081fd5b815161166681611c17565b6000806040838503121561169b578081fd5b82356116a681611c17565b915060208301356116b681611c17565b809150509250929050565b6000806000606084860312156116d5578081fd5b83356116e081611c17565b9250602084013567ffffffffffffffff8111156116fb578182fd5b8401601f8101861361170b578182fd5b80356117196115fd82611acd565b81815287602083850101111561172d578384fd5b8160208401602083013790810160200192909252509194919350506040919091013590565b60008060408385031215611764578182fd5b823561176f81611c17565b946020939093013593505050565b600080600060608486031215611791578283fd5b833561179c81611c17565b95602085013595506040909401359392505050565b6000602082840312156117c2578081fd5b815167ffffffffffffffff808211156117d9578283fd5b9083019061010082860312156117ed578283fd5b6117f5611a72565b6117fe83611627565b8152602083015182811115611811578485fd5b61181d878286016115df565b60208301525061182f60408401611639565b6040820152611840606084016115bf565b6060820152608083015182811115611856578485fd5b611862878286016115df565b60808301525061187460a084016115cf565b60a082015260c083015160c082015260e083015160e082015280935050505092915050565b600081518084526118b1816020860160208601611b21565b601f01601f19169290920160200192915050565b600060018060a01b03808816835260a060208401526118e760a0840188611899565b6040840196909652606083019490945250911660809091015292915050565b60006020808301818452808551808352604092508286019150828160051b870101848801865b8381101561199e57888303603f19018552815180516001600160a01b0390811685528882015160a08a8701819052919061196883880182611899565b848b0151888c0152606080860151908901526080948501519092169390960192909252509487019492509086019060010161192c565b509098975050505050505050565b60408101600884106119ce57634e487b7160e01b600052602160045260246000fd5b9281526001600160a01b039190911660209091015290565b6040815260006119f96040830185611899565b905060018060a01b03831660208301529392505050565b6020808252818101527f4f776e61626c653a2063616c6c6572206973206e6f7420746865206f776e6572604082015260600190565b60208082526013908201527211185c1c08191bd95cc81b9bdd08195e1a5cdd606a1b604082015260600190565b604051610100810167ffffffffffffffff81118282101715611a9657611a96611c01565b60405290565b604051601f8201601f1916810167ffffffffffffffff81118282101715611ac557611ac5611c01565b604052919050565b600067ffffffffffffffff821115611ae757611ae7611c01565b50601f01601f191660200190565b60008219821115611b0857611b08611bd5565b500190565b600082611b1c57611b1c611beb565b500490565b60005b83811015611b3c578181015183820152602001611b24565b83811115611b4b576000848401525b50505050565b600181811c90821680611b6557607f821691505b6020821081141561063957634e487b7160e01b600052602260045260246000fd5b6000600019821415611b9a57611b9a611bd5565b5060010190565b600060ff821660ff811415611bb857611bb8611bd5565b60010192915050565b600082611bd057611bd0611beb565b500690565b634e487b7160e01b600052601160045260246000fd5b634e487b7160e01b600052601260045260246000fd5b634e487b7160e01b600052604160045260246000fd5b6001600160a01b03811681146103b757600080fdfea26469706673582212202142b8bce1d23266bdabe646f215a53c7463db10a61278e235afd6dbd45ec9a664736f6c63430008040033",
  "linkReferences": {},
  "deployedLinkReferences": {}
}