{
  "_format": "hh-sol-artifact-1",
  "contractName": "CheddaDappStore",
  "sourceName": "contracts/dappstore/CheddaDappStore.sol",
  "abi": [
    {
      "inputs": [],
      "name": "DappNotFound",
      "type": "error"
    },
    {
      "anonymous": false,
      "inputs": [
        {
          "indexed": false,
          "internalType": "string",
          "name": "name",
          "type": "string"
        },
        {
          "indexed": false,
          "internalType": "address",
          "name": "contractAddress",
          "type": "address"
        }
      ],
      "name": "DappAdded",
      "type": "event"
    },
    {
      "anonymous": false,
      "inputs": [
        {
          "indexed": false,
          "internalType": "string",
          "name": "name",
          "type": "string"
        },
        {
          "indexed": false,
          "internalType": "address",
          "name": "contractAddress",
          "type": "address"
        }
      ],
      "name": "DappRemoved",
      "type": "event"
    },
    {
      "inputs": [
        {
          "internalType": "address",
          "name": "",
          "type": "address"
        }
      ],
      "name": "_dapps",
      "outputs": [
        {
          "internalType": "uint16",
          "name": "index",
          "type": "uint16"
        },
        {
          "internalType": "string",
          "name": "name",
          "type": "string"
        },
        {
          "internalType": "string",
          "name": "network",
          "type": "string"
        },
        {
          "internalType": "uint8",
          "name": "chainID",
          "type": "uint8"
        },
        {
          "internalType": "address",
          "name": "contractAddress",
          "type": "address"
        },
        {
          "internalType": "string",
          "name": "metadataURI",
          "type": "string"
        }
      ],
      "stateMutability": "view",
      "type": "function"
    },
    {
      "inputs": [
        {
          "internalType": "string",
          "name": "name",
          "type": "string"
        },
        {
          "internalType": "string",
          "name": "network",
          "type": "string"
        },
        {
          "internalType": "uint8",
          "name": "chainId",
          "type": "uint8"
        },
        {
          "internalType": "address",
          "name": "contractAddress",
          "type": "address"
        },
        {
          "internalType": "string",
          "name": "category",
          "type": "string"
        },
        {
          "internalType": "string",
          "name": "uri",
          "type": "string"
        }
      ],
      "name": "addDapp",
      "outputs": [],
      "stateMutability": "nonpayable",
      "type": "function"
    },
    {
      "inputs": [
        {
          "internalType": "address",
          "name": "contractAddress",
          "type": "address"
        },
        {
          "internalType": "address",
          "name": "admin",
          "type": "address"
        }
      ],
      "name": "addDappAdmin",
      "outputs": [],
      "stateMutability": "nonpayable",
      "type": "function"
    },
    {
      "inputs": [
        {
          "internalType": "string",
          "name": "",
          "type": "string"
        },
        {
          "internalType": "uint256",
          "name": "",
          "type": "uint256"
        }
      ],
      "name": "categories",
      "outputs": [
        {
          "internalType": "address",
          "name": "",
          "type": "address"
        }
      ],
      "stateMutability": "view",
      "type": "function"
    },
    {
      "inputs": [],
      "name": "dapps",
      "outputs": [
        {
          "components": [
            {
              "internalType": "uint16",
              "name": "index",
              "type": "uint16"
            },
            {
              "internalType": "string",
              "name": "name",
              "type": "string"
            },
            {
              "internalType": "string",
              "name": "network",
              "type": "string"
            },
            {
              "internalType": "uint8",
              "name": "chainID",
              "type": "uint8"
            },
            {
              "internalType": "address",
              "name": "contractAddress",
              "type": "address"
            },
            {
              "internalType": "string",
              "name": "metadataURI",
              "type": "string"
            }
          ],
          "internalType": "struct Dapp[]",
          "name": "",
          "type": "tuple[]"
        }
      ],
      "stateMutability": "view",
      "type": "function"
    },
    {
      "inputs": [
        {
          "internalType": "address",
          "name": "",
          "type": "address"
        }
      ],
      "name": "dislikes",
      "outputs": [
        {
          "internalType": "uint256",
          "name": "",
          "type": "uint256"
        }
      ],
      "stateMutability": "view",
      "type": "function"
    },
    {
      "inputs": [
        {
          "internalType": "address",
          "name": "contractAddress",
          "type": "address"
        }
      ],
      "name": "getDapp",
      "outputs": [
        {
          "components": [
            {
              "internalType": "uint16",
              "name": "index",
              "type": "uint16"
            },
            {
              "internalType": "string",
              "name": "name",
              "type": "string"
            },
            {
              "internalType": "string",
              "name": "network",
              "type": "string"
            },
            {
              "internalType": "uint8",
              "name": "chainID",
              "type": "uint8"
            },
            {
              "internalType": "address",
              "name": "contractAddress",
              "type": "address"
            },
            {
              "internalType": "string",
              "name": "metadataURI",
              "type": "string"
            }
          ],
          "internalType": "struct Dapp",
          "name": "",
          "type": "tuple"
        }
      ],
      "stateMutability": "view",
      "type": "function"
    },
    {
      "inputs": [
        {
          "internalType": "uint256",
          "name": "index",
          "type": "uint256"
        }
      ],
      "name": "getDappAtIndex",
      "outputs": [
        {
          "components": [
            {
              "internalType": "uint16",
              "name": "index",
              "type": "uint16"
            },
            {
              "internalType": "string",
              "name": "name",
              "type": "string"
            },
            {
              "internalType": "string",
              "name": "network",
              "type": "string"
            },
            {
              "internalType": "uint8",
              "name": "chainID",
              "type": "uint8"
            },
            {
              "internalType": "address",
              "name": "contractAddress",
              "type": "address"
            },
            {
              "internalType": "string",
              "name": "metadataURI",
              "type": "string"
            }
          ],
          "internalType": "struct Dapp",
          "name": "",
          "type": "tuple"
        }
      ],
      "stateMutability": "view",
      "type": "function"
    },
    {
      "inputs": [
        {
          "internalType": "string",
          "name": "category",
          "type": "string"
        }
      ],
      "name": "getDappsInCategory",
      "outputs": [
        {
          "components": [
            {
              "internalType": "uint16",
              "name": "index",
              "type": "uint16"
            },
            {
              "internalType": "string",
              "name": "name",
              "type": "string"
            },
            {
              "internalType": "string",
              "name": "network",
              "type": "string"
            },
            {
              "internalType": "uint8",
              "name": "chainID",
              "type": "uint8"
            },
            {
              "internalType": "address",
              "name": "contractAddress",
              "type": "address"
            },
            {
              "internalType": "string",
              "name": "metadataURI",
              "type": "string"
            }
          ],
          "internalType": "struct Dapp[]",
          "name": "",
          "type": "tuple[]"
        }
      ],
      "stateMutability": "view",
      "type": "function"
    },
    {
      "inputs": [
        {
          "internalType": "address",
          "name": "contractAddress",
          "type": "address"
        }
      ],
      "name": "getDislikes",
      "outputs": [
        {
          "internalType": "uint256",
          "name": "",
          "type": "uint256"
        }
      ],
      "stateMutability": "view",
      "type": "function"
    },
    {
      "inputs": [
        {
          "internalType": "address",
          "name": "contractAddress",
          "type": "address"
        }
      ],
      "name": "getLikes",
      "outputs": [
        {
          "internalType": "uint256",
          "name": "",
          "type": "uint256"
        }
      ],
      "stateMutability": "view",
      "type": "function"
    },
    {
      "inputs": [
        {
          "internalType": "address",
          "name": "contractAddress",
          "type": "address"
        }
      ],
      "name": "getReviews",
      "outputs": [
        {
          "components": [
            {
              "internalType": "uint256",
              "name": "timestamp",
              "type": "uint256"
            },
            {
              "internalType": "string",
              "name": "metadataURI",
              "type": "string"
            }
          ],
          "internalType": "struct DappReview[]",
          "name": "",
          "type": "tuple[]"
        }
      ],
      "stateMutability": "view",
      "type": "function"
    },
    {
      "inputs": [],
      "name": "isCheddaStore",
      "outputs": [
        {
          "internalType": "bool",
          "name": "",
          "type": "bool"
        }
      ],
      "stateMutability": "pure",
      "type": "function"
    },
    {
      "inputs": [
        {
          "internalType": "address",
          "name": "contractAddress",
          "type": "address"
        }
      ],
      "name": "likeDapp",
      "outputs": [],
      "stateMutability": "nonpayable",
      "type": "function"
    },
    {
      "inputs": [
        {
          "internalType": "address",
          "name": "",
          "type": "address"
        }
      ],
      "name": "likes",
      "outputs": [
        {
          "internalType": "uint256",
          "name": "",
          "type": "uint256"
        }
      ],
      "stateMutability": "view",
      "type": "function"
    },
    {
      "inputs": [],
      "name": "numberOfDapps",
      "outputs": [
        {
          "internalType": "uint256",
          "name": "",
          "type": "uint256"
        }
      ],
      "stateMutability": "view",
      "type": "function"
    },
    {
      "inputs": [
        {
          "internalType": "string",
          "name": "category",
          "type": "string"
        }
      ],
      "name": "numberOfDappsInCategory",
      "outputs": [
        {
          "internalType": "uint256",
          "name": "",
          "type": "uint256"
        }
      ],
      "stateMutability": "view",
      "type": "function"
    },
    {
      "inputs": [
        {
          "internalType": "address",
          "name": "",
          "type": "address"
        }
      ],
      "name": "ratings",
      "outputs": [
        {
          "internalType": "uint16",
          "name": "",
          "type": "uint16"
        }
      ],
      "stateMutability": "view",
      "type": "function"
    },
    {
      "inputs": [
        {
          "internalType": "address",
          "name": "contractAddress",
          "type": "address"
        }
      ],
      "name": "removeDapp",
      "outputs": [],
      "stateMutability": "nonpayable",
      "type": "function"
    },
    {
      "inputs": [
        {
          "internalType": "address",
          "name": "contractAddress",
          "type": "address"
        },
        {
          "internalType": "address",
          "name": "admin",
          "type": "address"
        }
      ],
      "name": "removeDappAdmin",
      "outputs": [],
      "stateMutability": "nonpayable",
      "type": "function"
    },
    {
      "inputs": [
        {
          "internalType": "address",
          "name": "",
          "type": "address"
        },
        {
          "internalType": "uint256",
          "name": "",
          "type": "uint256"
        }
      ],
      "name": "reviews",
      "outputs": [
        {
          "internalType": "uint256",
          "name": "timestamp",
          "type": "uint256"
        },
        {
          "internalType": "string",
          "name": "metadataURI",
          "type": "string"
        }
      ],
      "stateMutability": "view",
      "type": "function"
    },
    {
      "inputs": [
        {
          "internalType": "address",
          "name": "contractAddress",
          "type": "address"
        }
      ],
      "name": "unlikeDapp",
      "outputs": [],
      "stateMutability": "nonpayable",
      "type": "function"
    }
  ],
  "bytecode": "0x60806040526000600260006101000a81548161ffff021916908361ffff16021790555060646002806101000a81548161ffff021916908361ffff16021790555034801561004b57600080fd5b50613a298061005b6000396000f3fe608060405234801561001057600080fd5b50600436106101425760003560e01c80637644e1db116100b8578063a020a3291161007c578063a020a329146103c2578063b3e36267146103de578063cc18513f1461040e578063cc26f1ae1461043e578063f84a167914610473578063fa4e0f381461048f57610142565b80637644e1db1461030a578063809c45a31461032857806389dcc51f146103465780638cb0c1cb146103765780639e01dfbb1461039257610142565b8063627c55f61161010a578063627c55f61461022357806365a6e9db1461023f5780636617af351461025d5780636caa97ac146102795780636db3328f146102a9578063737d3685146102da57610142565b806302066d19146101475780630dd2ddc4146101775780634660e82214610193578063496bd3df146101c35780634ef5a017146101f3575b600080fd5b610161600480360381019061015c9190612ba9565b6104bf565b60405161016e9190613510565b60405180910390f35b610191600480360381019061018c9190612c8f565b6105d9565b005b6101ad60048036038101906101a89190612c4a565b6109db565b6040516101ba9190613510565b60405180910390f35b6101dd60048036038101906101d89190612ba9565b610a09565b6040516101ea919061345d565b60405180910390f35b61020d60048036038101906102089190612ba9565b610cab565b60405161021a919061331e565b60405180910390f35b61023d60048036038101906102389190612ba9565b610de5565b005b610247611492565b6040516102549190613340565b60405180910390f35b61027760048036038101906102729190612ba9565b61173a565b005b610293600480360381019061028e9190612d7e565b611866565b6040516102a09190613303565b60405180910390f35b6102c360048036038101906102be9190612c0e565b6118ca565b6040516102d192919061352b565b60405180910390f35b6102f460048036038101906102ef9190612ba9565b611993565b6040516103019190613510565b60405180910390f35b6103126119ab565b60405161031f9190613362565b60405180910390f35b6103306119b4565b60405161033d9190613510565b60405180910390f35b610360600480360381019061035b9190612dd2565b6119d0565b60405161036d919061345d565b60405180910390f35b610390600480360381019061038b9190612bd2565b611c7b565b005b6103ac60048036038101906103a79190612ba9565b611eb6565b6040516103b9919061347f565b60405180910390f35b6103dc60048036038101906103d79190612ba9565b611ed7565b005b6103f860048036038101906103f39190612ba9565b612003565b6040516104059190613510565b60405180910390f35b61042860048036038101906104239190612ba9565b61201b565b6040516104359190613510565b60405180910390f35b61045860048036038101906104539190612ba9565b612135565b60405161046a9695949392919061349a565b60405180910390f35b61048d60048036038101906104889190612bd2565b612344565b005b6104a960048036038101906104a49190612c4a565b6124af565b6040516104b69190613340565b60405180910390f35b60008073ffffffffffffffffffffffffffffffffffffffff16600360008473ffffffffffffffffffffffffffffffffffffffff1673ffffffffffffffffffffffffffffffffffffffff16815260200190815260200160002060030160019054906101000a900473ffffffffffffffffffffffffffffffffffffffff1673ffffffffffffffffffffffffffffffffffffffff161415610592576040517f08c379a0000000000000000000000000000000000000000000000000000000008152600401610589906133fd565b60405180910390fd5b600560008373ffffffffffffffffffffffffffffffffffffffff1673ffffffffffffffffffffffffffffffffffffffff168152602001908152602001600020549050919050565b600080600081819054906101000a900461ffff16809291906105fa906137f8565b91906101000a81548161ffff021916908361ffff160217905550905060006040518060c001604052808361ffff1681526020018a81526020018981526020018860ff1681526020018773ffffffffffffffffffffffffffffffffffffffff16815260200185858080601f016020809104026020016040519081016040528093929190818152602001838380828437600081840152601f19601f8201169050808301925050505050505081525090506002600081819054906101000a900461ffff16809291906106c8906137f8565b91906101000a81548161ffff021916908361ffff1602179055505080600360008873ffffffffffffffffffffffffffffffffffffffff1673ffffffffffffffffffffffffffffffffffffffff16815260200190815260200160002060008201518160000160006101000a81548161ffff021916908361ffff1602179055506020820151816001019080519060200190610762929190612982565b50604082015181600201908051906020019061077f929190612982565b5060608201518160030160006101000a81548160ff021916908360ff16021790555060808201518160030160016101000a81548173ffffffffffffffffffffffffffffffffffffffff021916908373ffffffffffffffffffffffffffffffffffffffff16021790555060a0820151816004019080519060200190610804929190612982565b5090505060098560405161081891906132ec565b9081526020016040518091039020869080600181540180825580915050600190039060005260206000200160009091909190916101000a81548173ffffffffffffffffffffffffffffffffffffffff021916908373ffffffffffffffffffffffffffffffffffffffff160217905550600181908060018154018082558091505060019003906000526020600020906005020160009091909190915060008201518160000160006101000a81548161ffff021916908361ffff16021790555060208201518160010190805190602001906108f2929190612982565b50604082015181600201908051906020019061090f929190612982565b5060608201518160030160006101000a81548160ff021916908360ff16021790555060808201518160030160016101000a81548173ffffffffffffffffffffffffffffffffffffffff021916908373ffffffffffffffffffffffffffffffffffffffff16021790555060a0820151816004019080519060200190610994929190612982565b5050507f571a5d41a9cdccbd803fbb5a81c414687a87516b6fc484cd8083baab4bab000489876040516109c892919061337d565b60405180910390a1505050505050505050565b6000600983836040516109ef9291906132d3565b908152602001604051809103902080549050905092915050565b610a11612a08565b600360008373ffffffffffffffffffffffffffffffffffffffff1673ffffffffffffffffffffffffffffffffffffffff1681526020019081526020016000206040518060c00160405290816000820160009054906101000a900461ffff1661ffff1661ffff168152602001600182018054610a8b90613795565b80601f0160208091040260200160405190810160405280929190818152602001828054610ab790613795565b8015610b045780601f10610ad957610100808354040283529160200191610b04565b820191906000526020600020905b815481529060010190602001808311610ae757829003601f168201915b50505050508152602001600282018054610b1d90613795565b80601f0160208091040260200160405190810160405280929190818152602001828054610b4990613795565b8015610b965780601f10610b6b57610100808354040283529160200191610b96565b820191906000526020600020905b815481529060010190602001808311610b7957829003601f168201915b505050505081526020016003820160009054906101000a900460ff1660ff1660ff1681526020016003820160019054906101000a900473ffffffffffffffffffffffffffffffffffffffff1673ffffffffffffffffffffffffffffffffffffffff1673ffffffffffffffffffffffffffffffffffffffff168152602001600482018054610c2290613795565b80601f0160208091040260200160405190810160405280929190818152602001828054610c4e90613795565b8015610c9b5780601f10610c7057610100808354040283529160200191610c9b565b820191906000526020600020905b815481529060010190602001808311610c7e57829003601f168201915b5050505050815250509050919050565b6060600860008373ffffffffffffffffffffffffffffffffffffffff1673ffffffffffffffffffffffffffffffffffffffff168152602001908152602001600020805480602002602001604051908101604052809291908181526020016000905b82821015610dda578382906000526020600020906002020160405180604001604052908160008201548152602001600182018054610d4990613795565b80601f0160208091040260200160405190810160405280929190818152602001828054610d7590613795565b8015610dc25780601f10610d9757610100808354040283529160200191610dc2565b820191906000526020600020905b815481529060010190602001808311610da557829003601f168201915b50505050508152505081526020019060010190610d0c565b505050509050919050565b600073ffffffffffffffffffffffffffffffffffffffff168173ffffffffffffffffffffffffffffffffffffffff161415610e55576040517f08c379a0000000000000000000000000000000000000000000000000000000008152600401610e4c9061343d565b60405180910390fd5b600073ffffffffffffffffffffffffffffffffffffffff16600360008373ffffffffffffffffffffffffffffffffffffffff1673ffffffffffffffffffffffffffffffffffffffff16815260200190815260200160002060030160019054906101000a900473ffffffffffffffffffffffffffffffffffffffff1673ffffffffffffffffffffffffffffffffffffffff161415610f27576040517f08c379a0000000000000000000000000000000000000000000000000000000008152600401610f1e906133fd565b60405180910390fd5b6000600360008373ffffffffffffffffffffffffffffffffffffffff1673ffffffffffffffffffffffffffffffffffffffff1681526020019081526020016000206040518060c00160405290816000820160009054906101000a900461ffff1661ffff1661ffff168152602001600182018054610fa390613795565b80601f0160208091040260200160405190810160405280929190818152602001828054610fcf90613795565b801561101c5780601f10610ff15761010080835404028352916020019161101c565b820191906000526020600020905b815481529060010190602001808311610fff57829003601f168201915b5050505050815260200160028201805461103590613795565b80601f016020809104026020016040519081016040528092919081815260200182805461106190613795565b80156110ae5780601f10611083576101008083540402835291602001916110ae565b820191906000526020600020905b81548152906001019060200180831161109157829003601f168201915b505050505081526020016003820160009054906101000a900460ff1660ff1660ff1681526020016003820160019054906101000a900473ffffffffffffffffffffffffffffffffffffffff1673ffffffffffffffffffffffffffffffffffffffff1673ffffffffffffffffffffffffffffffffffffffff16815260200160048201805461113a90613795565b80601f016020809104026020016040519081016040528092919081815260200182805461116690613795565b80156111b35780601f10611188576101008083540402835291602001916111b3565b820191906000526020600020905b81548152906001019060200180831161119657829003601f168201915b5050505050815250509050600360008373ffffffffffffffffffffffffffffffffffffffff1673ffffffffffffffffffffffffffffffffffffffff168152602001908152602001600020600080820160006101000a81549061ffff02191690556001820160006112239190612a5b565b6002820160006112339190612a5b565b6003820160006101000a81549060ff02191690556003820160016101000a81549073ffffffffffffffffffffffffffffffffffffffff021916905560048201600061127e9190612a5b565b50506001816000015161ffff16815481106112c2577f4e487b7100000000000000000000000000000000000000000000000000000000600052603260045260246000fd5b9060005260206000209060050201600080820160006101000a81549061ffff02191690556001820160006112f69190612a5b565b6002820160006113069190612a5b565b6003820160006101000a81549060ff02191690556003820160016101000a81549073ffffffffffffffffffffffffffffffffffffffff02191690556004820160006113519190612a5b565b5050600460008373ffffffffffffffffffffffffffffffffffffffff1673ffffffffffffffffffffffffffffffffffffffff16815260200190815260200160002060009055600560008373ffffffffffffffffffffffffffffffffffffffff1673ffffffffffffffffffffffffffffffffffffffff168152602001908152602001600020600090556002600081819054906101000a900461ffff16809291906113f99061376b565b91906101000a81548161ffff021916908361ffff160217905550507faee8bd690ad86ba913eed88d3fa33088c281a85f6dae478039ef7a265523f416600360008473ffffffffffffffffffffffffffffffffffffffff1673ffffffffffffffffffffffffffffffffffffffff168152602001908152602001600020600101836040516114869291906133ad565b60405180910390a15050565b60606001805480602002602001604051908101604052809291908181526020016000905b8282101561173157838290600052602060002090600502016040518060c00160405290816000820160009054906101000a900461ffff1661ffff1661ffff16815260200160018201805461150990613795565b80601f016020809104026020016040519081016040528092919081815260200182805461153590613795565b80156115825780601f1061155757610100808354040283529160200191611582565b820191906000526020600020905b81548152906001019060200180831161156557829003601f168201915b5050505050815260200160028201805461159b90613795565b80601f01602080910402602001604051908101604052809291908181526020018280546115c790613795565b80156116145780601f106115e957610100808354040283529160200191611614565b820191906000526020600020905b8154815290600101906020018083116115f757829003601f168201915b505050505081526020016003820160009054906101000a900460ff1660ff1660ff1681526020016003820160019054906101000a900473ffffffffffffffffffffffffffffffffffffffff1673ffffffffffffffffffffffffffffffffffffffff1673ffffffffffffffffffffffffffffffffffffffff1681526020016004820180546116a090613795565b80601f01602080910402602001604051908101604052809291908181526020018280546116cc90613795565b80156117195780601f106116ee57610100808354040283529160200191611719565b820191906000526020600020905b8154815290600101906020018083116116fc57829003601f168201915b505050505081525050815260200190600101906114b6565b50505050905090565b600073ffffffffffffffffffffffffffffffffffffffff16600360008373ffffffffffffffffffffffffffffffffffffffff1673ffffffffffffffffffffffffffffffffffffffff16815260200190815260200160002060030160019054906101000a900473ffffffffffffffffffffffffffffffffffffffff1673ffffffffffffffffffffffffffffffffffffffff16141561180c576040517f08c379a0000000000000000000000000000000000000000000000000000000008152600401611803906133fd565b60405180910390fd5b6001600460008373ffffffffffffffffffffffffffffffffffffffff1673ffffffffffffffffffffffffffffffffffffffff168152602001908152602001600020600082825461185c9190613670565b9250508190555050565b600982805160208101820180518482526020830160208501208183528095505050505050818154811061189857600080fd5b906000526020600020016000915091509054906101000a900473ffffffffffffffffffffffffffffffffffffffff1681565b600860205281600052604060002081815481106118e657600080fd5b90600052602060002090600202016000915091505080600001549080600101805461191090613795565b80601f016020809104026020016040519081016040528092919081815260200182805461193c90613795565b80156119895780601f1061195e57610100808354040283529160200191611989565b820191906000526020600020905b81548152906001019060200180831161196c57829003601f168201915b5050505050905082565b60046020528060005260406000206000915090505481565b60006001905090565b6000600260009054906101000a900461ffff1661ffff16905090565b6119d8612a08565b60018281548110611a12577f4e487b7100000000000000000000000000000000000000000000000000000000600052603260045260246000fd5b90600052602060002090600502016040518060c00160405290816000820160009054906101000a900461ffff1661ffff1661ffff168152602001600182018054611a5b90613795565b80601f0160208091040260200160405190810160405280929190818152602001828054611a8790613795565b8015611ad45780601f10611aa957610100808354040283529160200191611ad4565b820191906000526020600020905b815481529060010190602001808311611ab757829003601f168201915b50505050508152602001600282018054611aed90613795565b80601f0160208091040260200160405190810160405280929190818152602001828054611b1990613795565b8015611b665780601f10611b3b57610100808354040283529160200191611b66565b820191906000526020600020905b815481529060010190602001808311611b4957829003601f168201915b505050505081526020016003820160009054906101000a900460ff1660ff1660ff1681526020016003820160019054906101000a900473ffffffffffffffffffffffffffffffffffffffff1673ffffffffffffffffffffffffffffffffffffffff1673ffffffffffffffffffffffffffffffffffffffff168152602001600482018054611bf290613795565b80601f0160208091040260200160405190810160405280929190818152602001828054611c1e90613795565b8015611c6b5780601f10611c4057610100808354040283529160200191611c6b565b820191906000526020600020905b815481529060010190602001808311611c4e57829003601f168201915b5050505050815250509050919050565b600073ffffffffffffffffffffffffffffffffffffffff16600360008473ffffffffffffffffffffffffffffffffffffffff1673ffffffffffffffffffffffffffffffffffffffff16815260200190815260200160002060030160019054906101000a900473ffffffffffffffffffffffffffffffffffffffff1673ffffffffffffffffffffffffffffffffffffffff161415611d4d576040517f08c379a0000000000000000000000000000000000000000000000000000000008152600401611d44906133fd565b60405180910390fd5b60011515600760008473ffffffffffffffffffffffffffffffffffffffff1673ffffffffffffffffffffffffffffffffffffffff16815260200190815260200160002060008373ffffffffffffffffffffffffffffffffffffffff1673ffffffffffffffffffffffffffffffffffffffff16815260200190815260200160002060009054906101000a900460ff16151514611e1d576040517f08c379a0000000000000000000000000000000000000000000000000000000008152600401611e14906133dd565b60405180910390fd5b6000600760008473ffffffffffffffffffffffffffffffffffffffff1673ffffffffffffffffffffffffffffffffffffffff16815260200190815260200160002060008373ffffffffffffffffffffffffffffffffffffffff1673ffffffffffffffffffffffffffffffffffffffff16815260200190815260200160002060006101000a81548160ff0219169083151502179055505050565b60066020528060005260406000206000915054906101000a900461ffff1681565b600073ffffffffffffffffffffffffffffffffffffffff16600360008373ffffffffffffffffffffffffffffffffffffffff1673ffffffffffffffffffffffffffffffffffffffff16815260200190815260200160002060030160019054906101000a900473ffffffffffffffffffffffffffffffffffffffff1673ffffffffffffffffffffffffffffffffffffffff161415611fa9576040517f08c379a0000000000000000000000000000000000000000000000000000000008152600401611fa0906133fd565b60405180910390fd5b6001600560008373ffffffffffffffffffffffffffffffffffffffff1673ffffffffffffffffffffffffffffffffffffffff1681526020019081526020016000206000828254611ff99190613670565b9250508190555050565b60056020528060005260406000206000915090505481565b60008073ffffffffffffffffffffffffffffffffffffffff16600360008473ffffffffffffffffffffffffffffffffffffffff1673ffffffffffffffffffffffffffffffffffffffff16815260200190815260200160002060030160019054906101000a900473ffffffffffffffffffffffffffffffffffffffff1673ffffffffffffffffffffffffffffffffffffffff1614156120ee576040517f08c379a00000000000000000000000000000000000000000000000000000000081526004016120e5906133fd565b60405180910390fd5b600460008373ffffffffffffffffffffffffffffffffffffffff1673ffffffffffffffffffffffffffffffffffffffff168152602001908152602001600020549050919050565b60036020528060005260406000206000915090508060000160009054906101000a900461ffff169080600101805461216c90613795565b80601f016020809104026020016040519081016040528092919081815260200182805461219890613795565b80156121e55780601f106121ba576101008083540402835291602001916121e5565b820191906000526020600020905b8154815290600101906020018083116121c857829003601f168201915b5050505050908060020180546121fa90613795565b80601f016020809104026020016040519081016040528092919081815260200182805461222690613795565b80156122735780601f1061224857610100808354040283529160200191612273565b820191906000526020600020905b81548152906001019060200180831161225657829003601f168201915b5050505050908060030160009054906101000a900460ff16908060030160019054906101000a900473ffffffffffffffffffffffffffffffffffffffff16908060040180546122c190613795565b80601f01602080910402602001604051908101604052809291908181526020018280546122ed90613795565b801561233a5780601f1061230f5761010080835404028352916020019161233a565b820191906000526020600020905b81548152906001019060200180831161231d57829003601f168201915b5050505050905086565b600073ffffffffffffffffffffffffffffffffffffffff16600360008473ffffffffffffffffffffffffffffffffffffffff1673ffffffffffffffffffffffffffffffffffffffff16815260200190815260200160002060030160019054906101000a900473ffffffffffffffffffffffffffffffffffffffff1673ffffffffffffffffffffffffffffffffffffffff161415612416576040517f08c379a000000000000000000000000000000000000000000000000000000000815260040161240d906133fd565b60405180910390fd5b6001600760008473ffffffffffffffffffffffffffffffffffffffff1673ffffffffffffffffffffffffffffffffffffffff16815260200190815260200160002060008373ffffffffffffffffffffffffffffffffffffffff1673ffffffffffffffffffffffffffffffffffffffff16815260200190815260200160002060006101000a81548160ff0219169083151502179055505050565b60606000600984846040516124c59291906132d3565b9081526020016040518091039020805490501415612518576040517f08c379a000000000000000000000000000000000000000000000000000000000815260040161250f9061341d565b60405180910390fd5b60006009848460405161252c9291906132d3565b90815260200160405180910390208054806020026020016040519081016040528092919081815260200182805480156125ba57602002820191906000526020600020905b8160009054906101000a900473ffffffffffffffffffffffffffffffffffffffff1673ffffffffffffffffffffffffffffffffffffffff1681526020019060010190808311612570575b505050505090506000815167ffffffffffffffff811115612604577f4e487b7100000000000000000000000000000000000000000000000000000000600052604160045260246000fd5b60405190808252806020026020018201604052801561263d57816020015b61262a612a08565b8152602001906001900390816126225790505b50905060005b82518110156129765760036000848381518110612689577f4e487b7100000000000000000000000000000000000000000000000000000000600052603260045260246000fd5b602002602001015173ffffffffffffffffffffffffffffffffffffffff1673ffffffffffffffffffffffffffffffffffffffff1681526020019081526020016000206040518060c00160405290816000820160009054906101000a900461ffff1661ffff1661ffff16815260200160018201805461270690613795565b80601f016020809104026020016040519081016040528092919081815260200182805461273290613795565b801561277f5780601f106127545761010080835404028352916020019161277f565b820191906000526020600020905b81548152906001019060200180831161276257829003601f168201915b5050505050815260200160028201805461279890613795565b80601f01602080910402602001604051908101604052809291908181526020018280546127c490613795565b80156128115780601f106127e657610100808354040283529160200191612811565b820191906000526020600020905b8154815290600101906020018083116127f457829003601f168201915b505050505081526020016003820160009054906101000a900460ff1660ff1660ff1681526020016003820160019054906101000a900473ffffffffffffffffffffffffffffffffffffffff1673ffffffffffffffffffffffffffffffffffffffff1673ffffffffffffffffffffffffffffffffffffffff16815260200160048201805461289d90613795565b80601f01602080910402602001604051908101604052809291908181526020018280546128c990613795565b80156129165780601f106128eb57610100808354040283529160200191612916565b820191906000526020600020905b8154815290600101906020018083116128f957829003601f168201915b505050505081525050828281518110612958577f4e487b7100000000000000000000000000000000000000000000000000000000600052603260045260246000fd5b6020026020010181905250808061296e90613823565b915050612643565b50809250505092915050565b82805461298e90613795565b90600052602060002090601f0160209004810192826129b057600085556129f7565b82601f106129c957805160ff19168380011785556129f7565b828001600101855582156129f7579182015b828111156129f65782518255916020019190600101906129db565b5b509050612a049190612a9b565b5090565b6040518060c00160405280600061ffff1681526020016060815260200160608152602001600060ff168152602001600073ffffffffffffffffffffffffffffffffffffffff168152602001606081525090565b508054612a6790613795565b6000825580601f10612a795750612a98565b601f016020900490600052602060002090810190612a979190612a9b565b5b50565b5b80821115612ab4576000816000905550600101612a9c565b5090565b6000612acb612ac684613580565b61355b565b905082815260208101848484011115612ae357600080fd5b612aee848285613729565b509392505050565b600081359050612b05816139ae565b92915050565b60008083601f840112612b1d57600080fd5b8235905067ffffffffffffffff811115612b3657600080fd5b602083019150836001820283011115612b4e57600080fd5b9250929050565b600082601f830112612b6657600080fd5b8135612b76848260208601612ab8565b91505092915050565b600081359050612b8e816139c5565b92915050565b600081359050612ba3816139dc565b92915050565b600060208284031215612bbb57600080fd5b6000612bc984828501612af6565b91505092915050565b60008060408385031215612be557600080fd5b6000612bf385828601612af6565b9250506020612c0485828601612af6565b9150509250929050565b60008060408385031215612c2157600080fd5b6000612c2f85828601612af6565b9250506020612c4085828601612b7f565b9150509250929050565b60008060208385031215612c5d57600080fd5b600083013567ffffffffffffffff811115612c7757600080fd5b612c8385828601612b0b565b92509250509250929050565b600080600080600080600060c0888a031215612caa57600080fd5b600088013567ffffffffffffffff811115612cc457600080fd5b612cd08a828b01612b55565b975050602088013567ffffffffffffffff811115612ced57600080fd5b612cf98a828b01612b55565b9650506040612d0a8a828b01612b94565b9550506060612d1b8a828b01612af6565b945050608088013567ffffffffffffffff811115612d3857600080fd5b612d448a828b01612b55565b93505060a088013567ffffffffffffffff811115612d6157600080fd5b612d6d8a828b01612b0b565b925092505092959891949750929550565b60008060408385031215612d9157600080fd5b600083013567ffffffffffffffff811115612dab57600080fd5b612db785828601612b55565b9250506020612dc885828601612b7f565b9150509250929050565b600060208284031215612de457600080fd5b6000612df284828501612b7f565b91505092915050565b6000612e07838361310e565b905092915050565b6000612e1b838361314b565b905092915050565b612e2c816136c6565b82525050565b612e3b816136c6565b82525050565b6000612e4c826135e6565b612e568185613621565b935083602082028501612e68856135b1565b8060005b85811015612ea45784840389528151612e858582612dfb565b9450612e9083613607565b925060208a01995050600181019050612e6c565b50829750879550505050505092915050565b6000612ec1826135f1565b612ecb8185613632565b935083602082028501612edd856135c1565b8060005b85811015612f195784840389528151612efa8582612e0f565b9450612f0583613614565b925060208a01995050600181019050612ee1565b50829750879550505050505092915050565b612f34816136d8565b82525050565b6000612f468385613665565b9350612f53838584613729565b82840190509392505050565b6000612f6a826135fc565b612f748185613643565b9350612f84818560208601613738565b612f8d816138f9565b840191505092915050565b6000612fa3826135fc565b612fad8185613654565b9350612fbd818560208601613738565b612fc6816138f9565b840191505092915050565b6000612fdc826135fc565b612fe68185613665565b9350612ff6818560208601613738565b80840191505092915050565b6000815461300f81613795565b6130198186613654565b94506001821660008114613034576001811461304657613079565b60ff1983168652602086019350613079565b61304f856135d1565b60005b8381101561307157815481890152600182019150602081019050613052565b808801955050505b50505092915050565b600061308f601783613654565b915061309a8261390a565b602082019050919050565b60006130b2601383613654565b91506130bd82613933565b602082019050919050565b60006130d5601083613654565b91506130e08261395c565b602082019050919050565b60006130f8601a83613654565b915061310382613985565b602082019050919050565b60006040830160008301516131266000860182613297565b506020830151848203602086015261313e8282612f5f565b9150508091505092915050565b600060c0830160008301516131636000860182613279565b506020830151848203602086015261317b8282612f5f565b915050604083015184820360408601526131958282612f5f565b91505060608301516131aa60608601826132b5565b5060808301516131bd6080860182612e23565b5060a083015184820360a08601526131d58282612f5f565b9150508091505092915050565b600060c0830160008301516131fa6000860182613279565b50602083015184820360208601526132128282612f5f565b9150506040830151848203604086015261322c8282612f5f565b915050606083015161324160608601826132b5565b5060808301516132546080860182612e23565b5060a083015184820360a086015261326c8282612f5f565b9150508091505092915050565b613282816136e4565b82525050565b613291816136e4565b82525050565b6132a081613712565b82525050565b6132af81613712565b82525050565b6132be8161371c565b82525050565b6132cd8161371c565b82525050565b60006132e0828486612f3a565b91508190509392505050565b60006132f88284612fd1565b915081905092915050565b60006020820190506133186000830184612e32565b92915050565b600060208201905081810360008301526133388184612e41565b905092915050565b6000602082019050818103600083015261335a8184612eb6565b905092915050565b60006020820190506133776000830184612f2b565b92915050565b600060408201905081810360008301526133978185612f98565b90506133a66020830184612e32565b9392505050565b600060408201905081810360008301526133c78185613002565b90506133d66020830184612e32565b9392505050565b600060208201905081810360008301526133f681613082565b9050919050565b60006020820190508181036000830152613416816130a5565b9050919050565b60006020820190508181036000830152613436816130c8565b9050919050565b60006020820190508181036000830152613456816130eb565b9050919050565b6000602082019050818103600083015261347781846131e2565b905092915050565b60006020820190506134946000830184613288565b92915050565b600060c0820190506134af6000830189613288565b81810360208301526134c18188612f98565b905081810360408301526134d58187612f98565b90506134e460608301866132c4565b6134f16080830185612e32565b81810360a08301526135038184612f98565b9050979650505050505050565b600060208201905061352560008301846132a6565b92915050565b600060408201905061354060008301856132a6565b81810360208301526135528184612f98565b90509392505050565b6000613565613576565b905061357182826137c7565b919050565b6000604051905090565b600067ffffffffffffffff82111561359b5761359a6138ca565b5b6135a4826138f9565b9050602081019050919050565b6000819050602082019050919050565b6000819050602082019050919050565b60008190508160005260206000209050919050565b600081519050919050565b600081519050919050565b600081519050919050565b6000602082019050919050565b6000602082019050919050565b600082825260208201905092915050565b600082825260208201905092915050565b600082825260208201905092915050565b600082825260208201905092915050565b600081905092915050565b600061367b82613712565b915061368683613712565b9250827fffffffffffffffffffffffffffffffffffffffffffffffffffffffffffffffff038211156136bb576136ba61386c565b5b828201905092915050565b60006136d1826136f2565b9050919050565b60008115159050919050565b600061ffff82169050919050565b600073ffffffffffffffffffffffffffffffffffffffff82169050919050565b6000819050919050565b600060ff82169050919050565b82818337600083830152505050565b60005b8381101561375657808201518184015260208101905061373b565b83811115613765576000848401525b50505050565b6000613776826136e4565b9150600082141561378a5761378961386c565b5b600182039050919050565b600060028204905060018216806137ad57607f821691505b602082108114156137c1576137c061389b565b5b50919050565b6137d0826138f9565b810181811067ffffffffffffffff821117156137ef576137ee6138ca565b5b80604052505050565b6000613803826136e4565b915061ffff8214156138185761381761386c565b5b600182019050919050565b600061382e82613712565b91507fffffffffffffffffffffffffffffffffffffffffffffffffffffffffffffffff8214156138615761386061386c565b5b600182019050919050565b7f4e487b7100000000000000000000000000000000000000000000000000000000600052601160045260246000fd5b7f4e487b7100000000000000000000000000000000000000000000000000000000600052602260045260246000fd5b7f4e487b7100000000000000000000000000000000000000000000000000000000600052604160045260246000fd5b6000601f19601f8301169050919050565b7f41646472657373206973206e6f7420616e2061646d696e000000000000000000600082015250565b7f4461707020646f6573206e6f7420657869737400000000000000000000000000600082015250565b7f496e76616c69642063617465676f727900000000000000000000000000000000600082015250565b7f416464726573732073686f756c64206e6f74206265207a65726f000000000000600082015250565b6139b7816136c6565b81146139c257600080fd5b50565b6139ce81613712565b81146139d957600080fd5b50565b6139e58161371c565b81146139f057600080fd5b5056fea2646970667358221220dfe01950af5d1416c6b854649397434897c5a8670dd2008ceb72129042770a6d64736f6c63430008040033",
  "linkReferences": {},
  "deployedLinkReferences": {}
}