{
  "_format": "hh-sol-artifact-1",
  "contractName": "CheddaDappExplorer",
  "sourceName": "contracts/dappstore/CheddaDappExplorer.sol",
  "abi": [
    {
      "anonymous": false,
      "inputs": [
        {
          "indexed": true,
          "internalType": "address",
          "name": "previousOwner",
          "type": "address"
        },
        {
          "indexed": true,
          "internalType": "address",
          "name": "newOwner",
          "type": "address"
        }
      ],
      "name": "OwnershipTransferred",
      "type": "event"
    },
    {
      "anonymous": false,
      "inputs": [
        {
          "indexed": true,
          "internalType": "address",
          "name": "contractAddress",
          "type": "address"
        },
        {
          "indexed": true,
          "internalType": "address",
          "name": "user",
          "type": "address"
        },
        {
          "indexed": false,
          "internalType": "uint256",
          "name": "rating",
          "type": "uint256"
        }
      ],
      "name": "RatingAdded",
      "type": "event"
    },
    {
      "anonymous": false,
      "inputs": [
        {
          "indexed": true,
          "internalType": "address",
          "name": "contractAddress",
          "type": "address"
        },
        {
          "indexed": true,
          "internalType": "address",
          "name": "user",
          "type": "address"
        },
        {
          "indexed": false,
          "internalType": "uint256",
          "name": "rating",
          "type": "uint256"
        }
      ],
      "name": "ReviewAdded",
      "type": "event"
    },
    {
      "anonymous": false,
      "inputs": [
        {
          "indexed": true,
          "internalType": "address",
          "name": "contractAddress",
          "type": "address"
        },
        {
          "indexed": true,
          "internalType": "address",
          "name": "user",
          "type": "address"
        },
        {
          "indexed": true,
          "internalType": "uint256",
          "name": "reviewId",
          "type": "uint256"
        },
        {
          "indexed": false,
          "internalType": "int32",
          "name": "vote",
          "type": "int32"
        }
      ],
      "name": "ReviewVoted",
      "type": "event"
    },
    {
      "inputs": [],
      "name": "MAX_RATING",
      "outputs": [
        {
          "internalType": "uint16",
          "name": "",
          "type": "uint16"
        }
      ],
      "stateMutability": "view",
      "type": "function"
    },
    {
      "inputs": [],
      "name": "RATING_SCALE",
      "outputs": [
        {
          "internalType": "uint16",
          "name": "",
          "type": "uint16"
        }
      ],
      "stateMutability": "view",
      "type": "function"
    },
    {
      "inputs": [
        {
          "internalType": "address",
          "name": "contractAddress",
          "type": "address"
        },
        {
          "internalType": "uint256",
          "name": "rating",
          "type": "uint256"
        }
      ],
      "name": "addRating",
      "outputs": [],
      "stateMutability": "nonpayable",
      "type": "function"
    },
    {
      "inputs": [
        {
          "internalType": "address",
          "name": "contractAddress",
          "type": "address"
        },
        {
          "internalType": "string",
          "name": "reviewDataURI",
          "type": "string"
        },
        {
          "internalType": "uint256",
          "name": "rating",
          "type": "uint256"
        }
      ],
      "name": "addReview",
      "outputs": [],
      "stateMutability": "nonpayable",
      "type": "function"
    },
    {
      "inputs": [
        {
          "internalType": "address",
          "name": "contractAddress",
          "type": "address"
        }
      ],
      "name": "averageRating",
      "outputs": [
        {
          "internalType": "uint256",
          "name": "",
          "type": "uint256"
        }
      ],
      "stateMutability": "view",
      "type": "function"
    },
    {
      "inputs": [
        {
          "internalType": "uint256",
          "name": "count",
          "type": "uint256"
        },
        {
          "internalType": "address",
          "name": "contractAddress",
          "type": "address"
        }
      ],
      "name": "getLastReviews",
      "outputs": [
        {
          "components": [
            {
              "internalType": "uint256",
              "name": "id",
              "type": "uint256"
            },
            {
              "internalType": "string",
              "name": "contentURI",
              "type": "string"
            },
            {
              "internalType": "uint256",
              "name": "rating",
              "type": "uint256"
            },
            {
              "internalType": "uint256",
              "name": "timestamp",
              "type": "uint256"
            },
            {
              "internalType": "address",
              "name": "author",
              "type": "address"
            },
            {
              "internalType": "int32",
              "name": "credibility",
              "type": "int32"
            },
            {
              "internalType": "int32",
              "name": "spamCount",
              "type": "int32"
            }
          ],
          "internalType": "struct Review[]",
          "name": "",
          "type": "tuple[]"
        }
      ],
      "stateMutability": "view",
      "type": "function"
    },
    {
      "inputs": [
        {
          "internalType": "address",
          "name": "contractAddress",
          "type": "address"
        }
      ],
      "name": "getReviews",
      "outputs": [
        {
          "components": [
            {
              "internalType": "uint256",
              "name": "id",
              "type": "uint256"
            },
            {
              "internalType": "string",
              "name": "contentURI",
              "type": "string"
            },
            {
              "internalType": "uint256",
              "name": "rating",
              "type": "uint256"
            },
            {
              "internalType": "uint256",
              "name": "timestamp",
              "type": "uint256"
            },
            {
              "internalType": "address",
              "name": "author",
              "type": "address"
            },
            {
              "internalType": "int32",
              "name": "credibility",
              "type": "int32"
            },
            {
              "internalType": "int32",
              "name": "spamCount",
              "type": "int32"
            }
          ],
          "internalType": "struct Review[]",
          "name": "",
          "type": "tuple[]"
        }
      ],
      "stateMutability": "view",
      "type": "function"
    },
    {
      "inputs": [
        {
          "internalType": "address",
          "name": "contractAddress",
          "type": "address"
        },
        {
          "internalType": "uint256",
          "name": "start",
          "type": "uint256"
        },
        {
          "internalType": "uint256",
          "name": "end",
          "type": "uint256"
        }
      ],
      "name": "getReviewsBetween",
      "outputs": [
        {
          "components": [
            {
              "internalType": "uint256",
              "name": "id",
              "type": "uint256"
            },
            {
              "internalType": "string",
              "name": "contentURI",
              "type": "string"
            },
            {
              "internalType": "uint256",
              "name": "rating",
              "type": "uint256"
            },
            {
              "internalType": "uint256",
              "name": "timestamp",
              "type": "uint256"
            },
            {
              "internalType": "address",
              "name": "author",
              "type": "address"
            },
            {
              "internalType": "int32",
              "name": "credibility",
              "type": "int32"
            },
            {
              "internalType": "int32",
              "name": "spamCount",
              "type": "int32"
            }
          ],
          "internalType": "struct Review[]",
          "name": "",
          "type": "tuple[]"
        }
      ],
      "stateMutability": "view",
      "type": "function"
    },
    {
      "inputs": [
        {
          "internalType": "address",
          "name": "contractAddress",
          "type": "address"
        }
      ],
      "name": "getReviewsWithVotes",
      "outputs": [
        {
          "components": [
            {
              "components": [
                {
                  "internalType": "uint256",
                  "name": "id",
                  "type": "uint256"
                },
                {
                  "internalType": "string",
                  "name": "contentURI",
                  "type": "string"
                },
                {
                  "internalType": "uint256",
                  "name": "rating",
                  "type": "uint256"
                },
                {
                  "internalType": "uint256",
                  "name": "timestamp",
                  "type": "uint256"
                },
                {
                  "internalType": "address",
                  "name": "author",
                  "type": "address"
                },
                {
                  "internalType": "int32",
                  "name": "credibility",
                  "type": "int32"
                },
                {
                  "internalType": "int32",
                  "name": "spamCount",
                  "type": "int32"
                }
              ],
              "internalType": "struct Review",
              "name": "review",
              "type": "tuple"
            },
            {
              "internalType": "int32",
              "name": "myVote",
              "type": "int32"
            }
          ],
          "internalType": "struct ReviewWithVote[]",
          "name": "",
          "type": "tuple[]"
        }
      ],
      "stateMutability": "view",
      "type": "function"
    },
    {
      "inputs": [
        {
          "internalType": "address",
          "name": "contractAddress",
          "type": "address"
        }
      ],
      "name": "myRating",
      "outputs": [
        {
          "internalType": "uint256",
          "name": "",
          "type": "uint256"
        }
      ],
      "stateMutability": "view",
      "type": "function"
    },
    {
      "inputs": [
        {
          "internalType": "address",
          "name": "",
          "type": "address"
        },
        {
          "internalType": "address",
          "name": "",
          "type": "address"
        }
      ],
      "name": "myReviews",
      "outputs": [
        {
          "internalType": "uint256",
          "name": "",
          "type": "uint256"
        }
      ],
      "stateMutability": "view",
      "type": "function"
    },
    {
      "inputs": [
        {
          "internalType": "address",
          "name": "contractAddress",
          "type": "address"
        }
      ],
      "name": "numberOfRatings",
      "outputs": [
        {
          "internalType": "uint256",
          "name": "",
          "type": "uint256"
        }
      ],
      "stateMutability": "view",
      "type": "function"
    },
    {
      "inputs": [],
      "name": "owner",
      "outputs": [
        {
          "internalType": "address",
          "name": "",
          "type": "address"
        }
      ],
      "stateMutability": "view",
      "type": "function"
    },
    {
      "inputs": [
        {
          "internalType": "address",
          "name": "",
          "type": "address"
        }
      ],
      "name": "ratings",
      "outputs": [
        {
          "internalType": "uint256",
          "name": "",
          "type": "uint256"
        }
      ],
      "stateMutability": "view",
      "type": "function"
    },
    {
      "inputs": [
        {
          "internalType": "address",
          "name": "",
          "type": "address"
        }
      ],
      "name": "ratingsCount",
      "outputs": [
        {
          "internalType": "uint256",
          "name": "",
          "type": "uint256"
        }
      ],
      "stateMutability": "view",
      "type": "function"
    },
    {
      "inputs": [],
      "name": "registry",
      "outputs": [
        {
          "internalType": "contract CheddaAddressRegistry",
          "name": "",
          "type": "address"
        }
      ],
      "stateMutability": "view",
      "type": "function"
    },
    {
      "inputs": [],
      "name": "renounceOwnership",
      "outputs": [],
      "stateMutability": "nonpayable",
      "type": "function"
    },
    {
      "inputs": [
        {
          "internalType": "address",
          "name": "",
          "type": "address"
        },
        {
          "internalType": "uint256",
          "name": "",
          "type": "uint256"
        }
      ],
      "name": "reviewVotes",
      "outputs": [
        {
          "internalType": "int32",
          "name": "",
          "type": "int32"
        }
      ],
      "stateMutability": "view",
      "type": "function"
    },
    {
      "inputs": [
        {
          "internalType": "address",
          "name": "",
          "type": "address"
        },
        {
          "internalType": "uint256",
          "name": "",
          "type": "uint256"
        }
      ],
      "name": "reviews",
      "outputs": [
        {
          "internalType": "uint256",
          "name": "id",
          "type": "uint256"
        },
        {
          "internalType": "string",
          "name": "contentURI",
          "type": "string"
        },
        {
          "internalType": "uint256",
          "name": "rating",
          "type": "uint256"
        },
        {
          "internalType": "uint256",
          "name": "timestamp",
          "type": "uint256"
        },
        {
          "internalType": "address",
          "name": "author",
          "type": "address"
        },
        {
          "internalType": "int32",
          "name": "credibility",
          "type": "int32"
        },
        {
          "internalType": "int32",
          "name": "spamCount",
          "type": "int32"
        }
      ],
      "stateMutability": "view",
      "type": "function"
    },
    {
      "inputs": [],
      "name": "reviewsCount",
      "outputs": [
        {
          "internalType": "uint256",
          "name": "",
          "type": "uint256"
        }
      ],
      "stateMutability": "view",
      "type": "function"
    },
    {
      "inputs": [
        {
          "internalType": "address",
          "name": "newOwner",
          "type": "address"
        }
      ],
      "name": "transferOwnership",
      "outputs": [],
      "stateMutability": "nonpayable",
      "type": "function"
    },
    {
      "inputs": [
        {
          "internalType": "address",
          "name": "registryAddress",
          "type": "address"
        }
      ],
      "name": "updateRegistry",
      "outputs": [],
      "stateMutability": "nonpayable",
      "type": "function"
    },
    {
      "inputs": [
        {
          "internalType": "address",
          "name": "",
          "type": "address"
        },
        {
          "internalType": "address",
          "name": "",
          "type": "address"
        }
      ],
      "name": "userRatings",
      "outputs": [
        {
          "internalType": "uint256",
          "name": "",
          "type": "uint256"
        }
      ],
      "stateMutability": "view",
      "type": "function"
    },
    {
      "inputs": [
        {
          "internalType": "address",
          "name": "contractAddress",
          "type": "address"
        },
        {
          "internalType": "uint256",
          "name": "reviewId",
          "type": "uint256"
        },
        {
          "internalType": "int32",
          "name": "vote",
          "type": "int32"
        }
      ],
      "name": "voteOnReview",
      "outputs": [],
      "stateMutability": "nonpayable",
      "type": "function"
    }
  ],
  "bytecode": "0x608060405234801561001057600080fd5b5061001a3361001f565b61006f565b600080546001600160a01b038381166001600160a01b0319831681178455604051919092169283917f8be0079c531659141344cd1fd0a4f28419497f9722a3daafe3b4186f6b6457e09190a35050565b612e1b806200007f6000396000f3fe608060405234801561001057600080fd5b50600436106101585760003560e01c80638da5cb5b116100c3578063db5c19831161007c578063db5c19831461033b578063e7fee98f1461037c578063ea751d8714610385578063f2fde38b146103b0578063f4f98eab146103c3578063f720015f146103d657600080fd5b80638da5cb5b146102a857806394e113ea146102b95780639e01dfbb146102d5578063a12bb37f146102f5578063ba92fb9d14610308578063cab655e41461031b57600080fd5b80636a3517d2116101155780636a3517d2146102095780636db3328f1461022957806370370a811461024f578063715018a61461026257806374b6e5bb1461026a5780637b1039991461027d57600080fd5b80630b8d70a81461015d5780631a5da6c8146101835780632c3ca4061461019857806349c74ad3146101ab5780634ef5a017146101d65780635e007b88146101f6575b600080fd5b61017061016b36600461268a565b6103de565b6040519081526020015b60405180910390f35b61019661019136600461268a565b610547565b005b6101966101a63660046127bd565b6105cd565b6101706101b93660046126c9565b600760209081526000928352604080842090915290825290205481565b6101e96101e436600461268a565b6109cf565b60405161017a9190612a53565b61017061020436600461268a565b610c6e565b61021c61021736600461268a565b610dd4565b60405161017a91906129db565b61023c610237366004612792565b611158565b60405161017a9796959493929190612b7a565b61019661025d366004612792565b611254565b61019661154f565b6101e9610278366004612804565b611585565b600154610290906001600160a01b031681565b6040516001600160a01b03909116815260200161017a565b6000546001600160a01b0316610290565b6102c26101f481565b60405161ffff909116815260200161017a565b6101706102e336600461268a565b60026020526000908152604090205481565b6101e9610303366004612920565b6118a2565b610196610316366004612701565b611d87565b61017061032936600461268a565b60036020526000908152604090205481565b610369610349366004612792565b600860209081526000928352604080842090915290825290205460030b81565b60405160039190910b815260200161017a565b61017060065481565b6101706103933660046126c9565b600460209081526000928352604080842090915290825290205481565b6101966103be36600461268a565b61212a565b6101706103d136600461268a565b6121c2565b6102c2606481565b60008160006001600160a01b0316600160009054906101000a90046001600160a01b03166001600160a01b0316638dbe772a6040518163ffffffff1660e01b815260040160206040518083038186803b15801561043a57600080fd5b505afa15801561044e573d6000803e3d6000fd5b505050506040513d601f19601f8201168201806040525081019061047291906126ad565b60405163496bd3df60e01b81526001600160a01b038481166004830152919091169063496bd3df9060240160006040518083038186803b1580156104b557600080fd5b505afa1580156104c9573d6000803e3d6000fd5b505050506040513d6000823e601f3d908101601f191682016040526104f19190810190612838565b606001516001600160a01b031614156105255760405162461bcd60e51b815260040161051c90612b4d565b60405180910390fd5b6001600160a01b03831660009081526003602052604090205491505b50919050565b6000546001600160a01b031633146105715760405162461bcd60e51b815260040161051c90612b18565b600180546001600160a01b0319166001600160a01b03831617905560408051808201909152601781527f7570646174696e6720726567697374727920746f20257300000000000000000060208201526105ca9082612354565b50565b8260006001600160a01b0316600160009054906101000a90046001600160a01b03166001600160a01b0316638dbe772a6040518163ffffffff1660e01b815260040160206040518083038186803b15801561062757600080fd5b505afa15801561063b573d6000803e3d6000fd5b505050506040513d601f19601f8201168201806040525081019061065f91906126ad565b60405163496bd3df60e01b81526001600160a01b038481166004830152919091169063496bd3df9060240160006040518083038186803b1580156106a257600080fd5b505afa1580156106b6573d6000803e3d6000fd5b505050506040513d6000823e601f3d908101601f191682016040526106de9190810190612838565b606001516001600160a01b031614156107095760405162461bcd60e51b815260040161051c90612b4d565b8160030b6001148061071f57508160030b600019145b61075a5760405162461bcd60e51b815260206004820152600c60248201526b496e76616c696420766f746560a01b604482015260640161051c565b336000908152600860209081526040808320868452909152902054600390810b900b156107b95760405162461bcd60e51b815260206004820152600d60248201526c105b1c9958591e481d9bdd1959609a1b604482015260640161051c565b6001600160a01b038416600090815260056020526040812090805b825481101561092557858382815481106107fe57634e487b7160e01b600052603260045260246000fd5b906000526020600020906005020160000154141561091357336001600160a01b031683828154811061084057634e487b7160e01b600052603260045260246000fd5b60009182526020909120600460059092020101546001600160a01b0316141561089c5760405162461bcd60e51b815260206004820152600e60248201526d496e76616c69642072657669657760901b604482015260640161051c565b848382815481106108bd57634e487b7160e01b600052603260045260246000fd5b906000526020600020906005020160040160148282829054906101000a900460030b6108e99190612c4f565b92506101000a81548163ffffffff021916908360030b63ffffffff16021790555060019150610925565b8061091d81612d3f565b9150506107d4565b5080156109c7573360009081526008602090815260408083208884529091529020805463ffffffff191663ffffffff600387900b9081169190911790915561097e90600114610975576001610978565b60005b3361239d565b8433604051600387900b81526001600160a01b03918216918916907ff26f5e022e9b0928e6ae70797ff55b0edfdde296bd9fd1126fa10f71e100d2669060200160405180910390a45b505050505050565b60608160006001600160a01b0316600160009054906101000a90046001600160a01b03166001600160a01b0316638dbe772a6040518163ffffffff1660e01b815260040160206040518083038186803b158015610a2b57600080fd5b505afa158015610a3f573d6000803e3d6000fd5b505050506040513d601f19601f82011682018060405250810190610a6391906126ad565b60405163496bd3df60e01b81526001600160a01b038481166004830152919091169063496bd3df9060240160006040518083038186803b158015610aa657600080fd5b505afa158015610aba573d6000803e3d6000fd5b505050506040513d6000823e601f3d908101601f19168201604052610ae29190810190612838565b606001516001600160a01b03161415610b0d5760405162461bcd60e51b815260040161051c90612b4d565b6001600160a01b038316600090815260056020908152604080832080548251818502810185019093528083529193909284015b82821015610c6257838290600052602060002090600502016040518060e001604052908160008201548152602001600182018054610b7d90612d0a565b80601f0160208091040260200160405190810160405280929190818152602001828054610ba990612d0a565b8015610bf65780601f10610bcb57610100808354040283529160200191610bf6565b820191906000526020600020905b815481529060010190602001808311610bd957829003601f168201915b5050509183525050600282015460208083019190915260038084015460408401526004909301546001600160a01b0381166060840152600160a01b8104840b840b840b6080840152600160c01b9004830b830b90920b60a0909101529082526001929092019101610b40565b50505050915050919050565b60008160006001600160a01b0316600160009054906101000a90046001600160a01b03166001600160a01b0316638dbe772a6040518163ffffffff1660e01b815260040160206040518083038186803b158015610cca57600080fd5b505afa158015610cde573d6000803e3d6000fd5b505050506040513d601f19601f82011682018060405250810190610d0291906126ad565b60405163496bd3df60e01b81526001600160a01b038481166004830152919091169063496bd3df9060240160006040518083038186803b158015610d4557600080fd5b505afa158015610d59573d6000803e3d6000fd5b505050506040513d6000823e601f3d908101601f19168201604052610d819190810190612838565b606001516001600160a01b03161415610dac5760405162461bcd60e51b815260040161051c90612b4d565b50506001600160a01b0316600090815260046020908152604080832033845290915290205490565b60608160006001600160a01b0316600160009054906101000a90046001600160a01b03166001600160a01b0316638dbe772a6040518163ffffffff1660e01b815260040160206040518083038186803b158015610e3057600080fd5b505afa158015610e44573d6000803e3d6000fd5b505050506040513d601f19601f82011682018060405250810190610e6891906126ad565b60405163496bd3df60e01b81526001600160a01b038481166004830152919091169063496bd3df9060240160006040518083038186803b158015610eab57600080fd5b505afa158015610ebf573d6000803e3d6000fd5b505050506040513d6000823e601f3d908101601f19168201604052610ee79190810190612838565b606001516001600160a01b03161415610f125760405162461bcd60e51b815260040161051c90612b4d565b6001600160a01b03831660009081526005602052604081205467ffffffffffffffff811115610f5157634e487b7160e01b600052604160045260246000fd5b604051908082528060200260200182016040528015610f8a57816020015b610f776124f3565b815260200190600190039081610f6f5790505b50905060005b8151811015611150576001600160a01b0385166000908152600560205260408120805483908110610fd157634e487b7160e01b600052603260045260246000fd5b906000526020600020906005020190506040518060400160405280826040518060e00160405290816000820154815260200160018201805461101290612d0a565b80601f016020809104026020016040519081016040528092919081815260200182805461103e90612d0a565b801561108b5780601f106110605761010080835404028352916020019161108b565b820191906000526020600020905b81548152906001019060200180831161106e57829003601f168201915b505050918352505060028201546020808301919091526003808401546040808501919091526004909401546001600160a01b0381166060850152600160a01b8104820b820b820b6080850152600160c01b9004810b810b810b60a090930192909252928452336000908152600884528281208754825284529190912054810b900b910152835184908490811061113157634e487b7160e01b600052603260045260246000fd5b602002602001018190525050808061114890612d3f565b915050610f90565b509392505050565b6005602052816000526040600020818154811061117457600080fd5b90600052602060002090600502016000915091505080600001549080600101805461119e90612d0a565b80601f01602080910402602001604051908101604052809291908181526020018280546111ca90612d0a565b80156112175780601f106111ec57610100808354040283529160200191611217565b820191906000526020600020905b8154815290600101906020018083116111fa57829003601f168201915b5050506002840154600380860154600490960154949591949193506001600160a01b0382169250600160a01b8204810b91600160c01b9004900b87565b8160006001600160a01b0316600160009054906101000a90046001600160a01b03166001600160a01b0316638dbe772a6040518163ffffffff1660e01b815260040160206040518083038186803b1580156112ae57600080fd5b505afa1580156112c2573d6000803e3d6000fd5b505050506040513d601f19601f820116820180604052508101906112e691906126ad565b60405163496bd3df60e01b81526001600160a01b038481166004830152919091169063496bd3df9060240160006040518083038186803b15801561132957600080fd5b505afa15801561133d573d6000803e3d6000fd5b505050506040513d6000823e601f3d908101601f191682016040526113659190810190612838565b606001516001600160a01b031614156113905760405162461bcd60e51b815260040161051c90612b4d565b6001600160a01b0383166000908152600460209081526040808320338452909152902054156113f15760405162461bcd60e51b815260206004820152600d60248201526c105b1c9958591e481c985d1959609a1b604482015260640161051c565b816114345760405162461bcd60e51b81526020600482015260136024820152720526174696e672063616e206e6f74206265203606c1b604482015260640161051c565b61143f606483612d7a565b15801561144e57506101f48211155b61148b5760405162461bcd60e51b815260206004820152600e60248201526d496e76616c696420726174696e6760901b604482015260640161051c565b6001600160a01b038316600081815260046020908152604080832033845282528083208690559282526002905290812080548492906114cb908490612c97565b90915550506001600160a01b03831660009081526003602052604081208054600192906114f9908490612c97565b9091555061150a905060043361239d565b60405182815233906001600160a01b038516907f2b8a6f035e2a31b4fcdef20e9217eff649ead8db9add54b5531cd04043b069d29060200160405180910390a3505050565b6000546001600160a01b031633146115795760405162461bcd60e51b815260040161051c90612b18565b6115836000612482565b565b60608360006001600160a01b0316600160009054906101000a90046001600160a01b03166001600160a01b0316638dbe772a6040518163ffffffff1660e01b815260040160206040518083038186803b1580156115e157600080fd5b505afa1580156115f5573d6000803e3d6000fd5b505050506040513d601f19601f8201168201806040525081019061161991906126ad565b60405163496bd3df60e01b81526001600160a01b038481166004830152919091169063496bd3df9060240160006040518083038186803b15801561165c57600080fd5b505afa158015611670573d6000803e3d6000fd5b505050506040513d6000823e601f3d908101601f191682016040526116989190810190612838565b606001516001600160a01b031614156116c35760405162461bcd60e51b815260040161051c90612b4d565b6001600160a01b038516600090815260056020908152604080832080548251818502810185019093528083529192909190849084015b8282101561181b57838290600052602060002090600502016040518060e00160405290816000820154815260200160018201805461173690612d0a565b80601f016020809104026020016040519081016040528092919081815260200182805461176290612d0a565b80156117af5780601f10611784576101008083540402835291602001916117af565b820191906000526020600020905b81548152906001019060200180831161179257829003601f168201915b5050509183525050600282015460208083019190915260038084015460408401526004909301546001600160a01b0381166060840152600160a01b8104840b840b840b6080840152600160c01b9004830b830b90920b60a09091015290825260019290920191016116f9565b5050505090506000805b825181101561189657600083828151811061185057634e487b7160e01b600052603260045260246000fd5b602002602001015190508781606001511180156118705750868160600151105b15611883578261187f81612d5a565b9350505b508061188e81612d3f565b915050611825565b50909695505050505050565b60608160006001600160a01b0316600160009054906101000a90046001600160a01b03166001600160a01b0316638dbe772a6040518163ffffffff1660e01b815260040160206040518083038186803b1580156118fe57600080fd5b505afa158015611912573d6000803e3d6000fd5b505050506040513d601f19601f8201168201806040525081019061193691906126ad565b60405163496bd3df60e01b81526001600160a01b038481166004830152919091169063496bd3df9060240160006040518083038186803b15801561197957600080fd5b505afa15801561198d573d6000803e3d6000fd5b505050506040513d6000823e601f3d908101601f191682016040526119b59190810190612838565b606001516001600160a01b031614156119e05760405162461bcd60e51b815260040161051c90612b4d565b6001600160a01b0383166000908152600560205260409020548410611b5f576001600160a01b038316600090815260056020908152604080832080548251818502810185019093528083529193909284015b82821015611b5457838290600052602060002090600502016040518060e001604052908160008201548152602001600182018054611a6f90612d0a565b80601f0160208091040260200160405190810160405280929190818152602001828054611a9b90612d0a565b8015611ae85780601f10611abd57610100808354040283529160200191611ae8565b820191906000526020600020905b815481529060010190602001808311611acb57829003601f168201915b5050509183525050600282015460208083019190915260038084015460408401526004909301546001600160a01b0381166060840152600160a01b8104840b840b840b6080840152600160c01b9004830b830b90920b60a0909101529082526001929092019101611a32565b505050509150611d80565b60008467ffffffffffffffff811115611b8857634e487b7160e01b600052604160045260246000fd5b604051908082528060200260200182016040528015611bc157816020015b611bae612513565b815260200190600190039081611ba65790505b506001600160a01b03851660009081526005602052604081205491925080611be98884612cc3565b90505b82811015611d79576001600160a01b0387166000908152600560205260409020805482908110611c2c57634e487b7160e01b600052603260045260246000fd5b90600052602060002090600502016040518060e001604052908160008201548152602001600182018054611c5f90612d0a565b80601f0160208091040260200160405190810160405280929190818152602001828054611c8b90612d0a565b8015611cd85780601f10611cad57610100808354040283529160200191611cd8565b820191906000526020600020905b815481529060010190602001808311611cbb57829003601f168201915b50505091835250506002820154602082015260038083015460408301526004909201546001600160a01b0381166060830152600160a01b8104830b830b830b6080830152600160c01b9004820b820b90910b60a0909101528483611d3b81612d3f565b945081518110611d5b57634e487b7160e01b600052603260045260246000fd5b60200260200101819052508080611d7190612d3f565b915050611bec565b5091935050505b5092915050565b8260006001600160a01b0316600160009054906101000a90046001600160a01b03166001600160a01b0316638dbe772a6040518163ffffffff1660e01b815260040160206040518083038186803b158015611de157600080fd5b505afa158015611df5573d6000803e3d6000fd5b505050506040513d601f19601f82011682018060405250810190611e1991906126ad565b60405163496bd3df60e01b81526001600160a01b038481166004830152919091169063496bd3df9060240160006040518083038186803b158015611e5c57600080fd5b505afa158015611e70573d6000803e3d6000fd5b505050506040513d6000823e601f3d908101601f19168201604052611e989190810190612838565b606001516001600160a01b03161415611ec35760405162461bcd60e51b815260040161051c90612b4d565b6001600160a01b038416600090815260076020908152604080832033845290915290205415611f275760405162461bcd60e51b815260206004820152601060248201526f105b1c9958591e481c995d9a595dd95960821b604482015260640161051c565b60006040518060e00160405280600660008154611f4390612d3f565b9190508190558152602001858152602001848152602001428152602001611f673390565b6001600160a01b03908116825260006020830181905260409283015290516370370a8160e01b815290871660048201526024810185905290915030906370370a8190604401600060405180830381600087803b158015611fc657600080fd5b505af1158015611fda573d6000803e3d6000fd5b505050506001600160a01b038516600090815260056020818152604083208054600180820183559185529382902085519490930290920192835583810151805185949361202c9390850192019061255f565b506040828101516002830155606083015160038084019190915560808401516004909301805460a086015160c090960151830b63ffffffff908116600160c01b0263ffffffff60c01b199790940b16600160a01b026001600160c01b03199091166001600160a01b03958616171794909416179092556006549087166000908152600760205291822090916120be3390565b6001600160a01b031681526020810191909152604001600020556120e360053361239d565b60405183815233906001600160a01b038716907fa4d3fa20e3766f0da095473fcbd09a36312b9241aaca0b5a6924290a9c9add959060200160405180910390a35050505050565b6000546001600160a01b031633146121545760405162461bcd60e51b815260040161051c90612b18565b6001600160a01b0381166121b95760405162461bcd60e51b815260206004820152602660248201527f4f776e61626c653a206e6577206f776e657220697320746865207a65726f206160448201526564647265737360d01b606482015260840161051c565b6105ca81612482565b60008160006001600160a01b0316600160009054906101000a90046001600160a01b03166001600160a01b0316638dbe772a6040518163ffffffff1660e01b815260040160206040518083038186803b15801561221e57600080fd5b505afa158015612232573d6000803e3d6000fd5b505050506040513d601f19601f8201168201806040525081019061225691906126ad565b60405163496bd3df60e01b81526001600160a01b038481166004830152919091169063496bd3df9060240160006040518083038186803b15801561229957600080fd5b505afa1580156122ad573d6000803e3d6000fd5b505050506040513d6000823e601f3d908101601f191682016040526122d59190810190612838565b606001516001600160a01b031614156123005760405162461bcd60e51b815260040161051c90612b4d565b6001600160a01b03831660009081526003602052604090205480612328576000925050610541565b6001600160a01b03841660009081526002602052604090205461234c908290612caf565b949350505050565b612399828260405160240161236a929190612aee565b60408051601f198184030181529190526020810180516001600160e01b031663319af33360e01b1790526124d2565b5050565b600154604080516327b16a2560e21b815290516000926001600160a01b031691639ec5a894916004808301926020929190829003018186803b1580156123e257600080fd5b505afa1580156123f6573d6000803e3d6000fd5b505050506040513d601f19601f8201168201806040525081019061241a91906126ad565b604051635ab1ad4160e11b81529091506001600160a01b0382169063b5635a829061244b9086908690600401612ab4565b600060405180830381600087803b15801561246557600080fd5b505af1158015612479573d6000803e3d6000fd5b50505050505050565b600080546001600160a01b038381166001600160a01b0319831681178455604051919092169283917f8be0079c531659141344cd1fd0a4f28419497f9722a3daafe3b4186f6b6457e09190a35050565b80516a636f6e736f6c652e6c6f67602083016000808483855afa5050505050565b6040518060400160405280612506612513565b8152600060209091015290565b6040518060e001604052806000815260200160608152602001600081526020016000815260200160006001600160a01b03168152602001600060030b8152602001600060030b81525090565b82805461256b90612d0a565b90600052602060002090601f01602090048101928261258d57600085556125d3565b82601f106125a657805160ff19168380011785556125d3565b828001600101855582156125d3579182015b828111156125d35782518255916020019190600101906125b8565b506125df9291506125e3565b5090565b5b808211156125df57600081556001016125e4565b805161260381612dd0565b919050565b8051801515811461260357600080fd5b600082601f830112612628578081fd5b815161263b61263682612c27565b612bf6565b81815284602083860101111561264f578283fd5b61234c826020830160208701612cda565b805161ffff8116811461260357600080fd5b805167ffffffffffffffff8116811461260357600080fd5b60006020828403121561269b578081fd5b81356126a681612dd0565b9392505050565b6000602082840312156126be578081fd5b81516126a681612dd0565b600080604083850312156126db578081fd5b82356126e681612dd0565b915060208301356126f681612dd0565b809150509250929050565b600080600060608486031215612715578081fd5b833561272081612dd0565b9250602084013567ffffffffffffffff81111561273b578182fd5b8401601f8101861361274b578182fd5b803561275961263682612c27565b81815287602083850101111561276d578384fd5b8160208401602083013790810160200192909252509194919350506040919091013590565b600080604083850312156127a4578182fd5b82356127af81612dd0565b946020939093013593505050565b6000806000606084860312156127d1578283fd5b83356127dc81612dd0565b9250602084013591506040840135600381900b81146127f9578182fd5b809150509250925092565b600080600060608486031215612818578283fd5b833561282381612dd0565b95602085013595506040909401359392505050565b600060208284031215612849578081fd5b815167ffffffffffffffff80821115612860578283fd5b908301906101008286031215612874578283fd5b61287c612bcc565b61288583612660565b8152602083015182811115612898578485fd5b6128a487828601612618565b6020830152506128b660408401612672565b60408201526128c7606084016125f8565b60608201526080830151828111156128dd578485fd5b6128e987828601612618565b6080830152506128fb60a08401612608565b60a082015260c083015160c082015260e083015160e082015280935050505092915050565b60008060408385031215612932578182fd5b8235915060208301356126f681612dd0565b6000815180845261295c816020860160208601612cda565b601f01601f19169290920160200192915050565b805182526000602082015160e0602085015261298f60e0850182612944565b9050604083015160408501526060830151606085015260018060a01b03608084015116608085015260a083015160030b60a085015260c083015160030b60c08501528091505092915050565b60006020808301818452808551808352604092508286019150828160051b870101848801865b83811015612a4557888303603f1901855281518051878552612a2588860182612970565b9189015160030b9489019490945294870194925090860190600101612a01565b509098975050505050505050565b6000602080830181845280855180835260408601915060408160051b8701019250838701855b82811015612aa757603f19888603018452612a95858351612970565b94509285019290850190600101612a79565b5092979650505050505050565b6040810160088410612ad657634e487b7160e01b600052602160045260246000fd5b9281526001600160a01b039190911660209091015290565b604081526000612b016040830185612944565b905060018060a01b03831660208301529392505050565b6020808252818101527f4f776e61626c653a2063616c6c6572206973206e6f7420746865206f776e6572604082015260600190565b60208082526013908201527211185c1c08191bd95cc81b9bdd08195e1a5cdd606a1b604082015260600190565b87815260e060208201526000612b9360e0830189612944565b60408301979097525060608101949094526001600160a01b03929092166080840152600390810b60a08401520b60c09091015292915050565b604051610100810167ffffffffffffffff81118282101715612bf057612bf0612dba565b60405290565b604051601f8201601f1916810167ffffffffffffffff81118282101715612c1f57612c1f612dba565b604052919050565b600067ffffffffffffffff821115612c4157612c41612dba565b50601f01601f191660200190565b60008160030b8360030b82821282637fffffff03821381151615612c7557612c75612d8e565b82637fffffff19038212811615612c8e57612c8e612d8e565b50019392505050565b60008219821115612caa57612caa612d8e565b500190565b600082612cbe57612cbe612da4565b500490565b600082821015612cd557612cd5612d8e565b500390565b60005b83811015612cf5578181015183820152602001612cdd565b83811115612d04576000848401525b50505050565b600181811c90821680612d1e57607f821691505b6020821081141561054157634e487b7160e01b600052602260045260246000fd5b6000600019821415612d5357612d53612d8e565b5060010190565b600060ff821660ff811415612d7157612d71612d8e565b60010192915050565b600082612d8957612d89612da4565b500690565b634e487b7160e01b600052601160045260246000fd5b634e487b7160e01b600052601260045260246000fd5b634e487b7160e01b600052604160045260246000fd5b6001600160a01b03811681146105ca57600080fdfea2646970667358221220ff09c731396d19325becef117d37806321151dedf5a116ba414dc42463c23dc164736f6c63430008040033",
  "linkReferences": {},
  "deployedLinkReferences": {}
}