{
  "_format": "hh-sol-artifact-1",
  "contractName": "CheddaLoanManager",
  "sourceName": "contracts/lending/LoanManager.sol",
  "abi": [
    {
      "inputs": [
        {
          "internalType": "address",
          "name": "token",
          "type": "address"
        }
      ],
      "stateMutability": "nonpayable",
      "type": "constructor"
    },
    {
      "anonymous": false,
      "inputs": [
        {
          "indexed": true,
          "internalType": "address",
          "name": "by",
          "type": "address"
        },
        {
          "indexed": true,
          "internalType": "address",
          "name": "foreclosedOn",
          "type": "address"
        }
      ],
      "name": "LoanForeclosed",
      "type": "event"
    },
    {
      "anonymous": false,
      "inputs": [
        {
          "indexed": true,
          "internalType": "address",
          "name": "openedByLender",
          "type": "address"
        },
        {
          "indexed": true,
          "internalType": "address",
          "name": "borrower",
          "type": "address"
        },
        {
          "indexed": true,
          "internalType": "uint256",
          "name": "loanRequestId",
          "type": "uint256"
        },
        {
          "indexed": false,
          "internalType": "uint256",
          "name": "amount",
          "type": "uint256"
        }
      ],
      "name": "LoanOpened",
      "type": "event"
    },
    {
      "anonymous": false,
      "inputs": [
        {
          "indexed": true,
          "internalType": "address",
          "name": "repaidByBorrower",
          "type": "address"
        },
        {
          "indexed": true,
          "internalType": "address",
          "name": "lender",
          "type": "address"
        },
        {
          "indexed": false,
          "internalType": "uint256",
          "name": "repaymentAmount",
          "type": "uint256"
        }
      ],
      "name": "LoanRepaid",
      "type": "event"
    },
    {
      "anonymous": false,
      "inputs": [
        {
          "indexed": true,
          "internalType": "address",
          "name": "by",
          "type": "address"
        },
        {
          "indexed": true,
          "internalType": "address",
          "name": "nftContract",
          "type": "address"
        },
        {
          "indexed": true,
          "internalType": "uint256",
          "name": "tokenId",
          "type": "uint256"
        },
        {
          "indexed": false,
          "internalType": "uint256",
          "name": "amount",
          "type": "uint256"
        }
      ],
      "name": "LoanRequested",
      "type": "event"
    },
    {
      "anonymous": false,
      "inputs": [
        {
          "indexed": true,
          "internalType": "address",
          "name": "previousOwner",
          "type": "address"
        },
        {
          "indexed": true,
          "internalType": "address",
          "name": "newOwner",
          "type": "address"
        }
      ],
      "name": "OwnershipTransferred",
      "type": "event"
    },
    {
      "anonymous": false,
      "inputs": [
        {
          "indexed": true,
          "internalType": "address",
          "name": "by",
          "type": "address"
        },
        {
          "indexed": true,
          "internalType": "uint256",
          "name": "requestId",
          "type": "uint256"
        }
      ],
      "name": "RequestCancelled",
      "type": "event"
    },
    {
      "inputs": [
        {
          "internalType": "uint256",
          "name": "principal",
          "type": "uint256"
        },
        {
          "internalType": "uint256",
          "name": "duration",
          "type": "uint256"
        }
      ],
      "name": "calculateRepaymentAmount",
      "outputs": [
        {
          "internalType": "uint256",
          "name": "",
          "type": "uint256"
        }
      ],
      "stateMutability": "view",
      "type": "function"
    },
    {
      "inputs": [
        {
          "internalType": "uint256",
          "name": "requestId",
          "type": "uint256"
        }
      ],
      "name": "cancelRequest",
      "outputs": [],
      "stateMutability": "nonpayable",
      "type": "function"
    },
    {
      "inputs": [
        {
          "internalType": "uint256",
          "name": "loanID",
          "type": "uint256"
        }
      ],
      "name": "foreclose",
      "outputs": [],
      "stateMutability": "nonpayable",
      "type": "function"
    },
    {
      "inputs": [
        {
          "internalType": "address",
          "name": "user",
          "type": "address"
        },
        {
          "internalType": "enum CheddaLoanManager.RequestState",
          "name": "state",
          "type": "uint8"
        }
      ],
      "name": "getLoanRequests",
      "outputs": [
        {
          "components": [
            {
              "internalType": "uint256",
              "name": "requestID",
              "type": "uint256"
            },
            {
              "internalType": "address",
              "name": "nftContract",
              "type": "address"
            },
            {
              "internalType": "uint256",
              "name": "tokenID",
              "type": "uint256"
            },
            {
              "internalType": "uint256",
              "name": "loanLength",
              "type": "uint256"
            },
            {
              "internalType": "address",
              "name": "borrower",
              "type": "address"
            },
            {
              "internalType": "uint256",
              "name": "amount",
              "type": "uint256"
            },
            {
              "internalType": "uint256",
              "name": "repayment",
              "type": "uint256"
            },
            {
              "internalType": "enum CheddaLoanManager.RequestState",
              "name": "state",
              "type": "uint8"
            }
          ],
          "internalType": "struct CheddaLoanManager.LoanRequest[]",
          "name": "",
          "type": "tuple[]"
        }
      ],
      "stateMutability": "view",
      "type": "function"
    },
    {
      "inputs": [
        {
          "internalType": "address",
          "name": "borrower",
          "type": "address"
        },
        {
          "internalType": "enum CheddaLoanManager.LoanState",
          "name": "state",
          "type": "uint8"
        }
      ],
      "name": "getLoansBorrowed",
      "outputs": [
        {
          "components": [
            {
              "internalType": "uint256",
              "name": "loanID",
              "type": "uint256"
            },
            {
              "internalType": "address",
              "name": "nftContract",
              "type": "address"
            },
            {
              "internalType": "uint256",
              "name": "tokenID",
              "type": "uint256"
            },
            {
              "internalType": "uint256",
              "name": "principal",
              "type": "uint256"
            },
            {
              "internalType": "uint256",
              "name": "repaymentAmount",
              "type": "uint256"
            },
            {
              "internalType": "uint256",
              "name": "openedAt",
              "type": "uint256"
            },
            {
              "internalType": "uint256",
              "name": "expiresAt",
              "type": "uint256"
            },
            {
              "internalType": "uint256",
              "name": "closedAt",
              "type": "uint256"
            },
            {
              "internalType": "uint32",
              "name": "interestRate",
              "type": "uint32"
            },
            {
              "internalType": "enum CheddaLoanManager.LoanState",
              "name": "state",
              "type": "uint8"
            },
            {
              "internalType": "address payable",
              "name": "lender",
              "type": "address"
            },
            {
              "internalType": "address payable",
              "name": "borrower",
              "type": "address"
            }
          ],
          "internalType": "struct CheddaLoanManager.Loan[]",
          "name": "",
          "type": "tuple[]"
        }
      ],
      "stateMutability": "view",
      "type": "function"
    },
    {
      "inputs": [
        {
          "internalType": "address",
          "name": "lender",
          "type": "address"
        },
        {
          "internalType": "enum CheddaLoanManager.LoanState",
          "name": "state",
          "type": "uint8"
        }
      ],
      "name": "getLoansLent",
      "outputs": [
        {
          "components": [
            {
              "internalType": "uint256",
              "name": "loanID",
              "type": "uint256"
            },
            {
              "internalType": "address",
              "name": "nftContract",
              "type": "address"
            },
            {
              "internalType": "uint256",
              "name": "tokenID",
              "type": "uint256"
            },
            {
              "internalType": "uint256",
              "name": "principal",
              "type": "uint256"
            },
            {
              "internalType": "uint256",
              "name": "repaymentAmount",
              "type": "uint256"
            },
            {
              "internalType": "uint256",
              "name": "openedAt",
              "type": "uint256"
            },
            {
              "internalType": "uint256",
              "name": "expiresAt",
              "type": "uint256"
            },
            {
              "internalType": "uint256",
              "name": "closedAt",
              "type": "uint256"
            },
            {
              "internalType": "uint32",
              "name": "interestRate",
              "type": "uint32"
            },
            {
              "internalType": "enum CheddaLoanManager.LoanState",
              "name": "state",
              "type": "uint8"
            },
            {
              "internalType": "address payable",
              "name": "lender",
              "type": "address"
            },
            {
              "internalType": "address payable",
              "name": "borrower",
              "type": "address"
            }
          ],
          "internalType": "struct CheddaLoanManager.Loan[]",
          "name": "",
          "type": "tuple[]"
        }
      ],
      "stateMutability": "view",
      "type": "function"
    },
    {
      "inputs": [],
      "name": "interestRate",
      "outputs": [
        {
          "internalType": "uint32",
          "name": "",
          "type": "uint32"
        }
      ],
      "stateMutability": "view",
      "type": "function"
    },
    {
      "inputs": [
        {
          "internalType": "uint256",
          "name": "",
          "type": "uint256"
        }
      ],
      "name": "loans",
      "outputs": [
        {
          "internalType": "uint256",
          "name": "loanID",
          "type": "uint256"
        },
        {
          "internalType": "address",
          "name": "nftContract",
          "type": "address"
        },
        {
          "internalType": "uint256",
          "name": "tokenID",
          "type": "uint256"
        },
        {
          "internalType": "uint256",
          "name": "principal",
          "type": "uint256"
        },
        {
          "internalType": "uint256",
          "name": "repaymentAmount",
          "type": "uint256"
        },
        {
          "internalType": "uint256",
          "name": "openedAt",
          "type": "uint256"
        },
        {
          "internalType": "uint256",
          "name": "expiresAt",
          "type": "uint256"
        },
        {
          "internalType": "uint256",
          "name": "closedAt",
          "type": "uint256"
        },
        {
          "internalType": "uint32",
          "name": "interestRate",
          "type": "uint32"
        },
        {
          "internalType": "enum CheddaLoanManager.LoanState",
          "name": "state",
          "type": "uint8"
        },
        {
          "internalType": "address payable",
          "name": "lender",
          "type": "address"
        },
        {
          "internalType": "address payable",
          "name": "borrower",
          "type": "address"
        }
      ],
      "stateMutability": "view",
      "type": "function"
    },
    {
      "inputs": [
        {
          "internalType": "address",
          "name": "",
          "type": "address"
        },
        {
          "internalType": "address",
          "name": "",
          "type": "address"
        },
        {
          "internalType": "uint256",
          "name": "",
          "type": "uint256"
        },
        {
          "internalType": "bytes",
          "name": "",
          "type": "bytes"
        }
      ],
      "name": "onERC721Received",
      "outputs": [
        {
          "internalType": "bytes4",
          "name": "",
          "type": "bytes4"
        }
      ],
      "stateMutability": "pure",
      "type": "function"
    },
    {
      "inputs": [
        {
          "internalType": "uint256",
          "name": "requestID",
          "type": "uint256"
        }
      ],
      "name": "openLoan",
      "outputs": [],
      "stateMutability": "payable",
      "type": "function"
    },
    {
      "inputs": [
        {
          "internalType": "uint256",
          "name": "requestID",
          "type": "uint256"
        }
      ],
      "name": "openLoanToken",
      "outputs": [],
      "stateMutability": "nonpayable",
      "type": "function"
    },
    {
      "inputs": [
        {
          "internalType": "address",
          "name": "",
          "type": "address"
        },
        {
          "internalType": "uint256",
          "name": "",
          "type": "uint256"
        }
      ],
      "name": "openLoans",
      "outputs": [
        {
          "internalType": "uint256",
          "name": "",
          "type": "uint256"
        }
      ],
      "stateMutability": "view",
      "type": "function"
    },
    {
      "inputs": [
        {
          "internalType": "address",
          "name": "",
          "type": "address"
        },
        {
          "internalType": "uint256",
          "name": "",
          "type": "uint256"
        }
      ],
      "name": "openRequests",
      "outputs": [
        {
          "internalType": "uint256",
          "name": "",
          "type": "uint256"
        }
      ],
      "stateMutability": "view",
      "type": "function"
    },
    {
      "inputs": [],
      "name": "owner",
      "outputs": [
        {
          "internalType": "address",
          "name": "",
          "type": "address"
        }
      ],
      "stateMutability": "view",
      "type": "function"
    },
    {
      "inputs": [],
      "name": "registry",
      "outputs": [
        {
          "internalType": "address",
          "name": "",
          "type": "address"
        }
      ],
      "stateMutability": "view",
      "type": "function"
    },
    {
      "inputs": [],
      "name": "renounceOwnership",
      "outputs": [],
      "stateMutability": "nonpayable",
      "type": "function"
    },
    {
      "inputs": [
        {
          "internalType": "uint256",
          "name": "loanID",
          "type": "uint256"
        }
      ],
      "name": "repay",
      "outputs": [],
      "stateMutability": "payable",
      "type": "function"
    },
    {
      "inputs": [
        {
          "internalType": "uint256",
          "name": "loanID",
          "type": "uint256"
        }
      ],
      "name": "repayToken",
      "outputs": [],
      "stateMutability": "nonpayable",
      "type": "function"
    },
    {
      "inputs": [
        {
          "internalType": "address",
          "name": "nftContract",
          "type": "address"
        },
        {
          "internalType": "uint256",
          "name": "tokenId",
          "type": "uint256"
        },
        {
          "internalType": "uint256",
          "name": "amountRequested",
          "type": "uint256"
        },
        {
          "internalType": "uint256",
          "name": "duration",
          "type": "uint256"
        }
      ],
      "name": "requestLoan",
      "outputs": [],
      "stateMutability": "nonpayable",
      "type": "function"
    },
    {
      "inputs": [
        {
          "internalType": "uint256",
          "name": "",
          "type": "uint256"
        }
      ],
      "name": "requests",
      "outputs": [
        {
          "internalType": "uint256",
          "name": "requestID",
          "type": "uint256"
        },
        {
          "internalType": "address",
          "name": "nftContract",
          "type": "address"
        },
        {
          "internalType": "uint256",
          "name": "tokenID",
          "type": "uint256"
        },
        {
          "internalType": "uint256",
          "name": "loanLength",
          "type": "uint256"
        },
        {
          "internalType": "address",
          "name": "borrower",
          "type": "address"
        },
        {
          "internalType": "uint256",
          "name": "amount",
          "type": "uint256"
        },
        {
          "internalType": "uint256",
          "name": "repayment",
          "type": "uint256"
        },
        {
          "internalType": "enum CheddaLoanManager.RequestState",
          "name": "state",
          "type": "uint8"
        }
      ],
      "stateMutability": "view",
      "type": "function"
    },
    {
      "inputs": [
        {
          "internalType": "bytes4",
          "name": "interfaceId",
          "type": "bytes4"
        }
      ],
      "name": "supportsInterface",
      "outputs": [
        {
          "internalType": "bool",
          "name": "",
          "type": "bool"
        }
      ],
      "stateMutability": "pure",
      "type": "function"
    },
    {
      "inputs": [],
      "name": "tokenAddress",
      "outputs": [
        {
          "internalType": "address",
          "name": "",
          "type": "address"
        }
      ],
      "stateMutability": "view",
      "type": "function"
    },
    {
      "inputs": [],
      "name": "totalLoanValue",
      "outputs": [
        {
          "internalType": "uint256",
          "name": "",
          "type": "uint256"
        }
      ],
      "stateMutability": "view",
      "type": "function"
    },
    {
      "inputs": [
        {
          "internalType": "address",
          "name": "newOwner",
          "type": "address"
        }
      ],
      "name": "transferOwnership",
      "outputs": [],
      "stateMutability": "nonpayable",
      "type": "function"
    },
    {
      "inputs": [
        {
          "internalType": "address",
          "name": "registryAddress",
          "type": "address"
        }
      ],
      "name": "updateRegistry",
      "outputs": [],
      "stateMutability": "nonpayable",
      "type": "function"
    }
  ],
  "bytecode": "0x60806040526005805463ffffffff19166113881790553480156200002257600080fd5b506040516200419e3803806200419e8339810160408190526200004591620005eb565b62000050336200007c565b600380546001600160a01b0319166001600160a01b03831617905562000075620000cc565b506200061b565b600080546001600160a01b038381166001600160a01b0319831681178455604051919092169283917f8be0079c531659141344cd1fd0a4f28419497f9722a3daafe3b4186f6b6457e09190a35050565b60006040518061018001604052806000815260200160006001600160a01b03168152602001600081526020016000815260200160008152602001600081526020016000815260200160008152602001600063ffffffff168152602001600060038111156200014a57634e487b7160e01b600052602160045260246000fd5b815260200160006001600160a01b0316815260200160006001600160a01b03168152509050620001866002620005e260201b620033e81760201c565b6007805460018101825560009190915281517fa66cc928b5edb82af9bd49922954155ab7b0942694bea4ce44661d9a8736c688600a90920291820190815560208301517fa66cc928b5edb82af9bd49922954155ab7b0942694bea4ce44661d9a8736c689830180546001600160a01b0319166001600160a01b0390921691909117905560408301517fa66cc928b5edb82af9bd49922954155ab7b0942694bea4ce44661d9a8736c68a83015560608301517fa66cc928b5edb82af9bd49922954155ab7b0942694bea4ce44661d9a8736c68b83015560808301517fa66cc928b5edb82af9bd49922954155ab7b0942694bea4ce44661d9a8736c68c83015560a08301517fa66cc928b5edb82af9bd49922954155ab7b0942694bea4ce44661d9a8736c68d83015560c08301517fa66cc928b5edb82af9bd49922954155ab7b0942694bea4ce44661d9a8736c68e83015560e08301517fa66cc928b5edb82af9bd49922954155ab7b0942694bea4ce44661d9a8736c68f8301556101008301517fa66cc928b5edb82af9bd49922954155ab7b0942694bea4ce44661d9a8736c690909201805463ffffffff19811663ffffffff9094169384178255610120850151859490929164ffffffffff1916176401000000008360038111156200037b57634e487b7160e01b600052602160045260246000fd5b0217905550610140820151600882018054600160281b600160c81b031916650100000000006001600160a01b039384160217905561016090920151600990910180546001600160a01b031916919092161790556040805161010081018252600080825260208201819052918101829052606081018290526080810182905260a0810182905260c0810182905260e08101828152509050620004286001620005e260201b620033e81760201c565b6006805460018181018355600092909252825160089091027ff652222313e28459528d920b65115c16c04f3efc82aaedc97be59f3f377c0d3f810191825560208401517ff652222313e28459528d920b65115c16c04f3efc82aaedc97be59f3f377c0d40820180546001600160a01b039283166001600160a01b03199182161790915560408601517ff652222313e28459528d920b65115c16c04f3efc82aaedc97be59f3f377c0d4184015560608601517ff652222313e28459528d920b65115c16c04f3efc82aaedc97be59f3f377c0d4284015560808601517ff652222313e28459528d920b65115c16c04f3efc82aaedc97be59f3f377c0d438401805491909316911617905560a08401517ff652222313e28459528d920b65115c16c04f3efc82aaedc97be59f3f377c0d4482015560c08401517ff652222313e28459528d920b65115c16c04f3efc82aaedc97be59f3f377c0d4582015560e08401517ff652222313e28459528d920b65115c16c04f3efc82aaedc97be59f3f377c0d469091018054859460ff1990911690836003811115620005d757634e487b7160e01b600052602160045260246000fd5b021790555050505050565b80546001019055565b600060208284031215620005fd578081fd5b81516001600160a01b038116811462000614578182fd5b9392505050565b613b73806200062b6000396000f3fe6080604052600436106101665760003560e01c80637f48886d116100d15780639fb0f9be1161008a578063da0648b711610064578063da0648b7146104bc578063e1ec3c68146104dc578063e50380e014610514578063f2fde38b1461053457600080fd5b80639fb0f9be14610466578063bd8ff57614610486578063d93ba2c7146104a657600080fd5b80637f48886d1461038757806381d12c58146103b45780638bf1badd146103e85780638da5cb5b1461040857806392c79d12146104265780639d76ea581461044657600080fd5b806354e3e70d1161012357806354e3e70d1461029057806366646ba8146102a3578063715018a6146102db5780637b103999146102f05780637c2de818146103285780637c3a00fd1461035557600080fd5b806301ffc9a71461016b578063150b7a02146101b15780631686fc50146101f55780631a5da6c81461023b5780633015394c1461025d578063371fd8e61461027d575b600080fd5b34801561017757600080fd5b5061019c61018636600461371a565b6001600160e01b031916630a85bd0160e11b1490565b60405190151581526020015b60405180910390f35b3480156101bd57600080fd5b506101dc6101cc366004613584565b630a85bd0160e11b949350505050565b6040516001600160e01b031990911681526020016101a8565b34801561020157600080fd5b5061022d610210366004613695565b600a60209081526000928352604080842090915290825290205481565b6040519081526020016101a8565b34801561024757600080fd5b5061025b610256366004613545565b610554565b005b34801561026957600080fd5b5061025b610278366004613742565b6105a9565b61025b61028b366004613742565b610753565b61025b61029e366004613742565b6109f6565b3480156102af57600080fd5b5061022d6102be366004613695565b600960209081526000928352604080842090915290825290205481565b3480156102e757600080fd5b5061025b611053565b3480156102fc57600080fd5b50600854610310906001600160a01b031681565b6040516001600160a01b0390911681526020016101a8565b34801561033457600080fd5b5061034861034336600461365d565b611089565b6040516101a891906137c4565b34801561036157600080fd5b506005546103729063ffffffff1681565b60405163ffffffff90911681526020016101a8565b34801561039357600080fd5b506103a76103a236600461365d565b611546565b6040516101a89190613868565b3480156103c057600080fd5b506103d46103cf366004613742565b611a04565b6040516101a8989796959493929190613971565b3480156103f457600080fd5b5061025b610403366004613742565b611a69565b34801561041457600080fd5b506000546001600160a01b0316610310565b34801561043257600080fd5b5061025b6104413660046136c0565b611c97565b34801561045257600080fd5b50600354610310906001600160a01b031681565b34801561047257600080fd5b5061025b610481366004613742565b612284565b34801561049257600080fd5b5061025b6104a1366004613742565b6125c3565b3480156104b257600080fd5b5061022d60045481565b3480156104c857600080fd5b506103a76104d736600461365d565b612d9c565b3480156104e857600080fd5b506104fc6104f7366004613742565b61325a565b6040516101a89c9b9a999897969594939291906139c8565b34801561052057600080fd5b5061022d61052f366004613772565b6132e7565b34801561054057600080fd5b5061025b61054f366004613545565b61334d565b6000546001600160a01b031633146105875760405162461bcd60e51b815260040161057e9061393c565b60405180910390fd5b600880546001600160a01b0319166001600160a01b0392909216919091179055565b60015481106105ed5760405162461bcd60e51b815260206004820152601060248201526f131bd85b8e88125b9d985b1a59081a5960821b604482015260640161057e565b60006006828154811061061057634e487b7160e01b600052603260045260246000fd5b906000526020600020906008020190506106273390565b60048201546001600160a01b0390811691161461067b5760405162461bcd60e51b81526020600482015260126024820152712637b0b71d102737ba103137b93937bbb2b960711b604482015260640161057e565b6001600782015460ff1660038111156106a457634e487b7160e01b600052602160045260246000fd5b146106e75760405162461bcd60e51b81526020600482015260136024820152724c6f616e3a20496e76616c696420737461746560681b604482015260640161057e565b60018101546001600160a01b031660009081526009602090815260408083206002808601548552925280832083905560078401805460ff191690921790915551839133917f1bdb4261b8cc605afbfe72b63a1f1f08ab6eb83dce866bdbed9ba6fc9c74d0049190a35050565b60006007828154811061077657634e487b7160e01b600052603260045260246000fd5b60009182526020909120600a90910201600181015460098201549192506001600160a01b039081169116336001600160a01b0316146107ed5760405162461bcd60e51b81526020600482015260136024820152724c6f616e3a2043616e206e6f7420726570617960681b604482015260640161057e565b81600401543410156108345760405162461bcd60e51b815260206004820152601060248201526f098dec2dc74409cdee840cadcdeeaced60831b604482015260640161057e565b60088201805464ff00000000191664020000000017905560018201546001600160a01b03166000908152600a6020908152604080832060028601548452909152812081905560038301546004805491929091610891908490613a9f565b909155505060088201546004830154604051600160281b9092046001600160a01b0316916108fc82150291906000818181858888f193505050501580156108dc573d6000803e3d6000fd5b50816004015434111561092857600482015433906108fc906108fe9034613a9f565b6040518115909202916000818181858888f19350505050158015610926573d6000803e3d6000fd5b505b60098201546002830154604051632142170760e11b81526001600160a01b03848116936342842e0e93610963933093909216916004016137a0565b600060405180830381600087803b15801561097d57600080fd5b505af1158015610991573d6000803e3d6000fd5b505050506008820154600160281b90046001600160a01b0316336001600160a01b03167ffe3c4f4ff6f11a42f9d84f777002ab405a07fc0075a3504d153b0587f61f460e84600401546040516109e991815260200190565b60405180910390a3505050565b600060068281548110610a1957634e487b7160e01b600052603260045260246000fd5b6000918252602090912060089091020190506001600782015460ff166003811115610a5457634e487b7160e01b600052602160045260246000fd5b14610a925760405162461bcd60e51b815260206004820152600e60248201526d2637b0b71d102737ba1037b832b760911b604482015260640161057e565b60078101805460ff1916600317905560018101546001600160a01b0316600033600484015460058501549192506001600160a01b031690341015610b185760405162461bcd60e51b815260206004820152601860248201527f4c6f616e3a20496e73756666696369656e742076616c75650000000000000000604482015260640161057e565b600284015460405163020604bf60e21b81526000916001600160a01b0386169163081812fc91610b4e9160040190815260200190565b60206040518083038186803b158015610b6657600080fd5b505afa158015610b7a573d6000803e3d6000fd5b505050506040513d601f19601f82011682018060405250810190610b9e9190613568565b90506001600160a01b0381163014610bf15760405162461bcd60e51b8152602060048201526016602482015275131bd85b8e88139195081b9bdd08185c1c1c9bdd995960521b604482015260640161057e565b6000610c05866005015487600301546132e7565b90506000604051806101800160405280610c1e60025490565b815260018901546001600160a01b031660208201526002890154604082015260058901546060820152608081018490524260a0820181905260038a015460c090920191610c6a91613a48565b81526000602082015260055463ffffffff16604082015260600160018152602001866001600160a01b03168152602001856001600160a01b03168152509050866005015460046000828254610cbf9190613a48565b90915550506001870180546001600160a01b03908116600090815260096020908152604080832060028d01805485529083528184208490558651955485168452600a835281842081548552909252918290209390935591549151632142170760e11b8152908816916342842e0e91610d3e9188913091906004016137a0565b600060405180830381600087803b158015610d5857600080fd5b505af1158015610d6c573d6000803e3d6000fd5b50506040516001600160a01b03871692503480156108fc029250906000818181858888f19350505050158015610da6573d6000803e3d6000fd5b50610db5600280546001019055565b6007805460018101825560009190915281517fa66cc928b5edb82af9bd49922954155ab7b0942694bea4ce44661d9a8736c688600a90920291820190815560208301517fa66cc928b5edb82af9bd49922954155ab7b0942694bea4ce44661d9a8736c689830180546001600160a01b0319166001600160a01b0390921691909117905560408301517fa66cc928b5edb82af9bd49922954155ab7b0942694bea4ce44661d9a8736c68a83015560608301517fa66cc928b5edb82af9bd49922954155ab7b0942694bea4ce44661d9a8736c68b83015560808301517fa66cc928b5edb82af9bd49922954155ab7b0942694bea4ce44661d9a8736c68c83015560a08301517fa66cc928b5edb82af9bd49922954155ab7b0942694bea4ce44661d9a8736c68d83015560c08301517fa66cc928b5edb82af9bd49922954155ab7b0942694bea4ce44661d9a8736c68e83015560e08301517fa66cc928b5edb82af9bd49922954155ab7b0942694bea4ce44661d9a8736c68f8301556101008301517fa66cc928b5edb82af9bd49922954155ab7b0942694bea4ce44661d9a8736c690909201805463ffffffff19811663ffffffff9094169384178255610120850151859490929164ffffffffff191617600160201b836003811115610fa857634e487b7160e01b600052602160045260246000fd5b021790555061014082015160088201805465010000000000600160c81b031916600160281b6001600160a01b039384160217905561016090920151600990910180546001600160a01b0319169183169190911790558754908516336001600160a01b03167f38b51813c240c8203eeb63b34adbe528d4239a2424c3eb3ff5b67a2fb979bede8a6005015460405161104191815260200190565b60405180910390a45050505050505050565b6000546001600160a01b0316331461107d5760405162461bcd60e51b815260040161057e9061393c565b61108760006133f1565b565b6060600060015b6006548110156111a2576000600682815481106110bd57634e487b7160e01b600052603260045260246000fd5b6000918252602090912060089091020160048101549091506001600160a01b03878116911614806110f557506001600160a01b038616155b1561118f57600085600381111561111c57634e487b7160e01b600052602160045260246000fd5b1415611134578261112c81613ab6565b93505061118f565b600781015460ff16600381111561115b57634e487b7160e01b600052602160045260246000fd5b85600381111561117b57634e487b7160e01b600052602160045260246000fd5b141561118f578261118b81613ab6565b9350505b508061119a81613ab6565b915050611090565b5060008167ffffffffffffffff8111156111cc57634e487b7160e01b600052604160045260246000fd5b60405190808252806020026020018201604052801561120557816020015b6111f2613441565b8152602001906001900390816111ea5790505b509050600060015b60065481101561153b5760006006828154811061123a57634e487b7160e01b600052603260045260246000fd5b6000918252602090912060089091020160048101549091506001600160a01b038981169116148061127257506001600160a01b038816155b1561152857600087600381111561129957634e487b7160e01b600052602160045260246000fd5b14156113bf57600682815481106112c057634e487b7160e01b600052603260045260246000fd5b6000918252602091829020604080516101008101825260089093029091018054835260018101546001600160a01b0390811694840194909452600281015491830191909152600380820154606084015260048201549093166080830152600581015460a0830152600681015460c083015260078101549192909160e084019160ff9091169081111561136257634e487b7160e01b600052602160045260246000fd5b600381111561138157634e487b7160e01b600052602160045260246000fd5b905250848461138f81613ab6565b9550815181106113af57634e487b7160e01b600052603260045260246000fd5b6020026020010181905250611528565b600781015460ff1660038111156113e657634e487b7160e01b600052602160045260246000fd5b87600381111561140657634e487b7160e01b600052602160045260246000fd5b1415611528576006828154811061142d57634e487b7160e01b600052603260045260246000fd5b6000918252602091829020604080516101008101825260089093029091018054835260018101546001600160a01b0390811694840194909452600281015491830191909152600380820154606084015260048201549093166080830152600581015460a0830152600681015460c083015260078101549192909160e084019160ff909116908111156114cf57634e487b7160e01b600052602160045260246000fd5b60038111156114ee57634e487b7160e01b600052602160045260246000fd5b90525084846114fc81613ab6565b95508151811061151c57634e487b7160e01b600052603260045260246000fd5b60200260200101819052505b508061153381613ab6565b91505061120d565b509095945050505050565b6060600060015b6007548110156117495760006007828154811061157a57634e487b7160e01b600052603260045260246000fd5b60009182526020918290206040805161018081018252600a939093029091018054835260018101546001600160a01b031693830193909352600283015490820152600380830154606083015260048301546080830152600583015460a0830152600683015460c0830152600783015460e0830152600883015463ffffffff8116610100840152919291610120840191600160201b90910460ff169081111561163257634e487b7160e01b600052602160045260246000fd5b600381111561165157634e487b7160e01b600052602160045260246000fd5b81526008820154600160281b90046001600160a01b03908116602083015260099092015482166040909101526101408201519192508781169116148061169e57506001600160a01b038616155b156117365760008560038111156116c557634e487b7160e01b600052602160045260246000fd5b14156116dd57826116d581613ab6565b935050611736565b806101200151600381111561170257634e487b7160e01b600052602160045260246000fd5b85600381111561172257634e487b7160e01b600052602160045260246000fd5b1415611736578261173281613ab6565b9350505b508061174181613ab6565b91505061154d565b5060008167ffffffffffffffff81111561177357634e487b7160e01b600052604160045260246000fd5b6040519080825280602002602001820160405280156117ac57816020015b6117996134b6565b8152602001906001900390816117915790505b509050600060015b60075481101561153b576000600782815481106117e157634e487b7160e01b600052603260045260246000fd5b60009182526020918290206040805161018081018252600a939093029091018054835260018101546001600160a01b031693830193909352600283015490820152600380830154606083015260048301546080830152600583015460a0830152600683015460c0830152600783015460e0830152600883015463ffffffff8116610100840152919291610120840191600160201b90910460ff169081111561189957634e487b7160e01b600052602160045260246000fd5b60038111156118b857634e487b7160e01b600052602160045260246000fd5b81526008820154600160281b90046001600160a01b03908116602083015260099092015482166040909101526101408201519192508981169116148061190557506001600160a01b038816155b156119f157600087600381111561192c57634e487b7160e01b600052602160045260246000fd5b141561196e5780848461193e81613ab6565b95508151811061195e57634e487b7160e01b600052603260045260246000fd5b60200260200101819052506119f1565b806101200151600381111561199357634e487b7160e01b600052602160045260246000fd5b8760038111156119b357634e487b7160e01b600052602160045260246000fd5b14156119f1578084846119c581613ab6565b9550815181106119e557634e487b7160e01b600052603260045260246000fd5b60200260200101819052505b50806119fc81613ab6565b9150506117b4565b60068181548110611a1457600080fd5b6000918252602090912060089091020180546001820154600283015460038401546004850154600586015460068701546007909701549597506001600160a01b03948516969395929490911692909160ff1688565b600060078281548110611a8c57634e487b7160e01b600052603260045260246000fd5b60009182526020909120600a90910201905060016008820154600160201b900460ff166003811115611ace57634e487b7160e01b600052602160045260246000fd5b148015611ade5750428160060154105b611b205760405162461bcd60e51b81526020600482015260136024820152724c6f616e3a20496e76616c696420737461746560681b604482015260640161057e565b6008810154600160281b90046001600160a01b0316336001600160a01b031614611b7f5760405162461bcd60e51b815260206004820152601060248201526f2637b0b71d102737ba103632b73232b960811b604482015260640161057e565b600181015460088201805464ff0000000019166403000000001790556001600160a01b03166000818152600a6020908152604080832060028601548452909152812081905560038301546004805491929091611bdc908490613a9f565b909155505060088201546002830154604051632142170760e11b81526001600160a01b03808516936342842e0e93611c24933093600160281b909304909216916004016137a0565b600060405180830381600087803b158015611c3e57600080fd5b505af1158015611c52573d6000803e3d6000fd5b5050505060098201546040516001600160a01b039091169033907fc0b5b9e5198c2a6b0f14769c87a94436bac6e75fb5328d3d1bcab15214c5458390600090a3505050565b60405163020604bf60e21b81526004810184905284908490829030906001600160a01b0383169063081812fc9060240160206040518083038186803b158015611cdf57600080fd5b505afa158015611cf3573d6000803e3d6000fd5b505050506040513d601f19601f82011682018060405250810190611d179190613568565b6001600160a01b031614611d625760405162461bcd60e51b8152602060048201526012602482015271131bd85b8e88139bdd08185c1c1c9bdd995960721b604482015260640161057e565b6001600160a01b038716611db05760405162461bcd60e51b81526020600482015260156024820152744c6f616e3a20496e76616c6964206164647265737360581b604482015260640161057e565b600084118015611dc357506276a7008411155b611e085760405162461bcd60e51b81526020600482015260166024820152752637b0b71d1024b73b30b634b210323ab930ba34b7b760511b604482015260640161057e565b60008511611e585760405162461bcd60e51b815260206004820152601960248201527f4c6f616e3a20496e76616c6964206c6f616e20616d6f756e7400000000000000604482015260640161057e565b86336040516331a9108f60e11b8152600481018990526001600160a01b0391821691831690636352211e9060240160206040518083038186803b158015611e9e57600080fd5b505afa158015611eb2573d6000803e3d6000fd5b505050506040513d601f19601f82011682018060405250810190611ed69190613568565b6001600160a01b031614611f1e5760405162461bcd60e51b815260206004820152600f60248201526e2637b0b71d102737ba1037bbb732b960891b604482015260640161057e565b60405163020604bf60e21b81526004810188905230906001600160a01b0383169063081812fc9060240160206040518083038186803b158015611f6057600080fd5b505afa158015611f74573d6000803e3d6000fd5b505050506040513d601f19601f82011682018060405250810190611f989190613568565b6001600160a01b031614611fe35760405162461bcd60e51b81526020600482015260126024820152714c6f616e3a204d75737420617070726f766560701b604482015260640161057e565b6000611fef87876132e7565b9050600060405180610100016040528061200860015490565b81526020018b6001600160a01b031681526020018a815260200188815260200161202f3390565b6001600160a01b03168152602081018a90526040810184905260600160019052600680546001808201835560009290925282517ff652222313e28459528d920b65115c16c04f3efc82aaedc97be59f3f377c0d3f600890920291820190815560208401517ff652222313e28459528d920b65115c16c04f3efc82aaedc97be59f3f377c0d40830180546001600160a01b03199081166001600160a01b039384161790915560408601517ff652222313e28459528d920b65115c16c04f3efc82aaedc97be59f3f377c0d4185015560608601517ff652222313e28459528d920b65115c16c04f3efc82aaedc97be59f3f377c0d4285015560808601517ff652222313e28459528d920b65115c16c04f3efc82aaedc97be59f3f377c0d4385018054909216921691909117905560a08401517ff652222313e28459528d920b65115c16c04f3efc82aaedc97be59f3f377c0d4483015560c08401517ff652222313e28459528d920b65115c16c04f3efc82aaedc97be59f3f377c0d4583015560e08401517ff652222313e28459528d920b65115c16c04f3efc82aaedc97be59f3f377c0d46909201805494955085949193909160ff19169083600381111561220557634e487b7160e01b600052602160045260246000fd5b0217905550505061221a600180546001019055565b80516001600160a01b038b1660008181526009602090815260408083208e845282529182902093909355518a81528b9233917f8ca033dfe8ac84b6e3e48aa36967e19d52a93a3f4d880ce8005fd4e04c97c94d91015b60405180910390a450505050505050505050565b6000600782815481106122a757634e487b7160e01b600052603260045260246000fd5b60009182526020909120600354600a90920201600181015460098201549193506001600160a01b03928316929081169116336001600160a01b0316146123255760405162461bcd60e51b81526020600482015260136024820152724c6f616e3a2043616e206e6f7420726570617960681b604482015260640161057e565b6004838101546009850154604051636eb1769f60e11b81526001600160a01b039182169381019390935230602484015290919084169063dd62ed3e9060440160206040518083038186803b15801561237c57600080fd5b505afa158015612390573d6000803e3d6000fd5b505050506040513d601f19601f820116820180604052508101906123b4919061375a565b10156123f65760405162461bcd60e51b8152602060048201526011602482015270131bd85b8e88139bdd08185b1b1bddd959607a1b604482015260640161057e565b60088301805464ff00000000191664020000000017905560018301546001600160a01b03166000908152600a6020908152604080832060028701548452909152812081905560038401546004805491929091612453908490613a9f565b9091555050600983015460088401546004808601546040516323b872dd60e01b81526001600160a01b03808816956323b872dd956124a19591831694600160281b90910490921692016137a0565b602060405180830381600087803b1580156124bb57600080fd5b505af11580156124cf573d6000803e3d6000fd5b505050506040513d601f19601f820116820180604052508101906124f391906136fa565b5060098301546002840154604051632142170760e11b81526001600160a01b03848116936342842e0e9361252f933093909216916004016137a0565b600060405180830381600087803b15801561254957600080fd5b505af115801561255d573d6000803e3d6000fd5b505050506008830154600160281b90046001600160a01b0316336001600160a01b03167ffe3c4f4ff6f11a42f9d84f777002ab405a07fc0075a3504d153b0587f61f460e85600401546040516125b591815260200190565b60405180910390a350505050565b6000600682815481106125e657634e487b7160e01b600052603260045260246000fd5b6000918252602090912060089091020190506001600782015460ff16600381111561262157634e487b7160e01b600052602160045260246000fd5b1461265f5760405162461bcd60e51b815260206004820152600e60248201526d2637b0b71d102737ba1037b832b760911b604482015260640161057e565b60035460018201546001600160a01b03918216911660003360048581015460058701546040516370a0823160e01b81526001600160a01b03808616948201949094529394509082169290918616906370a082319060240160206040518083038186803b1580156126ce57600080fd5b505afa1580156126e2573d6000803e3d6000fd5b505050506040513d601f19601f82011682018060405250810190612706919061375a565b10156127545760405162461bcd60e51b815260206004820152601a60248201527f4c6f616e3a20496e73756666696369656e742062616c616e6365000000000000604482015260640161057e565b604051636eb1769f60e11b81526001600160a01b0383811660048301523060248301526000919086169063dd62ed3e9060440160206040518083038186803b15801561279f57600080fd5b505afa1580156127b3573d6000803e3d6000fd5b505050506040513d601f19601f820116820180604052508101906127d7919061375a565b905085600501548110156128225760405162461bcd60e51b8152602060048201526012602482015271131bd85b8e88139bdd08185c1c1c9bdd995960721b604482015260640161057e565b600286015460405163020604bf60e21b81526000916001600160a01b0387169163081812fc916128589160040190815260200190565b60206040518083038186803b15801561287057600080fd5b505afa158015612884573d6000803e3d6000fd5b505050506040513d601f19601f820116820180604052508101906128a89190613568565b90506001600160a01b03811630146128fb5760405162461bcd60e51b8152602060048201526016602482015275131bd85b8e88139195081b9bdd08185c1c1c9bdd995960521b604482015260640161057e565b600061290f886005015489600301546132e7565b9050600060405180610180016040528061292860025490565b815260018b01546001600160a01b0316602082015260028b0154604082015260058b01546060820152608081018490524260a0820181905260038c015460c09092019161297491613a48565b81526000602082015260055463ffffffff16604082015260600160018152602001876001600160a01b03168152602001866001600160a01b031681525090508860050154600460008282546129c99190613a48565b90915550506001890180546001600160a01b03908116600090815260096020908152604080832060028f01805485529083528184208490558651955485168452600a83528184209054845290915290209190915588166323b872dd33878c600501546040518463ffffffff1660e01b8152600401612a49939291906137a0565b602060405180830381600087803b158015612a6357600080fd5b505af1158015612a77573d6000803e3d6000fd5b505050506040513d601f19601f82011682018060405250810190612a9b91906136fa565b506002890154604051632142170760e11b81526001600160a01b038916916342842e0e91612ad09189913091906004016137a0565b600060405180830381600087803b158015612aea57600080fd5b505af1158015612afe573d6000803e3d6000fd5b50505050612b10600280546001019055565b6007805460018101825560009190915281517fa66cc928b5edb82af9bd49922954155ab7b0942694bea4ce44661d9a8736c688600a90920291820190815560208301517fa66cc928b5edb82af9bd49922954155ab7b0942694bea4ce44661d9a8736c689830180546001600160a01b0319166001600160a01b0390921691909117905560408301517fa66cc928b5edb82af9bd49922954155ab7b0942694bea4ce44661d9a8736c68a83015560608301517fa66cc928b5edb82af9bd49922954155ab7b0942694bea4ce44661d9a8736c68b83015560808301517fa66cc928b5edb82af9bd49922954155ab7b0942694bea4ce44661d9a8736c68c83015560a08301517fa66cc928b5edb82af9bd49922954155ab7b0942694bea4ce44661d9a8736c68d83015560c08301517fa66cc928b5edb82af9bd49922954155ab7b0942694bea4ce44661d9a8736c68e83015560e08301517fa66cc928b5edb82af9bd49922954155ab7b0942694bea4ce44661d9a8736c68f8301556101008301517fa66cc928b5edb82af9bd49922954155ab7b0942694bea4ce44661d9a8736c690909201805463ffffffff19811663ffffffff9094169384178255610120850151859490929164ffffffffff191617600160201b836003811115612d0357634e487b7160e01b600052602160045260246000fd5b021790555061014082015160088201805465010000000000600160c81b031916600160281b6001600160a01b039384160217905561016090920151600990910180546001600160a01b0319169183169190911790558954908616336001600160a01b03167f38b51813c240c8203eeb63b34adbe528d4239a2424c3eb3ff5b67a2fb979bede8c6005015460405161227091815260200190565b6060600060015b600754811015612f9f57600060078281548110612dd057634e487b7160e01b600052603260045260246000fd5b60009182526020918290206040805161018081018252600a939093029091018054835260018101546001600160a01b031693830193909352600283015490820152600380830154606083015260048301546080830152600583015460a0830152600683015460c0830152600783015460e0830152600883015463ffffffff8116610100840152919291610120840191600160201b90910460ff1690811115612e8857634e487b7160e01b600052602160045260246000fd5b6003811115612ea757634e487b7160e01b600052602160045260246000fd5b81526008820154600160281b90046001600160a01b039081166020830152600990920154821660409091015261016082015191925087811691161480612ef457506001600160a01b038616155b15612f8c576000856003811115612f1b57634e487b7160e01b600052602160045260246000fd5b1415612f335782612f2b81613ab6565b935050612f8c565b8061012001516003811115612f5857634e487b7160e01b600052602160045260246000fd5b856003811115612f7857634e487b7160e01b600052602160045260246000fd5b1415612f8c5782612f8881613ab6565b9350505b5080612f9781613ab6565b915050612da3565b5060008167ffffffffffffffff811115612fc957634e487b7160e01b600052604160045260246000fd5b60405190808252806020026020018201604052801561300257816020015b612fef6134b6565b815260200190600190039081612fe75790505b509050600060015b60075481101561153b5760006007828154811061303757634e487b7160e01b600052603260045260246000fd5b60009182526020918290206040805161018081018252600a939093029091018054835260018101546001600160a01b031693830193909352600283015490820152600380830154606083015260048301546080830152600583015460a0830152600683015460c0830152600783015460e0830152600883015463ffffffff8116610100840152919291610120840191600160201b90910460ff16908111156130ef57634e487b7160e01b600052602160045260246000fd5b600381111561310e57634e487b7160e01b600052602160045260246000fd5b81526008820154600160281b90046001600160a01b03908116602083015260099092015482166040909101526101608201519192508981169116148061315b57506001600160a01b038816155b1561324757600087600381111561318257634e487b7160e01b600052602160045260246000fd5b14156131c45780848461319481613ab6565b9550815181106131b457634e487b7160e01b600052603260045260246000fd5b6020026020010181905250613247565b80610120015160038111156131e957634e487b7160e01b600052602160045260246000fd5b87600381111561320957634e487b7160e01b600052602160045260246000fd5b14156132475780848461321b81613ab6565b95508151811061323b57634e487b7160e01b600052603260045260246000fd5b60200260200101819052505b508061325281613ab6565b91505061300a565b6007818154811061326a57600080fd5b60009182526020909120600a909102018054600182015460028301546003840154600485015460058601546006870154600788015460088901546009909901549799506001600160a01b039687169895979496939592949193909263ffffffff81169260ff600160201b83041692600160281b909204821691168c565b600080620151806132fa61016d85613a60565b6005546064906133109063ffffffff1688613a80565b61331a9190613a60565b6133249190613a80565b61332e9190613a60565b905061333b606482613a60565b6133459085613a48565b949350505050565b6000546001600160a01b031633146133775760405162461bcd60e51b815260040161057e9061393c565b6001600160a01b0381166133dc5760405162461bcd60e51b815260206004820152602660248201527f4f776e61626c653a206e6577206f776e657220697320746865207a65726f206160448201526564647265737360d01b606482015260840161057e565b6133e5816133f1565b50565b80546001019055565b600080546001600160a01b038381166001600160a01b0319831681178455604051919092169283917f8be0079c531659141344cd1fd0a4f28419497f9722a3daafe3b4186f6b6457e09190a35050565b6040518061010001604052806000815260200160006001600160a01b03168152602001600081526020016000815260200160006001600160a01b031681526020016000815260200160008152602001600060038111156134b157634e487b7160e01b600052602160045260246000fd5b905290565b6040518061018001604052806000815260200160006001600160a01b03168152602001600081526020016000815260200160008152602001600081526020016000815260200160008152602001600063ffffffff1681526020016000600381111561353157634e487b7160e01b600052602160045260246000fd5b815260006020820181905260409091015290565b600060208284031215613556578081fd5b813561356181613b1b565b9392505050565b600060208284031215613579578081fd5b815161356181613b1b565b60008060008060808587031215613599578283fd5b84356135a481613b1b565b935060208501356135b481613b1b565b925060408501359150606085013567ffffffffffffffff808211156135d7578283fd5b818701915087601f8301126135ea578283fd5b8135818111156135fc576135fc613ae7565b604051601f8201601f19908116603f0116810190838211818310171561362457613624613ae7565b816040528281528a602084870101111561363c578586fd5b82602086016020830137918201602001949094529598949750929550505050565b6000806040838503121561366f578182fd5b823561367a81613b1b565b9150602083013561368a81613b30565b809150509250929050565b600080604083850312156136a7578182fd5b82356136b281613b1b565b946020939093013593505050565b600080600080608085870312156136d5578384fd5b84356136e081613b1b565b966020860135965060408601359560600135945092505050565b60006020828403121561370b578081fd5b81518015158114613561578182fd5b60006020828403121561372b578081fd5b81356001600160e01b031981168114613561578182fd5b600060208284031215613753578081fd5b5035919050565b60006020828403121561376b578081fd5b5051919050565b60008060408385031215613784578182fd5b50508035926020909101359150565b61379c81613afd565b9052565b6001600160a01b039384168152919092166020820152604081019190915260600190565b602080825282518282018190526000919060409081850190868401855b8281101561385b57815180518552868101516001600160a01b03908116888701528682015187870152606080830151908701526080808301519091169086015260a0808201519086015260c0808201519086015260e0908101519061384582613afd565b85015261010090930192908501906001016137e1565b5091979650505050505050565b602080825282518282018190526000919060409081850190868401855b8281101561385b57815180518552868101516001600160a01b0316878601528581015186860152606080820151908601526080808201519086015260a0808201519086015260c0808201519086015260e080820151908601526101008082015163ffffffff16908601526101208082015161390282880182613793565b5050610140818101516001600160a01b03908116918701919091526101609182015116908501526101809093019290850190600101613885565b6020808252818101527f4f776e61626c653a2063616c6c6572206973206e6f7420746865206f776e6572604082015260600190565b8881526001600160a01b03888116602083015260408201889052606082018790528516608082015260a0810184905260c0810183905261010081016139b583613afd565b8260e08301529998505050505050505050565b6000610180820190508d825260018060a01b03808e1660208401528c60408401528b60608401528a60808401528960a08401528860c08401528760e084015263ffffffff8716610100840152613a1d86613afd565b85610120840152808516610140840152808416610160840152509d9c50505050505050505050505050565b60008219821115613a5b57613a5b613ad1565b500190565b600082613a7b57634e487b7160e01b81526012600452602481fd5b500490565b6000816000190483118215151615613a9a57613a9a613ad1565b500290565b600082821015613ab157613ab1613ad1565b500390565b6000600019821415613aca57613aca613ad1565b5060010190565b634e487b7160e01b600052601160045260246000fd5b634e487b7160e01b600052604160045260246000fd5b600481106133e557634e487b7160e01b600052602160045260246000fd5b6001600160a01b03811681146133e557600080fd5b600481106133e557600080fdfea2646970667358221220619d93b55230232627e00cc4fa22919b34a7bea5b564c3db8d9df9b23b9e335e64736f6c63430008040033",
  "linkReferences": {},
  "deployedLinkReferences": {}
}