{
  "_format": "hh-sol-artifact-1",
  "contractName": "CheddaMarket",
  "sourceName": "contracts/market/CheddaMarket.sol",
  "abi": [
    {
      "anonymous": false,
      "inputs": [
        {
          "indexed": true,
          "internalType": "address",
          "name": "previousOwner",
          "type": "address"
        },
        {
          "indexed": true,
          "internalType": "address",
          "name": "newOwner",
          "type": "address"
        }
      ],
      "name": "OwnershipTransferred",
      "type": "event"
    },
    {
      "inputs": [
        {
          "internalType": "address",
          "name": "nftContract",
          "type": "address"
        },
        {
          "internalType": "uint256",
          "name": "tokenId",
          "type": "uint256"
        }
      ],
      "name": "buyItem",
      "outputs": [],
      "stateMutability": "payable",
      "type": "function"
    },
    {
      "inputs": [
        {
          "internalType": "address",
          "name": "nftContract",
          "type": "address"
        },
        {
          "internalType": "uint256",
          "name": "tokenId",
          "type": "uint256"
        }
      ],
      "name": "cancelBid",
      "outputs": [],
      "stateMutability": "nonpayable",
      "type": "function"
    },
    {
      "inputs": [
        {
          "internalType": "address",
          "name": "nftContract",
          "type": "address"
        },
        {
          "internalType": "uint256",
          "name": "tokenId",
          "type": "uint256"
        }
      ],
      "name": "cancelSale",
      "outputs": [],
      "stateMutability": "nonpayable",
      "type": "function"
    },
    {
      "inputs": [],
      "name": "feeRecipient",
      "outputs": [
        {
          "internalType": "address payable",
          "name": "",
          "type": "address"
        }
      ],
      "stateMutability": "view",
      "type": "function"
    },
    {
      "inputs": [
        {
          "internalType": "address",
          "name": "nftContract",
          "type": "address"
        }
      ],
      "name": "itemsForSale",
      "outputs": [
        {
          "components": [
            {
              "internalType": "address payable",
              "name": "seller",
              "type": "address"
            },
            {
              "internalType": "uint256",
              "name": "price",
              "type": "uint256"
            },
            {
              "internalType": "uint256",
              "name": "commission",
              "type": "uint256"
            }
          ],
          "internalType": "struct CheddaMarket.Listing[]",
          "name": "",
          "type": "tuple[]"
        }
      ],
      "stateMutability": "view",
      "type": "function"
    },
    {
      "inputs": [
        {
          "internalType": "address",
          "name": "nftContract",
          "type": "address"
        },
        {
          "internalType": "uint256",
          "name": "tokenId",
          "type": "uint256"
        },
        {
          "internalType": "uint256",
          "name": "reserve",
          "type": "uint256"
        },
        {
          "internalType": "uint256",
          "name": "startTime",
          "type": "uint256"
        },
        {
          "internalType": "uint256",
          "name": "endTime",
          "type": "uint256"
        }
      ],
      "name": "listItemForAuction",
      "outputs": [],
      "stateMutability": "nonpayable",
      "type": "function"
    },
    {
      "inputs": [
        {
          "internalType": "address",
          "name": "nftContract",
          "type": "address"
        },
        {
          "internalType": "uint256",
          "name": "tokenId",
          "type": "uint256"
        },
        {
          "internalType": "uint256",
          "name": "price",
          "type": "uint256"
        }
      ],
      "name": "listItemForSale",
      "outputs": [],
      "stateMutability": "nonpayable",
      "type": "function"
    },
    {
      "inputs": [
        {
          "internalType": "address",
          "name": "",
          "type": "address"
        },
        {
          "internalType": "uint256",
          "name": "",
          "type": "uint256"
        }
      ],
      "name": "listings",
      "outputs": [
        {
          "internalType": "address payable",
          "name": "seller",
          "type": "address"
        },
        {
          "internalType": "uint256",
          "name": "price",
          "type": "uint256"
        },
        {
          "internalType": "uint256",
          "name": "commission",
          "type": "uint256"
        }
      ],
      "stateMutability": "view",
      "type": "function"
    },
    {
      "inputs": [],
      "name": "marketFee",
      "outputs": [
        {
          "internalType": "uint256",
          "name": "",
          "type": "uint256"
        }
      ],
      "stateMutability": "view",
      "type": "function"
    },
    {
      "inputs": [
        {
          "internalType": "address",
          "name": "",
          "type": "address"
        },
        {
          "internalType": "uint256",
          "name": "",
          "type": "uint256"
        }
      ],
      "name": "offers",
      "outputs": [
        {
          "internalType": "uint256",
          "name": "",
          "type": "uint256"
        }
      ],
      "stateMutability": "view",
      "type": "function"
    },
    {
      "inputs": [],
      "name": "owner",
      "outputs": [
        {
          "internalType": "address",
          "name": "",
          "type": "address"
        }
      ],
      "stateMutability": "view",
      "type": "function"
    },
    {
      "inputs": [
        {
          "internalType": "address",
          "name": "nftContract",
          "type": "address"
        },
        {
          "internalType": "uint256",
          "name": "tokenId",
          "type": "uint256"
        }
      ],
      "name": "placeBid",
      "outputs": [],
      "stateMutability": "payable",
      "type": "function"
    },
    {
      "inputs": [
        {
          "internalType": "address",
          "name": "nftContract",
          "type": "address"
        },
        {
          "internalType": "uint256",
          "name": "tokenId",
          "type": "uint256"
        }
      ],
      "name": "previousSales",
      "outputs": [
        {
          "components": [
            {
              "internalType": "address",
              "name": "seller",
              "type": "address"
            },
            {
              "internalType": "address",
              "name": "buyer",
              "type": "address"
            },
            {
              "internalType": "uint256",
              "name": "amountPaid",
              "type": "uint256"
            },
            {
              "internalType": "uint256",
              "name": "commissionPaid",
              "type": "uint256"
            }
          ],
          "internalType": "struct CheddaMarket.Sale[]",
          "name": "",
          "type": "tuple[]"
        }
      ],
      "stateMutability": "view",
      "type": "function"
    },
    {
      "inputs": [],
      "name": "renounceOwnership",
      "outputs": [],
      "stateMutability": "nonpayable",
      "type": "function"
    },
    {
      "inputs": [
        {
          "internalType": "address",
          "name": "",
          "type": "address"
        },
        {
          "internalType": "uint256",
          "name": "",
          "type": "uint256"
        },
        {
          "internalType": "uint256",
          "name": "",
          "type": "uint256"
        }
      ],
      "name": "sales",
      "outputs": [
        {
          "internalType": "address",
          "name": "seller",
          "type": "address"
        },
        {
          "internalType": "address",
          "name": "buyer",
          "type": "address"
        },
        {
          "internalType": "uint256",
          "name": "amountPaid",
          "type": "uint256"
        },
        {
          "internalType": "uint256",
          "name": "commissionPaid",
          "type": "uint256"
        }
      ],
      "stateMutability": "view",
      "type": "function"
    },
    {
      "inputs": [
        {
          "internalType": "uint256",
          "name": "newFee",
          "type": "uint256"
        }
      ],
      "name": "setMarketFee",
      "outputs": [],
      "stateMutability": "nonpayable",
      "type": "function"
    },
    {
      "inputs": [
        {
          "internalType": "address payable",
          "name": "newAddress",
          "type": "address"
        }
      ],
      "name": "setfeeRecipient",
      "outputs": [],
      "stateMutability": "nonpayable",
      "type": "function"
    },
    {
      "inputs": [
        {
          "internalType": "address",
          "name": "",
          "type": "address"
        },
        {
          "internalType": "uint256",
          "name": "",
          "type": "uint256"
        }
      ],
      "name": "tokenIdsForSale",
      "outputs": [
        {
          "internalType": "uint256",
          "name": "",
          "type": "uint256"
        }
      ],
      "stateMutability": "view",
      "type": "function"
    },
    {
      "inputs": [
        {
          "internalType": "address",
          "name": "newOwner",
          "type": "address"
        }
      ],
      "name": "transferOwnership",
      "outputs": [],
      "stateMutability": "nonpayable",
      "type": "function"
    }
  ],
  "bytecode": "0x60806040523480156200001157600080fd5b5062000032620000266200003f60201b60201c565b6200004760201b60201c565b600180819055506200010b565b600033905090565b60008060009054906101000a900473ffffffffffffffffffffffffffffffffffffffff169050816000806101000a81548173ffffffffffffffffffffffffffffffffffffffff021916908373ffffffffffffffffffffffffffffffffffffffff1602179055508173ffffffffffffffffffffffffffffffffffffffff168173ffffffffffffffffffffffffffffffffffffffff167f8be0079c531659141344cd1fd0a4f28419497f9722a3daafe3b4186f6b6457e060405160405180910390a35050565b612608806200011b6000396000f3fe6080604052600436106101135760003560e01c8063715018a6116100a05780639f37092a116100645780639f37092a146103b3578063aa1a8411146103cf578063c33068d81461040c578063d98b9bb514610435578063f2fde38b1461045157610113565b8063715018a6146102cb578063769a8b2e146102e2578063806d48881461032257806384213b9e1461035f5780638da5cb5b1461038857610113565b806339b6b1e5116100e757806339b6b1e5146101d45780633fb902ab146101fd57806346904840146102265780634b26a5b7146102515780636a6f216f1461028e57610113565b806207df30146101185780630ccf21561461015757806316f3a95b1461018257806326b825d2146101ab575b600080fd5b34801561012457600080fd5b5061013f600480360381019061013a9190611b4a565b61047a565b60405161014e93929190611fb5565b60405180910390f35b34801561016357600080fd5b5061016c6104d1565b60405161017991906121a7565b60405180910390f35b34801561018e57600080fd5b506101a960048036038101906101a49190611b4a565b6104d7565b005b3480156101b757600080fd5b506101d260048036038101906101cd9190611c75565b61063d565b005b3480156101e057600080fd5b506101fb60048036038101906101f69190611b4a565b6106c3565b005b34801561020957600080fd5b50610224600480360381019061021f9190611b86565b6106c7565b005b34801561023257600080fd5b5061023b6109e8565b6040516102489190611f9a565b60405180910390f35b34801561025d57600080fd5b5061027860048036038101906102739190611b4a565b610a0e565b60405161028591906121a7565b60405180910390f35b34801561029a57600080fd5b506102b560048036038101906102b09190611b4a565b610a3f565b6040516102c2919061208a565b60405180910390f35b3480156102d757600080fd5b506102e0610bb5565b005b3480156102ee57600080fd5b5061030960048036038101906103049190611b86565b610c3d565b6040516103199493929190612023565b60405180910390f35b34801561032e57600080fd5b5061034960048036038101906103449190611acf565b610cd7565b6040516103569190612068565b60405180910390f35b34801561036b57600080fd5b5061038660048036038101906103819190611b21565b610f57565b005b34801561039457600080fd5b5061039d611017565b6040516103aa9190611f7f565b60405180910390f35b6103cd60048036038101906103c89190611b4a565b611040565b005b3480156103db57600080fd5b506103f660048036038101906103f19190611b4a565b61149b565b60405161040391906121a7565b60405180910390f35b34801561041857600080fd5b50610433600480360381019061042e9190611bd5565b6114c0565b005b61044f600480360381019061044a9190611b4a565b6114c7565b005b34801561045d57600080fd5b5061047860048036038101906104739190611acf565b6114cb565b005b6003602052816000526040600020602052806000526040600020600091509150508060000160009054906101000a900473ffffffffffffffffffffffffffffffffffffffff16908060010154908060020154905083565b60075481565b81816104e2826115c3565b156105e45760008290503373ffffffffffffffffffffffffffffffffffffffff168173ffffffffffffffffffffffffffffffffffffffff16636352211e846040518263ffffffff1660e01b815260040161053c91906121a7565b60206040518083038186803b15801561055457600080fd5b505afa158015610568573d6000803e3d6000fd5b505050506040513d601f19601f8201168201806040525081019061058c9190611af8565b73ffffffffffffffffffffffffffffffffffffffff16146105e2576040517f08c379a00000000000000000000000000000000000000000000000000000000081526004016105d990612107565b60405180910390fd5b505b6105ee848461165c565b61062d576040517f08c379a000000000000000000000000000000000000000000000000000000000815260040161062490612127565b60405180910390fd5b6106378484611709565b50505050565b610645611836565b73ffffffffffffffffffffffffffffffffffffffff16610663611017565b73ffffffffffffffffffffffffffffffffffffffff16146106b9576040517f08c379a00000000000000000000000000000000000000000000000000000000081526004016106b0906120e7565b60405180910390fd5b8060078190555050565b5050565b82826106d2826115c3565b156107d45760008290503373ffffffffffffffffffffffffffffffffffffffff168173ffffffffffffffffffffffffffffffffffffffff16636352211e846040518263ffffffff1660e01b815260040161072c91906121a7565b60206040518083038186803b15801561074457600080fd5b505afa158015610758573d6000803e3d6000fd5b505050506040513d601f19601f8201168201806040525081019061077c9190611af8565b73ffffffffffffffffffffffffffffffffffffffff16146107d2576040517f08c379a00000000000000000000000000000000000000000000000000000000081526004016107c990612107565b60405180910390fd5b505b6107de858561165c565b1561081e576040517f08c379a000000000000000000000000000000000000000000000000000000000815260040161081590612167565b60405180910390fd5b8473ffffffffffffffffffffffffffffffffffffffff166323b872dd610842611836565b30876040518463ffffffff1660e01b815260040161086293929190611fec565b600060405180830381600087803b15801561087c57600080fd5b505af1158015610890573d6000803e3d6000fd5b5050505060405180606001604052806108a7611836565b73ffffffffffffffffffffffffffffffffffffffff1681526020018481526020016000815250600360008773ffffffffffffffffffffffffffffffffffffffff1673ffffffffffffffffffffffffffffffffffffffff168152602001908152602001600020600086815260200190815260200160002060008201518160000160006101000a81548173ffffffffffffffffffffffffffffffffffffffff021916908373ffffffffffffffffffffffffffffffffffffffff1602179055506020820151816001015560408201518160020155905050600460008673ffffffffffffffffffffffffffffffffffffffff1673ffffffffffffffffffffffffffffffffffffffff1681526020019081526020016000208490806001815401808255809150506001900390600052602060002001600090919091909150555050505050565b600860009054906101000a900473ffffffffffffffffffffffffffffffffffffffff1681565b60046020528160005260406000208181548110610a2a57600080fd5b90600052602060002001600091509150505481565b60606000600560008573ffffffffffffffffffffffffffffffffffffffff1673ffffffffffffffffffffffffffffffffffffffff1681526020019081526020016000206000848152602001908152602001600020805480602002602001604051908101604052809291908181526020016000905b82821015610ba557838290600052602060002090600402016040518060800160405290816000820160009054906101000a900473ffffffffffffffffffffffffffffffffffffffff1673ffffffffffffffffffffffffffffffffffffffff1673ffffffffffffffffffffffffffffffffffffffff1681526020016001820160009054906101000a900473ffffffffffffffffffffffffffffffffffffffff1673ffffffffffffffffffffffffffffffffffffffff1673ffffffffffffffffffffffffffffffffffffffff1681526020016002820154815260200160038201548152505081526020019060010190610ab3565b5050505090508091505092915050565b610bbd611836565b73ffffffffffffffffffffffffffffffffffffffff16610bdb611017565b73ffffffffffffffffffffffffffffffffffffffff1614610c31576040517f08c379a0000000000000000000000000000000000000000000000000000000008152600401610c28906120e7565b60405180910390fd5b610c3b600061183e565b565b60056020528260005260406000206020528160005260406000208181548110610c6557600080fd5b906000526020600020906004020160009250925050508060000160009054906101000a900473ffffffffffffffffffffffffffffffffffffffff16908060010160009054906101000a900473ffffffffffffffffffffffffffffffffffffffff16908060020154908060030154905084565b60606000600460008473ffffffffffffffffffffffffffffffffffffffff1673ffffffffffffffffffffffffffffffffffffffff16815260200190815260200160002080549050905060008167ffffffffffffffff811115610d62577f4e487b7100000000000000000000000000000000000000000000000000000000600052604160045260246000fd5b604051908082528060200260200182016040528015610d9b57816020015b610d88611a2f565b815260200190600190039081610d805790505b50905060005b82811015610f4c576000600360008773ffffffffffffffffffffffffffffffffffffffff1673ffffffffffffffffffffffffffffffffffffffff1681526020019081526020016000206000600460008973ffffffffffffffffffffffffffffffffffffffff1673ffffffffffffffffffffffffffffffffffffffff1681526020019081526020016000208481548110610e63577f4e487b7100000000000000000000000000000000000000000000000000000000600052603260045260246000fd5b906000526020600020015481526020019081526020016000206040518060600160405290816000820160009054906101000a900473ffffffffffffffffffffffffffffffffffffffff1673ffffffffffffffffffffffffffffffffffffffff1673ffffffffffffffffffffffffffffffffffffffff16815260200160018201548152602001600282015481525050905080838381518110610f2d577f4e487b7100000000000000000000000000000000000000000000000000000000600052603260045260246000fd5b6020026020010181905250508080610f449061238a565b915050610da1565b508092505050919050565b610f5f611836565b73ffffffffffffffffffffffffffffffffffffffff16610f7d611017565b73ffffffffffffffffffffffffffffffffffffffff1614610fd3576040517f08c379a0000000000000000000000000000000000000000000000000000000008152600401610fca906120e7565b60405180910390fd5b80600860006101000a81548173ffffffffffffffffffffffffffffffffffffffff021916908373ffffffffffffffffffffffffffffffffffffffff16021790555050565b60008060009054906101000a900473ffffffffffffffffffffffffffffffffffffffff16905090565b60026001541415611086576040517f08c379a000000000000000000000000000000000000000000000000000000000815260040161107d90612187565b60405180910390fd5b6002600181905550611098828261165c565b6110d7576040517f08c379a00000000000000000000000000000000000000000000000000000000081526004016110ce90612127565b60405180910390fd5b6000600360008473ffffffffffffffffffffffffffffffffffffffff1673ffffffffffffffffffffffffffffffffffffffff1681526020019081526020016000206000838152602001908152602001600020905060008160010154905080341015611177576040517f08c379a000000000000000000000000000000000000000000000000000000000815260040161116e90612147565b60405180910390fd5b600061118282611902565b9050600081146111f657600860009054906101000a900473ffffffffffffffffffffffffffffffffffffffff1673ffffffffffffffffffffffffffffffffffffffff166108fc829081150290604051600060405180830381858888f193505050501580156111f4573d6000803e3d6000fd5b505b6000813461120491906122d0565b90508360000160009054906101000a900473ffffffffffffffffffffffffffffffffffffffff1673ffffffffffffffffffffffffffffffffffffffff166108fc829081150290604051600060405180830381858888f19350505050158015611270573d6000803e3d6000fd5b508573ffffffffffffffffffffffffffffffffffffffff166323b872dd30611296611836565b886040518463ffffffff1660e01b81526004016112b593929190611fec565b600060405180830381600087803b1580156112cf57600080fd5b505af11580156112e3573d6000803e3d6000fd5b505050506112f18686611709565b600060405180608001604052808660000160009054906101000a900473ffffffffffffffffffffffffffffffffffffffff1673ffffffffffffffffffffffffffffffffffffffff168152602001611346611836565b73ffffffffffffffffffffffffffffffffffffffff168152602001858152602001838152509050600560008873ffffffffffffffffffffffffffffffffffffffff1673ffffffffffffffffffffffffffffffffffffffff168152602001908152602001600020600087815260200190815260200160002081908060018154018082558091505060019003906000526020600020906004020160009091909190915060008201518160000160006101000a81548173ffffffffffffffffffffffffffffffffffffffff021916908373ffffffffffffffffffffffffffffffffffffffff16021790555060208201518160010160006101000a81548173ffffffffffffffffffffffffffffffffffffffff021916908373ffffffffffffffffffffffffffffffffffffffff160217905550604082015181600201556060820151816003015550505050505050600180819055505050565b6006602052816000526040600020602052806000526040600020600091509150505481565b5050505050565b5050565b6114d3611836565b73ffffffffffffffffffffffffffffffffffffffff166114f1611017565b73ffffffffffffffffffffffffffffffffffffffff1614611547576040517f08c379a000000000000000000000000000000000000000000000000000000000815260040161153e906120e7565b60405180910390fd5b600073ffffffffffffffffffffffffffffffffffffffff168173ffffffffffffffffffffffffffffffffffffffff1614156115b7576040517f08c379a00000000000000000000000000000000000000000000000000000000081526004016115ae906120c7565b60405180910390fd5b6115c08161183e565b50565b60008173ffffffffffffffffffffffffffffffffffffffff166301ffc9a76380ac58cd60e01b6040518263ffffffff1660e01b815260040161160591906120ac565b60206040518083038186803b15801561161d57600080fd5b505afa158015611631573d6000803e3d6000fd5b505050506040513d601f19601f820116820180604052508101906116559190611c4c565b9050919050565b60008073ffffffffffffffffffffffffffffffffffffffff16600360008573ffffffffffffffffffffffffffffffffffffffff1673ffffffffffffffffffffffffffffffffffffffff168152602001908152602001600020600084815260200190815260200160002060000160009054906101000a900473ffffffffffffffffffffffffffffffffffffffff1673ffffffffffffffffffffffffffffffffffffffff161415905092915050565b600360008373ffffffffffffffffffffffffffffffffffffffff1673ffffffffffffffffffffffffffffffffffffffff1681526020019081526020016000206000828152602001908152602001600020600080820160006101000a81549073ffffffffffffffffffffffffffffffffffffffff02191690556001820160009055600282016000905550506000806117a08484611926565b91509150801561183057600460008573ffffffffffffffffffffffffffffffffffffffff1673ffffffffffffffffffffffffffffffffffffffff1681526020019081526020016000208281548110611821577f4e487b7100000000000000000000000000000000000000000000000000000000600052603260045260246000fd5b90600052602060002001600090555b50505050565b600033905090565b60008060009054906101000a900473ffffffffffffffffffffffffffffffffffffffff169050816000806101000a81548173ffffffffffffffffffffffffffffffffffffffff021916908373ffffffffffffffffffffffffffffffffffffffff1602179055508173ffffffffffffffffffffffffffffffffffffffff168173ffffffffffffffffffffffffffffffffffffffff167f8be0079c531659141344cd1fd0a4f28419497f9722a3daafe3b4186f6b6457e060405160405180910390a35050565b6000612710600754836119159190612276565b61191f9190612245565b9050919050565b60008060005b600460008673ffffffffffffffffffffffffffffffffffffffff1673ffffffffffffffffffffffffffffffffffffffff16815260200190815260200160002080549050811015611a1f5783600460008773ffffffffffffffffffffffffffffffffffffffff1673ffffffffffffffffffffffffffffffffffffffff16815260200190815260200160002082815481106119ee577f4e487b7100000000000000000000000000000000000000000000000000000000600052603260045260246000fd5b90600052602060002001541415611a0c578060019250925050611a28565b8080611a179061238a565b91505061192c565b50600080915091505b9250929050565b6040518060600160405280600073ffffffffffffffffffffffffffffffffffffffff16815260200160008152602001600081525090565b600081359050611a7581612576565b92915050565b600081519050611a8a81612576565b92915050565b600081359050611a9f8161258d565b92915050565b600081519050611ab4816125a4565b92915050565b600081359050611ac9816125bb565b92915050565b600060208284031215611ae157600080fd5b6000611aef84828501611a66565b91505092915050565b600060208284031215611b0a57600080fd5b6000611b1884828501611a7b565b91505092915050565b600060208284031215611b3357600080fd5b6000611b4184828501611a90565b91505092915050565b60008060408385031215611b5d57600080fd5b6000611b6b85828601611a66565b9250506020611b7c85828601611aba565b9150509250929050565b600080600060608486031215611b9b57600080fd5b6000611ba986828701611a66565b9350506020611bba86828701611aba565b9250506040611bcb86828701611aba565b9150509250925092565b600080600080600060a08688031215611bed57600080fd5b6000611bfb88828901611a66565b9550506020611c0c88828901611aba565b9450506040611c1d88828901611aba565b9350506060611c2e88828901611aba565b9250506080611c3f88828901611aba565b9150509295509295909350565b600060208284031215611c5e57600080fd5b6000611c6c84828501611aa5565b91505092915050565b600060208284031215611c8757600080fd5b6000611c9584828501611aba565b91505092915050565b6000611caa8383611eca565b60608301905092915050565b6000611cc28383611f0c565b60808301905092915050565b611cd781612316565b82525050565b611ce681612316565b82525050565b611cf581612304565b82525050565b611d0481612304565b82525050565b6000611d15826121e2565b611d1f8185612212565b9350611d2a836121c2565b8060005b83811015611d5b578151611d428882611c9e565b9750611d4d836121f8565b925050600181019050611d2e565b5085935050505092915050565b6000611d73826121ed565b611d7d8185612223565b9350611d88836121d2565b8060005b83811015611db9578151611da08882611cb6565b9750611dab83612205565b925050600181019050611d8c565b5085935050505092915050565b611dcf81612334565b82525050565b6000611de2602683612234565b9150611ded82612431565b604082019050919050565b6000611e05602083612234565b9150611e1082612480565b602082019050919050565b6000611e28601683612234565b9150611e33826124a9565b602082019050919050565b6000611e4b601483612234565b9150611e56826124d2565b602082019050919050565b6000611e6e601583612234565b9150611e79826124fb565b602082019050919050565b6000611e91601683612234565b9150611e9c82612524565b602082019050919050565b6000611eb4601f83612234565b9150611ebf8261254d565b602082019050919050565b606082016000820151611ee06000850182611cce565b506020820151611ef36020850182611f61565b506040820151611f066040850182611f61565b50505050565b608082016000820151611f226000850182611cec565b506020820151611f356020850182611cec565b506040820151611f486040850182611f61565b506060820151611f5b6060850182611f61565b50505050565b611f6a81612380565b82525050565b611f7981612380565b82525050565b6000602082019050611f946000830184611cfb565b92915050565b6000602082019050611faf6000830184611cdd565b92915050565b6000606082019050611fca6000830186611cdd565b611fd76020830185611f70565b611fe46040830184611f70565b949350505050565b60006060820190506120016000830186611cfb565b61200e6020830185611cfb565b61201b6040830184611f70565b949350505050565b60006080820190506120386000830187611cfb565b6120456020830186611cfb565b6120526040830185611f70565b61205f6060830184611f70565b95945050505050565b600060208201905081810360008301526120828184611d0a565b905092915050565b600060208201905081810360008301526120a48184611d68565b905092915050565b60006020820190506120c16000830184611dc6565b92915050565b600060208201905081810360008301526120e081611dd5565b9050919050565b6000602082019050818103600083015261210081611df8565b9050919050565b6000602082019050818103600083015261212081611e1b565b9050919050565b6000602082019050818103600083015261214081611e3e565b9050919050565b6000602082019050818103600083015261216081611e61565b9050919050565b6000602082019050818103600083015261218081611e84565b9050919050565b600060208201905081810360008301526121a081611ea7565b9050919050565b60006020820190506121bc6000830184611f70565b92915050565b6000819050602082019050919050565b6000819050602082019050919050565b600081519050919050565b600081519050919050565b6000602082019050919050565b6000602082019050919050565b600082825260208201905092915050565b600082825260208201905092915050565b600082825260208201905092915050565b600061225082612380565b915061225b83612380565b92508261226b5761226a612402565b5b828204905092915050565b600061228182612380565b915061228c83612380565b9250817fffffffffffffffffffffffffffffffffffffffffffffffffffffffffffffffff04831182151516156122c5576122c46123d3565b5b828202905092915050565b60006122db82612380565b91506122e683612380565b9250828210156122f9576122f86123d3565b5b828203905092915050565b600061230f82612360565b9050919050565b600061232182612360565b9050919050565b60008115159050919050565b60007fffffffff0000000000000000000000000000000000000000000000000000000082169050919050565b600073ffffffffffffffffffffffffffffffffffffffff82169050919050565b6000819050919050565b600061239582612380565b91507fffffffffffffffffffffffffffffffffffffffffffffffffffffffffffffffff8214156123c8576123c76123d3565b5b600182019050919050565b7f4e487b7100000000000000000000000000000000000000000000000000000000600052601160045260246000fd5b7f4e487b7100000000000000000000000000000000000000000000000000000000600052601260045260246000fd5b7f4f776e61626c653a206e6577206f776e657220697320746865207a65726f206160008201527f6464726573730000000000000000000000000000000000000000000000000000602082015250565b7f4f776e61626c653a2063616c6c6572206973206e6f7420746865206f776e6572600082015250565b7f4d61726b65743a204e6f74206974656d206f776e657200000000000000000000600082015250565b7f4d61726b65743a204e6f7420666f722073616c65000000000000000000000000600082015250565b7f4d61726b65743a2056616c7565203c2070726963650000000000000000000000600082015250565b7f4d61726b65743a20416c7265616479206c697374656400000000000000000000600082015250565b7f5265656e7472616e637947756172643a207265656e7472616e742063616c6c00600082015250565b61257f81612304565b811461258a57600080fd5b50565b61259681612316565b81146125a157600080fd5b50565b6125ad81612328565b81146125b857600080fd5b50565b6125c481612380565b81146125cf57600080fd5b5056fea26469706673582212207735e77a18ebf3d57d6b0db1e235655589a609a950f0b862552cc8f3ce0afdef64736f6c63430008040033",
  "linkReferences": {},
  "deployedLinkReferences": {}
}