{
  "_format": "hh-sol-artifact-1",
  "contractName": "CheddaBaseTokenVault",
  "sourceName": "contracts/pool/CheddaBaseTokenVault.sol",
  "abi": [
    {
      "inputs": [
        {
          "internalType": "contract ERC20",
          "name": "_asset",
          "type": "address"
        },
        {
          "internalType": "string",
          "name": "_name",
          "type": "string"
        },
        {
          "internalType": "string",
          "name": "_symbol",
          "type": "string"
        }
      ],
      "stateMutability": "nonpayable",
      "type": "constructor"
    },
    {
      "anonymous": false,
      "inputs": [
        {
          "indexed": true,
          "internalType": "address",
          "name": "owner",
          "type": "address"
        },
        {
          "indexed": true,
          "internalType": "address",
          "name": "spender",
          "type": "address"
        },
        {
          "indexed": false,
          "internalType": "uint256",
          "name": "amount",
          "type": "uint256"
        }
      ],
      "name": "Approval",
      "type": "event"
    },
    {
      "anonymous": false,
      "inputs": [
        {
          "indexed": true,
          "internalType": "address",
          "name": "from",
          "type": "address"
        },
        {
          "indexed": true,
          "internalType": "address",
          "name": "to",
          "type": "address"
        },
        {
          "indexed": false,
          "internalType": "uint256",
          "name": "amount",
          "type": "uint256"
        },
        {
          "indexed": false,
          "internalType": "uint256",
          "name": "shares",
          "type": "uint256"
        }
      ],
      "name": "Deposit",
      "type": "event"
    },
    {
      "anonymous": false,
      "inputs": [
        {
          "indexed": true,
          "internalType": "address",
          "name": "token",
          "type": "address"
        },
        {
          "indexed": true,
          "internalType": "address",
          "name": "account",
          "type": "address"
        },
        {
          "indexed": false,
          "internalType": "enum CheddaBaseTokenVault.CollateralType",
          "name": "ofType",
          "type": "uint8"
        },
        {
          "indexed": false,
          "internalType": "uint256",
          "name": "amount",
          "type": "uint256"
        }
      ],
      "name": "OnCollateralAdded",
      "type": "event"
    },
    {
      "anonymous": false,
      "inputs": [
        {
          "indexed": true,
          "internalType": "address",
          "name": "token",
          "type": "address"
        },
        {
          "indexed": true,
          "internalType": "address",
          "name": "account",
          "type": "address"
        },
        {
          "indexed": false,
          "internalType": "enum CheddaBaseTokenVault.CollateralType",
          "name": "ofType",
          "type": "uint8"
        },
        {
          "indexed": false,
          "internalType": "uint256",
          "name": "amount",
          "type": "uint256"
        }
      ],
      "name": "OnCollateralRemoved",
      "type": "event"
    },
    {
      "anonymous": false,
      "inputs": [
        {
          "indexed": false,
          "internalType": "address",
          "name": "account",
          "type": "address"
        },
        {
          "indexed": false,
          "internalType": "uint256",
          "name": "amount",
          "type": "uint256"
        }
      ],
      "name": "OnLoanOpened",
      "type": "event"
    },
    {
      "anonymous": false,
      "inputs": [
        {
          "indexed": false,
          "internalType": "address",
          "name": "account",
          "type": "address"
        },
        {
          "indexed": false,
          "internalType": "uint256",
          "name": "amount",
          "type": "uint256"
        }
      ],
      "name": "OnLoanRepaid",
      "type": "event"
    },
    {
      "anonymous": false,
      "inputs": [
        {
          "indexed": true,
          "internalType": "address",
          "name": "token",
          "type": "address"
        },
        {
          "indexed": true,
          "internalType": "address",
          "name": "user",
          "type": "address"
        }
      ],
      "name": "OnTokenWhitelisted",
      "type": "event"
    },
    {
      "anonymous": false,
      "inputs": [
        {
          "indexed": true,
          "internalType": "address",
          "name": "previousOwner",
          "type": "address"
        },
        {
          "indexed": true,
          "internalType": "address",
          "name": "newOwner",
          "type": "address"
        }
      ],
      "name": "OwnershipTransferred",
      "type": "event"
    },
    {
      "anonymous": false,
      "inputs": [
        {
          "indexed": true,
          "internalType": "address",
          "name": "from",
          "type": "address"
        },
        {
          "indexed": true,
          "internalType": "address",
          "name": "to",
          "type": "address"
        },
        {
          "indexed": false,
          "internalType": "uint256",
          "name": "amount",
          "type": "uint256"
        }
      ],
      "name": "Transfer",
      "type": "event"
    },
    {
      "anonymous": false,
      "inputs": [
        {
          "indexed": true,
          "internalType": "address",
          "name": "from",
          "type": "address"
        },
        {
          "indexed": true,
          "internalType": "address",
          "name": "to",
          "type": "address"
        },
        {
          "indexed": false,
          "internalType": "uint256",
          "name": "amount",
          "type": "uint256"
        },
        {
          "indexed": false,
          "internalType": "uint256",
          "name": "shares",
          "type": "uint256"
        }
      ],
      "name": "Withdraw",
      "type": "event"
    },
    {
      "inputs": [],
      "name": "BASIS_POINTS",
      "outputs": [
        {
          "internalType": "uint32",
          "name": "",
          "type": "uint32"
        }
      ],
      "stateMutability": "view",
      "type": "function"
    },
    {
      "inputs": [],
      "name": "DOMAIN_SEPARATOR",
      "outputs": [
        {
          "internalType": "bytes32",
          "name": "",
          "type": "bytes32"
        }
      ],
      "stateMutability": "view",
      "type": "function"
    },
    {
      "inputs": [
        {
          "internalType": "address",
          "name": "",
          "type": "address"
        }
      ],
      "name": "accountBorrowed",
      "outputs": [
        {
          "internalType": "uint256",
          "name": "",
          "type": "uint256"
        }
      ],
      "stateMutability": "view",
      "type": "function"
    },
    {
      "inputs": [
        {
          "internalType": "address",
          "name": "",
          "type": "address"
        },
        {
          "internalType": "address",
          "name": "",
          "type": "address"
        }
      ],
      "name": "accountCollateral",
      "outputs": [
        {
          "internalType": "address",
          "name": "token",
          "type": "address"
        },
        {
          "internalType": "enum CheddaBaseTokenVault.CollateralType",
          "name": "cType",
          "type": "uint8"
        },
        {
          "internalType": "uint256",
          "name": "amount",
          "type": "uint256"
        }
      ],
      "stateMutability": "view",
      "type": "function"
    },
    {
      "inputs": [
        {
          "internalType": "address",
          "name": "account",
          "type": "address"
        },
        {
          "internalType": "address",
          "name": "collateral",
          "type": "address"
        }
      ],
      "name": "accountCollateralCount",
      "outputs": [
        {
          "internalType": "uint256",
          "name": "",
          "type": "uint256"
        }
      ],
      "stateMutability": "view",
      "type": "function"
    },
    {
      "inputs": [
        {
          "internalType": "address",
          "name": "account",
          "type": "address"
        },
        {
          "internalType": "address",
          "name": "collateral",
          "type": "address"
        }
      ],
      "name": "accountHasCollateral",
      "outputs": [
        {
          "internalType": "bool",
          "name": "",
          "type": "bool"
        }
      ],
      "stateMutability": "view",
      "type": "function"
    },
    {
      "inputs": [
        {
          "internalType": "address",
          "name": "token",
          "type": "address"
        },
        {
          "internalType": "uint256",
          "name": "amount",
          "type": "uint256"
        }
      ],
      "name": "addCollateral",
      "outputs": [],
      "stateMutability": "nonpayable",
      "type": "function"
    },
    {
      "inputs": [
        {
          "internalType": "address",
          "name": "token",
          "type": "address"
        },
        {
          "internalType": "uint256[]",
          "name": "tokenIds",
          "type": "uint256[]"
        }
      ],
      "name": "addCollateral721",
      "outputs": [],
      "stateMutability": "nonpayable",
      "type": "function"
    },
    {
      "inputs": [
        {
          "internalType": "address",
          "name": "",
          "type": "address"
        },
        {
          "internalType": "address",
          "name": "",
          "type": "address"
        }
      ],
      "name": "allowance",
      "outputs": [
        {
          "internalType": "uint256",
          "name": "",
          "type": "uint256"
        }
      ],
      "stateMutability": "view",
      "type": "function"
    },
    {
      "inputs": [
        {
          "internalType": "address",
          "name": "spender",
          "type": "address"
        },
        {
          "internalType": "uint256",
          "name": "amount",
          "type": "uint256"
        }
      ],
      "name": "approve",
      "outputs": [
        {
          "internalType": "bool",
          "name": "",
          "type": "bool"
        }
      ],
      "stateMutability": "nonpayable",
      "type": "function"
    },
    {
      "inputs": [],
      "name": "asset",
      "outputs": [
        {
          "internalType": "contract ERC20",
          "name": "",
          "type": "address"
        }
      ],
      "stateMutability": "view",
      "type": "function"
    },
    {
      "inputs": [],
      "name": "assetBalance",
      "outputs": [
        {
          "internalType": "uint256",
          "name": "balance",
          "type": "uint256"
        }
      ],
      "stateMutability": "view",
      "type": "function"
    },
    {
      "inputs": [
        {
          "internalType": "address",
          "name": "user",
          "type": "address"
        }
      ],
      "name": "assetsOf",
      "outputs": [
        {
          "internalType": "uint256",
          "name": "",
          "type": "uint256"
        }
      ],
      "stateMutability": "view",
      "type": "function"
    },
    {
      "inputs": [],
      "name": "assetsPerShare",
      "outputs": [
        {
          "internalType": "uint256",
          "name": "",
          "type": "uint256"
        }
      ],
      "stateMutability": "view",
      "type": "function"
    },
    {
      "inputs": [
        {
          "internalType": "address",
          "name": "",
          "type": "address"
        }
      ],
      "name": "balanceOf",
      "outputs": [
        {
          "internalType": "uint256",
          "name": "",
          "type": "uint256"
        }
      ],
      "stateMutability": "view",
      "type": "function"
    },
    {
      "inputs": [],
      "name": "borrowApr",
      "outputs": [
        {
          "internalType": "uint32",
          "name": "",
          "type": "uint32"
        }
      ],
      "stateMutability": "pure",
      "type": "function"
    },
    {
      "inputs": [
        {
          "internalType": "address",
          "name": "",
          "type": "address"
        }
      ],
      "name": "collateralFactor",
      "outputs": [
        {
          "internalType": "uint256",
          "name": "",
          "type": "uint256"
        }
      ],
      "stateMutability": "view",
      "type": "function"
    },
    {
      "inputs": [
        {
          "internalType": "uint256",
          "name": "",
          "type": "uint256"
        }
      ],
      "name": "collateralTokenList",
      "outputs": [
        {
          "internalType": "address",
          "name": "",
          "type": "address"
        }
      ],
      "stateMutability": "view",
      "type": "function"
    },
    {
      "inputs": [
        {
          "internalType": "address",
          "name": "",
          "type": "address"
        }
      ],
      "name": "collateralTokens",
      "outputs": [
        {
          "internalType": "bool",
          "name": "",
          "type": "bool"
        }
      ],
      "stateMutability": "view",
      "type": "function"
    },
    {
      "inputs": [],
      "name": "decimals",
      "outputs": [
        {
          "internalType": "uint8",
          "name": "",
          "type": "uint8"
        }
      ],
      "stateMutability": "view",
      "type": "function"
    },
    {
      "inputs": [
        {
          "internalType": "uint256",
          "name": "amount",
          "type": "uint256"
        },
        {
          "internalType": "address",
          "name": "to",
          "type": "address"
        }
      ],
      "name": "deposit",
      "outputs": [
        {
          "internalType": "uint256",
          "name": "shares",
          "type": "uint256"
        }
      ],
      "stateMutability": "nonpayable",
      "type": "function"
    },
    {
      "inputs": [],
      "name": "depositApr",
      "outputs": [
        {
          "internalType": "uint32",
          "name": "",
          "type": "uint32"
        }
      ],
      "stateMutability": "pure",
      "type": "function"
    },
    {
      "inputs": [],
      "name": "deposits",
      "outputs": [
        {
          "internalType": "uint256",
          "name": "",
          "type": "uint256"
        }
      ],
      "stateMutability": "view",
      "type": "function"
    },
    {
      "inputs": [],
      "name": "getVaultStats",
      "outputs": [
        {
          "components": [
            {
              "internalType": "uint256",
              "name": "liquidity",
              "type": "uint256"
            },
            {
              "internalType": "uint256",
              "name": "utilization",
              "type": "uint256"
            },
            {
              "internalType": "uint32",
              "name": "depositApr",
              "type": "uint32"
            },
            {
              "internalType": "uint32",
              "name": "borrowApr",
              "type": "uint32"
            },
            {
              "internalType": "uint32",
              "name": "rewardsApr",
              "type": "uint32"
            }
          ],
          "internalType": "struct CheddaBaseTokenVault.VaultStats",
          "name": "",
          "type": "tuple"
        }
      ],
      "stateMutability": "view",
      "type": "function"
    },
    {
      "inputs": [
        {
          "internalType": "address",
          "name": "",
          "type": "address"
        }
      ],
      "name": "maxDeposit",
      "outputs": [
        {
          "internalType": "uint256",
          "name": "",
          "type": "uint256"
        }
      ],
      "stateMutability": "nonpayable",
      "type": "function"
    },
    {
      "inputs": [
        {
          "internalType": "address",
          "name": "",
          "type": "address"
        }
      ],
      "name": "maxMint",
      "outputs": [
        {
          "internalType": "uint256",
          "name": "",
          "type": "uint256"
        }
      ],
      "stateMutability": "nonpayable",
      "type": "function"
    },
    {
      "inputs": [
        {
          "internalType": "address",
          "name": "user",
          "type": "address"
        }
      ],
      "name": "maxRedeem",
      "outputs": [
        {
          "internalType": "uint256",
          "name": "",
          "type": "uint256"
        }
      ],
      "stateMutability": "nonpayable",
      "type": "function"
    },
    {
      "inputs": [
        {
          "internalType": "address",
          "name": "user",
          "type": "address"
        }
      ],
      "name": "maxWithdraw",
      "outputs": [
        {
          "internalType": "uint256",
          "name": "",
          "type": "uint256"
        }
      ],
      "stateMutability": "nonpayable",
      "type": "function"
    },
    {
      "inputs": [
        {
          "internalType": "uint256",
          "name": "shares",
          "type": "uint256"
        },
        {
          "internalType": "address",
          "name": "to",
          "type": "address"
        }
      ],
      "name": "mint",
      "outputs": [
        {
          "internalType": "uint256",
          "name": "amount",
          "type": "uint256"
        }
      ],
      "stateMutability": "nonpayable",
      "type": "function"
    },
    {
      "inputs": [],
      "name": "name",
      "outputs": [
        {
          "internalType": "string",
          "name": "",
          "type": "string"
        }
      ],
      "stateMutability": "view",
      "type": "function"
    },
    {
      "inputs": [
        {
          "internalType": "address",
          "name": "",
          "type": "address"
        }
      ],
      "name": "nonces",
      "outputs": [
        {
          "internalType": "uint256",
          "name": "",
          "type": "uint256"
        }
      ],
      "stateMutability": "view",
      "type": "function"
    },
    {
      "inputs": [],
      "name": "owner",
      "outputs": [
        {
          "internalType": "address",
          "name": "",
          "type": "address"
        }
      ],
      "stateMutability": "view",
      "type": "function"
    },
    {
      "inputs": [
        {
          "internalType": "address",
          "name": "owner",
          "type": "address"
        },
        {
          "internalType": "address",
          "name": "spender",
          "type": "address"
        },
        {
          "internalType": "uint256",
          "name": "value",
          "type": "uint256"
        },
        {
          "internalType": "uint256",
          "name": "deadline",
          "type": "uint256"
        },
        {
          "internalType": "uint8",
          "name": "v",
          "type": "uint8"
        },
        {
          "internalType": "bytes32",
          "name": "r",
          "type": "bytes32"
        },
        {
          "internalType": "bytes32",
          "name": "s",
          "type": "bytes32"
        }
      ],
      "name": "permit",
      "outputs": [],
      "stateMutability": "nonpayable",
      "type": "function"
    },
    {
      "inputs": [
        {
          "internalType": "uint256",
          "name": "amount",
          "type": "uint256"
        }
      ],
      "name": "previewDeposit",
      "outputs": [
        {
          "internalType": "uint256",
          "name": "",
          "type": "uint256"
        }
      ],
      "stateMutability": "view",
      "type": "function"
    },
    {
      "inputs": [
        {
          "internalType": "uint256",
          "name": "shares",
          "type": "uint256"
        }
      ],
      "name": "previewMint",
      "outputs": [
        {
          "internalType": "uint256",
          "name": "",
          "type": "uint256"
        }
      ],
      "stateMutability": "view",
      "type": "function"
    },
    {
      "inputs": [
        {
          "internalType": "uint256",
          "name": "shares",
          "type": "uint256"
        }
      ],
      "name": "previewRedeem",
      "outputs": [
        {
          "internalType": "uint256",
          "name": "",
          "type": "uint256"
        }
      ],
      "stateMutability": "view",
      "type": "function"
    },
    {
      "inputs": [
        {
          "internalType": "uint256",
          "name": "amount",
          "type": "uint256"
        }
      ],
      "name": "previewWithdraw",
      "outputs": [
        {
          "internalType": "uint256",
          "name": "",
          "type": "uint256"
        }
      ],
      "stateMutability": "view",
      "type": "function"
    },
    {
      "inputs": [],
      "name": "priceFeed",
      "outputs": [
        {
          "internalType": "contract IPriceFeed",
          "name": "",
          "type": "address"
        }
      ],
      "stateMutability": "view",
      "type": "function"
    },
    {
      "inputs": [
        {
          "internalType": "uint256",
          "name": "amount",
          "type": "uint256"
        }
      ],
      "name": "put",
      "outputs": [],
      "stateMutability": "nonpayable",
      "type": "function"
    },
    {
      "inputs": [
        {
          "internalType": "uint256",
          "name": "shares",
          "type": "uint256"
        },
        {
          "internalType": "address",
          "name": "to",
          "type": "address"
        },
        {
          "internalType": "address",
          "name": "from",
          "type": "address"
        }
      ],
      "name": "redeem",
      "outputs": [
        {
          "internalType": "uint256",
          "name": "amount",
          "type": "uint256"
        }
      ],
      "stateMutability": "nonpayable",
      "type": "function"
    },
    {
      "inputs": [
        {
          "internalType": "address",
          "name": "token",
          "type": "address"
        },
        {
          "internalType": "uint256",
          "name": "amount",
          "type": "uint256"
        }
      ],
      "name": "removeCollateral",
      "outputs": [],
      "stateMutability": "nonpayable",
      "type": "function"
    },
    {
      "inputs": [
        {
          "internalType": "address",
          "name": "token",
          "type": "address"
        },
        {
          "internalType": "uint256[]",
          "name": "tokenIds",
          "type": "uint256[]"
        }
      ],
      "name": "removeCollateral721",
      "outputs": [],
      "stateMutability": "nonpayable",
      "type": "function"
    },
    {
      "inputs": [],
      "name": "renounceOwnership",
      "outputs": [],
      "stateMutability": "nonpayable",
      "type": "function"
    },
    {
      "inputs": [],
      "name": "rewardsApr",
      "outputs": [
        {
          "internalType": "uint32",
          "name": "",
          "type": "uint32"
        }
      ],
      "stateMutability": "pure",
      "type": "function"
    },
    {
      "inputs": [],
      "name": "symbol",
      "outputs": [
        {
          "internalType": "string",
          "name": "",
          "type": "string"
        }
      ],
      "stateMutability": "view",
      "type": "function"
    },
    {
      "inputs": [
        {
          "internalType": "uint256",
          "name": "amount",
          "type": "uint256"
        }
      ],
      "name": "take",
      "outputs": [],
      "stateMutability": "nonpayable",
      "type": "function"
    },
    {
      "inputs": [
        {
          "internalType": "address",
          "name": "account",
          "type": "address"
        }
      ],
      "name": "totalAccountCollateralValue",
      "outputs": [
        {
          "internalType": "uint256",
          "name": "",
          "type": "uint256"
        }
      ],
      "stateMutability": "view",
      "type": "function"
    },
    {
      "inputs": [],
      "name": "totalAssets",
      "outputs": [
        {
          "internalType": "uint256",
          "name": "",
          "type": "uint256"
        }
      ],
      "stateMutability": "view",
      "type": "function"
    },
    {
      "inputs": [],
      "name": "totalBorrowed",
      "outputs": [
        {
          "internalType": "uint256",
          "name": "",
          "type": "uint256"
        }
      ],
      "stateMutability": "view",
      "type": "function"
    },
    {
      "inputs": [],
      "name": "totalSupply",
      "outputs": [
        {
          "internalType": "uint256",
          "name": "",
          "type": "uint256"
        }
      ],
      "stateMutability": "view",
      "type": "function"
    },
    {
      "inputs": [
        {
          "internalType": "address",
          "name": "to",
          "type": "address"
        },
        {
          "internalType": "uint256",
          "name": "amount",
          "type": "uint256"
        }
      ],
      "name": "transfer",
      "outputs": [
        {
          "internalType": "bool",
          "name": "",
          "type": "bool"
        }
      ],
      "stateMutability": "nonpayable",
      "type": "function"
    },
    {
      "inputs": [
        {
          "internalType": "address",
          "name": "from",
          "type": "address"
        },
        {
          "internalType": "address",
          "name": "to",
          "type": "address"
        },
        {
          "internalType": "uint256",
          "name": "amount",
          "type": "uint256"
        }
      ],
      "name": "transferFrom",
      "outputs": [
        {
          "internalType": "bool",
          "name": "",
          "type": "bool"
        }
      ],
      "stateMutability": "nonpayable",
      "type": "function"
    },
    {
      "inputs": [
        {
          "internalType": "address",
          "name": "newOwner",
          "type": "address"
        }
      ],
      "name": "transferOwnership",
      "outputs": [],
      "stateMutability": "nonpayable",
      "type": "function"
    },
    {
      "inputs": [],
      "name": "utilization",
      "outputs": [
        {
          "internalType": "uint32",
          "name": "",
          "type": "uint32"
        }
      ],
      "stateMutability": "view",
      "type": "function"
    },
    {
      "inputs": [
        {
          "internalType": "address",
          "name": "token",
          "type": "address"
        },
        {
          "internalType": "bool",
          "name": "isWhitelisted",
          "type": "bool"
        }
      ],
      "name": "whitelistToken",
      "outputs": [],
      "stateMutability": "nonpayable",
      "type": "function"
    },
    {
      "inputs": [
        {
          "internalType": "uint256",
          "name": "amount",
          "type": "uint256"
        },
        {
          "internalType": "address",
          "name": "to",
          "type": "address"
        },
        {
          "internalType": "address",
          "name": "from",
          "type": "address"
        }
      ],
      "name": "withdraw",
      "outputs": [
        {
          "internalType": "uint256",
          "name": "shares",
          "type": "uint256"
        }
      ],
      "stateMutability": "nonpayable",
      "type": "function"
    }
  ],
  "bytecode": "0x6101006040523480156200001257600080fd5b50604051620038b1380380620038b1833981016040819052620000359162000383565b8282828181846001600160a01b031663313ce5676040518163ffffffff1660e01b815260040160206040518083038186803b1580156200007457600080fd5b505afa15801562000089573d6000803e3d6000fd5b505050506040513d601f19601f82011682018060405250810190620000af919062000409565b620000ba336200013e565b8251620000cf9060019060208601906200022a565b508151620000e59060029060208501906200022a565b506003805460ff191660ff831617905546608052620001036200018e565b60a0525050506001600160601b0319606084901b1660c0526003546200012e9060ff16600a6200051f565b60e0525062000649945050505050565b600080546001600160a01b038381166001600160a01b0319831681178455604051919092169283917f8be0079c531659141344cd1fd0a4f28419497f9722a3daafe3b4186f6b6457e09190a35050565b60007f8b73c3c69bb8fe3d512ecc4cf759cc79239f7b179b0ffacaa9a75d522b39400f6001604051620001c2919062000433565b6040805191829003822060208301939093528101919091527fc89efdaa54c0f20c7adf612882df0950f5a951637e0307cdcb4c672f298b8bc660608201524660808201523060a082015260c00160405160208183030381529060405280519060200120905090565b8280546200023890620005e0565b90600052602060002090601f0160209004810192826200025c5760008555620002a7565b82601f106200027757805160ff1916838001178555620002a7565b82800160010185558215620002a7579182015b82811115620002a75782518255916020019190600101906200028a565b50620002b5929150620002b9565b5090565b5b80821115620002b55760008155600101620002ba565b600082601f830112620002e1578081fd5b81516001600160401b0380821115620002fe57620002fe62000633565b604051601f8301601f19908116603f0116810190828211818310171562000329576200032962000633565b8160405283815260209250868385880101111562000345578485fd5b8491505b8382101562000368578582018301518183018401529082019062000349565b838211156200037957848385830101525b9695505050505050565b60008060006060848603121562000398578283fd5b83516001600160a01b0381168114620003af578384fd5b60208501519093506001600160401b0380821115620003cc578384fd5b620003da87838801620002d0565b93506040860151915080821115620003f0578283fd5b50620003ff86828701620002d0565b9150509250925092565b6000602082840312156200041b578081fd5b815160ff811681146200042c578182fd5b9392505050565b600080835482600182811c9150808316806200045057607f831692505b60208084108214156200047157634e487b7160e01b87526022600452602487fd5b8180156200048857600181146200049a57620004c8565b60ff19861689528489019650620004c8565b60008a815260209020885b86811015620004c05781548b820152908501908301620004a5565b505084890196505b509498975050505050505050565b600181815b8085111562000517578160001904821115620004fb57620004fb6200061d565b808516156200050957918102915b93841c9390800290620004db565b509250929050565b60006200042c60ff8416836000826200053b57506001620005da565b816200054a57506000620005da565b81600181146200056357600281146200056e576200058e565b6001915050620005da565b60ff8411156200058257620005826200061d565b50506001821b620005da565b5060208310610133831016604e8410600b8410161715620005b3575081810a620005da565b620005bf8383620004d6565b8060001904821115620005d657620005d66200061d565b0290505b92915050565b600181811c90821680620005f557607f821691505b602082108114156200061757634e487b7160e01b600052602260045260246000fd5b50919050565b634e487b7160e01b600052601160045260246000fd5b634e487b7160e01b600052604160045260246000fd5b60805160a05160c05160601c60e051613201620006b06000396000610b310152600081816104ba015281816110e501528181611248015281816114e6015281816117bd01528181611f05015261205301526000610b8e01526000610b5e01526132016000f3fe608060405234801561001057600080fd5b50600436106103775760003560e01c8063876467f8116101d3578063c28d21a311610104578063dd62ed3e116100a2578063ef8b30f71161007c578063ef8b30f7146107fd578063f2fde38b14610810578063fbcc6f5e14610823578063ff8e4d4d1461084357600080fd5b8063dd62ed3e146107c0578063e1f1c4a7146107eb578063ea21cd92146107f557600080fd5b8063ce96cb77116100de578063ce96cb771461074e578063cffbc29714610761578063d505accf14610784578063d905777e1461079757600080fd5b8063c28d21a314610733578063c63d75b61461051a578063c66f24551461074657600080fd5b8063a9059cbb11610171578063b3d7f6b91161014b578063b3d7f6b9146106f1578063b460af9414610704578063ba08765214610717578063be5f5ff61461072a57600080fd5b8063a9059cbb146106b8578063ab6b737d146106cb578063b3a5a0a2146106de57600080fd5b806394bf804d116101ad57806394bf804d1461063957806395d89b411461064c578063a0ddc11a14610654578063a59aa5a61461066757600080fd5b8063876467f8146106025780638a1c8fa4146106155780638da5cb5b1461062857600080fd5b80633b121d56116102ad578063562053e81161024b57806370a082311161022557806370a08231146105a7578063715018a6146105c7578063741bef1a146105cf5780637ecebe00146105e257600080fd5b8063562053e8146105785780636d75b9ee146105815780636e553f651461059457600080fd5b80634ac9de92116102875780634ac9de921461052f5780634c19386c146105495780634cdad506146105525780634fd9efc41461056557600080fd5b80633b121d56146104f45780633f81a2c014610507578063402d267d1461051a57600080fd5b806323b872dd1161031a578063323a5e0b116102f4578063323a5e0b1461049c57806335d16e17146104a55780633644e515146104ad57806338d52e0f146104b557600080fd5b806323b872dd146104575780632c62fa101461046a578063313ce5671461047d57600080fd5b8063095ea7b311610356578063095ea7b3146104035780630a28a477146104265780630ffb1d8b1461043957806318160ddd1461044e57600080fd5b806225ce9f1461037c57806301e1d114146103dc57806306fdde03146103ee575b600080fd5b6103c461038a366004612bfc565b600e602090815260009283526040808420909152908252902080546001909101546001600160a01b03821691600160a01b900460ff169083565b6040516103d393929190612f5a565b60405180910390f35b6008545b6040519081526020016103d3565b6103f6610863565b6040516103d39190612fa0565b610416610411366004612de7565b6108f1565b60405190151581526020016103d3565b6103e0610434366004612e28565b61095e565b61044c610447366004612dad565b61098d565b005b6103e060045481565b610416610465366004612c2e565b610a28565b6103e0610478366004612be2565b610b08565b60035461048a9060ff1681565b60405160ff90911681526020016103d3565b6103e060085481565b6103e0610b2a565b6103e0610b5a565b6104dc7f000000000000000000000000000000000000000000000000000000000000000081565b6040516001600160a01b0390911681526020016103d3565b61044c610502366004612cda565b610bb0565b61044c610515366004612e28565b61100d565b6103e0610528366004612be2565b5060001990565b6208fcc85b60405163ffffffff90911681526020016103d3565b6103e060095481565b6103e0610560366004612e28565b611153565b61044c610573366004612e28565b611173565b620e7ef0610534565b61044c61058f366004612de7565b6112b7565b6103e06105a2366004612e40565b611491565b6103e06105b5366004612be2565b60056020526000908152604090205481565b61044c611568565b600a546104dc906001600160a01b031681565b6103e06105f0366004612be2565b60076020526000908152604090205481565b61044c610610366004612de7565b61159e565b610416610623366004612bfc565b611777565b6000546001600160a01b03166104dc565b6103e0610647366004612e40565b6117a3565b6103f661183f565b6103e0610662366004612bfc565b61184c565b61066f61187a565b6040805182518152602080840151908201528282015163ffffffff908116928201929092526060808401518316908201526080928301519091169181019190915260a0016103d3565b6104166106c6366004612de7565b6118f2565b61044c6106d9366004612cda565b611958565b6104dc6106ec366004612e28565b611dc9565b6103e06106ff366004612e28565b611df3565b6103e0610712366004612e62565b611e13565b6103e0610725366004612e62565b611f2c565b6205b8d8610534565b6103e0610741366004612be2565b612082565b6103e061227e565b6103e061075c366004612be2565b612290565b61041661076f366004612be2565b600b6020526000908152604090205460ff1681565b61044c610792366004612c69565b61229b565b6103e06107a5366004612be2565b6001600160a01b031660009081526005602052604090205490565b6103e06107ce366004612bfc565b600660209081526000928352604080842090915290825290205481565b610534620186a081565b6105346124ec565b6103e061080b366004612e28565b612512565b61044c61081e366004612be2565b612533565b6103e0610831366004612be2565b600d6020526000908152604090205481565b6103e0610851366004612be2565b600f6020526000908152604090205481565b6001805461087090613129565b80601f016020809104026020016040519081016040528092919081815260200182805461089c90613129565b80156108e95780601f106108be576101008083540402835291602001916108e9565b820191906000526020600020905b8154815290600101906020018083116108cc57829003601f168201915b505050505081565b3360008181526006602090815260408083206001600160a01b038716808552925280832085905551919290917f8c5be1e5ebec7d5bd14f71427d1e84f3dd0314c0f7b2291e5b200ac8c7c3b9259061094c9086815260200190565b60405180910390a35060015b92915050565b60045460009080156109845761097f8161097760085490565b8591906125ce565b610986565b825b9392505050565b6000546001600160a01b031633146109c05760405162461bcd60e51b81526004016109b790612ff3565b60405180910390fd5b6001600160a01b0382166000908152600b60205260409020805460ff19168215151790556109ee82826125fc565b60405133906001600160a01b038416907f3be071d02429b0852e4b41075b816127886e499ed6bea31e7b1a1b73da6246de90600090a35050565b6001600160a01b03831660009081526006602090815260408083203384529091528120546000198114610a8457610a5f8382613112565b6001600160a01b03861660009081526006602090815260408083203384529091529020555b6001600160a01b03851660009081526005602052604081208054859290610aac908490613112565b90915550506001600160a01b03808516600081815260056020526040908190208054870190555190918716906000805160206131ac83398151915290610af59087815260200190565b60405180910390a3506001949350505050565b6001600160a01b03811660009081526005602052604081205461095890611153565b6000610b557f0000000000000000000000000000000000000000000000000000000000000000611153565b905090565b60007f00000000000000000000000000000000000000000000000000000000000000004614610b8b57610b55612800565b507f000000000000000000000000000000000000000000000000000000000000000090565b6001600160a01b0382166000908152600b602052604090205460ff161515600114610bed5760405162461bcd60e51b81526004016109b79061305f565b6000815111610c3a5760405162461bcd60e51b815260206004820152601960248201527810d215985d5b1d0e88115b5c1d1e481d1bdad95b881b1a5cdd603a1b60448201526064016109b7565b33610c458184611777565b15610e2f576001600160a01b038082166000908152600e602090815260408083209387168352929052908120905b8351811015610d905760005b6002830154811015610d3a57826002018181548110610cae57634e487b7160e01b600052603260045260246000fd5b9060005260206000200154858381518110610cd957634e487b7160e01b600052603260045260246000fd5b60200260200101511415610d285760405162461bcd60e51b815260206004820152601660248201527510d215985d5b1d0e88105b1c9958591e48105919195960521b60448201526064016109b7565b80610d3281613164565b915050610c7f565b5081600201848281518110610d5f57634e487b7160e01b600052603260045260246000fd5b6020908102919091018101518254600181018455600093845291909220015580610d8881613164565b915050610c73565b5082516001600160a01b038084166000908152600e6020908152604080832093891683529290529081206001018054909190610dcd908490613096565b90915550506001810154600282015414610e295760405162461bcd60e51b815260206004820152601f60248201527f43485661756c743a20496e636f727265637420746f6b656e20616d6f756e740060448201526064016109b7565b50610ef6565b604080516080810182526001600160a01b0385811680835260016020808501918252875185870152606085018890528684166000908152600e82528681209381529290529390208251815492166001600160a01b0319831681178255935192938493919283916001600160a81b031990911617600160a01b836002811115610ec757634e487b7160e01b600052602160045260246000fd5b02179055506040820151600182015560608201518051610ef1916002840191602090910190612b4c565b505050505b60005b8251811015610fb857836001600160a01b03166323b872dd8330868581518110610f3357634e487b7160e01b600052603260045260246000fd5b60209081029190910101516040516001600160e01b031960e086901b1681526001600160a01b0393841660048201529290911660248301526044820152606401600060405180830381600087803b158015610f8d57600080fd5b505af1158015610fa1573d6000803e3d6000fd5b505050508080610fb090613164565b915050610ef9565b50806001600160a01b0316836001600160a01b03167f6c375f50bc43d2f6190a8b74de59f177b57a493118809106f3a31f8d0e9b50a360018551604051611000929190612f85565b60405180910390a3505050565b338161102b5760405162461bcd60e51b81526004016109b790613028565b6001600160a01b0381166000908152600f60205260409020548211156110935760405162461bcd60e51b815260206004820152601860248201527f43485661756c743a20616d6f756e7420746f6f2068696768000000000000000060448201526064016109b7565b81600960008282546110a59190613112565b90915550506001600160a01b0381166000908152600f6020526040812080548492906110d2908490613112565b9091555061110d90506001600160a01b037f00000000000000000000000000000000000000000000000000000000000000001633308561289a565b604080516001600160a01b0383168152602081018490527fb1be5264c52118d8445ca85dab655d4838bb473a3030da7f995217290935bc59910160405180910390a15050565b60045460009080156109845761097f61116b60085490565b84908361292e565b33600061117f82612082565b6001600160a01b0383166000908152600f602052604090205490915081906111a8908590613096565b11156111f65760405162461bcd60e51b815260206004820152601760248201527f496e73756666696369656e7420636f6c6c61746572616c00000000000000000060448201526064016109b7565b82600960008282546112089190613096565b90915550506001600160a01b0382166000908152600f602052604081208054859290611235908490613096565b9091555061127090506001600160a01b037f00000000000000000000000000000000000000000000000000000000000000001630848661289a565b604080516001600160a01b0384168152602081018590527fc1da9bf387c72596e7227bd600280bffc4f2bb4c8252ecf8907a89cfc9e9b3ed910160405180910390a1505050565b6001600160a01b0382166000908152600b602052604090205460ff1615156001146112f45760405162461bcd60e51b81526004016109b79061305f565b600081116113145760405162461bcd60e51b81526004016109b790613028565b3361131f8184611777565b15611369576001600160a01b038082166000908152600e602090815260408083209387168352929052908120600101805484929061135e908490613096565b909155506114369050565b604080516080810182526001600160a01b03858116808352600060208085018281528587018990528651838152808301885260608701528785168352600e8252868320938352929052939093208251815492166001600160a01b0319831681178255935192938493919283916001600160a81b031990911617600160a01b83600281111561140757634e487b7160e01b600052602160045260246000fd5b02179055506040820151600182015560608201518051611431916002840191602090910190612b4c565b505050505b61144b6001600160a01b03841682308561289a565b806001600160a01b0316836001600160a01b03167f6c375f50bc43d2f6190a8b74de59f177b57a493118809106f3a31f8d0e9b50a3600085604051611000929190612f85565b600061149c83612512565b9050806114d95760405162461bcd60e51b815260206004820152600b60248201526a5a45524f5f53484152455360a81b60448201526064016109b7565b61150e6001600160a01b037f00000000000000000000000000000000000000000000000000000000000000001633308661289a565b611518828261294d565b60408051848152602081018390526001600160a01b0384169133917fdcbc1c05240f31ff3ad067ef1ee35ce4997762752e3a095284754544f4c709d7910160405180910390a361095883826129a7565b6000546001600160a01b031633146115925760405162461bcd60e51b81526004016109b790612ff3565b61159c60006129c2565b565b33816115bc5760405162461bcd60e51b81526004016109b790613028565b816115c7828561184c565b101561160b5760405162461bcd60e51b815260206004820152601360248201527210d215985d5b1d0e88125394d5518810dbdb1b606a1b60448201526064016109b7565b81611616828561184c565b141561166d576001600160a01b038082166000908152600e60209081526040808320938716835292905290812080546001600160a81b031916815560018101829055906116666002830182612b97565b50506116ad565b6001600160a01b038082166000908152600e60209081526040808320938716835292905290812060010180548492906116a7908490613112565b90915550505b6116b681612082565b6001600160a01b0382166000908152600f6020526040902054111561171d5760405162461bcd60e51b815260206004820152601e60248201527f43485661756c743a204e6f7420656e6f75676820636f6c6c61746572616c000060448201526064016109b7565b6117316001600160a01b0384163384612a12565b806001600160a01b0316836001600160a01b03167fbab292389c79be14f1a870edd025e27e8e1c41ccc83e197e25393e6c81e0cd81600085604051611000929190612f85565b6001600160a01b039182166000908152600e602090815260408083209385168352929052205416151590565b60006117ae83611df3565b90506117e56001600160a01b037f00000000000000000000000000000000000000000000000000000000000000001633308461289a565b6117ef828461294d565b60408051828152602081018590526001600160a01b0384169133917fdcbc1c05240f31ff3ad067ef1ee35ce4997762752e3a095284754544f4c709d7910160405180910390a361095881846129a7565b6002805461087090613129565b6001600160a01b039182166000908152600e6020908152604080832093909416825291909152206001015490565b6040805160a08101825260008082526020820181905291810182905260608101829052608081019190915260006040518060a001604052806118bb60085490565b81526020016118c86124ec565b63ffffffff1681526205b8d860208201526208fcc86040820152620e7ef060609091015292915050565b33600090815260056020526040812080548391908390611913908490613112565b90915550506001600160a01b038316600081815260056020526040908190208054850190555133906000805160206131ac8339815191529061094c9086815260200190565b6001600160a01b0382166000908152600b602052604090205460ff1615156001146119955760405162461bcd60e51b81526004016109b79061305f565b60008151116119e25760405162461bcd60e51b815260206004820152601960248201527810d215985d5b1d0e88115b5c1d1e481d1bdad95b881b1a5cdd603a1b60448201526064016109b7565b336000818152600e602090815260408083206001600160a01b03871684529091529020600181015483511015611a5a5760405162461bcd60e51b815260206004820152601a60248201527f43485661756c743a20496e76616c696420746f6b656e2049447300000000000060448201526064016109b7565b6000805b6002830154811015611baa5760005b8551811015611b9757858181518110611a9657634e487b7160e01b600052603260045260246000fd5b6020026020010151846002018381548110611ac157634e487b7160e01b600052603260045260246000fd5b90600052602060002001541415611b8557866001600160a01b03166342842e0e3087898581518110611b0357634e487b7160e01b600052603260045260246000fd5b60209081029190910101516040516001600160e01b031960e086901b1681526001600160a01b0393841660048201529290911660248301526044820152606401600060405180830381600087803b158015611b5d57600080fd5b505af1158015611b71573d6000803e3d6000fd5b50505050600183611b8291906130ae565b92505b80611b8f81613164565b915050611a6d565b5080611ba281613164565b915050611a5e565b5083518160ff1614611bfe5760405162461bcd60e51b815260206004820152601960248201527f43485661756c743a20496e76616c696420746f6b656e2049440000000000000060448201526064016109b7565b83516001600160a01b038085166000908152600e60209081526040808320938a1683529290529081206001018054909190611c3a908490613112565b90915550611c49905083612082565b6001600160a01b0384166000908152600f60205260409020541115611cb05760405162461bcd60e51b815260206004820152601e60248201527f43485661756c743a204e6f7420656e6f75676820636f6c6c61746572616c000060448201526064016109b7565b60005b8451811015611d7257856001600160a01b03166342842e0e3086888581518110611ced57634e487b7160e01b600052603260045260246000fd5b60209081029190910101516040516001600160e01b031960e086901b1681526001600160a01b0393841660048201529290911660248301526044820152606401600060405180830381600087803b158015611d4757600080fd5b505af1158015611d5b573d6000803e3d6000fd5b505050508080611d6a90613164565b915050611cb3565b50826001600160a01b0316856001600160a01b03167fbab292389c79be14f1a870edd025e27e8e1c41ccc83e197e25393e6c81e0cd8160018751604051611dba929190612f85565b60405180910390a35050505050565b600c8181548110611dd957600080fd5b6000918252602090912001546001600160a01b0316905081565b60045460009080156109845761097f611e0b60085490565b8490836125ce565b6000611e1e8461095e565b9050336001600160a01b03831614611e8e576001600160a01b03821660009081526006602090815260408083203384529091529020546000198114611e8c57611e678282613112565b6001600160a01b03841660009081526006602090815260408083203384529091529020555b505b611e988482612a91565b611ea28282612aa3565b826001600160a01b0316826001600160a01b03167ff341246adaac6f497bc2a656f546ab9e182111d630394f0c57c710a59a2cb5678684604051611ef0929190918252602082015260400190565b60405180910390a36109866001600160a01b037f0000000000000000000000000000000000000000000000000000000000000000168486612a12565b6001600160a01b0381166000818152600660209081526040808320338085529252822054919214801590611f6257506000198114155b15611f9657611f718582613112565b6001600160a01b03841660009081526006602090815260408083203384529091529020555b611f9f85611153565b915081611fdc5760405162461bcd60e51b815260206004820152600b60248201526a5a45524f5f41535345545360a81b60448201526064016109b7565b611fe68286612a91565b611ff08386612aa3565b836001600160a01b0316836001600160a01b03167ff341246adaac6f497bc2a656f546ab9e182111d630394f0c57c710a59a2cb567848860405161203e929190918252602082015260400190565b60405180910390a361207a6001600160a01b037f0000000000000000000000000000000000000000000000000000000000000000168584612a12565b509392505050565b600080805b600c54811015612277576000600c82815481106120b457634e487b7160e01b600052603260045260246000fd5b60009182526020808320909101546001600160a01b038881168452600e83526040808520928216808652928452808520815160808101909252805492831682529295509283019060ff600160a01b90910416600281111561212557634e487b7160e01b600052602160045260246000fd5b600281111561214457634e487b7160e01b600052602160045260246000fd5b815260200160018201548152602001600282018054806020026020016040519081016040528092919081815260200182805480156121a157602002820191906000526020600020905b81548152602001906001019080831161218d575b50505050508152505090506121b68683611777565b1561226257604081810151600a5491516352a1518960e01b81526001600160a01b03858116600483015260248201839052919260009216906352a151899060440160206040518083038186803b15801561220f57600080fd5b505afa158015612223573d6000803e3d6000fd5b505050506040513d601f19601f820116820180604052508101906122479190612e10565b9050600081131561225f5761225c8187613096565b95505b50505b5050808061226f90613164565b915050612087565b5092915050565b6000600954600854610b559190613112565b600061095882610b08565b428410156122eb5760405162461bcd60e51b815260206004820152601760248201527f5045524d49545f444541444c494e455f4558504952454400000000000000000060448201526064016109b7565b60006122f5610b5a565b6001600160a01b0389811660008181526007602090815260409182902080546001810190915582517f6e71edae12b1b97f4d1f60370fef10105fa2faae0126114a169c64845d6126c98184015280840194909452938c166060840152608083018b905260a083019390935260c08083018a90528151808403909101815260e08301909152805192019190912061190160f01b6101008301526101028201929092526101228101919091526101420160408051601f198184030181528282528051602091820120600080855291840180845281905260ff88169284019290925260608301869052608083018590529092509060019060a0016020604051602081039080840390855afa15801561240e573d6000803e3d6000fd5b5050604051601f1901519150506001600160a01b038116158015906124445750886001600160a01b0316816001600160a01b0316145b6124815760405162461bcd60e51b815260206004820152600e60248201526d24a72b20a624a22fa9a4a3a722a960911b60448201526064016109b7565b6001600160a01b0390811660009081526006602090815260408083208b8516808552908352928190208a905551898152919350918a16917f8c5be1e5ebec7d5bd14f71427d1e84f3dd0314c0f7b2291e5b200ac8c7c3b925910160405180910390a350505050505050565b6000600854620186a063ffffffff1660095461250891906130f3565b610b5591906130d3565b60045460009080156109845761097f8161252b60085490565b85919061292e565b6000546001600160a01b0316331461255d5760405162461bcd60e51b81526004016109b790612ff3565b6001600160a01b0381166125c25760405162461bcd60e51b815260206004820152602660248201527f4f776e61626c653a206e6577206f776e657220697320746865207a65726f206160448201526564647265737360d01b60648201526084016109b7565b6125cb816129c2565b50565b8282028115158415858304851417166125e657600080fd5b6001826001830304018115150290509392505050565b80156126be5760005b600c5481101561266c57826001600160a01b0316600c828154811061263a57634e487b7160e01b600052603260045260246000fd5b6000918252602090912001546001600160a01b0316141561265a57505050565b8061266481613164565b915050612605565b50600c80546001810182556000919091527fdf6966c971051c3d54ec59162606531493a51404a002842f56009d7e5cf4a8c70180546001600160a01b0384166001600160a01b03199091161790555050565b60005b600c548110156127fb57826001600160a01b0316600c82815481106126f657634e487b7160e01b600052603260045260246000fd5b6000918252602090912001546001600160a01b031614156127e957600c805461272190600190613112565b8154811061273f57634e487b7160e01b600052603260045260246000fd5b600091825260209091200154600c80546001600160a01b03909216918390811061277957634e487b7160e01b600052603260045260246000fd5b9060005260206000200160006101000a8154816001600160a01b0302191690836001600160a01b03160217905550600c8054806127c657634e487b7160e01b600052603160045260246000fd5b600082815260209020810160001990810180546001600160a01b03191690550190555b806127f381613164565b9150506126c1565b505050565b60007f8b73c3c69bb8fe3d512ecc4cf759cc79239f7b179b0ffacaa9a75d522b39400f60016040516128329190612ebf565b6040805191829003822060208301939093528101919091527fc89efdaa54c0f20c7adf612882df0950f5a951637e0307cdcb4c672f298b8bc660608201524660808201523060a082015260c00160405160208183030381529060405280519060200120905090565b60006040516323b872dd60e01b81526001600160a01b03851660048201526001600160a01b038416602482015282604482015260008060648360008a5af19150506128e481612b05565b6129275760405162461bcd60e51b81526020600482015260146024820152731514905394d1915497d19493d357d1905253115160621b60448201526064016109b7565b5050505050565b82820281151584158583048514171661294657600080fd5b0492915050565b806004600082825461295f9190613096565b90915550506001600160a01b0382166000818152600560209081526040808320805486019055518481526000805160206131ac83398151915291015b60405180910390a35050565b81600860008282546129b99190613096565b90915550505050565b600080546001600160a01b038381166001600160a01b0319831681178455604051919092169283917f8be0079c531659141344cd1fd0a4f28419497f9722a3daafe3b4186f6b6457e09190a35050565b600060405163a9059cbb60e01b81526001600160a01b03841660048201528260248201526000806044836000895af1915050612a4d81612b05565b612a8b5760405162461bcd60e51b815260206004820152600f60248201526e1514905394d1915497d19052531151608a1b60448201526064016109b7565b50505050565b81600860008282546129b99190613112565b6001600160a01b03821660009081526005602052604081208054839290612acb908490613112565b90915550506004805482900390556040518181526000906001600160a01b038416906000805160206131ac8339815191529060200161299b565b60003d82612b1757806000803e806000fd5b8060208114612b2f578015612b405760009250612b45565b816000803e60005115159250612b45565b600192505b5050919050565b828054828255906000526020600020908101928215612b87579160200282015b82811115612b87578251825591602001919060010190612b6c565b50612b93929150612bb1565b5090565b50805460008255906000526020600020908101906125cb91905b5b80821115612b935760008155600101612bb2565b80356001600160a01b0381168114612bdd57600080fd5b919050565b600060208284031215612bf3578081fd5b61098682612bc6565b60008060408385031215612c0e578081fd5b612c1783612bc6565b9150612c2560208401612bc6565b90509250929050565b600080600060608486031215612c42578081fd5b612c4b84612bc6565b9250612c5960208501612bc6565b9150604084013590509250925092565b600080600080600080600060e0888a031215612c83578283fd5b612c8c88612bc6565b9650612c9a60208901612bc6565b95506040880135945060608801359350608088013560ff81168114612cbd578384fd5b9699959850939692959460a0840135945060c09093013592915050565b60008060408385031215612cec578182fd5b612cf583612bc6565b915060208084013567ffffffffffffffff80821115612d12578384fd5b818601915086601f830112612d25578384fd5b813581811115612d3757612d37613195565b8060051b604051601f19603f83011681018181108582111715612d5c57612d5c613195565b604052828152858101935084860182860187018b1015612d7a578788fd5b8795505b83861015612d9c578035855260019590950194938601938601612d7e565b508096505050505050509250929050565b60008060408385031215612dbf578182fd5b612dc883612bc6565b915060208301358015158114612ddc578182fd5b809150509250929050565b60008060408385031215612df9578182fd5b612e0283612bc6565b946020939093013593505050565b600060208284031215612e21578081fd5b5051919050565b600060208284031215612e39578081fd5b5035919050565b60008060408385031215612e52578182fd5b82359150612c2560208401612bc6565b600080600060608486031215612e76578283fd5b83359250612e8660208501612bc6565b9150612e9460408501612bc6565b90509250925092565b60038110612ebb57634e487b7160e01b600052602160045260246000fd5b9052565b600080835482600182811c915080831680612edb57607f831692505b6020808410821415612efb57634e487b7160e01b87526022600452602487fd5b818015612f0f5760018114612f2057612f4c565b60ff19861689528489019650612f4c565b60008a815260209020885b86811015612f445781548b820152908501908301612f2b565b505084890196505b509498975050505050505050565b6001600160a01b038416815260608101612f776020830185612e9d565b826040830152949350505050565b60408101612f938285612e9d565b8260208301529392505050565b6000602080835283518082850152825b81811015612fcc57858101830151858201604001528201612fb0565b81811115612fdd5783604083870101525b50601f01601f1916929092016040019392505050565b6020808252818101527f4f776e61626c653a2063616c6c6572206973206e6f7420746865206f776e6572604082015260600190565b60208082526017908201527f43485661756c743a20496e76616c696420616d6f756e74000000000000000000604082015260600190565b60208082526018908201527f43485661756c743a204e6f742077686974656c69737465640000000000000000604082015260600190565b600082198211156130a9576130a961317f565b500190565b600060ff821660ff84168060ff038211156130cb576130cb61317f565b019392505050565b6000826130ee57634e487b7160e01b81526012600452602481fd5b500490565b600081600019048311821515161561310d5761310d61317f565b500290565b6000828210156131245761312461317f565b500390565b600181811c9082168061313d57607f821691505b6020821081141561315e57634e487b7160e01b600052602260045260246000fd5b50919050565b60006000198214156131785761317861317f565b5060010190565b634e487b7160e01b600052601160045260246000fd5b634e487b7160e01b600052604160045260246000fdfeddf252ad1be2c89b69c2b068fc378daa952ba7f163c4a11628f55a4df523b3efa26469706673582212205cf3c12f862b36f6bca349d739879934914efbd8e54fa3694babddbe2349c47a64736f6c63430008040033",
  "linkReferences": {},
  "deployedLinkReferences": {}
}