{
  "_format": "hh-sol-artifact-1",
  "contractName": "CheddaBaseTokenVault",
  "sourceName": "contracts/lending-pool/CheddaBaseTokenVault.sol",
  "abi": [
    {
      "inputs": [
        {
          "internalType": "contract ERC20",
          "name": "_asset",
          "type": "address"
        },
        {
          "internalType": "address",
          "name": "_oracle",
          "type": "address"
        },
        {
          "internalType": "address[]",
          "name": "collateral",
          "type": "address[]"
        }
      ],
      "stateMutability": "nonpayable",
      "type": "constructor"
    },
    {
      "anonymous": false,
      "inputs": [
        {
          "indexed": true,
          "internalType": "address",
          "name": "owner",
          "type": "address"
        },
        {
          "indexed": true,
          "internalType": "address",
          "name": "spender",
          "type": "address"
        },
        {
          "indexed": false,
          "internalType": "uint256",
          "name": "amount",
          "type": "uint256"
        }
      ],
      "name": "Approval",
      "type": "event"
    },
    {
      "anonymous": false,
      "inputs": [
        {
          "indexed": true,
          "internalType": "address",
          "name": "from",
          "type": "address"
        },
        {
          "indexed": true,
          "internalType": "address",
          "name": "to",
          "type": "address"
        },
        {
          "indexed": false,
          "internalType": "uint256",
          "name": "amount",
          "type": "uint256"
        },
        {
          "indexed": false,
          "internalType": "uint256",
          "name": "shares",
          "type": "uint256"
        }
      ],
      "name": "Deposit",
      "type": "event"
    },
    {
      "anonymous": false,
      "inputs": [
        {
          "indexed": true,
          "internalType": "address",
          "name": "token",
          "type": "address"
        },
        {
          "indexed": true,
          "internalType": "address",
          "name": "account",
          "type": "address"
        },
        {
          "indexed": false,
          "internalType": "enum CheddaBaseTokenVault.CollateralType",
          "name": "ofType",
          "type": "uint8"
        },
        {
          "indexed": false,
          "internalType": "uint256",
          "name": "amount",
          "type": "uint256"
        }
      ],
      "name": "OnCollateralAdded",
      "type": "event"
    },
    {
      "anonymous": false,
      "inputs": [
        {
          "indexed": true,
          "internalType": "address",
          "name": "token",
          "type": "address"
        },
        {
          "indexed": true,
          "internalType": "address",
          "name": "account",
          "type": "address"
        },
        {
          "indexed": false,
          "internalType": "enum CheddaBaseTokenVault.CollateralType",
          "name": "ofType",
          "type": "uint8"
        },
        {
          "indexed": false,
          "internalType": "uint256",
          "name": "amount",
          "type": "uint256"
        }
      ],
      "name": "OnCollateralRemoved",
      "type": "event"
    },
    {
      "anonymous": false,
      "inputs": [
        {
          "indexed": false,
          "internalType": "address",
          "name": "account",
          "type": "address"
        },
        {
          "indexed": false,
          "internalType": "uint256",
          "name": "amount",
          "type": "uint256"
        }
      ],
      "name": "OnLoanOpened",
      "type": "event"
    },
    {
      "anonymous": false,
      "inputs": [
        {
          "indexed": false,
          "internalType": "address",
          "name": "account",
          "type": "address"
        },
        {
          "indexed": false,
          "internalType": "uint256",
          "name": "amount",
          "type": "uint256"
        }
      ],
      "name": "OnLoanRepaid",
      "type": "event"
    },
    {
      "anonymous": false,
      "inputs": [
        {
          "indexed": true,
          "internalType": "address",
          "name": "token",
          "type": "address"
        },
        {
          "indexed": true,
          "internalType": "address",
          "name": "user",
          "type": "address"
        }
      ],
      "name": "OnTokenWhitelisted",
      "type": "event"
    },
    {
      "anonymous": false,
      "inputs": [
        {
          "indexed": true,
          "internalType": "address",
          "name": "previousOwner",
          "type": "address"
        },
        {
          "indexed": true,
          "internalType": "address",
          "name": "newOwner",
          "type": "address"
        }
      ],
      "name": "OwnershipTransferred",
      "type": "event"
    },
    {
      "anonymous": false,
      "inputs": [
        {
          "indexed": true,
          "internalType": "address",
          "name": "from",
          "type": "address"
        },
        {
          "indexed": true,
          "internalType": "address",
          "name": "to",
          "type": "address"
        },
        {
          "indexed": false,
          "internalType": "uint256",
          "name": "amount",
          "type": "uint256"
        }
      ],
      "name": "Transfer",
      "type": "event"
    },
    {
      "anonymous": false,
      "inputs": [
        {
          "indexed": true,
          "internalType": "address",
          "name": "from",
          "type": "address"
        },
        {
          "indexed": true,
          "internalType": "address",
          "name": "to",
          "type": "address"
        },
        {
          "indexed": false,
          "internalType": "uint256",
          "name": "amount",
          "type": "uint256"
        },
        {
          "indexed": false,
          "internalType": "uint256",
          "name": "shares",
          "type": "uint256"
        }
      ],
      "name": "Withdraw",
      "type": "event"
    },
    {
      "inputs": [],
      "name": "DOMAIN_SEPARATOR",
      "outputs": [
        {
          "internalType": "bytes32",
          "name": "",
          "type": "bytes32"
        }
      ],
      "stateMutability": "view",
      "type": "function"
    },
    {
      "inputs": [],
      "name": "MAX_LTV",
      "outputs": [
        {
          "internalType": "uint256",
          "name": "",
          "type": "uint256"
        }
      ],
      "stateMutability": "view",
      "type": "function"
    },
    {
      "inputs": [],
      "name": "PECISION",
      "outputs": [
        {
          "internalType": "uint256",
          "name": "",
          "type": "uint256"
        }
      ],
      "stateMutability": "view",
      "type": "function"
    },
    {
      "inputs": [
        {
          "internalType": "address",
          "name": "",
          "type": "address"
        },
        {
          "internalType": "address",
          "name": "",
          "type": "address"
        }
      ],
      "name": "accountCollateral",
      "outputs": [
        {
          "internalType": "address",
          "name": "token",
          "type": "address"
        },
        {
          "internalType": "enum CheddaBaseTokenVault.CollateralType",
          "name": "cType",
          "type": "uint8"
        },
        {
          "internalType": "uint256",
          "name": "amount",
          "type": "uint256"
        }
      ],
      "stateMutability": "view",
      "type": "function"
    },
    {
      "inputs": [
        {
          "internalType": "address",
          "name": "account",
          "type": "address"
        },
        {
          "internalType": "address",
          "name": "collateral",
          "type": "address"
        }
      ],
      "name": "accountCollateralCount",
      "outputs": [
        {
          "internalType": "uint256",
          "name": "",
          "type": "uint256"
        }
      ],
      "stateMutability": "view",
      "type": "function"
    },
    {
      "inputs": [
        {
          "internalType": "address",
          "name": "account",
          "type": "address"
        },
        {
          "internalType": "address",
          "name": "collateral",
          "type": "address"
        }
      ],
      "name": "accountHasCollateral",
      "outputs": [
        {
          "internalType": "bool",
          "name": "",
          "type": "bool"
        }
      ],
      "stateMutability": "view",
      "type": "function"
    },
    {
      "inputs": [
        {
          "internalType": "address",
          "name": "account",
          "type": "address"
        }
      ],
      "name": "accountLiquidity",
      "outputs": [
        {
          "internalType": "uint256",
          "name": "",
          "type": "uint256"
        }
      ],
      "stateMutability": "view",
      "type": "function"
    },
    {
      "inputs": [
        {
          "internalType": "address",
          "name": "account",
          "type": "address"
        }
      ],
      "name": "accountPendingAmount",
      "outputs": [
        {
          "internalType": "uint256",
          "name": "borrowed",
          "type": "uint256"
        }
      ],
      "stateMutability": "view",
      "type": "function"
    },
    {
      "inputs": [
        {
          "internalType": "address",
          "name": "token",
          "type": "address"
        },
        {
          "internalType": "uint256",
          "name": "amount",
          "type": "uint256"
        }
      ],
      "name": "addCollateral",
      "outputs": [],
      "stateMutability": "nonpayable",
      "type": "function"
    },
    {
      "inputs": [
        {
          "internalType": "address",
          "name": "token",
          "type": "address"
        },
        {
          "internalType": "uint256[]",
          "name": "tokenIds",
          "type": "uint256[]"
        }
      ],
      "name": "addCollateral721",
      "outputs": [],
      "stateMutability": "nonpayable",
      "type": "function"
    },
    {
      "inputs": [
        {
          "internalType": "address",
          "name": "",
          "type": "address"
        },
        {
          "internalType": "address",
          "name": "",
          "type": "address"
        }
      ],
      "name": "allowance",
      "outputs": [
        {
          "internalType": "uint256",
          "name": "",
          "type": "uint256"
        }
      ],
      "stateMutability": "view",
      "type": "function"
    },
    {
      "inputs": [
        {
          "internalType": "address",
          "name": "spender",
          "type": "address"
        },
        {
          "internalType": "uint256",
          "name": "amount",
          "type": "uint256"
        }
      ],
      "name": "approve",
      "outputs": [
        {
          "internalType": "bool",
          "name": "",
          "type": "bool"
        }
      ],
      "stateMutability": "nonpayable",
      "type": "function"
    },
    {
      "inputs": [],
      "name": "asset",
      "outputs": [
        {
          "internalType": "contract ERC20",
          "name": "",
          "type": "address"
        }
      ],
      "stateMutability": "view",
      "type": "function"
    },
    {
      "inputs": [],
      "name": "assetBalance",
      "outputs": [
        {
          "internalType": "uint256",
          "name": "balance",
          "type": "uint256"
        }
      ],
      "stateMutability": "view",
      "type": "function"
    },
    {
      "inputs": [
        {
          "internalType": "address",
          "name": "user",
          "type": "address"
        }
      ],
      "name": "assetsOf",
      "outputs": [
        {
          "internalType": "uint256",
          "name": "",
          "type": "uint256"
        }
      ],
      "stateMutability": "view",
      "type": "function"
    },
    {
      "inputs": [],
      "name": "assetsPerShare",
      "outputs": [
        {
          "internalType": "uint256",
          "name": "",
          "type": "uint256"
        }
      ],
      "stateMutability": "view",
      "type": "function"
    },
    {
      "inputs": [
        {
          "internalType": "address",
          "name": "",
          "type": "address"
        }
      ],
      "name": "balanceOf",
      "outputs": [
        {
          "internalType": "uint256",
          "name": "",
          "type": "uint256"
        }
      ],
      "stateMutability": "view",
      "type": "function"
    },
    {
      "inputs": [],
      "name": "borrowApr",
      "outputs": [
        {
          "internalType": "uint256",
          "name": "",
          "type": "uint256"
        }
      ],
      "stateMutability": "view",
      "type": "function"
    },
    {
      "inputs": [],
      "name": "borrowFee",
      "outputs": [
        {
          "internalType": "int256",
          "name": "",
          "type": "int256"
        }
      ],
      "stateMutability": "view",
      "type": "function"
    },
    {
      "inputs": [],
      "name": "borrowRate",
      "outputs": [
        {
          "internalType": "uint256",
          "name": "",
          "type": "uint256"
        }
      ],
      "stateMutability": "view",
      "type": "function"
    },
    {
      "inputs": [],
      "name": "collateralAmounts",
      "outputs": [
        {
          "components": [
            {
              "internalType": "address",
              "name": "token",
              "type": "address"
            },
            {
              "internalType": "uint256",
              "name": "amount",
              "type": "uint256"
            },
            {
              "internalType": "int256",
              "name": "value",
              "type": "int256"
            }
          ],
          "internalType": "struct CheddaBaseTokenVault.CollateralValue[]",
          "name": "",
          "type": "tuple[]"
        }
      ],
      "stateMutability": "view",
      "type": "function"
    },
    {
      "inputs": [
        {
          "internalType": "address",
          "name": "",
          "type": "address"
        }
      ],
      "name": "collateralFactor",
      "outputs": [
        {
          "internalType": "uint256",
          "name": "",
          "type": "uint256"
        }
      ],
      "stateMutability": "view",
      "type": "function"
    },
    {
      "inputs": [
        {
          "internalType": "uint256",
          "name": "",
          "type": "uint256"
        }
      ],
      "name": "collateralTokenList",
      "outputs": [
        {
          "internalType": "address",
          "name": "",
          "type": "address"
        }
      ],
      "stateMutability": "view",
      "type": "function"
    },
    {
      "inputs": [
        {
          "internalType": "address",
          "name": "",
          "type": "address"
        }
      ],
      "name": "collateralTokens",
      "outputs": [
        {
          "internalType": "bool",
          "name": "",
          "type": "bool"
        }
      ],
      "stateMutability": "view",
      "type": "function"
    },
    {
      "inputs": [],
      "name": "debtToken",
      "outputs": [
        {
          "internalType": "contract ICheddaDebtToken",
          "name": "",
          "type": "address"
        }
      ],
      "stateMutability": "view",
      "type": "function"
    },
    {
      "inputs": [],
      "name": "decimals",
      "outputs": [
        {
          "internalType": "uint8",
          "name": "",
          "type": "uint8"
        }
      ],
      "stateMutability": "view",
      "type": "function"
    },
    {
      "inputs": [
        {
          "internalType": "uint256",
          "name": "amount",
          "type": "uint256"
        },
        {
          "internalType": "address",
          "name": "to",
          "type": "address"
        }
      ],
      "name": "deposit",
      "outputs": [
        {
          "internalType": "uint256",
          "name": "shares",
          "type": "uint256"
        }
      ],
      "stateMutability": "nonpayable",
      "type": "function"
    },
    {
      "inputs": [],
      "name": "depositApr",
      "outputs": [
        {
          "internalType": "uint256",
          "name": "",
          "type": "uint256"
        }
      ],
      "stateMutability": "view",
      "type": "function"
    },
    {
      "inputs": [],
      "name": "deposits",
      "outputs": [
        {
          "internalType": "uint256",
          "name": "",
          "type": "uint256"
        }
      ],
      "stateMutability": "view",
      "type": "function"
    },
    {
      "inputs": [],
      "name": "gauge",
      "outputs": [
        {
          "internalType": "contract IGauge",
          "name": "",
          "type": "address"
        }
      ],
      "stateMutability": "view",
      "type": "function"
    },
    {
      "inputs": [],
      "name": "getCollateralTokens",
      "outputs": [
        {
          "internalType": "address[]",
          "name": "list",
          "type": "address[]"
        }
      ],
      "stateMutability": "view",
      "type": "function"
    },
    {
      "inputs": [],
      "name": "getVaultStats",
      "outputs": [
        {
          "components": [
            {
              "internalType": "uint256",
              "name": "liquidity",
              "type": "uint256"
            },
            {
              "internalType": "uint256",
              "name": "utilization",
              "type": "uint256"
            },
            {
              "internalType": "uint256",
              "name": "depositApr",
              "type": "uint256"
            },
            {
              "internalType": "uint256",
              "name": "borrowApr",
              "type": "uint256"
            },
            {
              "internalType": "uint256",
              "name": "rewardsApr",
              "type": "uint256"
            }
          ],
          "internalType": "struct CheddaBaseTokenVault.VaultStats",
          "name": "",
          "type": "tuple"
        }
      ],
      "stateMutability": "view",
      "type": "function"
    },
    {
      "inputs": [],
      "name": "interestRateSlope",
      "outputs": [
        {
          "internalType": "uint256",
          "name": "slope",
          "type": "uint256"
        }
      ],
      "stateMutability": "view",
      "type": "function"
    },
    {
      "inputs": [],
      "name": "interestRateStrategy",
      "outputs": [
        {
          "internalType": "contract IReserveInterestRateStrategy",
          "name": "",
          "type": "address"
        }
      ],
      "stateMutability": "view",
      "type": "function"
    },
    {
      "inputs": [],
      "name": "liquidityRate",
      "outputs": [
        {
          "internalType": "uint256",
          "name": "",
          "type": "uint256"
        }
      ],
      "stateMutability": "view",
      "type": "function"
    },
    {
      "inputs": [
        {
          "internalType": "address",
          "name": "",
          "type": "address"
        }
      ],
      "name": "maxDeposit",
      "outputs": [
        {
          "internalType": "uint256",
          "name": "",
          "type": "uint256"
        }
      ],
      "stateMutability": "nonpayable",
      "type": "function"
    },
    {
      "inputs": [
        {
          "internalType": "address",
          "name": "",
          "type": "address"
        }
      ],
      "name": "maxMint",
      "outputs": [
        {
          "internalType": "uint256",
          "name": "",
          "type": "uint256"
        }
      ],
      "stateMutability": "nonpayable",
      "type": "function"
    },
    {
      "inputs": [
        {
          "internalType": "address",
          "name": "user",
          "type": "address"
        }
      ],
      "name": "maxRedeem",
      "outputs": [
        {
          "internalType": "uint256",
          "name": "",
          "type": "uint256"
        }
      ],
      "stateMutability": "nonpayable",
      "type": "function"
    },
    {
      "inputs": [
        {
          "internalType": "address",
          "name": "user",
          "type": "address"
        }
      ],
      "name": "maxWithdraw",
      "outputs": [
        {
          "internalType": "uint256",
          "name": "",
          "type": "uint256"
        }
      ],
      "stateMutability": "nonpayable",
      "type": "function"
    },
    {
      "inputs": [],
      "name": "name",
      "outputs": [
        {
          "internalType": "string",
          "name": "",
          "type": "string"
        }
      ],
      "stateMutability": "view",
      "type": "function"
    },
    {
      "inputs": [
        {
          "internalType": "address",
          "name": "",
          "type": "address"
        }
      ],
      "name": "nonces",
      "outputs": [
        {
          "internalType": "uint256",
          "name": "",
          "type": "uint256"
        }
      ],
      "stateMutability": "view",
      "type": "function"
    },
    {
      "inputs": [],
      "name": "oracle",
      "outputs": [
        {
          "internalType": "contract IPriceFeed",
          "name": "",
          "type": "address"
        }
      ],
      "stateMutability": "view",
      "type": "function"
    },
    {
      "inputs": [],
      "name": "owner",
      "outputs": [
        {
          "internalType": "address",
          "name": "",
          "type": "address"
        }
      ],
      "stateMutability": "view",
      "type": "function"
    },
    {
      "inputs": [
        {
          "internalType": "address",
          "name": "owner",
          "type": "address"
        },
        {
          "internalType": "address",
          "name": "spender",
          "type": "address"
        },
        {
          "internalType": "uint256",
          "name": "value",
          "type": "uint256"
        },
        {
          "internalType": "uint256",
          "name": "deadline",
          "type": "uint256"
        },
        {
          "internalType": "uint8",
          "name": "v",
          "type": "uint8"
        },
        {
          "internalType": "bytes32",
          "name": "r",
          "type": "bytes32"
        },
        {
          "internalType": "bytes32",
          "name": "s",
          "type": "bytes32"
        }
      ],
      "name": "permit",
      "outputs": [],
      "stateMutability": "nonpayable",
      "type": "function"
    },
    {
      "inputs": [
        {
          "internalType": "uint256",
          "name": "amount",
          "type": "uint256"
        }
      ],
      "name": "previewDeposit",
      "outputs": [
        {
          "internalType": "uint256",
          "name": "",
          "type": "uint256"
        }
      ],
      "stateMutability": "view",
      "type": "function"
    },
    {
      "inputs": [
        {
          "internalType": "uint256",
          "name": "shares",
          "type": "uint256"
        }
      ],
      "name": "previewMint",
      "outputs": [
        {
          "internalType": "uint256",
          "name": "",
          "type": "uint256"
        }
      ],
      "stateMutability": "view",
      "type": "function"
    },
    {
      "inputs": [
        {
          "internalType": "uint256",
          "name": "shares",
          "type": "uint256"
        }
      ],
      "name": "previewRedeem",
      "outputs": [
        {
          "internalType": "uint256",
          "name": "",
          "type": "uint256"
        }
      ],
      "stateMutability": "view",
      "type": "function"
    },
    {
      "inputs": [
        {
          "internalType": "uint256",
          "name": "amount",
          "type": "uint256"
        }
      ],
      "name": "previewWithdraw",
      "outputs": [
        {
          "internalType": "uint256",
          "name": "",
          "type": "uint256"
        }
      ],
      "stateMutability": "view",
      "type": "function"
    },
    {
      "inputs": [
        {
          "internalType": "uint256",
          "name": "amount",
          "type": "uint256"
        }
      ],
      "name": "putAmount",
      "outputs": [],
      "stateMutability": "nonpayable",
      "type": "function"
    },
    {
      "inputs": [
        {
          "internalType": "uint256",
          "name": "shares",
          "type": "uint256"
        }
      ],
      "name": "putShares",
      "outputs": [],
      "stateMutability": "nonpayable",
      "type": "function"
    },
    {
      "inputs": [
        {
          "internalType": "uint256",
          "name": "shares",
          "type": "uint256"
        },
        {
          "internalType": "address",
          "name": "to",
          "type": "address"
        },
        {
          "internalType": "address",
          "name": "from",
          "type": "address"
        }
      ],
      "name": "redeem",
      "outputs": [
        {
          "internalType": "uint256",
          "name": "amount",
          "type": "uint256"
        }
      ],
      "stateMutability": "nonpayable",
      "type": "function"
    },
    {
      "inputs": [],
      "name": "registry",
      "outputs": [
        {
          "internalType": "contract ICheddaAddressRegistry",
          "name": "",
          "type": "address"
        }
      ],
      "stateMutability": "view",
      "type": "function"
    },
    {
      "inputs": [
        {
          "internalType": "address",
          "name": "token",
          "type": "address"
        },
        {
          "internalType": "uint256",
          "name": "amount",
          "type": "uint256"
        }
      ],
      "name": "removeCollateral",
      "outputs": [],
      "stateMutability": "nonpayable",
      "type": "function"
    },
    {
      "inputs": [
        {
          "internalType": "address",
          "name": "token",
          "type": "address"
        },
        {
          "internalType": "uint256[]",
          "name": "tokenIds",
          "type": "uint256[]"
        }
      ],
      "name": "removeCollateral721",
      "outputs": [],
      "stateMutability": "nonpayable",
      "type": "function"
    },
    {
      "inputs": [],
      "name": "renounceOwnership",
      "outputs": [],
      "stateMutability": "nonpayable",
      "type": "function"
    },
    {
      "inputs": [],
      "name": "rewardsApr",
      "outputs": [
        {
          "internalType": "uint256",
          "name": "",
          "type": "uint256"
        }
      ],
      "stateMutability": "view",
      "type": "function"
    },
    {
      "inputs": [
        {
          "internalType": "address",
          "name": "gaugeAddress",
          "type": "address"
        }
      ],
      "name": "setGauge",
      "outputs": [],
      "stateMutability": "nonpayable",
      "type": "function"
    },
    {
      "inputs": [],
      "name": "symbol",
      "outputs": [
        {
          "internalType": "string",
          "name": "",
          "type": "string"
        }
      ],
      "stateMutability": "view",
      "type": "function"
    },
    {
      "inputs": [
        {
          "internalType": "uint256",
          "name": "amount",
          "type": "uint256"
        }
      ],
      "name": "take",
      "outputs": [],
      "stateMutability": "nonpayable",
      "type": "function"
    },
    {
      "inputs": [
        {
          "internalType": "address",
          "name": "",
          "type": "address"
        }
      ],
      "name": "tokenCollateral",
      "outputs": [
        {
          "internalType": "uint256",
          "name": "",
          "type": "uint256"
        }
      ],
      "stateMutability": "view",
      "type": "function"
    },
    {
      "inputs": [
        {
          "internalType": "address",
          "name": "account",
          "type": "address"
        }
      ],
      "name": "totalAccountCollateralValue",
      "outputs": [
        {
          "internalType": "uint256",
          "name": "",
          "type": "uint256"
        }
      ],
      "stateMutability": "view",
      "type": "function"
    },
    {
      "inputs": [],
      "name": "totalAssets",
      "outputs": [
        {
          "internalType": "uint256",
          "name": "",
          "type": "uint256"
        }
      ],
      "stateMutability": "view",
      "type": "function"
    },
    {
      "inputs": [],
      "name": "totalBorrowed",
      "outputs": [
        {
          "internalType": "uint256",
          "name": "amount",
          "type": "uint256"
        }
      ],
      "stateMutability": "view",
      "type": "function"
    },
    {
      "inputs": [],
      "name": "totalBorrowedValue",
      "outputs": [
        {
          "internalType": "uint256",
          "name": "value",
          "type": "uint256"
        }
      ],
      "stateMutability": "view",
      "type": "function"
    },
    {
      "inputs": [],
      "name": "totalSupply",
      "outputs": [
        {
          "internalType": "uint256",
          "name": "",
          "type": "uint256"
        }
      ],
      "stateMutability": "view",
      "type": "function"
    },
    {
      "inputs": [
        {
          "internalType": "address",
          "name": "to",
          "type": "address"
        },
        {
          "internalType": "uint256",
          "name": "amount",
          "type": "uint256"
        }
      ],
      "name": "transfer",
      "outputs": [
        {
          "internalType": "bool",
          "name": "",
          "type": "bool"
        }
      ],
      "stateMutability": "nonpayable",
      "type": "function"
    },
    {
      "inputs": [
        {
          "internalType": "address",
          "name": "from",
          "type": "address"
        },
        {
          "internalType": "address",
          "name": "to",
          "type": "address"
        },
        {
          "internalType": "uint256",
          "name": "amount",
          "type": "uint256"
        }
      ],
      "name": "transferFrom",
      "outputs": [
        {
          "internalType": "bool",
          "name": "",
          "type": "bool"
        }
      ],
      "stateMutability": "nonpayable",
      "type": "function"
    },
    {
      "inputs": [
        {
          "internalType": "address",
          "name": "newOwner",
          "type": "address"
        }
      ],
      "name": "transferOwnership",
      "outputs": [],
      "stateMutability": "nonpayable",
      "type": "function"
    },
    {
      "inputs": [
        {
          "internalType": "address",
          "name": "registryAddress",
          "type": "address"
        }
      ],
      "name": "updateRegistry",
      "outputs": [],
      "stateMutability": "nonpayable",
      "type": "function"
    },
    {
      "inputs": [],
      "name": "utilization",
      "outputs": [
        {
          "internalType": "uint256",
          "name": "utilized",
          "type": "uint256"
        }
      ],
      "stateMutability": "view",
      "type": "function"
    },
    {
      "inputs": [
        {
          "internalType": "address",
          "name": "token",
          "type": "address"
        },
        {
          "internalType": "bool",
          "name": "isWhitelisted",
          "type": "bool"
        },
        {
          "internalType": "uint256",
          "name": "factor",
          "type": "uint256"
        }
      ],
      "name": "whitelistToken",
      "outputs": [],
      "stateMutability": "nonpayable",
      "type": "function"
    },
    {
      "inputs": [
        {
          "internalType": "uint256",
          "name": "amount",
          "type": "uint256"
        },
        {
          "internalType": "address",
          "name": "to",
          "type": "address"
        },
        {
          "internalType": "address",
          "name": "from",
          "type": "address"
        }
      ],
      "name": "withdraw",
      "outputs": [
        {
          "internalType": "uint256",
          "name": "shares",
          "type": "uint256"
        }
      ],
      "stateMutability": "nonpayable",
      "type": "function"
    }
  ],
  "bytecode": "0x610100604052660aa87bee538000600b553480156200001d57600080fd5b5060405162006ff838038062006ff883398101604081905262000040916200068e565b82836001600160a01b03166306fdde036040518163ffffffff1660e01b815260040160006040518083038186803b1580156200007b57600080fd5b505afa15801562000090573d6000803e3d6000fd5b505050506040513d6000823e601f3d908101601f19168201604052620000ba9190810190620007ad565b604051602001620000cc91906200084b565b604051602081830303815290604052846001600160a01b03166395d89b416040518163ffffffff1660e01b815260040160006040518083038186803b1580156200011557600080fd5b505afa1580156200012a573d6000803e3d6000fd5b505050506040513d6000823e601f3d908101601f19168201604052620001549190810190620007ad565b60405160200162000166919062000882565b6040516020818303038152906040528181846001600160a01b031663313ce5676040518163ffffffff1660e01b815260040160206040518083038186803b158015620001b157600080fd5b505afa158015620001c6573d6000803e3d6000fd5b505050506040513d601f19601f82011682018060405250810190620001ec9190620008ae565b620001f733620002f9565b82516200020c90600190602086019062000512565b5081516200022290600290602085019062000512565b506003805460ff191660ff8316179055466080526200024062000349565b60a0525050506001600160a01b03831660c052600354620002669060ff16600a620009ef565b60e052505060c05160405190915030906200028190620005a1565b6001600160a01b03928316815291166020820152604001604051809103906000f080158015620002b5573d6000803e3d6000fd5b50600c80546001600160a01b03199081166001600160a01b039384161790915560108054909116918416919091179055620002f081620003e5565b50505062000b15565b600080546001600160a01b038381166001600160a01b0319831681178455604051919092169283917f8be0079c531659141344cd1fd0a4f28419497f9722a3daafe3b4186f6b6457e09190a35050565b60007f8b73c3c69bb8fe3d512ecc4cf759cc79239f7b179b0ffacaa9a75d522b39400f60016040516200037d919062000a3d565b6040805191829003822060208301939093528101919091527fc89efdaa54c0f20c7adf612882df0950f5a951637e0307cdcb4c672f298b8bc660608201524660808201523060a082015260c00160405160208183030381529060405280519060200120905090565b620003f08162000489565b604051670a688906bd8b00009066b1a2bc2ec5000090666a94d74f4300009067013fbe85edc900009084908490849084906200042c90620005af565b938452602084019290925260408301526060820152608001604051809103906000f08015801562000461573d6000803e3d6000fd5b50600d80546001600160a01b0319166001600160a01b03929092169190911790555050505050565b80516200049e906011906020840190620005bd565b5060005b81518110156200050e57600160126000848481518110620004c757620004c762000ae1565b6020908102919091018101516001600160a01b03168252810191909152604001600020805460ff191691151591909117905580620005058162000af7565b915050620004a2565b5050565b828054620005209062000a00565b90600052602060002090601f0160209004810192826200054457600085556200058f565b82601f106200055f57805160ff19168380011785556200058f565b828001600101855582156200058f579182015b828111156200058f57825182559160200191906001019062000572565b506200059d92915062000615565b5090565b6119928062004bd283390190565b610a94806200656483390190565b8280548282559060005260206000209081019282156200058f579160200282015b828111156200058f57825182546001600160a01b0319166001600160a01b03909116178255602090920191600190910190620005de565b5b808211156200059d576000815560010162000616565b6001600160a01b03811681146200064257600080fd5b50565b634e487b7160e01b600052604160045260246000fd5b604051601f8201601f191681016001600160401b038111828210171562000686576200068662000645565b604052919050565b600080600060608486031215620006a457600080fd5b8351620006b1816200062c565b80935050602080850151620006c6816200062c565b60408601519093506001600160401b0380821115620006e457600080fd5b818701915087601f830112620006f957600080fd5b8151818111156200070e576200070e62000645565b8060051b9150620007218483016200065b565b818152918301840191848101908a8411156200073c57600080fd5b938501935b838510156200076a578451925062000759836200062c565b828252938501939085019062000741565b8096505050505050509250925092565b60005b83811015620007975781810151838201526020016200077d565b83811115620007a7576000848401525b50505050565b600060208284031215620007c057600080fd5b81516001600160401b0380821115620007d857600080fd5b818401915084601f830112620007ed57600080fd5b81518181111562000802576200080262000645565b62000817601f8201601f19166020016200065b565b91508082528560208285010111156200082f57600080fd5b620008428160208401602086016200077a565b50949350505050565b6c021a422a22220902a37b5b2b71609d1b8152600082516200087581600d8501602087016200077a565b91909101600d0192915050565b610c6d60f31b815260008251620008a18160028501602087016200077a565b9190910160020192915050565b600060208284031215620008c157600080fd5b815160ff81168114620008d357600080fd5b9392505050565b634e487b7160e01b600052601160045260246000fd5b600181815b8085111562000931578160001904821115620009155762000915620008da565b808516156200092357918102915b93841c9390800290620008f5565b509250929050565b6000826200094a57506001620009e9565b816200095957506000620009e9565b81600181146200097257600281146200097d576200099d565b6001915050620009e9565b60ff841115620009915762000991620008da565b50506001821b620009e9565b5060208310610133831016604e8410600b8410161715620009c2575081810a620009e9565b620009ce8383620008f0565b8060001904821115620009e557620009e5620008da565b0290505b92915050565b6000620008d360ff84168362000939565b600181811c9082168062000a1557607f821691505b6020821081141562000a3757634e487b7160e01b600052602260045260246000fd5b50919050565b600080835481600182811c91508083168062000a5a57607f831692505b602080841082141562000a7b57634e487b7160e01b86526022600452602486fd5b81801562000a92576001811462000aa45762000ad3565b60ff1986168952848901965062000ad3565b60008a81526020902060005b8681101562000acb5781548b82015290850190830162000ab0565b505084890196505b509498975050505050505050565b634e487b7160e01b600052603260045260246000fd5b600060001982141562000b0e5762000b0e620008da565b5060010190565b60805160a05160c05160e05161404b62000b876000396000610d020152600081816105810152818161129a015281816118a101528181611c3e015281816122820152818161254e0152818161276a01528181612987015261324f01526000610d5a01526000610d2a015261404b6000f3fe608060405234801561001057600080fd5b50600436106104275760003560e01c8063876467f81161022b578063be5f5ff611610130578063d905777e116100b8578063ea21cd9211610087578063ea21cd9214610997578063ef8b30f71461099f578063f2fde38b146109b2578063f8d89898146109c5578063fbcc6f5e146109d857600080fd5b8063d905777e14610925578063dd62ed3e1461094e578063e626648a14610979578063e9a71b711461098257600080fd5b8063c914b437116100ff578063c914b437146108b3578063ce96cb77146108bc578063cffbc297146108cf578063d505accf146108f2578063d834bf661461090557600080fd5b8063be5f5ff614610890578063c28d21a314610898578063c63d75b6146105e1578063c66f2455146108ab57600080fd5b8063ab6b737d116101b3578063b3d7f6b911610182578063b3d7f6b91461082f578063b460af9414610842578063b58eb63f14610855578063b8abe1a01461086a578063ba0876521461087d57600080fd5b8063ab6b737d146107ee578063ab8293cc14610801578063acc314ae14610809578063b3a5a0a21461081c57600080fd5b806395d89b41116101fa57806395d89b4114610763578063a0ddc11a1461076b578063a59aa5a61461077e578063a6f19c84146107c8578063a9059cbb146107db57600080fd5b8063876467f8146107195780638a1c8fa41461072c5780638da5cb5b1461073f57806393f342771461075057600080fd5b8063402d267d1161033157806368d0b468116102b9578063715018a611610288578063715018a6146106bc5780637b103999146106c45780637dc0d1d0146106d75780637ecebe00146106ea57806381bf8d3d1461070a57600080fd5b806368d0b468146106635780636d75b9ee146106765780636e553f651461068957806370a082311461069c57600080fd5b80634fd9efc4116103005780634fd9efc414610619578063548cbeb01461062c57806355a68ed314610635578063562053e8146106485780635a0f03c61461065057600080fd5b8063402d267d146105e15780634ac9de92146105f65780634c19386c146105fe5780634cdad5061461060657600080fd5b80632c62fa10116103b457806335d16e171161038357806335d16e171461056c5780633644e5151461057457806338d52e0f1461057c5780633b121d56146105bb5780633e074608146105ce57600080fd5b80632c62fa1014610529578063313ce5671461053c578063323a5e0b1461055b57806334dc26981461056457600080fd5b80630a28a477116103fb5780630a28a477146104d657806318160ddd146104e95780631a5da6c8146104f257806320c55c6a1461050757806323b872dd1461051657600080fd5b806225ce9f1461042c57806301e1d1141461048c57806306fdde031461049e578063095ea7b3146104b3575b600080fd5b61047461043a366004613902565b6014602090815260009283526040808420909152908252902080546001909101546001600160a01b03821691600160a01b900460ff169083565b6040516104839392919061396d565b60405180910390f35b6008545b604051908152602001610483565b6104a66109f8565b6040516104839190613998565b6104c66104c13660046139ed565b610a86565b6040519015158152602001610483565b6104906104e4366004613a17565b610af3565b61049060045481565b610505610500366004613a30565b610b22565b005b610490670de0b6b3a764000081565b6104c6610524366004613a4b565b610b77565b610490610537366004613a30565b610c57565b6003546105499060ff1681565b60405160ff9091168152602001610483565b61049060085481565b610490610c79565b610490610cfb565b610490610d26565b6105a37f000000000000000000000000000000000000000000000000000000000000000081565b6040516001600160a01b039091168152602001610483565b6105056105c9366004613a9d565b610d7c565b600d546105a3906001600160a01b031681565b6104906105ef366004613a30565b5060001990565b600a54610490565b61049061118b565b610490610614366004613a17565b6111d0565b610505610627366004613a17565b6111f0565b61049060095481565b610505610643366004613a30565b611308565b610490611354565b61049061065e366004613a30565b6113bb565b610490610671366004613a30565b611533565b6105056106843660046139ed565b611631565b610490610697366004613b6e565b61184c565b6104906106aa366004613a30565b60056020526000908152604090205481565b610505611923565b600e546105a3906001600160a01b031681565b6010546105a3906001600160a01b031681565b6104906106f8366004613a30565b60076020526000908152604090205481565b6104906709b6e64a8ec6000081565b6105056107273660046139ed565b611959565b6104c661073a366004613902565b611b67565b6000546001600160a01b03166105a3565b61050561075e366004613a17565b611b93565b6104a6611d2c565b610490610779366004613902565b611d39565b610786611d67565b6040516104839190600060a082019050825182526020830151602083015260408301516040830152606083015160608301526080830151608083015292915050565b600f546105a3906001600160a01b031681565b6104c66107e93660046139ed565b611dec565b6105056107fc366004613a9d565b611e52565b610490612268565b610505610817366004613b91565b612372565b6105a361082a366004613a17565b612412565b61049061083d366004613a17565b61243c565b610490610850366004613bd5565b61245c565b61085d612575565b6040516104839190613c11565b610505610878366004613a17565b6125d7565b61049061088b366004613bd5565b612860565b6104906129b6565b6104906108a6366004613a30565b6129cc565b610490612b19565b610490600a5481565b6104906108ca366004613a30565b612b30565b6104c66108dd366004613a30565b60126020526000908152604090205460ff1681565b610505610900366004613c5e565b612b3b565b610490610913366004613a30565b60156020526000908152604090205481565b610490610933366004613a30565b6001600160a01b031660009081526005602052604090205490565b61049061095c366004613902565b600660209081526000928352604080842090915290825290205481565b610490600b5481565b61098a612d8c565b6040516104839190613cd1565b610490612f4a565b6104906109ad366004613a17565b612f77565b6105056109c0366004613a30565b612f98565b600c546105a3906001600160a01b031681565b6104906109e6366004613a30565b60136020526000908152604090205481565b60018054610a0590613d33565b80601f0160208091040260200160405190810160405280929190818152602001828054610a3190613d33565b8015610a7e5780601f10610a5357610100808354040283529160200191610a7e565b820191906000526020600020905b815481529060010190602001808311610a6157829003601f168201915b505050505081565b3360008181526006602090815260408083206001600160a01b038716808552925280832085905551919290917f8c5be1e5ebec7d5bd14f71427d1e84f3dd0314c0f7b2291e5b200ac8c7c3b92590610ae19086815260200190565b60405180910390a35060015b92915050565b6004546000908015610b1957610b1481610b0c60085490565b859190613033565b610b1b565b825b9392505050565b6000546001600160a01b03163314610b555760405162461bcd60e51b8152600401610b4c90613d68565b60405180910390fd5b600e80546001600160a01b0319166001600160a01b0392909216919091179055565b6001600160a01b03831660009081526006602090815260408083203384529091528120546000198114610bd357610bae8382613db3565b6001600160a01b03861660009081526006602090815260408083203384529091529020555b6001600160a01b03851660009081526005602052604081208054859290610bfb908490613db3565b90915550506001600160a01b0380851660008181526005602052604090819020805487019055519091871690600080516020613ff683398151915290610c449087815260200190565b60405180910390a3506001949350505050565b6001600160a01b038116600090815260056020526040812054610aed906111d0565b600d5460408051634894d94f60e11b815290516000926001600160a01b031691639129b29e916004808301926020929190829003018186803b158015610cbe57600080fd5b505afa158015610cd2573d6000803e3d6000fd5b505050506040513d601f19601f82011682018060405250810190610cf69190613dca565b905090565b6000610cf67f00000000000000000000000000000000000000000000000000000000000000006111d0565b60007f00000000000000000000000000000000000000000000000000000000000000004614610d5757610cf6613061565b507f000000000000000000000000000000000000000000000000000000000000000090565b6001600160a01b03821660009081526012602052604090205460ff161515600114610db95760405162461bcd60e51b8152600401610b4c90613de3565b6000815111610e025760405162461bcd60e51b815260206004820152601560248201527410d2158e88115b5c1d1e481d1bdad95b881b1a5cdd605a1b6044820152606401610b4c565b33610e0d8184611b67565b15610fc9576001600160a01b0380821660009081526014602090815260408083209387168352929052908120905b8351811015610f2a5760005b6002830154811015610ee257826002018181548110610e6857610e68613e11565b9060005260206000200154858381518110610e8557610e85613e11565b60200260200101511415610ed05760405162461bcd60e51b815260206004820152601260248201527110d2158e88105b1c9958591e48105919195960721b6044820152606401610b4c565b80610eda81613e27565b915050610e47565b5081600201848281518110610ef957610ef9613e11565b6020908102919091018101518254600181018455600093845291909220015580610f2281613e27565b915050610e3b565b5082516001600160a01b03808416600090815260146020908152604080832093891683529290529081206001018054909190610f67908490613e42565b90915550506001810154600282015414610fc35760405162461bcd60e51b815260206004820152601b60248201527f4348563a20496e636f727265637420746f6b656e20616d6f756e7400000000006044820152606401610b4c565b50611082565b604080516080810182526001600160a01b0385811680835260016020808501918252875185870152606085018890528684166000908152601482528681209381529290529390208251815492166001600160a01b0319831681178255935192938493919283916001600160a81b031990911617600160a01b83600281111561105357611053613935565b0217905550604082015160018201556060820151805161107d91600284019160209091019061386c565b505050505b60005b825181101561113657836001600160a01b03166323b872dd83308685815181106110b1576110b1613e11565b60209081029190910101516040516001600160e01b031960e086901b1681526001600160a01b0393841660048201529290911660248301526044820152606401600060405180830381600087803b15801561110b57600080fd5b505af115801561111f573d6000803e3d6000fd5b50505050808061112e90613e27565b915050611085565b50806001600160a01b0316836001600160a01b03167f6c375f50bc43d2f6190a8b74de59f177b57a493118809106f3a31f8d0e9b50a36001855160405161117e929190613e5a565b60405180910390a3505050565b600c54604080516313064e1b60e21b815290516000926001600160a01b031691634c19386c916004808301926020929190829003018186803b158015610cbe57600080fd5b6004546000908015610b1957610b146111e860085490565b8490836130fb565b336111fb818361311a565b611206600083613225565b600c546040516319c5253b60e31b8152600481018490526001600160a01b0383811660248301529091169063ce2929d890604401602060405180830381600087803b15801561125457600080fd5b505af1158015611268573d6000803e3d6000fd5b505050506040513d601f19601f8201168201806040525081019061128c9190613dca565b506112c16001600160a01b037f00000000000000000000000000000000000000000000000000000000000000001682846132fa565b604080516001600160a01b0383168152602081018490527fc1da9bf387c72596e7227bd600280bffc4f2bb4c8252ecf8907a89cfc9e9b3ed91015b60405180910390a15050565b6000546001600160a01b031633146113325760405162461bcd60e51b8152600401610b4c90613d68565b600f80546001600160a01b0319166001600160a01b0392909216919091179055565b600f546000906001600160a01b031661136d5750600090565b600f60009054906101000a90046001600160a01b03166001600160a01b0316637b0a47ee6040518163ffffffff1660e01b815260040160206040518083038186803b158015610cbe57600080fd5b600080805b60115481101561152c576000601182815481106113df576113df613e11565b60009182526020808320909101546001600160a01b038881168452601483526040808520928216808652928452808520815160808101909252805492831682529295509283019060ff600160a01b90910416600281111561144257611442613935565b600281111561145357611453613935565b815260200160018201548152602001600282018054806020026020016040519081016040528092919081815260200182805480156114b057602002820191906000526020600020905b81548152602001906001019080831161149c575b50505050508152505090506114c58683611b67565b1561151757604081015160006114db8483613379565b90508015611514576001600160a01b03841660009081526013602052604090205461150790829061345a565b6115119087613e42565b95505b50505b5050808061152490613e27565b9150506113c0565b5092915050565b600c54604051635223d2e360e11b81526001600160a01b038381166004830152600092839291169063a447a5c69060240160206040518083038186803b15801561157c57600080fd5b505afa158015611590573d6000803e3d6000fd5b505050506040513d601f19601f820116820180604052508101906115b49190613dca565b600c5460405163f5f4d00360e01b8152600481018390529192506001600160a01b03169063f5f4d0039060240160206040518083038186803b1580156115f957600080fd5b505afa15801561160d573d6000803e3d6000fd5b505050506040513d601f19601f82011682018060405250810190610b1b9190613dca565b6001600160a01b03821660009081526012602052604090205460ff16151560011461166e5760405162461bcd60e51b8152600401610b4c90613de3565b600081116116ae5760405162461bcd60e51b815260206004820152600d60248201526c10d2158e880c08185b5bdd5b9d609a1b6044820152606401610b4c565b6001600160a01b0382166000908152601560205260408120805433928492916116d8908490613e42565b909155506116e890508184611b67565b15611732576001600160a01b03808216600090815260146020908152604080832093871683529290529081206001018054849290611727908490613e42565b909155506117f19050565b604080516080810182526001600160a01b0385811680835260006020808501828152858701899052865183815280830188526060870152878516835260148252868320938352929052939093208251815492166001600160a01b0319831681178255935192938493919283916001600160a81b031990911617600160a01b8360028111156117c2576117c2613935565b021790555060408201516001820155606082015180516117ec91600284019160209091019061386c565b505050505b6118066001600160a01b03841682308561346f565b806001600160a01b0316836001600160a01b03167f6c375f50bc43d2f6190a8b74de59f177b57a493118809106f3a31f8d0e9b50a360008560405161117e929190613e5a565b600061185783612f77565b9050806118945760405162461bcd60e51b815260206004820152600b60248201526a5a45524f5f53484152455360a81b6044820152606401610b4c565b6118c96001600160a01b037f00000000000000000000000000000000000000000000000000000000000000001633308661346f565b6118d382826134fc565b60408051848152602081018390526001600160a01b0384169133917fdcbc1c05240f31ff3ad067ef1ee35ce4997762752e3a095284754544f4c709d7910160405180910390a3610aed8382613556565b6000546001600160a01b0316331461194d5760405162461bcd60e51b8152600401610b4c90613d68565b611957600061357d565b565b33816119975760405162461bcd60e51b815260206004820152600d60248201526c10d2158e880c08185b5bdd5b9d609a1b6044820152606401610b4c565b816119a28285611d39565b10156119dd5760405162461bcd60e51b815260206004820152600a60248201526921a42b1d1024a729aaa360b11b6044820152606401610b4c565b6001600160a01b03831660009081526015602052604081208054849290611a05908490613db3565b90915550829050611a168285611d39565b1415611a6d576001600160a01b038082166000908152601460209081526040808320938716835292905290812080546001600160a81b03191681556001810182905590611a6660028301826138b7565b5050611aad565b6001600160a01b03808216600090815260146020908152604080832093871683529290529081206001018054849290611aa7908490613db3565b90915550505b611ab6816129cc565b611abf82611533565b1115611b0d5760405162461bcd60e51b815260206004820152601a60248201527f4348563a204e6f7420656e6f75676820636f6c6c61746572616c0000000000006044820152606401610b4c565b611b216001600160a01b03841633846132fa565b806001600160a01b0316836001600160a01b03167fbab292389c79be14f1a870edd025e27e8e1c41ccc83e197e25393e6c81e0cd8160008560405161117e929190613e5a565b6001600160a01b0391821660009081526014602090815260408083209385168352929052205416151590565b3381611bd75760405162461bcd60e51b815260206004820152601360248201527210d2158e88125b9d985b1a5908185b5bdd5b9d606a1b6044820152606401610b4c565b611be081611533565b821115611c265760405162461bcd60e51b815260206004820152601460248201527308690ac7440c2dadeeadce840e8dede40d0d2ced60631b6044820152606401610b4c565b611c31826000613225565b611c666001600160a01b037f00000000000000000000000000000000000000000000000000000000000000001633308561346f565b600c546040516302218ea960e51b8152600481018490526001600160a01b03838116602483015290911690634431d52090604401602060405180830381600087803b158015611cb457600080fd5b505af1158015611cc8573d6000803e3d6000fd5b505050506040513d601f19601f82011682018060405250810190611cec9190613dca565b50604080516001600160a01b0383168152602081018490527fb1be5264c52118d8445ca85dab655d4838bb473a3030da7f995217290935bc5991016112fc565b60028054610a0590613d33565b6001600160a01b03918216600090815260146020908152604080832093909416825291909152206001015490565b611d996040518060a0016040528060008152602001600081526020016000815260200160008152602001600081525090565b60006040518060a00160405280611daf60085490565b8152602001611dbc612f4a565b8152602001611dc96129b6565b8152602001611dd7600a5490565b8152602001611de4611354565b905292915050565b33600090815260056020526040812080548391908390611e0d908490613db3565b90915550506001600160a01b03831660008181526005602052604090819020805485019055513390600080516020613ff683398151915290610ae19086815260200190565b6001600160a01b03821660009081526012602052604090205460ff161515600114611e8f5760405162461bcd60e51b8152600401610b4c90613de3565b6000815111611ed85760405162461bcd60e51b815260206004820152601560248201527410d2158e88115b5c1d1e481d1bdad95b881b1a5cdd605a1b6044820152606401610b4c565b3360008181526014602090815260408083206001600160a01b03871684529091529020600181015483511015611f495760405162461bcd60e51b81526020600482015260166024820152754348563a20496e76616c696420746f6b656e2049447360501b6044820152606401610b4c565b6000805b600283015481101561206f5760005b855181101561205c57858181518110611f7757611f77613e11565b6020026020010151846002018381548110611f9457611f94613e11565b9060005260206000200154141561204a57866001600160a01b03166342842e0e3087898581518110611fc857611fc8613e11565b60209081029190910101516040516001600160e01b031960e086901b1681526001600160a01b0393841660048201529290911660248301526044820152606401600060405180830381600087803b15801561202257600080fd5b505af1158015612036573d6000803e3d6000fd5b505050506001836120479190613e75565b92505b8061205481613e27565b915050611f5c565b508061206781613e27565b915050611f4d565b5083518160ff16146120bb5760405162461bcd60e51b815260206004820152601560248201527410d2158e88125b9d985b1a59081d1bdad95b881251605a1b6044820152606401610b4c565b83516001600160a01b038085166000908152601460209081526040808320938a16835292905290812060010180549091906120f7908490613db3565b909155506121069050836129cc565b61210f84611533565b111561215d5760405162461bcd60e51b815260206004820152601a60248201527f4348563a204e6f7420656e6f75676820636f6c6c61746572616c0000000000006044820152606401610b4c565b60005b845181101561221157856001600160a01b03166342842e0e308688858151811061218c5761218c613e11565b60209081029190910101516040516001600160e01b031960e086901b1681526001600160a01b0393841660048201529290911660248301526044820152606401600060405180830381600087803b1580156121e657600080fd5b505af11580156121fa573d6000803e3d6000fd5b50505050808061220990613e27565b915050612160565b50826001600160a01b0316856001600160a01b03167fbab292389c79be14f1a870edd025e27e8e1c41ccc83e197e25393e6c81e0cd8160018751604051612259929190613e5a565b60405180910390a35050505050565b601054604051633c19a57760e11b81526001600160a01b037f0000000000000000000000000000000000000000000000000000000000000000811660048301526000602483018190529283929116906378334aee9060440160206040518083038186803b1580156122d857600080fd5b505afa1580156122ec573d6000803e3d6000fd5b505050506040513d601f19601f820116820180604052508101906123109190613dca565b90506000811361235a5760405162461bcd60e51b81526020600482015260156024820152745661756c743a204e6567617469766520707269636560581b6044820152606401610b4c565b61236c8161236661118b565b9061345a565b91505090565b6000546001600160a01b0316331461239c5760405162461bcd60e51b8152600401610b4c90613d68565b6001600160a01b0383166000908152601260209081526040808320805460ff1916861515179055601390915290208190556123d783836135cd565b60405133906001600160a01b038516907f3be071d02429b0852e4b41075b816127886e499ed6bea31e7b1a1b73da6246de90600090a3505050565b6011818154811061242257600080fd5b6000918252602090912001546001600160a01b0316905081565b6004546000908015610b1957610b1461245460085490565b849083613033565b600061246784610af3565b9050336001600160a01b038316146124d7576001600160a01b038216600090815260066020908152604080832033845290915290205460001981146124d5576124b08282613db3565b6001600160a01b03841660009081526006602090815260408083203384529091529020555b505b6124e1848261378b565b6124eb82826137ae565b826001600160a01b0316826001600160a01b03167ff341246adaac6f497bc2a656f546ab9e182111d630394f0c57c710a59a2cb5678684604051612539929190918252602082015260400190565b60405180910390a3610b1b6001600160a01b037f00000000000000000000000000000000000000000000000000000000000000001684866132fa565b606060118054806020026020016040519081016040528092919081815260200182805480156125cd57602002820191906000526020600020905b81546001600160a01b031681526001909101906020018083116125af575b5050505050905090565b338161261b5760405162461bcd60e51b815260206004820152601360248201527210d2158e88125b9d985b1a5908185b5bdd5b9d606a1b6044820152606401610b4c565b600c54604051635223d2e360e11b81526001600160a01b0383811660048301529091169063a447a5c69060240160206040518083038186803b15801561266057600080fd5b505afa158015612674573d6000803e3d6000fd5b505050506040513d601f19601f820116820180604052508101906126989190613dca565b8211156126de5760405162461bcd60e51b815260206004820152601460248201527308690ac7440e6d0c2e4cae640e8dede40d0d2ced60631b6044820152606401610b4c565b600c5460405163f5f4d00360e01b8152600481018490526000916001600160a01b03169063f5f4d0039060240160206040518083038186803b15801561272357600080fd5b505afa158015612737573d6000803e3d6000fd5b505050506040513d601f19601f8201168201806040525081019061275b9190613dca565b90506127926001600160a01b037f00000000000000000000000000000000000000000000000000000000000000001633308461346f565b600c54604051631212608160e01b8152600481018590526001600160a01b03848116602483015290911690631212608190604401602060405180830381600087803b1580156127e057600080fd5b505af11580156127f4573d6000803e3d6000fd5b505050506040513d601f19601f820116820180604052508101906128189190613dca565b50604080516001600160a01b0384168152602081018390527fb1be5264c52118d8445ca85dab655d4838bb473a3030da7f995217290935bc59910160405180910390a1505050565b6001600160a01b038116600081815260066020908152604080832033808552925282205491921480159061289657506000198114155b156128ca576128a58582613db3565b6001600160a01b03841660009081526006602090815260408083203384529091529020555b6128d3856111d0565b9150816129105760405162461bcd60e51b815260206004820152600b60248201526a5a45524f5f41535345545360a81b6044820152606401610b4c565b61291a828661378b565b61292483866137ae565b836001600160a01b0316836001600160a01b03167ff341246adaac6f497bc2a656f546ab9e182111d630394f0c57c710a59a2cb5678488604051612972929190918252602082015260400190565b60405180910390a36129ae6001600160a01b037f00000000000000000000000000000000000000000000000000000000000000001685846132fa565b509392505050565b6000610cf66129c3612f4a565b600a549061345a565b600080805b60115481101561152c576000601182815481106129f0576129f0613e11565b60009182526020808320909101546001600160a01b038881168452601483526040808520928216808652928452808520815160808101909252805492831682529295509283019060ff600160a01b909104166002811115612a5357612a53613935565b6002811115612a6457612a64613935565b81526020016001820154815260200160028201805480602002602001604051908101604052809291908181526020018280548015612ac157602002820191906000526020600020905b815481526020019060010190808311612aad575b5050505050815250509050612ad68683611b67565b15612b045760408101516000612aec8483613379565b90508015612b0157612afe8187613e42565b95505b50505b50508080612b1190613e27565b9150506129d1565b6000612b2361118b565b600854610cf69190613db3565b6000610aed82610c57565b42841015612b8b5760405162461bcd60e51b815260206004820152601760248201527f5045524d49545f444541444c494e455f455850495245440000000000000000006044820152606401610b4c565b6000612b95610d26565b6001600160a01b0389811660008181526007602090815260409182902080546001810190915582517f6e71edae12b1b97f4d1f60370fef10105fa2faae0126114a169c64845d6126c98184015280840194909452938c166060840152608083018b905260a083019390935260c08083018a90528151808403909101815260e08301909152805192019190912061190160f01b6101008301526101028201929092526101228101919091526101420160408051601f198184030181528282528051602091820120600080855291840180845281905260ff88169284019290925260608301869052608083018590529092509060019060a0016020604051602081039080840390855afa158015612cae573d6000803e3d6000fd5b5050604051601f1901519150506001600160a01b03811615801590612ce45750886001600160a01b0316816001600160a01b0316145b612d215760405162461bcd60e51b815260206004820152600e60248201526d24a72b20a624a22fa9a4a3a722a960911b6044820152606401610b4c565b6001600160a01b0390811660009081526006602090815260408083208b8516808552908352928190208a905551898152919350918a16917f8c5be1e5ebec7d5bd14f71427d1e84f3dd0314c0f7b2291e5b200ac8c7c3b925910160405180910390a350505050505050565b60115460609060009067ffffffffffffffff811115612dad57612dad613a87565b604051908082528060200260200182016040528015612e0b57816020015b612df8604051806060016040528060006001600160a01b0316815260200160008152602001600081525090565b815260200190600190039081612dcb5790505b50905060005b601154811015612f4457600060118281548110612e3057612e30613e11565b6000918252602080832091909101546001600160a01b0390811680845260159092526040808420546010549151633c19a57760e11b8152600481018590526024810186905293955093929116906378334aee9060440160206040518083038186803b158015612e9e57600080fd5b505afa158015612eb2573d6000803e3d6000fd5b505050506040513d601f19601f82011682018060405250810190612ed69190613dca565b90506000612ee48383613e9a565b905060006040518060600160405280866001600160a01b0316815260200185815260200183815250905080878781518110612f2157612f21613e11565b602002602001018190525050505050508080612f3c90613e27565b915050612e11565b50919050565b600080612f5660085490565b905080612f6557600091505090565b61236c81612f7161118b565b90613810565b6004546000908015610b1957610b1481612f9060085490565b8591906130fb565b6000546001600160a01b03163314612fc25760405162461bcd60e51b8152600401610b4c90613d68565b6001600160a01b0381166130275760405162461bcd60e51b815260206004820152602660248201527f4f776e61626c653a206e6577206f776e657220697320746865207a65726f206160448201526564647265737360d01b6064820152608401610b4c565b6130308161357d565b50565b82820281151584158583048514171661304b57600080fd5b6001826001830304018115150290509392505050565b60007f8b73c3c69bb8fe3d512ecc4cf759cc79239f7b179b0ffacaa9a75d522b39400f60016040516130939190613f1f565b6040805191829003822060208301939093528101919091527fc89efdaa54c0f20c7adf612882df0950f5a951637e0307cdcb4c672f298b8bc660608201524660808201523060a082015260c00160405160208183030381529060405280519060200120905090565b82820281151584158583048514171661311357600080fd5b0492915050565b806131585760405162461bcd60e51b815260206004820152600e60248201526d125b9d985b1a5908185b5bdd5b9d60921b6044820152606401610b4c565b6001600160a01b0382166131a05760405162461bcd60e51b815260206004820152600f60248201526e496e76616c6964206164647265737360881b6044820152606401610b4c565b670a688906bd8b000060006131b4846129cc565b90506000836131c286611533565b6131cc9190613e42565b90506131d8828461345a565b811061321e5760405162461bcd60e51b8152602060048201526015602482015274139bdd08195b9bdd59da0818dbdb1b185d195c985b605a1b6044820152606401610b4c565b5050505050565b600061322f61118b565b600d546040516340e464b960e11b81523060048201526001600160a01b037f000000000000000000000000000000000000000000000000000000000000000081166024830152604482018790526064820186905260848201849052600060a48301529293509116906381c8c9729060c401604080518083038186803b1580156132b757600080fd5b505afa1580156132cb573d6000803e3d6000fd5b505050506040513d601f19601f820116820180604052508101906132ef9190613fbb565b600a55600955505050565b600060405163a9059cbb60e01b81526001600160a01b03841660048201528260248201526000806044836000895af191505061333581613825565b6133735760405162461bcd60e51b815260206004820152600f60248201526e1514905394d1915497d19052531151608a1b6044820152606401610b4c565b50505050565b601054604051633c19a57760e11b81526001600160a01b0384811660048301526000602483018190529283929116906378334aee9060440160206040518083038186803b1580156133c957600080fd5b505afa1580156133dd573d6000803e3d6000fd5b505050506040513d601f19601f820116820180604052508101906134019190613dca565b9050600081136134485760405162461bcd60e51b81526020600482015260126024820152714348563a20496e76616c696420707269636560701b6044820152606401610b4c565b613452818461345a565b949350505050565b6000610b1b8383670de0b6b3a76400006130fb565b60006040516323b872dd60e01b81526001600160a01b03851660048201526001600160a01b038416602482015282604482015260008060648360008a5af19150506134b981613825565b61321e5760405162461bcd60e51b81526020600482015260146024820152731514905394d1915497d19493d357d1905253115160621b6044820152606401610b4c565b806004600082825461350e9190613e42565b90915550506001600160a01b038216600081815260056020908152604080832080548601905551848152600080516020613ff683398151915291015b60405180910390a35050565b81600860008282546135689190613e42565b909155506135799050826000613225565b5050565b600080546001600160a01b038381166001600160a01b0319831681178455604051919092169283917f8be0079c531659141344cd1fd0a4f28419497f9722a3daafe3b4186f6b6457e09190a35050565b80156136815760005b60115481101561362f57826001600160a01b0316601182815481106135fd576135fd613e11565b6000918252602090912001546001600160a01b0316141561361d57505050565b8061362781613e27565b9150506135d6565b50601180546001810182556000919091527f31ecc21a745e3968a04e9570e4425bc18fa8019c68028196b546d1669c200c680180546001600160a01b0384166001600160a01b03199091161790555050565b60005b60115481101561378657826001600160a01b0316601182815481106136ab576136ab613e11565b6000918252602090912001546001600160a01b0316141561377457601180546136d690600190613db3565b815481106136e6576136e6613e11565b600091825260209091200154601180546001600160a01b03909216918390811061371257613712613e11565b9060005260206000200160006101000a8154816001600160a01b0302191690836001600160a01b03160217905550601180548061375157613751613fdf565b600082815260209020810160001990810180546001600160a01b03191690550190555b8061377e81613e27565b915050613684565b505050565b816008600082825461379d9190613db3565b909155506135799050600083613225565b6001600160a01b038216600090815260056020526040812080548392906137d6908490613db3565b90915550506004805482900390556040518181526000906001600160a01b03841690600080516020613ff68339815191529060200161354a565b6000610b1b83670de0b6b3a764000084613033565b60003d8261383757806000803e806000fd5b806020811461384f5780156138605760009250613865565b816000803e60005115159250613865565b600192505b5050919050565b8280548282559060005260206000209081019282156138a7579160200282015b828111156138a757825182559160200191906001019061388c565b506138b39291506138d1565b5090565b508054600082559060005260206000209081019061303091905b5b808211156138b357600081556001016138d2565b80356001600160a01b03811681146138fd57600080fd5b919050565b6000806040838503121561391557600080fd5b61391e836138e6565b915061392c602084016138e6565b90509250929050565b634e487b7160e01b600052602160045260246000fd5b6003811061396957634e487b7160e01b600052602160045260246000fd5b9052565b6001600160a01b03841681526060810161398a602083018561394b565b826040830152949350505050565b600060208083528351808285015260005b818110156139c5578581018301518582016040015282016139a9565b818111156139d7576000604083870101525b50601f01601f1916929092016040019392505050565b60008060408385031215613a0057600080fd5b613a09836138e6565b946020939093013593505050565b600060208284031215613a2957600080fd5b5035919050565b600060208284031215613a4257600080fd5b610b1b826138e6565b600080600060608486031215613a6057600080fd5b613a69846138e6565b9250613a77602085016138e6565b9150604084013590509250925092565b634e487b7160e01b600052604160045260246000fd5b60008060408385031215613ab057600080fd5b613ab9836138e6565b915060208084013567ffffffffffffffff80821115613ad757600080fd5b818601915086601f830112613aeb57600080fd5b813581811115613afd57613afd613a87565b8060051b604051601f19603f83011681018181108582111715613b2257613b22613a87565b604052918252848201925083810185019189831115613b4057600080fd5b938501935b82851015613b5e57843584529385019392850192613b45565b8096505050505050509250929050565b60008060408385031215613b8157600080fd5b8235915061392c602084016138e6565b600080600060608486031215613ba657600080fd5b613baf846138e6565b925060208401358015158114613bc457600080fd5b929592945050506040919091013590565b600080600060608486031215613bea57600080fd5b83359250613bfa602085016138e6565b9150613c08604085016138e6565b90509250925092565b6020808252825182820181905260009190848201906040850190845b81811015613c525783516001600160a01b031683529284019291840191600101613c2d565b50909695505050505050565b600080600080600080600060e0888a031215613c7957600080fd5b613c82886138e6565b9650613c90602089016138e6565b95506040880135945060608801359350608088013560ff81168114613cb457600080fd5b9699959850939692959460a0840135945060c09093013592915050565b602080825282518282018190526000919060409081850190868401855b82811015613d2657815180516001600160a01b0316855286810151878601528501518585015260609093019290850190600101613cee565b5091979650505050505050565b600181811c90821680613d4757607f821691505b60208210811415612f4457634e487b7160e01b600052602260045260246000fd5b6020808252818101527f4f776e61626c653a2063616c6c6572206973206e6f7420746865206f776e6572604082015260600190565b634e487b7160e01b600052601160045260246000fd5b600082821015613dc557613dc5613d9d565b500390565b600060208284031215613ddc57600080fd5b5051919050565b60208082526014908201527310d2158e88139bdd081dda1a5d195b1a5cdd195960621b604082015260600190565b634e487b7160e01b600052603260045260246000fd5b6000600019821415613e3b57613e3b613d9d565b5060010190565b60008219821115613e5557613e55613d9d565b500190565b60408101613e68828561394b565b8260208301529392505050565b600060ff821660ff84168060ff03821115613e9257613e92613d9d565b019392505050565b60006001600160ff1b0381841382841380821686840486111615613ec057613ec0613d9d565b600160ff1b6000871282811687830589121615613edf57613edf613d9d565b60008712925087820587128484161615613efb57613efb613d9d565b87850587128184161615613f1157613f11613d9d565b505050929093029392505050565b600080835481600182811c915080831680613f3b57607f831692505b6020808410821415613f5b57634e487b7160e01b86526022600452602486fd5b818015613f6f5760018114613f8057613fad565b60ff19861689528489019650613fad565b60008a81526020902060005b86811015613fa55781548b820152908501908301613f8c565b505084890196505b509498975050505050505050565b60008060408385031215613fce57600080fd5b505080516020909101519092909150565b634e487b7160e01b600052603160045260246000fdfeddf252ad1be2c89b69c2b068fc378daa952ba7f163c4a11628f55a4df523b3efa26469706673582212205f93d1f75c29eb5ea4a062d700dec86586e44d8ac549f3ea5c3ce8be3ff3ba0664736f6c6343000809003360e06040523480156200001157600080fd5b5060405162001992380380620019928339810160408190526200003491620003cf565b816001600160a01b03166306fdde036040518163ffffffff1660e01b815260040160006040518083038186803b1580156200006e57600080fd5b505afa15801562000083573d6000803e3d6000fd5b505050506040513d6000823e601f3d908101601f19168201604052620000ad919081019062000457565b604051602001620000bf91906200050f565b604051602081830303815290604052826001600160a01b03166395d89b416040518163ffffffff1660e01b815260040160006040518083038186803b1580156200010857600080fd5b505afa1580156200011d573d6000803e3d6000fd5b505050506040513d6000823e601f3d908101601f1916820160405262000147919081019062000457565b60405160200162000159919062000545565b604051602081830303815290604052836001600160a01b031663313ce5676040518163ffffffff1660e01b815260040160206040518083038186803b158015620001a257600080fd5b505afa158015620001b7573d6000803e3d6000fd5b505050506040513d601f19601f82011682018060405250810190620001dd919062000572565b8251620001f290600090602086019062000310565b5081516200020890600190602085019062000310565b506002805460ff191660ff8316179055466080526200022662000274565b60a05250506002546200023f915060ff16600a620006b3565b60c052600b80546001600160a01b039384166001600160a01b031991821617909155600a8054929093169116179055620007a5565b60007f8b73c3c69bb8fe3d512ecc4cf759cc79239f7b179b0ffacaa9a75d522b39400f6000604051620002a8919062000701565b6040805191829003822060208301939093528101919091527fc89efdaa54c0f20c7adf612882df0950f5a951637e0307cdcb4c672f298b8bc660608201524660808201523060a082015260c00160405160208183030381529060405280519060200120905090565b8280546200031e90620006c4565b90600052602060002090601f0160209004810192826200034257600085556200038d565b82601f106200035d57805160ff19168380011785556200038d565b828001600101855582156200038d579182015b828111156200038d57825182559160200191906001019062000370565b506200039b9291506200039f565b5090565b5b808211156200039b5760008155600101620003a0565b6001600160a01b0381168114620003cc57600080fd5b50565b60008060408385031215620003e357600080fd5b8251620003f081620003b6565b60208401519092506200040381620003b6565b809150509250929050565b634e487b7160e01b600052604160045260246000fd5b60005b838110156200044157818101518382015260200162000427565b8381111562000451576000848401525b50505050565b6000602082840312156200046a57600080fd5b81516001600160401b03808211156200048257600080fd5b818401915084601f8301126200049757600080fd5b815181811115620004ac57620004ac6200040e565b604051601f8201601f19908116603f01168101908382118183101715620004d757620004d76200040e565b81604052828152876020848701011115620004f157600080fd5b6200050483602083016020880162000424565b979650505050505050565b6b43484544444120446562742d60a01b8152600082516200053881600c85016020870162000424565b91909101600c0192915050565b6263642d60e81b8152600082516200056581600385016020870162000424565b9190910160030192915050565b6000602082840312156200058557600080fd5b815160ff811681146200059757600080fd5b9392505050565b634e487b7160e01b600052601160045260246000fd5b600181815b80851115620005f5578160001904821115620005d957620005d96200059e565b80851615620005e757918102915b93841c9390800290620005b9565b509250929050565b6000826200060e57506001620006ad565b816200061d57506000620006ad565b8160018114620006365760028114620006415762000661565b6001915050620006ad565b60ff8411156200065557620006556200059e565b50506001821b620006ad565b5060208310610133831016604e8410600b841016171562000686575081810a620006ad565b620006928383620005b4565b8060001904821115620006a957620006a96200059e565b0290505b92915050565b60006200059760ff841683620005fd565b600181811c90821680620006d957607f821691505b60208210811415620006fb57634e487b7160e01b600052602260045260246000fd5b50919050565b600080835481600182811c9150808316806200071e57607f831692505b60208084108214156200073f57634e487b7160e01b86526022600452602486fd5b818015620007565760018114620007685762000797565b60ff1986168952848901965062000797565b60008a81526020902060005b868110156200078f5781548b82015290850190830162000774565b505084890196505b509498975050505050505050565b60805160a05160c0516111bd620007d56000396000610705015260006107620152600061073201526111bd6000f3fe608060405234801561001057600080fd5b50600436106101fb5760003560e01c80634c19386c1161011a578063b3d7f6b9116100ad578063dd62ed3e1161007c578063dd62ed3e14610442578063ef8b30f71461024f578063f5f4d0031461046d578063f8ba4cff14610480578063fbfa77cf1461048857600080fd5b8063b3d7f6b9146103f9578063bb2eb4d21461040c578063ce2929d81461041a578063d505accf1461042d57600080fd5b80637ecebe00116100e95780637ecebe001461039a57806395d89b41146103ba578063a447a5c6146103c2578063a9059cbb146103eb57600080fd5b80634c19386c146103575780634cdad5061461035f57806357d0f5681461037257806370a082311461037a57600080fd5b8063313ce567116101925780633a53acb0116101615780633a53acb0146102fe5780633dd1d5d81461031157806341910f90146103355780634431d5201461034457600080fd5b8063313ce567146102a457806335d16e17146102c35780633644e515146102cb57806338d52e0f146102d357600080fd5b806312126081116101ce578063121260811461026257806318160ddd1461027557806323b872dd1461027e5780632c62fa101461029157600080fd5b806301e1d1141461020057806306fdde0314610217578063095ea7b31461022c5780630a28a4771461024f575b600080fd5b6009545b6040519081526020015b60405180910390f35b61021f61049b565b60405161020e9190610e43565b61023f61023a366004610eb4565b610529565b604051901515815260200161020e565b61020461025d366004610ede565b610596565b610204610270366004610ef7565b6105c5565b61020460035481565b61023f61028c366004610f23565b610691565b61020461029f366004610f5f565b6106dc565b6002546102b19060ff1681565b60405160ff909116815260200161020e565b6102046106fe565b61020461072e565b600b546102e6906001600160a01b031681565b6040516001600160a01b03909116815260200161020e565b61020461030c366004610ede565b610784565b61031c6312e687bf81565b60405167ffffffffffffffff909116815260200161020e565b610204670de0b6b3a764000081565b610204610352366004610ef7565b61078f565b610204610809565b61020461036d366004610ede565b610814565b61031c610834565b610204610388366004610f5f565b60046020526000908152604090205481565b6102046103a8366004610f5f565b60066020526000908152604090205481565b61021f610858565b6102046103d0366004610f5f565b6001600160a01b031660009081526004602052604090205490565b61023f61028c366004610eb4565b610204610407366004610ede565b610865565b61031c662386f26fc1000081565b610204610428366004610ef7565b610885565b61044061043b366004610f7a565b610945565b005b610204610450366004610fed565b600560209081526000928352604080842090915290825290205481565b61020461047b366004610ede565b610b96565b610440610ba1565b600a546102e6906001600160a01b031681565b600080546104a890611017565b80601f01602080910402602001604051908101604052809291908181526020018280546104d490611017565b80156105215780601f106104f657610100808354040283529160200191610521565b820191906000526020600020905b81548152906001019060200180831161050457829003601f168201915b505050505081565b3360008181526005602090815260408083206001600160a01b038716808552925280832085905551919290917f8c5be1e5ebec7d5bd14f71427d1e84f3dd0314c0f7b2291e5b200ac8c7c3b925906105849086815260200190565b60405180910390a35060015b92915050565b60035460009080156105bc576105b7816105af60095490565b859190610bab565b6105be565b825b9392505050565b60006105cf610bd9565b6105d883610814565b90508061061a5760405162461bcd60e51b815260206004820152600b60248201526a5a45524f5f41535345545360a81b60448201526064015b60405180910390fd5b6106248184610c57565b80600960008282546106369190611068565b9091555061064690508284610c63565b60408051828152602081018590526001600160a01b038416917f798353030d4251a345706609acf9ea7527f2ace26f73150a098c0fae89e5886d91015b60405180910390a292915050565b60405162461bcd60e51b815260206004820152601960248201527f4348446562743a204e6f6e2d7472616e736665727261626c65000000000000006044820152600090606401610611565b6001600160a01b03811660009081526004602052604081205461059090610814565b60006107297f0000000000000000000000000000000000000000000000000000000000000000610814565b905090565b60007f0000000000000000000000000000000000000000000000000000000000000000461461075f57610729610cdf565b507f000000000000000000000000000000000000000000000000000000000000000090565b600061059082610596565b600061079a83610596565b90506107a68382610c57565b82600960008282546107b89190611068565b909155506107c890508282610c63565b60408051848152602081018390526001600160a01b038416917f798353030d4251a345706609acf9ea7527f2ace26f73150a098c0fae89e5886d9101610683565b600061072960095490565b60035460009080156105bc576105b761082c60095490565b849083610d79565b6201518061084b61016d662386f26fc1000061107f565b610855919061107f565b81565b600180546104a890611017565b60035460009080156105bc576105b761087d60095490565b849083610bab565b600061088f610bd9565b61089883610596565b9050806108d55760405162461bcd60e51b815260206004820152600b60248201526a5a45524f5f53484152455360a81b6044820152606401610611565b82600960008282546108e791906110b4565b909155506108f790508282610d98565b60408051848152602081018390526001600160a01b038416917fc1b621921906be49d0631a297d31eb7f2de6e6ba1ab0f5281db5a7c582fed0ad910160405180910390a26105908382610c57565b428410156109955760405162461bcd60e51b815260206004820152601760248201527f5045524d49545f444541444c494e455f455850495245440000000000000000006044820152606401610611565b600061099f61072e565b6001600160a01b0389811660008181526006602090815260409182902080546001810190915582517f6e71edae12b1b97f4d1f60370fef10105fa2faae0126114a169c64845d6126c98184015280840194909452938c166060840152608083018b905260a083019390935260c08083018a90528151808403909101815260e08301909152805192019190912061190160f01b6101008301526101028201929092526101228101919091526101420160408051601f198184030181528282528051602091820120600080855291840180845281905260ff88169284019290925260608301869052608083018590529092509060019060a0016020604051602081039080840390855afa158015610ab8573d6000803e3d6000fd5b5050604051601f1901519150506001600160a01b03811615801590610aee5750886001600160a01b0316816001600160a01b0316145b610b2b5760405162461bcd60e51b815260206004820152600e60248201526d24a72b20a624a22fa9a4a3a722a960911b6044820152606401610611565b6001600160a01b0390811660009081526005602090815260408083208b8516808552908352928190208a905551898152919350918a16917f8c5be1e5ebec7d5bd14f71427d1e84f3dd0314c0f7b2291e5b200ac8c7c3b925910160405180910390a350505050505050565b600061059082610814565b610ba9610bd9565b565b828202811515841585830485141716610bc357600080fd5b6001826001830304018115150290509392505050565b6007544290600090610beb9083611068565b905080610bf6575050565b600854610c0a576312e687bf600855610c16565b610c12610dfc565b6008555b816007819055506000610c3982600854610c3091906110cc565b60095490610e2e565b90508060096000828254610c4d91906110b4565b9091555050505050565b610c5f610bd9565b5050565b6001600160a01b03821660009081526004602052604081208054839290610c8b908490611068565b90915550506003805482900390556040518181526000906001600160a01b038416907fddf252ad1be2c89b69c2b068fc378daa952ba7f163c4a11628f55a4df523b3ef906020015b60405180910390a35050565b60007f8b73c3c69bb8fe3d512ecc4cf759cc79239f7b179b0ffacaa9a75d522b39400f6000604051610d1191906110eb565b6040805191829003822060208301939093528101919091527fc89efdaa54c0f20c7adf612882df0950f5a951637e0307cdcb4c672f298b8bc660608201524660808201523060a082015260c00160405160208183030381529060405280519060200120905090565b828202811515841585830485141716610d9157600080fd5b0492915050565b8060036000828254610daa91906110b4565b90915550506001600160a01b0382166000818152600460209081526040808320805486019055518481527fddf252ad1be2c89b69c2b068fc378daa952ba7f163c4a11628f55a4df523b3ef9101610cd3565b600062015180610e1561016d662386f26fc1000061107f565b610e1f919061107f565b67ffffffffffffffff16905090565b60006105be8383670de0b6b3a7640000610bab565b600060208083528351808285015260005b81811015610e7057858101830151858201604001528201610e54565b81811115610e82576000604083870101525b50601f01601f1916929092016040019392505050565b80356001600160a01b0381168114610eaf57600080fd5b919050565b60008060408385031215610ec757600080fd5b610ed083610e98565b946020939093013593505050565b600060208284031215610ef057600080fd5b5035919050565b60008060408385031215610f0a57600080fd5b82359150610f1a60208401610e98565b90509250929050565b600080600060608486031215610f3857600080fd5b610f4184610e98565b9250610f4f60208501610e98565b9150604084013590509250925092565b600060208284031215610f7157600080fd5b6105be82610e98565b600080600080600080600060e0888a031215610f9557600080fd5b610f9e88610e98565b9650610fac60208901610e98565b95506040880135945060608801359350608088013560ff81168114610fd057600080fd5b9699959850939692959460a0840135945060c09093013592915050565b6000806040838503121561100057600080fd5b61100983610e98565b9150610f1a60208401610e98565b600181811c9082168061102b57607f821691505b6020821081141561104c57634e487b7160e01b600052602260045260246000fd5b50919050565b634e487b7160e01b600052601160045260246000fd5b60008282101561107a5761107a611052565b500390565b600067ffffffffffffffff808416806110a857634e487b7160e01b600052601260045260246000fd5b92169190910492915050565b600082198211156110c7576110c7611052565b500190565b60008160001904831182151516156110e6576110e6611052565b500290565b600080835481600182811c91508083168061110757607f831692505b602080841082141561112757634e487b7160e01b86526022600452602486fd5b81801561113b576001811461114c57611179565b60ff19861689528489019650611179565b60008a81526020902060005b868110156111715781548b820152908501908301611158565b505084890196505b50949897505050505050505056fea26469706673582212203df453be0a0d87fb61ce5ca81eeb7b1fc0f81387007a1f8495b41859d40bad0d64736f6c6343000809003361012060405234801561001157600080fd5b50604051610a94380380610a948339810160408190526100309161007b565b6080849052610052670de0b6b3a764000085610068602090811b6105ea17901c565b60a05260c09290925260e05261010052506100d6565b600061007482846100b1565b9392505050565b6000806000806080858703121561009157600080fd5b505082516020840151604085015160609095015191969095509092509050565b6000828210156100d157634e487b7160e01b600052601160045260246000fd5b500390565b60805160a05160c05160e0516101005161091a61017a6000396000818160d4015281816102b50152818161041801526105c601526000818161012201528181610300015281816103610152818161045d01526105a5015260008181610192015281816102df0152818161039b015261043c015260008181609d015261024f01526000818161016e0152818161022301528181610273015261033d015261091a6000f3fe608060405234801561001057600080fd5b50600436106100935760003560e01c806380031e371161006657806380031e371461014657806381c8c9721461014e5780639129b29e14610161578063a15f30ac14610169578063b25895441461019057600080fd5b8063173198731461009857806365614f81146100d25780636ee082ca146100f85780637b832f5814610120575b600080fd5b6100bf7f000000000000000000000000000000000000000000000000000000000000000081565b6040519081526020015b60405180910390f35b7f00000000000000000000000000000000000000000000000000000000000000006100bf565b61010b6101063660046107b7565b6101b6565b604080519283526020830191909152016100c9565b7f00000000000000000000000000000000000000000000000000000000000000006100bf565b6100bf610411565b61010b61015c3660046107f0565b610486565b6100bf61059e565b6100bf7f000000000000000000000000000000000000000000000000000000000000000081565b7f00000000000000000000000000000000000000000000000000000000000000006100bf565b6000806101e46040518060800160405280600081526020016000815260200160008152602001600081525090565b60006020820181905260408201528051156102175780516102129061020a9088906105ff565b82519061060b565b61021a565b60005b606082018190527f000000000000000000000000000000000000000000000000000000000000000010156103355760006102ab7f00000000000000000000000000000000000000000000000000000000000000006102a57f000000000000000000000000000000000000000000000000000000000000000085606001516105ea90919063ffffffff16565b9061060b565b905061032a6102da7f000000000000000000000000000000000000000000000000000000000000000083610620565b6103247f00000000000000000000000000000000000000000000000000000000000000007f00000000000000000000000000000000000000000000000000000000000000006105ff565b906105ff565b6020830152506103c6565b6103c06103997f00000000000000000000000000000000000000000000000000000000000000006103937f0000000000000000000000000000000000000000000000000000000000000000856060015161062090919063ffffffff16565b90610635565b7f0000000000000000000000000000000000000000000000000000000000000000906105ff565b60208201525b6103f76103d5612710866105ea565b6103f183606001516103eb89866020015161064a565b90610620565b90610680565b604082018190526020909101519097909650945050505050565b60006104817f00000000000000000000000000000000000000000000000000000000000000006103247f00000000000000000000000000000000000000000000000000000000000000007f00000000000000000000000000000000000000000000000000000000000000006105ff565b905090565b6040516370a0823160e01b81526001600160a01b03878116600483015260009182918291908916906370a082319060240160206040518083038186803b1580156104cf57600080fd5b505afa1580156104e3573d6000803e3d6000fd5b505050506040513d601f19601f820116820180604052508101906105079190610845565b9050600061051582896105ff565b905086811161056b5760405162461bcd60e51b815260206004820152601c60248201527f496e7465726573743a20496e636f6e73697374656e742073746174650000000060448201526064015b60405180910390fd5b61057f87610579848b6105ff565b906105ea565b915061058d8a8388886101b6565b935093505050965096945050505050565b60006104817f00000000000000000000000000000000000000000000000000000000000000007f00000000000000000000000000000000000000000000000000000000000000006105ff565b60006105f68284610874565b90505b92915050565b60006105f6828461088b565b60006105f683670de0b6b3a764000084610739565b60006105f68383670de0b6b3a7640000610739565b60006105f683670de0b6b3a764000084610767565b6000828061065c5760009150506105f9565b60006106688585610786565b905060006106768284610635565b9695505050505050565b600082158061068d575081155b1561069a575060006105f9565b816106a860026127106108a3565b6106b490600019610874565b6106be91906108a3565b83111561070d5760405162461bcd60e51b815260206004820152601c60248201527f4d4154485f4d554c5449504c49434154494f4e5f4f564552464c4f57000000006044820152606401610562565b61271061071b6002826108a3565b61072584866108c5565b61072f919061088b565b6105f691906108a3565b82820281151584158583048514171661075157600080fd5b6001826001830304018115150290509392505050565b82820281151584158583048514171661077f57600080fd5b0492915050565b60006105f68383670de0b6b3a7640000610767565b80356001600160a01b03811681146107b257600080fd5b919050565b600080600080608085870312156107cd57600080fd5b6107d68561079b565b966020860135965060408601359560600135945092505050565b60008060008060008060c0878903121561080957600080fd5b6108128761079b565b95506108206020880161079b565b95989597505050506040840135936060810135936080820135935060a0909101359150565b60006020828403121561085757600080fd5b5051919050565b634e487b7160e01b600052601160045260246000fd5b6000828210156108865761088661085e565b500390565b6000821982111561089e5761089e61085e565b500190565b6000826108c057634e487b7160e01b600052601260045260246000fd5b500490565b60008160001904831182151516156108df576108df61085e565b50029056fea264697066735822122030afdba4c083d05def03226ee59f4b162cd12958f2460f0a378cab3d6c0dc0fc64736f6c63430008090033",
  "linkReferences": {},
  "deployedLinkReferences": {}
}