{
  "_format": "hh-sol-artifact-1",
  "contractName": "CheddaDappExplorer",
  "sourceName": "contracts/dappstore/CheddaDappExplorer.sol",
  "abi": [
    {
      "anonymous": false,
      "inputs": [
        {
          "indexed": true,
          "internalType": "address",
          "name": "previousOwner",
          "type": "address"
        },
        {
          "indexed": true,
          "internalType": "address",
          "name": "newOwner",
          "type": "address"
        }
      ],
      "name": "OwnershipTransferred",
      "type": "event"
    },
    {
      "anonymous": false,
      "inputs": [
        {
          "indexed": true,
          "internalType": "address",
          "name": "contractAddress",
          "type": "address"
        },
        {
          "indexed": true,
          "internalType": "address",
          "name": "user",
          "type": "address"
        },
        {
          "indexed": false,
          "internalType": "uint256",
          "name": "rating",
          "type": "uint256"
        }
      ],
      "name": "RatingAdded",
      "type": "event"
    },
    {
      "anonymous": false,
      "inputs": [
        {
          "indexed": true,
          "internalType": "address",
          "name": "contractAddress",
          "type": "address"
        },
        {
          "indexed": true,
          "internalType": "address",
          "name": "user",
          "type": "address"
        }
      ],
      "name": "ReviewAdded",
      "type": "event"
    },
    {
      "inputs": [],
      "name": "MAX_RATING",
      "outputs": [
        {
          "internalType": "uint16",
          "name": "",
          "type": "uint16"
        }
      ],
      "stateMutability": "view",
      "type": "function"
    },
    {
      "inputs": [],
      "name": "RATING_SCALE",
      "outputs": [
        {
          "internalType": "uint16",
          "name": "",
          "type": "uint16"
        }
      ],
      "stateMutability": "view",
      "type": "function"
    },
    {
      "inputs": [
        {
          "internalType": "address",
          "name": "contractAddress",
          "type": "address"
        },
        {
          "internalType": "uint256",
          "name": "rating",
          "type": "uint256"
        }
      ],
      "name": "addRating",
      "outputs": [],
      "stateMutability": "nonpayable",
      "type": "function"
    },
    {
      "inputs": [
        {
          "internalType": "address",
          "name": "contractAddress",
          "type": "address"
        },
        {
          "internalType": "string",
          "name": "reviewDataURI",
          "type": "string"
        },
        {
          "internalType": "uint256",
          "name": "rating",
          "type": "uint256"
        }
      ],
      "name": "addReview",
      "outputs": [],
      "stateMutability": "nonpayable",
      "type": "function"
    },
    {
      "inputs": [
        {
          "internalType": "address",
          "name": "contractAddress",
          "type": "address"
        }
      ],
      "name": "averageRating",
      "outputs": [
        {
          "internalType": "uint256",
          "name": "",
          "type": "uint256"
        }
      ],
      "stateMutability": "view",
      "type": "function"
    },
    {
      "inputs": [
        {
          "internalType": "address",
          "name": "contractAddress",
          "type": "address"
        }
      ],
      "name": "getReviews",
      "outputs": [
        {
          "components": [
            {
              "internalType": "address",
              "name": "contractAddress",
              "type": "address"
            },
            {
              "internalType": "string",
              "name": "reviewURI",
              "type": "string"
            },
            {
              "internalType": "uint256",
              "name": "rating",
              "type": "uint256"
            },
            {
              "internalType": "uint256",
              "name": "timestamp",
              "type": "uint256"
            },
            {
              "internalType": "address",
              "name": "author",
              "type": "address"
            }
          ],
          "internalType": "struct Review[]",
          "name": "",
          "type": "tuple[]"
        }
      ],
      "stateMutability": "view",
      "type": "function"
    },
    {
      "inputs": [
        {
          "internalType": "address",
          "name": "contractAddress",
          "type": "address"
        },
        {
          "internalType": "uint256",
          "name": "start",
          "type": "uint256"
        },
        {
          "internalType": "uint256",
          "name": "end",
          "type": "uint256"
        }
      ],
      "name": "getReviewsBetween",
      "outputs": [
        {
          "components": [
            {
              "internalType": "address",
              "name": "contractAddress",
              "type": "address"
            },
            {
              "internalType": "string",
              "name": "reviewURI",
              "type": "string"
            },
            {
              "internalType": "uint256",
              "name": "rating",
              "type": "uint256"
            },
            {
              "internalType": "uint256",
              "name": "timestamp",
              "type": "uint256"
            },
            {
              "internalType": "address",
              "name": "author",
              "type": "address"
            }
          ],
          "internalType": "struct Review[]",
          "name": "",
          "type": "tuple[]"
        }
      ],
      "stateMutability": "view",
      "type": "function"
    },
    {
      "inputs": [
        {
          "internalType": "address",
          "name": "contractAddress",
          "type": "address"
        }
      ],
      "name": "myRating",
      "outputs": [
        {
          "internalType": "uint256",
          "name": "",
          "type": "uint256"
        }
      ],
      "stateMutability": "view",
      "type": "function"
    },
    {
      "inputs": [
        {
          "internalType": "address",
          "name": "",
          "type": "address"
        },
        {
          "internalType": "address",
          "name": "",
          "type": "address"
        }
      ],
      "name": "myReviews",
      "outputs": [
        {
          "internalType": "uint256",
          "name": "",
          "type": "uint256"
        }
      ],
      "stateMutability": "view",
      "type": "function"
    },
    {
      "inputs": [
        {
          "internalType": "address",
          "name": "",
          "type": "address"
        }
      ],
      "name": "numberOfRatings",
      "outputs": [
        {
          "internalType": "uint256",
          "name": "",
          "type": "uint256"
        }
      ],
      "stateMutability": "view",
      "type": "function"
    },
    {
      "inputs": [],
      "name": "owner",
      "outputs": [
        {
          "internalType": "address",
          "name": "",
          "type": "address"
        }
      ],
      "stateMutability": "view",
      "type": "function"
    },
    {
      "inputs": [
        {
          "internalType": "address",
          "name": "",
          "type": "address"
        }
      ],
      "name": "ratings",
      "outputs": [
        {
          "internalType": "uint256",
          "name": "",
          "type": "uint256"
        }
      ],
      "stateMutability": "view",
      "type": "function"
    },
    {
      "inputs": [],
      "name": "registry",
      "outputs": [
        {
          "internalType": "contract CheddaAddressRegistry",
          "name": "",
          "type": "address"
        }
      ],
      "stateMutability": "view",
      "type": "function"
    },
    {
      "inputs": [],
      "name": "renounceOwnership",
      "outputs": [],
      "stateMutability": "nonpayable",
      "type": "function"
    },
    {
      "inputs": [
        {
          "internalType": "address",
          "name": "",
          "type": "address"
        },
        {
          "internalType": "uint256",
          "name": "",
          "type": "uint256"
        }
      ],
      "name": "reviews",
      "outputs": [
        {
          "internalType": "address",
          "name": "contractAddress",
          "type": "address"
        },
        {
          "internalType": "string",
          "name": "reviewURI",
          "type": "string"
        },
        {
          "internalType": "uint256",
          "name": "rating",
          "type": "uint256"
        },
        {
          "internalType": "uint256",
          "name": "timestamp",
          "type": "uint256"
        },
        {
          "internalType": "address",
          "name": "author",
          "type": "address"
        }
      ],
      "stateMutability": "view",
      "type": "function"
    },
    {
      "inputs": [
        {
          "internalType": "address",
          "name": "newOwner",
          "type": "address"
        }
      ],
      "name": "transferOwnership",
      "outputs": [],
      "stateMutability": "nonpayable",
      "type": "function"
    },
    {
      "inputs": [
        {
          "internalType": "address",
          "name": "registryAddress",
          "type": "address"
        }
      ],
      "name": "updateRegistry",
      "outputs": [],
      "stateMutability": "nonpayable",
      "type": "function"
    },
    {
      "inputs": [
        {
          "internalType": "address",
          "name": "",
          "type": "address"
        },
        {
          "internalType": "address",
          "name": "",
          "type": "address"
        }
      ],
      "name": "userRatings",
      "outputs": [
        {
          "internalType": "uint256",
          "name": "",
          "type": "uint256"
        }
      ],
      "stateMutability": "view",
      "type": "function"
    }
  ],
  "bytecode": "0x60806040523480156200001157600080fd5b5062000032620000266200003860201b60201c565b6200004060201b60201c565b62000104565b600033905090565b60008060009054906101000a900473ffffffffffffffffffffffffffffffffffffffff169050816000806101000a81548173ffffffffffffffffffffffffffffffffffffffff021916908373ffffffffffffffffffffffffffffffffffffffff1602179055508173ffffffffffffffffffffffffffffffffffffffff168173ffffffffffffffffffffffffffffffffffffffff167f8be0079c531659141344cd1fd0a4f28419497f9722a3daafe3b4186f6b6457e060405160405180910390a35050565b612eef80620001146000396000f3fe608060405234801561001057600080fd5b50600436106101165760003560e01c80637b103999116100a2578063ba92fb9d11610071578063ba92fb9d1461030b578063ea751d8714610327578063f2fde38b14610357578063f4f98eab14610373578063f720015f146103a357610116565b80637b103999146102815780638da5cb5b1461029f57806394e113ea146102bd5780639e01dfbb146102db57610116565b80635e007b88116100e95780635e007b88146101c75780636db3328f146101f757806370370a811461022b578063715018a61461024757806374b6e5bb1461025157610116565b80630b8d70a81461011b5780631a5da6c81461014b57806349c74ad3146101675780634ef5a01714610197575b600080fd5b6101356004803603810190610130919061226e565b6103c1565b60405161014291906128ea565b60405180910390f35b6101656004803603810190610160919061226e565b6103d9565b005b610181600480360381019061017c91906122c0565b6104d8565b60405161018e91906128ea565b60405180910390f35b6101b160048036038101906101ac919061226e565b6104fd565b6040516101be9190612779565b60405180910390f35b6101e160048036038101906101dc919061226e565b61088f565b6040516101ee91906128ea565b60405180910390f35b610211600480360381019061020c9190612363565b610ab7565b6040516102229594939291906126f6565b60405180910390f35b61024560048036038101906102409190612363565b610bd2565b005b61024f611194565b005b61026b6004803603810190610266919061239f565b61121c565b6040516102789190612779565b60405180910390f35b610289611648565b604051610296919061279b565b60405180910390f35b6102a761166e565b6040516102b491906126db565b60405180910390f35b6102c5611697565b6040516102d291906128cf565b60405180910390f35b6102f560048036038101906102f0919061226e565b61169d565b60405161030291906128ea565b60405180910390f35b610325600480360381019061032091906122fc565b6116b5565b005b610341600480360381019061033c91906122c0565b611aac565b60405161034e91906128ea565b60405180910390f35b610371600480360381019061036c919061226e565b611ad1565b005b61038d6004803603810190610388919061226e565b611bc9565b60405161039a91906128ea565b60405180910390f35b6103ab611e18565b6040516103b891906128cf565b60405180910390f35b60036020528060005260406000206000915090505481565b6103e1611e1d565b73ffffffffffffffffffffffffffffffffffffffff166103ff61166e565b73ffffffffffffffffffffffffffffffffffffffff1614610455576040517f08c379a000000000000000000000000000000000000000000000000000000000815260040161044c9061284f565b60405180910390fd5b80600160006101000a81548173ffffffffffffffffffffffffffffffffffffffff021916908373ffffffffffffffffffffffffffffffffffffffff1602179055506104d56040518060400160405280601781526020017f7570646174696e6720726567697374727920746f20257300000000000000000081525082611e25565b50565b6006602052816000526040600020602052806000526040600020600091509150505481565b606081600073ffffffffffffffffffffffffffffffffffffffff16600160009054906101000a900473ffffffffffffffffffffffffffffffffffffffff1673ffffffffffffffffffffffffffffffffffffffff16638dbe772a6040518163ffffffff1660e01b815260040160206040518083038186803b15801561058057600080fd5b505afa158015610594573d6000803e3d6000fd5b505050506040513d601f19601f820116820180604052508101906105b89190612297565b73ffffffffffffffffffffffffffffffffffffffff1663496bd3df836040518263ffffffff1660e01b81526004016105f091906126db565b60006040518083038186803b15801561060857600080fd5b505afa15801561061c573d6000803e3d6000fd5b505050506040513d6000823e3d601f19601f8201168201806040525081019061064591906123ee565b6080015173ffffffffffffffffffffffffffffffffffffffff1614156106a0576040517f08c379a00000000000000000000000000000000000000000000000000000000081526004016106979061286f565b60405180910390fd5b600560008473ffffffffffffffffffffffffffffffffffffffff1673ffffffffffffffffffffffffffffffffffffffff168152602001908152602001600020805480602002602001604051908101604052809291908181526020016000905b8282101561088357838290600052602060002090600502016040518060a00160405290816000820160009054906101000a900473ffffffffffffffffffffffffffffffffffffffff1673ffffffffffffffffffffffffffffffffffffffff1673ffffffffffffffffffffffffffffffffffffffff16815260200160018201805461078890612b2a565b80601f01602080910402602001604051908101604052809291908181526020018280546107b490612b2a565b80156108015780601f106107d657610100808354040283529160200191610801565b820191906000526020600020905b8154815290600101906020018083116107e457829003601f168201915b5050505050815260200160028201548152602001600382015481526020016004820160009054906101000a900473ffffffffffffffffffffffffffffffffffffffff1673ffffffffffffffffffffffffffffffffffffffff1673ffffffffffffffffffffffffffffffffffffffff1681525050815260200190600101906106ff565b50505050915050919050565b600081600073ffffffffffffffffffffffffffffffffffffffff16600160009054906101000a900473ffffffffffffffffffffffffffffffffffffffff1673ffffffffffffffffffffffffffffffffffffffff16638dbe772a6040518163ffffffff1660e01b815260040160206040518083038186803b15801561091257600080fd5b505afa158015610926573d6000803e3d6000fd5b505050506040513d601f19601f8201168201806040525081019061094a9190612297565b73ffffffffffffffffffffffffffffffffffffffff1663496bd3df836040518263ffffffff1660e01b815260040161098291906126db565b60006040518083038186803b15801561099a57600080fd5b505afa1580156109ae573d6000803e3d6000fd5b505050506040513d6000823e3d601f19601f820116820180604052508101906109d791906123ee565b6080015173ffffffffffffffffffffffffffffffffffffffff161415610a32576040517f08c379a0000000000000000000000000000000000000000000000000000000008152600401610a299061286f565b60405180910390fd5b600460008473ffffffffffffffffffffffffffffffffffffffff1673ffffffffffffffffffffffffffffffffffffffff16815260200190815260200160002060003373ffffffffffffffffffffffffffffffffffffffff1673ffffffffffffffffffffffffffffffffffffffff16815260200190815260200160002054915050919050565b60056020528160005260406000208181548110610ad357600080fd5b9060005260206000209060050201600091509150508060000160009054906101000a900473ffffffffffffffffffffffffffffffffffffffff1690806001018054610b1d90612b2a565b80601f0160208091040260200160405190810160405280929190818152602001828054610b4990612b2a565b8015610b965780601f10610b6b57610100808354040283529160200191610b96565b820191906000526020600020905b815481529060010190602001808311610b7957829003601f168201915b5050505050908060020154908060030154908060040160009054906101000a900473ffffffffffffffffffffffffffffffffffffffff16905085565b81600073ffffffffffffffffffffffffffffffffffffffff16600160009054906101000a900473ffffffffffffffffffffffffffffffffffffffff1673ffffffffffffffffffffffffffffffffffffffff16638dbe772a6040518163ffffffff1660e01b815260040160206040518083038186803b158015610c5357600080fd5b505afa158015610c67573d6000803e3d6000fd5b505050506040513d601f19601f82011682018060405250810190610c8b9190612297565b73ffffffffffffffffffffffffffffffffffffffff1663496bd3df836040518263ffffffff1660e01b8152600401610cc391906126db565b60006040518083038186803b158015610cdb57600080fd5b505afa158015610cef573d6000803e3d6000fd5b505050506040513d6000823e3d601f19601f82011682018060405250810190610d1891906123ee565b6080015173ffffffffffffffffffffffffffffffffffffffff161415610d73576040517f08c379a0000000000000000000000000000000000000000000000000000000008152600401610d6a9061286f565b60405180910390fd5b6000600460008573ffffffffffffffffffffffffffffffffffffffff1673ffffffffffffffffffffffffffffffffffffffff16815260200190815260200160002060003373ffffffffffffffffffffffffffffffffffffffff1673ffffffffffffffffffffffffffffffffffffffff1681526020019081526020016000205414610e32576040517f08c379a0000000000000000000000000000000000000000000000000000000008152600401610e299061288f565b60405180910390fd5b6000821415610e76576040517f08c379a0000000000000000000000000000000000000000000000000000000008152600401610e6d9061282f565b60405180910390fd5b6000606461ffff1683610e899190612c00565b148015610e9c57506101f461ffff168211155b610edb576040517f08c379a0000000000000000000000000000000000000000000000000000000008152600401610ed2906128af565b60405180910390fd5b81600460008573ffffffffffffffffffffffffffffffffffffffff1673ffffffffffffffffffffffffffffffffffffffff16815260200190815260200160002060003373ffffffffffffffffffffffffffffffffffffffff1673ffffffffffffffffffffffffffffffffffffffff1681526020019081526020016000208190555081600260008573ffffffffffffffffffffffffffffffffffffffff1673ffffffffffffffffffffffffffffffffffffffff1681526020019081526020016000206000828254610fab91906129c1565b925050819055506001600360008573ffffffffffffffffffffffffffffffffffffffff1673ffffffffffffffffffffffffffffffffffffffff168152602001908152602001600020600082825461100291906129c1565b925050819055506000600160009054906101000a900473ffffffffffffffffffffffffffffffffffffffff1673ffffffffffffffffffffffffffffffffffffffff16639ec5a8946040518163ffffffff1660e01b815260040160206040518083038186803b15801561107357600080fd5b505afa158015611087573d6000803e3d6000fd5b505050506040513d601f19601f820116820180604052508101906110ab9190612297565b90508073ffffffffffffffffffffffffffffffffffffffff1663b5635a8260036110d3611e1d565b6040518363ffffffff1660e01b81526004016110f09291906127b6565b600060405180830381600087803b15801561110a57600080fd5b505af115801561111e573d6000803e3d6000fd5b5050505061112a611e1d565b73ffffffffffffffffffffffffffffffffffffffff168473ffffffffffffffffffffffffffffffffffffffff167f2b8a6f035e2a31b4fcdef20e9217eff649ead8db9add54b5531cd04043b069d28560405161118691906128ea565b60405180910390a350505050565b61119c611e1d565b73ffffffffffffffffffffffffffffffffffffffff166111ba61166e565b73ffffffffffffffffffffffffffffffffffffffff1614611210576040517f08c379a00000000000000000000000000000000000000000000000000000000081526004016112079061284f565b60405180910390fd5b61121a6000611ec1565b565b606083600073ffffffffffffffffffffffffffffffffffffffff16600160009054906101000a900473ffffffffffffffffffffffffffffffffffffffff1673ffffffffffffffffffffffffffffffffffffffff16638dbe772a6040518163ffffffff1660e01b815260040160206040518083038186803b15801561129f57600080fd5b505afa1580156112b3573d6000803e3d6000fd5b505050506040513d601f19601f820116820180604052508101906112d79190612297565b73ffffffffffffffffffffffffffffffffffffffff1663496bd3df836040518263ffffffff1660e01b815260040161130f91906126db565b60006040518083038186803b15801561132757600080fd5b505afa15801561133b573d6000803e3d6000fd5b505050506040513d6000823e3d601f19601f8201168201806040525081019061136491906123ee565b6080015173ffffffffffffffffffffffffffffffffffffffff1614156113bf576040517f08c379a00000000000000000000000000000000000000000000000000000000081526004016113b69061286f565b60405180910390fd5b6000600560008773ffffffffffffffffffffffffffffffffffffffff1673ffffffffffffffffffffffffffffffffffffffff168152602001908152602001600020805480602002602001604051908101604052809291908181526020016000905b828210156115a457838290600052602060002090600502016040518060a00160405290816000820160009054906101000a900473ffffffffffffffffffffffffffffffffffffffff1673ffffffffffffffffffffffffffffffffffffffff1673ffffffffffffffffffffffffffffffffffffffff1681526020016001820180546114a990612b2a565b80601f01602080910402602001604051908101604052809291908181526020018280546114d590612b2a565b80156115225780601f106114f757610100808354040283529160200191611522565b820191906000526020600020905b81548152906001019060200180831161150557829003601f168201915b5050505050815260200160028201548152602001600382015481526020016004820160009054906101000a900473ffffffffffffffffffffffffffffffffffffffff1673ffffffffffffffffffffffffffffffffffffffff1673ffffffffffffffffffffffffffffffffffffffff168152505081526020019060010190611420565b5050505090506000805b825181101561163a5760008382815181106115f2577f4e487b7100000000000000000000000000000000000000000000000000000000600052603260045260246000fd5b602002602001015190508781606001511180156116125750868160600151105b1561162657828061162290612bd6565b9350505b50808061163290612b8d565b9150506115ae565b508193505050509392505050565b600160009054906101000a900473ffffffffffffffffffffffffffffffffffffffff1681565b60008060009054906101000a900473ffffffffffffffffffffffffffffffffffffffff16905090565b6101f481565b60026020528060005260406000206000915090505481565b82600073ffffffffffffffffffffffffffffffffffffffff16600160009054906101000a900473ffffffffffffffffffffffffffffffffffffffff1673ffffffffffffffffffffffffffffffffffffffff16638dbe772a6040518163ffffffff1660e01b815260040160206040518083038186803b15801561173657600080fd5b505afa15801561174a573d6000803e3d6000fd5b505050506040513d601f19601f8201168201806040525081019061176e9190612297565b73ffffffffffffffffffffffffffffffffffffffff1663496bd3df836040518263ffffffff1660e01b81526004016117a691906126db565b60006040518083038186803b1580156117be57600080fd5b505afa1580156117d2573d6000803e3d6000fd5b505050506040513d6000823e3d601f19601f820116820180604052508101906117fb91906123ee565b6080015173ffffffffffffffffffffffffffffffffffffffff161415611856576040517f08c379a000000000000000000000000000000000000000000000000000000000815260040161184d9061286f565b60405180910390fd5b60006040518060a001604052808673ffffffffffffffffffffffffffffffffffffffff1681526020018581526020018481526020014281526020013373ffffffffffffffffffffffffffffffffffffffff1681525090503073ffffffffffffffffffffffffffffffffffffffff166370370a8186856040518363ffffffff1660e01b81526004016118e8929190612750565b600060405180830381600087803b15801561190257600080fd5b505af1158015611916573d6000803e3d6000fd5b50505050600560008673ffffffffffffffffffffffffffffffffffffffff1673ffffffffffffffffffffffffffffffffffffffff16815260200190815260200160002081908060018154018082558091505060019003906000526020600020906005020160009091909190915060008201518160000160006101000a81548173ffffffffffffffffffffffffffffffffffffffff021916908373ffffffffffffffffffffffffffffffffffffffff16021790555060208201518160010190805190602001906119e6929190611fae565b50604082015181600201556060820151816003015560808201518160040160006101000a81548173ffffffffffffffffffffffffffffffffffffffff021916908373ffffffffffffffffffffffffffffffffffffffff1602179055505050611a4c611e1d565b73ffffffffffffffffffffffffffffffffffffffff168573ffffffffffffffffffffffffffffffffffffffff167fd2738371c58caff9b9effcfa003a7fe6a306673247690d9fb3308b08f70ada1560405160405180910390a35050505050565b6004602052816000526040600020602052806000526040600020600091509150505481565b611ad9611e1d565b73ffffffffffffffffffffffffffffffffffffffff16611af761166e565b73ffffffffffffffffffffffffffffffffffffffff1614611b4d576040517f08c379a0000000000000000000000000000000000000000000000000000000008152600401611b449061284f565b60405180910390fd5b600073ffffffffffffffffffffffffffffffffffffffff168173ffffffffffffffffffffffffffffffffffffffff161415611bbd576040517f08c379a0000000000000000000000000000000000000000000000000000000008152600401611bb49061280f565b60405180910390fd5b611bc681611ec1565b50565b600081600073ffffffffffffffffffffffffffffffffffffffff16600160009054906101000a900473ffffffffffffffffffffffffffffffffffffffff1673ffffffffffffffffffffffffffffffffffffffff16638dbe772a6040518163ffffffff1660e01b815260040160206040518083038186803b158015611c4c57600080fd5b505afa158015611c60573d6000803e3d6000fd5b505050506040513d601f19601f82011682018060405250810190611c849190612297565b73ffffffffffffffffffffffffffffffffffffffff1663496bd3df836040518263ffffffff1660e01b8152600401611cbc91906126db565b60006040518083038186803b158015611cd457600080fd5b505afa158015611ce8573d6000803e3d6000fd5b505050506040513d6000823e3d601f19601f82011682018060405250810190611d1191906123ee565b6080015173ffffffffffffffffffffffffffffffffffffffff161415611d6c576040517f08c379a0000000000000000000000000000000000000000000000000000000008152600401611d639061286f565b60405180910390fd5b6000600360008573ffffffffffffffffffffffffffffffffffffffff1673ffffffffffffffffffffffffffffffffffffffff1681526020019081526020016000205490506000811415611dc3576000925050611e12565b80600260008673ffffffffffffffffffffffffffffffffffffffff1673ffffffffffffffffffffffffffffffffffffffff16815260200190815260200160002054611e0e9190612a17565b9250505b50919050565b606481565b600033905090565b611ebd8282604051602401611e3b9291906127df565b6040516020818303038152906040527f319af333000000000000000000000000000000000000000000000000000000007bffffffffffffffffffffffffffffffffffffffffffffffffffffffff19166020820180517bffffffffffffffffffffffffffffffffffffffffffffffffffffffff8381831617835250505050611f85565b5050565b60008060009054906101000a900473ffffffffffffffffffffffffffffffffffffffff169050816000806101000a81548173ffffffffffffffffffffffffffffffffffffffff021916908373ffffffffffffffffffffffffffffffffffffffff1602179055508173ffffffffffffffffffffffffffffffffffffffff168173ffffffffffffffffffffffffffffffffffffffff167f8be0079c531659141344cd1fd0a4f28419497f9722a3daafe3b4186f6b6457e060405160405180910390a35050565b60008151905060006a636f6e736f6c652e6c6f679050602083016000808483855afa5050505050565b828054611fba90612b2a565b90600052602060002090601f016020900481019282611fdc5760008555612023565b82601f10611ff557805160ff1916838001178555612023565b82800160010185558215612023579182015b82811115612022578251825591602001919060010190612007565b5b5090506120309190612034565b5090565b5b8082111561204d576000816000905550600101612035565b5090565b600061206461205f8461292a565b612905565b90508281526020810184848401111561207c57600080fd5b612087848285612ae8565b509392505050565b60006120a261209d8461292a565b612905565b9050828152602081018484840111156120ba57600080fd5b6120c5848285612af7565b509392505050565b6000813590506120dc81612e5d565b92915050565b6000815190506120f181612e5d565b92915050565b600082601f83011261210857600080fd5b8135612118848260208601612051565b91505092915050565b600082601f83011261213257600080fd5b815161214284826020860161208f565b91505092915050565b600060c0828403121561215d57600080fd5b61216760c0612905565b905060006121778482850161222f565b600083015250602082015167ffffffffffffffff81111561219757600080fd5b6121a384828501612121565b602083015250604082015167ffffffffffffffff8111156121c357600080fd5b6121cf84828501612121565b60408301525060606121e384828501612259565b60608301525060806121f7848285016120e2565b60808301525060a082015167ffffffffffffffff81111561221757600080fd5b61222384828501612121565b60a08301525092915050565b60008151905061223e81612e74565b92915050565b60008135905061225381612e8b565b92915050565b60008151905061226881612ea2565b92915050565b60006020828403121561228057600080fd5b600061228e848285016120cd565b91505092915050565b6000602082840312156122a957600080fd5b60006122b7848285016120e2565b91505092915050565b600080604083850312156122d357600080fd5b60006122e1858286016120cd565b92505060206122f2858286016120cd565b9150509250929050565b60008060006060848603121561231157600080fd5b600061231f868287016120cd565b935050602084013567ffffffffffffffff81111561233c57600080fd5b612348868287016120f7565b925050604061235986828701612244565b9150509250925092565b6000806040838503121561237657600080fd5b6000612384858286016120cd565b925050602061239585828601612244565b9150509250929050565b6000806000606084860312156123b457600080fd5b60006123c2868287016120cd565b93505060206123d386828701612244565b92505060406123e486828701612244565b9150509250925092565b60006020828403121561240057600080fd5b600082015167ffffffffffffffff81111561241a57600080fd5b6124268482850161214b565b91505092915050565b600061243b8383612638565b905092915050565b61244c81612a48565b82525050565b61245b81612a48565b82525050565b600061246c8261296b565b612476818561298e565b9350836020820285016124888561295b565b8060005b858110156124c457848403895281516124a5858261242f565b94506124b083612981565b925060208a0199505060018101905061248c565b50829750879550505050505092915050565b6124df81612ab2565b82525050565b6124ee81612ad6565b82525050565b60006124ff82612976565b612509818561299f565b9350612519818560208601612af7565b61252281612d1c565b840191505092915050565b600061253882612976565b61254281856129b0565b9350612552818560208601612af7565b61255b81612d1c565b840191505092915050565b60006125736026836129b0565b915061257e82612d2d565b604082019050919050565b60006125966013836129b0565b91506125a182612d7c565b602082019050919050565b60006125b96020836129b0565b91506125c482612da5565b602082019050919050565b60006125dc6013836129b0565b91506125e782612dce565b602082019050919050565b60006125ff600d836129b0565b915061260a82612df7565b602082019050919050565b6000612622600e836129b0565b915061262d82612e20565b602082019050919050565b600060a0830160008301516126506000860182612443565b506020830151848203602086015261266882826124f4565b915050604083015161267d60408601826126bd565b50606083015161269060608601826126bd565b5060808301516126a36080860182612443565b508091505092915050565b6126b781612a6d565b82525050565b6126c681612a9b565b82525050565b6126d581612a9b565b82525050565b60006020820190506126f06000830184612452565b92915050565b600060a08201905061270b6000830188612452565b818103602083015261271d818761252d565b905061272c60408301866126cc565b61273960608301856126cc565b6127466080830184612452565b9695505050505050565b60006040820190506127656000830185612452565b61277260208301846126cc565b9392505050565b600060208201905081810360008301526127938184612461565b905092915050565b60006020820190506127b060008301846124d6565b92915050565b60006040820190506127cb60008301856124e5565b6127d86020830184612452565b9392505050565b600060408201905081810360008301526127f9818561252d565b90506128086020830184612452565b9392505050565b6000602082019050818103600083015261282881612566565b9050919050565b6000602082019050818103600083015261284881612589565b9050919050565b60006020820190508181036000830152612868816125ac565b9050919050565b60006020820190508181036000830152612888816125cf565b9050919050565b600060208201905081810360008301526128a8816125f2565b9050919050565b600060208201905081810360008301526128c881612615565b9050919050565b60006020820190506128e460008301846126ae565b92915050565b60006020820190506128ff60008301846126cc565b92915050565b600061290f612920565b905061291b8282612b5c565b919050565b6000604051905090565b600067ffffffffffffffff82111561294557612944612ced565b5b61294e82612d1c565b9050602081019050919050565b6000819050602082019050919050565b600081519050919050565b600081519050919050565b6000602082019050919050565b600082825260208201905092915050565b600082825260208201905092915050565b600082825260208201905092915050565b60006129cc82612a9b565b91506129d783612a9b565b9250827fffffffffffffffffffffffffffffffffffffffffffffffffffffffffffffffff03821115612a0c57612a0b612c31565b5b828201905092915050565b6000612a2282612a9b565b9150612a2d83612a9b565b925082612a3d57612a3c612c60565b5b828204905092915050565b6000612a5382612a7b565b9050919050565b6000819050612a6882612e49565b919050565b600061ffff82169050919050565b600073ffffffffffffffffffffffffffffffffffffffff82169050919050565b6000819050919050565b600060ff82169050919050565b6000612abd82612ac4565b9050919050565b6000612acf82612a7b565b9050919050565b6000612ae182612a5a565b9050919050565b82818337600083830152505050565b60005b83811015612b15578082015181840152602081019050612afa565b83811115612b24576000848401525b50505050565b60006002820490506001821680612b4257607f821691505b60208210811415612b5657612b55612cbe565b5b50919050565b612b6582612d1c565b810181811067ffffffffffffffff82111715612b8457612b83612ced565b5b80604052505050565b6000612b9882612a9b565b91507fffffffffffffffffffffffffffffffffffffffffffffffffffffffffffffffff821415612bcb57612bca612c31565b5b600182019050919050565b6000612be182612aa5565b915060ff821415612bf557612bf4612c31565b5b600182019050919050565b6000612c0b82612a9b565b9150612c1683612a9b565b925082612c2657612c25612c60565b5b828206905092915050565b7f4e487b7100000000000000000000000000000000000000000000000000000000600052601160045260246000fd5b7f4e487b7100000000000000000000000000000000000000000000000000000000600052601260045260246000fd5b7f4e487b7100000000000000000000000000000000000000000000000000000000600052602160045260246000fd5b7f4e487b7100000000000000000000000000000000000000000000000000000000600052602260045260246000fd5b7f4e487b7100000000000000000000000000000000000000000000000000000000600052604160045260246000fd5b6000601f19601f8301169050919050565b7f4f776e61626c653a206e6577206f776e657220697320746865207a65726f206160008201527f6464726573730000000000000000000000000000000000000000000000000000602082015250565b7f526174696e672063616e206e6f74206265203000000000000000000000000000600082015250565b7f4f776e61626c653a2063616c6c6572206973206e6f7420746865206f776e6572600082015250565b7f4461707020646f6573206e6f7420657869737400000000000000000000000000600082015250565b7f416c726561647920726174656400000000000000000000000000000000000000600082015250565b7f496e76616c696420726174696e67000000000000000000000000000000000000600082015250565b60078110612e5a57612e59612c8f565b5b50565b612e6681612a48565b8114612e7157600080fd5b50565b612e7d81612a6d565b8114612e8857600080fd5b50565b612e9481612a9b565b8114612e9f57600080fd5b50565b612eab81612aa5565b8114612eb657600080fd5b5056fea264697066735822122003255e05611959b47851eedb53dcc471c6433f1b41a57b6d027d08abe58a1f4464736f6c63430008040033",
  "linkReferences": {},
  "deployedLinkReferences": {}
}