{
  "_format": "hh-sol-artifact-1",
  "contractName": "CheddaMarketExplorer",
  "sourceName": "contracts/market/CheddaMarketExplorer.sol",
  "abi": [
    {
      "inputs": [
        {
          "internalType": "uint256",
          "name": "",
          "type": "uint256"
        }
      ],
      "name": "allItems",
      "outputs": [
        {
          "internalType": "address",
          "name": "nftContract",
          "type": "address"
        },
        {
          "internalType": "uint256",
          "name": "tokenID",
          "type": "uint256"
        },
        {
          "internalType": "string",
          "name": "tokenURI",
          "type": "string"
        },
        {
          "internalType": "uint256",
          "name": "price",
          "type": "uint256"
        },
        {
          "internalType": "uint256",
          "name": "listingTime",
          "type": "uint256"
        }
      ],
      "stateMutability": "view",
      "type": "function"
    },
    {
      "inputs": [
        {
          "internalType": "address",
          "name": "",
          "type": "address"
        },
        {
          "internalType": "uint256",
          "name": "",
          "type": "uint256"
        }
      ],
      "name": "collectionItems",
      "outputs": [
        {
          "internalType": "address",
          "name": "nftContract",
          "type": "address"
        },
        {
          "internalType": "uint256",
          "name": "tokenID",
          "type": "uint256"
        },
        {
          "internalType": "string",
          "name": "tokenURI",
          "type": "string"
        },
        {
          "internalType": "uint256",
          "name": "price",
          "type": "uint256"
        },
        {
          "internalType": "uint256",
          "name": "listingTime",
          "type": "uint256"
        }
      ],
      "stateMutability": "view",
      "type": "function"
    },
    {
      "inputs": [
        {
          "internalType": "uint256",
          "name": "",
          "type": "uint256"
        }
      ],
      "name": "collectionList",
      "outputs": [
        {
          "internalType": "address",
          "name": "",
          "type": "address"
        }
      ],
      "stateMutability": "view",
      "type": "function"
    },
    {
      "inputs": [
        {
          "internalType": "address",
          "name": "",
          "type": "address"
        }
      ],
      "name": "collections",
      "outputs": [
        {
          "internalType": "address",
          "name": "nftContract",
          "type": "address"
        },
        {
          "internalType": "string",
          "name": "metadataURI",
          "type": "string"
        },
        {
          "internalType": "bool",
          "name": "exists",
          "type": "bool"
        }
      ],
      "stateMutability": "view",
      "type": "function"
    },
    {
      "inputs": [
        {
          "internalType": "uint256",
          "name": "",
          "type": "uint256"
        }
      ],
      "name": "dailyVolume",
      "outputs": [
        {
          "internalType": "uint256",
          "name": "",
          "type": "uint256"
        }
      ],
      "stateMutability": "view",
      "type": "function"
    },
    {
      "inputs": [
        {
          "internalType": "address",
          "name": "",
          "type": "address"
        }
      ],
      "name": "dislikes",
      "outputs": [
        {
          "internalType": "uint256",
          "name": "",
          "type": "uint256"
        }
      ],
      "stateMutability": "view",
      "type": "function"
    },
    {
      "inputs": [],
      "name": "getAllItems",
      "outputs": [
        {
          "components": [
            {
              "internalType": "address",
              "name": "nftContract",
              "type": "address"
            },
            {
              "internalType": "uint256",
              "name": "tokenID",
              "type": "uint256"
            },
            {
              "internalType": "string",
              "name": "tokenURI",
              "type": "string"
            },
            {
              "internalType": "uint256",
              "name": "price",
              "type": "uint256"
            },
            {
              "internalType": "uint256",
              "name": "listingTime",
              "type": "uint256"
            }
          ],
          "internalType": "struct CheddaMarketExplorer.MarketItem[]",
          "name": "",
          "type": "tuple[]"
        }
      ],
      "stateMutability": "view",
      "type": "function"
    },
    {
      "inputs": [
        {
          "internalType": "address",
          "name": "nftContract",
          "type": "address"
        }
      ],
      "name": "getCollectionDetails",
      "outputs": [
        {
          "components": [
            {
              "internalType": "address",
              "name": "nftContract",
              "type": "address"
            },
            {
              "internalType": "string",
              "name": "metadataURI",
              "type": "string"
            },
            {
              "internalType": "bool",
              "name": "exists",
              "type": "bool"
            }
          ],
          "internalType": "struct CheddaMarketExplorer.Collection",
          "name": "",
          "type": "tuple"
        }
      ],
      "stateMutability": "view",
      "type": "function"
    },
    {
      "inputs": [],
      "name": "getCollections",
      "outputs": [
        {
          "components": [
            {
              "internalType": "address",
              "name": "nftContract",
              "type": "address"
            },
            {
              "internalType": "string",
              "name": "metadataURI",
              "type": "string"
            },
            {
              "internalType": "bool",
              "name": "exists",
              "type": "bool"
            }
          ],
          "internalType": "struct CheddaMarketExplorer.Collection[]",
          "name": "",
          "type": "tuple[]"
        }
      ],
      "stateMutability": "view",
      "type": "function"
    },
    {
      "inputs": [
        {
          "internalType": "address",
          "name": "user",
          "type": "address"
        }
      ],
      "name": "getItemsOwned",
      "outputs": [
        {
          "components": [
            {
              "internalType": "address",
              "name": "nftContract",
              "type": "address"
            },
            {
              "internalType": "uint256",
              "name": "tokenID",
              "type": "uint256"
            },
            {
              "internalType": "string",
              "name": "tokenURI",
              "type": "string"
            }
          ],
          "internalType": "struct CheddaMarketExplorer.NFTDetails[]",
          "name": "",
          "type": "tuple[]"
        }
      ],
      "stateMutability": "view",
      "type": "function"
    },
    {
      "inputs": [
        {
          "internalType": "address",
          "name": "nftContract",
          "type": "address"
        },
        {
          "internalType": "uint256",
          "name": "tokenID",
          "type": "uint256"
        }
      ],
      "name": "getMarketItem",
      "outputs": [
        {
          "components": [
            {
              "internalType": "address",
              "name": "nftContract",
              "type": "address"
            },
            {
              "internalType": "uint256",
              "name": "tokenID",
              "type": "uint256"
            },
            {
              "internalType": "string",
              "name": "tokenURI",
              "type": "string"
            },
            {
              "internalType": "uint256",
              "name": "price",
              "type": "uint256"
            },
            {
              "internalType": "uint256",
              "name": "listingTime",
              "type": "uint256"
            }
          ],
          "internalType": "struct CheddaMarketExplorer.MarketItem",
          "name": "",
          "type": "tuple"
        }
      ],
      "stateMutability": "view",
      "type": "function"
    },
    {
      "inputs": [
        {
          "internalType": "address",
          "name": "nftContract",
          "type": "address"
        },
        {
          "internalType": "uint256",
          "name": "tokenID",
          "type": "uint256"
        }
      ],
      "name": "getNFTDetails",
      "outputs": [
        {
          "components": [
            {
              "internalType": "address",
              "name": "nftContract",
              "type": "address"
            },
            {
              "internalType": "uint256",
              "name": "tokenID",
              "type": "uint256"
            },
            {
              "internalType": "string",
              "name": "tokenURI",
              "type": "string"
            }
          ],
          "internalType": "struct CheddaMarketExplorer.NFTDetails",
          "name": "",
          "type": "tuple"
        }
      ],
      "stateMutability": "view",
      "type": "function"
    },
    {
      "inputs": [
        {
          "internalType": "address",
          "name": "",
          "type": "address"
        },
        {
          "internalType": "uint256",
          "name": "",
          "type": "uint256"
        }
      ],
      "name": "itemsCreated",
      "outputs": [
        {
          "internalType": "address",
          "name": "nftContract",
          "type": "address"
        },
        {
          "internalType": "uint256",
          "name": "tokenID",
          "type": "uint256"
        }
      ],
      "stateMutability": "view",
      "type": "function"
    },
    {
      "inputs": [
        {
          "internalType": "address",
          "name": "nftContract",
          "type": "address"
        }
      ],
      "name": "itemsInCollection",
      "outputs": [
        {
          "components": [
            {
              "internalType": "address",
              "name": "nftContract",
              "type": "address"
            },
            {
              "internalType": "uint256",
              "name": "tokenID",
              "type": "uint256"
            },
            {
              "internalType": "string",
              "name": "tokenURI",
              "type": "string"
            },
            {
              "internalType": "uint256",
              "name": "price",
              "type": "uint256"
            },
            {
              "internalType": "uint256",
              "name": "listingTime",
              "type": "uint256"
            }
          ],
          "internalType": "struct CheddaMarketExplorer.MarketItem[]",
          "name": "",
          "type": "tuple[]"
        }
      ],
      "stateMutability": "view",
      "type": "function"
    },
    {
      "inputs": [
        {
          "internalType": "address",
          "name": "",
          "type": "address"
        },
        {
          "internalType": "uint256",
          "name": "",
          "type": "uint256"
        }
      ],
      "name": "itemsOwned",
      "outputs": [
        {
          "internalType": "address",
          "name": "nftContract",
          "type": "address"
        },
        {
          "internalType": "uint256",
          "name": "tokenID",
          "type": "uint256"
        }
      ],
      "stateMutability": "view",
      "type": "function"
    },
    {
      "inputs": [
        {
          "internalType": "address",
          "name": "",
          "type": "address"
        },
        {
          "internalType": "uint256",
          "name": "",
          "type": "uint256"
        },
        {
          "internalType": "address",
          "name": "",
          "type": "address"
        }
      ],
      "name": "itemsOwnedMap",
      "outputs": [
        {
          "internalType": "uint256",
          "name": "",
          "type": "uint256"
        }
      ],
      "stateMutability": "view",
      "type": "function"
    },
    {
      "inputs": [
        {
          "internalType": "address",
          "name": "",
          "type": "address"
        }
      ],
      "name": "likes",
      "outputs": [
        {
          "internalType": "uint256",
          "name": "",
          "type": "uint256"
        }
      ],
      "stateMutability": "view",
      "type": "function"
    },
    {
      "inputs": [
        {
          "internalType": "uint256",
          "name": "time",
          "type": "uint256"
        }
      ],
      "name": "newlyListed",
      "outputs": [
        {
          "components": [
            {
              "internalType": "address",
              "name": "nftContract",
              "type": "address"
            },
            {
              "internalType": "uint256",
              "name": "tokenID",
              "type": "uint256"
            },
            {
              "internalType": "string",
              "name": "tokenURI",
              "type": "string"
            },
            {
              "internalType": "uint256",
              "name": "price",
              "type": "uint256"
            },
            {
              "internalType": "uint256",
              "name": "listingTime",
              "type": "uint256"
            }
          ],
          "internalType": "struct CheddaMarketExplorer.MarketItem[]",
          "name": "",
          "type": "tuple[]"
        }
      ],
      "stateMutability": "view",
      "type": "function"
    },
    {
      "inputs": [],
      "name": "popularItems",
      "outputs": [],
      "stateMutability": "view",
      "type": "function"
    },
    {
      "inputs": [
        {
          "internalType": "address",
          "name": "nftContract",
          "type": "address"
        },
        {
          "internalType": "uint256",
          "name": "tokenID",
          "type": "uint256"
        },
        {
          "internalType": "uint256",
          "name": "price",
          "type": "uint256"
        },
        {
          "internalType": "address",
          "name": "seller",
          "type": "address"
        }
      ],
      "name": "reportListing",
      "outputs": [],
      "stateMutability": "nonpayable",
      "type": "function"
    },
    {
      "inputs": [
        {
          "internalType": "address",
          "name": "nftContract",
          "type": "address"
        },
        {
          "internalType": "uint256",
          "name": "tokenID",
          "type": "uint256"
        },
        {
          "internalType": "address",
          "name": "seller",
          "type": "address"
        },
        {
          "internalType": "address",
          "name": "buyer",
          "type": "address"
        }
      ],
      "name": "reportMarketSale",
      "outputs": [],
      "stateMutability": "nonpayable",
      "type": "function"
    },
    {
      "inputs": [
        {
          "internalType": "uint256",
          "name": "",
          "type": "uint256"
        },
        {
          "internalType": "uint256",
          "name": "",
          "type": "uint256"
        }
      ],
      "name": "trades",
      "outputs": [
        {
          "internalType": "address",
          "name": "nftContract",
          "type": "address"
        },
        {
          "internalType": "uint256",
          "name": "tokenId",
          "type": "uint256"
        },
        {
          "internalType": "uint256",
          "name": "price",
          "type": "uint256"
        }
      ],
      "stateMutability": "view",
      "type": "function"
    }
  ],
  "bytecode": "0x608060405234801561001057600080fd5b506136fe806100206000396000f3fe608060405234801561001057600080fd5b50600436106101425760003560e01c806398e9bc9c116100b8578063b95219501161007c578063b952195014610402578063e04b303d14610432578063ecb676461461044e578063ed40a1ae1461046a578063f802e3f11461049b578063ff68fa6e146104cf57610142565b806398e9bc9c146103375780639c74109a14610367578063a398d2e714610371578063b3e36267146103a1578063b48835c5146103d157610142565b8063497af3501161010a578063497af350146102295780634ba1d6aa14610259578063737d368514610277578063752d121c146102a7578063903cb26b146102d7578063943ca3b91461030757610142565b806311cda15f146101475780632a7beacc1461017757806334deb86d146101a957806343add2e6146101d957806346e635861461020b575b600080fd5b610161600480360381019061015c9190612958565b610503565b60405161016e91906131be565b60405180910390f35b610191600480360381019061018c9190612b65565b6106a7565b6040516101a093929190613165565b60405180910390f35b6101c360048036038101906101be9190612958565b61070e565b6040516101d0919061325d565b60405180910390f35b6101f360048036038101906101ee9190612958565b61086a565b604051610202939291906130a4565b60405180910390f35b610213610949565b604051610220919061319c565b60405180910390f35b610243600480360381019061023e9190612958565b610bfa565b60405161025091906131e0565b60405180910390f35b610261610ecc565b60405161026e91906131be565b60405180910390f35b610291600480360381019061028c9190612958565b611031565b60405161029e91906132c3565b60405180910390f35b6102c160048036038101906102bc9190612b3c565b611049565b6040516102ce9190613089565b60405180910390f35b6102f160048036038101906102ec9190612981565b611088565b6040516102fe919061327f565b60405180910390f35b610321600480360381019061031c9190612b3c565b6113e5565b60405161032e91906132c3565b60405180910390f35b610351600480360381019061034c9190612981565b6113fd565b60405161035e91906132a1565b60405180910390f35b61036f611525565b005b61038b600480360381019061038691906129bd565b611527565b60405161039891906132c3565b60405180910390f35b6103bb60048036038101906103b69190612958565b611565565b6040516103c891906132c3565b60405180910390f35b6103eb60048036038101906103e69190612981565b61157d565b6040516103f99291906130e2565b60405180910390f35b61041c60048036038101906104179190612b3c565b6115de565b60405161042991906131be565b60405180910390f35b61044c60048036038101906104479190612a0c565b6115e5565b005b61046860048036038101906104639190612a6f565b611dd2565b005b610484600480360381019061047f9190612981565b6123a9565b6040516104929291906130e2565b60405180910390f35b6104b560048036038101906104b09190612981565b61240a565b6040516104c695949392919061310b565b60405180910390f35b6104e960048036038101906104e49190612b3c565b612505565b6040516104fa95949392919061310b565b60405180910390f35b6060600a60008373ffffffffffffffffffffffffffffffffffffffff1673ffffffffffffffffffffffffffffffffffffffff168152602001908152602001600020805480602002602001604051908101604052809291908181526020016000905b8282101561069c57838290600052602060002090600502016040518060a00160405290816000820160009054906101000a900473ffffffffffffffffffffffffffffffffffffffff1673ffffffffffffffffffffffffffffffffffffffff1673ffffffffffffffffffffffffffffffffffffffff168152602001600182015481526020016002820180546105f7906134e7565b80601f0160208091040260200160405190810160405280929190818152602001828054610623906134e7565b80156106705780601f1061064557610100808354040283529160200191610670565b820191906000526020600020905b81548152906001019060200180831161065357829003601f168201915b505050505081526020016003820154815260200160048201548152505081526020019060010190610564565b505050509050919050565b600160205281600052604060002081815481106106c357600080fd5b9060005260206000209060030201600091509150508060000160009054906101000a900473ffffffffffffffffffffffffffffffffffffffff16908060010154908060020154905083565b61071661268c565b600860008373ffffffffffffffffffffffffffffffffffffffff1673ffffffffffffffffffffffffffffffffffffffff1681526020019081526020016000206040518060600160405290816000820160009054906101000a900473ffffffffffffffffffffffffffffffffffffffff1673ffffffffffffffffffffffffffffffffffffffff1673ffffffffffffffffffffffffffffffffffffffff1681526020016001820180546107c6906134e7565b80601f01602080910402602001604051908101604052809291908181526020018280546107f2906134e7565b801561083f5780601f106108145761010080835404028352916020019161083f565b820191906000526020600020905b81548152906001019060200180831161082257829003601f168201915b505050505081526020016002820160009054906101000a900460ff1615151515815250509050919050565b60086020528060005260406000206000915090508060000160009054906101000a900473ffffffffffffffffffffffffffffffffffffffff16908060010180546108b3906134e7565b80601f01602080910402602001604051908101604052809291908181526020018280546108df906134e7565b801561092c5780601f106109015761010080835404028352916020019161092c565b820191906000526020600020905b81548152906001019060200180831161090f57829003601f168201915b5050505050908060020160009054906101000a900460ff16905083565b6060600060098054905067ffffffffffffffff811115610992577f4e487b7100000000000000000000000000000000000000000000000000000000600052604160045260246000fd5b6040519080825280602002602001820160405280156109cb57816020015b6109b861268c565b8152602001906001900390816109b05790505b50905060005b600980549050811015610bf257600060098281548110610a1a577f4e487b7100000000000000000000000000000000000000000000000000000000600052603260045260246000fd5b9060005260206000200160009054906101000a900473ffffffffffffffffffffffffffffffffffffffff1690506000600860008373ffffffffffffffffffffffffffffffffffffffff1673ffffffffffffffffffffffffffffffffffffffff1681526020019081526020016000206040518060600160405290816000820160009054906101000a900473ffffffffffffffffffffffffffffffffffffffff1673ffffffffffffffffffffffffffffffffffffffff1673ffffffffffffffffffffffffffffffffffffffff168152602001600182018054610af9906134e7565b80601f0160208091040260200160405190810160405280929190818152602001828054610b25906134e7565b8015610b725780601f10610b4757610100808354040283529160200191610b72565b820191906000526020600020905b815481529060010190602001808311610b5557829003601f168201915b505050505081526020016002820160009054906101000a900460ff161515151581525050905080848481518110610bd2577f4e487b7100000000000000000000000000000000000000000000000000000000600052603260045260246000fd5b602002602001018190525050508080610bea9061354a565b9150506109d1565b508091505090565b60606000600560008473ffffffffffffffffffffffffffffffffffffffff1673ffffffffffffffffffffffffffffffffffffffff16815260200190815260200160002080549050905060008167ffffffffffffffff811115610c85577f4e487b7100000000000000000000000000000000000000000000000000000000600052604160045260246000fd5b604051908082528060200260200182016040528015610cbe57816020015b610cab6126c5565b815260200190600190039081610ca35790505b50905060005b82811015610ec1576000600560008773ffffffffffffffffffffffffffffffffffffffff1673ffffffffffffffffffffffffffffffffffffffff1681526020019081526020016000208281548110610d45577f4e487b7100000000000000000000000000000000000000000000000000000000600052603260045260246000fd5b9060005260206000209060020201905060008160000160009054906101000a900473ffffffffffffffffffffffffffffffffffffffff1673ffffffffffffffffffffffffffffffffffffffff1663c87b56dd83600101546040518263ffffffff1660e01b8152600401610db891906132c3565b60006040518083038186803b158015610dd057600080fd5b505afa158015610de4573d6000803e3d6000fd5b505050506040513d6000823e3d601f19601f82011682018060405250810190610e0d9190612afb565b905060405180606001604052808360000160009054906101000a900473ffffffffffffffffffffffffffffffffffffffff1673ffffffffffffffffffffffffffffffffffffffff1681526020018360010154815260200182815250848481518110610ea1577f4e487b7100000000000000000000000000000000000000000000000000000000600052603260045260246000fd5b602002602001018190525050508080610eb99061354a565b915050610cc4565b508092505050919050565b60606007805480602002602001604051908101604052809291908181526020016000905b8282101561102857838290600052602060002090600502016040518060a00160405290816000820160009054906101000a900473ffffffffffffffffffffffffffffffffffffffff1673ffffffffffffffffffffffffffffffffffffffff1673ffffffffffffffffffffffffffffffffffffffff16815260200160018201548152602001600282018054610f83906134e7565b80601f0160208091040260200160405190810160405280929190818152602001828054610faf906134e7565b8015610ffc5780601f10610fd157610100808354040283529160200191610ffc565b820191906000526020600020905b815481529060010190602001808311610fdf57829003601f168201915b505050505081526020016003820154815260200160048201548152505081526020019060010190610ef0565b50505050905090565b60026020528060005260406000206000915090505481565b6009818154811061105957600080fd5b906000526020600020016000915054906101000a900473ffffffffffffffffffffffffffffffffffffffff1681565b6110906126fc565b6000600a60008573ffffffffffffffffffffffffffffffffffffffff1673ffffffffffffffffffffffffffffffffffffffff1681526020019081526020016000208054905011611115576040517f08c379a000000000000000000000000000000000000000000000000000000000815260040161110c9061321d565b60405180910390fd5b60005b600a60008573ffffffffffffffffffffffffffffffffffffffff1673ffffffffffffffffffffffffffffffffffffffff168152602001908152602001600020805490508110156113a35782600a60008673ffffffffffffffffffffffffffffffffffffffff1673ffffffffffffffffffffffffffffffffffffffff16815260200190815260200160002082815481106111da577f4e487b7100000000000000000000000000000000000000000000000000000000600052603260045260246000fd5b906000526020600020906005020160010154141561139057600a60008573ffffffffffffffffffffffffffffffffffffffff1673ffffffffffffffffffffffffffffffffffffffff1681526020019081526020016000208181548110611269577f4e487b7100000000000000000000000000000000000000000000000000000000600052603260045260246000fd5b90600052602060002090600502016040518060a00160405290816000820160009054906101000a900473ffffffffffffffffffffffffffffffffffffffff1673ffffffffffffffffffffffffffffffffffffffff1673ffffffffffffffffffffffffffffffffffffffff168152602001600182015481526020016002820180546112f2906134e7565b80601f016020809104026020016040519081016040528092919081815260200182805461131e906134e7565b801561136b5780601f106113405761010080835404028352916020019161136b565b820191906000526020600020905b81548152906001019060200180831161134e57829003601f168201915b50505050508152602001600382015481526020016004820154815250509150506113df565b808061139b9061354a565b915050611118565b506040517f08c379a00000000000000000000000000000000000000000000000000000000081526004016113d69061321d565b60405180910390fd5b92915050565b60006020528060005260406000206000915090505481565b6114056126c5565b61140e836125f3565b156114e457600083905060008173ffffffffffffffffffffffffffffffffffffffff1663c87b56dd856040518263ffffffff1660e01b815260040161145391906132c3565b60006040518083038186803b15801561146b57600080fd5b505afa15801561147f573d6000803e3d6000fd5b505050506040513d6000823e3d601f19601f820116820180604052508101906114a89190612afb565b905060405180606001604052808673ffffffffffffffffffffffffffffffffffffffff168152602001858152602001828152509250505061151f565b6040517f08c379a00000000000000000000000000000000000000000000000000000000081526004016115169061323d565b60405180910390fd5b92915050565b565b6004602052826000526040600020828154811061154357600080fd5b9060005260206000200160205280600052604060002060009250925050505481565b60036020528060005260406000206000915090505481565b6006602052816000526040600020818154811061159957600080fd5b9060005260206000209060020201600091509150508060000160009054906101000a900473ffffffffffffffffffffffffffffffffffffffff16908060010154905082565b6060919050565b6000805b600780549050811015611702578573ffffffffffffffffffffffffffffffffffffffff1660078281548110611647577f4e487b7100000000000000000000000000000000000000000000000000000000600052603260045260246000fd5b906000526020600020906005020160000160009054906101000a900473ffffffffffffffffffffffffffffffffffffffff1673ffffffffffffffffffffffffffffffffffffffff161480156116e6575084600782815481106116d2577f4e487b7100000000000000000000000000000000000000000000000000000000600052603260045260246000fd5b906000526020600020906005020160010154145b156116ef578091505b80806116fa9061354a565b9150506115e9565b50600081146118f5576007600160078054905061171f919061340c565b81548110611756577f4e487b7100000000000000000000000000000000000000000000000000000000600052603260045260246000fd5b90600052602060002090600502016007828154811061179e577f4e487b7100000000000000000000000000000000000000000000000000000000600052603260045260246000fd5b90600052602060002090600502016000820160009054906101000a900473ffffffffffffffffffffffffffffffffffffffff168160000160006101000a81548173ffffffffffffffffffffffffffffffffffffffff021916908373ffffffffffffffffffffffffffffffffffffffff160217905550600182015481600101556002820181600201908054611831906134e7565b61183c929190612741565b506003820154816003015560048201548160040155905050600780548061188c577f4e487b7100000000000000000000000000000000000000000000000000000000600052603160045260246000fd5b6001900381819060005260206000209060050201600080820160006101000a81549073ffffffffffffffffffffffffffffffffffffffff021916905560018201600090556002820160006118e091906127ce565b60038201600090556004820160009055505090555b6000600560008573ffffffffffffffffffffffffffffffffffffffff1673ffffffffffffffffffffffffffffffffffffffff16815260200190815260200160002080549050905060005b81811015611ce3576000600560008773ffffffffffffffffffffffffffffffffffffffff1673ffffffffffffffffffffffffffffffffffffffff16815260200190815260200160002082815481106119c0577f4e487b7100000000000000000000000000000000000000000000000000000000600052603260045260246000fd5b90600052602060002090600202016040518060400160405290816000820160009054906101000a900473ffffffffffffffffffffffffffffffffffffffff1673ffffffffffffffffffffffffffffffffffffffff1673ffffffffffffffffffffffffffffffffffffffff16815260200160018201548152505090508773ffffffffffffffffffffffffffffffffffffffff16816000015173ffffffffffffffffffffffffffffffffffffffff16148015611a7d5750868160200151145b15611ccf57600560008773ffffffffffffffffffffffffffffffffffffffff1673ffffffffffffffffffffffffffffffffffffffff168152602001908152602001600020600184611ace919061340c565b81548110611b05577f4e487b7100000000000000000000000000000000000000000000000000000000600052603260045260246000fd5b9060005260206000209060020201600560008873ffffffffffffffffffffffffffffffffffffffff1673ffffffffffffffffffffffffffffffffffffffff1681526020019081526020016000208381548110611b8a577f4e487b7100000000000000000000000000000000000000000000000000000000600052603260045260246000fd5b90600052602060002090600202016000820160009054906101000a900473ffffffffffffffffffffffffffffffffffffffff168160000160006101000a81548173ffffffffffffffffffffffffffffffffffffffff021916908373ffffffffffffffffffffffffffffffffffffffff16021790555060018201548160010155905050600560008773ffffffffffffffffffffffffffffffffffffffff1673ffffffffffffffffffffffffffffffffffffffff168152602001908152602001600020805480611c81577f4e487b7100000000000000000000000000000000000000000000000000000000600052603160045260246000fd5b6001900381819060005260206000209060020201600080820160006101000a81549073ffffffffffffffffffffffffffffffffffffffff021916905560018201600090555050905550611ce3565b508080611cdb9061354a565b91505061193f565b50600560008473ffffffffffffffffffffffffffffffffffffffff1673ffffffffffffffffffffffffffffffffffffffff16815260200190815260200160002060405180604001604052808873ffffffffffffffffffffffffffffffffffffffff16815260200187815250908060018154018082558091505060019003906000526020600020906002020160009091909190915060008201518160000160006101000a81548173ffffffffffffffffffffffffffffffffffffffff021916908373ffffffffffffffffffffffffffffffffffffffff160217905550602082015181600101555050505050505050565b6000604051806020016040528060008152509050611def856125f3565b15611e8b5760008590508073ffffffffffffffffffffffffffffffffffffffff1663c87b56dd866040518263ffffffff1660e01b8152600401611e3291906132c3565b60006040518083038186803b158015611e4a57600080fd5b505afa158015611e5e573d6000803e3d6000fd5b505050506040513d6000823e3d601f19601f82011682018060405250810190611e879190612afb565b9150505b60006040518060a001604052808773ffffffffffffffffffffffffffffffffffffffff168152602001868152602001838152602001858152602001428152509050600781908060018154018082558091505060019003906000526020600020906005020160009091909190915060008201518160000160006101000a81548173ffffffffffffffffffffffffffffffffffffffff021916908373ffffffffffffffffffffffffffffffffffffffff160217905550602082015181600101556040820151816002019080519060200190611f6592919061280e565b5060608201518160030155608082015181600401555050600860008773ffffffffffffffffffffffffffffffffffffffff1673ffffffffffffffffffffffffffffffffffffffff16815260200190815260200160002060020160009054906101000a900460ff166121ce57600060405180602001604052806000815250905060008790508073ffffffffffffffffffffffffffffffffffffffff166303ee438c6040518163ffffffff1660e01b815260040160006040518083038186803b15801561202f57600080fd5b505afa158015612043573d6000803e3d6000fd5b505050506040513d6000823e3d601f19601f8201168201806040525081019061206c9190612afb565b915060405180606001604052808973ffffffffffffffffffffffffffffffffffffffff16815260200183815260200160011515815250600860008a73ffffffffffffffffffffffffffffffffffffffff1673ffffffffffffffffffffffffffffffffffffffff16815260200190815260200160002060008201518160000160006101000a81548173ffffffffffffffffffffffffffffffffffffffff021916908373ffffffffffffffffffffffffffffffffffffffff160217905550602082015181600101908051906020019061214492919061280e565b5060408201518160020160006101000a81548160ff0219169083151502179055509050506009889080600181540180825580915050600190039060005260206000200160009091909190916101000a81548173ffffffffffffffffffffffffffffffffffffffff021916908373ffffffffffffffffffffffffffffffffffffffff16021790555050505b600a60008773ffffffffffffffffffffffffffffffffffffffff1673ffffffffffffffffffffffffffffffffffffffff16815260200190815260200160002081908060018154018082558091505060019003906000526020600020906005020160009091909190915060008201518160000160006101000a81548173ffffffffffffffffffffffffffffffffffffffff021916908373ffffffffffffffffffffffffffffffffffffffff1602179055506020820151816001015560408201518160020190805190602001906122a492919061280e565b5060608201518160030155608082015181600401555050600560008473ffffffffffffffffffffffffffffffffffffffff1673ffffffffffffffffffffffffffffffffffffffff16815260200190815260200160002060405180604001604052808873ffffffffffffffffffffffffffffffffffffffff16815260200187815250908060018154018082558091505060019003906000526020600020906002020160009091909190915060008201518160000160006101000a81548173ffffffffffffffffffffffffffffffffffffffff021916908373ffffffffffffffffffffffffffffffffffffffff160217905550602082015181600101555050505050505050565b600560205281600052604060002081815481106123c557600080fd5b9060005260206000209060020201600091509150508060000160009054906101000a900473ffffffffffffffffffffffffffffffffffffffff16908060010154905082565b600a602052816000526040600020818154811061242657600080fd5b9060005260206000209060050201600091509150508060000160009054906101000a900473ffffffffffffffffffffffffffffffffffffffff1690806001015490806002018054612476906134e7565b80601f01602080910402602001604051908101604052809291908181526020018280546124a2906134e7565b80156124ef5780601f106124c4576101008083540402835291602001916124ef565b820191906000526020600020905b8154815290600101906020018083116124d257829003601f168201915b5050505050908060030154908060040154905085565b6007818154811061251557600080fd5b90600052602060002090600502016000915090508060000160009054906101000a900473ffffffffffffffffffffffffffffffffffffffff1690806001015490806002018054612564906134e7565b80601f0160208091040260200160405190810160405280929190818152602001828054612590906134e7565b80156125dd5780601f106125b2576101008083540402835291602001916125dd565b820191906000526020600020905b8154815290600101906020018083116125c057829003601f168201915b5050505050908060030154908060040154905085565b60008173ffffffffffffffffffffffffffffffffffffffff166301ffc9a7635b5e139f60e01b6040518263ffffffff1660e01b81526004016126359190613202565b60206040518083038186803b15801561264d57600080fd5b505afa158015612661573d6000803e3d6000fd5b505050506040513d601f19601f820116820180604052508101906126859190612ad2565b9050919050565b6040518060600160405280600073ffffffffffffffffffffffffffffffffffffffff168152602001606081526020016000151581525090565b6040518060600160405280600073ffffffffffffffffffffffffffffffffffffffff16815260200160008152602001606081525090565b6040518060a00160405280600073ffffffffffffffffffffffffffffffffffffffff168152602001600081526020016060815260200160008152602001600081525090565b82805461274d906134e7565b90600052602060002090601f01602090048101928261276f57600085556127bd565b82601f1061278057805485556127bd565b828001600101855582156127bd57600052602060002091601f016020900482015b828111156127bc5782548255916001019190600101906127a1565b5b5090506127ca9190612894565b5090565b5080546127da906134e7565b6000825580601f106127ec575061280b565b601f01602090049060005260206000209081019061280a9190612894565b5b50565b82805461281a906134e7565b90600052602060002090601f01602090048101928261283c5760008555612883565b82601f1061285557805160ff1916838001178555612883565b82800160010185558215612883579182015b82811115612882578251825591602001919060010190612867565b5b5090506128909190612894565b5090565b5b808211156128ad576000816000905550600101612895565b5090565b60006128c46128bf84613303565b6132de565b9050828152602081018484840111156128dc57600080fd5b6128e78482856134b4565b509392505050565b6000813590506128fe81613683565b92915050565b6000815190506129138161369a565b92915050565b600082601f83011261292a57600080fd5b815161293a8482602086016128b1565b91505092915050565b600081359050612952816136b1565b92915050565b60006020828403121561296a57600080fd5b6000612978848285016128ef565b91505092915050565b6000806040838503121561299457600080fd5b60006129a2858286016128ef565b92505060206129b385828601612943565b9150509250929050565b6000806000606084860312156129d257600080fd5b60006129e0868287016128ef565b93505060206129f186828701612943565b9250506040612a02868287016128ef565b9150509250925092565b60008060008060808587031215612a2257600080fd5b6000612a30878288016128ef565b9450506020612a4187828801612943565b9350506040612a52878288016128ef565b9250506060612a63878288016128ef565b91505092959194509250565b60008060008060808587031215612a8557600080fd5b6000612a93878288016128ef565b9450506020612aa487828801612943565b9350506040612ab587828801612943565b9250506060612ac6878288016128ef565b91505092959194509250565b600060208284031215612ae457600080fd5b6000612af284828501612904565b91505092915050565b600060208284031215612b0d57600080fd5b600082015167ffffffffffffffff811115612b2757600080fd5b612b3384828501612919565b91505092915050565b600060208284031215612b4e57600080fd5b6000612b5c84828501612943565b91505092915050565b60008060408385031215612b7857600080fd5b6000612b8685828601612943565b9250506020612b9785828601612943565b9150509250929050565b6000612bad8383612e3f565b905092915050565b6000612bc18383612edf565b905092915050565b6000612bd58383612fcb565b905092915050565b612be681613440565b82525050565b612bf581613440565b82525050565b6000612c0682613364565b612c1081856133b7565b935083602082028501612c2285613334565b8060005b85811015612c5e5784840389528151612c3f8582612ba1565b9450612c4a83613390565b925060208a01995050600181019050612c26565b50829750879550505050505092915050565b6000612c7b8261336f565b612c8581856133c8565b935083602082028501612c9785613344565b8060005b85811015612cd35784840389528151612cb48582612bb5565b9450612cbf8361339d565b925060208a01995050600181019050612c9b565b50829750879550505050505092915050565b6000612cf08261337a565b612cfa81856133d9565b935083602082028501612d0c85613354565b8060005b85811015612d485784840389528151612d298582612bc9565b9450612d34836133aa565b925060208a01995050600181019050612d10565b50829750879550505050505092915050565b612d6381613452565b82525050565b612d7281613452565b82525050565b612d818161345e565b82525050565b6000612d9282613385565b612d9c81856133ea565b9350612dac8185602086016134b4565b612db581613620565b840191505092915050565b6000612dcb82613385565b612dd581856133fb565b9350612de58185602086016134b4565b612dee81613620565b840191505092915050565b6000612e06600e836133fb565b9150612e1182613631565b602082019050919050565b6000612e296010836133fb565b9150612e348261365a565b602082019050919050565b6000606083016000830151612e576000860182612bdd565b5060208301518482036020860152612e6f8282612d87565b9150506040830151612e846040860182612d5a565b508091505092915050565b6000606083016000830151612ea76000860182612bdd565b5060208301518482036020860152612ebf8282612d87565b9150506040830151612ed46040860182612d5a565b508091505092915050565b600060a083016000830151612ef76000860182612bdd565b506020830151612f0a602086018261306b565b5060408301518482036040860152612f228282612d87565b9150506060830151612f37606086018261306b565b506080830151612f4a608086018261306b565b508091505092915050565b600060a083016000830151612f6d6000860182612bdd565b506020830151612f80602086018261306b565b5060408301518482036040860152612f988282612d87565b9150506060830151612fad606086018261306b565b506080830151612fc0608086018261306b565b508091505092915050565b6000606083016000830151612fe36000860182612bdd565b506020830151612ff6602086018261306b565b506040830151848203604086015261300e8282612d87565b9150508091505092915050565b60006060830160008301516130336000860182612bdd565b506020830151613046602086018261306b565b506040830151848203604086015261305e8282612d87565b9150508091505092915050565b613074816134aa565b82525050565b613083816134aa565b82525050565b600060208201905061309e6000830184612bec565b92915050565b60006060820190506130b96000830186612bec565b81810360208301526130cb8185612dc0565b90506130da6040830184612d69565b949350505050565b60006040820190506130f76000830185612bec565b613104602083018461307a565b9392505050565b600060a0820190506131206000830188612bec565b61312d602083018761307a565b818103604083015261313f8186612dc0565b905061314e606083018561307a565b61315b608083018461307a565b9695505050505050565b600060608201905061317a6000830186612bec565b613187602083018561307a565b613194604083018461307a565b949350505050565b600060208201905081810360008301526131b68184612bfb565b905092915050565b600060208201905081810360008301526131d88184612c70565b905092915050565b600060208201905081810360008301526131fa8184612ce5565b905092915050565b60006020820190506132176000830184612d78565b92915050565b6000602082019050818103600083015261323681612df9565b9050919050565b6000602082019050818103600083015261325681612e1c565b9050919050565b600060208201905081810360008301526132778184612e8f565b905092915050565b600060208201905081810360008301526132998184612f55565b905092915050565b600060208201905081810360008301526132bb818461301b565b905092915050565b60006020820190506132d8600083018461307a565b92915050565b60006132e86132f9565b90506132f48282613519565b919050565b6000604051905090565b600067ffffffffffffffff82111561331e5761331d6135f1565b5b61332782613620565b9050602081019050919050565b6000819050602082019050919050565b6000819050602082019050919050565b6000819050602082019050919050565b600081519050919050565b600081519050919050565b600081519050919050565b600081519050919050565b6000602082019050919050565b6000602082019050919050565b6000602082019050919050565b600082825260208201905092915050565b600082825260208201905092915050565b600082825260208201905092915050565b600082825260208201905092915050565b600082825260208201905092915050565b6000613417826134aa565b9150613422836134aa565b92508282101561343557613434613593565b5b828203905092915050565b600061344b8261348a565b9050919050565b60008115159050919050565b60007fffffffff0000000000000000000000000000000000000000000000000000000082169050919050565b600073ffffffffffffffffffffffffffffffffffffffff82169050919050565b6000819050919050565b60005b838110156134d25780820151818401526020810190506134b7565b838111156134e1576000848401525b50505050565b600060028204905060018216806134ff57607f821691505b60208210811415613513576135126135c2565b5b50919050565b61352282613620565b810181811067ffffffffffffffff82111715613541576135406135f1565b5b80604052505050565b6000613555826134aa565b91507fffffffffffffffffffffffffffffffffffffffffffffffffffffffffffffffff82141561358857613587613593565b5b600182019050919050565b7f4e487b7100000000000000000000000000000000000000000000000000000000600052601160045260246000fd5b7f4e487b7100000000000000000000000000000000000000000000000000000000600052602260045260246000fd5b7f4e487b7100000000000000000000000000000000000000000000000000000000600052604160045260246000fd5b6000601f19601f8301169050919050565b7f4974656d206e6f7420666f756e64000000000000000000000000000000000000600082015250565b7f496e76616c696420746f6b656e20494400000000000000000000000000000000600082015250565b61368c81613440565b811461369757600080fd5b50565b6136a381613452565b81146136ae57600080fd5b50565b6136ba816134aa565b81146136c557600080fd5b5056fea264697066735822122042b9d8b55c65e1853641d97f3015ad3010836d70013eff4b8521b9b2546772eb64736f6c63430008040033",
  "linkReferences": {},
  "deployedLinkReferences": {}
}