{
  "_format": "hh-sol-artifact-1",
  "contractName": "CheddaLoanManager",
  "sourceName": "contracts/lending/LoanManager.sol",
  "abi": [
    {
      "inputs": [
        {
          "internalType": "address",
          "name": "token",
          "type": "address"
        }
      ],
      "stateMutability": "nonpayable",
      "type": "constructor"
    },
    {
      "anonymous": false,
      "inputs": [
        {
          "indexed": true,
          "internalType": "address",
          "name": "by",
          "type": "address"
        },
        {
          "indexed": true,
          "internalType": "address",
          "name": "foreclosedOn",
          "type": "address"
        }
      ],
      "name": "LoanForeclosed",
      "type": "event"
    },
    {
      "anonymous": false,
      "inputs": [
        {
          "indexed": true,
          "internalType": "address",
          "name": "openedByLender",
          "type": "address"
        },
        {
          "indexed": true,
          "internalType": "address",
          "name": "borrower",
          "type": "address"
        },
        {
          "indexed": true,
          "internalType": "uint256",
          "name": "loanRequestId",
          "type": "uint256"
        },
        {
          "indexed": false,
          "internalType": "uint256",
          "name": "amount",
          "type": "uint256"
        }
      ],
      "name": "LoanOpened",
      "type": "event"
    },
    {
      "anonymous": false,
      "inputs": [
        {
          "indexed": true,
          "internalType": "address",
          "name": "repaidByBorrower",
          "type": "address"
        },
        {
          "indexed": true,
          "internalType": "address",
          "name": "lender",
          "type": "address"
        },
        {
          "indexed": false,
          "internalType": "uint256",
          "name": "repaymentAmount",
          "type": "uint256"
        }
      ],
      "name": "LoanRepaid",
      "type": "event"
    },
    {
      "anonymous": false,
      "inputs": [
        {
          "indexed": true,
          "internalType": "address",
          "name": "by",
          "type": "address"
        },
        {
          "indexed": true,
          "internalType": "address",
          "name": "nftContract",
          "type": "address"
        },
        {
          "indexed": true,
          "internalType": "uint256",
          "name": "tokenId",
          "type": "uint256"
        },
        {
          "indexed": false,
          "internalType": "uint256",
          "name": "amount",
          "type": "uint256"
        }
      ],
      "name": "LoanRequested",
      "type": "event"
    },
    {
      "anonymous": false,
      "inputs": [
        {
          "indexed": true,
          "internalType": "address",
          "name": "previousOwner",
          "type": "address"
        },
        {
          "indexed": true,
          "internalType": "address",
          "name": "newOwner",
          "type": "address"
        }
      ],
      "name": "OwnershipTransferred",
      "type": "event"
    },
    {
      "anonymous": false,
      "inputs": [
        {
          "indexed": true,
          "internalType": "address",
          "name": "by",
          "type": "address"
        },
        {
          "indexed": true,
          "internalType": "uint256",
          "name": "requestId",
          "type": "uint256"
        }
      ],
      "name": "RequestCancelled",
      "type": "event"
    },
    {
      "inputs": [
        {
          "internalType": "uint256",
          "name": "principal",
          "type": "uint256"
        },
        {
          "internalType": "uint256",
          "name": "duration",
          "type": "uint256"
        }
      ],
      "name": "calculateRepaymentAmount",
      "outputs": [
        {
          "internalType": "uint256",
          "name": "",
          "type": "uint256"
        }
      ],
      "stateMutability": "view",
      "type": "function"
    },
    {
      "inputs": [
        {
          "internalType": "uint256",
          "name": "requestId",
          "type": "uint256"
        }
      ],
      "name": "cancelRequest",
      "outputs": [],
      "stateMutability": "nonpayable",
      "type": "function"
    },
    {
      "inputs": [
        {
          "internalType": "uint256",
          "name": "loanID",
          "type": "uint256"
        }
      ],
      "name": "foreclose",
      "outputs": [],
      "stateMutability": "nonpayable",
      "type": "function"
    },
    {
      "inputs": [
        {
          "internalType": "address",
          "name": "user",
          "type": "address"
        },
        {
          "internalType": "enum CheddaLoanManager.RequestState",
          "name": "state",
          "type": "uint8"
        }
      ],
      "name": "getLoanRequests",
      "outputs": [
        {
          "components": [
            {
              "internalType": "uint256",
              "name": "requestID",
              "type": "uint256"
            },
            {
              "internalType": "address",
              "name": "nftContract",
              "type": "address"
            },
            {
              "internalType": "uint256",
              "name": "tokenID",
              "type": "uint256"
            },
            {
              "internalType": "uint256",
              "name": "loanLength",
              "type": "uint256"
            },
            {
              "internalType": "address",
              "name": "borrower",
              "type": "address"
            },
            {
              "internalType": "uint256",
              "name": "amount",
              "type": "uint256"
            },
            {
              "internalType": "uint256",
              "name": "repayment",
              "type": "uint256"
            },
            {
              "internalType": "enum CheddaLoanManager.RequestState",
              "name": "state",
              "type": "uint8"
            }
          ],
          "internalType": "struct CheddaLoanManager.LoanRequest[]",
          "name": "",
          "type": "tuple[]"
        }
      ],
      "stateMutability": "view",
      "type": "function"
    },
    {
      "inputs": [
        {
          "internalType": "address",
          "name": "borrower",
          "type": "address"
        },
        {
          "internalType": "enum CheddaLoanManager.LoanState",
          "name": "state",
          "type": "uint8"
        }
      ],
      "name": "getLoansBorrowed",
      "outputs": [
        {
          "components": [
            {
              "internalType": "uint256",
              "name": "loanID",
              "type": "uint256"
            },
            {
              "internalType": "address",
              "name": "nftContract",
              "type": "address"
            },
            {
              "internalType": "uint256",
              "name": "tokenID",
              "type": "uint256"
            },
            {
              "internalType": "uint256",
              "name": "principal",
              "type": "uint256"
            },
            {
              "internalType": "uint256",
              "name": "repaymentAmount",
              "type": "uint256"
            },
            {
              "internalType": "uint256",
              "name": "openedAt",
              "type": "uint256"
            },
            {
              "internalType": "uint256",
              "name": "expiresAt",
              "type": "uint256"
            },
            {
              "internalType": "uint256",
              "name": "closedAt",
              "type": "uint256"
            },
            {
              "internalType": "uint32",
              "name": "interestRate",
              "type": "uint32"
            },
            {
              "internalType": "enum CheddaLoanManager.LoanState",
              "name": "state",
              "type": "uint8"
            },
            {
              "internalType": "address payable",
              "name": "lender",
              "type": "address"
            },
            {
              "internalType": "address payable",
              "name": "borrower",
              "type": "address"
            }
          ],
          "internalType": "struct CheddaLoanManager.Loan[]",
          "name": "",
          "type": "tuple[]"
        }
      ],
      "stateMutability": "view",
      "type": "function"
    },
    {
      "inputs": [
        {
          "internalType": "address",
          "name": "lender",
          "type": "address"
        },
        {
          "internalType": "enum CheddaLoanManager.LoanState",
          "name": "state",
          "type": "uint8"
        }
      ],
      "name": "getLoansLent",
      "outputs": [
        {
          "components": [
            {
              "internalType": "uint256",
              "name": "loanID",
              "type": "uint256"
            },
            {
              "internalType": "address",
              "name": "nftContract",
              "type": "address"
            },
            {
              "internalType": "uint256",
              "name": "tokenID",
              "type": "uint256"
            },
            {
              "internalType": "uint256",
              "name": "principal",
              "type": "uint256"
            },
            {
              "internalType": "uint256",
              "name": "repaymentAmount",
              "type": "uint256"
            },
            {
              "internalType": "uint256",
              "name": "openedAt",
              "type": "uint256"
            },
            {
              "internalType": "uint256",
              "name": "expiresAt",
              "type": "uint256"
            },
            {
              "internalType": "uint256",
              "name": "closedAt",
              "type": "uint256"
            },
            {
              "internalType": "uint32",
              "name": "interestRate",
              "type": "uint32"
            },
            {
              "internalType": "enum CheddaLoanManager.LoanState",
              "name": "state",
              "type": "uint8"
            },
            {
              "internalType": "address payable",
              "name": "lender",
              "type": "address"
            },
            {
              "internalType": "address payable",
              "name": "borrower",
              "type": "address"
            }
          ],
          "internalType": "struct CheddaLoanManager.Loan[]",
          "name": "",
          "type": "tuple[]"
        }
      ],
      "stateMutability": "view",
      "type": "function"
    },
    {
      "inputs": [],
      "name": "interestRate",
      "outputs": [
        {
          "internalType": "uint32",
          "name": "",
          "type": "uint32"
        }
      ],
      "stateMutability": "view",
      "type": "function"
    },
    {
      "inputs": [
        {
          "internalType": "uint256",
          "name": "",
          "type": "uint256"
        }
      ],
      "name": "loans",
      "outputs": [
        {
          "internalType": "uint256",
          "name": "loanID",
          "type": "uint256"
        },
        {
          "internalType": "address",
          "name": "nftContract",
          "type": "address"
        },
        {
          "internalType": "uint256",
          "name": "tokenID",
          "type": "uint256"
        },
        {
          "internalType": "uint256",
          "name": "principal",
          "type": "uint256"
        },
        {
          "internalType": "uint256",
          "name": "repaymentAmount",
          "type": "uint256"
        },
        {
          "internalType": "uint256",
          "name": "openedAt",
          "type": "uint256"
        },
        {
          "internalType": "uint256",
          "name": "expiresAt",
          "type": "uint256"
        },
        {
          "internalType": "uint256",
          "name": "closedAt",
          "type": "uint256"
        },
        {
          "internalType": "uint32",
          "name": "interestRate",
          "type": "uint32"
        },
        {
          "internalType": "enum CheddaLoanManager.LoanState",
          "name": "state",
          "type": "uint8"
        },
        {
          "internalType": "address payable",
          "name": "lender",
          "type": "address"
        },
        {
          "internalType": "address payable",
          "name": "borrower",
          "type": "address"
        }
      ],
      "stateMutability": "view",
      "type": "function"
    },
    {
      "inputs": [
        {
          "internalType": "address",
          "name": "",
          "type": "address"
        },
        {
          "internalType": "address",
          "name": "",
          "type": "address"
        },
        {
          "internalType": "uint256",
          "name": "",
          "type": "uint256"
        },
        {
          "internalType": "bytes",
          "name": "",
          "type": "bytes"
        }
      ],
      "name": "onERC721Received",
      "outputs": [
        {
          "internalType": "bytes4",
          "name": "",
          "type": "bytes4"
        }
      ],
      "stateMutability": "pure",
      "type": "function"
    },
    {
      "inputs": [
        {
          "internalType": "uint256",
          "name": "requestID",
          "type": "uint256"
        }
      ],
      "name": "openLoan",
      "outputs": [],
      "stateMutability": "payable",
      "type": "function"
    },
    {
      "inputs": [
        {
          "internalType": "uint256",
          "name": "requestID",
          "type": "uint256"
        }
      ],
      "name": "openLoanToken",
      "outputs": [],
      "stateMutability": "nonpayable",
      "type": "function"
    },
    {
      "inputs": [
        {
          "internalType": "address",
          "name": "",
          "type": "address"
        },
        {
          "internalType": "uint256",
          "name": "",
          "type": "uint256"
        }
      ],
      "name": "openLoans",
      "outputs": [
        {
          "internalType": "uint256",
          "name": "",
          "type": "uint256"
        }
      ],
      "stateMutability": "view",
      "type": "function"
    },
    {
      "inputs": [
        {
          "internalType": "address",
          "name": "",
          "type": "address"
        },
        {
          "internalType": "uint256",
          "name": "",
          "type": "uint256"
        }
      ],
      "name": "openRequests",
      "outputs": [
        {
          "internalType": "uint256",
          "name": "",
          "type": "uint256"
        }
      ],
      "stateMutability": "view",
      "type": "function"
    },
    {
      "inputs": [],
      "name": "owner",
      "outputs": [
        {
          "internalType": "address",
          "name": "",
          "type": "address"
        }
      ],
      "stateMutability": "view",
      "type": "function"
    },
    {
      "inputs": [],
      "name": "registry",
      "outputs": [
        {
          "internalType": "address",
          "name": "",
          "type": "address"
        }
      ],
      "stateMutability": "view",
      "type": "function"
    },
    {
      "inputs": [],
      "name": "renounceOwnership",
      "outputs": [],
      "stateMutability": "nonpayable",
      "type": "function"
    },
    {
      "inputs": [
        {
          "internalType": "uint256",
          "name": "loanID",
          "type": "uint256"
        }
      ],
      "name": "repay",
      "outputs": [],
      "stateMutability": "payable",
      "type": "function"
    },
    {
      "inputs": [
        {
          "internalType": "uint256",
          "name": "loanID",
          "type": "uint256"
        }
      ],
      "name": "repayToken",
      "outputs": [],
      "stateMutability": "nonpayable",
      "type": "function"
    },
    {
      "inputs": [
        {
          "internalType": "address",
          "name": "nftContract",
          "type": "address"
        },
        {
          "internalType": "uint256",
          "name": "tokenId",
          "type": "uint256"
        },
        {
          "internalType": "uint256",
          "name": "amountRequested",
          "type": "uint256"
        },
        {
          "internalType": "uint256",
          "name": "duration",
          "type": "uint256"
        }
      ],
      "name": "requestLoan",
      "outputs": [],
      "stateMutability": "nonpayable",
      "type": "function"
    },
    {
      "inputs": [
        {
          "internalType": "uint256",
          "name": "",
          "type": "uint256"
        }
      ],
      "name": "requests",
      "outputs": [
        {
          "internalType": "uint256",
          "name": "requestID",
          "type": "uint256"
        },
        {
          "internalType": "address",
          "name": "nftContract",
          "type": "address"
        },
        {
          "internalType": "uint256",
          "name": "tokenID",
          "type": "uint256"
        },
        {
          "internalType": "uint256",
          "name": "loanLength",
          "type": "uint256"
        },
        {
          "internalType": "address",
          "name": "borrower",
          "type": "address"
        },
        {
          "internalType": "uint256",
          "name": "amount",
          "type": "uint256"
        },
        {
          "internalType": "uint256",
          "name": "repayment",
          "type": "uint256"
        },
        {
          "internalType": "enum CheddaLoanManager.RequestState",
          "name": "state",
          "type": "uint8"
        }
      ],
      "stateMutability": "view",
      "type": "function"
    },
    {
      "inputs": [
        {
          "internalType": "bytes4",
          "name": "interfaceId",
          "type": "bytes4"
        }
      ],
      "name": "supportsInterface",
      "outputs": [
        {
          "internalType": "bool",
          "name": "",
          "type": "bool"
        }
      ],
      "stateMutability": "pure",
      "type": "function"
    },
    {
      "inputs": [],
      "name": "tokenAddress",
      "outputs": [
        {
          "internalType": "address",
          "name": "",
          "type": "address"
        }
      ],
      "stateMutability": "view",
      "type": "function"
    },
    {
      "inputs": [],
      "name": "totalLoanValue",
      "outputs": [
        {
          "internalType": "uint256",
          "name": "",
          "type": "uint256"
        }
      ],
      "stateMutability": "view",
      "type": "function"
    },
    {
      "inputs": [
        {
          "internalType": "address",
          "name": "newOwner",
          "type": "address"
        }
      ],
      "name": "transferOwnership",
      "outputs": [],
      "stateMutability": "nonpayable",
      "type": "function"
    },
    {
      "inputs": [
        {
          "internalType": "address",
          "name": "registryAddress",
          "type": "address"
        }
      ],
      "name": "updateRegistry",
      "outputs": [],
      "stateMutability": "nonpayable",
      "type": "function"
    }
  ],
  "bytecode": "0x60806040526005805463ffffffff19166113881790553480156200002257600080fd5b5060405162004186380380620041868339810160408190526200004591620005eb565b62000050336200007c565b600380546001600160a01b0319166001600160a01b03831617905562000075620000cc565b506200061b565b600080546001600160a01b038381166001600160a01b0319831681178455604051919092169283917f8be0079c531659141344cd1fd0a4f28419497f9722a3daafe3b4186f6b6457e09190a35050565b60006040518061018001604052806000815260200160006001600160a01b03168152602001600081526020016000815260200160008152602001600081526020016000815260200160008152602001600063ffffffff168152602001600060038111156200014a57634e487b7160e01b600052602160045260246000fd5b815260200160006001600160a01b0316815260200160006001600160a01b03168152509050620001866002620005e260201b620033d01760201c565b6007805460018101825560009190915281517fa66cc928b5edb82af9bd49922954155ab7b0942694bea4ce44661d9a8736c688600a90920291820190815560208301517fa66cc928b5edb82af9bd49922954155ab7b0942694bea4ce44661d9a8736c689830180546001600160a01b0319166001600160a01b0390921691909117905560408301517fa66cc928b5edb82af9bd49922954155ab7b0942694bea4ce44661d9a8736c68a83015560608301517fa66cc928b5edb82af9bd49922954155ab7b0942694bea4ce44661d9a8736c68b83015560808301517fa66cc928b5edb82af9bd49922954155ab7b0942694bea4ce44661d9a8736c68c83015560a08301517fa66cc928b5edb82af9bd49922954155ab7b0942694bea4ce44661d9a8736c68d83015560c08301517fa66cc928b5edb82af9bd49922954155ab7b0942694bea4ce44661d9a8736c68e83015560e08301517fa66cc928b5edb82af9bd49922954155ab7b0942694bea4ce44661d9a8736c68f8301556101008301517fa66cc928b5edb82af9bd49922954155ab7b0942694bea4ce44661d9a8736c690909201805463ffffffff19811663ffffffff9094169384178255610120850151859490929164ffffffffff1916176401000000008360038111156200037b57634e487b7160e01b600052602160045260246000fd5b0217905550610140820151600882018054600160281b600160c81b031916650100000000006001600160a01b039384160217905561016090920151600990910180546001600160a01b031916919092161790556040805161010081018252600080825260208201819052918101829052606081018290526080810182905260a0810182905260c0810182905260e08101828152509050620004286001620005e260201b620033d01760201c565b6006805460018181018355600092909252825160089091027ff652222313e28459528d920b65115c16c04f3efc82aaedc97be59f3f377c0d3f810191825560208401517ff652222313e28459528d920b65115c16c04f3efc82aaedc97be59f3f377c0d40820180546001600160a01b039283166001600160a01b03199182161790915560408601517ff652222313e28459528d920b65115c16c04f3efc82aaedc97be59f3f377c0d4184015560608601517ff652222313e28459528d920b65115c16c04f3efc82aaedc97be59f3f377c0d4284015560808601517ff652222313e28459528d920b65115c16c04f3efc82aaedc97be59f3f377c0d438401805491909316911617905560a08401517ff652222313e28459528d920b65115c16c04f3efc82aaedc97be59f3f377c0d4482015560c08401517ff652222313e28459528d920b65115c16c04f3efc82aaedc97be59f3f377c0d4582015560e08401517ff652222313e28459528d920b65115c16c04f3efc82aaedc97be59f3f377c0d469091018054859460ff1990911690836003811115620005d757634e487b7160e01b600052602160045260246000fd5b021790555050505050565b80546001019055565b600060208284031215620005fd578081fd5b81516001600160a01b038116811462000614578182fd5b9392505050565b613b5b806200062b6000396000f3fe6080604052600436106101665760003560e01c80637f48886d116100d15780639fb0f9be1161008a578063da0648b711610064578063da0648b7146104bc578063e1ec3c68146104dc578063e50380e014610514578063f2fde38b1461053457600080fd5b80639fb0f9be14610466578063bd8ff57614610486578063d93ba2c7146104a657600080fd5b80637f48886d1461038757806381d12c58146103b45780638bf1badd146103e85780638da5cb5b1461040857806392c79d12146104265780639d76ea581461044657600080fd5b806354e3e70d1161012357806354e3e70d1461029057806366646ba8146102a3578063715018a6146102db5780637b103999146102f05780637c2de818146103285780637c3a00fd1461035557600080fd5b806301ffc9a71461016b578063150b7a02146101b15780631686fc50146101f55780631a5da6c81461023b5780633015394c1461025d578063371fd8e61461027d575b600080fd5b34801561017757600080fd5b5061019c610186366004613702565b6001600160e01b031916630a85bd0160e11b1490565b60405190151581526020015b60405180910390f35b3480156101bd57600080fd5b506101dc6101cc36600461356c565b630a85bd0160e11b949350505050565b6040516001600160e01b031990911681526020016101a8565b34801561020157600080fd5b5061022d61021036600461367d565b600a60209081526000928352604080842090915290825290205481565b6040519081526020016101a8565b34801561024757600080fd5b5061025b61025636600461352d565b610554565b005b34801561026957600080fd5b5061025b61027836600461372a565b6105a9565b61025b61028b36600461372a565b610753565b61025b61029e36600461372a565b6109f6565b3480156102af57600080fd5b5061022d6102be36600461367d565b600960209081526000928352604080842090915290825290205481565b3480156102e757600080fd5b5061025b61103b565b3480156102fc57600080fd5b50600854610310906001600160a01b031681565b6040516001600160a01b0390911681526020016101a8565b34801561033457600080fd5b50610348610343366004613645565b611071565b6040516101a891906137ac565b34801561036157600080fd5b506005546103729063ffffffff1681565b60405163ffffffff90911681526020016101a8565b34801561039357600080fd5b506103a76103a2366004613645565b61152e565b6040516101a89190613850565b3480156103c057600080fd5b506103d46103cf36600461372a565b6119ec565b6040516101a8989796959493929190613959565b3480156103f457600080fd5b5061025b61040336600461372a565b611a51565b34801561041457600080fd5b506000546001600160a01b0316610310565b34801561043257600080fd5b5061025b6104413660046136a8565b611c7f565b34801561045257600080fd5b50600354610310906001600160a01b031681565b34801561047257600080fd5b5061025b61048136600461372a565b61226c565b34801561049257600080fd5b5061025b6104a136600461372a565b6125ab565b3480156104b257600080fd5b5061022d60045481565b3480156104c857600080fd5b506103a76104d7366004613645565b612d84565b3480156104e857600080fd5b506104fc6104f736600461372a565b613242565b6040516101a89c9b9a999897969594939291906139b0565b34801561052057600080fd5b5061022d61052f36600461375a565b6132cf565b34801561054057600080fd5b5061025b61054f36600461352d565b613335565b6000546001600160a01b031633146105875760405162461bcd60e51b815260040161057e90613924565b60405180910390fd5b600880546001600160a01b0319166001600160a01b0392909216919091179055565b60015481106105ed5760405162461bcd60e51b815260206004820152601060248201526f131bd85b8e88125b9d985b1a59081a5960821b604482015260640161057e565b60006006828154811061061057634e487b7160e01b600052603260045260246000fd5b906000526020600020906008020190506106273390565b60048201546001600160a01b0390811691161461067b5760405162461bcd60e51b81526020600482015260126024820152712637b0b71d102737ba103137b93937bbb2b960711b604482015260640161057e565b6001600782015460ff1660038111156106a457634e487b7160e01b600052602160045260246000fd5b146106e75760405162461bcd60e51b81526020600482015260136024820152724c6f616e3a20496e76616c696420737461746560681b604482015260640161057e565b60018101546001600160a01b031660009081526009602090815260408083206002808601548552925280832083905560078401805460ff191690921790915551839133917f1bdb4261b8cc605afbfe72b63a1f1f08ab6eb83dce866bdbed9ba6fc9c74d0049190a35050565b60006007828154811061077657634e487b7160e01b600052603260045260246000fd5b60009182526020909120600a90910201600181015460098201549192506001600160a01b039081169116336001600160a01b0316146107ed5760405162461bcd60e51b81526020600482015260136024820152724c6f616e3a2043616e206e6f7420726570617960681b604482015260640161057e565b81600401543410156108345760405162461bcd60e51b815260206004820152601060248201526f098dec2dc74409cdee840cadcdeeaced60831b604482015260640161057e565b60088201805464ff00000000191664020000000017905560018201546001600160a01b03166000908152600a6020908152604080832060028601548452909152812081905560038301546004805491929091610891908490613a87565b909155505060088201546004830154604051600160281b9092046001600160a01b0316916108fc82150291906000818181858888f193505050501580156108dc573d6000803e3d6000fd5b50816004015434111561092857600482015433906108fc906108fe9034613a87565b6040518115909202916000818181858888f19350505050158015610926573d6000803e3d6000fd5b505b60098201546002830154604051632142170760e11b81526001600160a01b03848116936342842e0e9361096393309390921691600401613788565b600060405180830381600087803b15801561097d57600080fd5b505af1158015610991573d6000803e3d6000fd5b505050506008820154600160281b90046001600160a01b0316336001600160a01b03167ffe3c4f4ff6f11a42f9d84f777002ab405a07fc0075a3504d153b0587f61f460e84600401546040516109e991815260200190565b60405180910390a3505050565b600060068281548110610a1957634e487b7160e01b600052603260045260246000fd5b6000918252602090912060089091020190506001600782015460ff166003811115610a5457634e487b7160e01b600052602160045260246000fd5b14610a925760405162461bcd60e51b815260206004820152600e60248201526d2637b0b71d102737ba1037b832b760911b604482015260640161057e565b6001810154600482015460058301546001600160a01b039283169233921690341015610b005760405162461bcd60e51b815260206004820152601860248201527f4c6f616e3a20496e73756666696369656e742076616c75650000000000000000604482015260640161057e565b600284015460405163020604bf60e21b81526000916001600160a01b0386169163081812fc91610b369160040190815260200190565b60206040518083038186803b158015610b4e57600080fd5b505afa158015610b62573d6000803e3d6000fd5b505050506040513d601f19601f82011682018060405250810190610b869190613550565b90506001600160a01b0381163014610bd95760405162461bcd60e51b8152602060048201526016602482015275131bd85b8e88139195081b9bdd08185c1c1c9bdd995960521b604482015260640161057e565b6000610bed866005015487600301546132cf565b90506000604051806101800160405280610c0660025490565b815260018901546001600160a01b031660208201526002890154604082015260058901546060820152608081018490524260a0820181905260038a015460c090920191610c5291613a30565b81526000602082015260055463ffffffff16604082015260600160018152602001866001600160a01b03168152602001856001600160a01b03168152509050866005015460046000828254610ca79190613a30565b90915550506001870180546001600160a01b03908116600090815260096020908152604080832060028d01805485529083528184208490558651955485168452600a835281842081548552909252918290209390935591549151632142170760e11b8152908816916342842e0e91610d26918891309190600401613788565b600060405180830381600087803b158015610d4057600080fd5b505af1158015610d54573d6000803e3d6000fd5b50506040516001600160a01b03871692503480156108fc029250906000818181858888f19350505050158015610d8e573d6000803e3d6000fd5b50610d9d600280546001019055565b6007805460018101825560009190915281517fa66cc928b5edb82af9bd49922954155ab7b0942694bea4ce44661d9a8736c688600a90920291820190815560208301517fa66cc928b5edb82af9bd49922954155ab7b0942694bea4ce44661d9a8736c689830180546001600160a01b0319166001600160a01b0390921691909117905560408301517fa66cc928b5edb82af9bd49922954155ab7b0942694bea4ce44661d9a8736c68a83015560608301517fa66cc928b5edb82af9bd49922954155ab7b0942694bea4ce44661d9a8736c68b83015560808301517fa66cc928b5edb82af9bd49922954155ab7b0942694bea4ce44661d9a8736c68c83015560a08301517fa66cc928b5edb82af9bd49922954155ab7b0942694bea4ce44661d9a8736c68d83015560c08301517fa66cc928b5edb82af9bd49922954155ab7b0942694bea4ce44661d9a8736c68e83015560e08301517fa66cc928b5edb82af9bd49922954155ab7b0942694bea4ce44661d9a8736c68f8301556101008301517fa66cc928b5edb82af9bd49922954155ab7b0942694bea4ce44661d9a8736c690909201805463ffffffff19811663ffffffff9094169384178255610120850151859490929164ffffffffff191617600160201b836003811115610f9057634e487b7160e01b600052602160045260246000fd5b021790555061014082015160088201805465010000000000600160c81b031916600160281b6001600160a01b039384160217905561016090920151600990910180546001600160a01b0319169183169190911790558754908516336001600160a01b03167f38b51813c240c8203eeb63b34adbe528d4239a2424c3eb3ff5b67a2fb979bede8a6005015460405161102991815260200190565b60405180910390a45050505050505050565b6000546001600160a01b031633146110655760405162461bcd60e51b815260040161057e90613924565b61106f60006133d9565b565b6060600060015b60065481101561118a576000600682815481106110a557634e487b7160e01b600052603260045260246000fd5b6000918252602090912060089091020160048101549091506001600160a01b03878116911614806110dd57506001600160a01b038616155b1561117757600085600381111561110457634e487b7160e01b600052602160045260246000fd5b141561111c578261111481613a9e565b935050611177565b600781015460ff16600381111561114357634e487b7160e01b600052602160045260246000fd5b85600381111561116357634e487b7160e01b600052602160045260246000fd5b1415611177578261117381613a9e565b9350505b508061118281613a9e565b915050611078565b5060008167ffffffffffffffff8111156111b457634e487b7160e01b600052604160045260246000fd5b6040519080825280602002602001820160405280156111ed57816020015b6111da613429565b8152602001906001900390816111d25790505b509050600060015b6006548110156115235760006006828154811061122257634e487b7160e01b600052603260045260246000fd5b6000918252602090912060089091020160048101549091506001600160a01b038981169116148061125a57506001600160a01b038816155b1561151057600087600381111561128157634e487b7160e01b600052602160045260246000fd5b14156113a757600682815481106112a857634e487b7160e01b600052603260045260246000fd5b6000918252602091829020604080516101008101825260089093029091018054835260018101546001600160a01b0390811694840194909452600281015491830191909152600380820154606084015260048201549093166080830152600581015460a0830152600681015460c083015260078101549192909160e084019160ff9091169081111561134a57634e487b7160e01b600052602160045260246000fd5b600381111561136957634e487b7160e01b600052602160045260246000fd5b905250848461137781613a9e565b95508151811061139757634e487b7160e01b600052603260045260246000fd5b6020026020010181905250611510565b600781015460ff1660038111156113ce57634e487b7160e01b600052602160045260246000fd5b8760038111156113ee57634e487b7160e01b600052602160045260246000fd5b1415611510576006828154811061141557634e487b7160e01b600052603260045260246000fd5b6000918252602091829020604080516101008101825260089093029091018054835260018101546001600160a01b0390811694840194909452600281015491830191909152600380820154606084015260048201549093166080830152600581015460a0830152600681015460c083015260078101549192909160e084019160ff909116908111156114b757634e487b7160e01b600052602160045260246000fd5b60038111156114d657634e487b7160e01b600052602160045260246000fd5b90525084846114e481613a9e565b95508151811061150457634e487b7160e01b600052603260045260246000fd5b60200260200101819052505b508061151b81613a9e565b9150506111f5565b509095945050505050565b6060600060015b6007548110156117315760006007828154811061156257634e487b7160e01b600052603260045260246000fd5b60009182526020918290206040805161018081018252600a939093029091018054835260018101546001600160a01b031693830193909352600283015490820152600380830154606083015260048301546080830152600583015460a0830152600683015460c0830152600783015460e0830152600883015463ffffffff8116610100840152919291610120840191600160201b90910460ff169081111561161a57634e487b7160e01b600052602160045260246000fd5b600381111561163957634e487b7160e01b600052602160045260246000fd5b81526008820154600160281b90046001600160a01b03908116602083015260099092015482166040909101526101408201519192508781169116148061168657506001600160a01b038616155b1561171e5760008560038111156116ad57634e487b7160e01b600052602160045260246000fd5b14156116c557826116bd81613a9e565b93505061171e565b80610120015160038111156116ea57634e487b7160e01b600052602160045260246000fd5b85600381111561170a57634e487b7160e01b600052602160045260246000fd5b141561171e578261171a81613a9e565b9350505b508061172981613a9e565b915050611535565b5060008167ffffffffffffffff81111561175b57634e487b7160e01b600052604160045260246000fd5b60405190808252806020026020018201604052801561179457816020015b61178161349e565b8152602001906001900390816117795790505b509050600060015b600754811015611523576000600782815481106117c957634e487b7160e01b600052603260045260246000fd5b60009182526020918290206040805161018081018252600a939093029091018054835260018101546001600160a01b031693830193909352600283015490820152600380830154606083015260048301546080830152600583015460a0830152600683015460c0830152600783015460e0830152600883015463ffffffff8116610100840152919291610120840191600160201b90910460ff169081111561188157634e487b7160e01b600052602160045260246000fd5b60038111156118a057634e487b7160e01b600052602160045260246000fd5b81526008820154600160281b90046001600160a01b0390811660208301526009909201548216604090910152610140820151919250898116911614806118ed57506001600160a01b038816155b156119d957600087600381111561191457634e487b7160e01b600052602160045260246000fd5b14156119565780848461192681613a9e565b95508151811061194657634e487b7160e01b600052603260045260246000fd5b60200260200101819052506119d9565b806101200151600381111561197b57634e487b7160e01b600052602160045260246000fd5b87600381111561199b57634e487b7160e01b600052602160045260246000fd5b14156119d9578084846119ad81613a9e565b9550815181106119cd57634e487b7160e01b600052603260045260246000fd5b60200260200101819052505b50806119e481613a9e565b91505061179c565b600681815481106119fc57600080fd5b6000918252602090912060089091020180546001820154600283015460038401546004850154600586015460068701546007909701549597506001600160a01b03948516969395929490911692909160ff1688565b600060078281548110611a7457634e487b7160e01b600052603260045260246000fd5b60009182526020909120600a90910201905060016008820154600160201b900460ff166003811115611ab657634e487b7160e01b600052602160045260246000fd5b148015611ac65750428160060154105b611b085760405162461bcd60e51b81526020600482015260136024820152724c6f616e3a20496e76616c696420737461746560681b604482015260640161057e565b6008810154600160281b90046001600160a01b0316336001600160a01b031614611b675760405162461bcd60e51b815260206004820152601060248201526f2637b0b71d102737ba103632b73232b960811b604482015260640161057e565b600181015460088201805464ff0000000019166403000000001790556001600160a01b03166000818152600a6020908152604080832060028601548452909152812081905560038301546004805491929091611bc4908490613a87565b909155505060088201546002830154604051632142170760e11b81526001600160a01b03808516936342842e0e93611c0c933093600160281b90930490921691600401613788565b600060405180830381600087803b158015611c2657600080fd5b505af1158015611c3a573d6000803e3d6000fd5b5050505060098201546040516001600160a01b039091169033907fc0b5b9e5198c2a6b0f14769c87a94436bac6e75fb5328d3d1bcab15214c5458390600090a3505050565b60405163020604bf60e21b81526004810184905284908490829030906001600160a01b0383169063081812fc9060240160206040518083038186803b158015611cc757600080fd5b505afa158015611cdb573d6000803e3d6000fd5b505050506040513d601f19601f82011682018060405250810190611cff9190613550565b6001600160a01b031614611d4a5760405162461bcd60e51b8152602060048201526012602482015271131bd85b8e88139bdd08185c1c1c9bdd995960721b604482015260640161057e565b6001600160a01b038716611d985760405162461bcd60e51b81526020600482015260156024820152744c6f616e3a20496e76616c6964206164647265737360581b604482015260640161057e565b600084118015611dab57506276a7008411155b611df05760405162461bcd60e51b81526020600482015260166024820152752637b0b71d1024b73b30b634b210323ab930ba34b7b760511b604482015260640161057e565b60008511611e405760405162461bcd60e51b815260206004820152601960248201527f4c6f616e3a20496e76616c6964206c6f616e20616d6f756e7400000000000000604482015260640161057e565b86336040516331a9108f60e11b8152600481018990526001600160a01b0391821691831690636352211e9060240160206040518083038186803b158015611e8657600080fd5b505afa158015611e9a573d6000803e3d6000fd5b505050506040513d601f19601f82011682018060405250810190611ebe9190613550565b6001600160a01b031614611f065760405162461bcd60e51b815260206004820152600f60248201526e2637b0b71d102737ba1037bbb732b960891b604482015260640161057e565b60405163020604bf60e21b81526004810188905230906001600160a01b0383169063081812fc9060240160206040518083038186803b158015611f4857600080fd5b505afa158015611f5c573d6000803e3d6000fd5b505050506040513d601f19601f82011682018060405250810190611f809190613550565b6001600160a01b031614611fcb5760405162461bcd60e51b81526020600482015260126024820152714c6f616e3a204d75737420617070726f766560701b604482015260640161057e565b6000611fd787876132cf565b90506000604051806101000160405280611ff060015490565b81526020018b6001600160a01b031681526020018a81526020018881526020016120173390565b6001600160a01b03168152602081018a90526040810184905260600160019052600680546001808201835560009290925282517ff652222313e28459528d920b65115c16c04f3efc82aaedc97be59f3f377c0d3f600890920291820190815560208401517ff652222313e28459528d920b65115c16c04f3efc82aaedc97be59f3f377c0d40830180546001600160a01b03199081166001600160a01b039384161790915560408601517ff652222313e28459528d920b65115c16c04f3efc82aaedc97be59f3f377c0d4185015560608601517ff652222313e28459528d920b65115c16c04f3efc82aaedc97be59f3f377c0d4285015560808601517ff652222313e28459528d920b65115c16c04f3efc82aaedc97be59f3f377c0d4385018054909216921691909117905560a08401517ff652222313e28459528d920b65115c16c04f3efc82aaedc97be59f3f377c0d4483015560c08401517ff652222313e28459528d920b65115c16c04f3efc82aaedc97be59f3f377c0d4583015560e08401517ff652222313e28459528d920b65115c16c04f3efc82aaedc97be59f3f377c0d46909201805494955085949193909160ff1916908360038111156121ed57634e487b7160e01b600052602160045260246000fd5b02179055505050612202600180546001019055565b80516001600160a01b038b1660008181526009602090815260408083208e845282529182902093909355518a81528b9233917f8ca033dfe8ac84b6e3e48aa36967e19d52a93a3f4d880ce8005fd4e04c97c94d91015b60405180910390a450505050505050505050565b60006007828154811061228f57634e487b7160e01b600052603260045260246000fd5b60009182526020909120600354600a90920201600181015460098201549193506001600160a01b03928316929081169116336001600160a01b03161461230d5760405162461bcd60e51b81526020600482015260136024820152724c6f616e3a2043616e206e6f7420726570617960681b604482015260640161057e565b6004838101546009850154604051636eb1769f60e11b81526001600160a01b039182169381019390935230602484015290919084169063dd62ed3e9060440160206040518083038186803b15801561236457600080fd5b505afa158015612378573d6000803e3d6000fd5b505050506040513d601f19601f8201168201806040525081019061239c9190613742565b10156123de5760405162461bcd60e51b8152602060048201526011602482015270131bd85b8e88139bdd08185b1b1bddd959607a1b604482015260640161057e565b60088301805464ff00000000191664020000000017905560018301546001600160a01b03166000908152600a602090815260408083206002870154845290915281208190556003840154600480549192909161243b908490613a87565b9091555050600983015460088401546004808601546040516323b872dd60e01b81526001600160a01b03808816956323b872dd956124899591831694600160281b9091049092169201613788565b602060405180830381600087803b1580156124a357600080fd5b505af11580156124b7573d6000803e3d6000fd5b505050506040513d601f19601f820116820180604052508101906124db91906136e2565b5060098301546002840154604051632142170760e11b81526001600160a01b03848116936342842e0e9361251793309390921691600401613788565b600060405180830381600087803b15801561253157600080fd5b505af1158015612545573d6000803e3d6000fd5b505050506008830154600160281b90046001600160a01b0316336001600160a01b03167ffe3c4f4ff6f11a42f9d84f777002ab405a07fc0075a3504d153b0587f61f460e856004015460405161259d91815260200190565b60405180910390a350505050565b6000600682815481106125ce57634e487b7160e01b600052603260045260246000fd5b6000918252602090912060089091020190506001600782015460ff16600381111561260957634e487b7160e01b600052602160045260246000fd5b146126475760405162461bcd60e51b815260206004820152600e60248201526d2637b0b71d102737ba1037b832b760911b604482015260640161057e565b60035460018201546001600160a01b03918216911660003360048581015460058701546040516370a0823160e01b81526001600160a01b03808616948201949094529394509082169290918616906370a082319060240160206040518083038186803b1580156126b657600080fd5b505afa1580156126ca573d6000803e3d6000fd5b505050506040513d601f19601f820116820180604052508101906126ee9190613742565b101561273c5760405162461bcd60e51b815260206004820152601a60248201527f4c6f616e3a20496e73756666696369656e742062616c616e6365000000000000604482015260640161057e565b604051636eb1769f60e11b81526001600160a01b0383811660048301523060248301526000919086169063dd62ed3e9060440160206040518083038186803b15801561278757600080fd5b505afa15801561279b573d6000803e3d6000fd5b505050506040513d601f19601f820116820180604052508101906127bf9190613742565b9050856005015481101561280a5760405162461bcd60e51b8152602060048201526012602482015271131bd85b8e88139bdd08185c1c1c9bdd995960721b604482015260640161057e565b600286015460405163020604bf60e21b81526000916001600160a01b0387169163081812fc916128409160040190815260200190565b60206040518083038186803b15801561285857600080fd5b505afa15801561286c573d6000803e3d6000fd5b505050506040513d601f19601f820116820180604052508101906128909190613550565b90506001600160a01b03811630146128e35760405162461bcd60e51b8152602060048201526016602482015275131bd85b8e88139195081b9bdd08185c1c1c9bdd995960521b604482015260640161057e565b60006128f7886005015489600301546132cf565b9050600060405180610180016040528061291060025490565b815260018b01546001600160a01b0316602082015260028b0154604082015260058b01546060820152608081018490524260a0820181905260038c015460c09092019161295c91613a30565b81526000602082015260055463ffffffff16604082015260600160018152602001876001600160a01b03168152602001866001600160a01b031681525090508860050154600460008282546129b19190613a30565b90915550506001890180546001600160a01b03908116600090815260096020908152604080832060028f01805485529083528184208490558651955485168452600a83528184209054845290915290209190915588166323b872dd33878c600501546040518463ffffffff1660e01b8152600401612a3193929190613788565b602060405180830381600087803b158015612a4b57600080fd5b505af1158015612a5f573d6000803e3d6000fd5b505050506040513d601f19601f82011682018060405250810190612a8391906136e2565b506002890154604051632142170760e11b81526001600160a01b038916916342842e0e91612ab8918991309190600401613788565b600060405180830381600087803b158015612ad257600080fd5b505af1158015612ae6573d6000803e3d6000fd5b50505050612af8600280546001019055565b6007805460018101825560009190915281517fa66cc928b5edb82af9bd49922954155ab7b0942694bea4ce44661d9a8736c688600a90920291820190815560208301517fa66cc928b5edb82af9bd49922954155ab7b0942694bea4ce44661d9a8736c689830180546001600160a01b0319166001600160a01b0390921691909117905560408301517fa66cc928b5edb82af9bd49922954155ab7b0942694bea4ce44661d9a8736c68a83015560608301517fa66cc928b5edb82af9bd49922954155ab7b0942694bea4ce44661d9a8736c68b83015560808301517fa66cc928b5edb82af9bd49922954155ab7b0942694bea4ce44661d9a8736c68c83015560a08301517fa66cc928b5edb82af9bd49922954155ab7b0942694bea4ce44661d9a8736c68d83015560c08301517fa66cc928b5edb82af9bd49922954155ab7b0942694bea4ce44661d9a8736c68e83015560e08301517fa66cc928b5edb82af9bd49922954155ab7b0942694bea4ce44661d9a8736c68f8301556101008301517fa66cc928b5edb82af9bd49922954155ab7b0942694bea4ce44661d9a8736c690909201805463ffffffff19811663ffffffff9094169384178255610120850151859490929164ffffffffff191617600160201b836003811115612ceb57634e487b7160e01b600052602160045260246000fd5b021790555061014082015160088201805465010000000000600160c81b031916600160281b6001600160a01b039384160217905561016090920151600990910180546001600160a01b0319169183169190911790558954908616336001600160a01b03167f38b51813c240c8203eeb63b34adbe528d4239a2424c3eb3ff5b67a2fb979bede8c6005015460405161225891815260200190565b6060600060015b600754811015612f8757600060078281548110612db857634e487b7160e01b600052603260045260246000fd5b60009182526020918290206040805161018081018252600a939093029091018054835260018101546001600160a01b031693830193909352600283015490820152600380830154606083015260048301546080830152600583015460a0830152600683015460c0830152600783015460e0830152600883015463ffffffff8116610100840152919291610120840191600160201b90910460ff1690811115612e7057634e487b7160e01b600052602160045260246000fd5b6003811115612e8f57634e487b7160e01b600052602160045260246000fd5b81526008820154600160281b90046001600160a01b039081166020830152600990920154821660409091015261016082015191925087811691161480612edc57506001600160a01b038616155b15612f74576000856003811115612f0357634e487b7160e01b600052602160045260246000fd5b1415612f1b5782612f1381613a9e565b935050612f74565b8061012001516003811115612f4057634e487b7160e01b600052602160045260246000fd5b856003811115612f6057634e487b7160e01b600052602160045260246000fd5b1415612f745782612f7081613a9e565b9350505b5080612f7f81613a9e565b915050612d8b565b5060008167ffffffffffffffff811115612fb157634e487b7160e01b600052604160045260246000fd5b604051908082528060200260200182016040528015612fea57816020015b612fd761349e565b815260200190600190039081612fcf5790505b509050600060015b6007548110156115235760006007828154811061301f57634e487b7160e01b600052603260045260246000fd5b60009182526020918290206040805161018081018252600a939093029091018054835260018101546001600160a01b031693830193909352600283015490820152600380830154606083015260048301546080830152600583015460a0830152600683015460c0830152600783015460e0830152600883015463ffffffff8116610100840152919291610120840191600160201b90910460ff16908111156130d757634e487b7160e01b600052602160045260246000fd5b60038111156130f657634e487b7160e01b600052602160045260246000fd5b81526008820154600160281b90046001600160a01b03908116602083015260099092015482166040909101526101608201519192508981169116148061314357506001600160a01b038816155b1561322f57600087600381111561316a57634e487b7160e01b600052602160045260246000fd5b14156131ac5780848461317c81613a9e565b95508151811061319c57634e487b7160e01b600052603260045260246000fd5b602002602001018190525061322f565b80610120015160038111156131d157634e487b7160e01b600052602160045260246000fd5b8760038111156131f157634e487b7160e01b600052602160045260246000fd5b141561322f5780848461320381613a9e565b95508151811061322357634e487b7160e01b600052603260045260246000fd5b60200260200101819052505b508061323a81613a9e565b915050612ff2565b6007818154811061325257600080fd5b60009182526020909120600a909102018054600182015460028301546003840154600485015460058601546006870154600788015460088901546009909901549799506001600160a01b039687169895979496939592949193909263ffffffff81169260ff600160201b83041692600160281b909204821691168c565b600080620151806132e261016d85613a48565b6005546064906132f89063ffffffff1688613a68565b6133029190613a48565b61330c9190613a68565b6133169190613a48565b9050613323606482613a48565b61332d9085613a30565b949350505050565b6000546001600160a01b0316331461335f5760405162461bcd60e51b815260040161057e90613924565b6001600160a01b0381166133c45760405162461bcd60e51b815260206004820152602660248201527f4f776e61626c653a206e6577206f776e657220697320746865207a65726f206160448201526564647265737360d01b606482015260840161057e565b6133cd816133d9565b50565b80546001019055565b600080546001600160a01b038381166001600160a01b0319831681178455604051919092169283917f8be0079c531659141344cd1fd0a4f28419497f9722a3daafe3b4186f6b6457e09190a35050565b6040518061010001604052806000815260200160006001600160a01b03168152602001600081526020016000815260200160006001600160a01b0316815260200160008152602001600081526020016000600381111561349957634e487b7160e01b600052602160045260246000fd5b905290565b6040518061018001604052806000815260200160006001600160a01b03168152602001600081526020016000815260200160008152602001600081526020016000815260200160008152602001600063ffffffff1681526020016000600381111561351957634e487b7160e01b600052602160045260246000fd5b815260006020820181905260409091015290565b60006020828403121561353e578081fd5b813561354981613b03565b9392505050565b600060208284031215613561578081fd5b815161354981613b03565b60008060008060808587031215613581578283fd5b843561358c81613b03565b9350602085013561359c81613b03565b925060408501359150606085013567ffffffffffffffff808211156135bf578283fd5b818701915087601f8301126135d2578283fd5b8135818111156135e4576135e4613acf565b604051601f8201601f19908116603f0116810190838211818310171561360c5761360c613acf565b816040528281528a6020848701011115613624578586fd5b82602086016020830137918201602001949094529598949750929550505050565b60008060408385031215613657578182fd5b823561366281613b03565b9150602083013561367281613b18565b809150509250929050565b6000806040838503121561368f578182fd5b823561369a81613b03565b946020939093013593505050565b600080600080608085870312156136bd578384fd5b84356136c881613b03565b966020860135965060408601359560600135945092505050565b6000602082840312156136f3578081fd5b81518015158114613549578182fd5b600060208284031215613713578081fd5b81356001600160e01b031981168114613549578182fd5b60006020828403121561373b578081fd5b5035919050565b600060208284031215613753578081fd5b5051919050565b6000806040838503121561376c578182fd5b50508035926020909101359150565b61378481613ae5565b9052565b6001600160a01b039384168152919092166020820152604081019190915260600190565b602080825282518282018190526000919060409081850190868401855b8281101561384357815180518552868101516001600160a01b03908116888701528682015187870152606080830151908701526080808301519091169086015260a0808201519086015260c0808201519086015260e0908101519061382d82613ae5565b85015261010090930192908501906001016137c9565b5091979650505050505050565b602080825282518282018190526000919060409081850190868401855b8281101561384357815180518552868101516001600160a01b0316878601528581015186860152606080820151908601526080808201519086015260a0808201519086015260c0808201519086015260e080820151908601526101008082015163ffffffff1690860152610120808201516138ea8288018261377b565b5050610140818101516001600160a01b0390811691870191909152610160918201511690850152610180909301929085019060010161386d565b6020808252818101527f4f776e61626c653a2063616c6c6572206973206e6f7420746865206f776e6572604082015260600190565b8881526001600160a01b03888116602083015260408201889052606082018790528516608082015260a0810184905260c08101839052610100810161399d83613ae5565b8260e08301529998505050505050505050565b6000610180820190508d825260018060a01b03808e1660208401528c60408401528b60608401528a60808401528960a08401528860c08401528760e084015263ffffffff8716610100840152613a0586613ae5565b85610120840152808516610140840152808416610160840152509d9c50505050505050505050505050565b60008219821115613a4357613a43613ab9565b500190565b600082613a6357634e487b7160e01b81526012600452602481fd5b500490565b6000816000190483118215151615613a8257613a82613ab9565b500290565b600082821015613a9957613a99613ab9565b500390565b6000600019821415613ab257613ab2613ab9565b5060010190565b634e487b7160e01b600052601160045260246000fd5b634e487b7160e01b600052604160045260246000fd5b600481106133cd57634e487b7160e01b600052602160045260246000fd5b6001600160a01b03811681146133cd57600080fd5b600481106133cd57600080fdfea264697066735822122012061d3c9c276614d79e51872352a2734f87004738db6fb1e13bd3d2970ba94764736f6c63430008040033",
  "linkReferences": {},
  "deployedLinkReferences": {}
}