{
  "_format": "hh-sol-artifact-1",
  "contractName": "CheddaLoanManager",
  "sourceName": "contracts/lending/LoanManager.sol",
  "abi": [
    {
      "inputs": [
        {
          "internalType": "address",
          "name": "token",
          "type": "address"
        }
      ],
      "stateMutability": "nonpayable",
      "type": "constructor"
    },
    {
      "anonymous": false,
      "inputs": [
        {
          "indexed": true,
          "internalType": "address",
          "name": "by",
          "type": "address"
        },
        {
          "indexed": true,
          "internalType": "address",
          "name": "foreclosedOn",
          "type": "address"
        }
      ],
      "name": "LoanForeclosed",
      "type": "event"
    },
    {
      "anonymous": false,
      "inputs": [
        {
          "indexed": true,
          "internalType": "address",
          "name": "openedByLender",
          "type": "address"
        },
        {
          "indexed": true,
          "internalType": "address",
          "name": "borrower",
          "type": "address"
        },
        {
          "indexed": false,
          "internalType": "uint256",
          "name": "amount",
          "type": "uint256"
        }
      ],
      "name": "LoanOpened",
      "type": "event"
    },
    {
      "anonymous": false,
      "inputs": [
        {
          "indexed": true,
          "internalType": "address",
          "name": "repaidByBorrower",
          "type": "address"
        },
        {
          "indexed": true,
          "internalType": "address",
          "name": "lender",
          "type": "address"
        },
        {
          "indexed": false,
          "internalType": "uint256",
          "name": "repaymentAmount",
          "type": "uint256"
        }
      ],
      "name": "LoanRepaid",
      "type": "event"
    },
    {
      "anonymous": false,
      "inputs": [
        {
          "indexed": true,
          "internalType": "address",
          "name": "by",
          "type": "address"
        },
        {
          "indexed": true,
          "internalType": "address",
          "name": "nftContract",
          "type": "address"
        },
        {
          "indexed": true,
          "internalType": "uint256",
          "name": "tokenId",
          "type": "uint256"
        },
        {
          "indexed": false,
          "internalType": "uint256",
          "name": "amount",
          "type": "uint256"
        }
      ],
      "name": "LoanRequested",
      "type": "event"
    },
    {
      "anonymous": false,
      "inputs": [
        {
          "indexed": true,
          "internalType": "address",
          "name": "previousOwner",
          "type": "address"
        },
        {
          "indexed": true,
          "internalType": "address",
          "name": "newOwner",
          "type": "address"
        }
      ],
      "name": "OwnershipTransferred",
      "type": "event"
    },
    {
      "anonymous": false,
      "inputs": [
        {
          "indexed": true,
          "internalType": "address",
          "name": "by",
          "type": "address"
        },
        {
          "indexed": true,
          "internalType": "uint256",
          "name": "requestId",
          "type": "uint256"
        }
      ],
      "name": "RequestCancelled",
      "type": "event"
    },
    {
      "inputs": [
        {
          "internalType": "uint256",
          "name": "principal",
          "type": "uint256"
        },
        {
          "internalType": "uint256",
          "name": "duration",
          "type": "uint256"
        }
      ],
      "name": "calculateRepaymentAmount",
      "outputs": [
        {
          "internalType": "uint256",
          "name": "",
          "type": "uint256"
        }
      ],
      "stateMutability": "view",
      "type": "function"
    },
    {
      "inputs": [
        {
          "internalType": "uint256",
          "name": "requestId",
          "type": "uint256"
        }
      ],
      "name": "cancelRequest",
      "outputs": [],
      "stateMutability": "nonpayable",
      "type": "function"
    },
    {
      "inputs": [
        {
          "internalType": "uint256",
          "name": "loanID",
          "type": "uint256"
        }
      ],
      "name": "foreclose",
      "outputs": [],
      "stateMutability": "nonpayable",
      "type": "function"
    },
    {
      "inputs": [
        {
          "internalType": "address",
          "name": "user",
          "type": "address"
        },
        {
          "internalType": "enum CheddaLoanManager.RequestState",
          "name": "state",
          "type": "uint8"
        }
      ],
      "name": "getLoanRequests",
      "outputs": [
        {
          "components": [
            {
              "internalType": "uint256",
              "name": "requestID",
              "type": "uint256"
            },
            {
              "internalType": "address",
              "name": "nftContract",
              "type": "address"
            },
            {
              "internalType": "uint256",
              "name": "tokenID",
              "type": "uint256"
            },
            {
              "internalType": "uint256",
              "name": "loanLength",
              "type": "uint256"
            },
            {
              "internalType": "address",
              "name": "borrower",
              "type": "address"
            },
            {
              "internalType": "uint256",
              "name": "amount",
              "type": "uint256"
            },
            {
              "internalType": "uint256",
              "name": "repayment",
              "type": "uint256"
            },
            {
              "internalType": "enum CheddaLoanManager.RequestState",
              "name": "state",
              "type": "uint8"
            }
          ],
          "internalType": "struct CheddaLoanManager.LoanRequest[]",
          "name": "",
          "type": "tuple[]"
        }
      ],
      "stateMutability": "view",
      "type": "function"
    },
    {
      "inputs": [
        {
          "internalType": "address",
          "name": "borrower",
          "type": "address"
        },
        {
          "internalType": "enum CheddaLoanManager.LoanState",
          "name": "state",
          "type": "uint8"
        }
      ],
      "name": "getLoansBorrowed",
      "outputs": [
        {
          "components": [
            {
              "internalType": "uint256",
              "name": "loanID",
              "type": "uint256"
            },
            {
              "internalType": "address",
              "name": "nftContract",
              "type": "address"
            },
            {
              "internalType": "uint256",
              "name": "tokenID",
              "type": "uint256"
            },
            {
              "internalType": "uint256",
              "name": "principal",
              "type": "uint256"
            },
            {
              "internalType": "uint256",
              "name": "repaymentAmount",
              "type": "uint256"
            },
            {
              "internalType": "uint256",
              "name": "openedAt",
              "type": "uint256"
            },
            {
              "internalType": "uint256",
              "name": "expiresAt",
              "type": "uint256"
            },
            {
              "internalType": "uint256",
              "name": "closedAt",
              "type": "uint256"
            },
            {
              "internalType": "uint32",
              "name": "interestRate",
              "type": "uint32"
            },
            {
              "internalType": "enum CheddaLoanManager.LoanState",
              "name": "state",
              "type": "uint8"
            },
            {
              "internalType": "address payable",
              "name": "lender",
              "type": "address"
            },
            {
              "internalType": "address payable",
              "name": "borrower",
              "type": "address"
            }
          ],
          "internalType": "struct CheddaLoanManager.Loan[]",
          "name": "",
          "type": "tuple[]"
        }
      ],
      "stateMutability": "view",
      "type": "function"
    },
    {
      "inputs": [
        {
          "internalType": "address",
          "name": "lender",
          "type": "address"
        },
        {
          "internalType": "enum CheddaLoanManager.LoanState",
          "name": "state",
          "type": "uint8"
        }
      ],
      "name": "getLoansLent",
      "outputs": [
        {
          "components": [
            {
              "internalType": "uint256",
              "name": "loanID",
              "type": "uint256"
            },
            {
              "internalType": "address",
              "name": "nftContract",
              "type": "address"
            },
            {
              "internalType": "uint256",
              "name": "tokenID",
              "type": "uint256"
            },
            {
              "internalType": "uint256",
              "name": "principal",
              "type": "uint256"
            },
            {
              "internalType": "uint256",
              "name": "repaymentAmount",
              "type": "uint256"
            },
            {
              "internalType": "uint256",
              "name": "openedAt",
              "type": "uint256"
            },
            {
              "internalType": "uint256",
              "name": "expiresAt",
              "type": "uint256"
            },
            {
              "internalType": "uint256",
              "name": "closedAt",
              "type": "uint256"
            },
            {
              "internalType": "uint32",
              "name": "interestRate",
              "type": "uint32"
            },
            {
              "internalType": "enum CheddaLoanManager.LoanState",
              "name": "state",
              "type": "uint8"
            },
            {
              "internalType": "address payable",
              "name": "lender",
              "type": "address"
            },
            {
              "internalType": "address payable",
              "name": "borrower",
              "type": "address"
            }
          ],
          "internalType": "struct CheddaLoanManager.Loan[]",
          "name": "",
          "type": "tuple[]"
        }
      ],
      "stateMutability": "view",
      "type": "function"
    },
    {
      "inputs": [],
      "name": "interestRate",
      "outputs": [
        {
          "internalType": "uint32",
          "name": "",
          "type": "uint32"
        }
      ],
      "stateMutability": "view",
      "type": "function"
    },
    {
      "inputs": [
        {
          "internalType": "uint256",
          "name": "",
          "type": "uint256"
        }
      ],
      "name": "loans",
      "outputs": [
        {
          "internalType": "uint256",
          "name": "loanID",
          "type": "uint256"
        },
        {
          "internalType": "address",
          "name": "nftContract",
          "type": "address"
        },
        {
          "internalType": "uint256",
          "name": "tokenID",
          "type": "uint256"
        },
        {
          "internalType": "uint256",
          "name": "principal",
          "type": "uint256"
        },
        {
          "internalType": "uint256",
          "name": "repaymentAmount",
          "type": "uint256"
        },
        {
          "internalType": "uint256",
          "name": "openedAt",
          "type": "uint256"
        },
        {
          "internalType": "uint256",
          "name": "expiresAt",
          "type": "uint256"
        },
        {
          "internalType": "uint256",
          "name": "closedAt",
          "type": "uint256"
        },
        {
          "internalType": "uint32",
          "name": "interestRate",
          "type": "uint32"
        },
        {
          "internalType": "enum CheddaLoanManager.LoanState",
          "name": "state",
          "type": "uint8"
        },
        {
          "internalType": "address payable",
          "name": "lender",
          "type": "address"
        },
        {
          "internalType": "address payable",
          "name": "borrower",
          "type": "address"
        }
      ],
      "stateMutability": "view",
      "type": "function"
    },
    {
      "inputs": [
        {
          "internalType": "address",
          "name": "",
          "type": "address"
        },
        {
          "internalType": "address",
          "name": "",
          "type": "address"
        },
        {
          "internalType": "uint256",
          "name": "",
          "type": "uint256"
        },
        {
          "internalType": "bytes",
          "name": "",
          "type": "bytes"
        }
      ],
      "name": "onERC721Received",
      "outputs": [
        {
          "internalType": "bytes4",
          "name": "",
          "type": "bytes4"
        }
      ],
      "stateMutability": "pure",
      "type": "function"
    },
    {
      "inputs": [
        {
          "internalType": "uint256",
          "name": "requestID",
          "type": "uint256"
        }
      ],
      "name": "openLoan",
      "outputs": [],
      "stateMutability": "nonpayable",
      "type": "function"
    },
    {
      "inputs": [
        {
          "internalType": "address",
          "name": "",
          "type": "address"
        },
        {
          "internalType": "uint256",
          "name": "",
          "type": "uint256"
        }
      ],
      "name": "openLoans",
      "outputs": [
        {
          "internalType": "uint256",
          "name": "",
          "type": "uint256"
        }
      ],
      "stateMutability": "view",
      "type": "function"
    },
    {
      "inputs": [
        {
          "internalType": "address",
          "name": "",
          "type": "address"
        },
        {
          "internalType": "uint256",
          "name": "",
          "type": "uint256"
        }
      ],
      "name": "openRequests",
      "outputs": [
        {
          "internalType": "uint256",
          "name": "",
          "type": "uint256"
        }
      ],
      "stateMutability": "view",
      "type": "function"
    },
    {
      "inputs": [],
      "name": "owner",
      "outputs": [
        {
          "internalType": "address",
          "name": "",
          "type": "address"
        }
      ],
      "stateMutability": "view",
      "type": "function"
    },
    {
      "inputs": [],
      "name": "registry",
      "outputs": [
        {
          "internalType": "address",
          "name": "",
          "type": "address"
        }
      ],
      "stateMutability": "view",
      "type": "function"
    },
    {
      "inputs": [],
      "name": "renounceOwnership",
      "outputs": [],
      "stateMutability": "nonpayable",
      "type": "function"
    },
    {
      "inputs": [
        {
          "internalType": "uint256",
          "name": "loanID",
          "type": "uint256"
        }
      ],
      "name": "repay",
      "outputs": [],
      "stateMutability": "nonpayable",
      "type": "function"
    },
    {
      "inputs": [
        {
          "internalType": "address",
          "name": "nftContract",
          "type": "address"
        },
        {
          "internalType": "uint256",
          "name": "tokenId",
          "type": "uint256"
        },
        {
          "internalType": "uint256",
          "name": "amountRequested",
          "type": "uint256"
        },
        {
          "internalType": "uint256",
          "name": "duration",
          "type": "uint256"
        }
      ],
      "name": "requestLoan",
      "outputs": [],
      "stateMutability": "nonpayable",
      "type": "function"
    },
    {
      "inputs": [
        {
          "internalType": "uint256",
          "name": "",
          "type": "uint256"
        }
      ],
      "name": "requests",
      "outputs": [
        {
          "internalType": "uint256",
          "name": "requestID",
          "type": "uint256"
        },
        {
          "internalType": "address",
          "name": "nftContract",
          "type": "address"
        },
        {
          "internalType": "uint256",
          "name": "tokenID",
          "type": "uint256"
        },
        {
          "internalType": "uint256",
          "name": "loanLength",
          "type": "uint256"
        },
        {
          "internalType": "address",
          "name": "borrower",
          "type": "address"
        },
        {
          "internalType": "uint256",
          "name": "amount",
          "type": "uint256"
        },
        {
          "internalType": "uint256",
          "name": "repayment",
          "type": "uint256"
        },
        {
          "internalType": "enum CheddaLoanManager.RequestState",
          "name": "state",
          "type": "uint8"
        }
      ],
      "stateMutability": "view",
      "type": "function"
    },
    {
      "inputs": [
        {
          "internalType": "bytes4",
          "name": "interfaceId",
          "type": "bytes4"
        }
      ],
      "name": "supportsInterface",
      "outputs": [
        {
          "internalType": "bool",
          "name": "",
          "type": "bool"
        }
      ],
      "stateMutability": "pure",
      "type": "function"
    },
    {
      "inputs": [],
      "name": "tokenAddress",
      "outputs": [
        {
          "internalType": "address",
          "name": "",
          "type": "address"
        }
      ],
      "stateMutability": "view",
      "type": "function"
    },
    {
      "inputs": [],
      "name": "totalLoanValue",
      "outputs": [
        {
          "internalType": "uint256",
          "name": "",
          "type": "uint256"
        }
      ],
      "stateMutability": "view",
      "type": "function"
    },
    {
      "inputs": [
        {
          "internalType": "address",
          "name": "newOwner",
          "type": "address"
        }
      ],
      "name": "transferOwnership",
      "outputs": [],
      "stateMutability": "nonpayable",
      "type": "function"
    },
    {
      "inputs": [
        {
          "internalType": "address",
          "name": "registryAddress",
          "type": "address"
        }
      ],
      "name": "updateRegistry",
      "outputs": [],
      "stateMutability": "nonpayable",
      "type": "function"
    }
  ],
  "bytecode": "0x60806040526005805463ffffffff19166113881790553480156200002257600080fd5b5060405162003750380380620037508339810160408190526200004591620005eb565b62000050336200007c565b600380546001600160a01b0319166001600160a01b03831617905562000075620000cc565b506200061b565b600080546001600160a01b038381166001600160a01b0319831681178455604051919092169283917f8be0079c531659141344cd1fd0a4f28419497f9722a3daafe3b4186f6b6457e09190a35050565b60006040518061018001604052806000815260200160006001600160a01b03168152602001600081526020016000815260200160008152602001600081526020016000815260200160008152602001600063ffffffff168152602001600060038111156200014a57634e487b7160e01b600052602160045260246000fd5b815260200160006001600160a01b0316815260200160006001600160a01b03168152509050620001866002620005e260201b6200299a1760201c565b6007805460018101825560009190915281517fa66cc928b5edb82af9bd49922954155ab7b0942694bea4ce44661d9a8736c688600a90920291820190815560208301517fa66cc928b5edb82af9bd49922954155ab7b0942694bea4ce44661d9a8736c689830180546001600160a01b0319166001600160a01b0390921691909117905560408301517fa66cc928b5edb82af9bd49922954155ab7b0942694bea4ce44661d9a8736c68a83015560608301517fa66cc928b5edb82af9bd49922954155ab7b0942694bea4ce44661d9a8736c68b83015560808301517fa66cc928b5edb82af9bd49922954155ab7b0942694bea4ce44661d9a8736c68c83015560a08301517fa66cc928b5edb82af9bd49922954155ab7b0942694bea4ce44661d9a8736c68d83015560c08301517fa66cc928b5edb82af9bd49922954155ab7b0942694bea4ce44661d9a8736c68e83015560e08301517fa66cc928b5edb82af9bd49922954155ab7b0942694bea4ce44661d9a8736c68f8301556101008301517fa66cc928b5edb82af9bd49922954155ab7b0942694bea4ce44661d9a8736c690909201805463ffffffff19811663ffffffff9094169384178255610120850151859490929164ffffffffff1916176401000000008360038111156200037b57634e487b7160e01b600052602160045260246000fd5b0217905550610140820151600882018054600160281b600160c81b031916650100000000006001600160a01b039384160217905561016090920151600990910180546001600160a01b031916919092161790556040805161010081018252600080825260208201819052918101829052606081018290526080810182905260a0810182905260c0810182905260e08101828152509050620004286001620005e260201b6200299a1760201c565b6006805460018181018355600092909252825160089091027ff652222313e28459528d920b65115c16c04f3efc82aaedc97be59f3f377c0d3f810191825560208401517ff652222313e28459528d920b65115c16c04f3efc82aaedc97be59f3f377c0d40820180546001600160a01b039283166001600160a01b03199182161790915560408601517ff652222313e28459528d920b65115c16c04f3efc82aaedc97be59f3f377c0d4184015560608601517ff652222313e28459528d920b65115c16c04f3efc82aaedc97be59f3f377c0d4284015560808601517ff652222313e28459528d920b65115c16c04f3efc82aaedc97be59f3f377c0d438401805491909316911617905560a08401517ff652222313e28459528d920b65115c16c04f3efc82aaedc97be59f3f377c0d4482015560c08401517ff652222313e28459528d920b65115c16c04f3efc82aaedc97be59f3f377c0d4582015560e08401517ff652222313e28459528d920b65115c16c04f3efc82aaedc97be59f3f377c0d469091018054859460ff1990911690836003811115620005d757634e487b7160e01b600052602160045260246000fd5b021790555050505050565b80546001019055565b600060208284031215620005fd578081fd5b81516001600160a01b038116811462000614578182fd5b9392505050565b613125806200062b6000396000f3fe608060405234801561001057600080fd5b506004361061014d5760003560e01c80637c3a00fd116100c35780639d76ea581161007c5780639d76ea581461036a578063d93ba2c71461037d578063da0648b714610386578063e1ec3c6814610399578063e50380e0146103c4578063f2fde38b146103d757600080fd5b80637c3a00fd146102c75780637f48886d146102ec57806381d12c581461030c5780638bf1badd146103335780638da5cb5b1461034657806392c79d121461035757600080fd5b8063371fd8e611610115578063371fd8e61461022357806354e3e70d1461023657806366646ba814610249578063715018a6146102745780637b1039991461027c5780637c2de818146102a757600080fd5b806301ffc9a714610152578063150b7a021461018b5780631686fc50146101c25780631a5da6c8146101fb5780633015394c14610210575b600080fd5b610176610160366004612ccc565b6001600160e01b031916630a85bd0160e11b1490565b60405190151581526020015b60405180910390f35b6101a9610199366004612b36565b630a85bd0160e11b949350505050565b6040516001600160e01b03199091168152602001610182565b6101ed6101d0366004612c47565b600a60209081526000928352604080842090915290825290205481565b604051908152602001610182565b61020e610209366004612af7565b6103ea565b005b61020e61021e366004612cf4565b61043f565b61020e610231366004612cf4565b6105e9565b61020e610244366004612cf4565b610928565b6101ed610257366004612c47565b600960209081526000928352604080842090915290825290205481565b61020e611117565b60085461028f906001600160a01b031681565b6040516001600160a01b039091168152602001610182565b6102ba6102b5366004612c0f565b61114d565b6040516101829190612d76565b6005546102d79063ffffffff1681565b60405163ffffffff9091168152602001610182565b6102ff6102fa366004612c0f565b61160a565b6040516101829190612e1a565b61031f61031a366004612cf4565b611ac8565b604051610182989796959493929190612f23565b61020e610341366004612cf4565b611b2d565b6000546001600160a01b031661028f565b61020e610365366004612c72565b611d62565b60035461028f906001600160a01b031681565b6101ed60045481565b6102ff610394366004612c0f565b61234e565b6103ac6103a7366004612cf4565b61280c565b6040516101829c9b9a99989796959493929190612f7a565b6101ed6103d2366004612d24565b612899565b61020e6103e5366004612af7565b6128ff565b6000546001600160a01b0316331461041d5760405162461bcd60e51b815260040161041490612eee565b60405180910390fd5b600880546001600160a01b0319166001600160a01b0392909216919091179055565b60015481106104835760405162461bcd60e51b815260206004820152601060248201526f131bd85b8e88125b9d985b1a59081a5960821b6044820152606401610414565b6000600682815481106104a657634e487b7160e01b600052603260045260246000fd5b906000526020600020906008020190506104bd3390565b60048201546001600160a01b039081169116146105115760405162461bcd60e51b81526020600482015260126024820152712637b0b71d102737ba103137b93937bbb2b960711b6044820152606401610414565b6001600782015460ff16600381111561053a57634e487b7160e01b600052602160045260246000fd5b1461057d5760405162461bcd60e51b81526020600482015260136024820152724c6f616e3a20496e76616c696420737461746560681b6044820152606401610414565b60018101546001600160a01b031660009081526009602090815260408083206002808601548552925280832083905560078401805460ff191690921790915551839133917f1bdb4261b8cc605afbfe72b63a1f1f08ab6eb83dce866bdbed9ba6fc9c74d0049190a35050565b60006007828154811061060c57634e487b7160e01b600052603260045260246000fd5b60009182526020909120600354600a90920201600181015460098201549193506001600160a01b03928316929081169116336001600160a01b03161461068a5760405162461bcd60e51b81526020600482015260136024820152724c6f616e3a2043616e206e6f7420726570617960681b6044820152606401610414565b6004838101546009850154604051636eb1769f60e11b81526001600160a01b039182169381019390935230602484015290919084169063dd62ed3e9060440160206040518083038186803b1580156106e157600080fd5b505afa1580156106f5573d6000803e3d6000fd5b505050506040513d601f19601f820116820180604052508101906107199190612d0c565b101561075b5760405162461bcd60e51b8152602060048201526011602482015270131bd85b8e88139bdd08185b1b1bddd959607a1b6044820152606401610414565b600983015460088401546004808601546040516323b872dd60e01b81526001600160a01b03808816956323b872dd956107a49591831694600160281b9091049092169201612d52565b602060405180830381600087803b1580156107be57600080fd5b505af11580156107d2573d6000803e3d6000fd5b505050506040513d601f19601f820116820180604052508101906107f69190612cac565b5060098301546002840154604051632142170760e11b81526001600160a01b03848116936342842e0e9361083293309390921691600401612d52565b600060405180830381600087803b15801561084c57600080fd5b505af1158015610860573d6000803e3d6000fd5b5050505060088301805464ff00000000191664020000000017905560018301546001600160a01b03166000908152600a60209081526040808320600287015484529091528120819055600384015460048054919290916108c1908490613051565b90915550506008830154600160281b90046001600160a01b0316336001600160a01b03167ffe3c4f4ff6f11a42f9d84f777002ab405a07fc0075a3504d153b0587f61f460e856004015460405161091a91815260200190565b60405180910390a350505050565b60006006828154811061094b57634e487b7160e01b600052603260045260246000fd5b6000918252602090912060089091020190506001600782015460ff16600381111561098657634e487b7160e01b600052602160045260246000fd5b146109c45760405162461bcd60e51b815260206004820152600e60248201526d2637b0b71d102737ba1037b832b760911b6044820152606401610414565b60035460018201546001600160a01b03918216911660003360048581015460058701546040516370a0823160e01b81526001600160a01b03808616948201949094529394509082169290918616906370a082319060240160206040518083038186803b158015610a3357600080fd5b505afa158015610a47573d6000803e3d6000fd5b505050506040513d601f19601f82011682018060405250810190610a6b9190612d0c565b1015610ab95760405162461bcd60e51b815260206004820152601a60248201527f4c6f616e3a20496e73756666696369656e742062616c616e63650000000000006044820152606401610414565b604051636eb1769f60e11b81526001600160a01b0383811660048301523060248301526000919086169063dd62ed3e9060440160206040518083038186803b158015610b0457600080fd5b505afa158015610b18573d6000803e3d6000fd5b505050506040513d601f19601f82011682018060405250810190610b3c9190612d0c565b90508560050154811015610b875760405162461bcd60e51b8152602060048201526012602482015271131bd85b8e88139bdd08185c1c1c9bdd995960721b6044820152606401610414565b600286015460405163020604bf60e21b81526000916001600160a01b0387169163081812fc91610bbd9160040190815260200190565b60206040518083038186803b158015610bd557600080fd5b505afa158015610be9573d6000803e3d6000fd5b505050506040513d601f19601f82011682018060405250810190610c0d9190612b1a565b90506001600160a01b0381163014610c605760405162461bcd60e51b8152602060048201526016602482015275131bd85b8e88139195081b9bdd08185c1c1c9bdd995960521b6044820152606401610414565b6000610c7488600501548960030154612899565b90506000604051806101800160405280610c8d60025490565b815260018b01546001600160a01b0316602082015260028b0154604082015260058b01546060820152608081018490524260a0820181905260038c015460c090920191610cd991612ffa565b81526000602082015260055463ffffffff16604082015260600160018152602001876001600160a01b03168152602001866001600160a01b03168152509050876001600160a01b03166323b872dd610d2e3390565b878c600501546040518463ffffffff1660e01b8152600401610d5293929190612d52565b602060405180830381600087803b158015610d6c57600080fd5b505af1158015610d80573d6000803e3d6000fd5b505050506040513d601f19601f82011682018060405250810190610da49190612cac565b50886005015460046000828254610dbb9190612ffa565b90915550506001890180546001600160a01b03908116600090815260096020908152604080832060028f01805485529083528184208490558651955485168452600a835281842081548552909252918290209390935591549151632142170760e11b8152908916916342842e0e91610e3a918991309190600401612d52565b600060405180830381600087803b158015610e5457600080fd5b505af1158015610e68573d6000803e3d6000fd5b50505050610e7a600280546001019055565b6007805460018101825560009190915281517fa66cc928b5edb82af9bd49922954155ab7b0942694bea4ce44661d9a8736c688600a90920291820190815560208301517fa66cc928b5edb82af9bd49922954155ab7b0942694bea4ce44661d9a8736c689830180546001600160a01b0319166001600160a01b0390921691909117905560408301517fa66cc928b5edb82af9bd49922954155ab7b0942694bea4ce44661d9a8736c68a83015560608301517fa66cc928b5edb82af9bd49922954155ab7b0942694bea4ce44661d9a8736c68b83015560808301517fa66cc928b5edb82af9bd49922954155ab7b0942694bea4ce44661d9a8736c68c83015560a08301517fa66cc928b5edb82af9bd49922954155ab7b0942694bea4ce44661d9a8736c68d83015560c08301517fa66cc928b5edb82af9bd49922954155ab7b0942694bea4ce44661d9a8736c68e83015560e08301517fa66cc928b5edb82af9bd49922954155ab7b0942694bea4ce44661d9a8736c68f8301556101008301517fa66cc928b5edb82af9bd49922954155ab7b0942694bea4ce44661d9a8736c690909201805463ffffffff19811663ffffffff9094169384178255610120850151859490929164ffffffffff191617600160201b83600381111561106d57634e487b7160e01b600052602160045260246000fd5b021790555061014082015160088201805465010000000000600160c81b031916600160281b6001600160a01b039384160217905561016090920151600990910180546001600160a01b0319169183169190911790558516336001600160a01b03167f811b5eb6d1e7a24f2781b4b587808e069ffea8945a0495c3b09802f020228a1f8b6005015460405161110391815260200190565b60405180910390a350505050505050505050565b6000546001600160a01b031633146111415760405162461bcd60e51b815260040161041490612eee565b61114b60006129a3565b565b6060600060015b6006548110156112665760006006828154811061118157634e487b7160e01b600052603260045260246000fd5b6000918252602090912060089091020160048101549091506001600160a01b03878116911614806111b957506001600160a01b038616155b156112535760008560038111156111e057634e487b7160e01b600052602160045260246000fd5b14156111f857826111f081613068565b935050611253565b600781015460ff16600381111561121f57634e487b7160e01b600052602160045260246000fd5b85600381111561123f57634e487b7160e01b600052602160045260246000fd5b1415611253578261124f81613068565b9350505b508061125e81613068565b915050611154565b5060008167ffffffffffffffff81111561129057634e487b7160e01b600052604160045260246000fd5b6040519080825280602002602001820160405280156112c957816020015b6112b66129f3565b8152602001906001900390816112ae5790505b509050600060015b6006548110156115ff576000600682815481106112fe57634e487b7160e01b600052603260045260246000fd5b6000918252602090912060089091020160048101549091506001600160a01b038981169116148061133657506001600160a01b038816155b156115ec57600087600381111561135d57634e487b7160e01b600052602160045260246000fd5b1415611483576006828154811061138457634e487b7160e01b600052603260045260246000fd5b6000918252602091829020604080516101008101825260089093029091018054835260018101546001600160a01b0390811694840194909452600281015491830191909152600380820154606084015260048201549093166080830152600581015460a0830152600681015460c083015260078101549192909160e084019160ff9091169081111561142657634e487b7160e01b600052602160045260246000fd5b600381111561144557634e487b7160e01b600052602160045260246000fd5b905250848461145381613068565b95508151811061147357634e487b7160e01b600052603260045260246000fd5b60200260200101819052506115ec565b600781015460ff1660038111156114aa57634e487b7160e01b600052602160045260246000fd5b8760038111156114ca57634e487b7160e01b600052602160045260246000fd5b14156115ec57600682815481106114f157634e487b7160e01b600052603260045260246000fd5b6000918252602091829020604080516101008101825260089093029091018054835260018101546001600160a01b0390811694840194909452600281015491830191909152600380820154606084015260048201549093166080830152600581015460a0830152600681015460c083015260078101549192909160e084019160ff9091169081111561159357634e487b7160e01b600052602160045260246000fd5b60038111156115b257634e487b7160e01b600052602160045260246000fd5b90525084846115c081613068565b9550815181106115e057634e487b7160e01b600052603260045260246000fd5b60200260200101819052505b50806115f781613068565b9150506112d1565b509095945050505050565b6060600060015b60075481101561180d5760006007828154811061163e57634e487b7160e01b600052603260045260246000fd5b60009182526020918290206040805161018081018252600a939093029091018054835260018101546001600160a01b031693830193909352600283015490820152600380830154606083015260048301546080830152600583015460a0830152600683015460c0830152600783015460e0830152600883015463ffffffff8116610100840152919291610120840191600160201b90910460ff16908111156116f657634e487b7160e01b600052602160045260246000fd5b600381111561171557634e487b7160e01b600052602160045260246000fd5b81526008820154600160281b90046001600160a01b03908116602083015260099092015482166040909101526101408201519192508781169116148061176257506001600160a01b038616155b156117fa57600085600381111561178957634e487b7160e01b600052602160045260246000fd5b14156117a1578261179981613068565b9350506117fa565b80610120015160038111156117c657634e487b7160e01b600052602160045260246000fd5b8560038111156117e657634e487b7160e01b600052602160045260246000fd5b14156117fa57826117f681613068565b9350505b508061180581613068565b915050611611565b5060008167ffffffffffffffff81111561183757634e487b7160e01b600052604160045260246000fd5b60405190808252806020026020018201604052801561187057816020015b61185d612a68565b8152602001906001900390816118555790505b509050600060015b6007548110156115ff576000600782815481106118a557634e487b7160e01b600052603260045260246000fd5b60009182526020918290206040805161018081018252600a939093029091018054835260018101546001600160a01b031693830193909352600283015490820152600380830154606083015260048301546080830152600583015460a0830152600683015460c0830152600783015460e0830152600883015463ffffffff8116610100840152919291610120840191600160201b90910460ff169081111561195d57634e487b7160e01b600052602160045260246000fd5b600381111561197c57634e487b7160e01b600052602160045260246000fd5b81526008820154600160281b90046001600160a01b0390811660208301526009909201548216604090910152610140820151919250898116911614806119c957506001600160a01b038816155b15611ab55760008760038111156119f057634e487b7160e01b600052602160045260246000fd5b1415611a3257808484611a0281613068565b955081518110611a2257634e487b7160e01b600052603260045260246000fd5b6020026020010181905250611ab5565b8061012001516003811115611a5757634e487b7160e01b600052602160045260246000fd5b876003811115611a7757634e487b7160e01b600052602160045260246000fd5b1415611ab557808484611a8981613068565b955081518110611aa957634e487b7160e01b600052603260045260246000fd5b60200260200101819052505b5080611ac081613068565b915050611878565b60068181548110611ad857600080fd5b6000918252602090912060089091020180546001820154600283015460038401546004850154600586015460068701546007909701549597506001600160a01b03948516969395929490911692909160ff1688565b600060078281548110611b5057634e487b7160e01b600052603260045260246000fd5b60009182526020909120600a90910201905060016008820154600160201b900460ff166003811115611b9257634e487b7160e01b600052602160045260246000fd5b148015611ba25750428160060154105b611be45760405162461bcd60e51b81526020600482015260136024820152724c6f616e3a20496e76616c696420737461746560681b6044820152606401610414565b6008810154600160281b90046001600160a01b0316336001600160a01b031614611c435760405162461bcd60e51b815260206004820152601060248201526f2637b0b71d102737ba103632b73232b960811b6044820152606401610414565b600181015460088201546002830154604051632142170760e11b81526001600160a01b039384169384936342842e0e93611c8d933093600160281b90930490921691600401612d52565b600060405180830381600087803b158015611ca757600080fd5b505af1158015611cbb573d6000803e3d6000fd5b5050505060088201805464ff00000000191664030000000017905560018201546001600160a01b03166000908152600a6020908152604080832060028601548452909152812081905560038301546004805491929091611d1c908490613051565b909155505060098201546040516001600160a01b039091169033907fc0b5b9e5198c2a6b0f14769c87a94436bac6e75fb5328d3d1bcab15214c5458390600090a3505050565b60405163020604bf60e21b81526004810184905284908490829030906001600160a01b0383169063081812fc9060240160206040518083038186803b158015611daa57600080fd5b505afa158015611dbe573d6000803e3d6000fd5b505050506040513d601f19601f82011682018060405250810190611de29190612b1a565b6001600160a01b031614611e2d5760405162461bcd60e51b8152602060048201526012602482015271131bd85b8e88139bdd08185c1c1c9bdd995960721b6044820152606401610414565b6001600160a01b038716611e7b5760405162461bcd60e51b81526020600482015260156024820152744c6f616e3a20496e76616c6964206164647265737360581b6044820152606401610414565b600084118015611e8e57506276a7008411155b611ed35760405162461bcd60e51b81526020600482015260166024820152752637b0b71d1024b73b30b634b210323ab930ba34b7b760511b6044820152606401610414565b60008511611f235760405162461bcd60e51b815260206004820152601960248201527f4c6f616e3a20496e76616c6964206c6f616e20616d6f756e74000000000000006044820152606401610414565b86336040516331a9108f60e11b8152600481018990526001600160a01b0391821691831690636352211e9060240160206040518083038186803b158015611f6957600080fd5b505afa158015611f7d573d6000803e3d6000fd5b505050506040513d601f19601f82011682018060405250810190611fa19190612b1a565b6001600160a01b031614611fe95760405162461bcd60e51b815260206004820152600f60248201526e2637b0b71d102737ba1037bbb732b960891b6044820152606401610414565b60405163020604bf60e21b81526004810188905230906001600160a01b0383169063081812fc9060240160206040518083038186803b15801561202b57600080fd5b505afa15801561203f573d6000803e3d6000fd5b505050506040513d601f19601f820116820180604052508101906120639190612b1a565b6001600160a01b0316146120ae5760405162461bcd60e51b81526020600482015260126024820152714c6f616e3a204d75737420617070726f766560701b6044820152606401610414565b60006120ba8787612899565b905060006040518061010001604052806120d360015490565b81526020018b6001600160a01b031681526020018a81526020018881526020016120fa3390565b6001600160a01b03168152602081018a90526040810184905260600160019052600680546001808201835560009290925282517ff652222313e28459528d920b65115c16c04f3efc82aaedc97be59f3f377c0d3f600890920291820190815560208401517ff652222313e28459528d920b65115c16c04f3efc82aaedc97be59f3f377c0d40830180546001600160a01b03199081166001600160a01b039384161790915560408601517ff652222313e28459528d920b65115c16c04f3efc82aaedc97be59f3f377c0d4185015560608601517ff652222313e28459528d920b65115c16c04f3efc82aaedc97be59f3f377c0d4285015560808601517ff652222313e28459528d920b65115c16c04f3efc82aaedc97be59f3f377c0d4385018054909216921691909117905560a08401517ff652222313e28459528d920b65115c16c04f3efc82aaedc97be59f3f377c0d4483015560c08401517ff652222313e28459528d920b65115c16c04f3efc82aaedc97be59f3f377c0d4583015560e08401517ff652222313e28459528d920b65115c16c04f3efc82aaedc97be59f3f377c0d46909201805494955085949193909160ff1916908360038111156122d057634e487b7160e01b600052602160045260246000fd5b021790555050506122e5600180546001019055565b80516001600160a01b038b1660008181526009602090815260408083208e845282529182902093909355518a81528b9233917f8ca033dfe8ac84b6e3e48aa36967e19d52a93a3f4d880ce8005fd4e04c97c94d910160405180910390a450505050505050505050565b6060600060015b6007548110156125515760006007828154811061238257634e487b7160e01b600052603260045260246000fd5b60009182526020918290206040805161018081018252600a939093029091018054835260018101546001600160a01b031693830193909352600283015490820152600380830154606083015260048301546080830152600583015460a0830152600683015460c0830152600783015460e0830152600883015463ffffffff8116610100840152919291610120840191600160201b90910460ff169081111561243a57634e487b7160e01b600052602160045260246000fd5b600381111561245957634e487b7160e01b600052602160045260246000fd5b81526008820154600160281b90046001600160a01b0390811660208301526009909201548216604090910152610160820151919250878116911614806124a657506001600160a01b038616155b1561253e5760008560038111156124cd57634e487b7160e01b600052602160045260246000fd5b14156124e557826124dd81613068565b93505061253e565b806101200151600381111561250a57634e487b7160e01b600052602160045260246000fd5b85600381111561252a57634e487b7160e01b600052602160045260246000fd5b141561253e578261253a81613068565b9350505b508061254981613068565b915050612355565b5060008167ffffffffffffffff81111561257b57634e487b7160e01b600052604160045260246000fd5b6040519080825280602002602001820160405280156125b457816020015b6125a1612a68565b8152602001906001900390816125995790505b509050600060015b6007548110156115ff576000600782815481106125e957634e487b7160e01b600052603260045260246000fd5b60009182526020918290206040805161018081018252600a939093029091018054835260018101546001600160a01b031693830193909352600283015490820152600380830154606083015260048301546080830152600583015460a0830152600683015460c0830152600783015460e0830152600883015463ffffffff8116610100840152919291610120840191600160201b90910460ff16908111156126a157634e487b7160e01b600052602160045260246000fd5b60038111156126c057634e487b7160e01b600052602160045260246000fd5b81526008820154600160281b90046001600160a01b03908116602083015260099092015482166040909101526101608201519192508981169116148061270d57506001600160a01b038816155b156127f957600087600381111561273457634e487b7160e01b600052602160045260246000fd5b14156127765780848461274681613068565b95508151811061276657634e487b7160e01b600052603260045260246000fd5b60200260200101819052506127f9565b806101200151600381111561279b57634e487b7160e01b600052602160045260246000fd5b8760038111156127bb57634e487b7160e01b600052602160045260246000fd5b14156127f9578084846127cd81613068565b9550815181106127ed57634e487b7160e01b600052603260045260246000fd5b60200260200101819052505b508061280481613068565b9150506125bc565b6007818154811061281c57600080fd5b60009182526020909120600a909102018054600182015460028301546003840154600485015460058601546006870154600788015460088901546009909901549799506001600160a01b039687169895979496939592949193909263ffffffff81169260ff600160201b83041692600160281b909204821691168c565b600080620151806128ac61016d85613012565b6005546064906128c29063ffffffff1688613032565b6128cc9190613012565b6128d69190613032565b6128e09190613012565b90506128ed606482613012565b6128f79085612ffa565b949350505050565b6000546001600160a01b031633146129295760405162461bcd60e51b815260040161041490612eee565b6001600160a01b03811661298e5760405162461bcd60e51b815260206004820152602660248201527f4f776e61626c653a206e6577206f776e657220697320746865207a65726f206160448201526564647265737360d01b6064820152608401610414565b612997816129a3565b50565b80546001019055565b600080546001600160a01b038381166001600160a01b0319831681178455604051919092169283917f8be0079c531659141344cd1fd0a4f28419497f9722a3daafe3b4186f6b6457e09190a35050565b6040518061010001604052806000815260200160006001600160a01b03168152602001600081526020016000815260200160006001600160a01b03168152602001600081526020016000815260200160006003811115612a6357634e487b7160e01b600052602160045260246000fd5b905290565b6040518061018001604052806000815260200160006001600160a01b03168152602001600081526020016000815260200160008152602001600081526020016000815260200160008152602001600063ffffffff16815260200160006003811115612ae357634e487b7160e01b600052602160045260246000fd5b815260006020820181905260409091015290565b600060208284031215612b08578081fd5b8135612b13816130cd565b9392505050565b600060208284031215612b2b578081fd5b8151612b13816130cd565b60008060008060808587031215612b4b578283fd5b8435612b56816130cd565b93506020850135612b66816130cd565b925060408501359150606085013567ffffffffffffffff80821115612b89578283fd5b818701915087601f830112612b9c578283fd5b813581811115612bae57612bae613099565b604051601f8201601f19908116603f01168101908382118183101715612bd657612bd6613099565b816040528281528a6020848701011115612bee578586fd5b82602086016020830137918201602001949094529598949750929550505050565b60008060408385031215612c21578182fd5b8235612c2c816130cd565b91506020830135612c3c816130e2565b809150509250929050565b60008060408385031215612c59578182fd5b8235612c64816130cd565b946020939093013593505050565b60008060008060808587031215612c87578384fd5b8435612c92816130cd565b966020860135965060408601359560600135945092505050565b600060208284031215612cbd578081fd5b81518015158114612b13578182fd5b600060208284031215612cdd578081fd5b81356001600160e01b031981168114612b13578182fd5b600060208284031215612d05578081fd5b5035919050565b600060208284031215612d1d578081fd5b5051919050565b60008060408385031215612d36578182fd5b50508035926020909101359150565b612d4e816130af565b9052565b6001600160a01b039384168152919092166020820152604081019190915260600190565b602080825282518282018190526000919060409081850190868401855b82811015612e0d57815180518552868101516001600160a01b03908116888701528682015187870152606080830151908701526080808301519091169086015260a0808201519086015260c0808201519086015260e09081015190612df7826130af565b8501526101009093019290850190600101612d93565b5091979650505050505050565b602080825282518282018190526000919060409081850190868401855b82811015612e0d57815180518552868101516001600160a01b0316878601528581015186860152606080820151908601526080808201519086015260a0808201519086015260c0808201519086015260e080820151908601526101008082015163ffffffff169086015261012080820151612eb482880182612d45565b5050610140818101516001600160a01b03908116918701919091526101609182015116908501526101809093019290850190600101612e37565b6020808252818101527f4f776e61626c653a2063616c6c6572206973206e6f7420746865206f776e6572604082015260600190565b8881526001600160a01b03888116602083015260408201889052606082018790528516608082015260a0810184905260c081018390526101008101612f67836130af565b8260e08301529998505050505050505050565b6000610180820190508d825260018060a01b03808e1660208401528c60408401528b60608401528a60808401528960a08401528860c08401528760e084015263ffffffff8716610100840152612fcf866130af565b85610120840152808516610140840152808416610160840152509d9c50505050505050505050505050565b6000821982111561300d5761300d613083565b500190565b60008261302d57634e487b7160e01b81526012600452602481fd5b500490565b600081600019048311821515161561304c5761304c613083565b500290565b60008282101561306357613063613083565b500390565b600060001982141561307c5761307c613083565b5060010190565b634e487b7160e01b600052601160045260246000fd5b634e487b7160e01b600052604160045260246000fd5b6004811061299757634e487b7160e01b600052602160045260246000fd5b6001600160a01b038116811461299757600080fd5b6004811061299757600080fdfea26469706673582212206e258068f6781f2243152fdc7f257a5265b8bec2330a1aaf3d0f50cc2d07bb7d64736f6c63430008040033",
  "linkReferences": {},
  "deployedLinkReferences": {}
}