{
  "_format": "hh-sol-artifact-1",
  "contractName": "CheddaLoanManager",
  "sourceName": "contracts/lending/LoanManager.sol",
  "abi": [
    {
      "inputs": [
        {
          "internalType": "address",
          "name": "token",
          "type": "address"
        }
      ],
      "stateMutability": "nonpayable",
      "type": "constructor"
    },
    {
      "anonymous": false,
      "inputs": [
        {
          "indexed": true,
          "internalType": "address",
          "name": "by",
          "type": "address"
        },
        {
          "indexed": true,
          "internalType": "address",
          "name": "foreclosedOn",
          "type": "address"
        }
      ],
      "name": "LoanForeclosed",
      "type": "event"
    },
    {
      "anonymous": false,
      "inputs": [
        {
          "indexed": true,
          "internalType": "address",
          "name": "openedByLender",
          "type": "address"
        },
        {
          "indexed": true,
          "internalType": "address",
          "name": "borrower",
          "type": "address"
        },
        {
          "indexed": false,
          "internalType": "uint256",
          "name": "amount",
          "type": "uint256"
        }
      ],
      "name": "LoanOpened",
      "type": "event"
    },
    {
      "anonymous": false,
      "inputs": [
        {
          "indexed": true,
          "internalType": "address",
          "name": "repaidByBorrower",
          "type": "address"
        },
        {
          "indexed": true,
          "internalType": "address",
          "name": "lender",
          "type": "address"
        },
        {
          "indexed": false,
          "internalType": "uint256",
          "name": "repaymentAmount",
          "type": "uint256"
        }
      ],
      "name": "LoanRepaid",
      "type": "event"
    },
    {
      "anonymous": false,
      "inputs": [
        {
          "indexed": true,
          "internalType": "address",
          "name": "by",
          "type": "address"
        },
        {
          "indexed": true,
          "internalType": "address",
          "name": "nftContract",
          "type": "address"
        },
        {
          "indexed": true,
          "internalType": "uint256",
          "name": "tokenId",
          "type": "uint256"
        },
        {
          "indexed": false,
          "internalType": "uint256",
          "name": "amount",
          "type": "uint256"
        }
      ],
      "name": "LoanRequested",
      "type": "event"
    },
    {
      "anonymous": false,
      "inputs": [
        {
          "indexed": true,
          "internalType": "address",
          "name": "previousOwner",
          "type": "address"
        },
        {
          "indexed": true,
          "internalType": "address",
          "name": "newOwner",
          "type": "address"
        }
      ],
      "name": "OwnershipTransferred",
      "type": "event"
    },
    {
      "anonymous": false,
      "inputs": [
        {
          "indexed": true,
          "internalType": "address",
          "name": "by",
          "type": "address"
        },
        {
          "indexed": true,
          "internalType": "uint256",
          "name": "requestId",
          "type": "uint256"
        }
      ],
      "name": "RequestCancelled",
      "type": "event"
    },
    {
      "inputs": [
        {
          "internalType": "uint256",
          "name": "principal",
          "type": "uint256"
        },
        {
          "internalType": "uint256",
          "name": "duration",
          "type": "uint256"
        }
      ],
      "name": "calculateRepaymentAmount",
      "outputs": [
        {
          "internalType": "uint256",
          "name": "",
          "type": "uint256"
        }
      ],
      "stateMutability": "view",
      "type": "function"
    },
    {
      "inputs": [
        {
          "internalType": "uint256",
          "name": "requestId",
          "type": "uint256"
        }
      ],
      "name": "cancelRequest",
      "outputs": [],
      "stateMutability": "nonpayable",
      "type": "function"
    },
    {
      "inputs": [
        {
          "internalType": "uint256",
          "name": "loanID",
          "type": "uint256"
        }
      ],
      "name": "foreclose",
      "outputs": [],
      "stateMutability": "nonpayable",
      "type": "function"
    },
    {
      "inputs": [
        {
          "internalType": "address",
          "name": "user",
          "type": "address"
        },
        {
          "internalType": "enum CheddaLoanManager.RequestState",
          "name": "state",
          "type": "uint8"
        }
      ],
      "name": "getLoanRequests",
      "outputs": [
        {
          "components": [
            {
              "internalType": "uint256",
              "name": "requestID",
              "type": "uint256"
            },
            {
              "internalType": "address",
              "name": "nftContract",
              "type": "address"
            },
            {
              "internalType": "uint256",
              "name": "tokenID",
              "type": "uint256"
            },
            {
              "internalType": "uint256",
              "name": "amount",
              "type": "uint256"
            },
            {
              "internalType": "uint256",
              "name": "loanLength",
              "type": "uint256"
            },
            {
              "internalType": "address",
              "name": "borrower",
              "type": "address"
            },
            {
              "internalType": "enum CheddaLoanManager.RequestState",
              "name": "state",
              "type": "uint8"
            }
          ],
          "internalType": "struct CheddaLoanManager.LoanRequest[]",
          "name": "",
          "type": "tuple[]"
        }
      ],
      "stateMutability": "view",
      "type": "function"
    },
    {
      "inputs": [
        {
          "internalType": "address",
          "name": "borrower",
          "type": "address"
        },
        {
          "internalType": "enum CheddaLoanManager.LoanState",
          "name": "state",
          "type": "uint8"
        }
      ],
      "name": "getLoansBorrowed",
      "outputs": [
        {
          "components": [
            {
              "internalType": "uint256",
              "name": "loanID",
              "type": "uint256"
            },
            {
              "internalType": "address",
              "name": "nftContract",
              "type": "address"
            },
            {
              "internalType": "uint256",
              "name": "tokenID",
              "type": "uint256"
            },
            {
              "internalType": "uint256",
              "name": "principal",
              "type": "uint256"
            },
            {
              "internalType": "uint256",
              "name": "repaymentAmount",
              "type": "uint256"
            },
            {
              "internalType": "uint256",
              "name": "openedAt",
              "type": "uint256"
            },
            {
              "internalType": "uint256",
              "name": "expiresAt",
              "type": "uint256"
            },
            {
              "internalType": "uint256",
              "name": "closedAt",
              "type": "uint256"
            },
            {
              "internalType": "uint32",
              "name": "interestRate",
              "type": "uint32"
            },
            {
              "internalType": "enum CheddaLoanManager.LoanState",
              "name": "state",
              "type": "uint8"
            },
            {
              "internalType": "address payable",
              "name": "lender",
              "type": "address"
            },
            {
              "internalType": "address payable",
              "name": "borrower",
              "type": "address"
            }
          ],
          "internalType": "struct CheddaLoanManager.Loan[]",
          "name": "",
          "type": "tuple[]"
        }
      ],
      "stateMutability": "view",
      "type": "function"
    },
    {
      "inputs": [
        {
          "internalType": "address",
          "name": "lender",
          "type": "address"
        },
        {
          "internalType": "enum CheddaLoanManager.LoanState",
          "name": "state",
          "type": "uint8"
        }
      ],
      "name": "getLoansLent",
      "outputs": [
        {
          "components": [
            {
              "internalType": "uint256",
              "name": "loanID",
              "type": "uint256"
            },
            {
              "internalType": "address",
              "name": "nftContract",
              "type": "address"
            },
            {
              "internalType": "uint256",
              "name": "tokenID",
              "type": "uint256"
            },
            {
              "internalType": "uint256",
              "name": "principal",
              "type": "uint256"
            },
            {
              "internalType": "uint256",
              "name": "repaymentAmount",
              "type": "uint256"
            },
            {
              "internalType": "uint256",
              "name": "openedAt",
              "type": "uint256"
            },
            {
              "internalType": "uint256",
              "name": "expiresAt",
              "type": "uint256"
            },
            {
              "internalType": "uint256",
              "name": "closedAt",
              "type": "uint256"
            },
            {
              "internalType": "uint32",
              "name": "interestRate",
              "type": "uint32"
            },
            {
              "internalType": "enum CheddaLoanManager.LoanState",
              "name": "state",
              "type": "uint8"
            },
            {
              "internalType": "address payable",
              "name": "lender",
              "type": "address"
            },
            {
              "internalType": "address payable",
              "name": "borrower",
              "type": "address"
            }
          ],
          "internalType": "struct CheddaLoanManager.Loan[]",
          "name": "",
          "type": "tuple[]"
        }
      ],
      "stateMutability": "view",
      "type": "function"
    },
    {
      "inputs": [],
      "name": "interestRate",
      "outputs": [
        {
          "internalType": "uint32",
          "name": "",
          "type": "uint32"
        }
      ],
      "stateMutability": "view",
      "type": "function"
    },
    {
      "inputs": [
        {
          "internalType": "uint256",
          "name": "",
          "type": "uint256"
        }
      ],
      "name": "loans",
      "outputs": [
        {
          "internalType": "uint256",
          "name": "loanID",
          "type": "uint256"
        },
        {
          "internalType": "address",
          "name": "nftContract",
          "type": "address"
        },
        {
          "internalType": "uint256",
          "name": "tokenID",
          "type": "uint256"
        },
        {
          "internalType": "uint256",
          "name": "principal",
          "type": "uint256"
        },
        {
          "internalType": "uint256",
          "name": "repaymentAmount",
          "type": "uint256"
        },
        {
          "internalType": "uint256",
          "name": "openedAt",
          "type": "uint256"
        },
        {
          "internalType": "uint256",
          "name": "expiresAt",
          "type": "uint256"
        },
        {
          "internalType": "uint256",
          "name": "closedAt",
          "type": "uint256"
        },
        {
          "internalType": "uint32",
          "name": "interestRate",
          "type": "uint32"
        },
        {
          "internalType": "enum CheddaLoanManager.LoanState",
          "name": "state",
          "type": "uint8"
        },
        {
          "internalType": "address payable",
          "name": "lender",
          "type": "address"
        },
        {
          "internalType": "address payable",
          "name": "borrower",
          "type": "address"
        }
      ],
      "stateMutability": "view",
      "type": "function"
    },
    {
      "inputs": [
        {
          "internalType": "address",
          "name": "",
          "type": "address"
        },
        {
          "internalType": "address",
          "name": "",
          "type": "address"
        },
        {
          "internalType": "uint256",
          "name": "",
          "type": "uint256"
        },
        {
          "internalType": "bytes",
          "name": "",
          "type": "bytes"
        }
      ],
      "name": "onERC721Received",
      "outputs": [
        {
          "internalType": "bytes4",
          "name": "",
          "type": "bytes4"
        }
      ],
      "stateMutability": "pure",
      "type": "function"
    },
    {
      "inputs": [
        {
          "internalType": "uint256",
          "name": "requestID",
          "type": "uint256"
        }
      ],
      "name": "openLoan",
      "outputs": [],
      "stateMutability": "nonpayable",
      "type": "function"
    },
    {
      "inputs": [],
      "name": "owner",
      "outputs": [
        {
          "internalType": "address",
          "name": "",
          "type": "address"
        }
      ],
      "stateMutability": "view",
      "type": "function"
    },
    {
      "inputs": [],
      "name": "registry",
      "outputs": [
        {
          "internalType": "address",
          "name": "",
          "type": "address"
        }
      ],
      "stateMutability": "view",
      "type": "function"
    },
    {
      "inputs": [],
      "name": "renounceOwnership",
      "outputs": [],
      "stateMutability": "nonpayable",
      "type": "function"
    },
    {
      "inputs": [
        {
          "internalType": "uint256",
          "name": "loanID",
          "type": "uint256"
        }
      ],
      "name": "repay",
      "outputs": [],
      "stateMutability": "nonpayable",
      "type": "function"
    },
    {
      "inputs": [
        {
          "internalType": "address",
          "name": "nftContract",
          "type": "address"
        },
        {
          "internalType": "uint256",
          "name": "tokenId",
          "type": "uint256"
        },
        {
          "internalType": "uint256",
          "name": "amountRequested",
          "type": "uint256"
        },
        {
          "internalType": "uint256",
          "name": "duration",
          "type": "uint256"
        }
      ],
      "name": "requestLoan",
      "outputs": [],
      "stateMutability": "nonpayable",
      "type": "function"
    },
    {
      "inputs": [
        {
          "internalType": "uint256",
          "name": "",
          "type": "uint256"
        }
      ],
      "name": "requests",
      "outputs": [
        {
          "internalType": "uint256",
          "name": "requestID",
          "type": "uint256"
        },
        {
          "internalType": "address",
          "name": "nftContract",
          "type": "address"
        },
        {
          "internalType": "uint256",
          "name": "tokenID",
          "type": "uint256"
        },
        {
          "internalType": "uint256",
          "name": "amount",
          "type": "uint256"
        },
        {
          "internalType": "uint256",
          "name": "loanLength",
          "type": "uint256"
        },
        {
          "internalType": "address",
          "name": "borrower",
          "type": "address"
        },
        {
          "internalType": "enum CheddaLoanManager.RequestState",
          "name": "state",
          "type": "uint8"
        }
      ],
      "stateMutability": "view",
      "type": "function"
    },
    {
      "inputs": [
        {
          "internalType": "bytes4",
          "name": "interfaceId",
          "type": "bytes4"
        }
      ],
      "name": "supportsInterface",
      "outputs": [
        {
          "internalType": "bool",
          "name": "",
          "type": "bool"
        }
      ],
      "stateMutability": "pure",
      "type": "function"
    },
    {
      "inputs": [],
      "name": "tokenAddress",
      "outputs": [
        {
          "internalType": "address",
          "name": "",
          "type": "address"
        }
      ],
      "stateMutability": "view",
      "type": "function"
    },
    {
      "inputs": [],
      "name": "totalLoanValue",
      "outputs": [
        {
          "internalType": "uint256",
          "name": "",
          "type": "uint256"
        }
      ],
      "stateMutability": "view",
      "type": "function"
    },
    {
      "inputs": [
        {
          "internalType": "address",
          "name": "newOwner",
          "type": "address"
        }
      ],
      "name": "transferOwnership",
      "outputs": [],
      "stateMutability": "nonpayable",
      "type": "function"
    },
    {
      "inputs": [
        {
          "internalType": "address",
          "name": "registryAddress",
          "type": "address"
        }
      ],
      "name": "updateRegistry",
      "outputs": [],
      "stateMutability": "nonpayable",
      "type": "function"
    }
  ],
  "bytecode": "0x60806040526005805463ffffffff19166113881790553480156200002257600080fd5b5060405162002f8638038062002f868339810160408190526200004591620000c6565b620000503362000076565b600380546001600160a01b0319166001600160a01b0392909216919091179055620000f6565b600080546001600160a01b038381166001600160a01b0319831681178455604051919092169283917f8be0079c531659141344cd1fd0a4f28419497f9722a3daafe3b4186f6b6457e09190a35050565b600060208284031215620000d8578081fd5b81516001600160a01b0381168114620000ef578182fd5b9392505050565b612e8080620001066000396000f3fe608060405234801561001057600080fd5b50600436106101375760003560e01c80637f48886d116100b85780639d76ea581161007c5780639d76ea58146102ef578063d93ba2c714610302578063da0648b714610319578063e1ec3c681461032c578063e50380e014610357578063f2fde38b1461036a57600080fd5b80637f48886d1461027257806381d12c58146102925780638bf1badd146102b85780638da5cb5b146102cb57806392c79d12146102dc57600080fd5b806354e3e70d116100ff57806354e3e70d146101e7578063715018a6146101fa5780637b103999146102025780637c2de8181461022d5780637c3a00fd1461024d57600080fd5b806301ffc9a71461013c578063150b7a02146101755780631a5da6c8146101ac5780633015394c146101c1578063371fd8e6146101d4575b600080fd5b61016061014a366004612a3b565b6001600160e01b031916630a85bd0160e11b1490565b60405190151581526020015b60405180910390f35b6101936101833660046128d0565b630a85bd0160e11b949350505050565b6040516001600160e01b0319909116815260200161016c565b6101bf6101ba366004612891565b61037d565b005b6101bf6101cf366004612a63565b6103d2565b6101bf6101e2366004612a63565b610518565b6101bf6101f5366004612a63565b610828565b6101bf610fd8565b600854610215906001600160a01b031681565b6040516001600160a01b03909116815260200161016c565b61024061023b3660046129a9565b61100e565b60405161016c9190612ae5565b60055461025d9063ffffffff1681565b60405163ffffffff909116815260200161016c565b6102856102803660046129a9565b61149f565b60405161016c9190612b7e565b6102a56102a0366004612a63565b611937565b60405161016c9796959493929190612c87565b6101bf6102c6366004612a63565b611996565b6000546001600160a01b0316610215565b6101bf6102ea3660046129e1565b611b9c565b600354610215906001600160a01b031681565b61030b60045481565b60405190815260200161016c565b6102856103273660046129a9565b61211f565b61033f61033a366004612a63565b6125b7565b60405161016c9c9b9a99989796959493929190612cd5565b61030b610365366004612a93565b612644565b6101bf610378366004612891565b6126aa565b6000546001600160a01b031633146103b05760405162461bcd60e51b81526004016103a790612c52565b60405180910390fd5b600880546001600160a01b0319166001600160a01b0392909216919091179055565b6000600682815481106103f557634e487b7160e01b600052603260045260246000fd5b9060005260206000209060060201905061040c3390565b60058201546001600160a01b0390811691161461045f5760405162461bcd60e51b8152602060048201526011602482015270131bd85b8e88139bdd08185b1b1bddd959607a1b60448201526064016103a7565b60016005820154600160a01b900460ff16600381111561048f57634e487b7160e01b600052602160045260246000fd5b146104d25760405162461bcd60e51b81526020600482015260136024820152724c6f616e3a20496e76616c696420737461746560681b60448201526064016103a7565b60058101805460ff60a01b1916600160a11b179055604051829033907f1bdb4261b8cc605afbfe72b63a1f1f08ab6eb83dce866bdbed9ba6fc9c74d00490600090a35050565b60006007828154811061053b57634e487b7160e01b600052603260045260246000fd5b60009182526020909120600354600a90920201600181015460098201549193506001600160a01b03928316929081169116336001600160a01b0316146105b95760405162461bcd60e51b81526020600482015260136024820152724c6f616e3a2043616e206e6f7420726570617960681b60448201526064016103a7565b6004838101546009850154604051636eb1769f60e11b81526001600160a01b039182169381019390935230602484015290919084169063dd62ed3e9060440160206040518083038186803b15801561061057600080fd5b505afa158015610624573d6000803e3d6000fd5b505050506040513d601f19601f820116820180604052508101906106489190612a7b565b101561068a5760405162461bcd60e51b8152602060048201526011602482015270131bd85b8e88139bdd08185b1b1bddd959607a1b60448201526064016103a7565b600983015460088401546004808601546040516323b872dd60e01b81526001600160a01b03808816956323b872dd956106d39591831694600160281b9091049092169201612ac1565b602060405180830381600087803b1580156106ed57600080fd5b505af1158015610701573d6000803e3d6000fd5b505050506040513d601f19601f820116820180604052508101906107259190612a1b565b5060098301546002840154604051632142170760e11b81526001600160a01b03848116936342842e0e9361076193309390921691600401612ac1565b600060405180830381600087803b15801561077b57600080fd5b505af115801561078f573d6000803e3d6000fd5b5050505060088301805464ff0000000019166402000000001790556003830154600480546000906107c1908490612dac565b90915550506008830154600160281b90046001600160a01b0316336001600160a01b03167ffe3c4f4ff6f11a42f9d84f777002ab405a07fc0075a3504d153b0587f61f460e856004015460405161081a91815260200190565b60405180910390a350505050565b60006006828154811061084b57634e487b7160e01b600052603260045260246000fd5b60009182526020909120600690910201905060016005820154600160a01b900460ff16600381111561088d57634e487b7160e01b600052602160045260246000fd5b146108cb5760405162461bcd60e51b815260206004820152600e60248201526d2637b0b71d102737ba1037b832b760911b60448201526064016103a7565b60035460018201546001600160a01b039182169116600033600585015460038601546040516370a0823160e01b81526001600160a01b038085166004830152939450918316929091908616906370a082319060240160206040518083038186803b15801561093857600080fd5b505afa15801561094c573d6000803e3d6000fd5b505050506040513d601f19601f820116820180604052508101906109709190612a7b565b10156109be5760405162461bcd60e51b815260206004820152601a60248201527f4c6f616e3a20496e73756666696369656e742062616c616e636500000000000060448201526064016103a7565b604051636eb1769f60e11b81526001600160a01b0383811660048301523060248301526000919086169063dd62ed3e9060440160206040518083038186803b158015610a0957600080fd5b505afa158015610a1d573d6000803e3d6000fd5b505050506040513d601f19601f82011682018060405250810190610a419190612a7b565b90508560030154811015610a8c5760405162461bcd60e51b8152602060048201526012602482015271131bd85b8e88139bdd08185c1c1c9bdd995960721b60448201526064016103a7565b600286015460405163020604bf60e21b81526000916001600160a01b0387169163081812fc91610ac29160040190815260200190565b60206040518083038186803b158015610ada57600080fd5b505afa158015610aee573d6000803e3d6000fd5b505050506040513d601f19601f82011682018060405250810190610b1291906128b4565b90506001600160a01b0381163014610b655760405162461bcd60e51b8152602060048201526016602482015275131bd85b8e88139195081b9bdd08185c1c1c9bdd995960521b60448201526064016103a7565b6000610b7988600301548960040154612644565b90506000604051806101800160405280610b9260025490565b815260018b01546001600160a01b0316602082015260028b0154604082015260038b01546060820152608081018490524260a0820181905260048c015460c090920191610bde91612d55565b81526000602082015260055463ffffffff16604082015260600160018152602001876001600160a01b03168152602001866001600160a01b03168152509050876001600160a01b03166323b872dd610c333390565b878c600301546040518463ffffffff1660e01b8152600401610c5793929190612ac1565b602060405180830381600087803b158015610c7157600080fd5b505af1158015610c85573d6000803e3d6000fd5b505050506040513d601f19601f82011682018060405250810190610ca99190612a1b565b50886003015460046000828254610cc09190612d55565b90915550506002890154604051632142170760e11b81526001600160a01b038916916342842e0e91610cf9918991309190600401612ac1565b600060405180830381600087803b158015610d1357600080fd5b505af1158015610d27573d6000803e3d6000fd5b5050600780546001810182556000919091528351600a9091027fa66cc928b5edb82af9bd49922954155ab7b0942694bea4ce44661d9a8736c688810191825560208501517fa66cc928b5edb82af9bd49922954155ab7b0942694bea4ce44661d9a8736c689820180546001600160a01b039092166001600160a01b031990921691909117905560408501517fa66cc928b5edb82af9bd49922954155ab7b0942694bea4ce44661d9a8736c68a82015560608501517fa66cc928b5edb82af9bd49922954155ab7b0942694bea4ce44661d9a8736c68b82015560808501517fa66cc928b5edb82af9bd49922954155ab7b0942694bea4ce44661d9a8736c68c82015560a08501517fa66cc928b5edb82af9bd49922954155ab7b0942694bea4ce44661d9a8736c68d82015560c08501517fa66cc928b5edb82af9bd49922954155ab7b0942694bea4ce44661d9a8736c68e82015560e08501517fa66cc928b5edb82af9bd49922954155ab7b0942694bea4ce44661d9a8736c68f8201556101008501517fa66cc928b5edb82af9bd49922954155ab7b0942694bea4ce44661d9a8736c690909101805463ffffffff90921663ffffffff19831681178255610120870151879650939450909164ffffffffff191617600160201b836003811115610f1f57634e487b7160e01b600052602160045260246000fd5b021790555061014082015160088201805465010000000000600160c81b031916600160281b6001600160a01b039384160217905561016090920151600990910180546001600160a01b031916919092161790556002805460010190556001600160a01b038516336001600160a01b03167f811b5eb6d1e7a24f2781b4b587808e069ffea8945a0495c3b09802f020228a1f8b60030154604051610fc491815260200190565b60405180910390a350505050505050505050565b6000546001600160a01b031633146110025760405162461bcd60e51b81526004016103a790612c52565b61100c6000612745565b565b60606000805b60065481101561111b5760006006828154811061104157634e487b7160e01b600052603260045260246000fd5b6000918252602090912060069091020160058101549091506001600160a01b038781169116141561110857600085600381111561108e57634e487b7160e01b600052602160045260246000fd5b14156110a6578261109e81612dc3565b935050611108565b6005810154600160a01b900460ff1660038111156110d457634e487b7160e01b600052602160045260246000fd5b8560038111156110f457634e487b7160e01b600052602160045260246000fd5b1415611108578261110481612dc3565b9350505b508061111381612dc3565b915050611014565b5060008167ffffffffffffffff81111561114557634e487b7160e01b600052604160045260246000fd5b60405190808252806020026020018201604052801561117e57816020015b61116b612795565b8152602001906001900390816111635790505b5090506000805b600654811015611494576000600682815481106111b257634e487b7160e01b600052603260045260246000fd5b6000918252602090912060069091020160058101549091506001600160a01b03898116911614156114815760008760038111156111ff57634e487b7160e01b600052602160045260246000fd5b141561131b576006828154811061122657634e487b7160e01b600052603260045260246000fd5b60009182526020918290206040805160e08101825260069093029091018054835260018101546001600160a01b0390811694840194909452600281015491830191909152600380820154606084015260048201546080840152600582015493841660a08401529192909160c084019160ff600160a01b90910416908111156112be57634e487b7160e01b600052602160045260246000fd5b60038111156112dd57634e487b7160e01b600052602160045260246000fd5b90525084846112eb81612dc3565b95508151811061130b57634e487b7160e01b600052603260045260246000fd5b6020026020010181905250611481565b6005810154600160a01b900460ff16600381111561134957634e487b7160e01b600052602160045260246000fd5b87600381111561136957634e487b7160e01b600052602160045260246000fd5b1415611481576006828154811061139057634e487b7160e01b600052603260045260246000fd5b60009182526020918290206040805160e08101825260069093029091018054835260018101546001600160a01b0390811694840194909452600281015491830191909152600380820154606084015260048201546080840152600582015493841660a08401529192909160c084019160ff600160a01b909104169081111561142857634e487b7160e01b600052602160045260246000fd5b600381111561144757634e487b7160e01b600052602160045260246000fd5b905250848461145581612dc3565b95508151811061147557634e487b7160e01b600052603260045260246000fd5b60200260200101819052505b508061148c81612dc3565b915050611185565b509095945050505050565b60606000805b60075481101561168f576000600782815481106114d257634e487b7160e01b600052603260045260246000fd5b60009182526020918290206040805161018081018252600a939093029091018054835260018101546001600160a01b031693830193909352600283015490820152600380830154606083015260048301546080830152600583015460a0830152600683015460c0830152600783015460e0830152600883015463ffffffff8116610100840152919291610120840191600160201b90910460ff169081111561158a57634e487b7160e01b600052602160045260246000fd5b60038111156115a957634e487b7160e01b600052602160045260246000fd5b81526008820154600160281b90046001600160a01b03908116602083015260099092015482166040909101526101408201519192508781169116141561167c57600085600381111561160b57634e487b7160e01b600052602160045260246000fd5b1415611623578261161b81612dc3565b93505061167c565b806101200151600381111561164857634e487b7160e01b600052602160045260246000fd5b85600381111561166857634e487b7160e01b600052602160045260246000fd5b141561167c578261167881612dc3565b9350505b508061168781612dc3565b9150506114a5565b5060008167ffffffffffffffff8111156116b957634e487b7160e01b600052604160045260246000fd5b6040519080825280602002602001820160405280156116f257816020015b6116df612802565b8152602001906001900390816116d75790505b5090506000805b6007548110156114945760006007828154811061172657634e487b7160e01b600052603260045260246000fd5b60009182526020918290206040805161018081018252600a939093029091018054835260018101546001600160a01b031693830193909352600283015490820152600380830154606083015260048301546080830152600583015460a0830152600683015460c0830152600783015460e0830152600883015463ffffffff8116610100840152919291610120840191600160201b90910460ff16908111156117de57634e487b7160e01b600052602160045260246000fd5b60038111156117fd57634e487b7160e01b600052602160045260246000fd5b81526008820154600160281b90046001600160a01b03908116602083015260099092015482166040909101526101408201519192508981169116141561192457600087600381111561185f57634e487b7160e01b600052602160045260246000fd5b14156118a15780848461187181612dc3565b95508151811061189157634e487b7160e01b600052603260045260246000fd5b6020026020010181905250611924565b80610120015160038111156118c657634e487b7160e01b600052602160045260246000fd5b8760038111156118e657634e487b7160e01b600052602160045260246000fd5b1415611924578084846118f881612dc3565b95508151811061191857634e487b7160e01b600052603260045260246000fd5b60200260200101819052505b508061192f81612dc3565b9150506116f9565b6006818154811061194757600080fd5b60009182526020909120600690910201805460018201546002830154600384015460048501546005909501549395506001600160a01b039283169491939092811690600160a01b900460ff1687565b6000600782815481106119b957634e487b7160e01b600052603260045260246000fd5b60009182526020909120600a90910201905060016008820154600160201b900460ff1660038111156119fb57634e487b7160e01b600052602160045260246000fd5b148015611a0b5750428160060154105b611a4d5760405162461bcd60e51b81526020600482015260136024820152724c6f616e3a20496e76616c696420737461746560681b60448201526064016103a7565b6008810154600160281b90046001600160a01b0316336001600160a01b031614611aac5760405162461bcd60e51b815260206004820152601060248201526f2637b0b71d102737ba103632b73232b960811b60448201526064016103a7565b600181015460088201546002830154604051632142170760e11b81526001600160a01b039384169384936342842e0e93611af6933093600160281b90930490921691600401612ac1565b600060405180830381600087803b158015611b1057600080fd5b505af1158015611b24573d6000803e3d6000fd5b5050505060088201805464ff000000001916640300000000179055600382015460048054600090611b56908490612dac565b909155505060098201546040516001600160a01b039091169033907fc0b5b9e5198c2a6b0f14769c87a94436bac6e75fb5328d3d1bcab15214c5458390600090a3505050565b60405163020604bf60e21b81526004810184905284908490829030906001600160a01b0383169063081812fc9060240160206040518083038186803b158015611be457600080fd5b505afa158015611bf8573d6000803e3d6000fd5b505050506040513d601f19601f82011682018060405250810190611c1c91906128b4565b6001600160a01b031614611c675760405162461bcd60e51b8152602060048201526012602482015271131bd85b8e88139bdd08185c1c1c9bdd995960721b60448201526064016103a7565b6001600160a01b038716611cb55760405162461bcd60e51b81526020600482015260156024820152744c6f616e3a20496e76616c6964206164647265737360581b60448201526064016103a7565b600084118015611cc857506276a7008411155b611d0d5760405162461bcd60e51b81526020600482015260166024820152752637b0b71d1024b73b30b634b210323ab930ba34b7b760511b60448201526064016103a7565b60008511611d5d5760405162461bcd60e51b815260206004820152601960248201527f4c6f616e3a20496e76616c6964206c6f616e20616d6f756e740000000000000060448201526064016103a7565b86336040516331a9108f60e11b8152600481018990526001600160a01b0391821691831690636352211e9060240160206040518083038186803b158015611da357600080fd5b505afa158015611db7573d6000803e3d6000fd5b505050506040513d601f19601f82011682018060405250810190611ddb91906128b4565b6001600160a01b031614611e235760405162461bcd60e51b815260206004820152600f60248201526e2637b0b71d102737ba1037bbb732b960891b60448201526064016103a7565b60405163020604bf60e21b81526004810188905230906001600160a01b0383169063081812fc9060240160206040518083038186803b158015611e6557600080fd5b505afa158015611e79573d6000803e3d6000fd5b505050506040513d601f19601f82011682018060405250810190611e9d91906128b4565b6001600160a01b031614611ee85760405162461bcd60e51b81526020600482015260126024820152714c6f616e3a204d75737420617070726f766560701b60448201526064016103a7565b60006040518060e00160405280611efe60015490565b81526020018a6001600160a01b03168152602001898152602001888152602001878152602001611f2b3390565b6001600160a01b03168152602001600190529050611f4d600180546001019055565b600680546001810182556000829052825191027ff652222313e28459528d920b65115c16c04f3efc82aaedc97be59f3f377c0d3f810191825560208301517ff652222313e28459528d920b65115c16c04f3efc82aaedc97be59f3f377c0d40820180546001600160a01b039283166001600160a01b03199182161790915560408501517ff652222313e28459528d920b65115c16c04f3efc82aaedc97be59f3f377c0d4184015560608501517ff652222313e28459528d920b65115c16c04f3efc82aaedc97be59f3f377c0d4284015560808501517ff652222313e28459528d920b65115c16c04f3efc82aaedc97be59f3f377c0d4384015560a08501517ff652222313e28459528d920b65115c16c04f3efc82aaedc97be59f3f377c0d449093018054939092169083168117825560c08501518594939092916001600160a81b031990911617600160a01b8360038111156120b957634e487b7160e01b600052602160045260246000fd5b0217905550505087896001600160a01b03166120d23390565b6001600160a01b03167f8ca033dfe8ac84b6e3e48aa36967e19d52a93a3f4d880ce8005fd4e04c97c94d8a60405161210c91815260200190565b60405180910390a4505050505050505050565b60606000805b60075481101561230f5760006007828154811061215257634e487b7160e01b600052603260045260246000fd5b60009182526020918290206040805161018081018252600a939093029091018054835260018101546001600160a01b031693830193909352600283015490820152600380830154606083015260048301546080830152600583015460a0830152600683015460c0830152600783015460e0830152600883015463ffffffff8116610100840152919291610120840191600160201b90910460ff169081111561220a57634e487b7160e01b600052602160045260246000fd5b600381111561222957634e487b7160e01b600052602160045260246000fd5b81526008820154600160281b90046001600160a01b0390811660208301526009909201548216604090910152610160820151919250878116911614156122fc57600085600381111561228b57634e487b7160e01b600052602160045260246000fd5b14156122a3578261229b81612dc3565b9350506122fc565b80610120015160038111156122c857634e487b7160e01b600052602160045260246000fd5b8560038111156122e857634e487b7160e01b600052602160045260246000fd5b14156122fc57826122f881612dc3565b9350505b508061230781612dc3565b915050612125565b5060008167ffffffffffffffff81111561233957634e487b7160e01b600052604160045260246000fd5b60405190808252806020026020018201604052801561237257816020015b61235f612802565b8152602001906001900390816123575790505b5090506000805b600754811015611494576000600782815481106123a657634e487b7160e01b600052603260045260246000fd5b60009182526020918290206040805161018081018252600a939093029091018054835260018101546001600160a01b031693830193909352600283015490820152600380830154606083015260048301546080830152600583015460a0830152600683015460c0830152600783015460e0830152600883015463ffffffff8116610100840152919291610120840191600160201b90910460ff169081111561245e57634e487b7160e01b600052602160045260246000fd5b600381111561247d57634e487b7160e01b600052602160045260246000fd5b81526008820154600160281b90046001600160a01b0390811660208301526009909201548216604090910152610160820151919250898116911614156125a45760008760038111156124df57634e487b7160e01b600052602160045260246000fd5b1415612521578084846124f181612dc3565b95508151811061251157634e487b7160e01b600052603260045260246000fd5b60200260200101819052506125a4565b806101200151600381111561254657634e487b7160e01b600052602160045260246000fd5b87600381111561256657634e487b7160e01b600052602160045260246000fd5b14156125a45780848461257881612dc3565b95508151811061259857634e487b7160e01b600052603260045260246000fd5b60200260200101819052505b50806125af81612dc3565b915050612379565b600781815481106125c757600080fd5b60009182526020909120600a909102018054600182015460028301546003840154600485015460058601546006870154600788015460088901546009909901549799506001600160a01b039687169895979496939592949193909263ffffffff81169260ff600160201b83041692600160281b909204821691168c565b6000806201518061265761016d85612d6d565b60055460649061266d9063ffffffff1688612d8d565b6126779190612d6d565b6126819190612d8d565b61268b9190612d6d565b9050612698606482612d6d565b6126a29085612d55565b949350505050565b6000546001600160a01b031633146126d45760405162461bcd60e51b81526004016103a790612c52565b6001600160a01b0381166127395760405162461bcd60e51b815260206004820152602660248201527f4f776e61626c653a206e6577206f776e657220697320746865207a65726f206160448201526564647265737360d01b60648201526084016103a7565b61274281612745565b50565b600080546001600160a01b038381166001600160a01b0319831681178455604051919092169283917f8be0079c531659141344cd1fd0a4f28419497f9722a3daafe3b4186f6b6457e09190a35050565b6040518060e001604052806000815260200160006001600160a01b0316815260200160008152602001600081526020016000815260200160006001600160a01b03168152602001600060038111156127fd57634e487b7160e01b600052602160045260246000fd5b905290565b6040518061018001604052806000815260200160006001600160a01b03168152602001600081526020016000815260200160008152602001600081526020016000815260200160008152602001600063ffffffff1681526020016000600381111561287d57634e487b7160e01b600052602160045260246000fd5b815260006020820181905260409091015290565b6000602082840312156128a2578081fd5b81356128ad81612e28565b9392505050565b6000602082840312156128c5578081fd5b81516128ad81612e28565b600080600080608085870312156128e5578283fd5b84356128f081612e28565b9350602085013561290081612e28565b925060408501359150606085013567ffffffffffffffff80821115612923578283fd5b818701915087601f830112612936578283fd5b81358181111561294857612948612df4565b604051601f8201601f19908116603f0116810190838211818310171561297057612970612df4565b816040528281528a6020848701011115612988578586fd5b82602086016020830137918201602001949094529598949750929550505050565b600080604083850312156129bb578182fd5b82356129c681612e28565b915060208301356129d681612e3d565b809150509250929050565b600080600080608085870312156129f6578384fd5b8435612a0181612e28565b966020860135965060408601359560600135945092505050565b600060208284031215612a2c578081fd5b815180151581146128ad578182fd5b600060208284031215612a4c578081fd5b81356001600160e01b0319811681146128ad578182fd5b600060208284031215612a74578081fd5b5035919050565b600060208284031215612a8c578081fd5b5051919050565b60008060408385031215612aa5578182fd5b50508035926020909101359150565b612abd81612e0a565b9052565b6001600160a01b039384168152919092166020820152604081019190915260600190565b602080825282518282018190526000919060409081850190868401855b82811015612b7157815180518552868101516001600160a01b03908116888701528682015187870152606080830151908701526080808301519087015260a0808301519091169086015260c09081015190612b5c82612e0a565b85015260e09093019290850190600101612b02565b5091979650505050505050565b602080825282518282018190526000919060409081850190868401855b82811015612b7157815180518552868101516001600160a01b0316878601528581015186860152606080820151908601526080808201519086015260a0808201519086015260c0808201519086015260e080820151908601526101008082015163ffffffff169086015261012080820151612c1882880182612ab4565b5050610140818101516001600160a01b03908116918701919091526101609182015116908501526101809093019290850190600101612b9b565b6020808252818101527f4f776e61626c653a2063616c6c6572206973206e6f7420746865206f776e6572604082015260600190565b8781526001600160a01b038781166020830152604082018790526060820186905260808201859052831660a082015260e08101612cc383612e0a565b8260c083015298975050505050505050565b6000610180820190508d825260018060a01b03808e1660208401528c60408401528b60608401528a60808401528960a08401528860c08401528760e084015263ffffffff8716610100840152612d2a86612e0a565b85610120840152808516610140840152808416610160840152509d9c50505050505050505050505050565b60008219821115612d6857612d68612dde565b500190565b600082612d8857634e487b7160e01b81526012600452602481fd5b500490565b6000816000190483118215151615612da757612da7612dde565b500290565b600082821015612dbe57612dbe612dde565b500390565b6000600019821415612dd757612dd7612dde565b5060010190565b634e487b7160e01b600052601160045260246000fd5b634e487b7160e01b600052604160045260246000fd5b6004811061274257634e487b7160e01b600052602160045260246000fd5b6001600160a01b038116811461274257600080fd5b6004811061274257600080fdfea2646970667358221220e7a0b13d08dd6a5e69ddc9b66920fc3cde62e48d2ef5667b8bf63c4c5b34055164736f6c63430008040033",
  "linkReferences": {},
  "deployedLinkReferences": {}
}