{
  "_format": "hh-sol-artifact-1",
  "contractName": "CheddaRewards",
  "sourceName": "contracts/chedda/CheddaRewards.sol",
  "abi": [
    {
      "inputs": [],
      "stateMutability": "nonpayable",
      "type": "constructor"
    },
    {
      "anonymous": false,
      "inputs": [
        {
          "indexed": true,
          "internalType": "address",
          "name": "previousOwner",
          "type": "address"
        },
        {
          "indexed": true,
          "internalType": "address",
          "name": "newOwner",
          "type": "address"
        }
      ],
      "name": "OwnershipTransferred",
      "type": "event"
    },
    {
      "anonymous": false,
      "inputs": [
        {
          "indexed": true,
          "internalType": "enum Actions",
          "name": "a",
          "type": "uint8"
        },
        {
          "indexed": true,
          "internalType": "uint256",
          "name": "amount",
          "type": "uint256"
        },
        {
          "indexed": true,
          "internalType": "address",
          "name": "user",
          "type": "address"
        }
      ],
      "name": "RewardsIssued",
      "type": "event"
    },
    {
      "anonymous": false,
      "inputs": [
        {
          "indexed": false,
          "internalType": "uint256",
          "name": "amount",
          "type": "uint256"
        },
        {
          "indexed": true,
          "internalType": "address",
          "name": "user",
          "type": "address"
        }
      ],
      "name": "RewardsSlashed",
      "type": "event"
    },
    {
      "inputs": [],
      "name": "BOARD_LENGTH",
      "outputs": [
        {
          "internalType": "uint8",
          "name": "",
          "type": "uint8"
        }
      ],
      "stateMutability": "view",
      "type": "function"
    },
    {
      "inputs": [],
      "name": "MAX_BOARD_LENGTH",
      "outputs": [
        {
          "internalType": "uint8",
          "name": "",
          "type": "uint8"
        }
      ],
      "stateMutability": "view",
      "type": "function"
    },
    {
      "inputs": [],
      "name": "POINTS_PER_DOWNVOTE",
      "outputs": [
        {
          "internalType": "uint256",
          "name": "",
          "type": "uint256"
        }
      ],
      "stateMutability": "view",
      "type": "function"
    },
    {
      "inputs": [],
      "name": "POINTS_PER_LIKE",
      "outputs": [
        {
          "internalType": "uint256",
          "name": "",
          "type": "uint256"
        }
      ],
      "stateMutability": "view",
      "type": "function"
    },
    {
      "inputs": [],
      "name": "POINTS_PER_RATE",
      "outputs": [
        {
          "internalType": "uint256",
          "name": "",
          "type": "uint256"
        }
      ],
      "stateMutability": "view",
      "type": "function"
    },
    {
      "inputs": [],
      "name": "POINTS_PER_REVIEW",
      "outputs": [
        {
          "internalType": "uint256",
          "name": "",
          "type": "uint256"
        }
      ],
      "stateMutability": "view",
      "type": "function"
    },
    {
      "inputs": [],
      "name": "POINTS_PER_UPVOTE",
      "outputs": [
        {
          "internalType": "uint256",
          "name": "",
          "type": "uint256"
        }
      ],
      "stateMutability": "view",
      "type": "function"
    },
    {
      "inputs": [],
      "name": "POINTS_PER_VOTE",
      "outputs": [
        {
          "internalType": "uint256",
          "name": "",
          "type": "uint256"
        }
      ],
      "stateMutability": "view",
      "type": "function"
    },
    {
      "inputs": [],
      "name": "RANK_ASSOCIATE",
      "outputs": [
        {
          "internalType": "uint256",
          "name": "",
          "type": "uint256"
        }
      ],
      "stateMutability": "view",
      "type": "function"
    },
    {
      "inputs": [],
      "name": "RANK_BOSS",
      "outputs": [
        {
          "internalType": "uint256",
          "name": "",
          "type": "uint256"
        }
      ],
      "stateMutability": "view",
      "type": "function"
    },
    {
      "inputs": [],
      "name": "RANK_CAPOREGIME",
      "outputs": [
        {
          "internalType": "uint256",
          "name": "",
          "type": "uint256"
        }
      ],
      "stateMutability": "view",
      "type": "function"
    },
    {
      "inputs": [],
      "name": "RANK_CONSIGLIERE",
      "outputs": [
        {
          "internalType": "uint256",
          "name": "",
          "type": "uint256"
        }
      ],
      "stateMutability": "view",
      "type": "function"
    },
    {
      "inputs": [],
      "name": "RANK_GODFATHER",
      "outputs": [
        {
          "internalType": "uint256",
          "name": "",
          "type": "uint256"
        }
      ],
      "stateMutability": "view",
      "type": "function"
    },
    {
      "inputs": [],
      "name": "RANK_SOLDIER",
      "outputs": [
        {
          "internalType": "uint256",
          "name": "",
          "type": "uint256"
        }
      ],
      "stateMutability": "view",
      "type": "function"
    },
    {
      "inputs": [],
      "name": "RANK_UNDERBOSS",
      "outputs": [
        {
          "internalType": "uint256",
          "name": "",
          "type": "uint256"
        }
      ],
      "stateMutability": "view",
      "type": "function"
    },
    {
      "inputs": [
        {
          "internalType": "uint256",
          "name": "",
          "type": "uint256"
        }
      ],
      "name": "board",
      "outputs": [
        {
          "internalType": "address",
          "name": "",
          "type": "address"
        }
      ],
      "stateMutability": "view",
      "type": "function"
    },
    {
      "inputs": [
        {
          "internalType": "enum Actions",
          "name": "action",
          "type": "uint8"
        },
        {
          "internalType": "address",
          "name": "user",
          "type": "address"
        }
      ],
      "name": "issueRewards",
      "outputs": [],
      "stateMutability": "nonpayable",
      "type": "function"
    },
    {
      "inputs": [],
      "name": "leaderboard",
      "outputs": [
        {
          "components": [
            {
              "internalType": "address",
              "name": "user",
              "type": "address"
            },
            {
              "internalType": "uint256",
              "name": "points",
              "type": "uint256"
            },
            {
              "internalType": "enum Rank",
              "name": "rank",
              "type": "uint8"
            }
          ],
          "internalType": "struct CheddaRewards.UserRewards[]",
          "name": "",
          "type": "tuple[]"
        }
      ],
      "stateMutability": "view",
      "type": "function"
    },
    {
      "inputs": [],
      "name": "minimumPointsForReward",
      "outputs": [
        {
          "internalType": "uint256",
          "name": "",
          "type": "uint256"
        }
      ],
      "stateMutability": "view",
      "type": "function"
    },
    {
      "inputs": [],
      "name": "owner",
      "outputs": [
        {
          "internalType": "address",
          "name": "",
          "type": "address"
        }
      ],
      "stateMutability": "view",
      "type": "function"
    },
    {
      "inputs": [
        {
          "internalType": "enum Actions",
          "name": "",
          "type": "uint8"
        }
      ],
      "name": "pointsPerAction",
      "outputs": [
        {
          "internalType": "uint256",
          "name": "",
          "type": "uint256"
        }
      ],
      "stateMutability": "view",
      "type": "function"
    },
    {
      "inputs": [],
      "name": "pointsPerOther",
      "outputs": [
        {
          "internalType": "uint256",
          "name": "",
          "type": "uint256"
        }
      ],
      "stateMutability": "view",
      "type": "function"
    },
    {
      "inputs": [
        {
          "internalType": "address",
          "name": "",
          "type": "address"
        }
      ],
      "name": "pointsPerUser",
      "outputs": [
        {
          "internalType": "uint256",
          "name": "",
          "type": "uint256"
        }
      ],
      "stateMutability": "view",
      "type": "function"
    },
    {
      "inputs": [
        {
          "internalType": "uint256",
          "name": "position",
          "type": "uint256"
        }
      ],
      "name": "rank",
      "outputs": [
        {
          "internalType": "enum Rank",
          "name": "",
          "type": "uint8"
        }
      ],
      "stateMutability": "pure",
      "type": "function"
    },
    {
      "inputs": [],
      "name": "registry",
      "outputs": [
        {
          "internalType": "contract CheddaAddressRegistry",
          "name": "",
          "type": "address"
        }
      ],
      "stateMutability": "view",
      "type": "function"
    },
    {
      "inputs": [],
      "name": "renounceOwnership",
      "outputs": [],
      "stateMutability": "nonpayable",
      "type": "function"
    },
    {
      "inputs": [
        {
          "internalType": "enum Actions",
          "name": "action",
          "type": "uint8"
        },
        {
          "internalType": "uint256",
          "name": "points",
          "type": "uint256"
        }
      ],
      "name": "setRewards",
      "outputs": [],
      "stateMutability": "nonpayable",
      "type": "function"
    },
    {
      "inputs": [],
      "name": "slashPerDownvote",
      "outputs": [
        {
          "internalType": "int256",
          "name": "",
          "type": "int256"
        }
      ],
      "stateMutability": "view",
      "type": "function"
    },
    {
      "inputs": [
        {
          "internalType": "address",
          "name": "newOwner",
          "type": "address"
        }
      ],
      "name": "transferOwnership",
      "outputs": [],
      "stateMutability": "nonpayable",
      "type": "function"
    },
    {
      "inputs": [
        {
          "internalType": "address",
          "name": "registryAddress",
          "type": "address"
        }
      ],
      "name": "updateRegistry",
      "outputs": [],
      "stateMutability": "nonpayable",
      "type": "function"
    },
    {
      "inputs": [
        {
          "internalType": "address",
          "name": "",
          "type": "address"
        }
      ],
      "name": "userOnLeaderboard",
      "outputs": [
        {
          "internalType": "bool",
          "name": "",
          "type": "bool"
        }
      ],
      "stateMutability": "view",
      "type": "function"
    }
  ],
  "bytecode": "0x60806040526064600660006101000a81548160ff021916908360ff160217905550600060075560016008556001600955600a8055600a600b55601e600c556032600d556001600e557ffffffffffffffffffffffffffffffffffffffffffffffffffffffffffffffffe600f553480156200007857600080fd5b50620000996200008d6200011d60201b60201c565b6200012560201b60201c565b620000ae6000600954620001e960201b60201c565b620000c36001600954620001e960201b60201c565b620000d86002600a54620001e960201b60201c565b620000ed6003600b54620001e960201b60201c565b620001026004600c54620001e960201b60201c565b620001176005600d54620001e960201b60201c565b6200046b565b600033905090565b60008060009054906101000a900473ffffffffffffffffffffffffffffffffffffffff169050816000806101000a81548173ffffffffffffffffffffffffffffffffffffffff021916908373ffffffffffffffffffffffffffffffffffffffff1602179055508173ffffffffffffffffffffffffffffffffffffffff168173ffffffffffffffffffffffffffffffffffffffff167f8be0079c531659141344cd1fd0a4f28419497f9722a3daafe3b4186f6b6457e060405160405180910390a35050565b620001f96200011d60201b60201c565b73ffffffffffffffffffffffffffffffffffffffff166200021f6200034d60201b60201c565b73ffffffffffffffffffffffffffffffffffffffff161462000278576040517f08c379a00000000000000000000000000000000000000000000000000000000081526004016200026f90620003e6565b60405180910390fd5b6000811415620002bf576040517f08c379a0000000000000000000000000000000000000000000000000000000008152600401620002b690620003c4565b60405180910390fd5b8060026000846006811115620002fe577f4e487b7100000000000000000000000000000000000000000000000000000000600052602160045260246000fd5b600681111562000337577f4e487b7100000000000000000000000000000000000000000000000000000000600052602160045260246000fd5b8152602001908152602001600020819055505050565b60008060009054906101000a900473ffffffffffffffffffffffffffffffffffffffff16905090565b60006200038560138362000408565b9150620003928262000419565b602082019050919050565b6000620003ac60208362000408565b9150620003b98262000442565b602082019050919050565b60006020820190508181036000830152620003df8162000376565b9050919050565b6000602082019050818103600083015262000401816200039d565b9050919050565b600082825260208201905092915050565b7f506f696e74732063616e206e6f74206265203000000000000000000000000000600082015250565b7f4f776e61626c653a2063616c6c6572206973206e6f7420746865206f776e6572600082015250565b6127df806200047b6000396000f3fe608060405234801561001057600080fd5b50600436106101e55760003560e01c80638ccca9091161010f578063e7e651d1116100a2578063f08981fa11610071578063f08981fa14610542578063f2fde38b14610560578063f927ae3f1461057c578063fc5f891b1461059a576101e5565b8063e7e651d1146104ca578063e8bf914c146104e8578063eb56b74014610506578063ede91dfb14610524576101e5565b8063b5635a82116100de578063b5635a8214610454578063c3c55d5714610470578063c3fc2ebe1461048e578063d64caf62146104ac576101e5565b80638ccca909146103ca5780638da5cb5b146103e8578063b1d5f85214610406578063b37c191b14610424576101e5565b80632f3b5e2b116101875780637564d209116101565780637564d209146103525780637b10399914610370578063856c67131461038e5780638959be0f146103ac576101e5565b80632f3b5e2b146102f0578063318298be1461030c5780636cd645c31461032a578063715018a614610348576101e5565b80632393e695116101c35780632393e6951461024257806326ea2d4d1461027257806327266c93146102a257806328ed6e3f146102c0576101e5565b80631a4e18f6146101ea5780631a5da6c8146102085780632193ec0214610224575b600080fd5b6101f26105ca565b6040516101ff9190612165565b60405180910390f35b610222600480360381019061021d9190611d03565b6105d0565b005b61022c610690565b6040516102399190612165565b60405180910390f35b61025c60048036038101906102579190611d03565b610696565b6040516102699190612059565b60405180910390f35b61028c60048036038101906102879190611d55565b6106b6565b6040516102999190612165565b60405180910390f35b6102aa6106ce565b6040516102b79190612165565b60405180910390f35b6102da60048036038101906102d59190611df6565b6106d3565b6040516102e7919061201c565b60405180910390f35b61030a60048036038101906103059190611dba565b610712565b005b61031461085e565b6040516103219190612165565b60405180910390f35b610332610864565b60405161033f9190612165565b60405180910390f35b610350610869565b005b61035a6108f1565b6040516103679190612165565b60405180910390f35b6103786108f7565b6040516103859190612074565b60405180910390f35b61039661091d565b6040516103a39190612165565b60405180910390f35b6103b4610923565b6040516103c19190612165565b60405180910390f35b6103d2610928565b6040516103df9190612165565b60405180910390f35b6103f061092e565b6040516103fd919061201c565b60405180910390f35b61040e610957565b60405161041b9190612165565b60405180910390f35b61043e60048036038101906104399190611df6565b61095c565b60405161044b919061208f565b60405180910390f35b61046e60048036038101906104699190611d7e565b6109c2565b005b610478610ceb565b60405161048591906121a9565b60405180910390f35b610496610cf0565b6040516104a39190612165565b60405180910390f35b6104b4610cf6565b6040516104c19190612165565b60405180910390f35b6104d2610cfb565b6040516104df91906121a9565b60405180910390f35b6104f0610d0e565b6040516104fd91906120aa565b60405180910390f35b61050e610d14565b60405161051b9190612037565b60405180910390f35b61052c610fc4565b6040516105399190612165565b60405180910390f35b61054a610fc9565b6040516105579190612165565b60405180910390f35b61057a60048036038101906105759190611d03565b610fcf565b005b6105846110c7565b6040516105919190612165565b60405180910390f35b6105b460048036038101906105af9190611d03565b6110cc565b6040516105c19190612165565b60405180910390f35b60095481565b6105d86110e4565b73ffffffffffffffffffffffffffffffffffffffff166105f661092e565b73ffffffffffffffffffffffffffffffffffffffff161461064c576040517f08c379a000000000000000000000000000000000000000000000000000000000815260040161064390612125565b60405180910390fd5b80600160006101000a81548173ffffffffffffffffffffffffffffffffffffffff021916908373ffffffffffffffffffffffffffffffffffffffff16021790555050565b60085481565b60046020528060005260406000206000915054906101000a900460ff1681565b60026020528060005260406000206000915090505481565b600081565b600581815481106106e357600080fd5b906000526020600020016000915054906101000a900473ffffffffffffffffffffffffffffffffffffffff1681565b61071a6110e4565b73ffffffffffffffffffffffffffffffffffffffff1661073861092e565b73ffffffffffffffffffffffffffffffffffffffff161461078e576040517f08c379a000000000000000000000000000000000000000000000000000000000815260040161078590612125565b60405180910390fd5b60008114156107d2576040517f08c379a00000000000000000000000000000000000000000000000000000000081526004016107c990612105565b60405180910390fd5b8060026000846006811115610810577f4e487b7100000000000000000000000000000000000000000000000000000000600052602160045260246000fd5b6006811115610848577f4e487b7100000000000000000000000000000000000000000000000000000000600052602160045260246000fd5b8152602001908152602001600020819055505050565b600a5481565b601481565b6108716110e4565b73ffffffffffffffffffffffffffffffffffffffff1661088f61092e565b73ffffffffffffffffffffffffffffffffffffffff16146108e5576040517f08c379a00000000000000000000000000000000000000000000000000000000081526004016108dc90612125565b60405180910390fd5b6108ef60006110ec565b565b600e5481565b600160009054906101000a900473ffffffffffffffffffffffffffffffffffffffff1681565b600c5481565b600081565b60075481565b60008060009054906101000a900473ffffffffffffffffffffffffffffffffffffffff16905090565b600181565b6000600182101561097057600590506109bd565b600582101561098257600490506109bd565b600a82101561099457600490506109bd565b60148210156109a657600490506109bd565b60648210156109b857600490506109bd565b600090505b919050565b600073ffffffffffffffffffffffffffffffffffffffff168173ffffffffffffffffffffffffffffffffffffffff161415610a32576040517f08c379a0000000000000000000000000000000000000000000000000000000008152600401610a29906120e5565b60405180910390fd5b600060026000846006811115610a71577f4e487b7100000000000000000000000000000000000000000000000000000000600052602160045260246000fd5b6006811115610aa9577f4e487b7100000000000000000000000000000000000000000000000000000000600052602160045260246000fd5b81526020019081526020016000205490506000811415610afe576040517f08c379a0000000000000000000000000000000000000000000000000000000008152600401610af590612145565b60405180910390fd5b80600360008473ffffffffffffffffffffffffffffffffffffffff1673ffffffffffffffffffffffffffffffffffffffff1681526020019081526020016000206000828254610b4d91906122a2565b92505081905550600160009054906101000a900473ffffffffffffffffffffffffffffffffffffffff1673ffffffffffffffffffffffffffffffffffffffff1663927befe76040518163ffffffff1660e01b815260040160206040518083038186803b158015610bbc57600080fd5b505afa158015610bd0573d6000803e3d6000fd5b505050506040513d601f19601f82011682018060405250810190610bf49190611d2c565b73ffffffffffffffffffffffffffffffffffffffff166394bf804d82846040518363ffffffff1660e01b8152600401610c2e929190612180565b600060405180830381600087803b158015610c4857600080fd5b505af1158015610c5c573d6000803e3d6000fd5b50505050610c69826111b0565b8173ffffffffffffffffffffffffffffffffffffffff1681846006811115610cba577f4e487b7100000000000000000000000000000000000000000000000000000000600052602160045260246000fd5b7f729a117e59dcdeb653e0d9e4106b0585526b33a6b7290e367e546d883d15952760405160405180910390a4505050565b606481565b600b5481565b606481565b600660009054906101000a900460ff1681565b600f5481565b60606000610da76005805480602002602001604051908101604052809291908181526020018280548015610d9d57602002820191906000526020600020905b8160009054906101000a900473ffffffffffffffffffffffffffffffffffffffff1673ffffffffffffffffffffffffffffffffffffffff1681526020019060010190808311610d53575b50505050506115cd565b90506000815167ffffffffffffffff811115610dec577f4e487b7100000000000000000000000000000000000000000000000000000000600052604160045260246000fd5b604051908082528060200260200182016040528015610e2557816020015b610e12611c40565b815260200190600190039081610e0a5790505b50905060005b8251811015610fbb576040518060600160405280848381518110610e78577f4e487b7100000000000000000000000000000000000000000000000000000000600052603260045260246000fd5b602002602001015173ffffffffffffffffffffffffffffffffffffffff16815260200160036000868581518110610ed8577f4e487b7100000000000000000000000000000000000000000000000000000000600052603260045260246000fd5b602002602001015173ffffffffffffffffffffffffffffffffffffffff1673ffffffffffffffffffffffffffffffffffffffff168152602001908152602001600020548152602001610f298361095c565b6007811115610f61577f4e487b7100000000000000000000000000000000000000000000000000000000600052602160045260246000fd5b815250828281518110610f9d577f4e487b7100000000000000000000000000000000000000000000000000000000600052603260045260246000fd5b60200260200101819052508080610fb390612564565b915050610e2b565b50809250505090565b600581565b600d5481565b610fd76110e4565b73ffffffffffffffffffffffffffffffffffffffff16610ff561092e565b73ffffffffffffffffffffffffffffffffffffffff161461104b576040517f08c379a000000000000000000000000000000000000000000000000000000000815260040161104290612125565b60405180910390fd5b600073ffffffffffffffffffffffffffffffffffffffff168173ffffffffffffffffffffffffffffffffffffffff1614156110bb576040517f08c379a00000000000000000000000000000000000000000000000000000000081526004016110b2906120c5565b60405180910390fd5b6110c4816110ec565b50565b600a81565b60036020528060005260406000206000915090505481565b600033905090565b60008060009054906101000a900473ffffffffffffffffffffffffffffffffffffffff169050816000806101000a81548173ffffffffffffffffffffffffffffffffffffffff021916908373ffffffffffffffffffffffffffffffffffffffff1602179055508173ffffffffffffffffffffffffffffffffffffffff168173ffffffffffffffffffffffffffffffffffffffff167f8be0079c531659141344cd1fd0a4f28419497f9722a3daafe3b4186f6b6457e060405160405180910390a35050565b6111b9816115fb565b156111c3576115ca565b606460ff166005805490501015611294576005819080600181540180825580915050600190039060005260206000200160009091909190916101000a81548173ffffffffffffffffffffffffffffffffffffffff021916908373ffffffffffffffffffffffffffffffffffffffff1602179055506001600460008373ffffffffffffffffffffffffffffffffffffffff1673ffffffffffffffffffffffffffffffffffffffff16815260200190815260200160002060006101000a81548160ff0219169083151502179055506115c9565b600754600360008373ffffffffffffffffffffffffffffffffffffffff1673ffffffffffffffffffffffffffffffffffffffff1681526020019081526020016000205411156115c85760006112e7611651565b905060006003600060058460ff168154811061132c577f4e487b7100000000000000000000000000000000000000000000000000000000600052603260045260246000fd5b9060005260206000200160009054906101000a900473ffffffffffffffffffffffffffffffffffffffff1673ffffffffffffffffffffffffffffffffffffffff1673ffffffffffffffffffffffffffffffffffffffff168152602001908152602001600020549050600360008473ffffffffffffffffffffffffffffffffffffffff1673ffffffffffffffffffffffffffffffffffffffff168152602001908152602001600020548110156115c557600060058360ff168154811061141a577f4e487b7100000000000000000000000000000000000000000000000000000000600052603260045260246000fd5b9060005260206000200160009054906101000a900473ffffffffffffffffffffffffffffffffffffffff1690506000600460008373ffffffffffffffffffffffffffffffffffffffff1673ffffffffffffffffffffffffffffffffffffffff16815260200190815260200160002060006101000a81548160ff0219169083151502179055506001600460008673ffffffffffffffffffffffffffffffffffffffff1673ffffffffffffffffffffffffffffffffffffffff16815260200190815260200160002060006101000a81548160ff0219169083151502179055508360058460ff1681548110611535577f4e487b7100000000000000000000000000000000000000000000000000000000600052603260045260246000fd5b9060005260206000200160006101000a81548173ffffffffffffffffffffffffffffffffffffffff021916908373ffffffffffffffffffffffffffffffffffffffff160217905550600360008573ffffffffffffffffffffffffffffffffffffffff1673ffffffffffffffffffffffffffffffffffffffff16815260200190815260200160002054600781905550505b50505b5b5b50565b60606000825111156115f3576115f2826000600185516115ed91906123f6565b611886565b5b819050919050565b6000600460008373ffffffffffffffffffffffffffffffffffffffff1673ffffffffffffffffffffffffffffffffffffffff16815260200190815260200160002060009054906101000a900460ff169050919050565b600080600360006005600081548110611693577f4e487b7100000000000000000000000000000000000000000000000000000000600052603260045260246000fd5b9060005260206000200160009054906101000a900473ffffffffffffffffffffffffffffffffffffffff1673ffffffffffffffffffffffffffffffffffffffff1673ffffffffffffffffffffffffffffffffffffffff1681526020019081526020016000205490506000805b6005805490508160ff16101561187d57826003600060058460ff1681548110611751577f4e487b7100000000000000000000000000000000000000000000000000000000600052603260045260246000fd5b9060005260206000200160009054906101000a900473ffffffffffffffffffffffffffffffffffffffff1673ffffffffffffffffffffffffffffffffffffffff1673ffffffffffffffffffffffffffffffffffffffff16815260200190815260200160002054101561186a576003600060058360ff16815481106117fe577f4e487b7100000000000000000000000000000000000000000000000000000000600052603260045260246000fd5b9060005260206000200160009054906101000a900473ffffffffffffffffffffffffffffffffffffffff1673ffffffffffffffffffffffffffffffffffffffff1673ffffffffffffffffffffffffffffffffffffffff1681526020019081526020016000205492508091505b8080611875906125ad565b9150506116ff565b50809250505090565b6000829050600082905080821261189e575050611c3b565b60006003600087600288886118b39190612362565b6118bd91906122f8565b886118c8919061220e565b815181106118ff577f4e487b7100000000000000000000000000000000000000000000000000000000600052603260045260246000fd5b602002602001015173ffffffffffffffffffffffffffffffffffffffff1673ffffffffffffffffffffffffffffffffffffffff1681526020019081526020016000205490505b818313611c0f575b806003600088868151811061198b577f4e487b7100000000000000000000000000000000000000000000000000000000600052603260045260246000fd5b602002602001015173ffffffffffffffffffffffffffffffffffffffff1673ffffffffffffffffffffffffffffffffffffffff1681526020019081526020016000205411156119e75782806119df9061251b565b93505061194d565b5b60036000878481518110611a25577f4e487b7100000000000000000000000000000000000000000000000000000000600052603260045260246000fd5b602002602001015173ffffffffffffffffffffffffffffffffffffffff1673ffffffffffffffffffffffffffffffffffffffff16815260200190815260200160002054811115611a82578180611a7a906124d2565b9250506119e8565b818313611c0a57858281518110611ac2577f4e487b7100000000000000000000000000000000000000000000000000000000600052603260045260246000fd5b6020026020010151868481518110611b03577f4e487b7100000000000000000000000000000000000000000000000000000000600052603260045260246000fd5b6020026020010151878581518110611b44577f4e487b7100000000000000000000000000000000000000000000000000000000600052603260045260246000fd5b60200260200101888581518110611b84577f4e487b7100000000000000000000000000000000000000000000000000000000600052603260045260246000fd5b602002602001018273ffffffffffffffffffffffffffffffffffffffff1673ffffffffffffffffffffffffffffffffffffffff168152508273ffffffffffffffffffffffffffffffffffffffff1673ffffffffffffffffffffffffffffffffffffffff1681525050508280611bf89061251b565b9350508180611c06906124d2565b9250505b611945565b81851215611c2357611c22868684611886565b5b83831215611c3757611c36868486611886565b5b5050505b505050565b6040518060600160405280600073ffffffffffffffffffffffffffffffffffffffff1681526020016000815260200160006007811115611ca9577f4e487b7100000000000000000000000000000000000000000000000000000000600052602160045260246000fd5b81525090565b600081359050611cbe8161276b565b92915050565b600081519050611cd38161276b565b92915050565b600081359050611ce881612782565b92915050565b600081359050611cfd81612792565b92915050565b600060208284031215611d1557600080fd5b6000611d2384828501611caf565b91505092915050565b600060208284031215611d3e57600080fd5b6000611d4c84828501611cc4565b91505092915050565b600060208284031215611d6757600080fd5b6000611d7584828501611cd9565b91505092915050565b60008060408385031215611d9157600080fd5b6000611d9f85828601611cd9565b9250506020611db085828601611caf565b9150509250929050565b60008060408385031215611dcd57600080fd5b6000611ddb85828601611cd9565b9250506020611dec85828601611cee565b9150509250929050565b600060208284031215611e0857600080fd5b6000611e1684828501611cee565b91505092915050565b6000611e2b8383611fad565b60608301905092915050565b611e408161242a565b82525050565b611e4f8161242a565b82525050565b6000611e60826121d4565b611e6a81856121ec565b9350611e75836121c4565b8060005b83811015611ea6578151611e8d8882611e1f565b9750611e98836121df565b925050600181019050611e79565b5085935050505092915050565b611ebc8161243c565b82525050565b611ecb8161249c565b82525050565b611eda816124c0565b82525050565b611ee9816124c0565b82525050565b611ef88161245b565b82525050565b6000611f0b6026836121fd565b9150611f1682612664565b604082019050919050565b6000611f2e6014836121fd565b9150611f39826126b3565b602082019050919050565b6000611f516013836121fd565b9150611f5c826126dc565b602082019050919050565b6000611f746020836121fd565b9150611f7f82612705565b602082019050919050565b6000611f976013836121fd565b9150611fa28261272e565b602082019050919050565b606082016000820151611fc36000850182611e37565b506020820151611fd66020850182611fef565b506040820151611fe96040850182611ed1565b50505050565b611ff881612485565b82525050565b61200781612485565b82525050565b6120168161248f565b82525050565b60006020820190506120316000830184611e46565b92915050565b600060208201905081810360008301526120518184611e55565b905092915050565b600060208201905061206e6000830184611eb3565b92915050565b60006020820190506120896000830184611ec2565b92915050565b60006020820190506120a46000830184611ee0565b92915050565b60006020820190506120bf6000830184611eef565b92915050565b600060208201905081810360008301526120de81611efe565b9050919050565b600060208201905081810360008301526120fe81611f21565b9050919050565b6000602082019050818103600083015261211e81611f44565b9050919050565b6000602082019050818103600083015261213e81611f67565b9050919050565b6000602082019050818103600083015261215e81611f8a565b9050919050565b600060208201905061217a6000830184611ffe565b92915050565b60006040820190506121956000830185611ffe565b6121a26020830184611e46565b9392505050565b60006020820190506121be600083018461200d565b92915050565b6000819050602082019050919050565b600081519050919050565b6000602082019050919050565b600082825260208201905092915050565b600082825260208201905092915050565b60006122198261245b565b91506122248361245b565b9250817f7fffffffffffffffffffffffffffffffffffffffffffffffffffffffffffffff0383136000831215161561225f5761225e6125d7565b5b817f8000000000000000000000000000000000000000000000000000000000000000038312600083121615612297576122966125d7565b5b828201905092915050565b60006122ad82612485565b91506122b883612485565b9250827fffffffffffffffffffffffffffffffffffffffffffffffffffffffffffffffff038211156122ed576122ec6125d7565b5b828201905092915050565b60006123038261245b565b915061230e8361245b565b92508261231e5761231d612606565b5b600160000383147f800000000000000000000000000000000000000000000000000000000000000083141615612357576123566125d7565b5b828205905092915050565b600061236d8261245b565b91506123788361245b565b9250827f8000000000000000000000000000000000000000000000000000000000000000018212600084121516156123b3576123b26125d7565b5b827f7fffffffffffffffffffffffffffffffffffffffffffffffffffffffffffffff0182136000841216156123eb576123ea6125d7565b5b828203905092915050565b600061240182612485565b915061240c83612485565b92508282101561241f5761241e6125d7565b5b828203905092915050565b600061243582612465565b9050919050565b60008115159050919050565b600081905061245682612757565b919050565b6000819050919050565b600073ffffffffffffffffffffffffffffffffffffffff82169050919050565b6000819050919050565b600060ff82169050919050565b60006124a7826124ae565b9050919050565b60006124b982612465565b9050919050565b60006124cb82612448565b9050919050565b60006124dd8261245b565b91507f80000000000000000000000000000000000000000000000000000000000000008214156125105761250f6125d7565b5b600182039050919050565b60006125268261245b565b91507f7fffffffffffffffffffffffffffffffffffffffffffffffffffffffffffffff821415612559576125586125d7565b5b600182019050919050565b600061256f82612485565b91507fffffffffffffffffffffffffffffffffffffffffffffffffffffffffffffffff8214156125a2576125a16125d7565b5b600182019050919050565b60006125b88261248f565b915060ff8214156125cc576125cb6125d7565b5b600182019050919050565b7f4e487b7100000000000000000000000000000000000000000000000000000000600052601160045260246000fd5b7f4e487b7100000000000000000000000000000000000000000000000000000000600052601260045260246000fd5b7f4e487b7100000000000000000000000000000000000000000000000000000000600052602160045260246000fd5b7f4f776e61626c653a206e6577206f776e657220697320746865207a65726f206160008201527f6464726573730000000000000000000000000000000000000000000000000000602082015250565b7f416464726573732063616e206e6f742062652030000000000000000000000000600082015250565b7f506f696e74732063616e206e6f74206265203000000000000000000000000000600082015250565b7f4f776e61626c653a2063616c6c6572206973206e6f7420746865206f776e6572600082015250565b7f416d6f756e742063616e206e6f74206265203000000000000000000000000000600082015250565b6008811061276857612767612635565b5b50565b6127748161242a565b811461277f57600080fd5b50565b6007811061278f57600080fd5b50565b61279b81612485565b81146127a657600080fd5b5056fea264697066735822122064e1b63deed15d4fb781b3fe87dc670a09ee8edd8c2c388bf39378a1611cbdcf64736f6c63430008040033",
  "linkReferences": {},
  "deployedLinkReferences": {}
}