{
  "_format": "hh-sol-artifact-1",
  "contractName": "CheddaBaseTokenVault",
  "sourceName": "contracts/pool/CheddaBaseTokenVault.sol",
  "abi": [
    {
      "inputs": [
        {
          "internalType": "contract ERC20",
          "name": "_asset",
          "type": "address"
        },
        {
          "internalType": "string",
          "name": "_name",
          "type": "string"
        },
        {
          "internalType": "string",
          "name": "_symbol",
          "type": "string"
        }
      ],
      "stateMutability": "nonpayable",
      "type": "constructor"
    },
    {
      "anonymous": false,
      "inputs": [
        {
          "indexed": true,
          "internalType": "address",
          "name": "owner",
          "type": "address"
        },
        {
          "indexed": true,
          "internalType": "address",
          "name": "spender",
          "type": "address"
        },
        {
          "indexed": false,
          "internalType": "uint256",
          "name": "amount",
          "type": "uint256"
        }
      ],
      "name": "Approval",
      "type": "event"
    },
    {
      "anonymous": false,
      "inputs": [
        {
          "indexed": true,
          "internalType": "address",
          "name": "from",
          "type": "address"
        },
        {
          "indexed": true,
          "internalType": "address",
          "name": "to",
          "type": "address"
        },
        {
          "indexed": false,
          "internalType": "uint256",
          "name": "amount",
          "type": "uint256"
        },
        {
          "indexed": false,
          "internalType": "uint256",
          "name": "shares",
          "type": "uint256"
        }
      ],
      "name": "Deposit",
      "type": "event"
    },
    {
      "anonymous": false,
      "inputs": [
        {
          "indexed": true,
          "internalType": "address",
          "name": "token",
          "type": "address"
        },
        {
          "indexed": true,
          "internalType": "address",
          "name": "account",
          "type": "address"
        },
        {
          "indexed": false,
          "internalType": "enum CheddaBaseTokenVault.CollateralType",
          "name": "ofType",
          "type": "uint8"
        },
        {
          "indexed": false,
          "internalType": "uint256",
          "name": "amount",
          "type": "uint256"
        }
      ],
      "name": "OnCollateralAdded",
      "type": "event"
    },
    {
      "anonymous": false,
      "inputs": [
        {
          "indexed": true,
          "internalType": "address",
          "name": "token",
          "type": "address"
        },
        {
          "indexed": true,
          "internalType": "address",
          "name": "account",
          "type": "address"
        },
        {
          "indexed": false,
          "internalType": "enum CheddaBaseTokenVault.CollateralType",
          "name": "ofType",
          "type": "uint8"
        },
        {
          "indexed": false,
          "internalType": "uint256",
          "name": "amount",
          "type": "uint256"
        }
      ],
      "name": "OnCollateralRemoved",
      "type": "event"
    },
    {
      "anonymous": false,
      "inputs": [
        {
          "indexed": false,
          "internalType": "address",
          "name": "account",
          "type": "address"
        },
        {
          "indexed": false,
          "internalType": "uint256",
          "name": "amount",
          "type": "uint256"
        }
      ],
      "name": "OnLoanOpened",
      "type": "event"
    },
    {
      "anonymous": false,
      "inputs": [
        {
          "indexed": false,
          "internalType": "address",
          "name": "account",
          "type": "address"
        },
        {
          "indexed": false,
          "internalType": "uint256",
          "name": "amount",
          "type": "uint256"
        }
      ],
      "name": "OnLoanRepaid",
      "type": "event"
    },
    {
      "anonymous": false,
      "inputs": [
        {
          "indexed": true,
          "internalType": "address",
          "name": "token",
          "type": "address"
        },
        {
          "indexed": true,
          "internalType": "address",
          "name": "user",
          "type": "address"
        }
      ],
      "name": "OnTokenWhitelisted",
      "type": "event"
    },
    {
      "anonymous": false,
      "inputs": [
        {
          "indexed": true,
          "internalType": "address",
          "name": "previousOwner",
          "type": "address"
        },
        {
          "indexed": true,
          "internalType": "address",
          "name": "newOwner",
          "type": "address"
        }
      ],
      "name": "OwnershipTransferred",
      "type": "event"
    },
    {
      "anonymous": false,
      "inputs": [
        {
          "indexed": true,
          "internalType": "address",
          "name": "from",
          "type": "address"
        },
        {
          "indexed": true,
          "internalType": "address",
          "name": "to",
          "type": "address"
        },
        {
          "indexed": false,
          "internalType": "uint256",
          "name": "amount",
          "type": "uint256"
        }
      ],
      "name": "Transfer",
      "type": "event"
    },
    {
      "anonymous": false,
      "inputs": [
        {
          "indexed": true,
          "internalType": "address",
          "name": "from",
          "type": "address"
        },
        {
          "indexed": true,
          "internalType": "address",
          "name": "to",
          "type": "address"
        },
        {
          "indexed": false,
          "internalType": "uint256",
          "name": "amount",
          "type": "uint256"
        },
        {
          "indexed": false,
          "internalType": "uint256",
          "name": "shares",
          "type": "uint256"
        }
      ],
      "name": "Withdraw",
      "type": "event"
    },
    {
      "inputs": [],
      "name": "BASIS_POINTS",
      "outputs": [
        {
          "internalType": "uint32",
          "name": "",
          "type": "uint32"
        }
      ],
      "stateMutability": "view",
      "type": "function"
    },
    {
      "inputs": [],
      "name": "DOMAIN_SEPARATOR",
      "outputs": [
        {
          "internalType": "bytes32",
          "name": "",
          "type": "bytes32"
        }
      ],
      "stateMutability": "view",
      "type": "function"
    },
    {
      "inputs": [
        {
          "internalType": "address",
          "name": "",
          "type": "address"
        }
      ],
      "name": "accountBorrowed",
      "outputs": [
        {
          "internalType": "uint256",
          "name": "",
          "type": "uint256"
        }
      ],
      "stateMutability": "view",
      "type": "function"
    },
    {
      "inputs": [
        {
          "internalType": "address",
          "name": "",
          "type": "address"
        },
        {
          "internalType": "address",
          "name": "",
          "type": "address"
        }
      ],
      "name": "accountCollateral",
      "outputs": [
        {
          "internalType": "address",
          "name": "token",
          "type": "address"
        },
        {
          "internalType": "enum CheddaBaseTokenVault.CollateralType",
          "name": "cType",
          "type": "uint8"
        },
        {
          "internalType": "uint256",
          "name": "amount",
          "type": "uint256"
        }
      ],
      "stateMutability": "view",
      "type": "function"
    },
    {
      "inputs": [
        {
          "internalType": "address",
          "name": "account",
          "type": "address"
        },
        {
          "internalType": "address",
          "name": "collateral",
          "type": "address"
        }
      ],
      "name": "accountCollateralCount",
      "outputs": [
        {
          "internalType": "uint256",
          "name": "",
          "type": "uint256"
        }
      ],
      "stateMutability": "view",
      "type": "function"
    },
    {
      "inputs": [
        {
          "internalType": "address",
          "name": "account",
          "type": "address"
        },
        {
          "internalType": "address",
          "name": "collateral",
          "type": "address"
        }
      ],
      "name": "accountHasCollateral",
      "outputs": [
        {
          "internalType": "bool",
          "name": "",
          "type": "bool"
        }
      ],
      "stateMutability": "view",
      "type": "function"
    },
    {
      "inputs": [
        {
          "internalType": "address",
          "name": "token",
          "type": "address"
        },
        {
          "internalType": "uint256",
          "name": "amount",
          "type": "uint256"
        }
      ],
      "name": "addCollateral",
      "outputs": [],
      "stateMutability": "nonpayable",
      "type": "function"
    },
    {
      "inputs": [
        {
          "internalType": "address",
          "name": "token",
          "type": "address"
        },
        {
          "internalType": "uint256[]",
          "name": "tokenIds",
          "type": "uint256[]"
        }
      ],
      "name": "addCollateral721",
      "outputs": [],
      "stateMutability": "nonpayable",
      "type": "function"
    },
    {
      "inputs": [
        {
          "internalType": "address",
          "name": "",
          "type": "address"
        },
        {
          "internalType": "address",
          "name": "",
          "type": "address"
        }
      ],
      "name": "allowance",
      "outputs": [
        {
          "internalType": "uint256",
          "name": "",
          "type": "uint256"
        }
      ],
      "stateMutability": "view",
      "type": "function"
    },
    {
      "inputs": [
        {
          "internalType": "address",
          "name": "spender",
          "type": "address"
        },
        {
          "internalType": "uint256",
          "name": "amount",
          "type": "uint256"
        }
      ],
      "name": "approve",
      "outputs": [
        {
          "internalType": "bool",
          "name": "",
          "type": "bool"
        }
      ],
      "stateMutability": "nonpayable",
      "type": "function"
    },
    {
      "inputs": [],
      "name": "asset",
      "outputs": [
        {
          "internalType": "contract ERC20",
          "name": "",
          "type": "address"
        }
      ],
      "stateMutability": "view",
      "type": "function"
    },
    {
      "inputs": [],
      "name": "assetBalance",
      "outputs": [
        {
          "internalType": "uint256",
          "name": "balance",
          "type": "uint256"
        }
      ],
      "stateMutability": "view",
      "type": "function"
    },
    {
      "inputs": [
        {
          "internalType": "address",
          "name": "user",
          "type": "address"
        }
      ],
      "name": "assetsOf",
      "outputs": [
        {
          "internalType": "uint256",
          "name": "",
          "type": "uint256"
        }
      ],
      "stateMutability": "view",
      "type": "function"
    },
    {
      "inputs": [],
      "name": "assetsPerShare",
      "outputs": [
        {
          "internalType": "uint256",
          "name": "",
          "type": "uint256"
        }
      ],
      "stateMutability": "view",
      "type": "function"
    },
    {
      "inputs": [
        {
          "internalType": "address",
          "name": "",
          "type": "address"
        }
      ],
      "name": "balanceOf",
      "outputs": [
        {
          "internalType": "uint256",
          "name": "",
          "type": "uint256"
        }
      ],
      "stateMutability": "view",
      "type": "function"
    },
    {
      "inputs": [],
      "name": "borrowApr",
      "outputs": [
        {
          "internalType": "uint32",
          "name": "",
          "type": "uint32"
        }
      ],
      "stateMutability": "pure",
      "type": "function"
    },
    {
      "inputs": [],
      "name": "collateralAmounts",
      "outputs": [
        {
          "components": [
            {
              "internalType": "address",
              "name": "token",
              "type": "address"
            },
            {
              "internalType": "uint256",
              "name": "amount",
              "type": "uint256"
            },
            {
              "internalType": "int256",
              "name": "value",
              "type": "int256"
            }
          ],
          "internalType": "struct CheddaBaseTokenVault.CollateralValue[]",
          "name": "",
          "type": "tuple[]"
        }
      ],
      "stateMutability": "view",
      "type": "function"
    },
    {
      "inputs": [
        {
          "internalType": "address",
          "name": "",
          "type": "address"
        }
      ],
      "name": "collateralFactor",
      "outputs": [
        {
          "internalType": "uint256",
          "name": "",
          "type": "uint256"
        }
      ],
      "stateMutability": "view",
      "type": "function"
    },
    {
      "inputs": [
        {
          "internalType": "uint256",
          "name": "",
          "type": "uint256"
        }
      ],
      "name": "collateralTokenList",
      "outputs": [
        {
          "internalType": "address",
          "name": "",
          "type": "address"
        }
      ],
      "stateMutability": "view",
      "type": "function"
    },
    {
      "inputs": [
        {
          "internalType": "address",
          "name": "",
          "type": "address"
        }
      ],
      "name": "collateralTokens",
      "outputs": [
        {
          "internalType": "bool",
          "name": "",
          "type": "bool"
        }
      ],
      "stateMutability": "view",
      "type": "function"
    },
    {
      "inputs": [],
      "name": "decimals",
      "outputs": [
        {
          "internalType": "uint8",
          "name": "",
          "type": "uint8"
        }
      ],
      "stateMutability": "view",
      "type": "function"
    },
    {
      "inputs": [
        {
          "internalType": "uint256",
          "name": "amount",
          "type": "uint256"
        },
        {
          "internalType": "address",
          "name": "to",
          "type": "address"
        }
      ],
      "name": "deposit",
      "outputs": [
        {
          "internalType": "uint256",
          "name": "shares",
          "type": "uint256"
        }
      ],
      "stateMutability": "nonpayable",
      "type": "function"
    },
    {
      "inputs": [],
      "name": "depositApr",
      "outputs": [
        {
          "internalType": "uint32",
          "name": "",
          "type": "uint32"
        }
      ],
      "stateMutability": "pure",
      "type": "function"
    },
    {
      "inputs": [],
      "name": "deposits",
      "outputs": [
        {
          "internalType": "uint256",
          "name": "",
          "type": "uint256"
        }
      ],
      "stateMutability": "view",
      "type": "function"
    },
    {
      "inputs": [],
      "name": "getVaultStats",
      "outputs": [
        {
          "components": [
            {
              "internalType": "uint256",
              "name": "liquidity",
              "type": "uint256"
            },
            {
              "internalType": "uint256",
              "name": "utilization",
              "type": "uint256"
            },
            {
              "internalType": "uint32",
              "name": "depositApr",
              "type": "uint32"
            },
            {
              "internalType": "uint32",
              "name": "borrowApr",
              "type": "uint32"
            },
            {
              "internalType": "uint32",
              "name": "rewardsApr",
              "type": "uint32"
            }
          ],
          "internalType": "struct CheddaBaseTokenVault.VaultStats",
          "name": "",
          "type": "tuple"
        }
      ],
      "stateMutability": "view",
      "type": "function"
    },
    {
      "inputs": [
        {
          "internalType": "address",
          "name": "",
          "type": "address"
        }
      ],
      "name": "maxDeposit",
      "outputs": [
        {
          "internalType": "uint256",
          "name": "",
          "type": "uint256"
        }
      ],
      "stateMutability": "nonpayable",
      "type": "function"
    },
    {
      "inputs": [
        {
          "internalType": "address",
          "name": "",
          "type": "address"
        }
      ],
      "name": "maxMint",
      "outputs": [
        {
          "internalType": "uint256",
          "name": "",
          "type": "uint256"
        }
      ],
      "stateMutability": "nonpayable",
      "type": "function"
    },
    {
      "inputs": [
        {
          "internalType": "address",
          "name": "user",
          "type": "address"
        }
      ],
      "name": "maxRedeem",
      "outputs": [
        {
          "internalType": "uint256",
          "name": "",
          "type": "uint256"
        }
      ],
      "stateMutability": "nonpayable",
      "type": "function"
    },
    {
      "inputs": [
        {
          "internalType": "address",
          "name": "user",
          "type": "address"
        }
      ],
      "name": "maxWithdraw",
      "outputs": [
        {
          "internalType": "uint256",
          "name": "",
          "type": "uint256"
        }
      ],
      "stateMutability": "nonpayable",
      "type": "function"
    },
    {
      "inputs": [
        {
          "internalType": "uint256",
          "name": "shares",
          "type": "uint256"
        },
        {
          "internalType": "address",
          "name": "to",
          "type": "address"
        }
      ],
      "name": "mint",
      "outputs": [
        {
          "internalType": "uint256",
          "name": "amount",
          "type": "uint256"
        }
      ],
      "stateMutability": "nonpayable",
      "type": "function"
    },
    {
      "inputs": [],
      "name": "name",
      "outputs": [
        {
          "internalType": "string",
          "name": "",
          "type": "string"
        }
      ],
      "stateMutability": "view",
      "type": "function"
    },
    {
      "inputs": [
        {
          "internalType": "address",
          "name": "",
          "type": "address"
        }
      ],
      "name": "nonces",
      "outputs": [
        {
          "internalType": "uint256",
          "name": "",
          "type": "uint256"
        }
      ],
      "stateMutability": "view",
      "type": "function"
    },
    {
      "inputs": [],
      "name": "owner",
      "outputs": [
        {
          "internalType": "address",
          "name": "",
          "type": "address"
        }
      ],
      "stateMutability": "view",
      "type": "function"
    },
    {
      "inputs": [
        {
          "internalType": "address",
          "name": "owner",
          "type": "address"
        },
        {
          "internalType": "address",
          "name": "spender",
          "type": "address"
        },
        {
          "internalType": "uint256",
          "name": "value",
          "type": "uint256"
        },
        {
          "internalType": "uint256",
          "name": "deadline",
          "type": "uint256"
        },
        {
          "internalType": "uint8",
          "name": "v",
          "type": "uint8"
        },
        {
          "internalType": "bytes32",
          "name": "r",
          "type": "bytes32"
        },
        {
          "internalType": "bytes32",
          "name": "s",
          "type": "bytes32"
        }
      ],
      "name": "permit",
      "outputs": [],
      "stateMutability": "nonpayable",
      "type": "function"
    },
    {
      "inputs": [
        {
          "internalType": "uint256",
          "name": "amount",
          "type": "uint256"
        }
      ],
      "name": "previewDeposit",
      "outputs": [
        {
          "internalType": "uint256",
          "name": "",
          "type": "uint256"
        }
      ],
      "stateMutability": "view",
      "type": "function"
    },
    {
      "inputs": [
        {
          "internalType": "uint256",
          "name": "shares",
          "type": "uint256"
        }
      ],
      "name": "previewMint",
      "outputs": [
        {
          "internalType": "uint256",
          "name": "",
          "type": "uint256"
        }
      ],
      "stateMutability": "view",
      "type": "function"
    },
    {
      "inputs": [
        {
          "internalType": "uint256",
          "name": "shares",
          "type": "uint256"
        }
      ],
      "name": "previewRedeem",
      "outputs": [
        {
          "internalType": "uint256",
          "name": "",
          "type": "uint256"
        }
      ],
      "stateMutability": "view",
      "type": "function"
    },
    {
      "inputs": [
        {
          "internalType": "uint256",
          "name": "amount",
          "type": "uint256"
        }
      ],
      "name": "previewWithdraw",
      "outputs": [
        {
          "internalType": "uint256",
          "name": "",
          "type": "uint256"
        }
      ],
      "stateMutability": "view",
      "type": "function"
    },
    {
      "inputs": [],
      "name": "priceFeed",
      "outputs": [
        {
          "internalType": "contract IPriceFeed",
          "name": "",
          "type": "address"
        }
      ],
      "stateMutability": "view",
      "type": "function"
    },
    {
      "inputs": [
        {
          "internalType": "uint256",
          "name": "amount",
          "type": "uint256"
        }
      ],
      "name": "put",
      "outputs": [],
      "stateMutability": "nonpayable",
      "type": "function"
    },
    {
      "inputs": [
        {
          "internalType": "uint256",
          "name": "shares",
          "type": "uint256"
        },
        {
          "internalType": "address",
          "name": "to",
          "type": "address"
        },
        {
          "internalType": "address",
          "name": "from",
          "type": "address"
        }
      ],
      "name": "redeem",
      "outputs": [
        {
          "internalType": "uint256",
          "name": "amount",
          "type": "uint256"
        }
      ],
      "stateMutability": "nonpayable",
      "type": "function"
    },
    {
      "inputs": [
        {
          "internalType": "address",
          "name": "token",
          "type": "address"
        },
        {
          "internalType": "uint256",
          "name": "amount",
          "type": "uint256"
        }
      ],
      "name": "removeCollateral",
      "outputs": [],
      "stateMutability": "nonpayable",
      "type": "function"
    },
    {
      "inputs": [
        {
          "internalType": "address",
          "name": "token",
          "type": "address"
        },
        {
          "internalType": "uint256[]",
          "name": "tokenIds",
          "type": "uint256[]"
        }
      ],
      "name": "removeCollateral721",
      "outputs": [],
      "stateMutability": "nonpayable",
      "type": "function"
    },
    {
      "inputs": [],
      "name": "renounceOwnership",
      "outputs": [],
      "stateMutability": "nonpayable",
      "type": "function"
    },
    {
      "inputs": [],
      "name": "rewardsApr",
      "outputs": [
        {
          "internalType": "uint32",
          "name": "",
          "type": "uint32"
        }
      ],
      "stateMutability": "pure",
      "type": "function"
    },
    {
      "inputs": [],
      "name": "symbol",
      "outputs": [
        {
          "internalType": "string",
          "name": "",
          "type": "string"
        }
      ],
      "stateMutability": "view",
      "type": "function"
    },
    {
      "inputs": [
        {
          "internalType": "uint256",
          "name": "amount",
          "type": "uint256"
        }
      ],
      "name": "take",
      "outputs": [],
      "stateMutability": "nonpayable",
      "type": "function"
    },
    {
      "inputs": [
        {
          "internalType": "address",
          "name": "",
          "type": "address"
        }
      ],
      "name": "tokenCollateral",
      "outputs": [
        {
          "internalType": "uint256",
          "name": "",
          "type": "uint256"
        }
      ],
      "stateMutability": "view",
      "type": "function"
    },
    {
      "inputs": [
        {
          "internalType": "address",
          "name": "account",
          "type": "address"
        }
      ],
      "name": "totalAccountCollateralValue",
      "outputs": [
        {
          "internalType": "uint256",
          "name": "",
          "type": "uint256"
        }
      ],
      "stateMutability": "view",
      "type": "function"
    },
    {
      "inputs": [],
      "name": "totalAssets",
      "outputs": [
        {
          "internalType": "uint256",
          "name": "",
          "type": "uint256"
        }
      ],
      "stateMutability": "view",
      "type": "function"
    },
    {
      "inputs": [],
      "name": "totalBorrowed",
      "outputs": [
        {
          "internalType": "uint256",
          "name": "",
          "type": "uint256"
        }
      ],
      "stateMutability": "view",
      "type": "function"
    },
    {
      "inputs": [],
      "name": "totalSupply",
      "outputs": [
        {
          "internalType": "uint256",
          "name": "",
          "type": "uint256"
        }
      ],
      "stateMutability": "view",
      "type": "function"
    },
    {
      "inputs": [
        {
          "internalType": "address",
          "name": "to",
          "type": "address"
        },
        {
          "internalType": "uint256",
          "name": "amount",
          "type": "uint256"
        }
      ],
      "name": "transfer",
      "outputs": [
        {
          "internalType": "bool",
          "name": "",
          "type": "bool"
        }
      ],
      "stateMutability": "nonpayable",
      "type": "function"
    },
    {
      "inputs": [
        {
          "internalType": "address",
          "name": "from",
          "type": "address"
        },
        {
          "internalType": "address",
          "name": "to",
          "type": "address"
        },
        {
          "internalType": "uint256",
          "name": "amount",
          "type": "uint256"
        }
      ],
      "name": "transferFrom",
      "outputs": [
        {
          "internalType": "bool",
          "name": "",
          "type": "bool"
        }
      ],
      "stateMutability": "nonpayable",
      "type": "function"
    },
    {
      "inputs": [
        {
          "internalType": "address",
          "name": "newOwner",
          "type": "address"
        }
      ],
      "name": "transferOwnership",
      "outputs": [],
      "stateMutability": "nonpayable",
      "type": "function"
    },
    {
      "inputs": [],
      "name": "utilization",
      "outputs": [
        {
          "internalType": "uint32",
          "name": "",
          "type": "uint32"
        }
      ],
      "stateMutability": "view",
      "type": "function"
    },
    {
      "inputs": [
        {
          "internalType": "address",
          "name": "token",
          "type": "address"
        },
        {
          "internalType": "bool",
          "name": "isWhitelisted",
          "type": "bool"
        }
      ],
      "name": "whitelistToken",
      "outputs": [],
      "stateMutability": "nonpayable",
      "type": "function"
    },
    {
      "inputs": [
        {
          "internalType": "uint256",
          "name": "amount",
          "type": "uint256"
        },
        {
          "internalType": "address",
          "name": "to",
          "type": "address"
        },
        {
          "internalType": "address",
          "name": "from",
          "type": "address"
        }
      ],
      "name": "withdraw",
      "outputs": [
        {
          "internalType": "uint256",
          "name": "shares",
          "type": "uint256"
        }
      ],
      "stateMutability": "nonpayable",
      "type": "function"
    }
  ],
  "bytecode": "0x6101006040523480156200001257600080fd5b5060405162003b8938038062003b89833981016040819052620000359162000383565b8282828181846001600160a01b031663313ce5676040518163ffffffff1660e01b815260040160206040518083038186803b1580156200007457600080fd5b505afa15801562000089573d6000803e3d6000fd5b505050506040513d601f19601f82011682018060405250810190620000af919062000409565b620000ba336200013e565b8251620000cf9060019060208601906200022a565b508151620000e59060029060208501906200022a565b506003805460ff191660ff831617905546608052620001036200018e565b60a0525050506001600160601b0319606084901b1660c0526003546200012e9060ff16600a6200051f565b60e0525062000649945050505050565b600080546001600160a01b038381166001600160a01b0319831681178455604051919092169283917f8be0079c531659141344cd1fd0a4f28419497f9722a3daafe3b4186f6b6457e09190a35050565b60007f8b73c3c69bb8fe3d512ecc4cf759cc79239f7b179b0ffacaa9a75d522b39400f6001604051620001c2919062000433565b6040805191829003822060208301939093528101919091527fc89efdaa54c0f20c7adf612882df0950f5a951637e0307cdcb4c672f298b8bc660608201524660808201523060a082015260c00160405160208183030381529060405280519060200120905090565b8280546200023890620005e0565b90600052602060002090601f0160209004810192826200025c5760008555620002a7565b82601f106200027757805160ff1916838001178555620002a7565b82800160010185558215620002a7579182015b82811115620002a75782518255916020019190600101906200028a565b50620002b5929150620002b9565b5090565b5b80821115620002b55760008155600101620002ba565b600082601f830112620002e1578081fd5b81516001600160401b0380821115620002fe57620002fe62000633565b604051601f8301601f19908116603f0116810190828211818310171562000329576200032962000633565b8160405283815260209250868385880101111562000345578485fd5b8491505b8382101562000368578582018301518183018401529082019062000349565b838211156200037957848385830101525b9695505050505050565b60008060006060848603121562000398578283fd5b83516001600160a01b0381168114620003af578384fd5b60208501519093506001600160401b0380821115620003cc578384fd5b620003da87838801620002d0565b93506040860151915080821115620003f0578283fd5b50620003ff86828701620002d0565b9150509250925092565b6000602082840312156200041b578081fd5b815160ff811681146200042c578182fd5b9392505050565b600080835482600182811c9150808316806200045057607f831692505b60208084108214156200047157634e487b7160e01b87526022600452602487fd5b8180156200048857600181146200049a57620004c8565b60ff19861689528489019650620004c8565b60008a815260209020885b86811015620004c05781548b820152908501908301620004a5565b505084890196505b509498975050505050505050565b600181815b8085111562000517578160001904821115620004fb57620004fb6200061d565b808516156200050957918102915b93841c9390800290620004db565b509250929050565b60006200042c60ff8416836000826200053b57506001620005da565b816200054a57506000620005da565b81600181146200056357600281146200056e576200058e565b6001915050620005da565b60ff8411156200058257620005826200061d565b50506001821b620005da565b5060208310610133831016604e8410600b8410161715620005b3575081810a620005da565b620005bf8383620004d6565b8060001904821115620005d657620005d66200061d565b0290505b92915050565b600181811c90821680620005f557607f821691505b602082108114156200061757634e487b7160e01b600052602260045260246000fd5b50919050565b634e487b7160e01b600052601160045260246000fd5b634e487b7160e01b600052604160045260246000fd5b60805160a05160c05160601c60e0516134d9620006b06000396000610b7c0152600081816104d00152818161113001528181611293015281816115600152818161186501528181611fad01526120fb01526000610bd901526000610ba901526134d96000f3fe608060405234801561001057600080fd5b506004361061038d5760003560e01c80638a1c8fa4116101de578063c63d75b61161010f578063dd62ed3e116100ad578063ef8b30f71161007c578063ef8b30f714610848578063f2fde38b1461085b578063fbcc6f5e1461086e578063ff8e4d4d1461088e57600080fd5b8063dd62ed3e146107f6578063e1f1c4a714610821578063e9a71b711461082b578063ea21cd921461084057600080fd5b8063cffbc297116100e9578063cffbc29714610777578063d505accf1461079a578063d834bf66146107ad578063d905777e146107cd57600080fd5b8063c63d75b614610530578063c66f24551461075c578063ce96cb771461076457600080fd5b8063ab6b737d1161017c578063b460af9411610156578063b460af941461071a578063ba0876521461072d578063be5f5ff614610740578063c28d21a31461074957600080fd5b8063ab6b737d146106e1578063b3a5a0a2146106f4578063b3d7f6b91461070757600080fd5b806395d89b41116101b857806395d89b4114610662578063a0ddc11a1461066a578063a59aa5a61461067d578063a9059cbb146106ce57600080fd5b80638a1c8fa41461062b5780638da5cb5b1461063e57806394bf804d1461064f57600080fd5b80633b121d56116102c3578063562053e811610261578063715018a611610230578063715018a6146105dd578063741bef1a146105e55780637ecebe00146105f8578063876467f81461061857600080fd5b8063562053e81461058e5780636d75b9ee146105975780636e553f65146105aa57806370a08231146105bd57600080fd5b80634ac9de921161029d5780634ac9de92146105455780634c19386c1461055f5780634cdad506146105685780634fd9efc41461057b57600080fd5b80633b121d561461050a5780633f81a2c01461051d578063402d267d1461053057600080fd5b806323b872dd11610330578063323a5e0b1161030a578063323a5e0b146104b257806335d16e17146104bb5780633644e515146104c357806338d52e0f146104cb57600080fd5b806323b872dd1461046d5780632c62fa1014610480578063313ce5671461049357600080fd5b8063095ea7b31161036c578063095ea7b3146104195780630a28a4771461043c5780630ffb1d8b1461044f57806318160ddd1461046457600080fd5b806225ce9f1461039257806301e1d114146103f257806306fdde0314610404575b600080fd5b6103da6103a0366004612e78565b600e602090815260009283526040808420909152908252902080546001909101546001600160a01b03821691600160a01b900460ff169083565b6040516103e9939291906131d6565b60405180910390f35b6008545b6040519081526020016103e9565b61040c6108ae565b6040516103e9919061327e565b61042c610427366004613063565b61093c565b60405190151581526020016103e9565b6103f661044a3660046130a4565b6109a9565b61046261045d366004613029565b6109d8565b005b6103f660045481565b61042c61047b366004612eaa565b610a73565b6103f661048e366004612e5e565b610b53565b6003546104a09060ff1681565b60405160ff90911681526020016103e9565b6103f660085481565b6103f6610b75565b6103f6610ba5565b6104f27f000000000000000000000000000000000000000000000000000000000000000081565b6040516001600160a01b0390911681526020016103e9565b610462610518366004612f56565b610bfb565b61046261052b3660046130a4565b611058565b6103f661053e366004612e5e565b5060001990565b6208fcc85b60405163ffffffff90911681526020016103e9565b6103f660095481565b6103f66105763660046130a4565b61119e565b6104626105893660046130a4565b6111be565b620e7ef061054a565b6104626105a5366004613063565b611302565b6103f66105b83660046130bc565b61150b565b6103f66105cb366004612e5e565b60056020526000908152604090205481565b6104626115e2565b600a546104f2906001600160a01b031681565b6103f6610606366004612e5e565b60076020526000908152604090205481565b610462610626366004613063565b611618565b61042c610639366004612e78565b61181f565b6000546001600160a01b03166104f2565b6103f661065d3660046130bc565b61184b565b61040c6118e7565b6103f6610678366004612e78565b6118f4565b610685611922565b6040805182518152602080840151908201528282015163ffffffff908116928201929092526060808401518316908201526080928301519091169181019190915260a0016103e9565b61042c6106dc366004613063565b61199a565b6104626106ef366004612f56565b611a00565b6104f26107023660046130a4565b611e71565b6103f66107153660046130a4565b611e9b565b6103f66107283660046130de565b611ebb565b6103f661073b3660046130de565b611fd4565b6205b8d861054a565b6103f6610757366004612e5e565b61212a565b6103f6612326565b6103f6610772366004612e5e565b612338565b61042c610785366004612e5e565b600b6020526000908152604090205460ff1681565b6104626107a8366004612ee5565b612343565b6103f66107bb366004612e5e565b60106020526000908152604090205481565b6103f66107db366004612e5e565b6001600160a01b031660009081526005602052604090205490565b6103f6610804366004612e78565b600660209081526000928352604080842090915290825290205481565b61054a620186a081565b610833612594565b6040516103e99190613201565b61054a61275d565b6103f66108563660046130a4565b61278e565b610462610869366004612e5e565b6127af565b6103f661087c366004612e5e565b600d6020526000908152604090205481565b6103f661089c366004612e5e565b600f6020526000908152604090205481565b600180546108bb90613407565b80601f01602080910402602001604051908101604052809291908181526020018280546108e790613407565b80156109345780601f1061090957610100808354040283529160200191610934565b820191906000526020600020905b81548152906001019060200180831161091757829003601f168201915b505050505081565b3360008181526006602090815260408083206001600160a01b038716808552925280832085905551919290917f8c5be1e5ebec7d5bd14f71427d1e84f3dd0314c0f7b2291e5b200ac8c7c3b925906109979086815260200190565b60405180910390a35060015b92915050565b60045460009080156109cf576109ca816109c260085490565b85919061284a565b6109d1565b825b9392505050565b6000546001600160a01b03163314610a0b5760405162461bcd60e51b8152600401610a02906132d1565b60405180910390fd5b6001600160a01b0382166000908152600b60205260409020805460ff1916821515179055610a398282612878565b60405133906001600160a01b038416907f3be071d02429b0852e4b41075b816127886e499ed6bea31e7b1a1b73da6246de90600090a35050565b6001600160a01b03831660009081526006602090815260408083203384529091528120546000198114610acf57610aaa83826133f0565b6001600160a01b03861660009081526006602090815260408083203384529091529020555b6001600160a01b03851660009081526005602052604081208054859290610af79084906133f0565b90915550506001600160a01b038085166000818152600560205260409081902080548701905551909187169060008051602061348483398151915290610b409087815260200190565b60405180910390a3506001949350505050565b6001600160a01b0381166000908152600560205260408120546109a39061119e565b6000610ba07f000000000000000000000000000000000000000000000000000000000000000061119e565b905090565b60007f00000000000000000000000000000000000000000000000000000000000000004614610bd657610ba0612a7c565b507f000000000000000000000000000000000000000000000000000000000000000090565b6001600160a01b0382166000908152600b602052604090205460ff161515600114610c385760405162461bcd60e51b8152600401610a029061333d565b6000815111610c855760405162461bcd60e51b815260206004820152601960248201527810d215985d5b1d0e88115b5c1d1e481d1bdad95b881b1a5cdd603a1b6044820152606401610a02565b33610c90818461181f565b15610e7a576001600160a01b038082166000908152600e602090815260408083209387168352929052908120905b8351811015610ddb5760005b6002830154811015610d8557826002018181548110610cf957634e487b7160e01b600052603260045260246000fd5b9060005260206000200154858381518110610d2457634e487b7160e01b600052603260045260246000fd5b60200260200101511415610d735760405162461bcd60e51b815260206004820152601660248201527510d215985d5b1d0e88105b1c9958591e48105919195960521b6044820152606401610a02565b80610d7d8161343c565b915050610cca565b5081600201848281518110610daa57634e487b7160e01b600052603260045260246000fd5b6020908102919091018101518254600181018455600093845291909220015580610dd38161343c565b915050610cbe565b5082516001600160a01b038084166000908152600e6020908152604080832093891683529290529081206001018054909190610e18908490613374565b90915550506001810154600282015414610e745760405162461bcd60e51b815260206004820152601f60248201527f43485661756c743a20496e636f727265637420746f6b656e20616d6f756e74006044820152606401610a02565b50610f41565b604080516080810182526001600160a01b0385811680835260016020808501918252875185870152606085018890528684166000908152600e82528681209381529290529390208251815492166001600160a01b0319831681178255935192938493919283916001600160a81b031990911617600160a01b836002811115610f1257634e487b7160e01b600052602160045260246000fd5b02179055506040820151600182015560608201518051610f3c916002840191602090910190612dc8565b505050505b60005b825181101561100357836001600160a01b03166323b872dd8330868581518110610f7e57634e487b7160e01b600052603260045260246000fd5b60209081029190910101516040516001600160e01b031960e086901b1681526001600160a01b0393841660048201529290911660248301526044820152606401600060405180830381600087803b158015610fd857600080fd5b505af1158015610fec573d6000803e3d6000fd5b505050508080610ffb9061343c565b915050610f44565b50806001600160a01b0316836001600160a01b03167f6c375f50bc43d2f6190a8b74de59f177b57a493118809106f3a31f8d0e9b50a36001855160405161104b929190613263565b60405180910390a3505050565b33816110765760405162461bcd60e51b8152600401610a0290613306565b6001600160a01b0381166000908152600f60205260409020548211156110de5760405162461bcd60e51b815260206004820152601860248201527f43485661756c743a20616d6f756e7420746f6f206869676800000000000000006044820152606401610a02565b81600960008282546110f091906133f0565b90915550506001600160a01b0381166000908152600f60205260408120805484929061111d9084906133f0565b9091555061115890506001600160a01b037f000000000000000000000000000000000000000000000000000000000000000016333085612b16565b604080516001600160a01b0383168152602081018490527fb1be5264c52118d8445ca85dab655d4838bb473a3030da7f995217290935bc59910160405180910390a15050565b60045460009080156109cf576109ca6111b660085490565b849083612baa565b3360006111ca8261212a565b6001600160a01b0383166000908152600f602052604090205490915081906111f3908590613374565b11156112415760405162461bcd60e51b815260206004820152601760248201527f496e73756666696369656e7420636f6c6c61746572616c0000000000000000006044820152606401610a02565b82600960008282546112539190613374565b90915550506001600160a01b0382166000908152600f602052604081208054859290611280908490613374565b909155506112bb90506001600160a01b037f000000000000000000000000000000000000000000000000000000000000000016308486612b16565b604080516001600160a01b0384168152602081018590527fc1da9bf387c72596e7227bd600280bffc4f2bb4c8252ecf8907a89cfc9e9b3ed910160405180910390a1505050565b6001600160a01b0382166000908152600b602052604090205460ff16151560011461133f5760405162461bcd60e51b8152600401610a029061333d565b6000811161135f5760405162461bcd60e51b8152600401610a0290613306565b6001600160a01b038216600090815260106020526040812080543392849291611389908490613374565b909155506113999050818461181f565b156113e3576001600160a01b038082166000908152600e60209081526040808320938716835292905290812060010180548492906113d8908490613374565b909155506114b09050565b604080516080810182526001600160a01b03858116808352600060208085018281528587018990528651838152808301885260608701528785168352600e8252868320938352929052939093208251815492166001600160a01b0319831681178255935192938493919283916001600160a81b031990911617600160a01b83600281111561148157634e487b7160e01b600052602160045260246000fd5b021790555060408201516001820155606082015180516114ab916002840191602090910190612dc8565b505050505b6114c56001600160a01b038416823085612b16565b806001600160a01b0316836001600160a01b03167f6c375f50bc43d2f6190a8b74de59f177b57a493118809106f3a31f8d0e9b50a360008560405161104b929190613263565b60006115168361278e565b9050806115535760405162461bcd60e51b815260206004820152600b60248201526a5a45524f5f53484152455360a81b6044820152606401610a02565b6115886001600160a01b037f000000000000000000000000000000000000000000000000000000000000000016333086612b16565b6115928282612bc9565b60408051848152602081018390526001600160a01b0384169133917fdcbc1c05240f31ff3ad067ef1ee35ce4997762752e3a095284754544f4c709d7910160405180910390a36109a38382612c23565b6000546001600160a01b0316331461160c5760405162461bcd60e51b8152600401610a02906132d1565b6116166000612c3e565b565b33816116365760405162461bcd60e51b8152600401610a0290613306565b8161164182856118f4565b10156116855760405162461bcd60e51b815260206004820152601360248201527210d215985d5b1d0e88125394d5518810dbdb1b606a1b6044820152606401610a02565b6001600160a01b038316600090815260106020526040812080548492906116ad9084906133f0565b909155508290506116be82856118f4565b1415611715576001600160a01b038082166000908152600e60209081526040808320938716835292905290812080546001600160a81b0319168155600181018290559061170e6002830182612e13565b5050611755565b6001600160a01b038082166000908152600e602090815260408083209387168352929052908120600101805484929061174f9084906133f0565b90915550505b61175e8161212a565b6001600160a01b0382166000908152600f602052604090205411156117c55760405162461bcd60e51b815260206004820152601e60248201527f43485661756c743a204e6f7420656e6f75676820636f6c6c61746572616c00006044820152606401610a02565b6117d96001600160a01b0384163384612c8e565b806001600160a01b0316836001600160a01b03167fbab292389c79be14f1a870edd025e27e8e1c41ccc83e197e25393e6c81e0cd8160008560405161104b929190613263565b6001600160a01b039182166000908152600e602090815260408083209385168352929052205416151590565b600061185683611e9b565b905061188d6001600160a01b037f000000000000000000000000000000000000000000000000000000000000000016333084612b16565b6118978284612bc9565b60408051828152602081018590526001600160a01b0384169133917fdcbc1c05240f31ff3ad067ef1ee35ce4997762752e3a095284754544f4c709d7910160405180910390a36109a38184612c23565b600280546108bb90613407565b6001600160a01b039182166000908152600e6020908152604080832093909416825291909152206001015490565b6040805160a08101825260008082526020820181905291810182905260608101829052608081019190915260006040518060a0016040528061196360085490565b815260200161197061275d565b63ffffffff1681526205b8d860208201526208fcc86040820152620e7ef060609091015292915050565b336000908152600560205260408120805483919083906119bb9084906133f0565b90915550506001600160a01b03831660008181526005602052604090819020805485019055513390600080516020613484833981519152906109979086815260200190565b6001600160a01b0382166000908152600b602052604090205460ff161515600114611a3d5760405162461bcd60e51b8152600401610a029061333d565b6000815111611a8a5760405162461bcd60e51b815260206004820152601960248201527810d215985d5b1d0e88115b5c1d1e481d1bdad95b881b1a5cdd603a1b6044820152606401610a02565b336000818152600e602090815260408083206001600160a01b03871684529091529020600181015483511015611b025760405162461bcd60e51b815260206004820152601a60248201527f43485661756c743a20496e76616c696420746f6b656e204944730000000000006044820152606401610a02565b6000805b6002830154811015611c525760005b8551811015611c3f57858181518110611b3e57634e487b7160e01b600052603260045260246000fd5b6020026020010151846002018381548110611b6957634e487b7160e01b600052603260045260246000fd5b90600052602060002001541415611c2d57866001600160a01b03166342842e0e3087898581518110611bab57634e487b7160e01b600052603260045260246000fd5b60209081029190910101516040516001600160e01b031960e086901b1681526001600160a01b0393841660048201529290911660248301526044820152606401600060405180830381600087803b158015611c0557600080fd5b505af1158015611c19573d6000803e3d6000fd5b50505050600183611c2a919061338c565b92505b80611c378161343c565b915050611b15565b5080611c4a8161343c565b915050611b06565b5083518160ff1614611ca65760405162461bcd60e51b815260206004820152601960248201527f43485661756c743a20496e76616c696420746f6b656e204944000000000000006044820152606401610a02565b83516001600160a01b038085166000908152600e60209081526040808320938a1683529290529081206001018054909190611ce29084906133f0565b90915550611cf190508361212a565b6001600160a01b0384166000908152600f60205260409020541115611d585760405162461bcd60e51b815260206004820152601e60248201527f43485661756c743a204e6f7420656e6f75676820636f6c6c61746572616c00006044820152606401610a02565b60005b8451811015611e1a57856001600160a01b03166342842e0e3086888581518110611d9557634e487b7160e01b600052603260045260246000fd5b60209081029190910101516040516001600160e01b031960e086901b1681526001600160a01b0393841660048201529290911660248301526044820152606401600060405180830381600087803b158015611def57600080fd5b505af1158015611e03573d6000803e3d6000fd5b505050508080611e129061343c565b915050611d5b565b50826001600160a01b0316856001600160a01b03167fbab292389c79be14f1a870edd025e27e8e1c41ccc83e197e25393e6c81e0cd8160018751604051611e62929190613263565b60405180910390a35050505050565b600c8181548110611e8157600080fd5b6000918252602090912001546001600160a01b0316905081565b60045460009080156109cf576109ca611eb360085490565b84908361284a565b6000611ec6846109a9565b9050336001600160a01b03831614611f36576001600160a01b03821660009081526006602090815260408083203384529091529020546000198114611f3457611f0f82826133f0565b6001600160a01b03841660009081526006602090815260408083203384529091529020555b505b611f408482612d0d565b611f4a8282612d1f565b826001600160a01b0316826001600160a01b03167ff341246adaac6f497bc2a656f546ab9e182111d630394f0c57c710a59a2cb5678684604051611f98929190918252602082015260400190565b60405180910390a36109d16001600160a01b037f0000000000000000000000000000000000000000000000000000000000000000168486612c8e565b6001600160a01b038116600081815260066020908152604080832033808552925282205491921480159061200a57506000198114155b1561203e5761201985826133f0565b6001600160a01b03841660009081526006602090815260408083203384529091529020555b6120478561119e565b9150816120845760405162461bcd60e51b815260206004820152600b60248201526a5a45524f5f41535345545360a81b6044820152606401610a02565b61208e8286612d0d565b6120988386612d1f565b836001600160a01b0316836001600160a01b03167ff341246adaac6f497bc2a656f546ab9e182111d630394f0c57c710a59a2cb56784886040516120e6929190918252602082015260400190565b60405180910390a36121226001600160a01b037f0000000000000000000000000000000000000000000000000000000000000000168584612c8e565b509392505050565b600080805b600c5481101561231f576000600c828154811061215c57634e487b7160e01b600052603260045260246000fd5b60009182526020808320909101546001600160a01b038881168452600e83526040808520928216808652928452808520815160808101909252805492831682529295509283019060ff600160a01b9091041660028111156121cd57634e487b7160e01b600052602160045260246000fd5b60028111156121ec57634e487b7160e01b600052602160045260246000fd5b8152602001600182015481526020016002820180548060200260200160405190810160405280929190818152602001828054801561224957602002820191906000526020600020905b815481526020019060010190808311612235575b505050505081525050905061225e868361181f565b1561230a57604081810151600a5491516352a1518960e01b81526001600160a01b03858116600483015260248201839052919260009216906352a151899060440160206040518083038186803b1580156122b757600080fd5b505afa1580156122cb573d6000803e3d6000fd5b505050506040513d601f19601f820116820180604052508101906122ef919061308c565b90506000811315612307576123048187613374565b95505b50505b505080806123179061343c565b91505061212f565b5092915050565b6000600954600854610ba091906133f0565b60006109a382610b53565b428410156123935760405162461bcd60e51b815260206004820152601760248201527f5045524d49545f444541444c494e455f455850495245440000000000000000006044820152606401610a02565b600061239d610ba5565b6001600160a01b0389811660008181526007602090815260409182902080546001810190915582517f6e71edae12b1b97f4d1f60370fef10105fa2faae0126114a169c64845d6126c98184015280840194909452938c166060840152608083018b905260a083019390935260c08083018a90528151808403909101815260e08301909152805192019190912061190160f01b6101008301526101028201929092526101228101919091526101420160408051601f198184030181528282528051602091820120600080855291840180845281905260ff88169284019290925260608301869052608083018590529092509060019060a0016020604051602081039080840390855afa1580156124b6573d6000803e3d6000fd5b5050604051601f1901519150506001600160a01b038116158015906124ec5750886001600160a01b0316816001600160a01b0316145b6125295760405162461bcd60e51b815260206004820152600e60248201526d24a72b20a624a22fa9a4a3a722a960911b6044820152606401610a02565b6001600160a01b0390811660009081526006602090815260408083208b8516808552908352928190208a905551898152919350918a16917f8c5be1e5ebec7d5bd14f71427d1e84f3dd0314c0f7b2291e5b200ac8c7c3b925910160405180910390a350505050505050565b600c5460609060009067ffffffffffffffff8111156125c357634e487b7160e01b600052604160045260246000fd5b60405190808252806020026020018201604052801561262157816020015b61260e604051806060016040528060006001600160a01b0316815260200160008152602001600081525090565b8152602001906001900390816125e15790505b50905060005b600c54811015612757576000600c828154811061265457634e487b7160e01b600052603260045260246000fd5b6000918252602080832091909101546001600160a01b03908116808452601083526040808520548151606081018352838152948501819052600a5482516352a1518960e01b8152600481018590526001602482015293975090959493918401929116906352a151899060440160206040518083038186803b1580156126d857600080fd5b505afa1580156126ec573d6000803e3d6000fd5b505050506040513d601f19601f82011682018060405250810190612710919061308c565b81525090508085858151811061273657634e487b7160e01b600052603260045260246000fd5b6020026020010181905250505050808061274f9061343c565b915050612627565b50919050565b6000600854600014156127705750600090565b60085460095461278490620186a0906133d1565b610ba091906133b1565b60045460009080156109cf576109ca816127a760085490565b859190612baa565b6000546001600160a01b031633146127d95760405162461bcd60e51b8152600401610a02906132d1565b6001600160a01b03811661283e5760405162461bcd60e51b815260206004820152602660248201527f4f776e61626c653a206e6577206f776e657220697320746865207a65726f206160448201526564647265737360d01b6064820152608401610a02565b61284781612c3e565b50565b82820281151584158583048514171661286257600080fd5b6001826001830304018115150290509392505050565b801561293a5760005b600c548110156128e857826001600160a01b0316600c82815481106128b657634e487b7160e01b600052603260045260246000fd5b6000918252602090912001546001600160a01b031614156128d657505050565b806128e08161343c565b915050612881565b50600c80546001810182556000919091527fdf6966c971051c3d54ec59162606531493a51404a002842f56009d7e5cf4a8c70180546001600160a01b0384166001600160a01b03199091161790555050565b60005b600c54811015612a7757826001600160a01b0316600c828154811061297257634e487b7160e01b600052603260045260246000fd5b6000918252602090912001546001600160a01b03161415612a6557600c805461299d906001906133f0565b815481106129bb57634e487b7160e01b600052603260045260246000fd5b600091825260209091200154600c80546001600160a01b0390921691839081106129f557634e487b7160e01b600052603260045260246000fd5b9060005260206000200160006101000a8154816001600160a01b0302191690836001600160a01b03160217905550600c805480612a4257634e487b7160e01b600052603160045260246000fd5b600082815260209020810160001990810180546001600160a01b03191690550190555b80612a6f8161343c565b91505061293d565b505050565b60007f8b73c3c69bb8fe3d512ecc4cf759cc79239f7b179b0ffacaa9a75d522b39400f6001604051612aae919061313b565b6040805191829003822060208301939093528101919091527fc89efdaa54c0f20c7adf612882df0950f5a951637e0307cdcb4c672f298b8bc660608201524660808201523060a082015260c00160405160208183030381529060405280519060200120905090565b60006040516323b872dd60e01b81526001600160a01b03851660048201526001600160a01b038416602482015282604482015260008060648360008a5af1915050612b6081612d81565b612ba35760405162461bcd60e51b81526020600482015260146024820152731514905394d1915497d19493d357d1905253115160621b6044820152606401610a02565b5050505050565b828202811515841585830485141716612bc257600080fd5b0492915050565b8060046000828254612bdb9190613374565b90915550506001600160a01b03821660008181526005602090815260408083208054860190555184815260008051602061348483398151915291015b60405180910390a35050565b8160086000828254612c359190613374565b90915550505050565b600080546001600160a01b038381166001600160a01b0319831681178455604051919092169283917f8be0079c531659141344cd1fd0a4f28419497f9722a3daafe3b4186f6b6457e09190a35050565b600060405163a9059cbb60e01b81526001600160a01b03841660048201528260248201526000806044836000895af1915050612cc981612d81565b612d075760405162461bcd60e51b815260206004820152600f60248201526e1514905394d1915497d19052531151608a1b6044820152606401610a02565b50505050565b8160086000828254612c3591906133f0565b6001600160a01b03821660009081526005602052604081208054839290612d479084906133f0565b90915550506004805482900390556040518181526000906001600160a01b0384169060008051602061348483398151915290602001612c17565b60003d82612d9357806000803e806000fd5b8060208114612dab578015612dbc5760009250612dc1565b816000803e60005115159250612dc1565b600192505b5050919050565b828054828255906000526020600020908101928215612e03579160200282015b82811115612e03578251825591602001919060010190612de8565b50612e0f929150612e2d565b5090565b508054600082559060005260206000209081019061284791905b5b80821115612e0f5760008155600101612e2e565b80356001600160a01b0381168114612e5957600080fd5b919050565b600060208284031215612e6f578081fd5b6109d182612e42565b60008060408385031215612e8a578081fd5b612e9383612e42565b9150612ea160208401612e42565b90509250929050565b600080600060608486031215612ebe578081fd5b612ec784612e42565b9250612ed560208501612e42565b9150604084013590509250925092565b600080600080600080600060e0888a031215612eff578283fd5b612f0888612e42565b9650612f1660208901612e42565b95506040880135945060608801359350608088013560ff81168114612f39578384fd5b9699959850939692959460a0840135945060c09093013592915050565b60008060408385031215612f68578182fd5b612f7183612e42565b915060208084013567ffffffffffffffff80821115612f8e578384fd5b818601915086601f830112612fa1578384fd5b813581811115612fb357612fb361346d565b8060051b604051601f19603f83011681018181108582111715612fd857612fd861346d565b604052828152858101935084860182860187018b1015612ff6578788fd5b8795505b83861015613018578035855260019590950194938601938601612ffa565b508096505050505050509250929050565b6000806040838503121561303b578182fd5b61304483612e42565b915060208301358015158114613058578182fd5b809150509250929050565b60008060408385031215613075578182fd5b61307e83612e42565b946020939093013593505050565b60006020828403121561309d578081fd5b5051919050565b6000602082840312156130b5578081fd5b5035919050565b600080604083850312156130ce578182fd5b82359150612ea160208401612e42565b6000806000606084860312156130f2578283fd5b8335925061310260208501612e42565b915061311060408501612e42565b90509250925092565b6003811061313757634e487b7160e01b600052602160045260246000fd5b9052565b600080835482600182811c91508083168061315757607f831692505b602080841082141561317757634e487b7160e01b87526022600452602487fd5b81801561318b576001811461319c576131c8565b60ff198616895284890196506131c8565b60008a815260209020885b868110156131c05781548b8201529085019083016131a7565b505084890196505b509498975050505050505050565b6001600160a01b0384168152606081016131f36020830185613119565b826040830152949350505050565b602080825282518282018190526000919060409081850190868401855b8281101561325657815180516001600160a01b031685528681015187860152850151858501526060909301929085019060010161321e565b5091979650505050505050565b604081016132718285613119565b8260208301529392505050565b6000602080835283518082850152825b818110156132aa5785810183015185820160400152820161328e565b818111156132bb5783604083870101525b50601f01601f1916929092016040019392505050565b6020808252818101527f4f776e61626c653a2063616c6c6572206973206e6f7420746865206f776e6572604082015260600190565b60208082526017908201527f43485661756c743a20496e76616c696420616d6f756e74000000000000000000604082015260600190565b60208082526018908201527f43485661756c743a204e6f742077686974656c69737465640000000000000000604082015260600190565b6000821982111561338757613387613457565b500190565b600060ff821660ff84168060ff038211156133a9576133a9613457565b019392505050565b6000826133cc57634e487b7160e01b81526012600452602481fd5b500490565b60008160001904831182151516156133eb576133eb613457565b500290565b60008282101561340257613402613457565b500390565b600181811c9082168061341b57607f821691505b6020821081141561275757634e487b7160e01b600052602260045260246000fd5b600060001982141561345057613450613457565b5060010190565b634e487b7160e01b600052601160045260246000fd5b634e487b7160e01b600052604160045260246000fdfeddf252ad1be2c89b69c2b068fc378daa952ba7f163c4a11628f55a4df523b3efa26469706673582212203e7fae6445f68be2eb0123d6cb8c7f04324c2233348e5a90cac1ddb4dd0676d664736f6c63430008040033",
  "linkReferences": {},
  "deployedLinkReferences": {}
}