{
  "_format": "hh-sol-artifact-1",
  "contractName": "CheddaMarketExplorer",
  "sourceName": "contracts/market/CheddaMarketExplorer.sol",
  "abi": [
    {
      "anonymous": false,
      "inputs": [
        {
          "indexed": true,
          "internalType": "address",
          "name": "previousOwner",
          "type": "address"
        },
        {
          "indexed": true,
          "internalType": "address",
          "name": "newOwner",
          "type": "address"
        }
      ],
      "name": "OwnershipTransferred",
      "type": "event"
    },
    {
      "inputs": [
        {
          "internalType": "uint256",
          "name": "",
          "type": "uint256"
        }
      ],
      "name": "allItems",
      "outputs": [
        {
          "internalType": "address",
          "name": "nftContract",
          "type": "address"
        },
        {
          "internalType": "uint256",
          "name": "tokenID",
          "type": "uint256"
        },
        {
          "internalType": "string",
          "name": "tokenURI",
          "type": "string"
        },
        {
          "internalType": "uint256",
          "name": "price",
          "type": "uint256"
        },
        {
          "internalType": "uint256",
          "name": "listingTime",
          "type": "uint256"
        }
      ],
      "stateMutability": "view",
      "type": "function"
    },
    {
      "inputs": [
        {
          "internalType": "address",
          "name": "",
          "type": "address"
        }
      ],
      "name": "collectionDislikes",
      "outputs": [
        {
          "internalType": "uint256",
          "name": "",
          "type": "uint256"
        }
      ],
      "stateMutability": "view",
      "type": "function"
    },
    {
      "inputs": [
        {
          "internalType": "address",
          "name": "",
          "type": "address"
        },
        {
          "internalType": "uint256",
          "name": "",
          "type": "uint256"
        }
      ],
      "name": "collectionItems",
      "outputs": [
        {
          "internalType": "address",
          "name": "nftContract",
          "type": "address"
        },
        {
          "internalType": "uint256",
          "name": "tokenID",
          "type": "uint256"
        },
        {
          "internalType": "string",
          "name": "tokenURI",
          "type": "string"
        },
        {
          "internalType": "uint256",
          "name": "price",
          "type": "uint256"
        },
        {
          "internalType": "uint256",
          "name": "listingTime",
          "type": "uint256"
        }
      ],
      "stateMutability": "view",
      "type": "function"
    },
    {
      "inputs": [
        {
          "internalType": "address",
          "name": "",
          "type": "address"
        }
      ],
      "name": "collectionLikes",
      "outputs": [
        {
          "internalType": "uint256",
          "name": "",
          "type": "uint256"
        }
      ],
      "stateMutability": "view",
      "type": "function"
    },
    {
      "inputs": [
        {
          "internalType": "uint256",
          "name": "",
          "type": "uint256"
        }
      ],
      "name": "collectionList",
      "outputs": [
        {
          "internalType": "address",
          "name": "",
          "type": "address"
        }
      ],
      "stateMutability": "view",
      "type": "function"
    },
    {
      "inputs": [
        {
          "internalType": "address",
          "name": "",
          "type": "address"
        }
      ],
      "name": "collections",
      "outputs": [
        {
          "internalType": "address",
          "name": "nftContract",
          "type": "address"
        },
        {
          "internalType": "string",
          "name": "metadataURI",
          "type": "string"
        },
        {
          "internalType": "bool",
          "name": "exists",
          "type": "bool"
        }
      ],
      "stateMutability": "view",
      "type": "function"
    },
    {
      "inputs": [
        {
          "internalType": "address",
          "name": "nftContract",
          "type": "address"
        }
      ],
      "name": "dislikeCollection",
      "outputs": [],
      "stateMutability": "nonpayable",
      "type": "function"
    },
    {
      "inputs": [
        {
          "internalType": "address",
          "name": "nftContract",
          "type": "address"
        },
        {
          "internalType": "uint256",
          "name": "tokenId",
          "type": "uint256"
        }
      ],
      "name": "dislikeItem",
      "outputs": [],
      "stateMutability": "nonpayable",
      "type": "function"
    },
    {
      "inputs": [],
      "name": "getAllItems",
      "outputs": [
        {
          "components": [
            {
              "components": [
                {
                  "internalType": "address",
                  "name": "nftContract",
                  "type": "address"
                },
                {
                  "internalType": "uint256",
                  "name": "tokenID",
                  "type": "uint256"
                },
                {
                  "internalType": "string",
                  "name": "tokenURI",
                  "type": "string"
                },
                {
                  "internalType": "uint256",
                  "name": "price",
                  "type": "uint256"
                },
                {
                  "internalType": "uint256",
                  "name": "listingTime",
                  "type": "uint256"
                }
              ],
              "internalType": "struct CheddaMarketExplorer.MarketItem",
              "name": "item",
              "type": "tuple"
            },
            {
              "components": [
                {
                  "internalType": "uint256",
                  "name": "likes",
                  "type": "uint256"
                },
                {
                  "internalType": "uint256",
                  "name": "dislikes",
                  "type": "uint256"
                }
              ],
              "internalType": "struct CheddaMarketExplorer.LikesDislikes",
              "name": "likesDislikes",
              "type": "tuple"
            }
          ],
          "internalType": "struct CheddaMarketExplorer.MarketItemWithLikes[]",
          "name": "",
          "type": "tuple[]"
        }
      ],
      "stateMutability": "view",
      "type": "function"
    },
    {
      "inputs": [
        {
          "internalType": "address",
          "name": "nftContract",
          "type": "address"
        }
      ],
      "name": "getCollectionDetails",
      "outputs": [
        {
          "components": [
            {
              "components": [
                {
                  "internalType": "address",
                  "name": "nftContract",
                  "type": "address"
                },
                {
                  "internalType": "string",
                  "name": "metadataURI",
                  "type": "string"
                },
                {
                  "internalType": "bool",
                  "name": "exists",
                  "type": "bool"
                }
              ],
              "internalType": "struct CheddaMarketExplorer.Collection",
              "name": "collection",
              "type": "tuple"
            },
            {
              "components": [
                {
                  "internalType": "uint256",
                  "name": "likes",
                  "type": "uint256"
                },
                {
                  "internalType": "uint256",
                  "name": "dislikes",
                  "type": "uint256"
                }
              ],
              "internalType": "struct CheddaMarketExplorer.LikesDislikes",
              "name": "likesDislikes",
              "type": "tuple"
            }
          ],
          "internalType": "struct CheddaMarketExplorer.CollectionWithLikes",
          "name": "",
          "type": "tuple"
        }
      ],
      "stateMutability": "view",
      "type": "function"
    },
    {
      "inputs": [],
      "name": "getCollections",
      "outputs": [
        {
          "components": [
            {
              "components": [
                {
                  "internalType": "address",
                  "name": "nftContract",
                  "type": "address"
                },
                {
                  "internalType": "string",
                  "name": "metadataURI",
                  "type": "string"
                },
                {
                  "internalType": "bool",
                  "name": "exists",
                  "type": "bool"
                }
              ],
              "internalType": "struct CheddaMarketExplorer.Collection",
              "name": "collection",
              "type": "tuple"
            },
            {
              "components": [
                {
                  "internalType": "uint256",
                  "name": "likes",
                  "type": "uint256"
                },
                {
                  "internalType": "uint256",
                  "name": "dislikes",
                  "type": "uint256"
                }
              ],
              "internalType": "struct CheddaMarketExplorer.LikesDislikes",
              "name": "likesDislikes",
              "type": "tuple"
            }
          ],
          "internalType": "struct CheddaMarketExplorer.CollectionWithLikes[]",
          "name": "",
          "type": "tuple[]"
        }
      ],
      "stateMutability": "view",
      "type": "function"
    },
    {
      "inputs": [
        {
          "internalType": "address",
          "name": "user",
          "type": "address"
        }
      ],
      "name": "getItemsOwned",
      "outputs": [
        {
          "components": [
            {
              "internalType": "address",
              "name": "nftContract",
              "type": "address"
            },
            {
              "internalType": "uint256",
              "name": "tokenID",
              "type": "uint256"
            },
            {
              "internalType": "string",
              "name": "tokenURI",
              "type": "string"
            }
          ],
          "internalType": "struct CheddaMarketExplorer.NFTDetails[]",
          "name": "",
          "type": "tuple[]"
        }
      ],
      "stateMutability": "view",
      "type": "function"
    },
    {
      "inputs": [
        {
          "internalType": "address",
          "name": "nftContract",
          "type": "address"
        },
        {
          "internalType": "uint256",
          "name": "tokenID",
          "type": "uint256"
        }
      ],
      "name": "getMarketItem",
      "outputs": [
        {
          "components": [
            {
              "internalType": "address",
              "name": "nftContract",
              "type": "address"
            },
            {
              "internalType": "uint256",
              "name": "tokenID",
              "type": "uint256"
            },
            {
              "internalType": "string",
              "name": "tokenURI",
              "type": "string"
            },
            {
              "internalType": "uint256",
              "name": "price",
              "type": "uint256"
            },
            {
              "internalType": "uint256",
              "name": "listingTime",
              "type": "uint256"
            }
          ],
          "internalType": "struct CheddaMarketExplorer.MarketItem",
          "name": "",
          "type": "tuple"
        }
      ],
      "stateMutability": "view",
      "type": "function"
    },
    {
      "inputs": [
        {
          "internalType": "address",
          "name": "nftContract",
          "type": "address"
        },
        {
          "internalType": "uint256",
          "name": "tokenID",
          "type": "uint256"
        }
      ],
      "name": "getMarketItemWithLikes",
      "outputs": [
        {
          "components": [
            {
              "components": [
                {
                  "internalType": "address",
                  "name": "nftContract",
                  "type": "address"
                },
                {
                  "internalType": "uint256",
                  "name": "tokenID",
                  "type": "uint256"
                },
                {
                  "internalType": "string",
                  "name": "tokenURI",
                  "type": "string"
                },
                {
                  "internalType": "uint256",
                  "name": "price",
                  "type": "uint256"
                },
                {
                  "internalType": "uint256",
                  "name": "listingTime",
                  "type": "uint256"
                }
              ],
              "internalType": "struct CheddaMarketExplorer.MarketItem",
              "name": "item",
              "type": "tuple"
            },
            {
              "components": [
                {
                  "internalType": "uint256",
                  "name": "likes",
                  "type": "uint256"
                },
                {
                  "internalType": "uint256",
                  "name": "dislikes",
                  "type": "uint256"
                }
              ],
              "internalType": "struct CheddaMarketExplorer.LikesDislikes",
              "name": "likesDislikes",
              "type": "tuple"
            }
          ],
          "internalType": "struct CheddaMarketExplorer.MarketItemWithLikes",
          "name": "",
          "type": "tuple"
        }
      ],
      "stateMutability": "view",
      "type": "function"
    },
    {
      "inputs": [
        {
          "internalType": "address",
          "name": "nftContract",
          "type": "address"
        },
        {
          "internalType": "uint256",
          "name": "tokenID",
          "type": "uint256"
        }
      ],
      "name": "getNFTDetails",
      "outputs": [
        {
          "components": [
            {
              "internalType": "address",
              "name": "nftContract",
              "type": "address"
            },
            {
              "internalType": "uint256",
              "name": "tokenID",
              "type": "uint256"
            },
            {
              "internalType": "string",
              "name": "tokenURI",
              "type": "string"
            }
          ],
          "internalType": "struct CheddaMarketExplorer.NFTDetails",
          "name": "",
          "type": "tuple"
        }
      ],
      "stateMutability": "view",
      "type": "function"
    },
    {
      "inputs": [
        {
          "internalType": "address",
          "name": "",
          "type": "address"
        },
        {
          "internalType": "uint256",
          "name": "",
          "type": "uint256"
        }
      ],
      "name": "itemDislikes",
      "outputs": [
        {
          "internalType": "uint256",
          "name": "",
          "type": "uint256"
        }
      ],
      "stateMutability": "view",
      "type": "function"
    },
    {
      "inputs": [
        {
          "internalType": "address",
          "name": "",
          "type": "address"
        },
        {
          "internalType": "uint256",
          "name": "",
          "type": "uint256"
        }
      ],
      "name": "itemLikes",
      "outputs": [
        {
          "internalType": "uint256",
          "name": "",
          "type": "uint256"
        }
      ],
      "stateMutability": "view",
      "type": "function"
    },
    {
      "inputs": [
        {
          "internalType": "address",
          "name": "nftContract",
          "type": "address"
        }
      ],
      "name": "itemsInCollection",
      "outputs": [
        {
          "components": [
            {
              "components": [
                {
                  "internalType": "address",
                  "name": "nftContract",
                  "type": "address"
                },
                {
                  "internalType": "uint256",
                  "name": "tokenID",
                  "type": "uint256"
                },
                {
                  "internalType": "string",
                  "name": "tokenURI",
                  "type": "string"
                },
                {
                  "internalType": "uint256",
                  "name": "price",
                  "type": "uint256"
                },
                {
                  "internalType": "uint256",
                  "name": "listingTime",
                  "type": "uint256"
                }
              ],
              "internalType": "struct CheddaMarketExplorer.MarketItem",
              "name": "item",
              "type": "tuple"
            },
            {
              "components": [
                {
                  "internalType": "uint256",
                  "name": "likes",
                  "type": "uint256"
                },
                {
                  "internalType": "uint256",
                  "name": "dislikes",
                  "type": "uint256"
                }
              ],
              "internalType": "struct CheddaMarketExplorer.LikesDislikes",
              "name": "likesDislikes",
              "type": "tuple"
            }
          ],
          "internalType": "struct CheddaMarketExplorer.MarketItemWithLikes[]",
          "name": "",
          "type": "tuple[]"
        }
      ],
      "stateMutability": "view",
      "type": "function"
    },
    {
      "inputs": [
        {
          "internalType": "address",
          "name": "",
          "type": "address"
        },
        {
          "internalType": "uint256",
          "name": "",
          "type": "uint256"
        }
      ],
      "name": "itemsOwned",
      "outputs": [
        {
          "internalType": "address",
          "name": "nftContract",
          "type": "address"
        },
        {
          "internalType": "uint256",
          "name": "tokenID",
          "type": "uint256"
        }
      ],
      "stateMutability": "view",
      "type": "function"
    },
    {
      "inputs": [
        {
          "internalType": "address",
          "name": "nftContract",
          "type": "address"
        }
      ],
      "name": "likeCollection",
      "outputs": [],
      "stateMutability": "nonpayable",
      "type": "function"
    },
    {
      "inputs": [
        {
          "internalType": "address",
          "name": "nftContract",
          "type": "address"
        },
        {
          "internalType": "uint256",
          "name": "tokenId",
          "type": "uint256"
        }
      ],
      "name": "likeItem",
      "outputs": [],
      "stateMutability": "nonpayable",
      "type": "function"
    },
    {
      "inputs": [
        {
          "internalType": "uint256",
          "name": "time",
          "type": "uint256"
        }
      ],
      "name": "newlyListedItems",
      "outputs": [
        {
          "components": [
            {
              "components": [
                {
                  "internalType": "address",
                  "name": "nftContract",
                  "type": "address"
                },
                {
                  "internalType": "uint256",
                  "name": "tokenID",
                  "type": "uint256"
                },
                {
                  "internalType": "string",
                  "name": "tokenURI",
                  "type": "string"
                },
                {
                  "internalType": "uint256",
                  "name": "price",
                  "type": "uint256"
                },
                {
                  "internalType": "uint256",
                  "name": "listingTime",
                  "type": "uint256"
                }
              ],
              "internalType": "struct CheddaMarketExplorer.MarketItem",
              "name": "item",
              "type": "tuple"
            },
            {
              "components": [
                {
                  "internalType": "uint256",
                  "name": "likes",
                  "type": "uint256"
                },
                {
                  "internalType": "uint256",
                  "name": "dislikes",
                  "type": "uint256"
                }
              ],
              "internalType": "struct CheddaMarketExplorer.LikesDislikes",
              "name": "likesDislikes",
              "type": "tuple"
            }
          ],
          "internalType": "struct CheddaMarketExplorer.MarketItemWithLikes[]",
          "name": "",
          "type": "tuple[]"
        }
      ],
      "stateMutability": "view",
      "type": "function"
    },
    {
      "inputs": [],
      "name": "owner",
      "outputs": [
        {
          "internalType": "address",
          "name": "",
          "type": "address"
        }
      ],
      "stateMutability": "view",
      "type": "function"
    },
    {
      "inputs": [],
      "name": "popularItemMinumumLikes",
      "outputs": [
        {
          "internalType": "uint256",
          "name": "",
          "type": "uint256"
        }
      ],
      "stateMutability": "view",
      "type": "function"
    },
    {
      "inputs": [],
      "name": "popularItemRatio",
      "outputs": [
        {
          "internalType": "uint256",
          "name": "",
          "type": "uint256"
        }
      ],
      "stateMutability": "view",
      "type": "function"
    },
    {
      "inputs": [],
      "name": "popularItems",
      "outputs": [
        {
          "components": [
            {
              "components": [
                {
                  "internalType": "address",
                  "name": "nftContract",
                  "type": "address"
                },
                {
                  "internalType": "uint256",
                  "name": "tokenID",
                  "type": "uint256"
                },
                {
                  "internalType": "string",
                  "name": "tokenURI",
                  "type": "string"
                },
                {
                  "internalType": "uint256",
                  "name": "price",
                  "type": "uint256"
                },
                {
                  "internalType": "uint256",
                  "name": "listingTime",
                  "type": "uint256"
                }
              ],
              "internalType": "struct CheddaMarketExplorer.MarketItem",
              "name": "item",
              "type": "tuple"
            },
            {
              "components": [
                {
                  "internalType": "uint256",
                  "name": "likes",
                  "type": "uint256"
                },
                {
                  "internalType": "uint256",
                  "name": "dislikes",
                  "type": "uint256"
                }
              ],
              "internalType": "struct CheddaMarketExplorer.LikesDislikes",
              "name": "likesDislikes",
              "type": "tuple"
            }
          ],
          "internalType": "struct CheddaMarketExplorer.MarketItemWithLikes[]",
          "name": "",
          "type": "tuple[]"
        }
      ],
      "stateMutability": "view",
      "type": "function"
    },
    {
      "inputs": [],
      "name": "registry",
      "outputs": [
        {
          "internalType": "contract ICheddaAddressRegistry",
          "name": "",
          "type": "address"
        }
      ],
      "stateMutability": "view",
      "type": "function"
    },
    {
      "inputs": [],
      "name": "renounceOwnership",
      "outputs": [],
      "stateMutability": "nonpayable",
      "type": "function"
    },
    {
      "inputs": [
        {
          "internalType": "address",
          "name": "nftContract",
          "type": "address"
        },
        {
          "internalType": "uint256",
          "name": "tokenID",
          "type": "uint256"
        },
        {
          "internalType": "uint256",
          "name": "price",
          "type": "uint256"
        },
        {
          "internalType": "address",
          "name": "seller",
          "type": "address"
        }
      ],
      "name": "reportListing",
      "outputs": [],
      "stateMutability": "nonpayable",
      "type": "function"
    },
    {
      "inputs": [
        {
          "internalType": "address",
          "name": "nftContract",
          "type": "address"
        },
        {
          "internalType": "uint256",
          "name": "tokenID",
          "type": "uint256"
        },
        {
          "internalType": "address",
          "name": "seller",
          "type": "address"
        },
        {
          "internalType": "address",
          "name": "buyer",
          "type": "address"
        }
      ],
      "name": "reportMarketSale",
      "outputs": [],
      "stateMutability": "nonpayable",
      "type": "function"
    },
    {
      "inputs": [
        {
          "internalType": "address",
          "name": "newOwner",
          "type": "address"
        }
      ],
      "name": "transferOwnership",
      "outputs": [],
      "stateMutability": "nonpayable",
      "type": "function"
    },
    {
      "inputs": [
        {
          "internalType": "address",
          "name": "registryAddress",
          "type": "address"
        }
      ],
      "name": "updateRegistry",
      "outputs": [],
      "stateMutability": "nonpayable",
      "type": "function"
    },
    {
      "inputs": [
        {
          "internalType": "address",
          "name": "",
          "type": "address"
        },
        {
          "internalType": "address",
          "name": "",
          "type": "address"
        }
      ],
      "name": "userDislikedCollection",
      "outputs": [
        {
          "internalType": "bool",
          "name": "",
          "type": "bool"
        }
      ],
      "stateMutability": "view",
      "type": "function"
    },
    {
      "inputs": [
        {
          "internalType": "address",
          "name": "",
          "type": "address"
        },
        {
          "internalType": "address",
          "name": "",
          "type": "address"
        },
        {
          "internalType": "uint256",
          "name": "",
          "type": "uint256"
        }
      ],
      "name": "userDislikedItem",
      "outputs": [
        {
          "internalType": "bool",
          "name": "",
          "type": "bool"
        }
      ],
      "stateMutability": "view",
      "type": "function"
    },
    {
      "inputs": [
        {
          "internalType": "address",
          "name": "",
          "type": "address"
        },
        {
          "internalType": "address",
          "name": "",
          "type": "address"
        }
      ],
      "name": "userLikedCollection",
      "outputs": [
        {
          "internalType": "bool",
          "name": "",
          "type": "bool"
        }
      ],
      "stateMutability": "view",
      "type": "function"
    },
    {
      "inputs": [
        {
          "internalType": "address",
          "name": "",
          "type": "address"
        },
        {
          "internalType": "address",
          "name": "",
          "type": "address"
        },
        {
          "internalType": "uint256",
          "name": "",
          "type": "uint256"
        }
      ],
      "name": "userLikedItem",
      "outputs": [
        {
          "internalType": "bool",
          "name": "",
          "type": "bool"
        }
      ],
      "stateMutability": "view",
      "type": "function"
    }
  ],
  "bytecode": "0x60806040526001600a556002600b553480156200001b57600080fd5b5062000027336200002d565b6200007d565b600080546001600160a01b038381166001600160a01b0319831681178455604051919092169283917f8be0079c531659141344cd1fd0a4f28419497f9722a3daafe3b4186f6b6457e09190a35050565b6137be806200008d6000396000f3fe608060405234801561001057600080fd5b506004361061021c5760003560e01c8063984052fa11610125578063e04b303d116100ad578063ed40a1ae1161007c578063ed40a1ae1461058c578063f2fde38b146105be578063f802e3f1146105d1578063f81d02f4146105f5578063ff68fa6e1461061557600080fd5b8063e04b303d1461050d578063e33c21e214610520578063e6abe43b1461054b578063ecb676461461057957600080fd5b8063bb6fcbea116100f4578063bb6fcbea14610472578063c072b02b14610492578063c7921379146104bd578063c82e1fe7146104d0578063d81f9a5a1461050457600080fd5b8063984052fa1461042457806398e9bc9c146104375780639c74109a14610457578063a0e029851461045f57600080fd5b80634ba1d6aa116101a85780637b103999116101775780637b103999146103b657806383818024146103c95780638a687064146103dc5780638da5cb5b146103f3578063903cb26b1461040457600080fd5b80634ba1d6aa1461034d57806357b41bcf14610355578063715018a614610383578063752d121c1461038b57600080fd5b8063420fd9ba116101ef578063420fd9ba1461029257806343add2e6146102b257806345c4bd89146102d457806346e6358614610318578063497af3501461032d57600080fd5b806311cda15f146102215780631a5da6c81461024a578063261da5dd1461025f57806334deb86d14610272575b600080fd5b61023461022f366004613084565b610628565b60405161024191906134ee565b60405180910390f35b61025d610258366004613084565b610865565b005b61025d61026d366004613084565b6108ba565b610285610280366004613084565b610a75565b604051610241919061362c565b6102a56102a036600461313b565b610b9f565b604051610241919061363f565b6102c56102c0366004613084565b610c15565b6040516102419392919061341c565b6103086102e23660046130fb565b600860209081526000938452604080852082529284528284209052825290205460ff1681565b6040519015158152602001610241565b610320610ccd565b604051610241919061348d565b61034061033b366004613084565b610ee1565b6040516102419190613542565b6102346110ba565b6103086103633660046130c3565b600760209081526000928352604080842090915290825290205460ff1681565b61025d6112cd565b61039e6103993660046132bf565b611303565b6040516001600160a01b039091168152602001610241565b60015461039e906001600160a01b031681565b61025d6103d736600461313b565b61132d565b6103e5600b5481565b604051908152602001610241565b6000546001600160a01b031661039e565b61041761041236600461313b565b611531565b6040516102419190613652565b6102346104323660046132bf565b611789565b61044a61044536600461313b565b611a46565b6040516102419190613665565b610234611b5b565b61025d61046d36600461313b565b612070565b6103e5610480366004613084565b60036020526000908152604090205481565b6103e56104a036600461313b565b600460209081526000928352604080842090915290825290205481565b61025d6104cb366004613084565b612224565b6103086104de3660046130fb565b600960209081526000938452604080852082529284528284209052825290205460ff1681565b6103e5600a5481565b61025d61051b366004613166565b612390565b6103e561052e36600461313b565b600560209081526000928352604080842090915290825290205481565b6103086105593660046130c3565b600660209081526000928352604080842090915290825290205460ff1681565b61025d6105873660046131b8565b6127c4565b61059f61059a36600461313b565b612bc2565b604080516001600160a01b039093168352602083019190915201610241565b61025d6105cc366004613084565b612c08565b6105e46105df36600461313b565b612ca3565b604051610241959493929190613452565b6103e5610603366004613084565b60026020526000908152604090205481565b6105e46106233660046132bf565b612d85565b6001600160a01b0381166000908152601060205260408120546060918167ffffffffffffffff81111561066b57634e487b7160e01b600052604160045260246000fd5b6040519080825280602002602001820160405280156106a457816020015b610691612e9c565b8152602001906001900390816106895790505b50905060005b8281101561085d576001600160a01b03851660009081526010602052604081208054839081106106ea57634e487b7160e01b600052603260045260246000fd5b6000918252602080832060059283020180546001600160a01b03168085526004835260408086206001840154808852908552818720548388529585528187208188529094529485902054855160e081018752958601918252606086019390935260028201805492965093949293839287916080850191610769906136f7565b80601f0160208091040260200160405190810160405280929190818152602001828054610795906136f7565b80156107e25780601f106107b7576101008083540402835291602001916107e2565b820191906000526020600020905b8154815290600101906020018083116107c557829003601f168201915b5050505050815260200160038201548152602001600482015481525050815260200160405180604001604052808581526020018481525081525085858151811061083c57634e487b7160e01b600052603260045260246000fd5b602002602001018190525050505080806108559061372c565b9150506106aa565b509392505050565b6000546001600160a01b031633146108985760405162461bcd60e51b815260040161088f906135d0565b60405180910390fd5b600180546001600160a01b0319166001600160a01b0392909216919091179055565b3360009081526006602090815260408083206001600160a01b038516845290915290205460ff16156108fe5760405162461bcd60e51b815260040161088f90613605565b3360009081526007602090815260408083206001600160a01b038516845290915290205460ff16156109425760405162461bcd60e51b815260040161088f90613605565b3360009081526007602090815260408083206001600160a01b03851684528252808320805460ff191660019081179091556003909252822080549192909161098b908490613678565b9091555050600154604080516327b16a2560e21b815290516000926001600160a01b031691639ec5a894916004808301926020929190829003018186803b1580156109d557600080fd5b505afa1580156109e9573d6000803e3d6000fd5b505050506040513d601f19601f82011682018060405250810190610a0d91906130a7565b90506001600160a01b03811663b5635a826003335b6040518363ffffffff1660e01b8152600401610a3f929190613596565b600060405180830381600087803b158015610a5957600080fd5b505af1158015610a6d573d6000803e3d6000fd5b505050505050565b610a7d612ed6565b6001600160a01b038083166000908152600e6020908152604080832081516060810190925280549094168152600184018054939491939192840191610ac1906136f7565b80601f0160208091040260200160405190810160405280929190818152602001828054610aed906136f7565b8015610b3a5780601f10610b0f57610100808354040283529160200191610b3a565b820191906000526020600020905b815481529060010190602001808311610b1d57829003601f168201915b505050918352505060029182015460ff1615156020918201526001600160a01b03909516600090815290855260408082205460038752918190205481518083018352938452815180830190925291815280860191909152938101939093525090919050565b610ba7612e9c565b6000610bb38484611531565b6001600160a01b0385166000818152600460209081526040808320888452825280832054938352600582528083208884528252918290205482518084018452948552825180840190935292825281810192909252908201529150505b92915050565b600e60205260009081526040902080546001820180546001600160a01b039092169291610c41906136f7565b80601f0160208091040260200160405190810160405280929190818152602001828054610c6d906136f7565b8015610cba5780601f10610c8f57610100808354040283529160200191610cba565b820191906000526020600020905b815481529060010190602001808311610c9d57829003601f168201915b5050506002909301549192505060ff1683565b600f5460609060009067ffffffffffffffff811115610cfc57634e487b7160e01b600052604160045260246000fd5b604051908082528060200260200182016040528015610d3557816020015b610d22612ed6565b815260200190600190039081610d1a5790505b50905060005b600f54811015610edb576000600f8281548110610d6857634e487b7160e01b600052603260045260246000fd5b60009182526020808320909101546001600160a01b03908116808452600e83526040808520815160608101909252805490931681526001830180549296509093840191610db4906136f7565b80601f0160208091040260200160405190810160405280929190818152602001828054610de0906136f7565b8015610e2d5780601f10610e0257610100808354040283529160200191610e2d565b820191906000526020600020905b815481529060010190602001808311610e1057829003601f168201915b505050918352505060029182015460ff16151560209182015282516001600160a01b0390811660009081529282526040808420548551909216845260038352928390205483518085018552858152845180860190955282855284840182905292830193909352875193945092879087908110610eb957634e487b7160e01b600052603260045260246000fd5b6020026020010181905250505050508080610ed39061372c565b915050610d3b565b50919050565b6001600160a01b0381166000908152600c60205260408120546060918167ffffffffffffffff811115610f2457634e487b7160e01b600052604160045260246000fd5b604051908082528060200260200182016040528015610f7157816020015b60408051606080820183526000808352602083015291810191909152815260200190600190039081610f425790505b50905060005b8281101561085d576001600160a01b0385166000908152600c60205260408120805483908110610fb757634e487b7160e01b600052603260045260246000fd5b600091825260208220600291909102018054600182015460405163c87b56dd60e01b815260048101919091529193506001600160a01b03169063c87b56dd9060240160006040518083038186803b15801561101157600080fd5b505afa158015611025573d6000803e3d6000fd5b505050506040513d6000823e601f3d908101601f1916820160405261104d9190810190613216565b6040805160608101825284546001600160a01b031681526001850154602082015290810182905285519192509085908590811061109a57634e487b7160e01b600052603260045260246000fd5b6020026020010181905250505080806110b29061372c565b915050610f77565b600d5460609060008167ffffffffffffffff8111156110e957634e487b7160e01b600052604160045260246000fd5b60405190808252806020026020018201604052801561112257816020015b61110f612e9c565b8152602001906001900390816111075790505b50905060005b828110156112c6576000600d828154811061115357634e487b7160e01b600052603260045260246000fd5b6000918252602080832060059283020180546001600160a01b03168085526004835260408086206001840154808852908552818720548388529585528187208188529094529485902054855160e0810187529586019182526060860193909352600282018054929650939492938392879160808501916111d2906136f7565b80601f01602080910402602001604051908101604052809291908181526020018280546111fe906136f7565b801561124b5780601f106112205761010080835404028352916020019161124b565b820191906000526020600020905b81548152906001019060200180831161122e57829003601f168201915b505050505081526020016003820154815260200160048201548152505081526020016040518060400160405280858152602001848152508152508585815181106112a557634e487b7160e01b600052603260045260246000fd5b602002602001018190525050505080806112be9061372c565b915050611128565b5092915050565b6000546001600160a01b031633146112f75760405162461bcd60e51b815260040161088f906135d0565b6113016000612dcb565b565b600f818154811061131357600080fd5b6000918252602090912001546001600160a01b0316905081565b3360009081526008602090815260408083206001600160a01b0386168452825280832084845290915290205460ff16156113795760405162461bcd60e51b815260040161088f90613605565b3360009081526009602090815260408083206001600160a01b0386168452825280832084845290915290205460ff16156113e85760405162461bcd60e51b815260206004820152601060248201526f105b1c9958591e48191a5cdb1a5ad95960821b604482015260640161088f565b3360009081526008602090815260408083206001600160a01b0386168085529083528184208585528352818420805460ff19166001908117909155908452600483528184208585529092528220805491929091611446908490613678565b9091555050600154604080516327b16a2560e21b815290516000926001600160a01b031691639ec5a894916004808301926020929190829003018186803b15801561149057600080fd5b505afa1580156114a4573d6000803e3d6000fd5b505050506040513d601f19601f820116820180604052508101906114c891906130a7565b90506001600160a01b03811663b5635a826002335b6040518363ffffffff1660e01b81526004016114fa929190613596565b600060405180830381600087803b15801561151457600080fd5b505af1158015611528573d6000803e3d6000fd5b50505050505050565b611539612efe565b6001600160a01b03831660009081526010602052604090205461158f5760405162461bcd60e51b815260206004820152600e60248201526d125d195b481b9bdd08199bdd5b9960921b604482015260640161088f565b60005b6001600160a01b03841660009081526010602052604090205481101561174f576001600160a01b03841660009081526010602052604090208054849190839081106115ed57634e487b7160e01b600052603260045260246000fd5b906000526020600020906005020160010154141561173d576001600160a01b038416600090815260106020526040902080548290811061163d57634e487b7160e01b600052603260045260246000fd5b90600052602060002090600502016040518060a00160405290816000820160009054906101000a90046001600160a01b03166001600160a01b03166001600160a01b031681526020016001820154815260200160028201805461169f906136f7565b80601f01602080910402602001604051908101604052809291908181526020018280546116cb906136f7565b80156117185780601f106116ed57610100808354040283529160200191611718565b820191906000526020600020905b8154815290600101906020018083116116fb57829003601f168201915b5050505050815260200160038201548152602001600482015481525050915050610c0f565b806117478161372c565b915050611592565b5060405162461bcd60e51b815260206004820152600e60248201526d125d195b481b9bdd08199bdd5b9960921b604482015260640161088f565b60606000805b600d548110156117f35783600d82815481106117bb57634e487b7160e01b600052603260045260246000fd5b90600052602060002090600502016004015411156117e157816117dd8161372c565b9250505b806117eb8161372c565b91505061178f565b5060008167ffffffffffffffff81111561181d57634e487b7160e01b600052604160045260246000fd5b60405190808252806020026020018201604052801561185657816020015b611843612e9c565b81526020019060019003908161183b5790505b5090506000915060005b600d5481101561085d5784600d828154811061188c57634e487b7160e01b600052603260045260246000fd5b9060005260206000209060050201600401541115611a34576000600d82815481106118c757634e487b7160e01b600052603260045260246000fd5b6000918252602080832060059283020180546001600160a01b03168085526004835260408086206001840154808852908552818720548388529585528187208188529094529485902054855160e081018752958601918252606086019390935260028201805492965093949293839287916080850191611946906136f7565b80601f0160208091040260200160405190810160405280929190818152602001828054611972906136f7565b80156119bf5780601f10611994576101008083540402835291602001916119bf565b820191906000526020600020905b8154815290600101906020018083116119a257829003601f168201915b50505050508152602001600382015481526020016004820154815250508152602001604051806040016040528085815260200184815250815250858780611a059061372c565b985081518110611a2557634e487b7160e01b600052603260045260246000fd5b60200260200101819052505050505b80611a3e8161372c565b915050611860565b60408051606080820183526000808352602083015291810191909152611a6b83612e1b565b15611b205760405163c87b56dd60e01b81526004810183905283906000906001600160a01b0383169063c87b56dd9060240160006040518083038186803b158015611ab557600080fd5b505afa158015611ac9573d6000803e3d6000fd5b505050506040513d6000823e601f3d908101601f19168201604052611af19190810190613216565b90506040518060600160405280866001600160a01b031681526020018581526020018281525092505050610c0f565b60405162461bcd60e51b815260206004820152601060248201526f125b9d985b1a59081d1bdad95b88125160821b604482015260640161088f565b60606000805b600d54811015611c47576000600d8281548110611b8e57634e487b7160e01b600052603260045260246000fd5b6000918252602080832060059283020180546001600160a01b0316808552600483526040808620600184015480885290855281872054928752948452808620948652939092529190922054600a549193509082118015611bec575080155b15611c035784611bfb8161372c565b955050611c31565b600a5482118015611c1e5750600b54611c1c8284613690565b115b15611c315784611c2d8161372c565b9550505b5050508080611c3f9061372c565b915050611b61565b5060008167ffffffffffffffff811115611c7157634e487b7160e01b600052604160045260246000fd5b604051908082528060200260200182016040528015611caa57816020015b611c97612e9c565b815260200190600190039081611c8f5790505b5090506000915060005b600d548110156112c6576000600d8281548110611ce157634e487b7160e01b600052603260045260246000fd5b6000918252602080832060059283020180546001600160a01b0316808552600483526040808620600184015480885290855281872054928752948452808620948652939092529190922054600a549193509082118015611d3f575080155b15611ec1576040518060400160405280600d8681548110611d7057634e487b7160e01b600052603260045260246000fd5b90600052602060002090600502016040518060a00160405290816000820160009054906101000a90046001600160a01b03166001600160a01b03166001600160a01b0316815260200160018201548152602001600282018054611dd2906136f7565b80601f0160208091040260200160405190810160405280929190818152602001828054611dfe906136f7565b8015611e4b5780601f10611e2057610100808354040283529160200191611e4b565b820191906000526020600020905b815481529060010190602001808311611e2e57829003601f168201915b50505050508152602001600382015481526020016004820154815250508152602001604051806040016040528085815260200184815250815250858780611e919061372c565b985081518110611eb157634e487b7160e01b600052603260045260246000fd5b602002602001018190525061205a565b600a5482118015611edc5750600b54611eda8284613690565b115b1561205a576040518060400160405280600d8681548110611f0d57634e487b7160e01b600052603260045260246000fd5b90600052602060002090600502016040518060a00160405290816000820160009054906101000a90046001600160a01b03166001600160a01b03166001600160a01b0316815260200160018201548152602001600282018054611f6f906136f7565b80601f0160208091040260200160405190810160405280929190818152602001828054611f9b906136f7565b8015611fe85780601f10611fbd57610100808354040283529160200191611fe8565b820191906000526020600020905b815481529060010190602001808311611fcb57829003601f168201915b5050505050815260200160038201548152602001600482015481525050815260200160405180604001604052808581526020018481525081525085878061202e9061372c565b98508151811061204e57634e487b7160e01b600052603260045260246000fd5b60200260200101819052505b50505080806120689061372c565b915050611cb4565b3360009081526008602090815260408083206001600160a01b0386168452825280832084845290915290205460ff16156120bc5760405162461bcd60e51b815260040161088f90613605565b3360009081526009602090815260408083206001600160a01b0386168452825280832084845290915290205460ff161561212b5760405162461bcd60e51b815260206004820152601060248201526f105b1c9958591e48191a5cdb1a5ad95960821b604482015260640161088f565b3360009081526009602090815260408083206001600160a01b0386168085529083528184208585528352818420805460ff19166001908117909155908452600583528184208585529092528220805491929091612189908490613678565b9091555050600154604080516327b16a2560e21b815290516000926001600160a01b031691639ec5a894916004808301926020929190829003018186803b1580156121d357600080fd5b505afa1580156121e7573d6000803e3d6000fd5b505050506040513d601f19601f8201168201806040525081019061220b91906130a7565b90506001600160a01b03811663b5635a826003336114dd565b3360009081526006602090815260408083206001600160a01b038516845290915290205460ff16156122685760405162461bcd60e51b815260040161088f90613605565b3360009081526007602090815260408083206001600160a01b038516845290915290205460ff16156122ac5760405162461bcd60e51b815260040161088f90613605565b3360009081526006602090815260408083206001600160a01b03851684528252808320805460ff19166001908117909155600290925282208054919290916122f5908490613678565b9091555050600154604080516327b16a2560e21b815290516000926001600160a01b031691639ec5a894916004808301926020929190829003018186803b15801561233f57600080fd5b505afa158015612353573d6000803e3d6000fd5b505050506040513d601f19601f8201168201806040525081019061237791906130a7565b90506001600160a01b03811663b5635a82600233610a22565b6000805b600d5481101561243c57856001600160a01b0316600d82815481106123c957634e487b7160e01b600052603260045260246000fd5b60009182526020909120600590910201546001600160a01b0316148015612421575084600d828154811061240d57634e487b7160e01b600052603260045260246000fd5b906000526020600020906005020160010154145b1561242a578091505b806124348161372c565b915050612394565b50801561257657600d8054612453906001906136b0565b8154811061247157634e487b7160e01b600052603260045260246000fd5b9060005260206000209060050201600d82815481106124a057634e487b7160e01b600052603260045260246000fd5b60009182526020909120825460059092020180546001600160a01b0319166001600160a01b039092169190911781556001808301549082015560028083018054918301916124ed906136f7565b6124f8929190612f36565b5060038281015490820155600491820154910155600d80548061252b57634e487b7160e01b600052603160045260246000fd5b60008281526020812060056000199093019283020180546001600160a01b031916815560018101829055906125636002830182612fc1565b5060006003820181905560049091015590555b6001600160a01b0383166000908152600c6020526040812054905b8181101561275b576001600160a01b0385166000908152600c602052604081208054839081106125d157634e487b7160e01b600052603260045260246000fd5b60009182526020918290206040805180820190915260029092020180546001600160a01b039081168084526001909201549383019390935290925090891614801561261f5750868160200151145b15612748576001600160a01b0386166000908152600c602052604090206126476001856136b0565b8154811061266557634e487b7160e01b600052603260045260246000fd5b9060005260206000209060020201600c6000886001600160a01b03166001600160a01b0316815260200190815260200160002083815481106126b757634e487b7160e01b600052603260045260246000fd5b60009182526020808320845460029093020180546001600160a01b0319166001600160a01b0393841617815560019485015494019390935588168152600c9091526040902080548061271957634e487b7160e01b600052603160045260246000fd5b60008281526020812060026000199093019283020180546001600160a01b03191681556001015590555061275b565b50806127538161372c565b915050612591565b5050506001600160a01b039081166000908152600c6020908152604080832081518083019092529684168152808201958652865460018082018955978452919092209151600290910290910180546001600160a01b031916919092161781559151919092015550565b6040805160208101909152600081526127dc85612e1b565b156128635760405163c87b56dd60e01b81526004810185905285906001600160a01b0382169063c87b56dd9060240160006040518083038186803b15801561282357600080fd5b505afa158015612837573d6000803e3d6000fd5b505050506040513d6000823e601f3d908101601f1916820160405261285f9190810190613216565b9150505b6040805160a0810182526001600160a01b038781168252602080830188815293830185815260608401889052426080850152600d805460018101825560009190915284517fd7b6990105719101dabeb77144f2a3385c8033acd3af97e9423a695e81ad1eb5600590920291820180546001600160a01b0319169190951617845594517fd7b6990105719101dabeb77144f2a3385c8033acd3af97e9423a695e81ad1eb686015551805193948594612942937fd7b6990105719101dabeb77144f2a3385c8033acd3af97e9423a695e81ad1eb79092019290910190612ffb565b50606082015160038201556080909101516004909101556001600160a01b0386166000908152600e602052604090206002015460ff16612ad457604080516020810182526000808252825162fb90e360e21b81529251919289926001600160a01b038416926303ee438c9260048082019391829003018186803b1580156129c857600080fd5b505afa1580156129dc573d6000803e3d6000fd5b505050506040513d6000823e601f3d908101601f19168201604052612a049190810190613216565b604080516060810182526001600160a01b038b8116808352602080840186815260018587018190526000938452600e835295909220845181546001600160a01b03191694169390931783559051805195975092949193612a6a9390850192910190612ffb565b50604091909101516002909101805460ff19169115159190911790555050600f80546001810182556000919091527f8d1108e10bcb7c27dddfc02ed9d693a074039d026cf4ea4240b40f7d581ac8020180546001600160a01b0319166001600160a01b0388161790555b6001600160a01b03868116600090815260106020908152604080832080546001808201835591855293839020865160059095020180546001600160a01b031916949095169390931784558482015192840192909255908301518051849392612b43926002850192910190612ffb565b506060820151600382015560809091015160049091015550506001600160a01b039081166000908152600c6020908152604080832081518083019092529684168152808201958652865460018082018955978452919092209151600290910290910180546001600160a01b031916919092161781559151919092015550565b600c6020528160005260406000208181548110612bde57600080fd5b6000918252602090912060029091020180546001909101546001600160a01b039091169250905082565b6000546001600160a01b03163314612c325760405162461bcd60e51b815260040161088f906135d0565b6001600160a01b038116612c975760405162461bcd60e51b815260206004820152602660248201527f4f776e61626c653a206e6577206f776e657220697320746865207a65726f206160448201526564647265737360d01b606482015260840161088f565b612ca081612dcb565b50565b60106020528160005260406000208181548110612cbf57600080fd5b60009182526020909120600590910201805460018201546002830180546001600160a01b03909316955090935090612cf6906136f7565b80601f0160208091040260200160405190810160405280929190818152602001828054612d22906136f7565b8015612d6f5780601f10612d4457610100808354040283529160200191612d6f565b820191906000526020600020905b815481529060010190602001808311612d5257829003601f168201915b5050505050908060030154908060040154905085565b600d8181548110612d9557600080fd5b60009182526020909120600590910201805460018201546002830180546001600160a01b039093169450909291612cf6906136f7565b600080546001600160a01b038381166001600160a01b0319831681178455604051919092169283917f8be0079c531659141344cd1fd0a4f28419497f9722a3daafe3b4186f6b6457e09190a35050565b6040516301ffc9a760e01b8152635b5e139f60e01b60048201526000906001600160a01b038316906301ffc9a79060240160206040518083038186803b158015612e6457600080fd5b505afa158015612e78573d6000803e3d6000fd5b505050506040513d601f19601f82011682018060405250810190610c0f91906131f6565b6040518060400160405280612eaf612efe565b8152602001612ed1604051806040016040528060008152602001600081525090565b905290565b6040805160a08101825260009181018281526060808301526080820192909252908190612eaf565b6040518060a0016040528060006001600160a01b03168152602001600081526020016060815260200160008152602001600081525090565b828054612f42906136f7565b90600052602060002090601f016020900481019282612f645760008555612fb1565b82601f10612f755780548555612fb1565b82800160010185558215612fb157600052602060002091601f016020900482015b82811115612fb1578254825591600101919060010190612f96565b50612fbd92915061306f565b5090565b508054612fcd906136f7565b6000825580601f10612fdd575050565b601f016020900490600052602060002090810190612ca0919061306f565b828054613007906136f7565b90600052602060002090601f0160209004810192826130295760008555612fb1565b82601f1061304257805160ff1916838001178555612fb1565b82800160010185558215612fb1579182015b82811115612fb1578251825591602001919060010190613054565b5b80821115612fbd5760008155600101613070565b600060208284031215613095578081fd5b81356130a081613773565b9392505050565b6000602082840312156130b8578081fd5b81516130a081613773565b600080604083850312156130d5578081fd5b82356130e081613773565b915060208301356130f081613773565b809150509250929050565b60008060006060848603121561310f578081fd5b833561311a81613773565b9250602084013561312a81613773565b929592945050506040919091013590565b6000806040838503121561314d578182fd5b823561315881613773565b946020939093013593505050565b6000806000806080858703121561317b578081fd5b843561318681613773565b935060208501359250604085013561319d81613773565b915060608501356131ad81613773565b939692955090935050565b600080600080608085870312156131cd578384fd5b84356131d881613773565b9350602085013592506040850135915060608501356131ad81613773565b600060208284031215613207578081fd5b815180151581146130a0578182fd5b600060208284031215613227578081fd5b815167ffffffffffffffff8082111561323e578283fd5b818401915084601f830112613251578283fd5b8151818111156132635761326361375d565b604051601f8201601f19908116603f0116810190838211818310171561328b5761328b61375d565b816040528281528760208487010111156132a3578586fd5b6132b48360208301602088016136c7565b979650505050505050565b6000602082840312156132d0578081fd5b5035919050565b600081518084526132ef8160208601602086016136c7565b601f01601f19169290920160200192915050565b600081516060845260018060a01b03815116606085015260208101516060608086015261333360c08601826132d7565b90506040820151151560a08601526020840151915061335f602086018380518252602090810151910152565b949350505050565b600081516060845261337c606085018261339a565b9050602083015161085d602086018280518252602090810151910152565b60018060a01b038151168252602081015160208301526000604082015160a060408501526133cb60a08501826132d7565b905060608301516060850152608083015160808501528091505092915050565b60018060a01b03815116825260208101516020830152600060408201516060604085015261335f60608501826132d7565b6001600160a01b0384168152606060208201819052600090613440908301856132d7565b90508215156040830152949350505050565b60018060a01b038616815284602082015260a06040820152600061347960a08301866132d7565b606083019490945250608001529392505050565b6000602080830181845280855180835260408601915060408160051b8701019250838701855b828110156134e157603f198886030184526134cf858351613303565b945092850192908501906001016134b3565b5092979650505050505050565b6000602080830181845280855180835260408601915060408160051b8701019250838701855b828110156134e157603f19888603018452613530858351613367565b94509285019290850190600101613514565b6000602080830181845280855180835260408601915060408160051b8701019250838701855b828110156134e157603f198886030184526135848583516133eb565b94509285019290850190600101613568565b60408101600884106135b857634e487b7160e01b600052602160045260246000fd5b9281526001600160a01b039190911660209091015290565b6020808252818101527f4f776e61626c653a2063616c6c6572206973206e6f7420746865206f776e6572604082015260600190565b6020808252600d908201526c105b1c9958591e481b1a5ad959609a1b604082015260600190565b6020815260006130a06020830184613303565b6020815260006130a06020830184613367565b6020815260006130a0602083018461339a565b6020815260006130a060208301846133eb565b6000821982111561368b5761368b613747565b500190565b6000826136ab57634e487b7160e01b81526012600452602481fd5b500490565b6000828210156136c2576136c2613747565b500390565b60005b838110156136e25781810151838201526020016136ca565b838111156136f1576000848401525b50505050565b600181811c9082168061370b57607f821691505b60208210811415610edb57634e487b7160e01b600052602260045260246000fd5b600060001982141561374057613740613747565b5060010190565b634e487b7160e01b600052601160045260246000fd5b634e487b7160e01b600052604160045260246000fd5b6001600160a01b0381168114612ca057600080fdfea26469706673582212208b7d528d4b94bd926eb257927a35d8d103bacd1c204bde8ec748ddf45e690f6864736f6c63430008040033",
  "linkReferences": {},
  "deployedLinkReferences": {}
}