{
  "_format": "hh-sol-artifact-1",
  "contractName": "CheddaMarket",
  "sourceName": "contracts/market/CheddaMarket.sol",
  "abi": [
    {
      "anonymous": false,
      "inputs": [
        {
          "indexed": true,
          "internalType": "address",
          "name": "nftContract",
          "type": "address"
        },
        {
          "indexed": true,
          "internalType": "uint256",
          "name": "itemId",
          "type": "uint256"
        },
        {
          "indexed": false,
          "internalType": "uint256",
          "name": "price",
          "type": "uint256"
        }
      ],
      "name": "ItemListed",
      "type": "event"
    },
    {
      "anonymous": false,
      "inputs": [
        {
          "indexed": true,
          "internalType": "address",
          "name": "nftContract",
          "type": "address"
        },
        {
          "indexed": true,
          "internalType": "uint256",
          "name": "itemId",
          "type": "uint256"
        },
        {
          "indexed": false,
          "internalType": "uint256",
          "name": "price",
          "type": "uint256"
        }
      ],
      "name": "ItemSold",
      "type": "event"
    },
    {
      "anonymous": false,
      "inputs": [
        {
          "indexed": false,
          "internalType": "uint256",
          "name": "marketFee",
          "type": "uint256"
        },
        {
          "indexed": true,
          "internalType": "address",
          "name": "updatedBy",
          "type": "address"
        }
      ],
      "name": "MarketFeeUpdated",
      "type": "event"
    },
    {
      "anonymous": false,
      "inputs": [
        {
          "indexed": true,
          "internalType": "address",
          "name": "previousOwner",
          "type": "address"
        },
        {
          "indexed": true,
          "internalType": "address",
          "name": "newOwner",
          "type": "address"
        }
      ],
      "name": "OwnershipTransferred",
      "type": "event"
    },
    {
      "inputs": [
        {
          "internalType": "uint256",
          "name": "",
          "type": "uint256"
        }
      ],
      "name": "allListings",
      "outputs": [
        {
          "internalType": "address",
          "name": "nftContract",
          "type": "address"
        },
        {
          "internalType": "uint256",
          "name": "tokenId",
          "type": "uint256"
        },
        {
          "internalType": "address payable",
          "name": "seller",
          "type": "address"
        },
        {
          "internalType": "uint256",
          "name": "price",
          "type": "uint256"
        }
      ],
      "stateMutability": "view",
      "type": "function"
    },
    {
      "inputs": [
        {
          "internalType": "address",
          "name": "nftContract",
          "type": "address"
        },
        {
          "internalType": "uint256",
          "name": "tokenId",
          "type": "uint256"
        }
      ],
      "name": "buyItem",
      "outputs": [],
      "stateMutability": "payable",
      "type": "function"
    },
    {
      "inputs": [
        {
          "internalType": "address",
          "name": "nftContract",
          "type": "address"
        },
        {
          "internalType": "uint256",
          "name": "tokenId",
          "type": "uint256"
        }
      ],
      "name": "cancelBid",
      "outputs": [],
      "stateMutability": "nonpayable",
      "type": "function"
    },
    {
      "inputs": [
        {
          "internalType": "address",
          "name": "nftContract",
          "type": "address"
        },
        {
          "internalType": "uint256",
          "name": "tokenId",
          "type": "uint256"
        }
      ],
      "name": "cancelSale",
      "outputs": [],
      "stateMutability": "nonpayable",
      "type": "function"
    },
    {
      "inputs": [],
      "name": "feeRecipient",
      "outputs": [
        {
          "internalType": "address payable",
          "name": "",
          "type": "address"
        }
      ],
      "stateMutability": "view",
      "type": "function"
    },
    {
      "inputs": [],
      "name": "getAllListings",
      "outputs": [
        {
          "components": [
            {
              "internalType": "address",
              "name": "nftContract",
              "type": "address"
            },
            {
              "internalType": "uint256",
              "name": "tokenId",
              "type": "uint256"
            },
            {
              "internalType": "address payable",
              "name": "seller",
              "type": "address"
            },
            {
              "internalType": "uint256",
              "name": "price",
              "type": "uint256"
            }
          ],
          "internalType": "struct Listing[]",
          "name": "",
          "type": "tuple[]"
        }
      ],
      "stateMutability": "view",
      "type": "function"
    },
    {
      "inputs": [
        {
          "internalType": "address",
          "name": "nftContract",
          "type": "address"
        }
      ],
      "name": "itemsForSale",
      "outputs": [
        {
          "components": [
            {
              "internalType": "address",
              "name": "nftContract",
              "type": "address"
            },
            {
              "internalType": "uint256",
              "name": "tokenId",
              "type": "uint256"
            },
            {
              "internalType": "address payable",
              "name": "seller",
              "type": "address"
            },
            {
              "internalType": "uint256",
              "name": "price",
              "type": "uint256"
            }
          ],
          "internalType": "struct Listing[]",
          "name": "",
          "type": "tuple[]"
        }
      ],
      "stateMutability": "view",
      "type": "function"
    },
    {
      "inputs": [
        {
          "internalType": "address",
          "name": "nftContract",
          "type": "address"
        },
        {
          "internalType": "uint256",
          "name": "tokenId",
          "type": "uint256"
        },
        {
          "internalType": "uint256",
          "name": "reserve",
          "type": "uint256"
        },
        {
          "internalType": "uint256",
          "name": "startTime",
          "type": "uint256"
        },
        {
          "internalType": "uint256",
          "name": "endTime",
          "type": "uint256"
        }
      ],
      "name": "listItemForAuction",
      "outputs": [],
      "stateMutability": "nonpayable",
      "type": "function"
    },
    {
      "inputs": [
        {
          "internalType": "address",
          "name": "nftContract",
          "type": "address"
        },
        {
          "internalType": "uint256",
          "name": "tokenId",
          "type": "uint256"
        },
        {
          "internalType": "uint256",
          "name": "price",
          "type": "uint256"
        }
      ],
      "name": "listItemForSale",
      "outputs": [],
      "stateMutability": "nonpayable",
      "type": "function"
    },
    {
      "inputs": [
        {
          "internalType": "address",
          "name": "",
          "type": "address"
        },
        {
          "internalType": "uint256",
          "name": "",
          "type": "uint256"
        }
      ],
      "name": "listings",
      "outputs": [
        {
          "internalType": "address",
          "name": "nftContract",
          "type": "address"
        },
        {
          "internalType": "uint256",
          "name": "tokenId",
          "type": "uint256"
        },
        {
          "internalType": "address payable",
          "name": "seller",
          "type": "address"
        },
        {
          "internalType": "uint256",
          "name": "price",
          "type": "uint256"
        }
      ],
      "stateMutability": "view",
      "type": "function"
    },
    {
      "inputs": [],
      "name": "marketFee",
      "outputs": [
        {
          "internalType": "uint256",
          "name": "",
          "type": "uint256"
        }
      ],
      "stateMutability": "view",
      "type": "function"
    },
    {
      "inputs": [
        {
          "internalType": "address",
          "name": "",
          "type": "address"
        },
        {
          "internalType": "uint256",
          "name": "",
          "type": "uint256"
        }
      ],
      "name": "offers",
      "outputs": [
        {
          "internalType": "uint256",
          "name": "",
          "type": "uint256"
        }
      ],
      "stateMutability": "view",
      "type": "function"
    },
    {
      "inputs": [],
      "name": "owner",
      "outputs": [
        {
          "internalType": "address",
          "name": "",
          "type": "address"
        }
      ],
      "stateMutability": "view",
      "type": "function"
    },
    {
      "inputs": [
        {
          "internalType": "address",
          "name": "nftContract",
          "type": "address"
        },
        {
          "internalType": "uint256",
          "name": "tokenId",
          "type": "uint256"
        }
      ],
      "name": "placeBid",
      "outputs": [],
      "stateMutability": "payable",
      "type": "function"
    },
    {
      "inputs": [
        {
          "internalType": "address",
          "name": "nftContract",
          "type": "address"
        },
        {
          "internalType": "uint256",
          "name": "tokenId",
          "type": "uint256"
        }
      ],
      "name": "previousSales",
      "outputs": [
        {
          "components": [
            {
              "internalType": "address",
              "name": "seller",
              "type": "address"
            },
            {
              "internalType": "address",
              "name": "buyer",
              "type": "address"
            },
            {
              "internalType": "uint256",
              "name": "amountPaid",
              "type": "uint256"
            }
          ],
          "internalType": "struct Sale[]",
          "name": "",
          "type": "tuple[]"
        }
      ],
      "stateMutability": "view",
      "type": "function"
    },
    {
      "inputs": [],
      "name": "registry",
      "outputs": [
        {
          "internalType": "contract ICheddaAddressRegistry",
          "name": "",
          "type": "address"
        }
      ],
      "stateMutability": "view",
      "type": "function"
    },
    {
      "inputs": [],
      "name": "renounceOwnership",
      "outputs": [],
      "stateMutability": "nonpayable",
      "type": "function"
    },
    {
      "inputs": [
        {
          "internalType": "address",
          "name": "",
          "type": "address"
        },
        {
          "internalType": "uint256",
          "name": "",
          "type": "uint256"
        },
        {
          "internalType": "uint256",
          "name": "",
          "type": "uint256"
        }
      ],
      "name": "sales",
      "outputs": [
        {
          "internalType": "address",
          "name": "seller",
          "type": "address"
        },
        {
          "internalType": "address",
          "name": "buyer",
          "type": "address"
        },
        {
          "internalType": "uint256",
          "name": "amountPaid",
          "type": "uint256"
        }
      ],
      "stateMutability": "view",
      "type": "function"
    },
    {
      "inputs": [
        {
          "internalType": "uint256",
          "name": "newFee",
          "type": "uint256"
        }
      ],
      "name": "setMarketFee",
      "outputs": [],
      "stateMutability": "nonpayable",
      "type": "function"
    },
    {
      "inputs": [
        {
          "internalType": "address payable",
          "name": "newAddress",
          "type": "address"
        }
      ],
      "name": "setfeeRecipient",
      "outputs": [],
      "stateMutability": "nonpayable",
      "type": "function"
    },
    {
      "inputs": [
        {
          "internalType": "address",
          "name": "",
          "type": "address"
        },
        {
          "internalType": "uint256",
          "name": "",
          "type": "uint256"
        }
      ],
      "name": "tokenIdsForSale",
      "outputs": [
        {
          "internalType": "uint256",
          "name": "",
          "type": "uint256"
        }
      ],
      "stateMutability": "view",
      "type": "function"
    },
    {
      "inputs": [
        {
          "internalType": "address",
          "name": "newOwner",
          "type": "address"
        }
      ],
      "name": "transferOwnership",
      "outputs": [],
      "stateMutability": "nonpayable",
      "type": "function"
    },
    {
      "inputs": [
        {
          "internalType": "address",
          "name": "registryAddress",
          "type": "address"
        }
      ],
      "name": "updateRegistry",
      "outputs": [],
      "stateMutability": "nonpayable",
      "type": "function"
    }
  ],
  "bytecode": "0x608060405234801561001057600080fd5b5061001a33610023565b60018055610073565b600080546001600160a01b038381166001600160a01b0319831681178455604051919092169283917f8be0079c531659141344cd1fd0a4f28419497f9722a3daafe3b4186f6b6457e09190a35050565b6119e4806100826000396000f3fe60806040526004361061013f5760003560e01c8063715018a6116100b65780639f37092a1161006f5780639f37092a1461042b578063aa1a84111461043e578063ae73ccec14610476578063c33068d81461048b578063d98b9bb5146104ad578063f2fde38b146104bb57600080fd5b8063715018a614610345578063769a8b2e1461035a5780637b103999146103a0578063806d4888146103c057806384213b9e146103ed5780638da5cb5b1461040d57600080fd5b806326b825d21161010857806326b825d21461026157806339b6b1e5146102815780633fb902ab146102a057806346904840146102c05780634b26a5b7146102f85780636a6f216f1461031857600080fd5b806207df30146101445780630ccf2156146101db5780630eeaa2ef146101ff57806316f3a95b1461021f5780631a5da6c814610241575b600080fd5b34801561015057600080fd5b5061019d61015f36600461173b565b6003602081815260009384526040808520909152918352912080546001820154600283015492909301546001600160a01b0391821693929091169084565b6040516101d294939291906001600160a01b039485168152602081019390935292166040820152606081019190915260800190565b60405180910390f35b3480156101e757600080fd5b506101f160085481565b6040519081526020016101d2565b34801561020b57600080fd5b5061019d61021a3660046117fd565b6104db565b34801561022b57600080fd5b5061023f61023a36600461173b565b610523565b005b34801561024d57600080fd5b5061023f61025c3660046116fc565b61066b565b34801561026d57600080fd5b5061023f61027c3660046117fd565b6106b7565b34801561028d57600080fd5b5061023f61029c36600461173b565b5050565b3480156102ac57600080fd5b5061023f6102bb366004611766565b61071e565b3480156102cc57600080fd5b506009546102e0906001600160a01b031681565b6040516001600160a01b0390911681526020016101d2565b34801561030457600080fd5b506101f161031336600461173b565b610b83565b34801561032457600080fd5b5061033861033336600461173b565b610bb4565b6040516101d29190611885565b34801561035157600080fd5b5061023f610c58565b34801561036657600080fd5b5061037a610375366004611766565b610c8e565b604080516001600160a01b039485168152939092166020840152908201526060016101d2565b3480156103ac57600080fd5b50600a546102e0906001600160a01b031681565b3480156103cc57600080fd5b506103e06103db3660046116fc565b610ce9565b6040516101d29190611815565b3480156103f957600080fd5b5061023f6104083660046116fc565b610e5f565b34801561041957600080fd5b506000546001600160a01b03166102e0565b61023f61043936600461173b565b610eab565b34801561044a57600080fd5b506101f161045936600461173b565b600660209081526000928352604080842090915290825290205481565b34801561048257600080fd5b506103e0611292565b34801561049757600080fd5b5061023f6104a636600461179a565b5050505050565b61023f61029c36600461173b565b3480156104c757600080fd5b5061023f6104d63660046116fc565b6113c0565b600781815481106104eb57600080fd5b600091825260209091206004909102018054600182015460028301546003909301546001600160a01b03928316945090929091169084565b818161052e8261145b565b15610605576040516331a9108f60e11b815260048101829052829033906001600160a01b03831690636352211e9060240160206040518083038186803b15801561057757600080fd5b505afa15801561058b573d6000803e3d6000fd5b505050506040513d601f19601f820116820180604052508101906105af919061171f565b6001600160a01b0316146106035760405162461bcd60e51b815260206004820152601660248201527526b0b935b2ba1d102737ba1034ba32b69037bbb732b960511b60448201526064015b60405180910390fd5b505b61060f84846114e2565b61065b5760405162461bcd60e51b815260206004820152601e60248201527f4d61726b65743a2043616e63656c206974656d206e6f74206c6973746564000060448201526064016105fa565b610665848461150f565b50505050565b6000546001600160a01b031633146106955760405162461bcd60e51b81526004016105fa906118dd565b600a80546001600160a01b0319166001600160a01b0392909216919091179055565b6000546001600160a01b031633146106e15760405162461bcd60e51b81526004016105fa906118dd565b600881905560405181815233907f35cf66f94c107dfd1826655b0ee6a81d59eea83a634cb73e2de4290e025eab089060200160405180910390a250565b82826107298261145b565b156107fb576040516331a9108f60e11b815260048101829052829033906001600160a01b03831690636352211e9060240160206040518083038186803b15801561077257600080fd5b505afa158015610786573d6000803e3d6000fd5b505050506040513d601f19601f820116820180604052508101906107aa919061171f565b6001600160a01b0316146107f95760405162461bcd60e51b815260206004820152601660248201527526b0b935b2ba1d102737ba1034ba32b69037bbb732b960511b60448201526064016105fa565b505b61080585856114e2565b1561084b5760405162461bcd60e51b815260206004820152601660248201527513585c9ad95d0e88105b1c9958591e481b1a5cdd195960521b60448201526064016105fa565b6001600160a01b0385166323b872dd336040516001600160e01b031960e084901b1681526001600160a01b03909116600482015230602482015260448101879052606401600060405180830381600087803b1580156108a957600080fd5b505af11580156108bd573d6000803e3d6000fd5b5050505060006040518060800160405280876001600160a01b031681526020018681526020016108ea3390565b6001600160a01b03908116825260209182018790528881166000818152600380855260408083208c84528652808320875181549087166001600160a01b03199182161782558888018051600180850191909155848b018051600286018054918c1691861691909117905560608c01805195909701949094556007805480830182559088528b5160049182027fa66cc928b5edb82af9bd49922954155ab7b0942694bea4ce44661d9a8736c68881018054928d169287169290921790915592517fa66cc928b5edb82af9bd49922954155ab7b0942694bea4ce44661d9a8736c68984015593517fa66cc928b5edb82af9bd49922954155ab7b0942694bea4ce44661d9a8736c68a83018054918b16919094161790925593517fa66cc928b5edb82af9bd49922954155ab7b0942694bea4ce44661d9a8736c68b9094019390935593835283865280832080549283018155835291859020018a9055600a54815163276aafbd60e21b8152915195965090921693639daabef49383830193909290829003018186803b158015610a7c57600080fd5b505afa158015610a90573d6000803e3d6000fd5b505050506040513d601f19601f82011682018060405250810190610ab4919061171f565b6001600160a01b031663ecb676468787873360405160e086901b6001600160e01b03191681526001600160a01b039485166004820152602481019390935260448301919091529091166064820152608401600060405180830381600087803b158015610b1f57600080fd5b505af1158015610b33573d6000803e3d6000fd5b5050505084866001600160a01b03167f94e7b934c857a9e3202e8ed9c1f3f96e396b7d2b5885930d2001abcb51ff58fa86604051610b7391815260200190565b60405180910390a3505050505050565b60046020528160005260406000208181548110610b9f57600080fd5b90600052602060002001600091509150505481565b6001600160a01b03821660009081526005602090815260408083208484528252808320805482518185028101850190935280835260609493849084015b82821015610c4b576000848152602090819020604080516060810182526003860290920180546001600160a01b03908116845260018083015490911684860152600290910154918301919091529083529092019101610bf1565b5092979650505050505050565b6000546001600160a01b03163314610c825760405162461bcd60e51b81526004016105fa906118dd565b610c8c60006115b6565b565b60056020528260005260406000206020528160005260406000208181548110610cb657600080fd5b60009182526020909120600390910201805460018201546002909201546001600160a01b03918216955091169250905083565b6001600160a01b0381166000908152600460205260408120546060918167ffffffffffffffff811115610d2c57634e487b7160e01b600052604160045260246000fd5b604051908082528060200260200182016040528015610d6557816020015b610d526116c2565b815260200190600190039081610d4a5790505b50905060005b82811015610e57576001600160a01b038516600090815260036020908152604080832060049092528220805483919085908110610db857634e487b7160e01b600052603260045260246000fd5b600091825260208083209091015483528281019390935260409182019020815160808101835281546001600160a01b03908116825260018301549482019490945260028201549093169183019190915260030154606082015283519091508190849084908110610e3857634e487b7160e01b600052603260045260246000fd5b6020026020010181905250508080610e4f90611968565b915050610d6b565b509392505050565b6000546001600160a01b03163314610e895760405162461bcd60e51b81526004016105fa906118dd565b600980546001600160a01b0319166001600160a01b0392909216919091179055565b60026001541415610efe5760405162461bcd60e51b815260206004820152601f60248201527f5265656e7472616e637947756172643a207265656e7472616e742063616c6c0060448201526064016105fa565b6002600155610f0d82826114e2565b610f505760405162461bcd60e51b81526020600482015260146024820152734d61726b65743a204e6f7420666f722073616c6560601b60448201526064016105fa565b6001600160a01b03821660009081526003602081815260408084208585529091529091209081015434811115610fc05760405162461bcd60e51b81526020600482015260156024820152744d61726b65743a2056616c7565203c20707269636560581b60448201526064016105fa565b6000610fcb82611606565b9050801561100f576009546040516001600160a01b039091169082156108fc029083906000818181858888f1935050505015801561100d573d6000803e3d6000fd5b505b600061101b8234611951565b60028501546040519192506001600160a01b03169082156108fc029083906000818181858888f19350505050158015611058573d6000803e3d6000fd5b50604080516323b872dd60e01b81523060048201523360248201526044810187905290516001600160a01b038816916323b872dd91606480830192600092919082900301818387803b1580156110ad57600080fd5b505af11580156110c1573d6000803e3d6000fd5b5050604080516060810182526002888101546001600160a01b0390811683523360208085019182528486018b81528e84166000908152600583528781208f8252835287812080546001808201835591835291849020885160039093020180549287166001600160a01b03199384161781559451908501805491871691909216179055519190930155600a54845163276aafbd60e21b81529451939650169350639daabef49260048082019391829003018186803b15801561118157600080fd5b505afa158015611195573d6000803e3d6000fd5b505050506040513d601f19601f820116820180604052508101906111b9919061171f565b60028601546040805163e04b303d60e01b81526001600160a01b038b81166004830152602482018b905292831660448201523360648201529051929091169163e04b303d9160848082019260009290919082900301818387803b15801561121f57600080fd5b505af1158015611233573d6000803e3d6000fd5b50505050611241878761150f565b85876001600160a01b03167f67b70c454298612e5de2836a2b7131dcfc7432501c85c6d9cb4771bfd7bfcd2d8660405161127d91815260200190565b60405180910390a35050600180555050505050565b60075460609060009067ffffffffffffffff8111156112c157634e487b7160e01b600052604160045260246000fd5b6040519080825280602002602001820160405280156112fa57816020015b6112e76116c2565b8152602001906001900390816112df5790505b50905060005b6007548110156113ba576007818154811061132b57634e487b7160e01b600052603260045260246000fd5b600091825260209182902060408051608081018252600490930290910180546001600160a01b0390811684526001820154948401949094526002810154909316908201526003909101546060820152825183908390811061139c57634e487b7160e01b600052603260045260246000fd5b602002602001018190525080806113b290611968565b915050611300565b50919050565b6000546001600160a01b031633146113ea5760405162461bcd60e51b81526004016105fa906118dd565b6001600160a01b03811661144f5760405162461bcd60e51b815260206004820152602660248201527f4f776e61626c653a206e6577206f776e657220697320746865207a65726f206160448201526564647265737360d01b60648201526084016105fa565b611458816115b6565b50565b6040516301ffc9a760e01b81526380ac58cd60e01b60048201526000906001600160a01b038316906301ffc9a79060240160206040518083038186803b1580156114a457600080fd5b505afa1580156114b8573d6000803e3d6000fd5b505050506040513d601f19601f820116820180604052508101906114dc91906117dd565b92915050565b6001600160a01b039182166000908152600360209081526040808320938352929052206002015416151590565b6001600160a01b0382166000908152600360208181526040808420858552909152822080546001600160a01b0319908116825560018201849055600282018054909116905501819055806115638484611623565b915091508015610665576001600160a01b03841660009081526004602052604090208054839081106115a557634e487b7160e01b600052603260045260246000fd5b600091825260208220015550505050565b600080546001600160a01b038381166001600160a01b0319831681178455604051919092169283917f8be0079c531659141344cd1fd0a4f28419497f9722a3daafe3b4186f6b6457e09190a35050565b6000612710600854836116199190611932565b6114dc9190611912565b60008060005b6001600160a01b0385166000908152600460205260409020548110156116b2576001600160a01b038516600090815260046020526040902080548591908390811061168457634e487b7160e01b600052603260045260246000fd5b906000526020600020015414156116a0579150600190506116bb565b806116aa81611968565b915050611629565b50600080915091505b9250929050565b604051806080016040528060006001600160a01b031681526020016000815260200160006001600160a01b03168152602001600081525090565b60006020828403121561170d578081fd5b813561171881611999565b9392505050565b600060208284031215611730578081fd5b815161171881611999565b6000806040838503121561174d578081fd5b823561175881611999565b946020939093013593505050565b60008060006060848603121561177a578081fd5b833561178581611999565b95602085013595506040909401359392505050565b600080600080600060a086880312156117b1578081fd5b85356117bc81611999565b97602087013597506040870135966060810135965060800135945092505050565b6000602082840312156117ee578081fd5b81518015158114611718578182fd5b60006020828403121561180e578081fd5b5035919050565b602080825282518282018190526000919060409081850190868401855b8281101561187857815180516001600160a01b03908116865287820151888701528682015116868601526060908101519085015260809093019290850190600101611832565b5091979650505050505050565b602080825282518282018190526000919060409081850190868401855b8281101561187857815180516001600160a01b03908116865287820151168786015285015185850152606090930192908501906001016118a2565b6020808252818101527f4f776e61626c653a2063616c6c6572206973206e6f7420746865206f776e6572604082015260600190565b60008261192d57634e487b7160e01b81526012600452602481fd5b500490565b600081600019048311821515161561194c5761194c611983565b500290565b60008282101561196357611963611983565b500390565b600060001982141561197c5761197c611983565b5060010190565b634e487b7160e01b600052601160045260246000fd5b6001600160a01b038116811461145857600080fdfea2646970667358221220fac8a12630a05b6a3e5b3567a43058f8152fbea5438eaf3fef0ba905bf0235e664736f6c63430008040033",
  "linkReferences": {},
  "deployedLinkReferences": {}
}