{
  "_format": "hh-sol-artifact-1",
  "contractName": "CheddaDappStore",
  "sourceName": "contracts/dappstore/CheddaDappStore.sol",
  "abi": [
    {
      "inputs": [],
      "name": "DappNotFound",
      "type": "error"
    },
    {
      "anonymous": false,
      "inputs": [
        {
          "indexed": true,
          "internalType": "string",
          "name": "name",
          "type": "string"
        },
        {
          "indexed": true,
          "internalType": "address",
          "name": "contractAddress",
          "type": "address"
        }
      ],
      "name": "DappAdded",
      "type": "event"
    },
    {
      "anonymous": false,
      "inputs": [
        {
          "indexed": true,
          "internalType": "string",
          "name": "name",
          "type": "string"
        },
        {
          "indexed": true,
          "internalType": "address",
          "name": "contractAddress",
          "type": "address"
        }
      ],
      "name": "DappRemoved",
      "type": "event"
    },
    {
      "anonymous": false,
      "inputs": [
        {
          "indexed": true,
          "internalType": "address",
          "name": "previousOwner",
          "type": "address"
        },
        {
          "indexed": true,
          "internalType": "address",
          "name": "newOwner",
          "type": "address"
        }
      ],
      "name": "OwnershipTransferred",
      "type": "event"
    },
    {
      "inputs": [
        {
          "internalType": "address",
          "name": "",
          "type": "address"
        }
      ],
      "name": "_dapps",
      "outputs": [
        {
          "internalType": "uint16",
          "name": "index",
          "type": "uint16"
        },
        {
          "internalType": "string",
          "name": "name",
          "type": "string"
        },
        {
          "internalType": "uint8",
          "name": "chainID",
          "type": "uint8"
        },
        {
          "internalType": "address",
          "name": "contractAddress",
          "type": "address"
        },
        {
          "internalType": "string",
          "name": "metadataURI",
          "type": "string"
        },
        {
          "internalType": "bool",
          "name": "isFeatured",
          "type": "bool"
        },
        {
          "internalType": "uint256",
          "name": "listed",
          "type": "uint256"
        },
        {
          "internalType": "uint256",
          "name": "updated",
          "type": "uint256"
        }
      ],
      "stateMutability": "view",
      "type": "function"
    },
    {
      "inputs": [
        {
          "internalType": "string",
          "name": "name",
          "type": "string"
        },
        {
          "internalType": "uint8",
          "name": "chainId",
          "type": "uint8"
        },
        {
          "internalType": "address",
          "name": "contractAddress",
          "type": "address"
        },
        {
          "internalType": "string",
          "name": "category",
          "type": "string"
        },
        {
          "internalType": "string",
          "name": "uri",
          "type": "string"
        }
      ],
      "name": "addDapp",
      "outputs": [],
      "stateMutability": "nonpayable",
      "type": "function"
    },
    {
      "inputs": [
        {
          "internalType": "address",
          "name": "contractAddress",
          "type": "address"
        },
        {
          "internalType": "address",
          "name": "admin",
          "type": "address"
        }
      ],
      "name": "addDappAdmin",
      "outputs": [],
      "stateMutability": "nonpayable",
      "type": "function"
    },
    {
      "inputs": [
        {
          "internalType": "string",
          "name": "",
          "type": "string"
        },
        {
          "internalType": "uint256",
          "name": "",
          "type": "uint256"
        }
      ],
      "name": "categories",
      "outputs": [
        {
          "internalType": "address",
          "name": "",
          "type": "address"
        }
      ],
      "stateMutability": "view",
      "type": "function"
    },
    {
      "inputs": [],
      "name": "dapps",
      "outputs": [
        {
          "components": [
            {
              "internalType": "uint16",
              "name": "index",
              "type": "uint16"
            },
            {
              "internalType": "string",
              "name": "name",
              "type": "string"
            },
            {
              "internalType": "uint8",
              "name": "chainID",
              "type": "uint8"
            },
            {
              "internalType": "address",
              "name": "contractAddress",
              "type": "address"
            },
            {
              "internalType": "string",
              "name": "metadataURI",
              "type": "string"
            },
            {
              "internalType": "bool",
              "name": "isFeatured",
              "type": "bool"
            },
            {
              "internalType": "uint256",
              "name": "listed",
              "type": "uint256"
            },
            {
              "internalType": "uint256",
              "name": "updated",
              "type": "uint256"
            }
          ],
          "internalType": "struct Dapp[]",
          "name": "",
          "type": "tuple[]"
        }
      ],
      "stateMutability": "view",
      "type": "function"
    },
    {
      "inputs": [
        {
          "internalType": "string",
          "name": "category",
          "type": "string"
        }
      ],
      "name": "dappsInCategory",
      "outputs": [
        {
          "components": [
            {
              "components": [
                {
                  "internalType": "uint16",
                  "name": "index",
                  "type": "uint16"
                },
                {
                  "internalType": "string",
                  "name": "name",
                  "type": "string"
                },
                {
                  "internalType": "uint8",
                  "name": "chainID",
                  "type": "uint8"
                },
                {
                  "internalType": "address",
                  "name": "contractAddress",
                  "type": "address"
                },
                {
                  "internalType": "string",
                  "name": "metadataURI",
                  "type": "string"
                },
                {
                  "internalType": "bool",
                  "name": "isFeatured",
                  "type": "bool"
                },
                {
                  "internalType": "uint256",
                  "name": "listed",
                  "type": "uint256"
                },
                {
                  "internalType": "uint256",
                  "name": "updated",
                  "type": "uint256"
                }
              ],
              "internalType": "struct Dapp",
              "name": "dapp",
              "type": "tuple"
            },
            {
              "components": [
                {
                  "internalType": "uint256",
                  "name": "averageRating",
                  "type": "uint256"
                },
                {
                  "internalType": "uint256",
                  "name": "numberOfRatings",
                  "type": "uint256"
                }
              ],
              "internalType": "struct DappRating",
              "name": "rating",
              "type": "tuple"
            }
          ],
          "internalType": "struct DappWithRating[]",
          "name": "",
          "type": "tuple[]"
        }
      ],
      "stateMutability": "view",
      "type": "function"
    },
    {
      "inputs": [],
      "name": "dappsWithRatings",
      "outputs": [
        {
          "components": [
            {
              "components": [
                {
                  "internalType": "uint16",
                  "name": "index",
                  "type": "uint16"
                },
                {
                  "internalType": "string",
                  "name": "name",
                  "type": "string"
                },
                {
                  "internalType": "uint8",
                  "name": "chainID",
                  "type": "uint8"
                },
                {
                  "internalType": "address",
                  "name": "contractAddress",
                  "type": "address"
                },
                {
                  "internalType": "string",
                  "name": "metadataURI",
                  "type": "string"
                },
                {
                  "internalType": "bool",
                  "name": "isFeatured",
                  "type": "bool"
                },
                {
                  "internalType": "uint256",
                  "name": "listed",
                  "type": "uint256"
                },
                {
                  "internalType": "uint256",
                  "name": "updated",
                  "type": "uint256"
                }
              ],
              "internalType": "struct Dapp",
              "name": "dapp",
              "type": "tuple"
            },
            {
              "components": [
                {
                  "internalType": "uint256",
                  "name": "averageRating",
                  "type": "uint256"
                },
                {
                  "internalType": "uint256",
                  "name": "numberOfRatings",
                  "type": "uint256"
                }
              ],
              "internalType": "struct DappRating",
              "name": "rating",
              "type": "tuple"
            }
          ],
          "internalType": "struct DappWithRating[]",
          "name": "",
          "type": "tuple[]"
        }
      ],
      "stateMutability": "view",
      "type": "function"
    },
    {
      "inputs": [],
      "name": "featuredDapps",
      "outputs": [
        {
          "components": [
            {
              "components": [
                {
                  "internalType": "uint16",
                  "name": "index",
                  "type": "uint16"
                },
                {
                  "internalType": "string",
                  "name": "name",
                  "type": "string"
                },
                {
                  "internalType": "uint8",
                  "name": "chainID",
                  "type": "uint8"
                },
                {
                  "internalType": "address",
                  "name": "contractAddress",
                  "type": "address"
                },
                {
                  "internalType": "string",
                  "name": "metadataURI",
                  "type": "string"
                },
                {
                  "internalType": "bool",
                  "name": "isFeatured",
                  "type": "bool"
                },
                {
                  "internalType": "uint256",
                  "name": "listed",
                  "type": "uint256"
                },
                {
                  "internalType": "uint256",
                  "name": "updated",
                  "type": "uint256"
                }
              ],
              "internalType": "struct Dapp",
              "name": "dapp",
              "type": "tuple"
            },
            {
              "components": [
                {
                  "internalType": "uint256",
                  "name": "averageRating",
                  "type": "uint256"
                },
                {
                  "internalType": "uint256",
                  "name": "numberOfRatings",
                  "type": "uint256"
                }
              ],
              "internalType": "struct DappRating",
              "name": "rating",
              "type": "tuple"
            }
          ],
          "internalType": "struct DappWithRating[]",
          "name": "",
          "type": "tuple[]"
        }
      ],
      "stateMutability": "view",
      "type": "function"
    },
    {
      "inputs": [
        {
          "internalType": "address",
          "name": "contractAddress",
          "type": "address"
        }
      ],
      "name": "getDapp",
      "outputs": [
        {
          "components": [
            {
              "internalType": "uint16",
              "name": "index",
              "type": "uint16"
            },
            {
              "internalType": "string",
              "name": "name",
              "type": "string"
            },
            {
              "internalType": "uint8",
              "name": "chainID",
              "type": "uint8"
            },
            {
              "internalType": "address",
              "name": "contractAddress",
              "type": "address"
            },
            {
              "internalType": "string",
              "name": "metadataURI",
              "type": "string"
            },
            {
              "internalType": "bool",
              "name": "isFeatured",
              "type": "bool"
            },
            {
              "internalType": "uint256",
              "name": "listed",
              "type": "uint256"
            },
            {
              "internalType": "uint256",
              "name": "updated",
              "type": "uint256"
            }
          ],
          "internalType": "struct Dapp",
          "name": "",
          "type": "tuple"
        }
      ],
      "stateMutability": "view",
      "type": "function"
    },
    {
      "inputs": [
        {
          "internalType": "uint256",
          "name": "index",
          "type": "uint256"
        }
      ],
      "name": "getDappAtIndex",
      "outputs": [
        {
          "components": [
            {
              "internalType": "uint16",
              "name": "index",
              "type": "uint16"
            },
            {
              "internalType": "string",
              "name": "name",
              "type": "string"
            },
            {
              "internalType": "uint8",
              "name": "chainID",
              "type": "uint8"
            },
            {
              "internalType": "address",
              "name": "contractAddress",
              "type": "address"
            },
            {
              "internalType": "string",
              "name": "metadataURI",
              "type": "string"
            },
            {
              "internalType": "bool",
              "name": "isFeatured",
              "type": "bool"
            },
            {
              "internalType": "uint256",
              "name": "listed",
              "type": "uint256"
            },
            {
              "internalType": "uint256",
              "name": "updated",
              "type": "uint256"
            }
          ],
          "internalType": "struct Dapp",
          "name": "",
          "type": "tuple"
        }
      ],
      "stateMutability": "view",
      "type": "function"
    },
    {
      "inputs": [],
      "name": "isCheddaStore",
      "outputs": [
        {
          "internalType": "bool",
          "name": "",
          "type": "bool"
        }
      ],
      "stateMutability": "pure",
      "type": "function"
    },
    {
      "inputs": [
        {
          "internalType": "uint256",
          "name": "listedSince",
          "type": "uint256"
        }
      ],
      "name": "newDapps",
      "outputs": [
        {
          "components": [
            {
              "components": [
                {
                  "internalType": "uint16",
                  "name": "index",
                  "type": "uint16"
                },
                {
                  "internalType": "string",
                  "name": "name",
                  "type": "string"
                },
                {
                  "internalType": "uint8",
                  "name": "chainID",
                  "type": "uint8"
                },
                {
                  "internalType": "address",
                  "name": "contractAddress",
                  "type": "address"
                },
                {
                  "internalType": "string",
                  "name": "metadataURI",
                  "type": "string"
                },
                {
                  "internalType": "bool",
                  "name": "isFeatured",
                  "type": "bool"
                },
                {
                  "internalType": "uint256",
                  "name": "listed",
                  "type": "uint256"
                },
                {
                  "internalType": "uint256",
                  "name": "updated",
                  "type": "uint256"
                }
              ],
              "internalType": "struct Dapp",
              "name": "dapp",
              "type": "tuple"
            },
            {
              "components": [
                {
                  "internalType": "uint256",
                  "name": "averageRating",
                  "type": "uint256"
                },
                {
                  "internalType": "uint256",
                  "name": "numberOfRatings",
                  "type": "uint256"
                }
              ],
              "internalType": "struct DappRating",
              "name": "rating",
              "type": "tuple"
            }
          ],
          "internalType": "struct DappWithRating[]",
          "name": "",
          "type": "tuple[]"
        }
      ],
      "stateMutability": "view",
      "type": "function"
    },
    {
      "inputs": [],
      "name": "numberOfDapps",
      "outputs": [
        {
          "internalType": "uint256",
          "name": "",
          "type": "uint256"
        }
      ],
      "stateMutability": "view",
      "type": "function"
    },
    {
      "inputs": [
        {
          "internalType": "string",
          "name": "category",
          "type": "string"
        }
      ],
      "name": "numberOfDappsInCategory",
      "outputs": [
        {
          "internalType": "uint256",
          "name": "",
          "type": "uint256"
        }
      ],
      "stateMutability": "view",
      "type": "function"
    },
    {
      "inputs": [],
      "name": "owner",
      "outputs": [
        {
          "internalType": "address",
          "name": "",
          "type": "address"
        }
      ],
      "stateMutability": "view",
      "type": "function"
    },
    {
      "inputs": [],
      "name": "popularDapps",
      "outputs": [
        {
          "components": [
            {
              "components": [
                {
                  "internalType": "uint16",
                  "name": "index",
                  "type": "uint16"
                },
                {
                  "internalType": "string",
                  "name": "name",
                  "type": "string"
                },
                {
                  "internalType": "uint8",
                  "name": "chainID",
                  "type": "uint8"
                },
                {
                  "internalType": "address",
                  "name": "contractAddress",
                  "type": "address"
                },
                {
                  "internalType": "string",
                  "name": "metadataURI",
                  "type": "string"
                },
                {
                  "internalType": "bool",
                  "name": "isFeatured",
                  "type": "bool"
                },
                {
                  "internalType": "uint256",
                  "name": "listed",
                  "type": "uint256"
                },
                {
                  "internalType": "uint256",
                  "name": "updated",
                  "type": "uint256"
                }
              ],
              "internalType": "struct Dapp",
              "name": "dapp",
              "type": "tuple"
            },
            {
              "components": [
                {
                  "internalType": "uint256",
                  "name": "averageRating",
                  "type": "uint256"
                },
                {
                  "internalType": "uint256",
                  "name": "numberOfRatings",
                  "type": "uint256"
                }
              ],
              "internalType": "struct DappRating",
              "name": "rating",
              "type": "tuple"
            }
          ],
          "internalType": "struct DappWithRating[]",
          "name": "",
          "type": "tuple[]"
        }
      ],
      "stateMutability": "view",
      "type": "function"
    },
    {
      "inputs": [],
      "name": "registry",
      "outputs": [
        {
          "internalType": "contract ICheddaAddressRegistry",
          "name": "",
          "type": "address"
        }
      ],
      "stateMutability": "view",
      "type": "function"
    },
    {
      "inputs": [
        {
          "internalType": "address",
          "name": "contractAddress",
          "type": "address"
        }
      ],
      "name": "removeDapp",
      "outputs": [],
      "stateMutability": "nonpayable",
      "type": "function"
    },
    {
      "inputs": [
        {
          "internalType": "address",
          "name": "contractAddress",
          "type": "address"
        },
        {
          "internalType": "address",
          "name": "admin",
          "type": "address"
        }
      ],
      "name": "removeDappAdmin",
      "outputs": [],
      "stateMutability": "nonpayable",
      "type": "function"
    },
    {
      "inputs": [],
      "name": "renounceOwnership",
      "outputs": [],
      "stateMutability": "nonpayable",
      "type": "function"
    },
    {
      "inputs": [
        {
          "internalType": "address",
          "name": "contractAddress",
          "type": "address"
        },
        {
          "internalType": "bool",
          "name": "isFeatured",
          "type": "bool"
        }
      ],
      "name": "setFeaturedDapp",
      "outputs": [],
      "stateMutability": "nonpayable",
      "type": "function"
    },
    {
      "inputs": [
        {
          "internalType": "address",
          "name": "newOwner",
          "type": "address"
        }
      ],
      "name": "transferOwnership",
      "outputs": [],
      "stateMutability": "nonpayable",
      "type": "function"
    },
    {
      "inputs": [
        {
          "internalType": "address",
          "name": "contractAddress",
          "type": "address"
        },
        {
          "internalType": "string",
          "name": "metadataURI",
          "type": "string"
        }
      ],
      "name": "updateDappMetadata",
      "outputs": [],
      "stateMutability": "nonpayable",
      "type": "function"
    },
    {
      "inputs": [
        {
          "internalType": "address",
          "name": "registryAddress",
          "type": "address"
        }
      ],
      "name": "updateRegistry",
      "outputs": [],
      "stateMutability": "nonpayable",
      "type": "function"
    }
  ],
  "bytecode": "0x608060405234801561001057600080fd5b5061001a3361001f565b61006f565b600080546001600160a01b038381166001600160a01b0319831681178455604051919092169283917f8be0079c531659141344cd1fd0a4f28419497f9722a3daafe3b4186f6b6457e09190a35050565b61305a806200007f6000396000f3fe608060405234801561001057600080fd5b50600436106101585760003560e01c80636caa97ac116100c357806389dcc51f1161007c57806389dcc51f146102c55780638cb0c1cb146102d85780638da5cb5b146102eb578063cc26f1ae146102fc578063f2fde38b14610323578063f84a16791461033657600080fd5b80636caa97ac14610260578063711575591461028b578063715018a6146102935780637644e1db1461029b5780637b103999146102aa578063809c45a3146102bd57600080fd5b8063471dbe3a11610115578063471dbe3a146101ea578063496bd3df146101f25780635486d6d414610212578063627c55f61461022557806365574d901461023857806365a6e9db1461024b57600080fd5b8063133c7d1d1461015d578063165631b714610186578063181157ef1461019b5780631a5da6c8146101ae5780631c5fd4c6146101c15780634660e822146101c9575b600080fd5b61017061016b366004612bae565b610349565b60405161017d9190612d6c565b60405180910390f35b610199610194366004612a1f565b6106da565b005b6101996101a93660046129ee565b61077d565b6101996101bc366004612977565b610819565b610170610865565b6101dc6101d7366004612a72565b610be0565b60405190815260200161017d565b610170610c0d565b610205610200366004612977565b610edd565b60405161017d9190612eac565b610199610220366004612af5565b6110ce565b610199610233366004612977565b6113ec565b610170610246366004612a72565b61164a565b6102536119f2565b60405161017d9190612ded565b61027361026e366004612ab2565b611c7c565b6040516001600160a01b03909116815260200161017d565b610170611cc3565b610199612037565b6040516001815260200161017d565b600554610273906001600160a01b031681565b6001546101dc565b6102056102d3366004612bae565b61206d565b6101996102e63660046129b6565b612126565b6000546001600160a01b0316610273565b61030f61030a366004612977565b612233565b60405161017d989796959493929190612ebf565b610199610331366004612977565b61239f565b6101996103443660046129b6565b61243a565b60606000805b6001548110156103d3576000600260006001848154811061038057634e487b7160e01b600052603260045260246000fd5b60009182526020808320909101546001600160a01b031683528201929092526040019020600581015490915085116103c057826103bc81612fc8565b9350505b50806103cb81612fc8565b91505061034f565b5060008167ffffffffffffffff8111156103fd57634e487b7160e01b600052604160045260246000fd5b60405190808252806020026020018201604052801561043657816020015b6104236126d5565b81526020019060019003908161041b5790505b5090506000915060005b6001548110156106d2576000600260006001848154811061047157634e487b7160e01b600052603260045260246000fd5b60009182526020808320909101546001600160a01b031683528201929092526040018120600180549193506104d891859081106104be57634e487b7160e01b600052603260045260246000fd5b6000918252602090912001546001600160a01b03166124dc565b9050868260050154106106bd576040805161014081018252835461ffff16918101918252600184018054919283929091869160608501919061051990612f71565b80601f016020809104026020016040519081016040528092919081815260200182805461054590612f71565b80156105925780601f1061056757610100808354040283529160200191610592565b820191906000526020600020905b81548152906001019060200180831161057557829003601f168201915b5050509183525050600282015460ff8116602083015261010090046001600160a01b031660408201526003820180546060909201916105d090612f71565b80601f01602080910402602001604051908101604052809291908181526020018280546105fc90612f71565b80156106495780601f1061061e57610100808354040283529160200191610649565b820191906000526020600020905b81548152906001019060200180831161062c57829003601f168201915b5050509183525050600482015460ff161515602080830191909152600583015460408301526006909201546060909101529082520182905284518590879081106106a357634e487b7160e01b600052603260045260246000fd5b602002602001018190525084806106b990612fc8565b9550505b505080806106ca90612fc8565b915050610440565b509392505050565b6000546001600160a01b0316331461070d5760405162461bcd60e51b815260040161070490612e77565b60405180910390fd5b6001600160a01b03808416600090815260026020819052604090912001548491610100909104166107505760405162461bcd60e51b815260040161070490612e4e565b6001600160a01b038416600090815260026020526040902061077690600301848461270f565b5050505050565b6000546001600160a01b031633146107a75760405162461bcd60e51b815260040161070490612e77565b6001600160a01b03808316600090815260026020819052604090912001548391610100909104166107ea5760405162461bcd60e51b815260040161070490612e4e565b506001600160a01b03919091166000908152600260205260409020600401805460ff1916911515919091179055565b6000546001600160a01b031633146108435760405162461bcd60e51b815260040161070490612e77565b600580546001600160a01b0319166001600160a01b0392909216919091179055565b60606000805b6001548110156108f1576000600260006001848154811061089c57634e487b7160e01b600052603260045260246000fd5b60009182526020808320909101546001600160a01b031683528201929092526040019020600481015490915060ff16156108de57826108da81612fc8565b9350505b50806108e981612fc8565b91505061086b565b5060008167ffffffffffffffff81111561091b57634e487b7160e01b600052604160045260246000fd5b60405190808252806020026020018201604052801561095457816020015b6109416126d5565b8152602001906001900390816109395790505b5090506000915060005b600154811015610bd9576000600260006001848154811061098f57634e487b7160e01b600052603260045260246000fd5b60009182526020808320909101546001600160a01b03168352828101939093526040918201902081516101008101909252805461ffff16825260018101805492939192918401916109df90612f71565b80601f0160208091040260200160405190810160405280929190818152602001828054610a0b90612f71565b8015610a585780601f10610a2d57610100808354040283529160200191610a58565b820191906000526020600020905b815481529060010190602001808311610a3b57829003601f168201915b5050509183525050600282015460ff8116602083015261010090046001600160a01b03166040820152600382018054606090920191610a9690612f71565b80601f0160208091040260200160405190810160405280929190818152602001828054610ac290612f71565b8015610b0f5780601f10610ae457610100808354040283529160200191610b0f565b820191906000526020600020905b815481529060010190602001808311610af257829003601f168201915b5050509183525050600482015460ff16151560208201526005820154604082015260069091015460609091015260018054919250600091610b699190859081106104be57634e487b7160e01b600052603260045260246000fd5b90508160a0015115610bc457604051806040016040528083815260200182815250848681518110610baa57634e487b7160e01b600052603260045260246000fd5b60200260200101819052508480610bc090612fc8565b9550505b50508080610bd190612fc8565b91505061095e565b5092915050565b600060048383604051610bf4929190612ca5565b9081526040519081900360200190205490505b92915050565b60015460609060009067ffffffffffffffff811115610c3c57634e487b7160e01b600052604160045260246000fd5b604051908082528060200260200182016040528015610c7557816020015b610c626126d5565b815260200190600190039081610c5a5790505b50905060005b600154811015610ed75760405180604001604052806002600060018581548110610cb557634e487b7160e01b600052603260045260246000fd5b60009182526020808320909101546001600160a01b03168352828101939093526040918201902081516101008101909252805461ffff1682526001810180549293919291840191610d0590612f71565b80601f0160208091040260200160405190810160405280929190818152602001828054610d3190612f71565b8015610d7e5780601f10610d5357610100808354040283529160200191610d7e565b820191906000526020600020905b815481529060010190602001808311610d6157829003601f168201915b5050509183525050600282015460ff8116602083015261010090046001600160a01b03166040820152600382018054606090920191610dbc90612f71565b80601f0160208091040260200160405190810160405280929190818152602001828054610de890612f71565b8015610e355780601f10610e0a57610100808354040283529160200191610e35565b820191906000526020600020905b815481529060010190602001808311610e1857829003601f168201915b505050505081526020016004820160009054906101000a900460ff16151515158152602001600582015481526020016006820154815250508152602001610e96600184815481106104be57634e487b7160e01b600052603260045260246000fd5b815250828281518110610eb957634e487b7160e01b600052603260045260246000fd5b60200260200101819052508080610ecf90612fc8565b915050610c7b565b50919050565b610ee5612793565b6001600160a01b0380831660009081526002602081905260409091200154839161010090910416610f285760405162461bcd60e51b815260040161070490612e4e565b6001600160a01b03831660009081526002602090815260409182902082516101008101909352805461ffff1683526001810180549192840191610f6a90612f71565b80601f0160208091040260200160405190810160405280929190818152602001828054610f9690612f71565b8015610fe35780601f10610fb857610100808354040283529160200191610fe3565b820191906000526020600020905b815481529060010190602001808311610fc657829003601f168201915b5050509183525050600282015460ff8116602083015261010090046001600160a01b0316604082015260038201805460609092019161102190612f71565b80601f016020809104026020016040519081016040528092919081815260200182805461104d90612f71565b801561109a5780601f1061106f5761010080835404028352916020019161109a565b820191906000526020600020905b81548152906001019060200180831161107d57829003601f168201915b5050509183525050600482015460ff1615156020820152600582015460408201526006909101546060909101529392505050565b6000546001600160a01b031633146110f85760405162461bcd60e51b815260040161070490612e77565b6001600160a01b03841661113d5760405162461bcd60e51b815260206004820152600c60248201526b5a65726f206164647265737360a01b6044820152606401610704565b6001600160a01b03848116600090815260026020819052604090912001546101009004161561119c5760405162461bcd60e51b815260206004820152600b60248201526a446170702065786973747360a81b6044820152606401610704565b60008054600160a01b900461ffff168160146111b783612fa6565b91906101000a81548161ffff021916908361ffff160217905550905060006040518061010001604052808361ffff1681526020018981526020018860ff168152602001876001600160a01b0316815260200185858080601f016020809104026020016040519081016040528093929190818152602001838380828437600092018290525093855250505060208083018290524260408085018290526060909401526001600160a01b038a168252600281529190208251815461ffff191661ffff9091161781558282015180519394508493919261129c926001850192909101906127ea565b50604082015160028201805460608501516001600160a01b0316610100026001600160a81b031990911660ff90931692909217919091179055608082015180516112f09160038401916020909101906127ea565b5060a08201516004828101805460ff19169215159290921790915560c0830151600583015560e09092015160069091015560405161132f908790612cb5565b9081526040516020918190038201812080546001808201835560009283529382200180546001600160a01b03199081166001600160a01b038c1690811790925584548086018655949092527fb10e2d527612073b26eecdfd717e6a320cf44b4afac2b0732d9fcbe2b7fa0cf69093018054909116831790556113b2908a90612cb5565b604051908190038120907f571a5d41a9cdccbd803fbb5a81c414687a87516b6fc484cd8083baab4bab000490600090a35050505050505050565b6000546001600160a01b031633146114165760405162461bcd60e51b815260040161070490612e77565b6001600160a01b03808216600090815260026020819052604090912001548291610100909104166114595760405162461bcd60e51b815260040161070490612e4e565b6001600160a01b0382166000908152600260205260408120805461ffff1916815590819061148a600183018261285e565b6002820180546001600160a81b03191690556114aa60038301600061285e565b5060048101805460ff19169055600060058201819055600690910155805460018054909161ffff169081106114ef57634e487b7160e01b600052603260045260246000fd5b600091825260209091200180546001600160a01b031916905560018054611517908290612f2a565b8154811061153557634e487b7160e01b600052603260045260246000fd5b6000918252602090912001548154600180546001600160a01b0390931692909161ffff1690811061157657634e487b7160e01b600052603260045260246000fd5b9060005260206000200160006101000a8154816001600160a01b0302191690836001600160a01b0316021790555060018054806115c357634e487b7160e01b600052603160045260246000fd5b60008281526020808220830160001990810180546001600160a01b03191690559092019092556001600160a01b0385168083526002909152604091829020915190916116159160019190910190612cd1565b604051908190038120907faee8bd690ad86ba913eed88d3fa33088c281a85f6dae478039ef7a265523f41690600090a3505050565b60606004838360405161165e929190612ca5565b90815260405190819003602001902054156116ac5760408051600080825260208201909252906116a4565b6116916126d5565b8152602001906001900390816116895790505b509050610c07565b6000600484846040516116c0929190612ca5565b908152604080519182900360209081018320805480830285018301909352828452919083018282801561171c57602002820191906000526020600020905b81546001600160a01b031681526001909101906020018083116116fe575b505050505090506000815167ffffffffffffffff81111561174d57634e487b7160e01b600052604160045260246000fd5b60405190808252806020026020018201604052801561178657816020015b6117736126d5565b81526020019060019003908161176b5790505b50905060005b82518110156119e957600060026000600184815481106117bc57634e487b7160e01b600052603260045260246000fd5b60009182526020808320909101546001600160a01b0316835282019290925260400181206001805491935061180991859081106104be57634e487b7160e01b600052603260045260246000fd5b6040805161014081018252845461ffff169181019182526001850180549394509092839291869160608501919061183f90612f71565b80601f016020809104026020016040519081016040528092919081815260200182805461186b90612f71565b80156118b85780601f1061188d576101008083540402835291602001916118b8565b820191906000526020600020905b81548152906001019060200180831161189b57829003601f168201915b5050509183525050600282015460ff8116602083015261010090046001600160a01b031660408201526003820180546060909201916118f690612f71565b80601f016020809104026020016040519081016040528092919081815260200182805461192290612f71565b801561196f5780601f106119445761010080835404028352916020019161196f565b820191906000526020600020905b81548152906001019060200180831161195257829003601f168201915b5050509183525050600482015460ff161515602080830191909152600583015460408301526006909201546060909101529082520182905284518590859081106119c957634e487b7160e01b600052603260045260246000fd5b6020026020010181905250505080806119e190612fc8565b91505061178c565b50949350505050565b60015460609060009067ffffffffffffffff811115611a2157634e487b7160e01b600052604160045260246000fd5b604051908082528060200260200182016040528015611a5a57816020015b611a47612793565b815260200190600190039081611a3f5790505b50905060005b600154811015610ed7576002600060018381548110611a8f57634e487b7160e01b600052603260045260246000fd5b60009182526020808320909101546001600160a01b03168352828101939093526040918201902081516101008101909252805461ffff1682526001810180549293919291840191611adf90612f71565b80601f0160208091040260200160405190810160405280929190818152602001828054611b0b90612f71565b8015611b585780601f10611b2d57610100808354040283529160200191611b58565b820191906000526020600020905b815481529060010190602001808311611b3b57829003601f168201915b5050509183525050600282015460ff8116602083015261010090046001600160a01b03166040820152600382018054606090920191611b9690612f71565b80601f0160208091040260200160405190810160405280929190818152602001828054611bc290612f71565b8015611c0f5780601f10611be457610100808354040283529160200191611c0f565b820191906000526020600020905b815481529060010190602001808311611bf257829003601f168201915b5050509183525050600482015460ff1615156020820152600582015460408201526006909101546060909101528251839083908110611c5e57634e487b7160e01b600052603260045260246000fd5b60200260200101819052508080611c7490612fc8565b915050611a60565b81516020818401810180516004825292820191850191909120919052805482908110611ca757600080fd5b6000918252602090912001546001600160a01b03169150829050565b60606000805b600154811015611d3a576000611cf9600183815481106104be57634e487b7160e01b600052603260045260246000fd5b905061012c8160000151118015611d14575060008160200151115b15611d275782611d2381612fc8565b9350505b5080611d3281612fc8565b915050611cc9565b5060008167ffffffffffffffff811115611d6457634e487b7160e01b600052604160045260246000fd5b604051908082528060200260200182016040528015611d9d57816020015b611d8a6126d5565b815260200190600190039081611d825790505b5090506000915060005b600154811015610bd9576000611dd7600183815481106104be57634e487b7160e01b600052603260045260246000fd5b905061012c8160000151118015611df2575060008160200151115b156120245760006002600060018581548110611e1e57634e487b7160e01b600052603260045260246000fd5b60009182526020808320909101546001600160a01b0316835282019290925260409081018220815161014081018352815461ffff169281019283526001820180549295509092839290918691606085019190611e7990612f71565b80601f0160208091040260200160405190810160405280929190818152602001828054611ea590612f71565b8015611ef25780601f10611ec757610100808354040283529160200191611ef2565b820191906000526020600020905b815481529060010190602001808311611ed557829003601f168201915b5050509183525050600282015460ff8116602083015261010090046001600160a01b03166040820152600382018054606090920191611f3090612f71565b80601f0160208091040260200160405190810160405280929190818152602001828054611f5c90612f71565b8015611fa95780601f10611f7e57610100808354040283529160200191611fa9565b820191906000526020600020905b815481529060010190602001808311611f8c57829003601f168201915b5050509183525050600482015460ff16151560208083019190915260058301546040830152600690920154606090910152908252018490528551909150819086908890811061200857634e487b7160e01b600052603260045260246000fd5b6020026020010181905250858061201e90612fc8565b96505050505b508061202f81612fc8565b915050611da7565b6000546001600160a01b031633146120615760405162461bcd60e51b815260040161070490612e77565b61206b6000612685565b565b612075612793565b60015482106120b65760405162461bcd60e51b815260206004820152600d60248201526c092dcecc2d8d2c840d2dcc8caf609b1b6044820152606401610704565b6000600183815481106120d957634e487b7160e01b600052603260045260246000fd5b60009182526020808320909101546001600160a01b03168083526002825260409283902083516101008101909452805461ffff1684526001810180549295509092840191610f6a90612f71565b6000546001600160a01b031633146121505760405162461bcd60e51b815260040161070490612e77565b6001600160a01b03808316600090815260026020819052604090912001548391610100909104166121935760405162461bcd60e51b815260040161070490612e4e565b6001600160a01b0380841660009081526003602090815260408083209386168352929052205460ff1615156001146122015760405162461bcd60e51b81526020600482015260116024820152704e6f742061646d696e206164647265737360781b6044820152606401610704565b506001600160a01b0391821660009081526003602090815260408083209390941682529190915220805460ff19169055565b6002602052600090815260409020805460018201805461ffff909216929161225a90612f71565b80601f016020809104026020016040519081016040528092919081815260200182805461228690612f71565b80156122d35780601f106122a8576101008083540402835291602001916122d3565b820191906000526020600020905b8154815290600101906020018083116122b657829003601f168201915b505050506002830154600384018054939460ff8316946101009093046001600160a01b031693509161230490612f71565b80601f016020809104026020016040519081016040528092919081815260200182805461233090612f71565b801561237d5780601f106123525761010080835404028352916020019161237d565b820191906000526020600020905b81548152906001019060200180831161236057829003601f168201915b5050505060048301546005840154600690940154929360ff9091169290915088565b6000546001600160a01b031633146123c95760405162461bcd60e51b815260040161070490612e77565b6001600160a01b03811661242e5760405162461bcd60e51b815260206004820152602660248201527f4f776e61626c653a206e6577206f776e657220697320746865207a65726f206160448201526564647265737360d01b6064820152608401610704565b61243781612685565b50565b6000546001600160a01b031633146124645760405162461bcd60e51b815260040161070490612e77565b6001600160a01b03808316600090815260026020819052604090912001548391610100909104166124a75760405162461bcd60e51b815260040161070490612e4e565b506001600160a01b0391821660009081526003602090815260408083209390941682529190915220805460ff19166001179055565b604080518082019091526000808252602082015260055460408051634e75ea2760e01b815290516000926001600160a01b031691634e75ea27916004808301926020929190829003018186803b15801561253557600080fd5b505afa158015612549573d6000803e3d6000fd5b505050506040513d601f19601f8201168201806040525081019061256d919061299a565b60405163f4f98eab60e01b81526001600160a01b03858116600483015291925060009183169063f4f98eab9060240160206040518083038186803b1580156125b457600080fd5b505afa1580156125c8573d6000803e3d6000fd5b505050506040513d601f19601f820116820180604052508101906125ec9190612bc6565b604051630171ae1560e31b81526001600160a01b038681166004830152919250600091841690630b8d70a89060240160206040518083038186803b15801561263357600080fd5b505afa158015612647573d6000803e3d6000fd5b505050506040513d601f19601f8201168201806040525081019061266b9190612bc6565b604080518082019091529283526020830152509392505050565b600080546001600160a01b038381166001600160a01b0319831681178455604051919092169283917f8be0079c531659141344cd1fd0a4f28419497f9722a3daafe3b4186f6b6457e09190a35050565b60405180604001604052806126e8612793565b815260200161270a604051806040016040528060008152602001600081525090565b905290565b82805461271b90612f71565b90600052602060002090601f01602090048101928261273d5760008555612783565b82601f106127565782800160ff19823516178555612783565b82800160010185558215612783579182015b82811115612783578235825591602001919060010190612768565b5061278f929150612894565b5090565b604051806101000160405280600061ffff16815260200160608152602001600060ff16815260200160006001600160a01b031681526020016060815260200160001515815260200160008152602001600081525090565b8280546127f690612f71565b90600052602060002090601f0160209004810192826128185760008555612783565b82601f1061283157805160ff1916838001178555612783565b82800160010185558215612783579182015b82811115612783578251825591602001919060010190612843565b50805461286a90612f71565b6000825580601f1061287a575050565b601f01602090049060005260206000209081019061243791905b5b8082111561278f5760008155600101612895565b60008083601f8401126128ba578182fd5b50813567ffffffffffffffff8111156128d1578182fd5b6020830191508360208285010111156128e957600080fd5b9250929050565b600082601f830112612900578081fd5b813567ffffffffffffffff8082111561291b5761291b612ff9565b604051601f8301601f19908116603f0116810190828211818310171561294357612943612ff9565b8160405283815286602085880101111561295b578485fd5b8360208701602083013792830160200193909352509392505050565b600060208284031215612988578081fd5b81356129938161300f565b9392505050565b6000602082840312156129ab578081fd5b81516129938161300f565b600080604083850312156129c8578081fd5b82356129d38161300f565b915060208301356129e38161300f565b809150509250929050565b60008060408385031215612a00578182fd5b8235612a0b8161300f565b9150602083013580151581146129e3578182fd5b600080600060408486031215612a33578081fd5b8335612a3e8161300f565b9250602084013567ffffffffffffffff811115612a59578182fd5b612a65868287016128a9565b9497909650939450505050565b60008060208385031215612a84578182fd5b823567ffffffffffffffff811115612a9a578283fd5b612aa6858286016128a9565b90969095509350505050565b60008060408385031215612ac4578182fd5b823567ffffffffffffffff811115612ada578283fd5b612ae6858286016128f0565b95602094909401359450505050565b60008060008060008060a08789031215612b0d578182fd5b863567ffffffffffffffff80821115612b24578384fd5b612b308a838b016128f0565b97506020890135915060ff82168214612b47578384fd5b909550604088013590612b598261300f565b90945060608801359080821115612b6e578384fd5b612b7a8a838b016128f0565b94506080890135915080821115612b8f578384fd5b50612b9c89828a016128a9565b979a9699509497509295939492505050565b600060208284031215612bbf578081fd5b5035919050565b600060208284031215612bd7578081fd5b5051919050565b60008151808452612bf6816020860160208601612f41565b601f01601f19169290920160200192915050565b600061010061ffff83511684526020830151816020860152612c2e82860182612bde565b91505060ff60408401511660408501526060830151612c5860608601826001600160a01b03169052565b5060808301518482036080860152612c708282612bde565b91505060a0830151612c8660a086018215159052565b5060c083015160c085015260e083015160e08501528091505092915050565b8183823760009101908152919050565b60008251612cc7818460208701612f41565b9190910192915050565b600080835482600182811c915080831680612ced57607f831692505b6020808410821415612d0d57634e487b7160e01b87526022600452602487fd5b818015612d215760018114612d3257612d5e565b60ff19861689528489019650612d5e565b60008a815260209020885b86811015612d565781548b820152908501908301612d3d565b505084890196505b509498975050505050505050565b60006020808301818452808551808352604092508286019150828160051b870101848801865b83811015612ddf57603f19898403018552815160608151818652612db882870182612c0a565b928a01518051878c01528a0151958901959095525094870194925090860190600101612d92565b509098975050505050505050565b6000602080830181845280855180835260408601915060408160051b8701019250838701855b82811015612e4157603f19888603018452612e2f858351612c0a565b94509285019290850190600101612e13565b5092979650505050505050565b6020808252600f908201526e496e76616c6964206164647265737360881b604082015260600190565b6020808252818101527f4f776e61626c653a2063616c6c6572206973206e6f7420746865206f776e6572604082015260600190565b6020815260006129936020830184612c0a565b600061010061ffff8b168352806020840152612edd8184018b612bde565b60ff8a1660408501526001600160a01b038916606085015283810360808501529050612f098188612bde565b95151560a0840152505060c081019290925260e09091015295945050505050565b600082821015612f3c57612f3c612fe3565b500390565b60005b83811015612f5c578181015183820152602001612f44565b83811115612f6b576000848401525b50505050565b600181811c90821680612f8557607f821691505b60208210811415610ed757634e487b7160e01b600052602260045260246000fd5b600061ffff80831681811415612fbe57612fbe612fe3565b6001019392505050565b6000600019821415612fdc57612fdc612fe3565b5060010190565b634e487b7160e01b600052601160045260246000fd5b634e487b7160e01b600052604160045260246000fd5b6001600160a01b038116811461243757600080fdfea2646970667358221220f4c8d06dd1f182d84fe47de7f76557681792f3c22999b827005e28b4f493dd2e64736f6c63430008040033",
  "linkReferences": {},
  "deployedLinkReferences": {}
}