{
  "_format": "hh-sol-artifact-1",
  "contractName": "CheddaMarketExplorer",
  "sourceName": "contracts/market/CheddaMarketExplorer.sol",
  "abi": [
    {
      "inputs": [
        {
          "internalType": "uint256",
          "name": "",
          "type": "uint256"
        }
      ],
      "name": "allItems",
      "outputs": [
        {
          "internalType": "address",
          "name": "nftContract",
          "type": "address"
        },
        {
          "internalType": "uint256",
          "name": "tokenID",
          "type": "uint256"
        },
        {
          "internalType": "string",
          "name": "tokenURI",
          "type": "string"
        },
        {
          "internalType": "uint256",
          "name": "price",
          "type": "uint256"
        },
        {
          "internalType": "uint256",
          "name": "listignTime",
          "type": "uint256"
        }
      ],
      "stateMutability": "view",
      "type": "function"
    },
    {
      "inputs": [
        {
          "internalType": "address",
          "name": "",
          "type": "address"
        },
        {
          "internalType": "uint256",
          "name": "",
          "type": "uint256"
        }
      ],
      "name": "collectionItems",
      "outputs": [
        {
          "internalType": "address",
          "name": "nftContract",
          "type": "address"
        },
        {
          "internalType": "uint256",
          "name": "tokenID",
          "type": "uint256"
        },
        {
          "internalType": "string",
          "name": "tokenURI",
          "type": "string"
        },
        {
          "internalType": "uint256",
          "name": "price",
          "type": "uint256"
        },
        {
          "internalType": "uint256",
          "name": "listignTime",
          "type": "uint256"
        }
      ],
      "stateMutability": "view",
      "type": "function"
    },
    {
      "inputs": [
        {
          "internalType": "uint256",
          "name": "",
          "type": "uint256"
        }
      ],
      "name": "collectionList",
      "outputs": [
        {
          "internalType": "address",
          "name": "",
          "type": "address"
        }
      ],
      "stateMutability": "view",
      "type": "function"
    },
    {
      "inputs": [
        {
          "internalType": "address",
          "name": "",
          "type": "address"
        }
      ],
      "name": "collections",
      "outputs": [
        {
          "internalType": "address",
          "name": "nftContract",
          "type": "address"
        },
        {
          "internalType": "string",
          "name": "metadataURI",
          "type": "string"
        },
        {
          "internalType": "bool",
          "name": "exists",
          "type": "bool"
        }
      ],
      "stateMutability": "view",
      "type": "function"
    },
    {
      "inputs": [
        {
          "internalType": "uint256",
          "name": "",
          "type": "uint256"
        }
      ],
      "name": "dailyVolume",
      "outputs": [
        {
          "internalType": "uint256",
          "name": "",
          "type": "uint256"
        }
      ],
      "stateMutability": "view",
      "type": "function"
    },
    {
      "inputs": [
        {
          "internalType": "address",
          "name": "",
          "type": "address"
        }
      ],
      "name": "dislikes",
      "outputs": [
        {
          "internalType": "uint256",
          "name": "",
          "type": "uint256"
        }
      ],
      "stateMutability": "view",
      "type": "function"
    },
    {
      "inputs": [],
      "name": "getAllItems",
      "outputs": [
        {
          "components": [
            {
              "internalType": "address",
              "name": "nftContract",
              "type": "address"
            },
            {
              "internalType": "uint256",
              "name": "tokenID",
              "type": "uint256"
            },
            {
              "internalType": "string",
              "name": "tokenURI",
              "type": "string"
            },
            {
              "internalType": "uint256",
              "name": "price",
              "type": "uint256"
            },
            {
              "internalType": "uint256",
              "name": "listignTime",
              "type": "uint256"
            }
          ],
          "internalType": "struct CheddaMarketExplorer.MarketItem[]",
          "name": "",
          "type": "tuple[]"
        }
      ],
      "stateMutability": "view",
      "type": "function"
    },
    {
      "inputs": [],
      "name": "getCollections",
      "outputs": [
        {
          "components": [
            {
              "internalType": "address",
              "name": "nftContract",
              "type": "address"
            },
            {
              "internalType": "string",
              "name": "metadataURI",
              "type": "string"
            },
            {
              "internalType": "bool",
              "name": "exists",
              "type": "bool"
            }
          ],
          "internalType": "struct CheddaMarketExplorer.Collection[]",
          "name": "",
          "type": "tuple[]"
        }
      ],
      "stateMutability": "view",
      "type": "function"
    },
    {
      "inputs": [
        {
          "internalType": "address",
          "name": "nftContract",
          "type": "address"
        }
      ],
      "name": "itemsInCollection",
      "outputs": [
        {
          "components": [
            {
              "internalType": "address",
              "name": "nftContract",
              "type": "address"
            },
            {
              "internalType": "uint256",
              "name": "tokenID",
              "type": "uint256"
            },
            {
              "internalType": "string",
              "name": "tokenURI",
              "type": "string"
            },
            {
              "internalType": "uint256",
              "name": "price",
              "type": "uint256"
            },
            {
              "internalType": "uint256",
              "name": "listignTime",
              "type": "uint256"
            }
          ],
          "internalType": "struct CheddaMarketExplorer.MarketItem[]",
          "name": "",
          "type": "tuple[]"
        }
      ],
      "stateMutability": "view",
      "type": "function"
    },
    {
      "inputs": [
        {
          "internalType": "address",
          "name": "",
          "type": "address"
        }
      ],
      "name": "likes",
      "outputs": [
        {
          "internalType": "uint256",
          "name": "",
          "type": "uint256"
        }
      ],
      "stateMutability": "view",
      "type": "function"
    },
    {
      "inputs": [
        {
          "internalType": "uint256",
          "name": "time",
          "type": "uint256"
        }
      ],
      "name": "newlyListed",
      "outputs": [
        {
          "components": [
            {
              "internalType": "address",
              "name": "nftContract",
              "type": "address"
            },
            {
              "internalType": "uint256",
              "name": "tokenID",
              "type": "uint256"
            },
            {
              "internalType": "string",
              "name": "tokenURI",
              "type": "string"
            },
            {
              "internalType": "uint256",
              "name": "price",
              "type": "uint256"
            },
            {
              "internalType": "uint256",
              "name": "listignTime",
              "type": "uint256"
            }
          ],
          "internalType": "struct CheddaMarketExplorer.MarketItem[]",
          "name": "",
          "type": "tuple[]"
        }
      ],
      "stateMutability": "view",
      "type": "function"
    },
    {
      "inputs": [],
      "name": "popularItems",
      "outputs": [],
      "stateMutability": "view",
      "type": "function"
    },
    {
      "inputs": [
        {
          "internalType": "address",
          "name": "nftContract",
          "type": "address"
        },
        {
          "internalType": "uint256",
          "name": "tokenId",
          "type": "uint256"
        },
        {
          "internalType": "uint256",
          "name": "price",
          "type": "uint256"
        }
      ],
      "name": "reportListing",
      "outputs": [],
      "stateMutability": "nonpayable",
      "type": "function"
    },
    {
      "inputs": [
        {
          "internalType": "address",
          "name": "nftContract",
          "type": "address"
        },
        {
          "internalType": "uint256",
          "name": "tokenId",
          "type": "uint256"
        }
      ],
      "name": "reportMarketSale",
      "outputs": [],
      "stateMutability": "nonpayable",
      "type": "function"
    },
    {
      "inputs": [
        {
          "internalType": "uint256",
          "name": "",
          "type": "uint256"
        },
        {
          "internalType": "uint256",
          "name": "",
          "type": "uint256"
        }
      ],
      "name": "trades",
      "outputs": [
        {
          "internalType": "address",
          "name": "nftContract",
          "type": "address"
        },
        {
          "internalType": "uint256",
          "name": "tokenId",
          "type": "uint256"
        },
        {
          "internalType": "uint256",
          "name": "price",
          "type": "uint256"
        }
      ],
      "stateMutability": "view",
      "type": "function"
    }
  ],
  "bytecode": "0x608060405234801561001057600080fd5b506120fa806100206000396000f3fe608060405234801561001057600080fd5b50600436106100f55760003560e01c8063752d121c11610097578063b952195011610066578063b9521950146102b0578063bf95372e146102e0578063f802e3f1146102fc578063ff68fa6e14610330576100f5565b8063752d121c14610216578063943ca3b9146102465780639c74109a14610276578063b3e3626714610280576100f5565b806346e63586116100d357806346e635861461018e5780634ba1d6aa146101ac5780636e4d5077146101ca578063737d3685146101e6576100f5565b806311cda15f146100fa5780632a7beacc1461012a57806343add2e61461015c575b600080fd5b610114600480360381019061010f91906117cb565b610364565b6040516101219190611d0d565b60405180910390f35b610144600480360381019061013f9190611912565b610508565b60405161015393929190611cb4565b60405180910390f35b610176600480360381019061017191906117cb565b61056f565b60405161018593929190611c1c565b60405180910390f35b61019661064e565b6040516101a39190611ceb565b60405180910390f35b6101b46108ff565b6040516101c19190611d0d565b60405180910390f35b6101e460048036038101906101df91906117f4565b610a64565b005b61020060048036038101906101fb91906117cb565b610d79565b60405161020d9190611d4a565b60405180910390f35b610230600480360381019061022b91906118e9565b610d91565b60405161023d9190611c01565b60405180910390f35b610260600480360381019061025b91906118e9565b610dd0565b60405161026d9190611d4a565b60405180910390f35b61027e610de8565b005b61029a600480360381019061029591906117cb565b610dea565b6040516102a79190611d4a565b60405180910390f35b6102ca60048036038101906102c591906118e9565b610e02565b6040516102d79190611d0d565b60405180910390f35b6102fa60048036038101906102f59190611830565b610e09565b005b610316600480360381019061031191906117f4565b6112f9565b604051610327959493929190611c5a565b60405180910390f35b61034a600480360381019061034591906118e9565b6113f4565b60405161035b959493929190611c5a565b60405180910390f35b6060600760008373ffffffffffffffffffffffffffffffffffffffff1673ffffffffffffffffffffffffffffffffffffffff168152602001908152602001600020805480602002602001604051908101604052809291908181526020016000905b828210156104fd57838290600052602060002090600502016040518060a00160405290816000820160009054906101000a900473ffffffffffffffffffffffffffffffffffffffff1673ffffffffffffffffffffffffffffffffffffffff1673ffffffffffffffffffffffffffffffffffffffff1681526020016001820154815260200160028201805461045890611f35565b80601f016020809104026020016040519081016040528092919081815260200182805461048490611f35565b80156104d15780601f106104a6576101008083540402835291602001916104d1565b820191906000526020600020905b8154815290600101906020018083116104b457829003601f168201915b5050505050815260200160038201548152602001600482015481525050815260200190600101906103c5565b505050509050919050565b6001602052816000526040600020818154811061052457600080fd5b9060005260206000209060030201600091509150508060000160009054906101000a900473ffffffffffffffffffffffffffffffffffffffff16908060010154908060020154905083565b60056020528060005260406000206000915090508060000160009054906101000a900473ffffffffffffffffffffffffffffffffffffffff16908060010180546105b890611f35565b80601f01602080910402602001604051908101604052809291908181526020018280546105e490611f35565b80156106315780601f1061060657610100808354040283529160200191610631565b820191906000526020600020905b81548152906001019060200180831161061457829003601f168201915b5050505050908060020160009054906101000a900460ff16905083565b6060600060068054905067ffffffffffffffff811115610697577f4e487b7100000000000000000000000000000000000000000000000000000000600052604160045260246000fd5b6040519080825280602002602001820160405280156106d057816020015b6106bd61157b565b8152602001906001900390816106b55790505b50905060005b6006805490508110156108f75760006006828154811061071f577f4e487b7100000000000000000000000000000000000000000000000000000000600052603260045260246000fd5b9060005260206000200160009054906101000a900473ffffffffffffffffffffffffffffffffffffffff1690506000600560008373ffffffffffffffffffffffffffffffffffffffff1673ffffffffffffffffffffffffffffffffffffffff1681526020019081526020016000206040518060600160405290816000820160009054906101000a900473ffffffffffffffffffffffffffffffffffffffff1673ffffffffffffffffffffffffffffffffffffffff1673ffffffffffffffffffffffffffffffffffffffff1681526020016001820180546107fe90611f35565b80601f016020809104026020016040519081016040528092919081815260200182805461082a90611f35565b80156108775780601f1061084c57610100808354040283529160200191610877565b820191906000526020600020905b81548152906001019060200180831161085a57829003601f168201915b505050505081526020016002820160009054906101000a900460ff1615151515815250509050808484815181106108d7577f4e487b7100000000000000000000000000000000000000000000000000000000600052603260045260246000fd5b6020026020010181905250505080806108ef90611f98565b9150506106d6565b508091505090565b60606004805480602002602001604051908101604052809291908181526020016000905b82821015610a5b57838290600052602060002090600502016040518060a00160405290816000820160009054906101000a900473ffffffffffffffffffffffffffffffffffffffff1673ffffffffffffffffffffffffffffffffffffffff1673ffffffffffffffffffffffffffffffffffffffff168152602001600182015481526020016002820180546109b690611f35565b80601f01602080910402602001604051908101604052809291908181526020018280546109e290611f35565b8015610a2f5780601f10610a0457610100808354040283529160200191610a2f565b820191906000526020600020905b815481529060010190602001808311610a1257829003601f168201915b505050505081526020016003820154815260200160048201548152505081526020019060010190610923565b50505050905090565b6000805b600480549050811015610b81578373ffffffffffffffffffffffffffffffffffffffff1660048281548110610ac6577f4e487b7100000000000000000000000000000000000000000000000000000000600052603260045260246000fd5b906000526020600020906005020160000160009054906101000a900473ffffffffffffffffffffffffffffffffffffffff1673ffffffffffffffffffffffffffffffffffffffff16148015610b6557508260048281548110610b51577f4e487b7100000000000000000000000000000000000000000000000000000000600052603260045260246000fd5b906000526020600020906005020160010154145b15610b6e578091505b8080610b7990611f98565b915050610a68565b5060008114610d745760046001600480549050610b9e9190611e5a565b81548110610bd5577f4e487b7100000000000000000000000000000000000000000000000000000000600052603260045260246000fd5b906000526020600020906005020160048281548110610c1d577f4e487b7100000000000000000000000000000000000000000000000000000000600052603260045260246000fd5b90600052602060002090600502016000820160009054906101000a900473ffffffffffffffffffffffffffffffffffffffff168160000160006101000a81548173ffffffffffffffffffffffffffffffffffffffff021916908373ffffffffffffffffffffffffffffffffffffffff160217905550600182015481600101556002820181600201908054610cb090611f35565b610cbb9291906115b4565b5060038201548160030155600482015481600401559050506004805480610d0b577f4e487b7100000000000000000000000000000000000000000000000000000000600052603160045260246000fd5b6001900381819060005260206000209060050201600080820160006101000a81549073ffffffffffffffffffffffffffffffffffffffff02191690556001820160009055600282016000610d5f9190611641565b60038201600090556004820160009055505090555b505050565b60026020528060005260406000206000915090505481565b60068181548110610da157600080fd5b906000526020600020016000915054906101000a900473ffffffffffffffffffffffffffffffffffffffff1681565b60006020528060005260406000206000915090505481565b565b60036020528060005260406000206000915090505481565b6060919050565b6000604051806020016040528060008152509050610e26846114e2565b15610ec25760008490508073ffffffffffffffffffffffffffffffffffffffff1663c87b56dd856040518263ffffffff1660e01b8152600401610e699190611d4a565b60006040518083038186803b158015610e8157600080fd5b505afa158015610e95573d6000803e3d6000fd5b505050506040513d6000823e3d601f19601f82011682018060405250810190610ebe91906118a8565b9150505b60006040518060a001604052808673ffffffffffffffffffffffffffffffffffffffff168152602001858152602001838152602001848152602001428152509050600481908060018154018082558091505060019003906000526020600020906005020160009091909190915060008201518160000160006101000a81548173ffffffffffffffffffffffffffffffffffffffff021916908373ffffffffffffffffffffffffffffffffffffffff160217905550602082015181600101556040820151816002019080519060200190610f9c929190611681565b5060608201518160030155608082015181600401555050600560008673ffffffffffffffffffffffffffffffffffffffff1673ffffffffffffffffffffffffffffffffffffffff16815260200190815260200160002060020160009054906101000a900460ff1661120557600060405180602001604052806000815250905060008690508073ffffffffffffffffffffffffffffffffffffffff166303ee438c6040518163ffffffff1660e01b815260040160006040518083038186803b15801561106657600080fd5b505afa15801561107a573d6000803e3d6000fd5b505050506040513d6000823e3d601f19601f820116820180604052508101906110a391906118a8565b915060405180606001604052808873ffffffffffffffffffffffffffffffffffffffff16815260200183815260200160011515815250600560008973ffffffffffffffffffffffffffffffffffffffff1673ffffffffffffffffffffffffffffffffffffffff16815260200190815260200160002060008201518160000160006101000a81548173ffffffffffffffffffffffffffffffffffffffff021916908373ffffffffffffffffffffffffffffffffffffffff160217905550602082015181600101908051906020019061117b929190611681565b5060408201518160020160006101000a81548160ff0219169083151502179055509050506006879080600181540180825580915050600190039060005260206000200160009091909190916101000a81548173ffffffffffffffffffffffffffffffffffffffff021916908373ffffffffffffffffffffffffffffffffffffffff16021790555050505b600760008673ffffffffffffffffffffffffffffffffffffffff1673ffffffffffffffffffffffffffffffffffffffff16815260200190815260200160002081908060018154018082558091505060019003906000526020600020906005020160009091909190915060008201518160000160006101000a81548173ffffffffffffffffffffffffffffffffffffffff021916908373ffffffffffffffffffffffffffffffffffffffff1602179055506020820151816001015560408201518160020190805190602001906112db929190611681565b50606082015181600301556080820151816004015550505050505050565b6007602052816000526040600020818154811061131557600080fd5b9060005260206000209060050201600091509150508060000160009054906101000a900473ffffffffffffffffffffffffffffffffffffffff169080600101549080600201805461136590611f35565b80601f016020809104026020016040519081016040528092919081815260200182805461139190611f35565b80156113de5780601f106113b3576101008083540402835291602001916113de565b820191906000526020600020905b8154815290600101906020018083116113c157829003601f168201915b5050505050908060030154908060040154905085565b6004818154811061140457600080fd5b90600052602060002090600502016000915090508060000160009054906101000a900473ffffffffffffffffffffffffffffffffffffffff169080600101549080600201805461145390611f35565b80601f016020809104026020016040519081016040528092919081815260200182805461147f90611f35565b80156114cc5780601f106114a1576101008083540402835291602001916114cc565b820191906000526020600020905b8154815290600101906020018083116114af57829003601f168201915b5050505050908060030154908060040154905085565b60008173ffffffffffffffffffffffffffffffffffffffff166301ffc9a7635b5e139f60e01b6040518263ffffffff1660e01b81526004016115249190611d2f565b60206040518083038186803b15801561153c57600080fd5b505afa158015611550573d6000803e3d6000fd5b505050506040513d601f19601f82011682018060405250810190611574919061187f565b9050919050565b6040518060600160405280600073ffffffffffffffffffffffffffffffffffffffff168152602001606081526020016000151581525090565b8280546115c090611f35565b90600052602060002090601f0160209004810192826115e25760008555611630565b82601f106115f35780548555611630565b8280016001018555821561163057600052602060002091601f016020900482015b8281111561162f578254825591600101919060010190611614565b5b50905061163d9190611707565b5090565b50805461164d90611f35565b6000825580601f1061165f575061167e565b601f01602090049060005260206000209081019061167d9190611707565b5b50565b82805461168d90611f35565b90600052602060002090601f0160209004810192826116af57600085556116f6565b82601f106116c857805160ff19168380011785556116f6565b828001600101855582156116f6579182015b828111156116f55782518255916020019190600101906116da565b5b5090506117039190611707565b5090565b5b80821115611720576000816000905550600101611708565b5090565b600061173761173284611d8a565b611d65565b90508281526020810184848401111561174f57600080fd5b61175a848285611f02565b509392505050565b6000813590506117718161207f565b92915050565b60008151905061178681612096565b92915050565b600082601f83011261179d57600080fd5b81516117ad848260208601611724565b91505092915050565b6000813590506117c5816120ad565b92915050565b6000602082840312156117dd57600080fd5b60006117eb84828501611762565b91505092915050565b6000806040838503121561180757600080fd5b600061181585828601611762565b9250506020611826858286016117b6565b9150509250929050565b60008060006060848603121561184557600080fd5b600061185386828701611762565b9350506020611864868287016117b6565b9250506040611875868287016117b6565b9150509250925092565b60006020828403121561189157600080fd5b600061189f84828501611777565b91505092915050565b6000602082840312156118ba57600080fd5b600082015167ffffffffffffffff8111156118d457600080fd5b6118e08482850161178c565b91505092915050565b6000602082840312156118fb57600080fd5b6000611909848285016117b6565b91505092915050565b6000806040838503121561192557600080fd5b6000611933858286016117b6565b9250506020611944858286016117b6565b9150509250929050565b600061195a8383611b1d565b905092915050565b600061196e8383611b6d565b905092915050565b61197f81611e8e565b82525050565b61198e81611e8e565b82525050565b600061199f82611ddb565b6119a98185611e16565b9350836020820285016119bb85611dbb565b8060005b858110156119f757848403895281516119d8858261194e565b94506119e383611dfc565b925060208a019950506001810190506119bf565b50829750879550505050505092915050565b6000611a1482611de6565b611a1e8185611e27565b935083602082028501611a3085611dcb565b8060005b85811015611a6c5784840389528151611a4d8582611962565b9450611a5883611e09565b925060208a01995050600181019050611a34565b50829750879550505050505092915050565b611a8781611ea0565b82525050565b611a9681611ea0565b82525050565b611aa581611eac565b82525050565b6000611ab682611df1565b611ac08185611e38565b9350611ad0818560208601611f02565b611ad98161206e565b840191505092915050565b6000611aef82611df1565b611af98185611e49565b9350611b09818560208601611f02565b611b128161206e565b840191505092915050565b6000606083016000830151611b356000860182611976565b5060208301518482036020860152611b4d8282611aab565b9150506040830151611b626040860182611a7e565b508091505092915050565b600060a083016000830151611b856000860182611976565b506020830151611b986020860182611be3565b5060408301518482036040860152611bb08282611aab565b9150506060830151611bc56060860182611be3565b506080830151611bd86080860182611be3565b508091505092915050565b611bec81611ef8565b82525050565b611bfb81611ef8565b82525050565b6000602082019050611c166000830184611985565b92915050565b6000606082019050611c316000830186611985565b8181036020830152611c438185611ae4565b9050611c526040830184611a8d565b949350505050565b600060a082019050611c6f6000830188611985565b611c7c6020830187611bf2565b8181036040830152611c8e8186611ae4565b9050611c9d6060830185611bf2565b611caa6080830184611bf2565b9695505050505050565b6000606082019050611cc96000830186611985565b611cd66020830185611bf2565b611ce36040830184611bf2565b949350505050565b60006020820190508181036000830152611d058184611994565b905092915050565b60006020820190508181036000830152611d278184611a09565b905092915050565b6000602082019050611d446000830184611a9c565b92915050565b6000602082019050611d5f6000830184611bf2565b92915050565b6000611d6f611d80565b9050611d7b8282611f67565b919050565b6000604051905090565b600067ffffffffffffffff821115611da557611da461203f565b5b611dae8261206e565b9050602081019050919050565b6000819050602082019050919050565b6000819050602082019050919050565b600081519050919050565b600081519050919050565b600081519050919050565b6000602082019050919050565b6000602082019050919050565b600082825260208201905092915050565b600082825260208201905092915050565b600082825260208201905092915050565b600082825260208201905092915050565b6000611e6582611ef8565b9150611e7083611ef8565b925082821015611e8357611e82611fe1565b5b828203905092915050565b6000611e9982611ed8565b9050919050565b60008115159050919050565b60007fffffffff0000000000000000000000000000000000000000000000000000000082169050919050565b600073ffffffffffffffffffffffffffffffffffffffff82169050919050565b6000819050919050565b60005b83811015611f20578082015181840152602081019050611f05565b83811115611f2f576000848401525b50505050565b60006002820490506001821680611f4d57607f821691505b60208210811415611f6157611f60612010565b5b50919050565b611f708261206e565b810181811067ffffffffffffffff82111715611f8f57611f8e61203f565b5b80604052505050565b6000611fa382611ef8565b91507fffffffffffffffffffffffffffffffffffffffffffffffffffffffffffffffff821415611fd657611fd5611fe1565b5b600182019050919050565b7f4e487b7100000000000000000000000000000000000000000000000000000000600052601160045260246000fd5b7f4e487b7100000000000000000000000000000000000000000000000000000000600052602260045260246000fd5b7f4e487b7100000000000000000000000000000000000000000000000000000000600052604160045260246000fd5b6000601f19601f8301169050919050565b61208881611e8e565b811461209357600080fd5b50565b61209f81611ea0565b81146120aa57600080fd5b50565b6120b681611ef8565b81146120c157600080fd5b5056fea2646970667358221220873feb62567359fe37db23a942852787a632d0d2ba55ecda2de4b7babdc52e7f64736f6c63430008040033",
  "linkReferences": {},
  "deployedLinkReferences": {}
}