{
  "_format": "hh-sol-artifact-1",
  "contractName": "CheddaDappExplorer",
  "sourceName": "contracts/dappstore/CheddaDappExplorer.sol",
  "abi": [
    {
      "anonymous": false,
      "inputs": [
        {
          "indexed": true,
          "internalType": "address",
          "name": "previousOwner",
          "type": "address"
        },
        {
          "indexed": true,
          "internalType": "address",
          "name": "newOwner",
          "type": "address"
        }
      ],
      "name": "OwnershipTransferred",
      "type": "event"
    },
    {
      "anonymous": false,
      "inputs": [
        {
          "indexed": true,
          "internalType": "address",
          "name": "contractAddress",
          "type": "address"
        },
        {
          "indexed": true,
          "internalType": "address",
          "name": "user",
          "type": "address"
        },
        {
          "indexed": false,
          "internalType": "uint256",
          "name": "rating",
          "type": "uint256"
        }
      ],
      "name": "RatingAdded",
      "type": "event"
    },
    {
      "anonymous": false,
      "inputs": [
        {
          "indexed": true,
          "internalType": "address",
          "name": "contractAddress",
          "type": "address"
        },
        {
          "indexed": true,
          "internalType": "address",
          "name": "user",
          "type": "address"
        }
      ],
      "name": "ReviewAdded",
      "type": "event"
    },
    {
      "inputs": [],
      "name": "MAX_RATING",
      "outputs": [
        {
          "internalType": "uint16",
          "name": "",
          "type": "uint16"
        }
      ],
      "stateMutability": "view",
      "type": "function"
    },
    {
      "inputs": [],
      "name": "RATING_SCALE",
      "outputs": [
        {
          "internalType": "uint16",
          "name": "",
          "type": "uint16"
        }
      ],
      "stateMutability": "view",
      "type": "function"
    },
    {
      "inputs": [
        {
          "internalType": "address",
          "name": "contractAddress",
          "type": "address"
        },
        {
          "internalType": "uint256",
          "name": "rating",
          "type": "uint256"
        }
      ],
      "name": "addRating",
      "outputs": [],
      "stateMutability": "nonpayable",
      "type": "function"
    },
    {
      "inputs": [
        {
          "internalType": "address",
          "name": "contractAddress",
          "type": "address"
        },
        {
          "internalType": "string",
          "name": "reviewDataURI",
          "type": "string"
        },
        {
          "internalType": "uint256",
          "name": "rating",
          "type": "uint256"
        }
      ],
      "name": "addReview",
      "outputs": [],
      "stateMutability": "nonpayable",
      "type": "function"
    },
    {
      "inputs": [
        {
          "internalType": "address",
          "name": "contractAddress",
          "type": "address"
        }
      ],
      "name": "averageRating",
      "outputs": [
        {
          "internalType": "uint256",
          "name": "",
          "type": "uint256"
        }
      ],
      "stateMutability": "view",
      "type": "function"
    },
    {
      "inputs": [
        {
          "internalType": "uint256",
          "name": "count",
          "type": "uint256"
        },
        {
          "internalType": "address",
          "name": "contractAddress",
          "type": "address"
        }
      ],
      "name": "getLastReviews",
      "outputs": [
        {
          "components": [
            {
              "internalType": "uint256",
              "name": "id",
              "type": "uint256"
            },
            {
              "internalType": "string",
              "name": "contentURI",
              "type": "string"
            },
            {
              "internalType": "uint256",
              "name": "rating",
              "type": "uint256"
            },
            {
              "internalType": "uint256",
              "name": "timestamp",
              "type": "uint256"
            },
            {
              "internalType": "address",
              "name": "author",
              "type": "address"
            },
            {
              "internalType": "int32",
              "name": "credibility",
              "type": "int32"
            },
            {
              "internalType": "int32",
              "name": "spamCount",
              "type": "int32"
            }
          ],
          "internalType": "struct Review[]",
          "name": "",
          "type": "tuple[]"
        }
      ],
      "stateMutability": "view",
      "type": "function"
    },
    {
      "inputs": [
        {
          "internalType": "address",
          "name": "contractAddress",
          "type": "address"
        }
      ],
      "name": "getReviews",
      "outputs": [
        {
          "components": [
            {
              "internalType": "uint256",
              "name": "id",
              "type": "uint256"
            },
            {
              "internalType": "string",
              "name": "contentURI",
              "type": "string"
            },
            {
              "internalType": "uint256",
              "name": "rating",
              "type": "uint256"
            },
            {
              "internalType": "uint256",
              "name": "timestamp",
              "type": "uint256"
            },
            {
              "internalType": "address",
              "name": "author",
              "type": "address"
            },
            {
              "internalType": "int32",
              "name": "credibility",
              "type": "int32"
            },
            {
              "internalType": "int32",
              "name": "spamCount",
              "type": "int32"
            }
          ],
          "internalType": "struct Review[]",
          "name": "",
          "type": "tuple[]"
        }
      ],
      "stateMutability": "view",
      "type": "function"
    },
    {
      "inputs": [
        {
          "internalType": "address",
          "name": "contractAddress",
          "type": "address"
        },
        {
          "internalType": "uint256",
          "name": "start",
          "type": "uint256"
        },
        {
          "internalType": "uint256",
          "name": "end",
          "type": "uint256"
        }
      ],
      "name": "getReviewsBetween",
      "outputs": [
        {
          "components": [
            {
              "internalType": "uint256",
              "name": "id",
              "type": "uint256"
            },
            {
              "internalType": "string",
              "name": "contentURI",
              "type": "string"
            },
            {
              "internalType": "uint256",
              "name": "rating",
              "type": "uint256"
            },
            {
              "internalType": "uint256",
              "name": "timestamp",
              "type": "uint256"
            },
            {
              "internalType": "address",
              "name": "author",
              "type": "address"
            },
            {
              "internalType": "int32",
              "name": "credibility",
              "type": "int32"
            },
            {
              "internalType": "int32",
              "name": "spamCount",
              "type": "int32"
            }
          ],
          "internalType": "struct Review[]",
          "name": "",
          "type": "tuple[]"
        }
      ],
      "stateMutability": "view",
      "type": "function"
    },
    {
      "inputs": [
        {
          "internalType": "address",
          "name": "contractAddress",
          "type": "address"
        }
      ],
      "name": "getReviewsWithVotes",
      "outputs": [
        {
          "components": [
            {
              "components": [
                {
                  "internalType": "uint256",
                  "name": "id",
                  "type": "uint256"
                },
                {
                  "internalType": "string",
                  "name": "contentURI",
                  "type": "string"
                },
                {
                  "internalType": "uint256",
                  "name": "rating",
                  "type": "uint256"
                },
                {
                  "internalType": "uint256",
                  "name": "timestamp",
                  "type": "uint256"
                },
                {
                  "internalType": "address",
                  "name": "author",
                  "type": "address"
                },
                {
                  "internalType": "int32",
                  "name": "credibility",
                  "type": "int32"
                },
                {
                  "internalType": "int32",
                  "name": "spamCount",
                  "type": "int32"
                }
              ],
              "internalType": "struct Review",
              "name": "review",
              "type": "tuple"
            },
            {
              "internalType": "int32",
              "name": "myVote",
              "type": "int32"
            }
          ],
          "internalType": "struct ReviewWithVote[]",
          "name": "",
          "type": "tuple[]"
        }
      ],
      "stateMutability": "view",
      "type": "function"
    },
    {
      "inputs": [
        {
          "internalType": "address",
          "name": "contractAddress",
          "type": "address"
        }
      ],
      "name": "myRating",
      "outputs": [
        {
          "internalType": "uint256",
          "name": "",
          "type": "uint256"
        }
      ],
      "stateMutability": "view",
      "type": "function"
    },
    {
      "inputs": [
        {
          "internalType": "address",
          "name": "",
          "type": "address"
        },
        {
          "internalType": "address",
          "name": "",
          "type": "address"
        }
      ],
      "name": "myReviews",
      "outputs": [
        {
          "internalType": "uint256",
          "name": "",
          "type": "uint256"
        }
      ],
      "stateMutability": "view",
      "type": "function"
    },
    {
      "inputs": [
        {
          "internalType": "address",
          "name": "contractAddress",
          "type": "address"
        }
      ],
      "name": "numberOfRatings",
      "outputs": [
        {
          "internalType": "uint256",
          "name": "",
          "type": "uint256"
        }
      ],
      "stateMutability": "view",
      "type": "function"
    },
    {
      "inputs": [],
      "name": "owner",
      "outputs": [
        {
          "internalType": "address",
          "name": "",
          "type": "address"
        }
      ],
      "stateMutability": "view",
      "type": "function"
    },
    {
      "inputs": [
        {
          "internalType": "address",
          "name": "",
          "type": "address"
        }
      ],
      "name": "ratings",
      "outputs": [
        {
          "internalType": "uint256",
          "name": "",
          "type": "uint256"
        }
      ],
      "stateMutability": "view",
      "type": "function"
    },
    {
      "inputs": [
        {
          "internalType": "address",
          "name": "",
          "type": "address"
        }
      ],
      "name": "ratingsCount",
      "outputs": [
        {
          "internalType": "uint256",
          "name": "",
          "type": "uint256"
        }
      ],
      "stateMutability": "view",
      "type": "function"
    },
    {
      "inputs": [],
      "name": "registry",
      "outputs": [
        {
          "internalType": "contract CheddaAddressRegistry",
          "name": "",
          "type": "address"
        }
      ],
      "stateMutability": "view",
      "type": "function"
    },
    {
      "inputs": [],
      "name": "renounceOwnership",
      "outputs": [],
      "stateMutability": "nonpayable",
      "type": "function"
    },
    {
      "inputs": [
        {
          "internalType": "address",
          "name": "",
          "type": "address"
        },
        {
          "internalType": "uint256",
          "name": "",
          "type": "uint256"
        }
      ],
      "name": "reviewVotes",
      "outputs": [
        {
          "internalType": "int32",
          "name": "",
          "type": "int32"
        }
      ],
      "stateMutability": "view",
      "type": "function"
    },
    {
      "inputs": [
        {
          "internalType": "address",
          "name": "",
          "type": "address"
        },
        {
          "internalType": "uint256",
          "name": "",
          "type": "uint256"
        }
      ],
      "name": "reviews",
      "outputs": [
        {
          "internalType": "uint256",
          "name": "id",
          "type": "uint256"
        },
        {
          "internalType": "string",
          "name": "contentURI",
          "type": "string"
        },
        {
          "internalType": "uint256",
          "name": "rating",
          "type": "uint256"
        },
        {
          "internalType": "uint256",
          "name": "timestamp",
          "type": "uint256"
        },
        {
          "internalType": "address",
          "name": "author",
          "type": "address"
        },
        {
          "internalType": "int32",
          "name": "credibility",
          "type": "int32"
        },
        {
          "internalType": "int32",
          "name": "spamCount",
          "type": "int32"
        }
      ],
      "stateMutability": "view",
      "type": "function"
    },
    {
      "inputs": [],
      "name": "reviewsCount",
      "outputs": [
        {
          "internalType": "uint256",
          "name": "",
          "type": "uint256"
        }
      ],
      "stateMutability": "view",
      "type": "function"
    },
    {
      "inputs": [
        {
          "internalType": "address",
          "name": "newOwner",
          "type": "address"
        }
      ],
      "name": "transferOwnership",
      "outputs": [],
      "stateMutability": "nonpayable",
      "type": "function"
    },
    {
      "inputs": [
        {
          "internalType": "address",
          "name": "registryAddress",
          "type": "address"
        }
      ],
      "name": "updateRegistry",
      "outputs": [],
      "stateMutability": "nonpayable",
      "type": "function"
    },
    {
      "inputs": [
        {
          "internalType": "address",
          "name": "",
          "type": "address"
        },
        {
          "internalType": "address",
          "name": "",
          "type": "address"
        }
      ],
      "name": "userRatings",
      "outputs": [
        {
          "internalType": "uint256",
          "name": "",
          "type": "uint256"
        }
      ],
      "stateMutability": "view",
      "type": "function"
    },
    {
      "inputs": [
        {
          "internalType": "address",
          "name": "contractAddress",
          "type": "address"
        },
        {
          "internalType": "uint256",
          "name": "reviewId",
          "type": "uint256"
        },
        {
          "internalType": "int32",
          "name": "vote",
          "type": "int32"
        }
      ],
      "name": "voteOnReview",
      "outputs": [],
      "stateMutability": "nonpayable",
      "type": "function"
    }
  ],
  "bytecode": "0x608060405234801561001057600080fd5b5061001a3361001f565b61006f565b600080546001600160a01b038381166001600160a01b0319831681178455604051919092169283917f8be0079c531659141344cd1fd0a4f28419497f9722a3daafe3b4186f6b6457e09190a35050565b612dc8806200007f6000396000f3fe608060405234801561001057600080fd5b50600436106101585760003560e01c80638da5cb5b116100c3578063db5c19831161007c578063db5c19831461033b578063e7fee98f1461037c578063ea751d8714610385578063f2fde38b146103b0578063f4f98eab146103c3578063f720015f146103d657600080fd5b80638da5cb5b146102a857806394e113ea146102b95780639e01dfbb146102d5578063a12bb37f146102f5578063ba92fb9d14610308578063cab655e41461031b57600080fd5b80636a3517d2116101155780636a3517d2146102095780636db3328f1461022957806370370a811461024f578063715018a61461026257806374b6e5bb1461026a5780637b1039991461027d57600080fd5b80630b8d70a81461015d5780631a5da6c8146101835780632c3ca4061461019857806349c74ad3146101ab5780634ef5a017146101d65780635e007b88146101f6575b600080fd5b61017061016b366004612637565b6103de565b6040519081526020015b60405180910390f35b610196610191366004612637565b610547565b005b6101966101a636600461276a565b6105cd565b6101706101b9366004612676565b600760209081526000928352604080842090915290825290205481565b6101e96101e4366004612637565b610986565b60405161017a9190612a00565b610170610204366004612637565b610c25565b61021c610217366004612637565b610d8b565b60405161017a9190612988565b61023c61023736600461273f565b61110f565b60405161017a9796959493929190612b27565b61019661025d36600461273f565b61120b565b610196611506565b6101e96102783660046127b1565b61153c565b600154610290906001600160a01b031681565b6040516001600160a01b03909116815260200161017a565b6000546001600160a01b0316610290565b6102c26101f481565b60405161ffff909116815260200161017a565b6101706102e3366004612637565b60026020526000908152604090205481565b6101e96103033660046128cd565b611859565b6101966103163660046126ae565b611d3e565b610170610329366004612637565b60036020526000908152604090205481565b61036961034936600461273f565b600860209081526000928352604080842090915290825290205460030b81565b60405160039190910b815260200161017a565b61017060065481565b610170610393366004612676565b600460209081526000928352604080842090915290825290205481565b6101966103be366004612637565b6120d7565b6101706103d1366004612637565b61216f565b6102c2606481565b60008160006001600160a01b0316600160009054906101000a90046001600160a01b03166001600160a01b0316638dbe772a6040518163ffffffff1660e01b815260040160206040518083038186803b15801561043a57600080fd5b505afa15801561044e573d6000803e3d6000fd5b505050506040513d601f19601f82011682018060405250810190610472919061265a565b60405163496bd3df60e01b81526001600160a01b038481166004830152919091169063496bd3df9060240160006040518083038186803b1580156104b557600080fd5b505afa1580156104c9573d6000803e3d6000fd5b505050506040513d6000823e601f3d908101601f191682016040526104f191908101906127e5565b606001516001600160a01b031614156105255760405162461bcd60e51b815260040161051c90612afa565b60405180910390fd5b6001600160a01b03831660009081526003602052604090205491505b50919050565b6000546001600160a01b031633146105715760405162461bcd60e51b815260040161051c90612ac5565b600180546001600160a01b0319166001600160a01b03831617905560408051808201909152601781527f7570646174696e6720726567697374727920746f20257300000000000000000060208201526105ca9082612301565b50565b8260006001600160a01b0316600160009054906101000a90046001600160a01b03166001600160a01b0316638dbe772a6040518163ffffffff1660e01b815260040160206040518083038186803b15801561062757600080fd5b505afa15801561063b573d6000803e3d6000fd5b505050506040513d601f19601f8201168201806040525081019061065f919061265a565b60405163496bd3df60e01b81526001600160a01b038481166004830152919091169063496bd3df9060240160006040518083038186803b1580156106a257600080fd5b505afa1580156106b6573d6000803e3d6000fd5b505050506040513d6000823e601f3d908101601f191682016040526106de91908101906127e5565b606001516001600160a01b031614156107095760405162461bcd60e51b815260040161051c90612afa565b8160030b6001148061071f57508160030b600019145b61075a5760405162461bcd60e51b815260206004820152600c60248201526b496e76616c696420766f746560a01b604482015260640161051c565b336000908152600860209081526040808320868452909152902054600390810b900b156107b95760405162461bcd60e51b815260206004820152600d60248201526c105b1c9958591e481d9bdd1959609a1b604482015260640161051c565b6001600160a01b038416600090815260056020526040812090805b825481101561092557858382815481106107fe57634e487b7160e01b600052603260045260246000fd5b906000526020600020906005020160000154141561091357336001600160a01b031683828154811061084057634e487b7160e01b600052603260045260246000fd5b60009182526020909120600460059092020101546001600160a01b0316141561089c5760405162461bcd60e51b815260206004820152600e60248201526d496e76616c69642072657669657760901b604482015260640161051c565b848382815481106108bd57634e487b7160e01b600052603260045260246000fd5b906000526020600020906005020160040160148282829054906101000a900460030b6108e99190612bfc565b92506101000a81548163ffffffff021916908360030b63ffffffff16021790555060019150610925565b8061091d81612cec565b9150506107d4565b50801561097e573360009081526008602090815260408083208884529091529020805463ffffffff191663ffffffff600387900b9081169190911790915561097e90600114610975576001610978565b60005b3361234a565b505050505050565b60608160006001600160a01b0316600160009054906101000a90046001600160a01b03166001600160a01b0316638dbe772a6040518163ffffffff1660e01b815260040160206040518083038186803b1580156109e257600080fd5b505afa1580156109f6573d6000803e3d6000fd5b505050506040513d601f19601f82011682018060405250810190610a1a919061265a565b60405163496bd3df60e01b81526001600160a01b038481166004830152919091169063496bd3df9060240160006040518083038186803b158015610a5d57600080fd5b505afa158015610a71573d6000803e3d6000fd5b505050506040513d6000823e601f3d908101601f19168201604052610a9991908101906127e5565b606001516001600160a01b03161415610ac45760405162461bcd60e51b815260040161051c90612afa565b6001600160a01b038316600090815260056020908152604080832080548251818502810185019093528083529193909284015b82821015610c1957838290600052602060002090600502016040518060e001604052908160008201548152602001600182018054610b3490612cb7565b80601f0160208091040260200160405190810160405280929190818152602001828054610b6090612cb7565b8015610bad5780601f10610b8257610100808354040283529160200191610bad565b820191906000526020600020905b815481529060010190602001808311610b9057829003601f168201915b5050509183525050600282015460208083019190915260038084015460408401526004909301546001600160a01b0381166060840152600160a01b8104840b840b840b6080840152600160c01b9004830b830b90920b60a0909101529082526001929092019101610af7565b50505050915050919050565b60008160006001600160a01b0316600160009054906101000a90046001600160a01b03166001600160a01b0316638dbe772a6040518163ffffffff1660e01b815260040160206040518083038186803b158015610c8157600080fd5b505afa158015610c95573d6000803e3d6000fd5b505050506040513d601f19601f82011682018060405250810190610cb9919061265a565b60405163496bd3df60e01b81526001600160a01b038481166004830152919091169063496bd3df9060240160006040518083038186803b158015610cfc57600080fd5b505afa158015610d10573d6000803e3d6000fd5b505050506040513d6000823e601f3d908101601f19168201604052610d3891908101906127e5565b606001516001600160a01b03161415610d635760405162461bcd60e51b815260040161051c90612afa565b50506001600160a01b0316600090815260046020908152604080832033845290915290205490565b60608160006001600160a01b0316600160009054906101000a90046001600160a01b03166001600160a01b0316638dbe772a6040518163ffffffff1660e01b815260040160206040518083038186803b158015610de757600080fd5b505afa158015610dfb573d6000803e3d6000fd5b505050506040513d601f19601f82011682018060405250810190610e1f919061265a565b60405163496bd3df60e01b81526001600160a01b038481166004830152919091169063496bd3df9060240160006040518083038186803b158015610e6257600080fd5b505afa158015610e76573d6000803e3d6000fd5b505050506040513d6000823e601f3d908101601f19168201604052610e9e91908101906127e5565b606001516001600160a01b03161415610ec95760405162461bcd60e51b815260040161051c90612afa565b6001600160a01b03831660009081526005602052604081205467ffffffffffffffff811115610f0857634e487b7160e01b600052604160045260246000fd5b604051908082528060200260200182016040528015610f4157816020015b610f2e6124a0565b815260200190600190039081610f265790505b50905060005b8151811015611107576001600160a01b0385166000908152600560205260408120805483908110610f8857634e487b7160e01b600052603260045260246000fd5b906000526020600020906005020190506040518060400160405280826040518060e001604052908160008201548152602001600182018054610fc990612cb7565b80601f0160208091040260200160405190810160405280929190818152602001828054610ff590612cb7565b80156110425780601f1061101757610100808354040283529160200191611042565b820191906000526020600020905b81548152906001019060200180831161102557829003601f168201915b505050918352505060028201546020808301919091526003808401546040808501919091526004909401546001600160a01b0381166060850152600160a01b8104820b820b820b6080850152600160c01b9004810b810b810b60a090930192909252928452336000908152600884528281208754825284529190912054810b900b91015283518490849081106110e857634e487b7160e01b600052603260045260246000fd5b60200260200101819052505080806110ff90612cec565b915050610f47565b509392505050565b6005602052816000526040600020818154811061112b57600080fd5b90600052602060002090600502016000915091505080600001549080600101805461115590612cb7565b80601f016020809104026020016040519081016040528092919081815260200182805461118190612cb7565b80156111ce5780601f106111a3576101008083540402835291602001916111ce565b820191906000526020600020905b8154815290600101906020018083116111b157829003601f168201915b5050506002840154600380860154600490960154949591949193506001600160a01b0382169250600160a01b8204810b91600160c01b9004900b87565b8160006001600160a01b0316600160009054906101000a90046001600160a01b03166001600160a01b0316638dbe772a6040518163ffffffff1660e01b815260040160206040518083038186803b15801561126557600080fd5b505afa158015611279573d6000803e3d6000fd5b505050506040513d601f19601f8201168201806040525081019061129d919061265a565b60405163496bd3df60e01b81526001600160a01b038481166004830152919091169063496bd3df9060240160006040518083038186803b1580156112e057600080fd5b505afa1580156112f4573d6000803e3d6000fd5b505050506040513d6000823e601f3d908101601f1916820160405261131c91908101906127e5565b606001516001600160a01b031614156113475760405162461bcd60e51b815260040161051c90612afa565b6001600160a01b0383166000908152600460209081526040808320338452909152902054156113a85760405162461bcd60e51b815260206004820152600d60248201526c105b1c9958591e481c985d1959609a1b604482015260640161051c565b816113eb5760405162461bcd60e51b81526020600482015260136024820152720526174696e672063616e206e6f74206265203606c1b604482015260640161051c565b6113f6606483612d27565b15801561140557506101f48211155b6114425760405162461bcd60e51b815260206004820152600e60248201526d496e76616c696420726174696e6760901b604482015260640161051c565b6001600160a01b03831660008181526004602090815260408083203384528252808320869055928252600290529081208054849290611482908490612c44565b90915550506001600160a01b03831660009081526003602052604081208054600192906114b0908490612c44565b909155506114c1905060043361234a565b60405182815233906001600160a01b038516907f2b8a6f035e2a31b4fcdef20e9217eff649ead8db9add54b5531cd04043b069d29060200160405180910390a3505050565b6000546001600160a01b031633146115305760405162461bcd60e51b815260040161051c90612ac5565b61153a600061242f565b565b60608360006001600160a01b0316600160009054906101000a90046001600160a01b03166001600160a01b0316638dbe772a6040518163ffffffff1660e01b815260040160206040518083038186803b15801561159857600080fd5b505afa1580156115ac573d6000803e3d6000fd5b505050506040513d601f19601f820116820180604052508101906115d0919061265a565b60405163496bd3df60e01b81526001600160a01b038481166004830152919091169063496bd3df9060240160006040518083038186803b15801561161357600080fd5b505afa158015611627573d6000803e3d6000fd5b505050506040513d6000823e601f3d908101601f1916820160405261164f91908101906127e5565b606001516001600160a01b0316141561167a5760405162461bcd60e51b815260040161051c90612afa565b6001600160a01b038516600090815260056020908152604080832080548251818502810185019093528083529192909190849084015b828210156117d257838290600052602060002090600502016040518060e0016040529081600082015481526020016001820180546116ed90612cb7565b80601f016020809104026020016040519081016040528092919081815260200182805461171990612cb7565b80156117665780601f1061173b57610100808354040283529160200191611766565b820191906000526020600020905b81548152906001019060200180831161174957829003601f168201915b5050509183525050600282015460208083019190915260038084015460408401526004909301546001600160a01b0381166060840152600160a01b8104840b840b840b6080840152600160c01b9004830b830b90920b60a09091015290825260019290920191016116b0565b5050505090506000805b825181101561184d57600083828151811061180757634e487b7160e01b600052603260045260246000fd5b602002602001015190508781606001511180156118275750868160600151105b1561183a578261183681612d07565b9350505b508061184581612cec565b9150506117dc565b50909695505050505050565b60608160006001600160a01b0316600160009054906101000a90046001600160a01b03166001600160a01b0316638dbe772a6040518163ffffffff1660e01b815260040160206040518083038186803b1580156118b557600080fd5b505afa1580156118c9573d6000803e3d6000fd5b505050506040513d601f19601f820116820180604052508101906118ed919061265a565b60405163496bd3df60e01b81526001600160a01b038481166004830152919091169063496bd3df9060240160006040518083038186803b15801561193057600080fd5b505afa158015611944573d6000803e3d6000fd5b505050506040513d6000823e601f3d908101601f1916820160405261196c91908101906127e5565b606001516001600160a01b031614156119975760405162461bcd60e51b815260040161051c90612afa565b6001600160a01b0383166000908152600560205260409020548410611b16576001600160a01b038316600090815260056020908152604080832080548251818502810185019093528083529193909284015b82821015611b0b57838290600052602060002090600502016040518060e001604052908160008201548152602001600182018054611a2690612cb7565b80601f0160208091040260200160405190810160405280929190818152602001828054611a5290612cb7565b8015611a9f5780601f10611a7457610100808354040283529160200191611a9f565b820191906000526020600020905b815481529060010190602001808311611a8257829003601f168201915b5050509183525050600282015460208083019190915260038084015460408401526004909301546001600160a01b0381166060840152600160a01b8104840b840b840b6080840152600160c01b9004830b830b90920b60a09091015290825260019290920191016119e9565b505050509150611d37565b60008467ffffffffffffffff811115611b3f57634e487b7160e01b600052604160045260246000fd5b604051908082528060200260200182016040528015611b7857816020015b611b656124c0565b815260200190600190039081611b5d5790505b506001600160a01b03851660009081526005602052604081205491925080611ba08884612c70565b90505b82811015611d30576001600160a01b0387166000908152600560205260409020805482908110611be357634e487b7160e01b600052603260045260246000fd5b90600052602060002090600502016040518060e001604052908160008201548152602001600182018054611c1690612cb7565b80601f0160208091040260200160405190810160405280929190818152602001828054611c4290612cb7565b8015611c8f5780601f10611c6457610100808354040283529160200191611c8f565b820191906000526020600020905b815481529060010190602001808311611c7257829003601f168201915b50505091835250506002820154602082015260038083015460408301526004909201546001600160a01b0381166060830152600160a01b8104830b830b830b6080830152600160c01b9004820b820b90910b60a0909101528483611cf281612cec565b945081518110611d1257634e487b7160e01b600052603260045260246000fd5b60200260200101819052508080611d2890612cec565b915050611ba3565b5091935050505b5092915050565b8260006001600160a01b0316600160009054906101000a90046001600160a01b03166001600160a01b0316638dbe772a6040518163ffffffff1660e01b815260040160206040518083038186803b158015611d9857600080fd5b505afa158015611dac573d6000803e3d6000fd5b505050506040513d601f19601f82011682018060405250810190611dd0919061265a565b60405163496bd3df60e01b81526001600160a01b038481166004830152919091169063496bd3df9060240160006040518083038186803b158015611e1357600080fd5b505afa158015611e27573d6000803e3d6000fd5b505050506040513d6000823e601f3d908101601f19168201604052611e4f91908101906127e5565b606001516001600160a01b03161415611e7a5760405162461bcd60e51b815260040161051c90612afa565b6001600160a01b038416600090815260076020908152604080832033845290915290205415611ede5760405162461bcd60e51b815260206004820152601060248201526f105b1c9958591e481c995d9a595dd95960821b604482015260640161051c565b60006040518060e00160405280600660008154611efa90612cec565b9190508190558152602001858152602001848152602001428152602001611f1e3390565b6001600160a01b03908116825260006020830181905260409283015290516370370a8160e01b815290871660048201526024810185905290915030906370370a8190604401600060405180830381600087803b158015611f7d57600080fd5b505af1158015611f91573d6000803e3d6000fd5b505050506001600160a01b0385166000908152600560208181526040832080546001808201835591855293829020855194909302909201928355838101518051859493611fe39390850192019061250c565b506040828101516002830155606083015160038084019190915560808401516004909301805460a086015160c090960151830b63ffffffff908116600160c01b0263ffffffff60c01b199790940b16600160a01b026001600160c01b03199091166001600160a01b03958616171794909416179092556006549087166000908152600760205291822090916120753390565b6001600160a01b0316815260208101919091526040016000205561209a60053361234a565b60405133906001600160a01b038716907fd2738371c58caff9b9effcfa003a7fe6a306673247690d9fb3308b08f70ada1590600090a35050505050565b6000546001600160a01b031633146121015760405162461bcd60e51b815260040161051c90612ac5565b6001600160a01b0381166121665760405162461bcd60e51b815260206004820152602660248201527f4f776e61626c653a206e6577206f776e657220697320746865207a65726f206160448201526564647265737360d01b606482015260840161051c565b6105ca8161242f565b60008160006001600160a01b0316600160009054906101000a90046001600160a01b03166001600160a01b0316638dbe772a6040518163ffffffff1660e01b815260040160206040518083038186803b1580156121cb57600080fd5b505afa1580156121df573d6000803e3d6000fd5b505050506040513d601f19601f82011682018060405250810190612203919061265a565b60405163496bd3df60e01b81526001600160a01b038481166004830152919091169063496bd3df9060240160006040518083038186803b15801561224657600080fd5b505afa15801561225a573d6000803e3d6000fd5b505050506040513d6000823e601f3d908101601f1916820160405261228291908101906127e5565b606001516001600160a01b031614156122ad5760405162461bcd60e51b815260040161051c90612afa565b6001600160a01b038316600090815260036020526040902054806122d5576000925050610541565b6001600160a01b0384166000908152600260205260409020546122f9908290612c5c565b949350505050565b6123468282604051602401612317929190612a9b565b60408051601f198184030181529190526020810180516001600160e01b031663319af33360e01b17905261247f565b5050565b600154604080516327b16a2560e21b815290516000926001600160a01b031691639ec5a894916004808301926020929190829003018186803b15801561238f57600080fd5b505afa1580156123a3573d6000803e3d6000fd5b505050506040513d601f19601f820116820180604052508101906123c7919061265a565b604051635ab1ad4160e11b81529091506001600160a01b0382169063b5635a82906123f89086908690600401612a61565b600060405180830381600087803b15801561241257600080fd5b505af1158015612426573d6000803e3d6000fd5b50505050505050565b600080546001600160a01b038381166001600160a01b0319831681178455604051919092169283917f8be0079c531659141344cd1fd0a4f28419497f9722a3daafe3b4186f6b6457e09190a35050565b80516a636f6e736f6c652e6c6f67602083016000808483855afa5050505050565b60405180604001604052806124b36124c0565b8152600060209091015290565b6040518060e001604052806000815260200160608152602001600081526020016000815260200160006001600160a01b03168152602001600060030b8152602001600060030b81525090565b82805461251890612cb7565b90600052602060002090601f01602090048101928261253a5760008555612580565b82601f1061255357805160ff1916838001178555612580565b82800160010185558215612580579182015b82811115612580578251825591602001919060010190612565565b5061258c929150612590565b5090565b5b8082111561258c5760008155600101612591565b80516125b081612d7d565b919050565b805180151581146125b057600080fd5b600082601f8301126125d5578081fd5b81516125e86125e382612bd4565b612ba3565b8181528460208386010111156125fc578283fd5b6122f9826020830160208701612c87565b805161ffff811681146125b057600080fd5b805167ffffffffffffffff811681146125b057600080fd5b600060208284031215612648578081fd5b813561265381612d7d565b9392505050565b60006020828403121561266b578081fd5b815161265381612d7d565b60008060408385031215612688578081fd5b823561269381612d7d565b915060208301356126a381612d7d565b809150509250929050565b6000806000606084860312156126c2578081fd5b83356126cd81612d7d565b9250602084013567ffffffffffffffff8111156126e8578182fd5b8401601f810186136126f8578182fd5b80356127066125e382612bd4565b81815287602083850101111561271a578384fd5b8160208401602083013790810160200192909252509194919350506040919091013590565b60008060408385031215612751578182fd5b823561275c81612d7d565b946020939093013593505050565b60008060006060848603121561277e578283fd5b833561278981612d7d565b9250602084013591506040840135600381900b81146127a6578182fd5b809150509250925092565b6000806000606084860312156127c5578283fd5b83356127d081612d7d565b95602085013595506040909401359392505050565b6000602082840312156127f6578081fd5b815167ffffffffffffffff8082111561280d578283fd5b908301906101008286031215612821578283fd5b612829612b79565b6128328361260d565b8152602083015182811115612845578485fd5b612851878286016125c5565b6020830152506128636040840161261f565b6040820152612874606084016125a5565b606082015260808301518281111561288a578485fd5b612896878286016125c5565b6080830152506128a860a084016125b5565b60a082015260c083015160c082015260e083015160e082015280935050505092915050565b600080604083850312156128df578182fd5b8235915060208301356126a381612d7d565b60008151808452612909816020860160208601612c87565b601f01601f19169290920160200192915050565b805182526000602082015160e0602085015261293c60e08501826128f1565b9050604083015160408501526060830151606085015260018060a01b03608084015116608085015260a083015160030b60a085015260c083015160030b60c08501528091505092915050565b60006020808301818452808551808352604092508286019150828160051b870101848801865b838110156129f257888303603f19018552815180518785526129d28886018261291d565b9189015160030b94890194909452948701949250908601906001016129ae565b509098975050505050505050565b6000602080830181845280855180835260408601915060408160051b8701019250838701855b82811015612a5457603f19888603018452612a4285835161291d565b94509285019290850190600101612a26565b5092979650505050505050565b6040810160088410612a8357634e487b7160e01b600052602160045260246000fd5b9281526001600160a01b039190911660209091015290565b604081526000612aae60408301856128f1565b905060018060a01b03831660208301529392505050565b6020808252818101527f4f776e61626c653a2063616c6c6572206973206e6f7420746865206f776e6572604082015260600190565b60208082526013908201527211185c1c08191bd95cc81b9bdd08195e1a5cdd606a1b604082015260600190565b87815260e060208201526000612b4060e08301896128f1565b60408301979097525060608101949094526001600160a01b03929092166080840152600390810b60a08401520b60c09091015292915050565b604051610100810167ffffffffffffffff81118282101715612b9d57612b9d612d67565b60405290565b604051601f8201601f1916810167ffffffffffffffff81118282101715612bcc57612bcc612d67565b604052919050565b600067ffffffffffffffff821115612bee57612bee612d67565b50601f01601f191660200190565b60008160030b8360030b82821282637fffffff03821381151615612c2257612c22612d3b565b82637fffffff19038212811615612c3b57612c3b612d3b565b50019392505050565b60008219821115612c5757612c57612d3b565b500190565b600082612c6b57612c6b612d51565b500490565b600082821015612c8257612c82612d3b565b500390565b60005b83811015612ca2578181015183820152602001612c8a565b83811115612cb1576000848401525b50505050565b600181811c90821680612ccb57607f821691505b6020821081141561054157634e487b7160e01b600052602260045260246000fd5b6000600019821415612d0057612d00612d3b565b5060010190565b600060ff821660ff811415612d1e57612d1e612d3b565b60010192915050565b600082612d3657612d36612d51565b500690565b634e487b7160e01b600052601160045260246000fd5b634e487b7160e01b600052601260045260246000fd5b634e487b7160e01b600052604160045260246000fd5b6001600160a01b03811681146105ca57600080fdfea26469706673582212207cc23ad7993936f386709527ed15cc3de9eff7763bba0c54e3eeccb0b22ffe2e64736f6c63430008040033",
  "linkReferences": {},
  "deployedLinkReferences": {}
}