{
  "_format": "hh-sol-artifact-1",
  "contractName": "DappMetrics",
  "sourceName": "contracts/dappstore/DappMetrics.sol",
  "abi": [
    {
      "inputs": [
        {
          "internalType": "contract IStore",
          "name": "store",
          "type": "address"
        }
      ],
      "stateMutability": "nonpayable",
      "type": "constructor"
    },
    {
      "inputs": [],
      "name": "MAX_RATING",
      "outputs": [
        {
          "internalType": "uint16",
          "name": "",
          "type": "uint16"
        }
      ],
      "stateMutability": "view",
      "type": "function"
    },
    {
      "inputs": [],
      "name": "RATING_SCALE",
      "outputs": [
        {
          "internalType": "uint16",
          "name": "",
          "type": "uint16"
        }
      ],
      "stateMutability": "view",
      "type": "function"
    },
    {
      "inputs": [
        {
          "internalType": "address",
          "name": "contractAddress",
          "type": "address"
        },
        {
          "internalType": "uint256",
          "name": "rating",
          "type": "uint256"
        }
      ],
      "name": "addRating",
      "outputs": [],
      "stateMutability": "nonpayable",
      "type": "function"
    },
    {
      "inputs": [
        {
          "internalType": "address",
          "name": "contractAddress",
          "type": "address"
        },
        {
          "internalType": "string",
          "name": "reviewDataURI",
          "type": "string"
        },
        {
          "internalType": "uint256",
          "name": "rating",
          "type": "uint256"
        }
      ],
      "name": "addReview",
      "outputs": [],
      "stateMutability": "nonpayable",
      "type": "function"
    },
    {
      "inputs": [
        {
          "internalType": "address",
          "name": "contractAddress",
          "type": "address"
        }
      ],
      "name": "averageRating",
      "outputs": [
        {
          "internalType": "uint256",
          "name": "",
          "type": "uint256"
        }
      ],
      "stateMutability": "view",
      "type": "function"
    },
    {
      "inputs": [
        {
          "internalType": "address",
          "name": "contractAddress",
          "type": "address"
        }
      ],
      "name": "getReviews",
      "outputs": [
        {
          "components": [
            {
              "internalType": "address",
              "name": "contractAddress",
              "type": "address"
            },
            {
              "internalType": "string",
              "name": "reviewURI",
              "type": "string"
            },
            {
              "internalType": "uint256",
              "name": "rating",
              "type": "uint256"
            },
            {
              "internalType": "uint256",
              "name": "timestamp",
              "type": "uint256"
            },
            {
              "internalType": "address",
              "name": "author",
              "type": "address"
            }
          ],
          "internalType": "struct Review[]",
          "name": "",
          "type": "tuple[]"
        }
      ],
      "stateMutability": "view",
      "type": "function"
    },
    {
      "inputs": [
        {
          "internalType": "address",
          "name": "contractAddress",
          "type": "address"
        },
        {
          "internalType": "uint256",
          "name": "start",
          "type": "uint256"
        },
        {
          "internalType": "uint256",
          "name": "end",
          "type": "uint256"
        }
      ],
      "name": "getReviewsBetween",
      "outputs": [
        {
          "components": [
            {
              "internalType": "address",
              "name": "contractAddress",
              "type": "address"
            },
            {
              "internalType": "string",
              "name": "reviewURI",
              "type": "string"
            },
            {
              "internalType": "uint256",
              "name": "rating",
              "type": "uint256"
            },
            {
              "internalType": "uint256",
              "name": "timestamp",
              "type": "uint256"
            },
            {
              "internalType": "address",
              "name": "author",
              "type": "address"
            }
          ],
          "internalType": "struct Review[]",
          "name": "",
          "type": "tuple[]"
        }
      ],
      "stateMutability": "view",
      "type": "function"
    },
    {
      "inputs": [
        {
          "internalType": "address",
          "name": "contractAddress",
          "type": "address"
        }
      ],
      "name": "myRating",
      "outputs": [
        {
          "internalType": "uint256",
          "name": "",
          "type": "uint256"
        }
      ],
      "stateMutability": "view",
      "type": "function"
    },
    {
      "inputs": [
        {
          "internalType": "address",
          "name": "",
          "type": "address"
        },
        {
          "internalType": "address",
          "name": "",
          "type": "address"
        }
      ],
      "name": "myReviews",
      "outputs": [
        {
          "internalType": "uint256",
          "name": "",
          "type": "uint256"
        }
      ],
      "stateMutability": "view",
      "type": "function"
    },
    {
      "inputs": [
        {
          "internalType": "address",
          "name": "",
          "type": "address"
        }
      ],
      "name": "numberOfRatings",
      "outputs": [
        {
          "internalType": "uint256",
          "name": "",
          "type": "uint256"
        }
      ],
      "stateMutability": "view",
      "type": "function"
    },
    {
      "inputs": [
        {
          "internalType": "address",
          "name": "",
          "type": "address"
        }
      ],
      "name": "ratings",
      "outputs": [
        {
          "internalType": "uint256",
          "name": "",
          "type": "uint256"
        }
      ],
      "stateMutability": "view",
      "type": "function"
    },
    {
      "inputs": [
        {
          "internalType": "address",
          "name": "",
          "type": "address"
        },
        {
          "internalType": "uint256",
          "name": "",
          "type": "uint256"
        }
      ],
      "name": "reviews",
      "outputs": [
        {
          "internalType": "address",
          "name": "contractAddress",
          "type": "address"
        },
        {
          "internalType": "string",
          "name": "reviewURI",
          "type": "string"
        },
        {
          "internalType": "uint256",
          "name": "rating",
          "type": "uint256"
        },
        {
          "internalType": "uint256",
          "name": "timestamp",
          "type": "uint256"
        },
        {
          "internalType": "address",
          "name": "author",
          "type": "address"
        }
      ],
      "stateMutability": "view",
      "type": "function"
    },
    {
      "inputs": [
        {
          "internalType": "address",
          "name": "",
          "type": "address"
        },
        {
          "internalType": "address",
          "name": "",
          "type": "address"
        }
      ],
      "name": "userRatings",
      "outputs": [
        {
          "internalType": "uint256",
          "name": "",
          "type": "uint256"
        }
      ],
      "stateMutability": "view",
      "type": "function"
    }
  ],
  "bytecode": "0x60806040523480156200001157600080fd5b50604051620023d8380380620023d8833981810160405281019062000037919062000095565b806000806101000a81548173ffffffffffffffffffffffffffffffffffffffff021916908373ffffffffffffffffffffffffffffffffffffffff1602179055505062000123565b6000815190506200008f8162000109565b92915050565b600060208284031215620000a857600080fd5b6000620000b8848285016200007e565b91505092915050565b6000620000ce82620000e9565b9050919050565b6000620000e282620000c1565b9050919050565b600073ffffffffffffffffffffffffffffffffffffffff82169050919050565b6200011481620000d5565b81146200012057600080fd5b50565b6122a580620001336000396000f3fe608060405234801561001057600080fd5b50600436106100cf5760003560e01c806374b6e5bb1161008c578063ba92fb9d11610066578063ba92fb9d14610262578063ea751d871461027e578063f4f98eab146102ae578063f720015f146102de576100cf565b806374b6e5bb146101e457806394e113ea146102145780639e01dfbb14610232576100cf565b80630b8d70a8146100d457806349c74ad3146101045780634ef5a017146101345780635e007b88146101645780636db3328f1461019457806370370a81146101c8575b600080fd5b6100ee60048036038101906100e99190611869565b6102fc565b6040516100fb9190611da4565b60405180910390f35b61011e60048036038101906101199190611892565b610314565b60405161012b9190611da4565b60405180910390f35b61014e60048036038101906101499190611869565b610339565b60405161015b9190611ce7565b60405180910390f35b61017e60048036038101906101799190611869565b61064c565b60405161018b9190611da4565b60405180910390f35b6101ae60048036038101906101a99190611935565b6107f5565b6040516101bf959493929190611c64565b60405180910390f35b6101e260048036038101906101dd9190611935565b610910565b005b6101fe60048036038101906101f99190611971565b610ccd565b60405161020b9190611ce7565b60405180910390f35b61021c61107a565b6040516102299190611d89565b60405180910390f35b61024c60048036038101906102479190611869565b611080565b6040516102599190611da4565b60405180910390f35b61027c600480360381019061027791906118ce565b611098565b005b61029860048036038101906102939190611892565b6113af565b6040516102a59190611da4565b60405180910390f35b6102c860048036038101906102c39190611869565b6113d4565b6040516102d59190611da4565b60405180910390f35b6102e66115a4565b6040516102f39190611d89565b60405180910390f35b60056020528060005260406000206000915090505481565b6004602052816000526040600020602052806000526040600020600091509150505481565b606081600073ffffffffffffffffffffffffffffffffffffffff1660008054906101000a900473ffffffffffffffffffffffffffffffffffffffff1673ffffffffffffffffffffffffffffffffffffffff1663496bd3df836040518263ffffffff1660e01b81526004016103ad9190611c49565b60006040518083038186803b1580156103c557600080fd5b505afa1580156103d9573d6000803e3d6000fd5b505050506040513d6000823e3d601f19601f8201168201806040525081019061040291906119c0565b6080015173ffffffffffffffffffffffffffffffffffffffff16141561045d576040517f08c379a000000000000000000000000000000000000000000000000000000000815260040161045490611d29565b60405180910390fd5b600360008473ffffffffffffffffffffffffffffffffffffffff1673ffffffffffffffffffffffffffffffffffffffff168152602001908152602001600020805480602002602001604051908101604052809291908181526020016000905b8282101561064057838290600052602060002090600502016040518060a00160405290816000820160009054906101000a900473ffffffffffffffffffffffffffffffffffffffff1673ffffffffffffffffffffffffffffffffffffffff1673ffffffffffffffffffffffffffffffffffffffff16815260200160018201805461054590611f9b565b80601f016020809104026020016040519081016040528092919081815260200182805461057190611f9b565b80156105be5780601f10610593576101008083540402835291602001916105be565b820191906000526020600020905b8154815290600101906020018083116105a157829003601f168201915b5050505050815260200160028201548152602001600382015481526020016004820160009054906101000a900473ffffffffffffffffffffffffffffffffffffffff1673ffffffffffffffffffffffffffffffffffffffff1673ffffffffffffffffffffffffffffffffffffffff1681525050815260200190600101906104bc565b50505050915050919050565b600081600073ffffffffffffffffffffffffffffffffffffffff1660008054906101000a900473ffffffffffffffffffffffffffffffffffffffff1673ffffffffffffffffffffffffffffffffffffffff1663496bd3df836040518263ffffffff1660e01b81526004016106c09190611c49565b60006040518083038186803b1580156106d857600080fd5b505afa1580156106ec573d6000803e3d6000fd5b505050506040513d6000823e3d601f19601f8201168201806040525081019061071591906119c0565b6080015173ffffffffffffffffffffffffffffffffffffffff161415610770576040517f08c379a000000000000000000000000000000000000000000000000000000000815260040161076790611d29565b60405180910390fd5b600260008473ffffffffffffffffffffffffffffffffffffffff1673ffffffffffffffffffffffffffffffffffffffff16815260200190815260200160002060003373ffffffffffffffffffffffffffffffffffffffff1673ffffffffffffffffffffffffffffffffffffffff16815260200190815260200160002054915050919050565b6003602052816000526040600020818154811061081157600080fd5b9060005260206000209060050201600091509150508060000160009054906101000a900473ffffffffffffffffffffffffffffffffffffffff169080600101805461085b90611f9b565b80601f016020809104026020016040519081016040528092919081815260200182805461088790611f9b565b80156108d45780601f106108a9576101008083540402835291602001916108d4565b820191906000526020600020905b8154815290600101906020018083116108b757829003601f168201915b5050505050908060020154908060030154908060040160009054906101000a900473ffffffffffffffffffffffffffffffffffffffff16905085565b81600073ffffffffffffffffffffffffffffffffffffffff1660008054906101000a900473ffffffffffffffffffffffffffffffffffffffff1673ffffffffffffffffffffffffffffffffffffffff1663496bd3df836040518263ffffffff1660e01b81526004016109829190611c49565b60006040518083038186803b15801561099a57600080fd5b505afa1580156109ae573d6000803e3d6000fd5b505050506040513d6000823e3d601f19601f820116820180604052508101906109d791906119c0565b6080015173ffffffffffffffffffffffffffffffffffffffff161415610a32576040517f08c379a0000000000000000000000000000000000000000000000000000000008152600401610a2990611d29565b60405180910390fd5b6000600260008573ffffffffffffffffffffffffffffffffffffffff1673ffffffffffffffffffffffffffffffffffffffff16815260200190815260200160002060003373ffffffffffffffffffffffffffffffffffffffff1673ffffffffffffffffffffffffffffffffffffffff1681526020019081526020016000205414610af1576040517f08c379a0000000000000000000000000000000000000000000000000000000008152600401610ae890611d49565b60405180910390fd5b6000821415610b35576040517f08c379a0000000000000000000000000000000000000000000000000000000008152600401610b2c90611d09565b60405180910390fd5b6000606461ffff1683610b489190612071565b148015610b5b57506101f461ffff168211155b610b9a576040517f08c379a0000000000000000000000000000000000000000000000000000000008152600401610b9190611d69565b60405180910390fd5b81600260008573ffffffffffffffffffffffffffffffffffffffff1673ffffffffffffffffffffffffffffffffffffffff16815260200190815260200160002060003373ffffffffffffffffffffffffffffffffffffffff1673ffffffffffffffffffffffffffffffffffffffff1681526020019081526020016000208190555081600160008573ffffffffffffffffffffffffffffffffffffffff1673ffffffffffffffffffffffffffffffffffffffff1681526020019081526020016000206000828254610c6a9190611e7b565b925050819055506001600560008573ffffffffffffffffffffffffffffffffffffffff1673ffffffffffffffffffffffffffffffffffffffff1681526020019081526020016000206000828254610cc19190611e7b565b92505081905550505050565b606083600073ffffffffffffffffffffffffffffffffffffffff1660008054906101000a900473ffffffffffffffffffffffffffffffffffffffff1673ffffffffffffffffffffffffffffffffffffffff1663496bd3df836040518263ffffffff1660e01b8152600401610d419190611c49565b60006040518083038186803b158015610d5957600080fd5b505afa158015610d6d573d6000803e3d6000fd5b505050506040513d6000823e3d601f19601f82011682018060405250810190610d9691906119c0565b6080015173ffffffffffffffffffffffffffffffffffffffff161415610df1576040517f08c379a0000000000000000000000000000000000000000000000000000000008152600401610de890611d29565b60405180910390fd5b6000600360008773ffffffffffffffffffffffffffffffffffffffff1673ffffffffffffffffffffffffffffffffffffffff168152602001908152602001600020805480602002602001604051908101604052809291908181526020016000905b82821015610fd657838290600052602060002090600502016040518060a00160405290816000820160009054906101000a900473ffffffffffffffffffffffffffffffffffffffff1673ffffffffffffffffffffffffffffffffffffffff1673ffffffffffffffffffffffffffffffffffffffff168152602001600182018054610edb90611f9b565b80601f0160208091040260200160405190810160405280929190818152602001828054610f0790611f9b565b8015610f545780601f10610f2957610100808354040283529160200191610f54565b820191906000526020600020905b815481529060010190602001808311610f3757829003601f168201915b5050505050815260200160028201548152602001600382015481526020016004820160009054906101000a900473ffffffffffffffffffffffffffffffffffffffff1673ffffffffffffffffffffffffffffffffffffffff1673ffffffffffffffffffffffffffffffffffffffff168152505081526020019060010190610e52565b5050505090506000805b825181101561106c576000838281518110611024577f4e487b7100000000000000000000000000000000000000000000000000000000600052603260045260246000fd5b602002602001015190508781606001511180156110445750868160600151105b1561105857828061105490612047565b9350505b50808061106490611ffe565b915050610fe0565b508193505050509392505050565b6101f481565b60016020528060005260406000206000915090505481565b82600073ffffffffffffffffffffffffffffffffffffffff1660008054906101000a900473ffffffffffffffffffffffffffffffffffffffff1673ffffffffffffffffffffffffffffffffffffffff1663496bd3df836040518263ffffffff1660e01b815260040161110a9190611c49565b60006040518083038186803b15801561112257600080fd5b505afa158015611136573d6000803e3d6000fd5b505050506040513d6000823e3d601f19601f8201168201806040525081019061115f91906119c0565b6080015173ffffffffffffffffffffffffffffffffffffffff1614156111ba576040517f08c379a00000000000000000000000000000000000000000000000000000000081526004016111b190611d29565b60405180910390fd5b60006040518060a001604052808673ffffffffffffffffffffffffffffffffffffffff1681526020018581526020018481526020014281526020013373ffffffffffffffffffffffffffffffffffffffff1681525090503073ffffffffffffffffffffffffffffffffffffffff166370370a8186856040518363ffffffff1660e01b815260040161124c929190611cbe565b600060405180830381600087803b15801561126657600080fd5b505af115801561127a573d6000803e3d6000fd5b50505050600360008673ffffffffffffffffffffffffffffffffffffffff1673ffffffffffffffffffffffffffffffffffffffff16815260200190815260200160002081908060018154018082558091505060019003906000526020600020906005020160009091909190915060008201518160000160006101000a81548173ffffffffffffffffffffffffffffffffffffffff021916908373ffffffffffffffffffffffffffffffffffffffff160217905550602082015181600101908051906020019061134a9291906115a9565b50604082015181600201556060820151816003015560808201518160040160006101000a81548173ffffffffffffffffffffffffffffffffffffffff021916908373ffffffffffffffffffffffffffffffffffffffff16021790555050505050505050565b6002602052816000526040600020602052806000526040600020600091509150505481565b600081600073ffffffffffffffffffffffffffffffffffffffff1660008054906101000a900473ffffffffffffffffffffffffffffffffffffffff1673ffffffffffffffffffffffffffffffffffffffff1663496bd3df836040518263ffffffff1660e01b81526004016114489190611c49565b60006040518083038186803b15801561146057600080fd5b505afa158015611474573d6000803e3d6000fd5b505050506040513d6000823e3d601f19601f8201168201806040525081019061149d91906119c0565b6080015173ffffffffffffffffffffffffffffffffffffffff1614156114f8576040517f08c379a00000000000000000000000000000000000000000000000000000000081526004016114ef90611d29565b60405180910390fd5b6000600560008573ffffffffffffffffffffffffffffffffffffffff1673ffffffffffffffffffffffffffffffffffffffff168152602001908152602001600020549050600081141561154f57600092505061159e565b80600160008673ffffffffffffffffffffffffffffffffffffffff1673ffffffffffffffffffffffffffffffffffffffff1681526020019081526020016000205461159a9190611ed1565b9250505b50919050565b606481565b8280546115b590611f9b565b90600052602060002090601f0160209004810192826115d7576000855561161e565b82601f106115f057805160ff191683800117855561161e565b8280016001018555821561161e579182015b8281111561161d578251825591602001919060010190611602565b5b50905061162b919061162f565b5090565b5b80821115611648576000816000905550600101611630565b5090565b600061165f61165a84611de4565b611dbf565b90508281526020810184848401111561167757600080fd5b611682848285611f59565b509392505050565b600061169d61169884611de4565b611dbf565b9050828152602081018484840111156116b557600080fd5b6116c0848285611f68565b509392505050565b6000813590506116d781612213565b92915050565b6000815190506116ec81612213565b92915050565b600082601f83011261170357600080fd5b813561171384826020860161164c565b91505092915050565b600082601f83011261172d57600080fd5b815161173d84826020860161168a565b91505092915050565b600060c0828403121561175857600080fd5b61176260c0611dbf565b905060006117728482850161182a565b600083015250602082015167ffffffffffffffff81111561179257600080fd5b61179e8482850161171c565b602083015250604082015167ffffffffffffffff8111156117be57600080fd5b6117ca8482850161171c565b60408301525060606117de84828501611854565b60608301525060806117f2848285016116dd565b60808301525060a082015167ffffffffffffffff81111561181257600080fd5b61181e8482850161171c565b60a08301525092915050565b6000815190506118398161222a565b92915050565b60008135905061184e81612241565b92915050565b60008151905061186381612258565b92915050565b60006020828403121561187b57600080fd5b6000611889848285016116c8565b91505092915050565b600080604083850312156118a557600080fd5b60006118b3858286016116c8565b92505060206118c4858286016116c8565b9150509250929050565b6000806000606084860312156118e357600080fd5b60006118f1868287016116c8565b935050602084013567ffffffffffffffff81111561190e57600080fd5b61191a868287016116f2565b925050604061192b8682870161183f565b9150509250925092565b6000806040838503121561194857600080fd5b6000611956858286016116c8565b92505060206119678582860161183f565b9150509250929050565b60008060006060848603121561198657600080fd5b6000611994868287016116c8565b93505060206119a58682870161183f565b92505060406119b68682870161183f565b9150509250925092565b6000602082840312156119d257600080fd5b600082015167ffffffffffffffff8111156119ec57600080fd5b6119f884828501611746565b91505092915050565b6000611a0d8383611ba6565b905092915050565b611a1e81611f02565b82525050565b611a2d81611f02565b82525050565b6000611a3e82611e25565b611a488185611e48565b935083602082028501611a5a85611e15565b8060005b85811015611a965784840389528151611a778582611a01565b9450611a8283611e3b565b925060208a01995050600181019050611a5e565b50829750879550505050505092915050565b6000611ab382611e30565b611abd8185611e59565b9350611acd818560208601611f68565b611ad68161215e565b840191505092915050565b6000611aec82611e30565b611af68185611e6a565b9350611b06818560208601611f68565b611b0f8161215e565b840191505092915050565b6000611b27601383611e6a565b9150611b328261216f565b602082019050919050565b6000611b4a601383611e6a565b9150611b5582612198565b602082019050919050565b6000611b6d600d83611e6a565b9150611b78826121c1565b602082019050919050565b6000611b90600e83611e6a565b9150611b9b826121ea565b602082019050919050565b600060a083016000830151611bbe6000860182611a15565b5060208301518482036020860152611bd68282611aa8565b9150506040830151611beb6040860182611c2b565b506060830151611bfe6060860182611c2b565b506080830151611c116080860182611a15565b508091505092915050565b611c2581611f14565b82525050565b611c3481611f42565b82525050565b611c4381611f42565b82525050565b6000602082019050611c5e6000830184611a24565b92915050565b600060a082019050611c796000830188611a24565b8181036020830152611c8b8187611ae1565b9050611c9a6040830186611c3a565b611ca76060830185611c3a565b611cb46080830184611a24565b9695505050505050565b6000604082019050611cd36000830185611a24565b611ce06020830184611c3a565b9392505050565b60006020820190508181036000830152611d018184611a33565b905092915050565b60006020820190508181036000830152611d2281611b1a565b9050919050565b60006020820190508181036000830152611d4281611b3d565b9050919050565b60006020820190508181036000830152611d6281611b60565b9050919050565b60006020820190508181036000830152611d8281611b83565b9050919050565b6000602082019050611d9e6000830184611c1c565b92915050565b6000602082019050611db96000830184611c3a565b92915050565b6000611dc9611dda565b9050611dd58282611fcd565b919050565b6000604051905090565b600067ffffffffffffffff821115611dff57611dfe61212f565b5b611e088261215e565b9050602081019050919050565b6000819050602082019050919050565b600081519050919050565b600081519050919050565b6000602082019050919050565b600082825260208201905092915050565b600082825260208201905092915050565b600082825260208201905092915050565b6000611e8682611f42565b9150611e9183611f42565b9250827fffffffffffffffffffffffffffffffffffffffffffffffffffffffffffffffff03821115611ec657611ec56120a2565b5b828201905092915050565b6000611edc82611f42565b9150611ee783611f42565b925082611ef757611ef66120d1565b5b828204905092915050565b6000611f0d82611f22565b9050919050565b600061ffff82169050919050565b600073ffffffffffffffffffffffffffffffffffffffff82169050919050565b6000819050919050565b600060ff82169050919050565b82818337600083830152505050565b60005b83811015611f86578082015181840152602081019050611f6b565b83811115611f95576000848401525b50505050565b60006002820490506001821680611fb357607f821691505b60208210811415611fc757611fc6612100565b5b50919050565b611fd68261215e565b810181811067ffffffffffffffff82111715611ff557611ff461212f565b5b80604052505050565b600061200982611f42565b91507fffffffffffffffffffffffffffffffffffffffffffffffffffffffffffffffff82141561203c5761203b6120a2565b5b600182019050919050565b600061205282611f4c565b915060ff821415612066576120656120a2565b5b600182019050919050565b600061207c82611f42565b915061208783611f42565b925082612097576120966120d1565b5b828206905092915050565b7f4e487b7100000000000000000000000000000000000000000000000000000000600052601160045260246000fd5b7f4e487b7100000000000000000000000000000000000000000000000000000000600052601260045260246000fd5b7f4e487b7100000000000000000000000000000000000000000000000000000000600052602260045260246000fd5b7f4e487b7100000000000000000000000000000000000000000000000000000000600052604160045260246000fd5b6000601f19601f8301169050919050565b7f526174696e672063616e206e6f74206265203000000000000000000000000000600082015250565b7f4461707020646f6573206e6f7420657869737400000000000000000000000000600082015250565b7f416c726561647920726174656400000000000000000000000000000000000000600082015250565b7f496e76616c696420726174696e67000000000000000000000000000000000000600082015250565b61221c81611f02565b811461222757600080fd5b50565b61223381611f14565b811461223e57600080fd5b50565b61224a81611f42565b811461225557600080fd5b50565b61226181611f4c565b811461226c57600080fd5b5056fea2646970667358221220eff43064c00fdfeb13b808633fcc44f5f15872982072896df77232588820f49564736f6c63430008040033",
  "linkReferences": {},
  "deployedLinkReferences": {}
}