{
  "_format": "hh-sol-artifact-1",
  "contractName": "GaugeController",
  "sourceName": "contracts/gauges/GaugeController.sol",
  "abi": [
    {
      "anonymous": false,
      "inputs": [
        {
          "indexed": false,
          "internalType": "uint256",
          "name": "start",
          "type": "uint256"
        },
        {
          "indexed": false,
          "internalType": "uint256",
          "name": "end",
          "type": "uint256"
        },
        {
          "indexed": true,
          "internalType": "address",
          "name": "reaper",
          "type": "address"
        }
      ],
      "name": "EpochCreated",
      "type": "event"
    },
    {
      "anonymous": false,
      "inputs": [
        {
          "indexed": true,
          "internalType": "address",
          "name": "by",
          "type": "address"
        },
        {
          "indexed": false,
          "internalType": "uint256",
          "name": "startTime",
          "type": "uint256"
        }
      ],
      "name": "GaugeCreated",
      "type": "event"
    },
    {
      "anonymous": false,
      "inputs": [
        {
          "indexed": true,
          "internalType": "address",
          "name": "by",
          "type": "address"
        },
        {
          "indexed": false,
          "internalType": "uint256",
          "name": "startTime",
          "type": "uint256"
        }
      ],
      "name": "GenesisCreated",
      "type": "event"
    },
    {
      "anonymous": false,
      "inputs": [
        {
          "indexed": true,
          "internalType": "address",
          "name": "previousOwner",
          "type": "address"
        },
        {
          "indexed": true,
          "internalType": "address",
          "name": "newOwner",
          "type": "address"
        }
      ],
      "name": "OwnershipTransferred",
      "type": "event"
    },
    {
      "anonymous": false,
      "inputs": [
        {
          "indexed": true,
          "internalType": "address",
          "name": "tokenAddress",
          "type": "address"
        },
        {
          "indexed": true,
          "internalType": "address",
          "name": "by",
          "type": "address"
        }
      ],
      "name": "RewardsTokenSet",
      "type": "event"
    },
    {
      "anonymous": false,
      "inputs": [
        {
          "indexed": true,
          "internalType": "address",
          "name": "tokenAddress",
          "type": "address"
        },
        {
          "indexed": true,
          "internalType": "address",
          "name": "by",
          "type": "address"
        }
      ],
      "name": "VeTokenSet",
      "type": "event"
    },
    {
      "anonymous": false,
      "inputs": [
        {
          "indexed": true,
          "internalType": "address",
          "name": "account",
          "type": "address"
        },
        {
          "indexed": true,
          "internalType": "address",
          "name": "gauge",
          "type": "address"
        },
        {
          "indexed": false,
          "internalType": "uint256",
          "name": "votes",
          "type": "uint256"
        }
      ],
      "name": "Voted",
      "type": "event"
    },
    {
      "inputs": [],
      "name": "EPOCH_LENGTH",
      "outputs": [
        {
          "internalType": "uint256",
          "name": "",
          "type": "uint256"
        }
      ],
      "stateMutability": "view",
      "type": "function"
    },
    {
      "inputs": [],
      "name": "REAPER_FEE",
      "outputs": [
        {
          "internalType": "uint256",
          "name": "",
          "type": "uint256"
        }
      ],
      "stateMutability": "view",
      "type": "function"
    },
    {
      "inputs": [],
      "name": "allGaugeVotes",
      "outputs": [
        {
          "components": [
            {
              "internalType": "address",
              "name": "gauge",
              "type": "address"
            },
            {
              "internalType": "uint256",
              "name": "votes",
              "type": "uint256"
            }
          ],
          "internalType": "struct GaugeController.GaugeVotes[]",
          "name": "",
          "type": "tuple[]"
        }
      ],
      "stateMutability": "view",
      "type": "function"
    },
    {
      "inputs": [],
      "name": "allGauges",
      "outputs": [
        {
          "internalType": "address[]",
          "name": "g",
          "type": "address[]"
        }
      ],
      "stateMutability": "view",
      "type": "function"
    },
    {
      "inputs": [],
      "name": "createGauge",
      "outputs": [],
      "stateMutability": "nonpayable",
      "type": "function"
    },
    {
      "inputs": [
        {
          "internalType": "uint256",
          "name": "startTime",
          "type": "uint256"
        }
      ],
      "name": "createGenesisEpoch",
      "outputs": [],
      "stateMutability": "nonpayable",
      "type": "function"
    },
    {
      "inputs": [],
      "name": "currentEpochTotalVotes",
      "outputs": [
        {
          "internalType": "uint256",
          "name": "",
          "type": "uint256"
        }
      ],
      "stateMutability": "view",
      "type": "function"
    },
    {
      "inputs": [],
      "name": "epochNumber",
      "outputs": [
        {
          "internalType": "uint256",
          "name": "number",
          "type": "uint256"
        }
      ],
      "stateMutability": "view",
      "type": "function"
    },
    {
      "inputs": [
        {
          "internalType": "address",
          "name": "",
          "type": "address"
        }
      ],
      "name": "gaugeVotes",
      "outputs": [
        {
          "internalType": "uint256",
          "name": "",
          "type": "uint256"
        }
      ],
      "stateMutability": "view",
      "type": "function"
    },
    {
      "inputs": [
        {
          "internalType": "uint256",
          "name": "",
          "type": "uint256"
        }
      ],
      "name": "gauges",
      "outputs": [
        {
          "internalType": "address",
          "name": "",
          "type": "address"
        }
      ],
      "stateMutability": "view",
      "type": "function"
    },
    {
      "inputs": [
        {
          "internalType": "uint256",
          "name": "",
          "type": "uint256"
        },
        {
          "internalType": "address",
          "name": "",
          "type": "address"
        }
      ],
      "name": "hasVoted",
      "outputs": [
        {
          "internalType": "bool",
          "name": "",
          "type": "bool"
        }
      ],
      "stateMutability": "view",
      "type": "function"
    },
    {
      "inputs": [],
      "name": "numberOfGauges",
      "outputs": [
        {
          "internalType": "uint256",
          "name": "n",
          "type": "uint256"
        }
      ],
      "stateMutability": "view",
      "type": "function"
    },
    {
      "inputs": [],
      "name": "owner",
      "outputs": [
        {
          "internalType": "address",
          "name": "",
          "type": "address"
        }
      ],
      "stateMutability": "view",
      "type": "function"
    },
    {
      "inputs": [
        {
          "internalType": "address",
          "name": "reaper",
          "type": "address"
        }
      ],
      "name": "rebalance",
      "outputs": [],
      "stateMutability": "nonpayable",
      "type": "function"
    },
    {
      "inputs": [],
      "name": "renounceOwnership",
      "outputs": [],
      "stateMutability": "nonpayable",
      "type": "function"
    },
    {
      "inputs": [
        {
          "internalType": "uint256",
          "name": "",
          "type": "uint256"
        },
        {
          "internalType": "address",
          "name": "",
          "type": "address"
        }
      ],
      "name": "rewardsClaimed",
      "outputs": [
        {
          "internalType": "bool",
          "name": "",
          "type": "bool"
        }
      ],
      "stateMutability": "view",
      "type": "function"
    },
    {
      "inputs": [],
      "name": "rewardsToken",
      "outputs": [
        {
          "internalType": "contract ERC20",
          "name": "",
          "type": "address"
        }
      ],
      "stateMutability": "view",
      "type": "function"
    },
    {
      "inputs": [
        {
          "internalType": "address",
          "name": "_rewards",
          "type": "address"
        }
      ],
      "name": "setRewardsToken",
      "outputs": [],
      "stateMutability": "nonpayable",
      "type": "function"
    },
    {
      "inputs": [
        {
          "internalType": "address",
          "name": "_ve",
          "type": "address"
        }
      ],
      "name": "setVEToken",
      "outputs": [],
      "stateMutability": "nonpayable",
      "type": "function"
    },
    {
      "inputs": [
        {
          "internalType": "address",
          "name": "newOwner",
          "type": "address"
        }
      ],
      "name": "transferOwnership",
      "outputs": [],
      "stateMutability": "nonpayable",
      "type": "function"
    },
    {
      "inputs": [],
      "name": "ts",
      "outputs": [
        {
          "internalType": "uint256",
          "name": "",
          "type": "uint256"
        }
      ],
      "stateMutability": "view",
      "type": "function"
    },
    {
      "inputs": [],
      "name": "veToken",
      "outputs": [
        {
          "internalType": "contract IveToken",
          "name": "",
          "type": "address"
        }
      ],
      "stateMutability": "view",
      "type": "function"
    },
    {
      "inputs": [
        {
          "internalType": "address",
          "name": "gaugeAddress",
          "type": "address"
        }
      ],
      "name": "vote",
      "outputs": [],
      "stateMutability": "nonpayable",
      "type": "function"
    }
  ],
  "bytecode": "0x608060405234801561001057600080fd5b5061001a3361001f565b61006f565b600080546001600160a01b038381166001600160a01b0319831681178455604051919092169283917f8be0079c531659141344cd1fd0a4f28419497f9722a3daafe3b4186f6b6457e09190a35050565b611f968061007e6000396000f3fe608060405234801561001057600080fd5b506004361061014d5760003560e01c806392d1c7fb116100c3578063dc5a41791161007c578063dc5a4179146102e6578063de320cc1146102ee578063e20b2de414610301578063e86d60bf14610316578063f2fde38b1461031c578063f4145a831461032f57600080fd5b806392d1c7fb146102535780639a835e91146102685780639ef13a4114610296578063ac4746ab146102b6578063b0539187146102c0578063d1af0c7d146102d357600080fd5b80634260c3c8116101155780634260c3c8146101d957806343859632146101e15780636a80e97e1461021f5780636dd7d8ea14610227578063715018a61461023a5780638da5cb5b1461024257600080fd5b8063054d02a3146101525780631261c8c0146101675780631e48d3341461018857806321c281911461019b5780633b92eb23146101ae575b600080fd5b6101656101603660046114ce565b610337565b005b61017566354a6ba7a1800081565b6040519081526020015b60405180910390f35b610165610196366004611503565b610431565b6101656101a9366004611503565b6104c6565b6005546101c1906001600160a01b031681565b6040516001600160a01b03909116815260200161017f565b600154610175565b61020f6101ef36600461151e565b600860209081526000928352604080842090915290825290205460ff1681565b604051901515815260200161017f565b6101756106cc565b610165610235366004611503565b6106df565b61016561099e565b6000546001600160a01b03166101c1565b61025b6109d4565b60405161017f919061154a565b61020f61027636600461151e565b600760209081526000928352604080842090915290825290205460ff1681565b6101756102a4366004611503565b60026020526000908152604090205481565b6101756212750081565b6101c16102ce3660046114ce565b610a36565b6006546101c1906001600160a01b031681565b610165610a60565b6101656102fc366004611503565b610b07565b610309610b9c565b60405161017f9190611597565b42610175565b61016561032a366004611503565b610cda565b610175610d75565b6000546001600160a01b0316331461036a5760405162461bcd60e51b8152600401610361906115ef565b60405180910390fd5b60095460ff16156103bd5760405162461bcd60e51b815260206004820152601b60248201527f47433a2047656e6573697320616c7265616479206372656174656400000000006044820152606401610361565b60036103c882610d99565b81546001808201845560009384526020938490208351600490930201918255928201518184015560408201516002820155606090910151600390910180546001600160a01b0319166001600160a01b039092169190911790556009805460ff1916909117905550565b6000546001600160a01b0316331461045b5760405162461bcd60e51b8152600401610361906115ef565b6001600160a01b0381166104a45760405162461bcd60e51b815260206004820152601060248201526f47433a205a65726f206164647265737360801b6044820152606401610361565b600580546001600160a01b0319166001600160a01b0392909216919091179055565b60095460ff1661050e5760405162461bcd60e51b815260206004820152601360248201527211d0ce88139bdd081a5b9a5d1a585b1a5e9959606a1b6044820152606401610361565b6000610518610e45565b80549091501580159061052f575042816001015411155b61056b5760405162461bcd60e51b815260206004820152600d60248201526c11d0ce88139bdd08195b991959609a1b6044820152606401610361565b6000805b6001548110156105d357600260006001838154811061059057610590611624565b60009182526020808320909101546001600160a01b031683528201929092526040019020546105bf9083611650565b9150806105cb81611668565b91505061056f565b5060005b600154811015610658576000600182815481106105f6576105f6611624565b60009182526020808320909101546001600160a01b031680835260029091526040909120549091506106288185610e7c565b6001600160a01b03909216600090815260046020526040902091909155508061065081611668565b9150506105d7565b5061066283610e98565b600361066d8461109c565b8154600180820184556000938452602093849020835160049093020191825592820151928101929092556040810151600283015560600151600390910180546001600160a01b0319166001600160a01b03909216919091179055505050565b60006106d6610e45565b60020154905090565b60035461071e5760405162461bcd60e51b815260206004820152600d60248201526c47433a204e6f2065706f63687360981b6044820152606401610361565b61072661113b565b6107655760405162461bcd60e51b815260206004820152601060248201526f47433a2043616e206e6f7420766f746560801b6044820152606401610361565b61076e816111f1565b6107b05760405162461bcd60e51b815260206004820152601360248201527247433a20496e76616c6964206164647265737360681b6044820152606401610361565b6005546040516370a0823160e01b81523360048201526000916001600160a01b0316906370a082319060240160206040518083038186803b1580156107f457600080fd5b505afa158015610808573d6000803e3d6000fd5b505050506040513d601f19601f8201168201806040525081019061082c9190611683565b9050600081116108745760405162461bcd60e51b815260206004820152601360248201527223a19d102737903b37ba34b733903837bbb2b960691b6044820152606401610361565b6001600160a01b0382166000908152600260205260408120805483929061089c908490611650565b909155508190506108ab610e45565b60020160008282546108bd9190611650565b909155505060405162a446b960e81b8152336004820152602481018290526001600160a01b0383169063a446b90090604401600060405180830381600087803b15801561090957600080fd5b505af115801561091d573d6000803e3d6000fd5b5050505060016008600061092f610d75565b8152602080820192909252604090810160009081203380835290845290829020805460ff191694151594909417909355518381526001600160a01b03851692917f174ba19ba3c8bb5c679c87e51db79fff7c3f04bb84c1fd55b7dacb470b674aa6910160405180910390a35050565b6000546001600160a01b031633146109c85760405162461bcd60e51b8152600401610361906115ef565b6109d2600061124e565b565b60606001805480602002602001604051908101604052809291908181526020018280548015610a2c57602002820191906000526020600020905b81546001600160a01b03168152600190910190602001808311610a0e575b5050505050905090565b60018181548110610a4657600080fd5b6000918252602090912001546001600160a01b0316905081565b6000546001600160a01b03163314610a8a5760405162461bcd60e51b8152600401610361906115ef565b6000604051610a98906114c1565b604051809103906000f080158015610ab4573d6000803e3d6000fd5b506001805480820182556000919091527fb10e2d527612073b26eecdfd717e6a320cf44b4afac2b0732d9fcbe2b7fa0cf60180546001600160a01b0319166001600160a01b039290921691909117905550565b6000546001600160a01b03163314610b315760405162461bcd60e51b8152600401610361906115ef565b6001600160a01b038116610b7a5760405162461bcd60e51b815260206004820152601060248201526f47433a205a65726f206164647265737360801b6044820152606401610361565b600680546001600160a01b0319166001600160a01b0392909216919091179055565b60015460609060009067ffffffffffffffff811115610bbd57610bbd61169c565b604051908082528060200260200182016040528015610c0257816020015b6040805180820190915260008082526020820152815260200190600190039081610bdb5790505b50905060005b600154811015610cd4576000604051806040016040528060018481548110610c3257610c32611624565b9060005260206000200160009054906101000a90046001600160a01b03166001600160a01b031681526020016002600060018681548110610c7557610c75611624565b60009182526020808320909101546001600160a01b03168352820192909252604001902054905283519091508190849084908110610cb557610cb5611624565b6020026020010181905250508080610ccc90611668565b915050610c08565b50919050565b6000546001600160a01b03163314610d045760405162461bcd60e51b8152600401610361906115ef565b6001600160a01b038116610d695760405162461bcd60e51b815260206004820152602660248201527f4f776e61626c653a206e6577206f776e657220697320746865207a65726f206160448201526564647265737360d01b6064820152608401610361565b610d728161124e565b50565b600354600090610d855750600090565b600354610d94906001906116b2565b905090565b610dcd604051806080016040528060008152602001600081526020016000815260200160006001600160a01b031681525090565b814210610e105760405162461bcd60e51b815260206004820152601160248201527011d0ce88125b9d985b1a59081cdd185c9d607a1b6044820152606401610361565b6000610e1f6212750084611650565b604080516080810182529485526020850191909152600090840152505033606082015290565b6003805460009190610e59906001906116b2565b81548110610e6957610e69611624565b9060005260206000209060040201905090565b6000610e9183670de0b6b3a76400008461129e565b9392505050565b60095460ff16610ee05760405162461bcd60e51b815260206004820152601360248201527211d0ce88139bdd081a5b9a5d1a585b1a5e9959606a1b6044820152606401610361565b6006546040516370a0823160e01b81523060048201526000916001600160a01b0316906370a082319060240160206040518083038186803b158015610f2457600080fd5b505afa158015610f38573d6000803e3d6000fd5b505050506040513d601f19601f82011682018060405250810190610f5c9190611683565b90506000610f718266354a6ba7a180006112bd565b90506000610f7f82846116b2565b905060005b60015481101561107e57600060018281548110610fa357610fa3611624565b60009182526020808320909101546001600160a01b03168083526004909152604082205490925090610fd58583610e7c565b9050610fe183826112d2565b60065460405163a9059cbb60e01b81526001600160a01b038581166004830152602482018490529091169063a9059cbb90604401602060405180830381600087803b15801561102f57600080fd5b505af1158015611043573d6000803e3d6000fd5b505050506040513d601f19601f8201168201806040525081019061106791906116c9565b50505050808061107690611668565b915050610f84565b50600654611096906001600160a01b03168584611401565b50505050565b6110d0604051806080016040528060008152602001600081526020016000815260200160006001600160a01b031681525090565b426000621275006110df610e45565b600101546110ed9190611650565b90505b8181101561110c576111056212750082611650565b90506110f0565b6040805160808101825292835260208301919091526000908201526001600160a01b0390921660608301525090565b6005546040516370a0823160e01b81523360048201526000916001600160a01b0316906370a082319060240160206040518083038186803b15801561117f57600080fd5b505afa158015611193573d6000803e3d6000fd5b505050506040513d601f19601f820116820180604052508101906111b79190611683565b15801590610d9457506111eb6111cb610d75565b600090815260086020908152604080832033845290915290205460ff1690565b15905090565b6000805b600154811015610cd457826001600160a01b03166001828154811061121c5761121c611624565b6000918252602090912001546001600160a01b0316141561123c57600191505b8061124681611668565b9150506111f5565b600080546001600160a01b038381166001600160a01b0319831681178455604051919092169283917f8be0079c531659141344cd1fd0a4f28419497f9722a3daafe3b4186f6b6457e09190a35050565b8282028115158415858304851417166112b657600080fd5b0492915050565b6000610e918383670de0b6b3a764000061129e565b6000426006546040516370a0823160e01b81526001600160a01b038681166004830152929350600092909116906370a082319060240160206040518083038186803b15801561132057600080fd5b505afa158015611334573d6000803e3d6000fd5b505050506040513d601f19601f820116820180604052508101906113589190611683565b6001600160a01b0385166000818152600260205260409020549192509063331e43f59084908490603461138e621275008a6116eb565b611398919061170a565b6040516001600160e01b031960e087901b1681526004810194909452602484019290925260448301526064820152608401600060405180830381600087803b1580156113e357600080fd5b505af11580156113f7573d6000803e3d6000fd5b5050505050505050565b600060405163a9059cbb60e01b81526001600160a01b03841660048201528260248201526000806044836000895af191505061143c8161147a565b6110965760405162461bcd60e51b815260206004820152600f60248201526e1514905394d1915497d19052531151608a1b6044820152606401610361565b60003d8261148c57806000803e806000fd5b80602081146114a45780156114b557600092506114ba565b816000803e600051151592506114ba565b600192505b5050919050565b6108348061172d83390190565b6000602082840312156114e057600080fd5b5035919050565b80356001600160a01b03811681146114fe57600080fd5b919050565b60006020828403121561151557600080fd5b610e91826114e7565b6000806040838503121561153157600080fd5b82359150611541602084016114e7565b90509250929050565b6020808252825182820181905260009190848201906040850190845b8181101561158b5783516001600160a01b031683529284019291840191600101611566565b50909695505050505050565b602080825282518282018190526000919060409081850190868401855b828110156115e257815180516001600160a01b031685528601518685015292840192908501906001016115b4565b5091979650505050505050565b6020808252818101527f4f776e61626c653a2063616c6c6572206973206e6f7420746865206f776e6572604082015260600190565b634e487b7160e01b600052603260045260246000fd5b634e487b7160e01b600052601160045260246000fd5b600082198211156116635761166361163a565b500190565b600060001982141561167c5761167c61163a565b5060010190565b60006020828403121561169557600080fd5b5051919050565b634e487b7160e01b600052604160045260246000fd5b6000828210156116c4576116c461163a565b500390565b6000602082840312156116db57600080fd5b81518015158114610e9157600080fd5b60008160001904831182151516156117055761170561163a565b500290565b60008261172757634e487b7160e01b600052601260045260246000fd5b50049056fe608060405234801561001057600080fd5b50600380546001600160a01b03191633179055610802806100326000396000f3fe608060405234801561001057600080fd5b50600436106100ea5760003560e01c80639e447fc61161008c578063b59c6e0e11610066578063b59c6e0e146101f2578063b69ef8a814610205578063f77c47911461020d578063f7c618c11461022057600080fd5b80639e447fc6146101c4578063a446b900146101d7578063a991c9b5146101ea57600080fd5b80635a3382c9116100c85780635a3382c91461013c57806368fd25cd146101755780637b0a47ee1461017e5780639a835e911461018657600080fd5b8063331e43f5146100ef5780633b92eb23146101045780634e71d92d14610134575b600080fd5b6101026100fd3660046106c9565b610231565b005b600254610117906001600160a01b031681565b6040516001600160a01b0390911681526020015b60405180910390f35b610102610278565b61016761014a366004610717565b600960209081526000928352604080842090915290825290205481565b60405190815260200161012b565b61016760015481565b600154610167565b6101b4610194366004610717565b600860209081526000928352604080842090915290825290205460ff1681565b604051901515815260200161012b565b6101026101d2366004610743565b6104ae565b6101026101e536600461075c565b6104dd565b600554610167565b600054610117906001600160a01b031681565b610167610532565b600354610117906001600160a01b031681565b6000546001600160a01b0316610117565b6003546001600160a01b031633146102645760405162461bcd60e51b815260040161025b90610786565b60405180910390fd5b600493909355600591909155600655600755565b6006541580159061028a575060055415155b8015610297575060045415155b6102da5760405162461bcd60e51b81526020600482015260146024820152731311ce88125b9d985b1a59081cdb985c1cda1bdd60621b604482015260640161025b565b60025460048054604051627eeac760e11b815233928101839052602481019190915290916000916001600160a01b039091169062fdd58e9060440160206040518083038186803b15801561032d57600080fd5b505afa158015610341573d6000803e3d6000fd5b505050506040513d601f19601f8201168201806040525081019061036591906107b3565b60045460009081526008602090815260408083206001600160a01b038716845290915290205490915060ff16156103d75760405162461bcd60e51b815260206004820152601660248201527511d85d59d94e88185b1c9958591e4818db185a5b595960521b604482015260640161025b565b60045460009081526009602090815260408083206001600160a01b038616845290915290205481146104435760405162461bcd60e51b81526020600482015260156024820152741311ce88159bdd19481b9bdd081c9958dbdc991959605a1b604482015260640161025b565b60045460009081526008602090815260408083206001600160a01b03861684529091528120805460ff1916600117905560055460065461048f91906104899085906105b3565b906105cf565b6000549091506104a9906001600160a01b031684836105e4565b505050565b6003546001600160a01b031633146104d85760405162461bcd60e51b815260040161025b90610786565b600155565b6003546001600160a01b031633146105075760405162461bcd60e51b815260040161025b90610786565b60045460009081526009602090815260408083206001600160a01b0390951683529390529190912055565b600080546040516370a0823160e01b81523060048201526001600160a01b03909116906370a082319060240160206040518083038186803b15801561057657600080fd5b505afa15801561058a573d6000803e3d6000fd5b505050506040513d601f19601f820116820180604052508101906105ae91906107b3565b905090565b60006105c88383670de0b6b3a7640000610663565b9392505050565b60006105c883670de0b6b3a764000084610663565b600060405163a9059cbb60e01b81526001600160a01b03841660048201528260248201526000806044836000895af191505061061f81610682565b61065d5760405162461bcd60e51b815260206004820152600f60248201526e1514905394d1915497d19052531151608a1b604482015260640161025b565b50505050565b82820281151584158583048514171661067b57600080fd5b0492915050565b60003d8261069457806000803e806000fd5b80602081146106ac5780156106bd57600092506106c2565b816000803e600051151592506106c2565b600192505b5050919050565b600080600080608085870312156106df57600080fd5b5050823594602084013594506040840135936060013592509050565b80356001600160a01b038116811461071257600080fd5b919050565b6000806040838503121561072a57600080fd5b8235915061073a602084016106fb565b90509250929050565b60006020828403121561075557600080fd5b5035919050565b6000806040838503121561076f57600080fd5b610778836106fb565b946020939093013593505050565b60208082526013908201527226239d1027b7363c9021b7b73a3937b63632b960691b604082015260600190565b6000602082840312156107c557600080fd5b505191905056fea2646970667358221220f7228215bb96e1b6f64e2dee33e34bed7220500beac48c9cceda5c7c565d5fd864736f6c63430008090033a26469706673582212201664da1060f11865b21624b2206f8a0da28191133a421f487b7b9d8d3d66222564736f6c63430008090033",
  "linkReferences": {},
  "deployedLinkReferences": {}
}