{
    "_format": "hh-sol-artifact-1",
    "contractName": "GaugeController",
    "sourceName": "contracts/gauges/GaugeController.sol",
    "abi": [
        {
            "anonymous": false,
            "inputs": [
                {
                    "indexed": false,
                    "internalType": "uint256",
                    "name": "start",
                    "type": "uint256"
                },
                {
                    "indexed": false,
                    "internalType": "uint256",
                    "name": "end",
                    "type": "uint256"
                },
                {
                    "indexed": true,
                    "internalType": "address",
                    "name": "reaper",
                    "type": "address"
                }
            ],
            "name": "EpochCreated",
            "type": "event"
        },
        {
            "anonymous": false,
            "inputs": [
                {
                    "indexed": true,
                    "internalType": "address",
                    "name": "by",
                    "type": "address"
                },
                {
                    "indexed": false,
                    "internalType": "uint256",
                    "name": "startTime",
                    "type": "uint256"
                }
            ],
            "name": "GaugeCreated",
            "type": "event"
        },
        {
            "anonymous": false,
            "inputs": [
                {
                    "indexed": true,
                    "internalType": "address",
                    "name": "by",
                    "type": "address"
                },
                {
                    "indexed": false,
                    "internalType": "uint256",
                    "name": "startTime",
                    "type": "uint256"
                }
            ],
            "name": "GenesisCreated",
            "type": "event"
        },
        {
            "anonymous": false,
            "inputs": [
                {
                    "indexed": true,
                    "internalType": "address",
                    "name": "previousOwner",
                    "type": "address"
                },
                {
                    "indexed": true,
                    "internalType": "address",
                    "name": "newOwner",
                    "type": "address"
                }
            ],
            "name": "OwnershipTransferred",
            "type": "event"
        },
        {
            "anonymous": false,
            "inputs": [
                {
                    "indexed": true,
                    "internalType": "address",
                    "name": "tokenAddress",
                    "type": "address"
                },
                {
                    "indexed": true,
                    "internalType": "address",
                    "name": "by",
                    "type": "address"
                }
            ],
            "name": "RewardsTokenSet",
            "type": "event"
        },
        {
            "anonymous": false,
            "inputs": [
                {
                    "indexed": true,
                    "internalType": "address",
                    "name": "tokenAddress",
                    "type": "address"
                },
                {
                    "indexed": true,
                    "internalType": "address",
                    "name": "by",
                    "type": "address"
                }
            ],
            "name": "VeTokenSet",
            "type": "event"
        },
        {
            "inputs": [],
            "name": "EPOCH_LENGTH",
            "outputs": [
                {
                    "internalType": "uint256",
                    "name": "",
                    "type": "uint256"
                }
            ],
            "stateMutability": "view",
            "type": "function"
        },
        {
            "inputs": [],
            "name": "REAPER_FEE",
            "outputs": [
                {
                    "internalType": "uint256",
                    "name": "",
                    "type": "uint256"
                }
            ],
            "stateMutability": "view",
            "type": "function"
        },
        {
            "inputs": [],
            "name": "allGauges",
            "outputs": [
                {
                    "internalType": "address[]",
                    "name": "g",
                    "type": "address[]"
                }
            ],
            "stateMutability": "view",
            "type": "function"
        },
        {
            "inputs": [],
            "name": "createGauge",
            "outputs": [],
            "stateMutability": "nonpayable",
            "type": "function"
        },
        {
            "inputs": [
                {
                    "internalType": "uint256",
                    "name": "startTime",
                    "type": "uint256"
                }
            ],
            "name": "createGenesisEpoch",
            "outputs": [],
            "stateMutability": "nonpayable",
            "type": "function"
        },
        {
            "inputs": [],
            "name": "currentEpochTotalVotes",
            "outputs": [
                {
                    "internalType": "uint256",
                    "name": "",
                    "type": "uint256"
                }
            ],
            "stateMutability": "view",
            "type": "function"
        },
        {
            "inputs": [],
            "name": "epochNumber",
            "outputs": [
                {
                    "internalType": "uint256",
                    "name": "number",
                    "type": "uint256"
                }
            ],
            "stateMutability": "view",
            "type": "function"
        },
        {
            "inputs": [
                {
                    "internalType": "address",
                    "name": "",
                    "type": "address"
                }
            ],
            "name": "gaugeVotes",
            "outputs": [
                {
                    "internalType": "uint256",
                    "name": "",
                    "type": "uint256"
                }
            ],
            "stateMutability": "view",
            "type": "function"
        },
        {
            "inputs": [
                {
                    "internalType": "uint256",
                    "name": "",
                    "type": "uint256"
                }
            ],
            "name": "gauges",
            "outputs": [
                {
                    "internalType": "address",
                    "name": "",
                    "type": "address"
                }
            ],
            "stateMutability": "view",
            "type": "function"
        },
        {
            "inputs": [
                {
                    "internalType": "uint256",
                    "name": "",
                    "type": "uint256"
                },
                {
                    "internalType": "address",
                    "name": "",
                    "type": "address"
                }
            ],
            "name": "hasVoted",
            "outputs": [
                {
                    "internalType": "bool",
                    "name": "",
                    "type": "bool"
                }
            ],
            "stateMutability": "view",
            "type": "function"
        },
        {
            "inputs": [],
            "name": "numberOfGauges",
            "outputs": [
                {
                    "internalType": "uint256",
                    "name": "n",
                    "type": "uint256"
                }
            ],
            "stateMutability": "view",
            "type": "function"
        },
        {
            "inputs": [],
            "name": "owner",
            "outputs": [
                {
                    "internalType": "address",
                    "name": "",
                    "type": "address"
                }
            ],
            "stateMutability": "view",
            "type": "function"
        },
        {
            "inputs": [
                {
                    "internalType": "address",
                    "name": "reaper",
                    "type": "address"
                }
            ],
            "name": "rebalance",
            "outputs": [],
            "stateMutability": "nonpayable",
            "type": "function"
        },
        {
            "inputs": [],
            "name": "renounceOwnership",
            "outputs": [],
            "stateMutability": "nonpayable",
            "type": "function"
        },
        {
            "inputs": [
                {
                    "internalType": "uint256",
                    "name": "",
                    "type": "uint256"
                },
                {
                    "internalType": "address",
                    "name": "",
                    "type": "address"
                }
            ],
            "name": "rewardsClaimed",
            "outputs": [
                {
                    "internalType": "bool",
                    "name": "",
                    "type": "bool"
                }
            ],
            "stateMutability": "view",
            "type": "function"
        },
        {
            "inputs": [],
            "name": "rewardsToken",
            "outputs": [
                {
                    "internalType": "contract ERC20",
                    "name": "",
                    "type": "address"
                }
            ],
            "stateMutability": "view",
            "type": "function"
        },
        {
            "inputs": [
                {
                    "internalType": "address",
                    "name": "_rewards",
                    "type": "address"
                }
            ],
            "name": "setRewardsToken",
            "outputs": [],
            "stateMutability": "nonpayable",
            "type": "function"
        },
        {
            "inputs": [
                {
                    "internalType": "address",
                    "name": "_ve",
                    "type": "address"
                }
            ],
            "name": "setVEToken",
            "outputs": [],
            "stateMutability": "nonpayable",
            "type": "function"
        },
        {
            "inputs": [
                {
                    "internalType": "address",
                    "name": "newOwner",
                    "type": "address"
                }
            ],
            "name": "transferOwnership",
            "outputs": [],
            "stateMutability": "nonpayable",
            "type": "function"
        },
        {
            "inputs": [],
            "name": "ts",
            "outputs": [
                {
                    "internalType": "uint256",
                    "name": "",
                    "type": "uint256"
                }
            ],
            "stateMutability": "view",
            "type": "function"
        },
        {
            "inputs": [],
            "name": "veToken",
            "outputs": [
                {
                    "internalType": "contract IveToken",
                    "name": "",
                    "type": "address"
                }
            ],
            "stateMutability": "view",
            "type": "function"
        },
        {
            "inputs": [
                {
                    "internalType": "address",
                    "name": "gaugeAddress",
                    "type": "address"
                }
            ],
            "name": "vote",
            "outputs": [],
            "stateMutability": "nonpayable",
            "type": "function"
        }
    ],
    "bytecode": "0x608060405234801561001057600080fd5b5061001a3361001f565b61006f565b600080546001600160a01b038381166001600160a01b0319831681178455604051919092169283917f8be0079c531659141344cd1fd0a4f28419497f9722a3daafe3b4186f6b6457e09190a35050565b611d188061007e6000396000f3fe608060405234801561001057600080fd5b50600436106101425760003560e01c806392d1c7fb116100b8578063d1af0c7d1161007c578063d1af0c7d146102c8578063dc5a4179146102db578063de320cc1146102e3578063e86d60bf146102f6578063f2fde38b146102fc578063f4145a831461030f57600080fd5b806392d1c7fb146102485780639a835e911461025d5780639ef13a411461028b578063ac4746ab146102ab578063b0539187146102b557600080fd5b80634260c3c81161010a5780634260c3c8146101ce57806343859632146101d65780636a80e97e146102145780636dd7d8ea1461021c578063715018a61461022f5780638da5cb5b1461023757600080fd5b8063054d02a3146101475780631261c8c01461015c5780631e48d3341461017d57806321c28191146101905780633b92eb23146101a3575b600080fd5b61015a6101553660046113b9565b610317565b005b61016a66354a6ba7a1800081565b6040519081526020015b60405180910390f35b61015a61018b3660046113ee565b610411565b61015a61019e3660046113ee565b6104a6565b6005546101b6906001600160a01b031681565b6040516001600160a01b039091168152602001610174565b60015461016a565b6102046101e4366004611409565b600860209081526000928352604080842090915290825290205460ff1681565b6040519015158152602001610174565b61016a6106b4565b61015a61022a3660046113ee565b6106c7565b61015a610947565b6000546001600160a01b03166101b6565b61025061097d565b6040516101749190611435565b61020461026b366004611409565b600760209081526000928352604080842090915290825290205460ff1681565b61016a6102993660046113ee565b60026020526000908152604090205481565b61016a6212750081565b6101b66102c33660046113b9565b6109df565b6006546101b6906001600160a01b031681565b61015a610a09565b61015a6102f13660046113ee565b610ab0565b4261016a565b61015a61030a3660046113ee565b610b45565b61016a610be0565b6000546001600160a01b0316331461034a5760405162461bcd60e51b815260040161034190611482565b60405180910390fd5b60095460ff161561039d5760405162461bcd60e51b815260206004820152601b60248201527f47433a2047656e6573697320616c7265616479206372656174656400000000006044820152606401610341565b60036103a882610c04565b81546001808201845560009384526020938490208351600490930201918255928201518184015560408201516002820155606090910151600390910180546001600160a01b0319166001600160a01b039092169190911790556009805460ff1916909117905550565b6000546001600160a01b0316331461043b5760405162461bcd60e51b815260040161034190611482565b6001600160a01b0381166104845760405162461bcd60e51b815260206004820152601060248201526f47433a205a65726f206164647265737360801b6044820152606401610341565b600580546001600160a01b0319166001600160a01b0392909216919091179055565b60095460ff166104ee5760405162461bcd60e51b815260206004820152601360248201527211d0ce88139bdd081a5b9a5d1a585b1a5e9959606a1b6044820152606401610341565b60006104f8610cb0565b80549091501580159061050f575042816001015411155b61054b5760405162461bcd60e51b815260206004820152600d60248201526c11d0ce88139bdd08195b991959609a1b6044820152606401610341565b6000805b6001548110156105b3576002600060018381548110610570576105706114b7565b60009182526020808320909101546001600160a01b0316835282019290925260400190205461059f90836114e3565b9150806105ab816114fb565b91505061054f565b5060005b600154811015610638576000600182815481106105d6576105d66114b7565b60009182526020808320909101546001600160a01b031680835260029091526040909120549091506106088185610ce7565b6001600160a01b039092166000908152600460205260409020919091555080610630816114fb565b9150506105b7565b5061064283610d03565b61064a610efd565b6003610655846110b0565b8154600180820184556000938452602093849020835160049093020191825592820151928101929092556040810151600283015560600151600390910180546001600160a01b0319166001600160a01b03909216919091179055505050565b60006106be610cb0565b60020154905090565b6003546107065760405162461bcd60e51b815260206004820152600d60248201526c47433a204e6f2065706f63687360981b6044820152606401610341565b61070e61114f565b61074d5760405162461bcd60e51b815260206004820152601060248201526f47433a2043616e206e6f7420766f746560801b6044820152606401610341565b61075681611205565b6107985760405162461bcd60e51b815260206004820152601360248201527247433a20496e76616c6964206164647265737360681b6044820152606401610341565b6005546040516370a0823160e01b81523360048201526000916001600160a01b0316906370a082319060240160206040518083038186803b1580156107dc57600080fd5b505afa1580156107f0573d6000803e3d6000fd5b505050506040513d601f19601f820116820180604052508101906108149190611516565b90506000811161085c5760405162461bcd60e51b815260206004820152601360248201527223a19d102737903b37ba34b733903837bbb2b960691b6044820152606401610341565b6001600160a01b038216600090815260026020526040812080548392906108849084906114e3565b90915550819050610893610cb0565b60020160008282546108a591906114e3565b909155505060405162a446b960e81b8152336004820152602481018290526001600160a01b0383169063a446b90090604401600060405180830381600087803b1580156108f157600080fd5b505af1158015610905573d6000803e3d6000fd5b50505050600160086000610917610be0565b8152602080820192909252604090810160009081203382529092529020805460ff19169115159190911790555050565b6000546001600160a01b031633146109715760405162461bcd60e51b815260040161034190611482565b61097b6000611268565b565b606060018054806020026020016040519081016040528092919081815260200182805480156109d557602002820191906000526020600020905b81546001600160a01b031681526001909101906020018083116109b7575b5050505050905090565b600181815481106109ef57600080fd5b6000918252602090912001546001600160a01b0316905081565b6000546001600160a01b03163314610a335760405162461bcd60e51b815260040161034190611482565b6000604051610a41906113ac565b604051809103906000f080158015610a5d573d6000803e3d6000fd5b506001805480820182556000919091527fb10e2d527612073b26eecdfd717e6a320cf44b4afac2b0732d9fcbe2b7fa0cf60180546001600160a01b0319166001600160a01b039290921691909117905550565b6000546001600160a01b03163314610ada5760405162461bcd60e51b815260040161034190611482565b6001600160a01b038116610b235760405162461bcd60e51b815260206004820152601060248201526f47433a205a65726f206164647265737360801b6044820152606401610341565b600680546001600160a01b0319166001600160a01b0392909216919091179055565b6000546001600160a01b03163314610b6f5760405162461bcd60e51b815260040161034190611482565b6001600160a01b038116610bd45760405162461bcd60e51b815260206004820152602660248201527f4f776e61626c653a206e6577206f776e657220697320746865207a65726f206160448201526564647265737360d01b6064820152608401610341565b610bdd81611268565b50565b600354600090610bf05750600090565b600354610bff9060019061152f565b905090565b610c38604051806080016040528060008152602001600081526020016000815260200160006001600160a01b031681525090565b814210610c7b5760405162461bcd60e51b815260206004820152601160248201527011d0ce88125b9d985b1a59081cdd185c9d607a1b6044820152606401610341565b6000610c8a62127500846114e3565b604080516080810182529485526020850191909152600090840152505033606082015290565b6003805460009190610cc49060019061152f565b81548110610cd457610cd46114b7565b9060005260206000209060040201905090565b6000610cfc83670de0b6b3a7640000846112b8565b9392505050565b60095460ff16610d4b5760405162461bcd60e51b815260206004820152601360248201527211d0ce88139bdd081a5b9a5d1a585b1a5e9959606a1b6044820152606401610341565b6006546040516370a0823160e01b81523060048201526000916001600160a01b0316906370a082319060240160206040518083038186803b158015610d8f57600080fd5b505afa158015610da3573d6000803e3d6000fd5b505050506040513d601f19601f82011682018060405250810190610dc79190611516565b90506000610ddc8266354a6ba7a180006112d7565b90506000610dea828461152f565b905060005b600154811015610edf57600060018281548110610e0e57610e0e6114b7565b60009182526020808320909101546001600160a01b03168083526004909152604082205490925090610e408583610ce7565b60065460405163a9059cbb60e01b81526001600160a01b0386811660048301526024820184905292935091169063a9059cbb90604401602060405180830381600087803b158015610e9057600080fd5b505af1158015610ea4573d6000803e3d6000fd5b505050506040513d601f19601f82011682018060405250810190610ec89190611546565b505050508080610ed7906114fb565b915050610def565b50600654610ef7906001600160a01b031685846112ec565b50505050565b4260005b6001548110156110ac57600654600180546000926001600160a01b0316916370a082319185908110610f3557610f356114b7565b60009182526020909120015460405160e083901b6001600160e01b03191681526001600160a01b03909116600482015260240160206040518083038186803b158015610f8057600080fd5b505afa158015610f94573d6000803e3d6000fd5b505050506040513d601f19601f82011682018060405250810190610fb89190611516565b905060018281548110610fcd57610fcd6114b7565b9060005260206000200160009054906101000a90046001600160a01b03166001600160a01b031663e865621a84836002600060018881548110611012576110126114b7565b6000918252602080832091909101546001600160a01b03168352820192909252604090810190912054905160e085901b6001600160e01b0319168152600481019390935260248301919091526044820152606401600060405180830381600087803b15801561108057600080fd5b505af1158015611094573d6000803e3d6000fd5b505050505080806110a4906114fb565b915050610f01565b5050565b6110e4604051806080016040528060008152602001600081526020016000815260200160006001600160a01b031681525090565b426000621275006110f3610cb0565b6001015461110191906114e3565b90505b818110156111205761111962127500826114e3565b9050611104565b6040805160808101825292835260208301919091526000908201526001600160a01b0390921660608301525090565b6005546040516370a0823160e01b81523360048201526000916001600160a01b0316906370a082319060240160206040518083038186803b15801561119357600080fd5b505afa1580156111a7573d6000803e3d6000fd5b505050506040513d601f19601f820116820180604052508101906111cb9190611516565b15801590610bff57506111ff6111df610be0565b600090815260086020908152604080832033845290915290205460ff1690565b15905090565b6000805b60015481101561126257826001600160a01b031660018281548110611230576112306114b7565b6000918252602090912001546001600160a01b0316141561125057600191505b8061125a816114fb565b915050611209565b50919050565b600080546001600160a01b038381166001600160a01b0319831681178455604051919092169283917f8be0079c531659141344cd1fd0a4f28419497f9722a3daafe3b4186f6b6457e09190a35050565b8282028115158415858304851417166112d057600080fd5b0492915050565b6000610cfc8383670de0b6b3a76400006112b8565b600060405163a9059cbb60e01b81526001600160a01b03841660048201528260248201526000806044836000895af191505061132781611365565b610ef75760405162461bcd60e51b815260206004820152600f60248201526e1514905394d1915497d19052531151608a1b6044820152606401610341565b60003d8261137757806000803e806000fd5b806020811461138f5780156113a057600092506113a5565b816000803e600051151592506113a5565b600192505b5050919050565b61077a8061156983390190565b6000602082840312156113cb57600080fd5b5035919050565b80356001600160a01b03811681146113e957600080fd5b919050565b60006020828403121561140057600080fd5b610cfc826113d2565b6000806040838503121561141c57600080fd5b8235915061142c602084016113d2565b90509250929050565b6020808252825182820181905260009190848201906040850190845b818110156114765783516001600160a01b031683529284019291840191600101611451565b50909695505050505050565b6020808252818101527f4f776e61626c653a2063616c6c6572206973206e6f7420746865206f776e6572604082015260600190565b634e487b7160e01b600052603260045260246000fd5b634e487b7160e01b600052601160045260246000fd5b600082198211156114f6576114f66114cd565b500190565b600060001982141561150f5761150f6114cd565b5060010190565b60006020828403121561152857600080fd5b5051919050565b600082821015611541576115416114cd565b500390565b60006020828403121561155857600080fd5b81518015158114610cfc57600080fdfe608060405234801561001057600080fd5b50600280546001600160a01b03191633179055610748806100326000396000f3fe608060405234801561001057600080fd5b506004361061009e5760003560e01c8063a991c9b511610066578063a991c9b514610167578063b69ef8a81461016f578063d1af0c7d14610177578063e865621a1461018a578063f77c47911461019d57600080fd5b80633b92eb23146100a35780634e71d92d146100d35780635a3382c9146100dd5780639a835e9114610116578063a446b90014610154575b600080fd5b6001546100b6906001600160a01b031681565b6040516001600160a01b0390911681526020015b60405180910390f35b6100db6101b0565b005b6101086100eb366004610677565b600760209081526000928352604080842090915290825290205481565b6040519081526020016100ca565b610144610124366004610677565b600660209081526000928352604080842090915290825290205460ff1681565b60405190151581526020016100ca565b6100db6101623660046106a3565b6103eb565b600454610108565b610108610466565b6000546100b6906001600160a01b031681565b6100db6101983660046106cd565b6104e7565b6002546100b6906001600160a01b031681565b600554158015906101c2575060045415155b80156101cf575060035415155b6102175760405162461bcd60e51b81526020600482015260146024820152731311ce88125b9d985b1a59081cdb985c1cda1bdd60621b60448201526064015b60405180910390fd5b600154600354604051627eeac760e11b81523360048201819052602482019290925290916000916001600160a01b039091169062fdd58e9060440160206040518083038186803b15801561026a57600080fd5b505afa15801561027e573d6000803e3d6000fd5b505050506040513d601f19601f820116820180604052508101906102a291906106f9565b60035460009081526006602090815260408083206001600160a01b038716845290915290205490915060ff16156103145760405162461bcd60e51b815260206004820152601660248201527511d85d59d94e88185b1c9958591e4818db185a5b595960521b604482015260640161020e565b60035460009081526007602090815260408083206001600160a01b038616845290915290205481146103805760405162461bcd60e51b81526020600482015260156024820152741311ce88159bdd19481b9bdd081c9958dbdc991959605a1b604482015260640161020e565b60035460009081526006602090815260408083206001600160a01b03861684529091528120805460ff191660011790556004546005546103cc91906103c6908590610545565b90610561565b6000549091506103e6906001600160a01b03168483610576565b505050565b6002546001600160a01b0316331461043b5760405162461bcd60e51b815260206004820152601360248201527226239d1027b7363c9021b7b73a3937b63632b960691b604482015260640161020e565b60035460009081526007602090815260408083206001600160a01b0390951683529390529190912055565b600080546040516370a0823160e01b81523060048201526001600160a01b03909116906370a082319060240160206040518083038186803b1580156104aa57600080fd5b505afa1580156104be573d6000803e3d6000fd5b505050506040513d601f19601f820116820180604052508101906104e291906106f9565b905090565b6002546001600160a01b031633146105375760405162461bcd60e51b815260206004820152601360248201527226239d1027b7363c9021b7b73a3937b63632b960691b604482015260640161020e565b600392909255600455600555565b600061055a8383670de0b6b3a76400006105f5565b9392505050565b600061055a83670de0b6b3a7640000846105f5565b600060405163a9059cbb60e01b81526001600160a01b03841660048201528260248201526000806044836000895af19150506105b181610614565b6105ef5760405162461bcd60e51b815260206004820152600f60248201526e1514905394d1915497d19052531151608a1b604482015260640161020e565b50505050565b82820281151584158583048514171661060d57600080fd5b0492915050565b60003d8261062657806000803e806000fd5b806020811461063e57801561064f5760009250610654565b816000803e60005115159250610654565b600192505b5050919050565b80356001600160a01b038116811461067257600080fd5b919050565b6000806040838503121561068a57600080fd5b8235915061069a6020840161065b565b90509250929050565b600080604083850312156106b657600080fd5b6106bf8361065b565b946020939093013593505050565b6000806000606084860312156106e257600080fd5b505081359360208301359350604090920135919050565b60006020828403121561070b57600080fd5b505191905056fea2646970667358221220197e48ae7ed9db50a40e46ce7d2d4571eaed71b7eb59208521d2db05e03b8dd464736f6c63430008090033a2646970667358221220aae49d9e33355b90046bbce4c42c7814ae9b000e8bebd3389c6c7b1ec4af288664736f6c63430008090033",
    "linkReferences": {},
    "deployedLinkReferences": {}
}