{
  "_format": "hh-sol-artifact-1",
  "contractName": "GaugeController",
  "sourceName": "contracts/gauges/GaugeController.sol",
  "abi": [
    {
      "anonymous": false,
      "inputs": [
        {
          "indexed": false,
          "internalType": "uint256",
          "name": "start",
          "type": "uint256"
        },
        {
          "indexed": false,
          "internalType": "uint256",
          "name": "end",
          "type": "uint256"
        },
        {
          "indexed": true,
          "internalType": "address",
          "name": "reaper",
          "type": "address"
        }
      ],
      "name": "EpochCreated",
      "type": "event"
    },
    {
      "anonymous": false,
      "inputs": [
        {
          "indexed": true,
          "internalType": "address",
          "name": "by",
          "type": "address"
        },
        {
          "indexed": false,
          "internalType": "uint256",
          "name": "startTime",
          "type": "uint256"
        }
      ],
      "name": "GaugeCreated",
      "type": "event"
    },
    {
      "anonymous": false,
      "inputs": [
        {
          "indexed": true,
          "internalType": "address",
          "name": "by",
          "type": "address"
        },
        {
          "indexed": false,
          "internalType": "uint256",
          "name": "startTime",
          "type": "uint256"
        }
      ],
      "name": "GenesisCreated",
      "type": "event"
    },
    {
      "anonymous": false,
      "inputs": [
        {
          "indexed": true,
          "internalType": "address",
          "name": "previousOwner",
          "type": "address"
        },
        {
          "indexed": true,
          "internalType": "address",
          "name": "newOwner",
          "type": "address"
        }
      ],
      "name": "OwnershipTransferred",
      "type": "event"
    },
    {
      "anonymous": false,
      "inputs": [
        {
          "indexed": true,
          "internalType": "address",
          "name": "reaper",
          "type": "address"
        },
        {
          "indexed": false,
          "internalType": "uint256",
          "name": "totalWeight",
          "type": "uint256"
        }
      ],
      "name": "Rebalance",
      "type": "event"
    },
    {
      "anonymous": false,
      "inputs": [
        {
          "indexed": true,
          "internalType": "address",
          "name": "tokenAddress",
          "type": "address"
        },
        {
          "indexed": true,
          "internalType": "address",
          "name": "by",
          "type": "address"
        }
      ],
      "name": "RewardsTokenSet",
      "type": "event"
    },
    {
      "anonymous": false,
      "inputs": [
        {
          "indexed": true,
          "internalType": "address",
          "name": "account",
          "type": "address"
        },
        {
          "indexed": true,
          "internalType": "address",
          "name": "gauge",
          "type": "address"
        },
        {
          "indexed": false,
          "internalType": "uint256",
          "name": "votes",
          "type": "uint256"
        }
      ],
      "name": "Voted",
      "type": "event"
    },
    {
      "inputs": [],
      "name": "EPOCH_LENGTH",
      "outputs": [
        {
          "internalType": "uint256",
          "name": "",
          "type": "uint256"
        }
      ],
      "stateMutability": "view",
      "type": "function"
    },
    {
      "inputs": [],
      "name": "REAPER_FEE",
      "outputs": [
        {
          "internalType": "uint256",
          "name": "",
          "type": "uint256"
        }
      ],
      "stateMutability": "view",
      "type": "function"
    },
    {
      "inputs": [],
      "name": "allGaugeVotes",
      "outputs": [
        {
          "components": [
            {
              "internalType": "address",
              "name": "gauge",
              "type": "address"
            },
            {
              "internalType": "uint256",
              "name": "votes",
              "type": "uint256"
            }
          ],
          "internalType": "struct GaugeController.GaugeVotes[]",
          "name": "",
          "type": "tuple[]"
        }
      ],
      "stateMutability": "view",
      "type": "function"
    },
    {
      "inputs": [],
      "name": "allGauges",
      "outputs": [
        {
          "internalType": "address[]",
          "name": "g",
          "type": "address[]"
        }
      ],
      "stateMutability": "view",
      "type": "function"
    },
    {
      "inputs": [],
      "name": "createGauge",
      "outputs": [],
      "stateMutability": "nonpayable",
      "type": "function"
    },
    {
      "inputs": [
        {
          "internalType": "uint256",
          "name": "startTime",
          "type": "uint256"
        }
      ],
      "name": "createGenesisEpoch",
      "outputs": [],
      "stateMutability": "nonpayable",
      "type": "function"
    },
    {
      "inputs": [],
      "name": "currentEpoch",
      "outputs": [
        {
          "components": [
            {
              "internalType": "uint256",
              "name": "start",
              "type": "uint256"
            },
            {
              "internalType": "uint256",
              "name": "end",
              "type": "uint256"
            },
            {
              "internalType": "uint256",
              "name": "totalVotes",
              "type": "uint256"
            },
            {
              "internalType": "address",
              "name": "reaper",
              "type": "address"
            }
          ],
          "internalType": "struct GaugeController.Epoch",
          "name": "epoch",
          "type": "tuple"
        }
      ],
      "stateMutability": "view",
      "type": "function"
    },
    {
      "inputs": [],
      "name": "currentEpochTotalVotes",
      "outputs": [
        {
          "internalType": "uint256",
          "name": "",
          "type": "uint256"
        }
      ],
      "stateMutability": "view",
      "type": "function"
    },
    {
      "inputs": [],
      "name": "epochNumber",
      "outputs": [
        {
          "internalType": "uint256",
          "name": "number",
          "type": "uint256"
        }
      ],
      "stateMutability": "view",
      "type": "function"
    },
    {
      "inputs": [
        {
          "internalType": "address",
          "name": "",
          "type": "address"
        }
      ],
      "name": "gaugeVotes",
      "outputs": [
        {
          "internalType": "uint256",
          "name": "",
          "type": "uint256"
        }
      ],
      "stateMutability": "view",
      "type": "function"
    },
    {
      "inputs": [
        {
          "internalType": "uint256",
          "name": "",
          "type": "uint256"
        }
      ],
      "name": "gauges",
      "outputs": [
        {
          "internalType": "address",
          "name": "",
          "type": "address"
        }
      ],
      "stateMutability": "view",
      "type": "function"
    },
    {
      "inputs": [
        {
          "internalType": "uint256",
          "name": "",
          "type": "uint256"
        },
        {
          "internalType": "address",
          "name": "",
          "type": "address"
        }
      ],
      "name": "hasVoted",
      "outputs": [
        {
          "internalType": "bool",
          "name": "",
          "type": "bool"
        }
      ],
      "stateMutability": "view",
      "type": "function"
    },
    {
      "inputs": [],
      "name": "numberOfGauges",
      "outputs": [
        {
          "internalType": "uint256",
          "name": "n",
          "type": "uint256"
        }
      ],
      "stateMutability": "view",
      "type": "function"
    },
    {
      "inputs": [],
      "name": "owner",
      "outputs": [
        {
          "internalType": "address",
          "name": "",
          "type": "address"
        }
      ],
      "stateMutability": "view",
      "type": "function"
    },
    {
      "inputs": [
        {
          "internalType": "address",
          "name": "reaper",
          "type": "address"
        }
      ],
      "name": "rebalance",
      "outputs": [],
      "stateMutability": "nonpayable",
      "type": "function"
    },
    {
      "inputs": [],
      "name": "renounceOwnership",
      "outputs": [],
      "stateMutability": "nonpayable",
      "type": "function"
    },
    {
      "inputs": [
        {
          "internalType": "uint256",
          "name": "",
          "type": "uint256"
        },
        {
          "internalType": "address",
          "name": "",
          "type": "address"
        }
      ],
      "name": "rewardsClaimed",
      "outputs": [
        {
          "internalType": "bool",
          "name": "",
          "type": "bool"
        }
      ],
      "stateMutability": "view",
      "type": "function"
    },
    {
      "inputs": [],
      "name": "rewardsToken",
      "outputs": [
        {
          "internalType": "contract ERC20",
          "name": "",
          "type": "address"
        }
      ],
      "stateMutability": "view",
      "type": "function"
    },
    {
      "inputs": [
        {
          "internalType": "address",
          "name": "_rewards",
          "type": "address"
        }
      ],
      "name": "setRewardsToken",
      "outputs": [],
      "stateMutability": "nonpayable",
      "type": "function"
    },
    {
      "inputs": [
        {
          "internalType": "address",
          "name": "_ve",
          "type": "address"
        }
      ],
      "name": "setVEToken",
      "outputs": [],
      "stateMutability": "nonpayable",
      "type": "function"
    },
    {
      "inputs": [
        {
          "internalType": "address",
          "name": "newOwner",
          "type": "address"
        }
      ],
      "name": "transferOwnership",
      "outputs": [],
      "stateMutability": "nonpayable",
      "type": "function"
    },
    {
      "inputs": [],
      "name": "ts",
      "outputs": [
        {
          "internalType": "uint256",
          "name": "",
          "type": "uint256"
        }
      ],
      "stateMutability": "view",
      "type": "function"
    },
    {
      "inputs": [],
      "name": "veToken",
      "outputs": [
        {
          "internalType": "contract IveToken",
          "name": "",
          "type": "address"
        }
      ],
      "stateMutability": "view",
      "type": "function"
    },
    {
      "inputs": [
        {
          "internalType": "address",
          "name": "gaugeAddress",
          "type": "address"
        }
      ],
      "name": "vote",
      "outputs": [],
      "stateMutability": "nonpayable",
      "type": "function"
    }
  ],
  "bytecode": "0x608060405234801561001057600080fd5b5061001a3361001f565b61006f565b600080546001600160a01b038381166001600160a01b0319831681178455604051919092169283917f8be0079c531659141344cd1fd0a4f28419497f9722a3daafe3b4186f6b6457e09190a35050565b6124d98061007e6000396000f3fe60806040523480156200001157600080fd5b5060043610620001755760003560e01c806392d1c7fb11620000d3578063dc5a41791162000086578063dc5a41791462000381578063de320cc1146200038b578063e20b2de414620003a2578063e86d60bf14620003bb578063f2fde38b14620003c2578063f4145a8314620003d957600080fd5b806392d1c7fb14620002df5780639a835e9114620002f85780639ef13a411462000329578063ac4746ab146200034c578063b05391871462000356578063d1af0c7d146200036d57600080fd5b806343859632116200012c5780634385963214620002195780636a80e97e146200025b5780636dd7d8ea1462000265578063715018a6146200027c5780637667180814620002865780638da5cb5b14620002cd57600080fd5b8063054d02a3146200017a5780631261c8c014620001935780631e48d33414620001b557806321c2819114620001cc5780633b92eb2314620001e35780634260c3c81462000210575b600080fd5b620001916200018b3660046200174e565b620003e3565b005b620001a266354a6ba7a1800081565b6040519081526020015b60405180910390f35b62000191620001c636600462001785565b620004e4565b62000191620001dd36600462001785565b6200055c565b600554620001f7906001600160a01b031681565b6040516001600160a01b039091168152602001620001ac565b600154620001a2565b6200024a6200022a366004620017a3565b600860209081526000928352604080842090915290825290205460ff1681565b6040519015158152602001620001ac565b620001a2620007b0565b620001916200027636600462001785565b620007c5565b6200019162000b82565b6200029062000bbd565b604051620001ac91908151815260208083015190820152604080830151908201526060918201516001600160a01b03169181019190915260800190565b6000546001600160a01b0316620001f7565b620002e962000c0e565b604051620001ac9190620017d2565b6200024a62000309366004620017a3565b600760209081526000928352604080842090915290825290205460ff1681565b620001a26200033a36600462001785565b60026020526000908152604090205481565b620001a2610e1081565b620001f7620003673660046200174e565b62000c72565b600654620001f7906001600160a01b031681565b6200019162000c9d565b620001916200039c36600462001785565b62000dba565b620003ac62000e32565b604051620001ac919062001821565b42620001a2565b62000191620003d336600462001785565b62000f82565b620001a262001024565b6000546001600160a01b03163314620004195760405162461bcd60e51b815260040162000410906200187b565b60405180910390fd5b60095460ff16156200046e5760405162461bcd60e51b815260206004820152601b60248201527f47433a2047656e6573697320616c726561647920637265617465640000000000604482015260640162000410565b60036200047b826200104b565b81546001808201845560009384526020938490208351600490930201918255928201518184015560408201516002820155606090910151600390910180546001600160a01b0319166001600160a01b039092169190911790556009805460ff1916909117905550565b6000546001600160a01b03163314620005115760405162461bcd60e51b815260040162000410906200187b565b6001600160a01b0381166200053a5760405162461bcd60e51b81526004016200041090620018b0565b600580546001600160a01b0319166001600160a01b0392909216919091179055565b60095460ff16620005a65760405162461bcd60e51b815260206004820152601360248201527211d0ce88139bdd081a5b9a5d1a585b1a5e9959606a1b604482015260640162000410565b6000620005b2620010d0565b805490915015801590620005ca575042816001015411155b620006085760405162461bcd60e51b815260206004820152600d60248201526c11d0ce88139bdd08195b991959609a1b604482015260640162000410565b6000805b60015481101562000679576002600060018381548110620006315762000631620018da565b60009182526020808320909101546001600160a01b0316835282019290925260400190205462000662908362001906565b915080620006708162001921565b9150506200060c565b5060005b6001548110156200070757600060018281548110620006a057620006a0620018da565b60009182526020808320909101546001600160a01b03168083526002909152604090912054909150620006d481856200110c565b6001600160a01b039092166000908152600460205260409020919091555080620006fe8162001921565b9150506200067d565b5062000713836200112a565b6003620007208462001349565b8154600180820184556000938452602093849020835160049093020191825582840151908201556040808301516002830155606090920151600390910180546001600160a01b0319166001600160a01b039283161790559051838152908516917f4217d9fab39dbadacf1dad6c889aec1caa02e8a6cb59ddd4ce34f3e0ef158b55910160405180910390a2505050565b6000620007bc620010d0565b60020154905090565b600354620008065760405162461bcd60e51b815260206004820152600d60248201526c47433a204e6f2065706f63687360981b604482015260640162000410565b6005546040516370a0823160e01b81523360048201526001600160a01b03909116906370a082319060240160206040518083038186803b1580156200084a57600080fd5b505afa1580156200085f573d6000803e3d6000fd5b505050506040513d601f19601f820116820180604052508101906200088591906200193f565b620008c45760405162461bcd60e51b815260206004820152600e60248201526d47433a205a65726f20766f74657360901b604482015260640162000410565b620008f2620008d262001024565b600090815260086020908152604080832033845290915290205460ff1690565b15620009355760405162461bcd60e51b815260206004820152601160248201527011d0ce88105b1c9958591e481d9bdd1959607a1b604482015260640162000410565b6200094081620013c4565b620009845760405162461bcd60e51b815260206004820152601360248201527247433a20496e76616c6964206164647265737360681b604482015260640162000410565b6005546040516370a0823160e01b81523360048201526000916001600160a01b0316906370a082319060240160206040518083038186803b158015620009c957600080fd5b505afa158015620009de573d6000803e3d6000fd5b505050506040513d601f19601f8201168201806040525081019062000a0491906200193f565b90506000811162000a4e5760405162461bcd60e51b815260206004820152601360248201527223a19d102737903b37ba34b733903837bbb2b960691b604482015260640162000410565b6001600160a01b0382166000908152600260205260408120805483929062000a7890849062001906565b9091555081905062000a89620010d0565b600201600082825462000a9d919062001906565b909155505060405162a446b960e81b8152336004820152602481018290526001600160a01b0383169063a446b90090604401600060405180830381600087803b15801562000aea57600080fd5b505af115801562000aff573d6000803e3d6000fd5b5050505060016008600062000b1362001024565b8152602080820192909252604090810160009081203380835290845290829020805460ff191694151594909417909355518381526001600160a01b03851692917f174ba19ba3c8bb5c679c87e51db79fff7c3f04bb84c1fd55b7dacb470b674aa6910160405180910390a35050565b6000546001600160a01b0316331462000baf5760405162461bcd60e51b815260040162000410906200187b565b62000bbb600062001429565b565b62000bc76200170f565b62000bd1620010d0565b6040805160808101825282548152600183015460208201526002830154918101919091526003909101546001600160a01b03166060820152919050565b6060600180548060200260200160405190810160405280929190818152602001828054801562000c6857602002820191906000526020600020905b81546001600160a01b0316815260019091019060200180831162000c49575b5050505050905090565b6001818154811062000c8357600080fd5b6000918252602090912001546001600160a01b0316905081565b6000546001600160a01b0316331462000cca5760405162461bcd60e51b815260040162000410906200187b565b6005546001600160a01b03161580159062000cef57506006546001600160a01b031615155b62000d0e5760405162461bcd60e51b81526004016200041090620018b0565b6006546005546040516000926001600160a01b0390811692169062000d339062001740565b6001600160a01b03928316815291166020820152604001604051809103906000f08015801562000d67573d6000803e3d6000fd5b506001805480820182556000919091527fb10e2d527612073b26eecdfd717e6a320cf44b4afac2b0732d9fcbe2b7fa0cf60180546001600160a01b0319166001600160a01b039290921691909117905550565b6000546001600160a01b0316331462000de75760405162461bcd60e51b815260040162000410906200187b565b6001600160a01b03811662000e105760405162461bcd60e51b81526004016200041090620018b0565b600680546001600160a01b0319166001600160a01b0392909216919091179055565b60015460609060009067ffffffffffffffff81111562000e565762000e5662001959565b60405190808252806020026020018201604052801562000e9d57816020015b604080518082019091526000808252602082015281526020019060019003908162000e755790505b50905060005b60015481101562000f7c57600060405180604001604052806001848154811062000ed15762000ed1620018da565b9060005260206000200160009054906101000a90046001600160a01b03166001600160a01b03168152602001600260006001868154811062000f175762000f17620018da565b60009182526020808320909101546001600160a01b0316835282019290925260400190205490528351909150819084908490811062000f5a5762000f5a620018da565b602002602001018190525050808062000f739062001921565b91505062000ea3565b50919050565b6000546001600160a01b0316331462000faf5760405162461bcd60e51b815260040162000410906200187b565b6001600160a01b038116620010165760405162461bcd60e51b815260206004820152602660248201527f4f776e61626c653a206e6577206f776e657220697320746865207a65726f206160448201526564647265737360d01b606482015260840162000410565b620010218162001429565b50565b600354600090620010355750600090565b60035462001046906001906200196f565b905090565b620010556200170f565b8142106200109a5760405162461bcd60e51b815260206004820152601160248201527011d0ce88125b9d985b1a59081cdd185c9d607a1b604482015260640162000410565b6000620010aa610e108462001906565b604080516080810182529485526020850191909152600090840152505033606082015290565b6003805460009190620010e6906001906200196f565b81548110620010f957620010f9620018da565b9060005260206000209060040201905090565b60006200112383670de0b6b3a76400008462001479565b9392505050565b60095460ff16620011745760405162461bcd60e51b815260206004820152601360248201527211d0ce88139bdd081a5b9a5d1a585b1a5e9959606a1b604482015260640162000410565b6006546040516370a0823160e01b81523060048201526000916001600160a01b0316906370a082319060240160206040518083038186803b158015620011b957600080fd5b505afa158015620011ce573d6000803e3d6000fd5b505050506040513d601f19601f82011682018060405250810190620011f491906200193f565b905060006200120b8266354a6ba7a1800062001499565b905060006200121b82846200196f565b905060005b6001548110156200132957600060018281548110620012435762001243620018da565b60009182526020808320909101546001600160a01b0316808352600490915260408220549092509062001277858362001499565b60065460405163a9059cbb60e01b81526001600160a01b0386811660048301526024820184905292935091169063a9059cbb90604401602060405180830381600087803b158015620012c857600080fd5b505af1158015620012dd573d6000803e3d6000fd5b505050506040513d601f19601f8201168201806040525081019062001303919062001989565b50620013108382620014b0565b5050508080620013209062001921565b91505062001220565b5060065462001343906001600160a01b0316858462001600565b50505050565b620013536200170f565b426000610e1062001363620010d0565b6001015462001373919062001906565b90505b8181101562001395576200138d610e108262001906565b905062001376565b6040805160808101825292835260208301919091526000908201526001600160a01b0390921660608301525090565b6000805b60015481101562000f7c57826001600160a01b031660018281548110620013f357620013f3620018da565b6000918252602090912001546001600160a01b031614156200141457600191505b80620014208162001921565b915050620013c8565b600080546001600160a01b038381166001600160a01b0319831681178455604051919092169283917f8be0079c531659141344cd1fd0a4f28419497f9722a3daafe3b4186f6b6457e09190a35050565b8282028115158415858304851417166200149257600080fd5b0492915050565b6000620011238383670de0b6b3a764000062001479565b6000426006546040516370a0823160e01b81526001600160a01b038681166004830152929350600092909116906370a082319060240160206040518083038186803b158015620014ff57600080fd5b505afa15801562001514573d6000803e3d6000fd5b505050506040513d601f19601f820116820180604052508101906200153a91906200193f565b6001600160a01b0385166000818152600260205260409020549192509063331e43f590849084906200157c6034620015758a610e106200167d565b906200110c565b6040516001600160e01b031960e087901b1681526004810194909452602484019290925260448301526064820152608401600060405180830381600087803b158015620015c857600080fd5b505af1158015620015dd573d6000803e3d6000fd5b5050506001600160a01b0390941660009081526002602052604081205550505050565b600060405163a9059cbb60e01b81526001600160a01b03841660048201528260248201526000806044836000895af19150506200163d8162001694565b620013435760405162461bcd60e51b815260206004820152600f60248201526e1514905394d1915497d19052531151608a1b604482015260640162000410565b6000620011238383670de0b6b3a7640000620016e0565b60003d82620016a757806000803e806000fd5b8060208114620016c2578015620016d45760009250620016d9565b816000803e60005115159250620016d9565b600192505b5050919050565b828202811515841585830485141716620016f957600080fd5b6001826001830304018115150290509392505050565b604051806080016040528060008152602001600081526020016000815260200160006001600160a01b031681525090565b610af680620019ae83390190565b6000602082840312156200176157600080fd5b5035919050565b80356001600160a01b03811681146200178057600080fd5b919050565b6000602082840312156200179857600080fd5b620011238262001768565b60008060408385031215620017b757600080fd5b82359150620017c96020840162001768565b90509250929050565b6020808252825182820181905260009190848201906040850190845b81811015620018155783516001600160a01b031683529284019291840191600101620017ee565b50909695505050505050565b602080825282518282018190526000919060409081850190868401855b828110156200186e57815180516001600160a01b031685528601518685015292840192908501906001016200183e565b5091979650505050505050565b6020808252818101527f4f776e61626c653a2063616c6c6572206973206e6f7420746865206f776e6572604082015260600190565b60208082526010908201526f47433a205a65726f206164647265737360801b604082015260600190565b634e487b7160e01b600052603260045260246000fd5b634e487b7160e01b600052601160045260246000fd5b600082198211156200191c576200191c620018f0565b500190565b6000600019821415620019385762001938620018f0565b5060010190565b6000602082840312156200195257600080fd5b5051919050565b634e487b7160e01b600052604160045260246000fd5b600082821015620019845762001984620018f0565b500390565b6000602082840312156200199c57600080fd5b815180151581146200112357600080fdfe608060405234801561001057600080fd5b50604051610af6380380610af683398101604081905261002f91610083565b600380546001600160a01b03199081163317909155600080546001600160a01b03948516908316179055600280549290931691161790556100bd565b6001600160a01b038116811461008057600080fd5b50565b6000806040838503121561009657600080fd5b82516100a18161006b565b60208401519092506100b28161006b565b809150509250929050565b610a2a806100cc6000396000f3fe608060405234801561001057600080fd5b50600436106101005760003560e01c80637defc6b311610097578063a991c9b511610066578063a991c9b514610274578063b69ef8a81461027c578063f77c479114610284578063f7c618c11461029757600080fd5b80637defc6b3146101fd5780639a835e91146102105780639e447fc61461024e578063a446b9001461026157600080fd5b80635a3382c9116100d35780635a3382c91461018b57806368fd25cd146101c457806378317be7146101cd5780637b0a47ee146101f557600080fd5b80632c48a80e14610105578063331e43f5146101495780633b92eb231461015e5780634e71d92d14610183575b600080fd5b61010d6102a8565b60405161014091908151815260208083015190820152604080830151908201526060918201519181019190915260800190565b60405180910390f35b61015c6101573660046108d6565b610300565b005b6002546001600160a01b03165b6040516001600160a01b039091168152602001610140565b61015c610347565b6101b6610199366004610924565b600960209081526000928352604080842090915290825290205481565b604051908152602001610140565b6101b660015481565b6101e06101db366004610950565b610586565b60408051928352901515602083015201610140565b6001546101b6565b60025461016b906001600160a01b031681565b61023e61021e366004610924565b600860209081526000928352604080842090915290825290205460ff1681565b6040519015158152602001610140565b61015c61025c36600461096b565b6106bb565b61015c61026f366004610984565b6106ea565b6005546101b6565b6101b661073f565b60035461016b906001600160a01b031681565b6000546001600160a01b031661016b565b6102d36040518060800160405280600081526020016000815260200160008152602001600081525090565b50604080516080810182526004548152600554602082015260065491810191909152600754606082015290565b6003546001600160a01b031633146103335760405162461bcd60e51b815260040161032a906109ae565b60405180910390fd5b600493909355600591909155600655600755565b60065415801590610359575060055415155b8015610366575060045415155b6103a95760405162461bcd60e51b81526020600482015260146024820152731311ce88125b9d985b1a59081cdb985c1cda1bdd60621b604482015260640161032a565b60025460048054604051627eeac760e11b815233928101839052602481019190915290916000916001600160a01b039091169062fdd58e9060440160206040518083038186803b1580156103fc57600080fd5b505afa158015610410573d6000803e3d6000fd5b505050506040513d601f19601f8201168201806040525081019061043491906109db565b60045460009081526008602090815260408083206001600160a01b038716845290915290205490915060ff16156104a35760405162461bcd60e51b81526020600482015260136024820152721311ce88185b1c9958591e4818db185a5b5959606a1b604482015260640161032a565b60045460009081526009602090815260408083206001600160a01b0386168452909152902054158015906104d75750600081115b61051b5760405162461bcd60e51b81526020600482015260156024820152741311ce88159bdd19481b9bdd081c9958dbdc991959605a1b604482015260640161032a565b60045460009081526008602090815260408083206001600160a01b03861684529091528120805460ff1916600117905560055460065461056791906105619085906107c0565b906107dc565b600054909150610581906001600160a01b031684836107f1565b505050565b60045460009081526008602090815260408083206001600160a01b038516845290915281205460055460ff909116906105c25760009150915091565b60025460048054604051627eeac760e11b81526000936001600160a01b03169262fdd58e92610607928992016001600160a01b03929092168252602082015260400190565b60206040518083038186803b15801561061f57600080fd5b505afa158015610633573d6000803e3d6000fd5b505050506040513d601f19601f8201168201806040525081019061065791906109db565b60045460009081526009602090815260408083206001600160a01b03891684529091529020549091501580159061068e5750600081115b156106b0576005546006546106a991906105619084906107c0565b92506106b5565b600092505b50915091565b6003546001600160a01b031633146106e55760405162461bcd60e51b815260040161032a906109ae565b600155565b6003546001600160a01b031633146107145760405162461bcd60e51b815260040161032a906109ae565b60045460009081526009602090815260408083206001600160a01b0390951683529390529190912055565b600080546040516370a0823160e01b81523060048201526001600160a01b03909116906370a082319060240160206040518083038186803b15801561078357600080fd5b505afa158015610797573d6000803e3d6000fd5b505050506040513d601f19601f820116820180604052508101906107bb91906109db565b905090565b60006107d58383670de0b6b3a7640000610870565b9392505050565b60006107d583670de0b6b3a764000084610870565b600060405163a9059cbb60e01b81526001600160a01b03841660048201528260248201526000806044836000895af191505061082c8161088f565b61086a5760405162461bcd60e51b815260206004820152600f60248201526e1514905394d1915497d19052531151608a1b604482015260640161032a565b50505050565b82820281151584158583048514171661088857600080fd5b0492915050565b60003d826108a157806000803e806000fd5b80602081146108b95780156108ca57600092506108cf565b816000803e600051151592506108cf565b600192505b5050919050565b600080600080608085870312156108ec57600080fd5b5050823594602084013594506040840135936060013592509050565b80356001600160a01b038116811461091f57600080fd5b919050565b6000806040838503121561093757600080fd5b8235915061094760208401610908565b90509250929050565b60006020828403121561096257600080fd5b6107d582610908565b60006020828403121561097d57600080fd5b5035919050565b6000806040838503121561099757600080fd5b6109a083610908565b946020939093013593505050565b60208082526013908201527226239d1027b7363c9021b7b73a3937b63632b960691b604082015260600190565b6000602082840312156109ed57600080fd5b505191905056fea26469706673582212200a70c64b1cc2856956ae311b9ca37b5d893e22e95992a40315fcc3256e5b99ca64736f6c63430008090033a2646970667358221220e9bf90074817aea3842be33d621f0ff1d48c51541e151ed9e8d3c502a264b52e64736f6c63430008090033",
  "linkReferences": {},
  "deployedLinkReferences": {}
}