{
  "_format": "hh-sol-artifact-1",
  "contractName": "LiquidityGauge",
  "sourceName": "contracts/gauges/LiquidityGauge.sol",
  "abi": [
    {
      "inputs": [
        {
          "internalType": "contract ERC20",
          "name": "rewards",
          "type": "address"
        },
        {
          "internalType": "contract IveToken",
          "name": "ve",
          "type": "address"
        }
      ],
      "stateMutability": "nonpayable",
      "type": "constructor"
    },
    {
      "inputs": [],
      "name": "_rewardRate",
      "outputs": [
        {
          "internalType": "uint256",
          "name": "",
          "type": "uint256"
        }
      ],
      "stateMutability": "view",
      "type": "function"
    },
    {
      "inputs": [],
      "name": "_veToken",
      "outputs": [
        {
          "internalType": "contract IveToken",
          "name": "",
          "type": "address"
        }
      ],
      "stateMutability": "view",
      "type": "function"
    },
    {
      "inputs": [
        {
          "internalType": "uint256",
          "name": "",
          "type": "uint256"
        },
        {
          "internalType": "address",
          "name": "",
          "type": "address"
        }
      ],
      "name": "accountVoted",
      "outputs": [
        {
          "internalType": "uint256",
          "name": "",
          "type": "uint256"
        }
      ],
      "stateMutability": "view",
      "type": "function"
    },
    {
      "inputs": [],
      "name": "balance",
      "outputs": [
        {
          "internalType": "uint256",
          "name": "blnc",
          "type": "uint256"
        }
      ],
      "stateMutability": "view",
      "type": "function"
    },
    {
      "inputs": [],
      "name": "claim",
      "outputs": [],
      "stateMutability": "nonpayable",
      "type": "function"
    },
    {
      "inputs": [
        {
          "internalType": "address",
          "name": "account",
          "type": "address"
        }
      ],
      "name": "claimAmount",
      "outputs": [
        {
          "internalType": "uint256",
          "name": "amount",
          "type": "uint256"
        },
        {
          "internalType": "bool",
          "name": "claimed",
          "type": "bool"
        }
      ],
      "stateMutability": "view",
      "type": "function"
    },
    {
      "inputs": [],
      "name": "controller",
      "outputs": [
        {
          "internalType": "address",
          "name": "",
          "type": "address"
        }
      ],
      "stateMutability": "view",
      "type": "function"
    },
    {
      "inputs": [],
      "name": "currentSnapshot",
      "outputs": [
        {
          "components": [
            {
              "internalType": "uint256",
              "name": "timestamp",
              "type": "uint256"
            },
            {
              "internalType": "uint256",
              "name": "balance",
              "type": "uint256"
            },
            {
              "internalType": "uint256",
              "name": "weight",
              "type": "uint256"
            },
            {
              "internalType": "uint256",
              "name": "rate",
              "type": "uint256"
            }
          ],
          "internalType": "struct LiquidityGauge.GaugeSnapshot",
          "name": "",
          "type": "tuple"
        }
      ],
      "stateMutability": "view",
      "type": "function"
    },
    {
      "inputs": [
        {
          "internalType": "address",
          "name": "account",
          "type": "address"
        },
        {
          "internalType": "uint256",
          "name": "votingPower",
          "type": "uint256"
        }
      ],
      "name": "recordVote",
      "outputs": [],
      "stateMutability": "nonpayable",
      "type": "function"
    },
    {
      "inputs": [],
      "name": "rewardRate",
      "outputs": [
        {
          "internalType": "uint256",
          "name": "",
          "type": "uint256"
        }
      ],
      "stateMutability": "view",
      "type": "function"
    },
    {
      "inputs": [],
      "name": "rewardToken",
      "outputs": [
        {
          "internalType": "address",
          "name": "",
          "type": "address"
        }
      ],
      "stateMutability": "view",
      "type": "function"
    },
    {
      "inputs": [
        {
          "internalType": "uint256",
          "name": "",
          "type": "uint256"
        },
        {
          "internalType": "address",
          "name": "",
          "type": "address"
        }
      ],
      "name": "rewardsClaimed",
      "outputs": [
        {
          "internalType": "bool",
          "name": "",
          "type": "bool"
        }
      ],
      "stateMutability": "view",
      "type": "function"
    },
    {
      "inputs": [
        {
          "internalType": "uint256",
          "name": "rate",
          "type": "uint256"
        }
      ],
      "name": "setRewardRate",
      "outputs": [],
      "stateMutability": "nonpayable",
      "type": "function"
    },
    {
      "inputs": [
        {
          "internalType": "uint256",
          "name": "_timestamp",
          "type": "uint256"
        },
        {
          "internalType": "uint256",
          "name": "_balance",
          "type": "uint256"
        },
        {
          "internalType": "uint256",
          "name": "_weight",
          "type": "uint256"
        },
        {
          "internalType": "uint256",
          "name": "_rate",
          "type": "uint256"
        }
      ],
      "name": "setSnapshot",
      "outputs": [],
      "stateMutability": "nonpayable",
      "type": "function"
    },
    {
      "inputs": [],
      "name": "snapshotBalance",
      "outputs": [
        {
          "internalType": "uint256",
          "name": "",
          "type": "uint256"
        }
      ],
      "stateMutability": "view",
      "type": "function"
    },
    {
      "inputs": [],
      "name": "veToken",
      "outputs": [
        {
          "internalType": "address",
          "name": "",
          "type": "address"
        }
      ],
      "stateMutability": "view",
      "type": "function"
    }
  ],
  "bytecode": "0x608060405234801561001057600080fd5b50604051610af6380380610af683398101604081905261002f91610083565b600380546001600160a01b03199081163317909155600080546001600160a01b03948516908316179055600280549290931691161790556100bd565b6001600160a01b038116811461008057600080fd5b50565b6000806040838503121561009657600080fd5b82516100a18161006b565b60208401519092506100b28161006b565b809150509250929050565b610a2a806100cc6000396000f3fe608060405234801561001057600080fd5b50600436106101005760003560e01c80637defc6b311610097578063a991c9b511610066578063a991c9b514610274578063b69ef8a81461027c578063f77c479114610284578063f7c618c11461029757600080fd5b80637defc6b3146101fd5780639a835e91146102105780639e447fc61461024e578063a446b9001461026157600080fd5b80635a3382c9116100d35780635a3382c91461018b57806368fd25cd146101c457806378317be7146101cd5780637b0a47ee146101f557600080fd5b80632c48a80e14610105578063331e43f5146101495780633b92eb231461015e5780634e71d92d14610183575b600080fd5b61010d6102a8565b60405161014091908151815260208083015190820152604080830151908201526060918201519181019190915260800190565b60405180910390f35b61015c6101573660046108d6565b610300565b005b6002546001600160a01b03165b6040516001600160a01b039091168152602001610140565b61015c610347565b6101b6610199366004610924565b600960209081526000928352604080842090915290825290205481565b604051908152602001610140565b6101b660015481565b6101e06101db366004610950565b610586565b60408051928352901515602083015201610140565b6001546101b6565b60025461016b906001600160a01b031681565b61023e61021e366004610924565b600860209081526000928352604080842090915290825290205460ff1681565b6040519015158152602001610140565b61015c61025c36600461096b565b6106bb565b61015c61026f366004610984565b6106ea565b6005546101b6565b6101b661073f565b60035461016b906001600160a01b031681565b6000546001600160a01b031661016b565b6102d36040518060800160405280600081526020016000815260200160008152602001600081525090565b50604080516080810182526004548152600554602082015260065491810191909152600754606082015290565b6003546001600160a01b031633146103335760405162461bcd60e51b815260040161032a906109ae565b60405180910390fd5b600493909355600591909155600655600755565b60065415801590610359575060055415155b8015610366575060045415155b6103a95760405162461bcd60e51b81526020600482015260146024820152731311ce88125b9d985b1a59081cdb985c1cda1bdd60621b604482015260640161032a565b60025460048054604051627eeac760e11b815233928101839052602481019190915290916000916001600160a01b039091169062fdd58e9060440160206040518083038186803b1580156103fc57600080fd5b505afa158015610410573d6000803e3d6000fd5b505050506040513d601f19601f8201168201806040525081019061043491906109db565b60045460009081526008602090815260408083206001600160a01b038716845290915290205490915060ff16156104a35760405162461bcd60e51b81526020600482015260136024820152721311ce88185b1c9958591e4818db185a5b5959606a1b604482015260640161032a565b60045460009081526009602090815260408083206001600160a01b0386168452909152902054158015906104d75750600081115b61051b5760405162461bcd60e51b81526020600482015260156024820152741311ce88159bdd19481b9bdd081c9958dbdc991959605a1b604482015260640161032a565b60045460009081526008602090815260408083206001600160a01b03861684529091528120805460ff1916600117905560055460065461056791906105619085906107c0565b906107dc565b600054909150610581906001600160a01b031684836107f1565b505050565b60045460009081526008602090815260408083206001600160a01b038516845290915281205460055460ff909116906105c25760009150915091565b60025460048054604051627eeac760e11b81526000936001600160a01b03169262fdd58e92610607928992016001600160a01b03929092168252602082015260400190565b60206040518083038186803b15801561061f57600080fd5b505afa158015610633573d6000803e3d6000fd5b505050506040513d601f19601f8201168201806040525081019061065791906109db565b60045460009081526009602090815260408083206001600160a01b03891684529091529020549091501580159061068e5750600081115b156106b0576005546006546106a991906105619084906107c0565b92506106b5565b600092505b50915091565b6003546001600160a01b031633146106e55760405162461bcd60e51b815260040161032a906109ae565b600155565b6003546001600160a01b031633146107145760405162461bcd60e51b815260040161032a906109ae565b60045460009081526009602090815260408083206001600160a01b0390951683529390529190912055565b600080546040516370a0823160e01b81523060048201526001600160a01b03909116906370a082319060240160206040518083038186803b15801561078357600080fd5b505afa158015610797573d6000803e3d6000fd5b505050506040513d601f19601f820116820180604052508101906107bb91906109db565b905090565b60006107d58383670de0b6b3a7640000610870565b9392505050565b60006107d583670de0b6b3a764000084610870565b600060405163a9059cbb60e01b81526001600160a01b03841660048201528260248201526000806044836000895af191505061082c8161088f565b61086a5760405162461bcd60e51b815260206004820152600f60248201526e1514905394d1915497d19052531151608a1b604482015260640161032a565b50505050565b82820281151584158583048514171661088857600080fd5b0492915050565b60003d826108a157806000803e806000fd5b80602081146108b95780156108ca57600092506108cf565b816000803e600051151592506108cf565b600192505b5050919050565b600080600080608085870312156108ec57600080fd5b5050823594602084013594506040840135936060013592509050565b80356001600160a01b038116811461091f57600080fd5b919050565b6000806040838503121561093757600080fd5b8235915061094760208401610908565b90509250929050565b60006020828403121561096257600080fd5b6107d582610908565b60006020828403121561097d57600080fd5b5035919050565b6000806040838503121561099757600080fd5b6109a083610908565b946020939093013593505050565b60208082526013908201527226239d1027b7363c9021b7b73a3937b63632b960691b604082015260600190565b6000602082840312156109ed57600080fd5b505191905056fea264697066735822122059a01474f7ce8893667d5fafac593d0447726aaeb6b8ce025dd674938bee870764736f6c63430008090033",
  "linkReferences": {},
  "deployedLinkReferences": {}
}