{
    "_format": "hh-sol-artifact-1",
    "contractName": "LiquidityGauge",
    "sourceName": "contracts/gauges/LiquidityGauge.sol",
    "abi": [
        {
            "inputs": [],
            "stateMutability": "nonpayable",
            "type": "constructor"
        },
        {
            "inputs": [
                {
                    "internalType": "uint256",
                    "name": "",
                    "type": "uint256"
                },
                {
                    "internalType": "address",
                    "name": "",
                    "type": "address"
                }
            ],
            "name": "accountVoted",
            "outputs": [
                {
                    "internalType": "uint256",
                    "name": "",
                    "type": "uint256"
                }
            ],
            "stateMutability": "view",
            "type": "function"
        },
        {
            "inputs": [],
            "name": "balance",
            "outputs": [
                {
                    "internalType": "uint256",
                    "name": "blnc",
                    "type": "uint256"
                }
            ],
            "stateMutability": "view",
            "type": "function"
        },
        {
            "inputs": [],
            "name": "claim",
            "outputs": [],
            "stateMutability": "nonpayable",
            "type": "function"
        },
        {
            "inputs": [],
            "name": "controller",
            "outputs": [
                {
                    "internalType": "address",
                    "name": "",
                    "type": "address"
                }
            ],
            "stateMutability": "view",
            "type": "function"
        },
        {
            "inputs": [
                {
                    "internalType": "address",
                    "name": "account",
                    "type": "address"
                },
                {
                    "internalType": "uint256",
                    "name": "votingPower",
                    "type": "uint256"
                }
            ],
            "name": "recordVote",
            "outputs": [],
            "stateMutability": "nonpayable",
            "type": "function"
        },
        {
            "inputs": [
                {
                    "internalType": "uint256",
                    "name": "",
                    "type": "uint256"
                },
                {
                    "internalType": "address",
                    "name": "",
                    "type": "address"
                }
            ],
            "name": "rewardsClaimed",
            "outputs": [
                {
                    "internalType": "bool",
                    "name": "",
                    "type": "bool"
                }
            ],
            "stateMutability": "view",
            "type": "function"
        },
        {
            "inputs": [],
            "name": "rewardsToken",
            "outputs": [
                {
                    "internalType": "contract ERC20",
                    "name": "",
                    "type": "address"
                }
            ],
            "stateMutability": "view",
            "type": "function"
        },
        {
            "inputs": [
                {
                    "internalType": "uint256",
                    "name": "_timestamp",
                    "type": "uint256"
                },
                {
                    "internalType": "uint256",
                    "name": "_balance",
                    "type": "uint256"
                },
                {
                    "internalType": "uint256",
                    "name": "_weight",
                    "type": "uint256"
                }
            ],
            "name": "setSnapshot",
            "outputs": [],
            "stateMutability": "nonpayable",
            "type": "function"
        },
        {
            "inputs": [],
            "name": "snapshotBalance",
            "outputs": [
                {
                    "internalType": "uint256",
                    "name": "",
                    "type": "uint256"
                }
            ],
            "stateMutability": "view",
            "type": "function"
        },
        {
            "inputs": [],
            "name": "veToken",
            "outputs": [
                {
                    "internalType": "contract IveToken",
                    "name": "",
                    "type": "address"
                }
            ],
            "stateMutability": "view",
            "type": "function"
        }
    ],
    "bytecode": "0x608060405234801561001057600080fd5b50600280546001600160a01b03191633179055610748806100326000396000f3fe608060405234801561001057600080fd5b506004361061009e5760003560e01c8063a991c9b511610066578063a991c9b514610167578063b69ef8a81461016f578063d1af0c7d14610177578063e865621a1461018a578063f77c47911461019d57600080fd5b80633b92eb23146100a35780634e71d92d146100d35780635a3382c9146100dd5780639a835e9114610116578063a446b90014610154575b600080fd5b6001546100b6906001600160a01b031681565b6040516001600160a01b0390911681526020015b60405180910390f35b6100db6101b0565b005b6101086100eb366004610677565b600760209081526000928352604080842090915290825290205481565b6040519081526020016100ca565b610144610124366004610677565b600660209081526000928352604080842090915290825290205460ff1681565b60405190151581526020016100ca565b6100db6101623660046106a3565b6103eb565b600454610108565b610108610466565b6000546100b6906001600160a01b031681565b6100db6101983660046106cd565b6104e7565b6002546100b6906001600160a01b031681565b600554158015906101c2575060045415155b80156101cf575060035415155b6102175760405162461bcd60e51b81526020600482015260146024820152731311ce88125b9d985b1a59081cdb985c1cda1bdd60621b60448201526064015b60405180910390fd5b600154600354604051627eeac760e11b81523360048201819052602482019290925290916000916001600160a01b039091169062fdd58e9060440160206040518083038186803b15801561026a57600080fd5b505afa15801561027e573d6000803e3d6000fd5b505050506040513d601f19601f820116820180604052508101906102a291906106f9565b60035460009081526006602090815260408083206001600160a01b038716845290915290205490915060ff16156103145760405162461bcd60e51b815260206004820152601660248201527511d85d59d94e88185b1c9958591e4818db185a5b595960521b604482015260640161020e565b60035460009081526007602090815260408083206001600160a01b038616845290915290205481146103805760405162461bcd60e51b81526020600482015260156024820152741311ce88159bdd19481b9bdd081c9958dbdc991959605a1b604482015260640161020e565b60035460009081526006602090815260408083206001600160a01b03861684529091528120805460ff191660011790556004546005546103cc91906103c6908590610545565b90610561565b6000549091506103e6906001600160a01b03168483610576565b505050565b6002546001600160a01b0316331461043b5760405162461bcd60e51b815260206004820152601360248201527226239d1027b7363c9021b7b73a3937b63632b960691b604482015260640161020e565b60035460009081526007602090815260408083206001600160a01b0390951683529390529190912055565b600080546040516370a0823160e01b81523060048201526001600160a01b03909116906370a082319060240160206040518083038186803b1580156104aa57600080fd5b505afa1580156104be573d6000803e3d6000fd5b505050506040513d601f19601f820116820180604052508101906104e291906106f9565b905090565b6002546001600160a01b031633146105375760405162461bcd60e51b815260206004820152601360248201527226239d1027b7363c9021b7b73a3937b63632b960691b604482015260640161020e565b600392909255600455600555565b600061055a8383670de0b6b3a76400006105f5565b9392505050565b600061055a83670de0b6b3a7640000846105f5565b600060405163a9059cbb60e01b81526001600160a01b03841660048201528260248201526000806044836000895af19150506105b181610614565b6105ef5760405162461bcd60e51b815260206004820152600f60248201526e1514905394d1915497d19052531151608a1b604482015260640161020e565b50505050565b82820281151584158583048514171661060d57600080fd5b0492915050565b60003d8261062657806000803e806000fd5b806020811461063e57801561064f5760009250610654565b816000803e60005115159250610654565b600192505b5050919050565b80356001600160a01b038116811461067257600080fd5b919050565b6000806040838503121561068a57600080fd5b8235915061069a6020840161065b565b90509250929050565b600080604083850312156106b657600080fd5b6106bf8361065b565b946020939093013593505050565b6000806000606084860312156106e257600080fd5b505081359360208301359350604090920135919050565b60006020828403121561070b57600080fd5b505191905056fea2646970667358221220197e48ae7ed9db50a40e46ce7d2d4571eaed71b7eb59208521d2db05e03b8dd464736f6c63430008090033",
    "linkReferences": {},
    "deployedLinkReferences": {}
}